:020000040800F2
:10000000A8990020650C0108310800083308000891
:10001000370800083B0800083F08000800000000FF
:100020000000000000000000000000009D02000829
:100030004308000800000000F1020008750A0108EA
:100040007F0C01087F0C01087F0C01087F0C010860
:100050007F0C01087F0C01087F0C01087F0C010850
:100060007F0C01087F0C01087F0C01087F0C010840
:100070007F0C01087F0C01087F0C01087F0C010830
:100080007F0C01087F0C01087F0C01087F0C010820
:100090007F0C01087F0C01087F0C01087F0C010810
:1000A0007F0C01087F0C01087F0C01087F0C010800
:1000B00087080008890800088B0800087F0C0108E1
:1000C0007F0C01087F0C01087F0C01087F0C0108E0
:1000D0007F0C01087F0C01087F0C01087F0C0108D0
:1000E0007F0C01087F0C01087F0C01087F0C0108C0
:1000F0007F0C01087F0C01087F0C01087F0C0108B0
:100100007F0C01087F0C01088D0800087F0C010896
:100110007F0C01087F0C01087F0C01087F0C01088F
:100120007F0C01087F0C01087F0C01087F0C01087F
:100130007F0C0108450800087F0C01087F0C0108AE
:100140007F0C01087F0C01087F0C01087F0C01085F
:100150007F0C01087F0C01087F0C01087F0C01084F
:100160007F0C01087F0C01087F0C01087F0C01083F
:100170007F0C01087F0C01087F0C01087F0C01082F
:100180007F0C01087F0C010800F002F800F076F8FF
:100190000AA090E8000C82448344AAF10107DA45E2
:1001A00001D100F06BF8AFF2090EBAE80F0013F0BE
:1001B000010F18BFFB1A43F001031847446F0300F7
:1001C000646F03000A444FF0000C10F8013B13F079
:1001D000070408BF10F8014B1D1108BF10F8015BA0
:1001E000641E05D010F8016B641E01F8016BF9D193
:1001F00013F0080F1EBF10F8014BAD1C0C1B09D1EA
:100200006D1E58BF01F801CBFAD505E014F8016B5B
:1002100001F8016B6D1EF9D59142D6D370470000ED
:100220000023002400250026103A28BF78C1FBD8FF
:10023000520728BF30C148BF0B607047662912F0D3
:100240001886642910F0E885752910F0E585632982
:1002500011F0CD82002070471FB512F000FE9DE81E
:10026000030011F001F811F005FB0400002000214B
:1002700012F072F8E0601FBD10B510BD11F014FC53
:100280001146FFF7E9FF00F0CEF811F032FC03B49D
:10029000FFF7F2FF03BC11F05FFC00002A4B196866
:1002A0000868B0E8F04F80F30988BFF36F8F4FF014
:1002B000000080F3118870470000000006480068C5
:1002C000006880F3088862B661B6BFF34F8FBFF352
:1002D0006F8F00DF00BF00BF08ED00E0DFF80C000B
:1002E000016841F470010160704700BF88ED00E0D3
:1002F000EFF30980BFF36F8F134B1A681EF0100FD6
:1003000008BF20ED108A20E9F04F106008B44FF0CC
:10031000500080F31188BFF34F8FBFF36F8F0FF042
:100320009AFA4FF0000080F3118808BC1968086839
:10033000B0E8F04F1EF0100F08BFB0EC108A80F349
:100340000988BFF36F8F704728020020EFF3058004
:10035000704700000EB5012108200BF048FC50202A
:1003600001900020ADF80000ADF80800ADF80200E3
:100370006946A0480BF027FF00219E480BF082FF42
:1003800001219C480CF0E8FB0122114699480CF031
:10039000BBFB002197480BF09FFF0EBD10B5044634
:1003A00095480480FFF7D6FF002192480BF054FFD8
:1003B000012190480BF090FF00BF8F480088002873
:1003C000FBD100218B480BF087FF10BD10B5012138
:1003D0008A480BF015FA4FF4F070FFF7DFFF0121A8
:1003E00086480BF00BFA4620FFF7D8FF012183481F
:1003F0000BF0EAF904464FF4CD70FFF7CFFF20462B
:1004000010BD00BFFFF7E2FFFCE710B5002009F0C8
:10041000DFFE012009F0DCFE022009F0D9FE0320F6
:1004200009F0D6FE10BD1FB54FF4E131744806F057
:1004300053FBFFF7EAFF06F077FF002001F091F988
:1004400008F045F800F0C2FF4FF440700AF016FBC8
:1004500000F095FA012102200BF096FB012002909A
:100460008DF80C0000208DF80E0003208DF80D0093
:1004700001208DF80F0002A960480BF043F900201D
:10048000012103460A02CDE900105EA1AFF28D0002
:100490000EF0ABFE0FF0A9FB00BFFEE700BF08F0B7
:1004A000C4F906F025F906F0FEF900F03FFCF6E786
:1004B00000BF58480078401C56490870084600782C
:1004C0003B2807DD54480078401C53490870002041
:1004D00050490870504800783B2807DD4F480078A5
:1004E000401C4E49087000204B4908704B4800786A
:1004F000172806DD0020494908704749087045491A
:1005000008704FF47A700FF095F8D2E700BF5020D2
:1005100080F31188BFF34F8FBFF36F8F00BF00BF11
:10052000FEE7704710B506F0DBF910BD10B50121EC
:1005300032480BF065F90620FFF730FF01212F4804
:100540000BF05CF94020FFF729FF10BD10B5012129
:100550002A480BF055F93C20FFF720FF01212748DE
:100560000BF04CF90A20FFF719FF10BD10B5044637
:10057000012C02D1FFF7DAFF01E0FFF7E7FF10BD22
:1005800010B501211D480BF03BF90620FFF706FFCF
:1005900001211A480BF032F90920FFF7FFFE012173
:1005A00016480BF011F904463720FFF7F7FE2046F6
:1005B00010BD70B50446082504E004F00100FFF703
:1005C000D5FF64102800A5F10101CDB2F5D170BDB1
:1005D00070B50825002405E06410FFF7D1FF44EA58
:1005E000C010C4B22800A5F10101CDB2F4D120465B
:1005F00070BD0000000C0040080000200004024014
:10060000001001404163747561746F725461736BC3
:10061000000000002600002025000020240000200B
:100620000CB50020019000907648006840F48030BE
:100630007449086000BF7348006800F400300090FF
:100640000198401C0190009818B90198B0F5A06F6E
:10065000F1D16C48006800F4003010B10120009026
:1006600001E0002000900098012846D16548403004
:10067000006840F08050634940310860624800687B
:1006800040F48040604908605E48083000685D4979
:10069000083108600846006840F4004008600846D9
:1006A000006840F4A05008605848091F0860081FFF
:1006B000006840F08070091F086000BF5148006862
:1006C00000F000700028F9D040F205205049086081
:1006D0004C480830006820F003004A49083108609F
:1006E0000846006840F00200086000BF4548083036
:1006F000006800F00C000828F8D10CBD10B5454882
:10070000006840F47000434908603E48006840F0CB
:1007100001003C49086000203A4908310860394826
:1007200000683D490840374908603C48091D086099
:10073000081F006820F48020091F0860002031494C
:100740000C310860FFF76CFF4FF0006031498039D1
:10075000086010BD70B50020002202230024022191
:10076000284D08352D6805F00C0020B1042806D06E
:10077000082834D107E02A4D2A4E356033E02A4D4F
:10078000284E35602FE01F4D2D1D2D68C5F3805478
:100790001C4D2D1D2D6805F03F0154B1224DB5FBB8
:1007A000F1F5184E361D3668C6F3881605FB06F2BD
:1007B00009E01B4DB5FBF1F5124E361D3668C6F348
:1007C000881605FB06F20F4D2D1D2D68C5F301455A
:1007D0006D1C6B00B2FBF3F5124E356003E0104D5B
:1007E000104E356000BF00BF064D08352D68C5F3BB
:1007F00003150E4E705D0B4D2D68C540094E3560DA
:1008000070BD0000003802400070004008544007EE
:10081000003C024088ED00E0FFFFF6FE10300024AF
:100820000024F4000C00002000127A0010000020C8
:10083000704700BFFEE700BFFEE700BFFEE700BF56
:10084000FEE7704708B50020009040200DF067FCDF
:10085000012804D16946114800680EF008FA4020CA
:100860000DF081FC4FF480300DF07DFC009848B114
:10087000009838B14FF0805009490860BFF34F8F9E
:10088000BFF36F8F08BD70477047704710B50121E7
:1008900004480CF061F900F0F4F810BD20020020CB
:1008A00004ED00E0000C00407047704710B50121D6
:1008B00008460BF069F910BD10B50AF023FBFFF7ED
:1008C000F5FFFFF7F2FFFFF7EFFF10BD0EB54FF496
:1008D0009670019041F26800ADF800000020ADF87C
:1008E00008001020ADF80200694682480BF06BFC4E
:1008F000002180480BF0C6FC01217E480CF02CF949
:10090000012211467B480CF0FFF84FF47A700190F9
:100910002A20ADF800000020ADF80800ADF8020074
:10092000694675480BF04FFC002173480BF0AAFC98
:10093000012171480CF010F9012211466E480CF0AB
:10094000E3F800216B480BF0C7FC00216A480BF06C
:10095000C3FC00214FF080400BF0BEFC0EBD10B573
:10096000012102200BF043F9012104200BF03FF993
:1009700010BD10B5FFF7F3FFFFF7A8FF10BD1CB5C2
:100980001D208DF8040000208DF805008DF806006C
:1009900001208DF8070001A80AF075F81E208DF8D7
:1009A000040002208DF805008DF8060001208DF866
:1009B000070001A80AF067F832208DF80000072030
:1009C0008DF8010000208DF8020001208DF8030051
:1009D00068460AF058F81CBD10B504464748048024
:1009E000002145480BF038FC012143480BF074FC12
:1009F00000BF424800880028FBD100213E480BF090
:100A00006BFC10BD38B504463C4804801E208DF8B0
:100A1000000000208DF801008DF8020001208DF803
:100A2000030068460AF02FF8012133480CF094F8CF
:100A3000002131480BF010FC01212F480BF04CFC39
:100A400000BF2E4800880028FBD100212A480BF067
:100A500043FC1E208DF8000002208DF801008DF867
:100A6000020001208DF8030068460AF00CF838BD3A
:100A70002248008820B121480088401E1F49088074
:100A800070471F48008820B11D480088401E1C493F
:100A9000088070471CB5012104200BF0B9F8002034
:100AA0008DF804008DF807008020009069461548F5
:100AB0000AF028FE1CBD10B5044601210D480CF0BB
:100AC0004BF821460B480BF0C7FB012109480BF0FE
:100AD00003FC10BD10B5002106480BF0FDFB10BD56
:100AE0004FF0E020006920F003004FF0E0210861A2
:100AF0007047000000040040000800402200002071
:100B0000080000200008024010B50246012341B150
:100B1000002004E003FB02F4A3B2441C20B288428C
:100B2000F8DB184610BD2DE9FF5F91461C46DDF845
:100B30003880B8F10A0F12D2DFE808F00F11110562
:100B4000060D0A0B080700BF00BF00BF042507E021
:100B500000BF062504E0032502E0012500E000BFF8
:100B600000BF04EB050A504610F09CF80646002230
:100B70006119491E7254B8F10A0F6FD2DFE808F00C
:100B80006C6E6E051263394E2C1F6C216019801E2D
:100B900031546D216019C01E315420216019001F8D
:100BA00031545CE033216019801E31546D2160198D
:100BB000C01E315420216019001F31544FE04321E1
:100BC0006019801E31546F216019C01E31542021DC
:100BD0006019001F315442E056216019801E3154C3
:100BE0006D216019C01E315420216019001F31543D
:100BF00035E06C216019801E31542F216019C01E10
:100C0000315467216019001F31546D216019401F54
:100C1000315420216019801F315420E0682160196F
:100C2000801E31542F216019C01E31546721601974
:100C3000001F31546D216019401F3154202160196B
:100C4000801F31540BE068216019801E315420212F
:100C50006019C01E315402E001E0FFE700BF00BF91
:100C6000002713E0E01B81B20A20FFF74DFF99FB3C
:100C7000F0F100FB119BE01B401E81B20A20FFF740
:100C800043FF9BFBF0F03030F0557F1CA742E9DBBF
:100C90003246DDE9000106F0E8FD304610F031F89B
:100CA000BDE8FF9F2DE9F05F2DED028B82468B465C
:100CB000B0EE408AF0EE608A16461F46DDF83080BE
:100CC000B8F1000F04D0B8F1020F03D1042502E0FF
:100CD000012500E000BF00BFF019401C00EB050932
:100CE00048460FF0DFFF0446B8F1000F09D0B8F115
:100CF000020F0DD153EC182BF7A1204610F028F865
:100D000007E053EC182BF7A1204610F021F800E083
:100D100000BF00BF22465946504606F0A6FD2046B9
:100D20000FF0EFFFBDEC028BBDE8F09F00B52DED9D
:100D3000028B83B0ED48008821287DD2DFE800F0E7
:100D40007C11FDFEFBFA7CF9F8F7F6F5F4F3F2F10D
:100D5000F0EFEEEDECEBEAE9E8E7E6E5E4E3E2E10B
:100D6000E00000214FF6FF7006F054FBE04806F06B
:100D70006EFBE04800780090DF480378DF48027897
:100D8000DFA101A80FF0E4FF01AA8221142006F0E0
:100D90006CFDDE48007830B1012834D0022852D0F2
:100DA000032879D163E04FF66861002006F032FB3A
:100DB000D74806F04CFBD748006811F0DFFF41EC44
:100DC000180B002001231A46B0EE480AF0EE680A1C
:100DD000642100908220FFF765FFC54806F037FBCD
:100DE000CC48006811F0CAFF41EC180B0020012329
:100DF0001A46B0EE480AF0EE680AAA210090502088
:100E0000FFF750FF49E04FF66861002006F002FB53
:100E1000BF4806F01CFB002003230090BE48028858
:100E200064218220FFF77FFEB14806F010FB082006
:100E300003230090B84800E0A9E2028887215020EF
:100E4000FFF771FE29E04FF66861002006F0E2FA34
:100E5000AF4806F0FCFA00200090B04890F900007E
:100E600082B2022364218220FFF75DFE15E045F285
:100E7000AA21002006F0CEFAA54806F0E8FA0020E4
:100E80000090A74890F9000082B2022364218220DA
:100E9000FFF749FE01E0FFE700BF00BF40F2FC4161
:100EA000002006F0B7FA9A4806F0D1FA9D4800688B
:100EB00011F064FF41EC180B002001231A46B0EE3C
:100EC000480AF0EE680A4FF4A57100908220FFF7FF
:100ED000E9FE874806F0BBFA9248006811F04EFF21
:100EE00041EC180B002001231A46B0EE480AF0EE40
:100EF000680A4FF4C87100905020FFF7D3FE47E214
:100F000010E2D6E1D4E19AE198E163E161E13BE1ED
:100F100014E12FE298E096E035E233E231E22FE28D
:100F20002DE22BE228E228E27BE068E02EE240E0BE
:100F30003EE02AE21FE209E200E025E24FF66861A6
:100F4000002006F067FA724806F081FA0320034693
:100F50009622552100907820FFF7E5FD644806F0C1
:100F600076FA032003464FF4C8729B210090462076
:100F7000FFF7D9FD40F2FC41002006F04BFA64482F
:100F800006F065FA03200346962240F23B110090DA
:100F90007820FFF7C8FD564806F059FA03200346AB
:100FA000C82240F2811100904620FFF7BCFDEFE11E
:100FB00000BF45F2AA214FF6FF7006F02BFA544805
:100FC00006F045FA04200223009057480288692160
:100FD0006420FFF7A8FD45F2AA214FF6FF7006F046
:100FE00019FA4B4806F033FA0520022300904F48C7
:100FF000028840F23B116420FFF795FDC8E147F2FB
:10100000C5514FF6FF7006F005FA414806F01FFA89
:10101000002002230F22C32100909620FFF783FDBA
:10102000B6E14EF2E3014FF6FF7006F0F3F93848EF
:1010300006F00DFA002002231422C321009096200E
:10104000FFF771FDA4E100BF4FF66861002006F0D4
:10105000E1F92F4806F0FBF92E48006811F08EFEEA
:1010600041EC180B002001231A46B0EE480AF0EEBE
:10107000680A642100900846FFF714FE1C4806F039
:10108000E6F92BA2A5216E2006F0EFFB40F2FC4111
:10109000002006F0BFF91E4806F0D9F92148006883
:1010A00011F06CFE41EC180B002001231A46B0EE43
:1010B000480AF0EE680A4FF4A57100906420FFF72B
:1010C000F1FD0B4806F0C3F91BA240F28B116E2014
:1010D00006F0CBFB5CE1000025312E316620704824
:1010E0000000000025312E31660000006C00002059
:1010F0004C010020260000202500002024000020B4
:101100002532643A2532643A253264002D000020ED
:101110004401002064000020560000204C00002004
:101120004D000020600000204E00002050000020F4
:101130006D672F6C000000007048000040F2FC4119
:10114000002006F067F9954806F081F99448006898
:1011500011F014FE41EC180B002001231A46B0EEEA
:10116000480AF0EE680A4FF4A57100906420FFF77A
:1011700099FD8C4806F06BF9AFF2440240F28B11F6
:101180006E2006F072FB03E14FF66861002006F066
:1011900041F9824806F05BF98348006811F0EEFDE2
:1011A00041EC180B002001231A46B0EE480AF0EE7D
:1011B000680A4FF4A57100906420FFF773FD794829
:1011C00006F045F979A240F28B116E2006F04DFB36
:1011D000DEE000BF4FF66861002006F01BF96F48A3
:1011E00006F035F908200323009072480288642134
:1011F0000846FFF798FC40F2FC41002006F00AF98F
:10120000664806F024F96C48006811F0B7FD41EC1F
:10121000180B002001231A46B0EE480AF0EE680AC7
:101220004FF4A57100906420FFF73CFDAFF2F80287
:1012300040F28B11642006F018FBA9E000BF4FF6C6
:101240006861002006F0E6F8544806F000F9002036
:1012500000905A4890F9000082B2022364210846A7
:10126000FFF761FC40F2FC41002006F0D3F84B4848
:1012700006F0EDF85048006811F080FD41EC180BC5
:10128000002001231A46B0EE480AF0EE680A4FF437
:10129000A57100906420FFF705FD424806F0D7F8DD
:1012A000AFF26C1240F28B116E2006F0DEFA6FE0A6
:1012B00000BF45F2AA21002006F0ACF8374806F03E
:1012C000C6F8002000903E4890F9000082B2022348
:1012D00064210846FFF727FC40F2FC41002006F09D
:1012E00099F82E4806F0B3F83348006811F046FD2F
:1012F00041EC180B002001231A46B0EE480AF0EE2C
:10130000680A4FF4A57100906420FFF7CBFC2548D4
:1013100006F09DF8AFF2E01240F28B116E2006F05D
:10132000A4FA35E045F2AA214FF6FF7006F072F8F4
:101330001A4806F08CF80920022300902148028800
:101340004FF4A5716420FFF7EEFB21E045F2AA21DE
:101350004FF6FF7006F05EF8104806F078F80920A6
:1013600002230090184802884FF4A5716420FFF70B
:10137000DAFB0DE000BF00BF00BF00BF00BF00BF31
:1013800000BF00BF00BF00BF00BF00BF00E000BF44
:1013900000BF03B0BDEC028B00BD00004401002083
:1013A000580000204C0100205C0000206D672F6871
:1013B0000000000056000020600000204C000020CB
:1013C0004D00002054000020520000201CB50121D7
:1013D00008460AF0D9FB3020009001208DF8040067
:1013E00000208DF8060003208DF8050000208DF800
:1013F0000700694606480AF085F91CBD18B10128A6
:1014000003D10A8302E04A8300E000BF00BF7047B7
:101410000000024001B5BDF80000F649088008460A
:10142000008806F008F808BD01B5BDF80000F249D3
:1014300008800846008806F004F808BD10B5044688
:10144000204606F088F810BD2DE9F04105460E460D
:1014500014469846E74807882046FFF7DBFF3146E9
:10146000284605F089FF3846FFF7D4FFBDE8F08134
:101470002DE9F04706468846174600240025A14678
:10148000A246B146C24600BF2EE0002522E0DB485E
:10149000007828B937F814000121A940084048B164
:1014A000D648007801280AD137F814008021294154
:1014B000084020B909F101001FFA80F909E0484607
:1014C000421C1FFA82F90823CA490A885146FFF7CD
:1014D000BBFF6D1CCA4800788542D8D30AF10100D1
:1014E0001FFA80FAB146641CC64800788442CCD307
:1014F000BDE8F0872DE9F84F0646884617460024D8
:101500000025A246A14600200090B246C14600BF79
:1015100030E0002524E0B948007828B937F81400F5
:101520000121A940084048B1B4480078012809D1F8
:1015300037F8140080212941084018B9AE480088C6
:10154000009002E0AB48008800905046421C1FFA11
:1015500082FA0223BDF800204946FFF775FF6D1C93
:10156000A74800788542D6D309F101001FFA80F917
:10157000B246641CA34800788442CAD3BDE8F88F01
:101580002DE9F04106460F4614461D46A4F1200001
:10159000C4B29A48007810B1012834D119E0012D65
:1015A0000BD19948016897480078604301EB4002ED
:1015B00031463846FFF75CFF0AE0934801689148DE
:1015C0000078604301EB400231463846FFF792FF56
:1015D0001AE0012D0BD18D4801688A4800786043DC
:1015E00001EB400231463846FFF742FF0AE08748E8
:1015F000016884480078604301EB40023146384678
:10160000FFF778FF00E000BF00BFBDE8F0812DE9E3
:10161000F04707460D461446984600267C48008849
:10162000411B77480078401E91FBF0F90BE02278CF
:10163000434629463846FFF7A3FF714800782844FF
:1016400085B2641C761C207808B1012000E00020DF
:101650004E4501D2012100E0002108400028E6D1DA
:10166000BDE8F0872DE9F04104460D4616461F46B9
:10167000A21B521C91B2EA1B521C90B223462A466E
:1016800005F05DFEBDE8F0812DE9F04104460D4610
:1016900016461F463B4632462946204606F0F7F9D5
:1016A000BDE8F0812DE9F04106460F4614461D467F
:1016B00023462A463946304606F020FABDE8F08136
:1016C00070B504460D46164632462946204606F0B9
:1016D00036FA70BD002202600A7802604B78026818
:1016E00002EB032202608B78026802EB0342026085
:1016F000CB78026802EB0362026070477CB5044657
:10170000002001900090A11C6846FFF7E3FF04F160
:101710000A0101A8FFF7DEFF3620010708808820B4
:101720004FF0C24108802C20C10608800DE00198CE
:10173000205C01992144497800EB012085B24FF0EB
:10174000C24005800198801C0190DDE900108842AC
:10175000EDD336200107088008204FF0C2410880F1
:101760007CBD10B504462548047014B1012C14D179
:1017700009E01020224908701820224908702548E5
:1017800005F065FE0AE008201D4908700C201D497F
:101790000870214805F05BFE00E000BF00BF10BDEF
:1017A00010B504461CB9032008F039FD04E0012CF3
:1017B00002D1032008F02BFD10BD10B505F0B4FDDB
:1017C00010BD10B540F20F1340F2DF1200210846A1
:1017D00005F0B5FD10BD2DE9F04104460D4600268B
:1017E0000027B0462946204605F0DAFD0646304679
:1017F000BDE8F081780000207A0000206E00002013
:101800006F000020700000209C000020BC00002021
:1018100074000020440100205C010020D1490870C0
:10182000097839B936210A07118008214FF0C242E0
:10183000118022E0CB490978012907D136210A0716
:10184000118068214FF0C242118016E0C549097825
:10185000022907D136210A07118088214FF0C242A0
:1018600011800AE0BF490978032906D136210A0709
:101870001180A8214FF0C242118070472DE9F04736
:1018800004460D46904600260027B146B246B548AC
:10189000007818B1B348007802280FD1A146B248A9
:1018A00000782844401E83B2B04800782044401E8F
:1018B00082B22946204605F042FD16E0A94800788C
:1018C000012803D0A748007803280ED1AA46A748CC
:1018D00000782844401E83B2A34800782044401E6C
:1018E00082B22946204605F02AFD2C20C106088038
:1018F000002625E000271EE09D48007828B938F82A
:1019000016000121B940084048B1994800780128E3
:101910000BD138F8161080203841014029B995487C
:1019200000884FF0C241088004E0934800884FF0DF
:10193000C24108807F1C8D4800788742DCD3761C2A
:10194000894800788642D5D3BDE8F08770B5054652
:101950000E461446A4F12000C4B28548007810B1A8
:10196000012818D10BE0854801687F480078604362
:1019700001EB400229463046FFF780FF0CE080482B
:10198000016879480078604301EB400229463046FF
:10199000FFF774FF00E000BF00BF70BD2DE9F04706
:1019A00007460E4614464FF000080025A946754824
:1019B00007806C48007848B9734800886B490978FB
:1019C00090FBF1F000F0FF09354632E06548007801
:1019D00001280BD16D4800886449097890FBF1F02B
:1019E00000F0FF093D466748068022E05D48007828
:1019F00002280CD1644800885C49097890FBF1F01A
:101A000000F0FF0959480078301A85B211E05548B6
:101A1000007803280DD15D4800885449097890FB6F
:101A2000F1F000F0FF0951480078381A85B25548A6
:101A300006803CE04B48007850B92278294651484E
:101A40000088FFF783FF49480078284485B22BE0DF
:101A50004448007801280AD122784A48018828465B
:101A6000FFF774FF41480078284485B21CE03D48E8
:101A7000007802280AD12278294642480088FFF7D8
:101A800065FF3A480078281A85B20DE0354800789D
:101A9000032809D122783B4801882846FFF756FFE2
:101AA00032480078281A85B2641C08F101082078B1
:101AB00008B1012000E00020C84501D2012100E06A
:101AC000002108400028B5D1BDE8F08710B5029C80
:101AD00010BD2DE9FC4704460D4616461F46DDF8AD
:101AE00028800020019000908146A11C6846FFF7E5
:101AF000F1FD04F10A0101A8FFF7ECFDF019401E09
:101B000083B205EB0800401E82B231462846FFF73B
:101B1000A9FD36200107088088204FF0C2410880C7
:101B20002C20C10608800FE00198205C0199214417
:101B3000497800EB01201FFA80F94FF0C240A0F86D
:101B400000900198801C0190DDE900108842EBD3E1
:101B500036200107088008204FF0C2410880BDE808
:101B6000FC87000076000020700000206F0000203D
:101B70006E0000207A000020780000209C000020E9
:101B8000BC0000207C0000207400002072000020B7
:101B90002DE9F74F82B08346914600250020019041
:101BA0009E480068D0F8008009F00100002830D07D
:101BB0009A4800680068C71C98480068D0F80CA0D4
:101BC00000BF22E00026002419E01EB938780190F9
:101BD0007F1C80260198304070B13AF8022B8F4B61
:101BE0001B68DB882B4499B28C4B1B689B88234471
:101BF00098B20823FFF728FC7610601CC4B298F84E
:101C00000000A042E1DC681CC5B298F80100A842BF
:101C1000D8DC09F0020000282DD080480068006858
:101C2000C71C7E480068D0F80CA000251FE00026E5
:101C3000002416E01EB9387801907F1C8026019898
:101C4000304058B1039A2A4491B20BEB040290B28F
:101C5000FFF7C1FDAAF800000AF1020A7610601C25
:101C6000C4B298F80000A042E4DC681CC5B298F841
:101C70000100A842DBDC09F0040010B9B9F1080F3B
:101C800029D1664800680068C71C00251FE00026AF
:101C9000002416E01EB9387801907F1C8026019838
:101CA000304058B15D4B1B681A8A039B2B4499B294
:101CB0000BEB040398B20823FFF7C6FB7610601CF9
:101CC000C4B298F80000A042E4DC681CC5B298F8E1
:101CD0000100A842DBDC51480068A0F804B04F497D
:101CE00003980968C88005B0BDE8F08F70B5044658
:101CF0000D46012229462046FFF74AFF06222946C3
:101D00002046FFF745FF70BD70B5064643480068A2
:101D1000C488424800688588012E06D0022E32D041
:101D2000032E1DD0042E36D107E0042C01DB042045
:101D300000E02046201A84B22EE039480088001BBB
:101D400038494978401A042801DB042005E034486A
:101D50000088001B33494978401A204484B21BE0B4
:101D600031480088401B2F490978401A042801DBBC
:101D7000042005E02C480088401B2A490978401AB5
:101D8000284485B208E0042D01DB042000E0284649
:101D9000281A85B200E000BF00BF21462846FFF7A1
:101DA000A5FF032004F045FA70BD10B504461420C9
:101DB0000EF078FF194908600846006808B900204D
:101DC00010BD18490978174A527811FB02F14800F2
:101DD0000EF068FF11490968C86010480068C068C3
:101DE00008B90020ECE70CB90E4800E020460B498A
:101DF000096808600020094909680882202007490D
:101E0000096808720120DBE770B504460D4606221A
:101E100029462046FFF7BCFE70BD00008000002070
:101E20007400002084000020720000202DE9F041A1
:101E300004460D4616461F46601B82B200233946F3
:101E40002846FFF721FC601B82B20023314628465A
:101E5000FFF71AFCF01B82B2012339462846FFF730
:101E600013FCF11B8AB2611E88B201233946FFF7C9
:101E70000BFCBDE8F0812DE9F04707460C46904683
:101E80001D46DDF8209000262B4642462146384666
:101E9000FFF7CCFF4846FFF7BDFA01260AE03B1BDF
:101EA0009B1E9AB2AB1999B2631C98B20023FFF73C
:101EB000EBFB761CA8EB0500B042F0D8BDE8F0873C
:101EC0002DE9F04105460E461446984602272A1B86
:101ED00091B2321B90B22246FFF7F2FB631E9AB218
:101EE0002B1B99B2331B98B2FFF7EAFB4046FFF772
:101EF00091FA08E0E31B9AB22B1B99B2331B98B2FC
:101F0000FFF7DEFB7F1CA742F4D3BDE8F0812DE98B
:101F1000F04F85B004460D4617461E46002004903B
:101F20008046814682460390029083460190B542E6
:101F300008D1BC4206D10823214628460E9AFFF755
:101F400083FAA1E0BC4221D1B54202DDB0462E4663
:101F500045460123214628460E9AFFF775FA681C6C
:101F60001FFA80F909E00223214628460E9AFFF75E
:101F70006BFA09F101001FFA80F9B145F3DB042384
:101F8000214630460E9AFFF75FFA7DE0B54219D13F
:101F9000BC4202DDB846274644460E98A5F1020C25
:101FA0001FFA8CF3A6F1010C1FFA8CF2A4F1010CBC
:101FB0001FFA8CF1A7F1010C00901FFA8CF0FFF7CB
:101FC0005AFF61E0BC4201DDE01B00E0381BB54276
:101FD00001DDA91B00E0711B884201DD012000E04A
:101FE00000200490049828B1A0462C464546B846E7
:101FF00037464646B54205DDA0463C464746B04614
:102000002E464546701B80B20390BC4201DDE01BAA
:1020100000E0381B80B202900399491C484200EB53
:10202000D07149100FFA81FBA246BC4202DA0120AE
:10203000019002E04FF0FF300190A94622E00498A1
:1020400030B10823494650460E9AFFF7FDF905E0E6
:102050000823514648460E9AFFF7F6F9029858446D
:102060000FFA80FBBBF1000F08DB019850441FFA08
:1020700080FA0398ABEB00000FFA80FB09F1010036
:102080001FFA80F9B145DADD05B0BDE8F08F70B513
:1020900004460D46A4F11E0188B200233C222946C5
:1020A000FFF7F2FAA5F11E0081B201233C2220467F
:1020B000FFF7EAFA70BD2DE9F04104460E461546D9
:1020C0001F46DDF81880A01B83B2E81B82B22146B0
:1020D0002846FFF7C7FA4046FFF710FBFE4A128872
:1020E000521E91B2FD4A1288521E90B2FA4A1388CB
:1020F000FA4A1288FFF7B6FABDE8F0812DE9F041FF
:1021000004460F461546002638460EF06CFF691E41
:10211000884203D238460EF066FF00E0681E06468D
:102120003EB13246394620460FF012F80020A05545
:1021300001E000202070BDE8F081014609B90020CF
:102140007047012081F8310000BFF9E72DE9FF4118
:102150000646884617460024002536200EF0A2FDCC
:102160000446F4B126802E224146A01CFFF7C6FF8C
:102170009DF80C0084F83000BDF82800608684F8D3
:1021800034702046FFF7D9FF18200EF08BFD05466E
:102190001DB16C600420287403E020460EF0B1FDF0
:1021A0000024284604B0BDE8F081014609B90020AA
:1021B0007047002008770120487700BFF8E72DE935
:1021C000F0410646884617460025002424200EF0DC
:1021D00069FD0446DCB12680C148A060C14860604A
:1021E0001022414604F10C00FFF788FF27622046C9
:1021F000FFF7DBFF18200EF055FD05461DB16C60A2
:102200000120287403E020460EF07BFD00242846C0
:10221000BDE8F081014609B900207047002081F82F
:102220002500012081F8260000BFF6E72DE9F041E6
:10223000064688461746002400252C200EF032FD65
:102240000446DCB126801922414604F10C00FFF758
:1022500055FFA548A060A5486060A7622046FFF72B
:10226000D9FF18200EF01EFD05461DB16C6003203D
:10227000287403E020460EF044FD00242846BDE803
:10228000F081014609B9002070470120487698483E
:10229000486098488860002008760120F4E72DE91E
:1022A000F0410446884617460025002614B1608890
:1022B0000A2802D10020BDE8F08120200EF0F2FCB7
:1022C0000546F5B12C600C22414605F10C00FFF7E4
:1022D00015FFEF6118200EF0E5FC06466EB1756043
:1022E000022030742846FFF7CCFF6188201D40F89B
:1022F00021606088401C608003E028460EF001FDEC
:1023000000253046D7E7014609B900207047002074
:102310004880AFF27500C8620120F7E770B5054646
:10232000002430200EF0BEFC04461CB1258020465F
:10233000FFF7E9FF204670BD014609B9002070474C
:102340004FF6FF700880102048800020087601209A
:10235000F5E72DE9F04104460F461646002514B175
:10236000A08A0A2802D10020BDE8F08120200EF0CA
:1023700099FC0546BDB16C601022394605F1080094
:10238000FFF7BCFEEE612846FFF7D6FFA18A04F1F5
:10239000180040F82150A08A401CA082A08A012881
:1023A00001D1A16908760120DEE7014609B90020C4
:1023B00070475148486051480860012088740020E7
:1023C00008728882AFF2750008640120F0E770B5EA
:1023D00006460024002544200EF064FC044684B127
:1023E00026822046FFF7E1FF18200EF05BFC054631
:1023F0001DB16C600720287403E020460EF081FCBC
:102400000024284670BD014609B90020704700200D
:1024100081F82C00012081F82D0000BFF6E72DE99E
:10242000F047064689461746984600240025342082
:102430000EF038FC044614B326803148A0603148C1
:1024400060601022494604F10C00FFF757FE10228D
:10245000394604F11C00FFF751FEC4F830802046D5
:10246000FFF7D1FF18200EF01DFC05461DB16C6072
:102470000520287403E020460EF043FC0024284683
:10248000BDE8F087014609B90020704700200873B5
:102490000120487300BFF8E72DE9F04706460F46D4
:1024A00090469946DDF820A00024002514200EF067
:1024B000F9FB044644B326806760A4F80880A4F8BA
:1024C0000A90C4F810A02046FFF7DCFF18200EF099
:1024D000E9FB0546EDB118E0740000207200002011
:1024E00032390208D83E0208821E0208E42102089E
:1024F000BE170208201B02084625020850290208C0
:102500007E440208244A020807E06C600620287412
:1025100003E020460EF0F5FB00242846BDE8F087D6
:1025200010B504460CB9002010BD012084F8280025
:10253000F749896848000EF0B5FB60620120F3E7B7
:102540002DE9F0470646894617469846002400259F
:1025500030200EF0A7FB04462CB32680ED486060C7
:10256000ED48A0601022494604F10C00FFF7C6FDBB
:1025700004F81C7F122060707620A0706420207107
:10258000E070002060716420A071C4F810801C3CD1
:102590002046FFF7C5FF18200EF084FB05461DB14D
:1025A0006C600820287403E020460EF0AAFB00248B
:1025B0002846BDE8F087014609B900207047012090
:1025C00081F8FA0300BFF9E72DE9F04707468A468C
:1025D00090469946089E002500244FF47F700EF027
:1025E00061FB0446002C35D00020A4F8F8032780B6
:1025F00007225146A01CFFF781FD0722414604F146
:102600000900FFF77BFDB6F5FA7F0BDD4FF47A7218
:10261000494604F110000EF005FD4FF4FA70A4F8DD
:10262000F80307E07200494604F110000EF0FAFCCE
:10263000A4F8F8632046FFF7BEFF18200EF032FB27
:1026400005461DB16C600920287403E020460EF099
:1026500058FB00242846BDE8F087014609B9002050
:102660007047012081F8E30700BFF9E72DE9F05F2B
:1026700007468A4690469946DDE90A6B0025002404
:1026800040F2E4700EF00EFB0446002C37D0002020
:10269000A4F8E007278007225146A01CFFF72EFD73
:1026A0000722414604F10900FFF728FDB6F57A7FBD
:1026B0000BDD4FF4FA62494604F110000EF0B2FC53
:1026C0004FF47A70A4F8E00707E07200494604F17D
:1026D00010000EF0A7FCA4F8E06784F8E2B72046EB
:1026E000FFF7BBFF18200EF0DDFA05461DB16C6048
:1026F0000A20287403E020460EF003FB002428463D
:10270000BDE8F09F2DE9F7438046D8F8045015B98D
:102710000020BDE8FE8301206872287A00286FD16E
:10272000BDF80800BDF80A10401A0A2801DC01268D
:1027300010E0BDF80800BDF80A10401A1E2801DCA0
:10274000052607E0BDF80800BDF80A10401A642805
:1027500000DC0A26E888032806D004282AD00528A9
:102760004FD0082873D173E00020FEF753FE0024F9
:102770000FE0BDF80A702744BBB2BDF808703F1BDC
:10278000BAB2BDF80610BDF80400FFF74FFB601C9D
:10279000C4B2B442EDDB4FF6FF70FEF73BFEBDF86E
:1027A0000A30BDF80820BDF80610BDF80400FFF798
:1027B0003DFB74E00020FEF72DFE00240FE0BDF885
:1027C0000A702744BBB2BDF808703F1BBAB2BDF80F
:1027D0000610BDF80400FFF729FB601CC4B2B44228
:1027E000EDDB4FF66860FEF715FEBDF80A30BDF868
:1027F0000820BDF80610BDF80400FFF717FB4EE0F7
:102800004FE00020FEF706FE00240FE0BDF80A703E
:102810002744BBB2BDF808703F1BBAB2BDF8061022
:10282000BDF80400FFF702FB601CC4B2B442EDDB4C
:1028300040F2FC40FEF7EEFDBDF80A30BDF808207E
:10284000BDF80610BDF80400FFF7F0FA27E025E018
:102850000020FEF7DFFD00240FE0BDF80A702744DA
:10286000BBB2BDF808703F1BBAB2BDF80610BDF888
:102870000400FFF7DBFA601CC4B2B442EDDB45F2A2
:10288000AA20FEF7C7FDBDF80A30BDF80820BDF844
:102890000610BDF80400FFF7C9FA00E000BF00BF52
:1028A00088E0287A01287DD1E88808283AD006DC1B
:1028B000062840D2DFE800F01B393F3C28334EF2B7
:1028C000E302811A90421BD008DCA0F2FC40D0B198
:1028D000A0F5E040A0F1C900C8B90EE0A1F5E850AC
:1028E000A0F18500D0B1A0F2971080B902E04FF6B8
:1028F000FF7423E04FF0000420E04EF2E3041DE0FB
:1029000047F2C5541AE000BF4FF6686416E012E0C3
:10291000F40000207C4E0208AA4D020800BF40F2DD
:10292000FC440BE045F2AA2408E04FF0010405E066
:102930004FF6FF7402E04FF0000400BF00BFBDF887
:102940000800BDF80A10A0EB01000A2801DC0227EC
:1029500010E0BDF80800BDF80A10401A1E2801DC7E
:10296000052707E0BDF80800BDF80A10401A6428E2
:1029700000DC0A27E88801281BD02046FEF74AFD24
:10298000002614E0BDF80AC0B4441FFA8CF3BDF869
:1029900008C0ACEB060C1FFA8CF2BDF80610BDF8AF
:1029A000040000E006E0FFF741FA701CC6B2BE4228
:1029B000E8DB00BF0020FEF7D4FE4FF6FF70FEF705
:1029C00033FD1020FEF726FD0120A2E607B5AAB0D0
:1029D000002028904FF400401F909FEDFE0B8DEDDE
:1029E000140B2A9840680F900F9810B900202DB052
:1029F00000BD01210F9880F8E3179FEDF60B8DEDD8
:102A0000160BF648008835380E900FF026FFCDE9FA
:102A10001201F34800883F380E900FF01EFFCDE9F9
:102A20001C019FEDF00B53EC102B9DED120B51ECA4
:102A3000100B0FF0D9FCCDE922019DED1C0B8DEDA3
:102A4000200BE648008848380E900FF006FFCDE9CD
:102A50002401E348008851380E900FF0FEFECDE9C6
:102A600026010F98B0F8E0070B900FF00DFFCDE9AD
:102A70000C019DED0C0B53EC102B9DED240B51EC38
:102A8000100B0FF065FDCDE918019FEDD80B53EC4D
:102A9000102B9DED260B51EC100B0FF059FDCDE9DD
:102AA0001A010020FEF7B6FC0120FEF75AFE9FED4A
:102AB000D10B53EC102B9DED240B51EC100B0FF0B0
:102AC00093FCCDE90A019DED0A0B51EC100B0FF0C0
:102AD00097FE80B20E909DED120B51EC100B0FF093
:102AE0008FFE80B20D909DED1C0B51EC100B0FF082
:102AF00087FE80B200230C90DDE90D12FEF7C4FDC5
:102B00009DED260B51EC100B0FF07AFE80B20E906B
:102B10009DED120B51EC100B0FF072FE80B20D9078
:102B20009DED260B53EC102B9DED1C0B51EC100B67
:102B300010F03AF8CDE90A019DED0A0B51EC100BAB
:102B40000FF05EFE80B201230C90DDE90D12FEF75E
:102B50009BFD9FEDAA0B53EC102B9DED120B51EC3E
:102B6000100B0FF041FCCDE90A019DED0A0B51EC71
:102B7000100B0FF045FE80B29FEDA20B53EC102B13
:102B80000E909DED1C0B51EC100B0FF02DFCCDE9C0
:102B90000A019DED0A0B51EC100B0FF031FE80B2D3
:102BA00001239AA20D900E99FEF731FD9FED980B2F
:102BB00053EC102B9DED220B51EC100B0FF014FC7D
:102BC0009FED950B53EC102BCDE908019DED080B03
:102BD00051EC100B0FF0E8FFCDE90A019DED0A0B57
:102BE00051EC100B0FF00CFE80B29FED840B53ECF8
:102BF000102B0E909DED200B51EC100B0FF0D4FF1D
:102C0000CDE90A019DED0A0B51EC100B0FF0F8FD18
:102C100080B201237DA20D900E99FEF7F8FC0F986B
:102C200090F8E207012853D19FED720B53EC102B63
:102C30009DED240B51EC100B0FF0D6FBCDE90801F4
:102C40009DED080B51EC100B0FF0DAFD80B20E90E9
:102C50009DED260B51EC100B0FF0D2FD80B20D90C4
:102C60009DED120B51EC100B0FF0CAFD80B29FEDE1
:102C70006C0B53EC102B0C909DED1C0B51EC100BBE
:102C80000FF092FFCDE908019DED080B51EC100B00
:102C90000FF0B6FD80B20B900CA90EC9FEF7E2FC56
:102CA0000020FEF7CBFB4D480088401E80B20E90FE
:102CB0004B480088401E80B20D9048480388484821
:102CC0000288DDE90D01FEF7CDFC4FF6F0701F9094
:102CD00021E00F981030289930F911000B900FF077
:102CE000BCFDCDE90C019DED160B53EC102B9DEDB9
:102CF0000C0B51EC100B0FF015FF09D20F98103090
:102D0000289930F911000E900FF0A7FDCDE91601BA
:102D10002898401C28900F98B0F8E0172898814216
:102D2000D7D89DED1A0B53EC102B9DED260B51ECD3
:102D3000100B0FF039FFCDE90C019DED0C0B53EC9E
:102D4000102B9DED160B51EC100B0FF001FCCDE993
:102D5000140100202890CFE12898002839D00020C5
:102D6000FEF758FB9DED220B51EC100B0FF048FDC8
:102D700080B20E9028980FF087FDCDE906019DEDF9
:102D80001A0B53EC102B9DED060B51EC100B0FF0B2
:102D9000CBFDCDE908019DED200B53EC102B9DEDF3
:102DA000080B51EC100B0FF0F3FECDE90A019DED7D
:102DB0000A0B51EC100B0FF023FD80B2002304220C
:102DC0000D900E99FEF760FC44F20820FEF722FBFE
:102DD0002AE07BE0000000000000000074000020FA
:102DE0007200002000000000000010400000000001
:102DF000000026400000000000000040000000002D
:102E000000001440000000000000184030000000E6
:102E100000000000000032400000000000002240DE
:102E2000000000000000F03F1FED0E0B53EC102BD4
:102E30009DED240B51EC100B0FF0D6FACDE90A01F1
:102E40009DED0A0B51EC100B0FF0DAFC80B21FED78
:102E50001B0B53EC102B0E909DED220B51EC100B25
:102E60000FF0A2FECDE90A019DED0A0B51EC100B0B
:102E70000FF0C6FC80B20D9028980FF005FDCDE94B
:102E800006019DED1A0B53EC102B9DED060B51EC3A
:102E9000100B0FF049FDCDE908019DED200B53EC1F
:102EA000102B9DED080B51EC100B0FF071FECDE9CE
:102EB0000A019DED0A0B51EC100B0FF0A1FC80B242
:102EC00000230C90DDE90D12FEF7DEFB28980A289E
:102ED0007DD10020FEF79EFA9FEDFE0B53EC102BE8
:102EE0009DED220B51EC100B0FF07EFACDE90A019B
:102EF0009DED0A0B51EC100B0FF082FC80B20E908E
:102F000028980FF0C1FCCDE902019DED1A0B53EC9E
:102F1000102B9DED020B51EC100B0FF005FDCDE9D0
:102F200004019DED200B53EC102B9DED040B51EC97
:102F3000100B0FF02DFE1FED510B53EC102BCDE9B4
:102F400006019DED060B51EC100B0FF02DFE9FEDD1
:102F5000E30B53EC102BCDE908019DED080B51EC70
:102F6000100B0FF021FECDE90A019DED0A0B51EC8B
:102F7000100B0FF045FC80B201230D900F9A09321F
:102F80000E99FEF744FB9DED160B53EC102BD5A1CB
:102F900010A80DF0DDFE9FEDD50B53EC102B9DED31
:102FA000160B51EC100B0FF083FC4CD29FEDC90BAC
:102FB00053EC102B9DED220B51EC100B0FF014FA7B
:102FC000CDE90A019DED0A0B51EC100B00E090E0F9
:102FD0000FF016FC80B20E9028980FF055FCCDE94A
:102FE00004019DED1A0B53EC102B9DED040B51ECDD
:102FF000100B0FF099FCCDE906019DED200B53EC71
:10300000102B9DED060B51EC100B0FF0C1FD1FEDC9
:10301000850B53EC102BCDE908019DED080B51EC0D
:10302000100B0FF0C1FDCDE90A019DED0A0B51EC2B
:10303000100B0FF0E5FB80B2012310AA0D900E9942
:10304000FEF7E5FA55E09FEDAB0B53EC102B9DED31
:10305000220B51EC100B0FF0C7F99FED9E0B53ECB8
:10306000102BCDE908019DED080B51EC100B0FF072
:10307000BBF9CDE90A019DED0A0B51EC100B0FF0E5
:10308000BFFB80B20E9028980FF0FEFBCDE9040143
:103090009DED1A0B53EC102B9DED040B51EC100B16
:1030A0000FF042FCCDE906019DED200B53EC102BF7
:1030B0009DED060B51EC100B0FF06AFD1FEDB10BEF
:1030C00053EC102BCDE908019DED080B51EC100BD2
:1030D0000FF06AFDCDE90A019DED0A0B51EC100BD2
:1030E0000FF08EFB80B2012310AA0D900E99FEF70F
:1030F0008EFA2898401C289028980A287FF62CAE33
:1031000000202890FDE39DED180B53EC102B9DED56
:10311000120B51EC100B0FF047FDCDE9120100200E
:10312000FEF778F91FEDC20B53EC102B9DED120B3F
:1031300051EC100B0FF058F9CDE90A019DED0A0B87
:1031400051EC100B0FF05CFB80B20E909DED1C0B50
:1031500051EC100B0FF054FB80B2012304220D90B0
:103160000E99FEF791FA0F98B0F8E0070F286CDC83
:10317000289A521C61A110A80DF0EAFD1FEDDF0B8B
:1031800053EC102B9DED120B51EC100B0FF02CF9A2
:10319000CDE90A019DED0A0B51EC100B0FF030FB4D
:1031A00080B21FEDE80B53EC102B0E909DED1C0B25
:1031B00051EC100B0FF018F9CDE90A019DED0A0B47
:1031C00051EC100B0FF01CFB80B2012310AA0D90E4
:1031D0000E99FEF71CFA44F20820FEF71BF99DED4C
:1031E000260B51EC100B0FF00BFB80B21FEDF40B14
:1031F00053EC102B0E909DED120B51EC100B0FF0B9
:10320000F3F8CDE90A019DED0A0B51EC100B0FF01C
:10321000F7FA80B20D909DED260B53EC102B9DED2F
:103220001C0B51EC100B0FF0BFFCCDE90A019DED1A
:103230000A0B51EC100B0FF0E3FA80B201230C9053
:10324000DDE90D12FEF720FA91E10F98B0F8E007E2
:103250000F287CDD0F98B0F8E007282877DC289845
:10326000401C0321B0FBF1F201FB12000028EBD15E
:10327000289A521C21A110A80DF06AFD9FED200B89
:1032800053EC102B9DED120B51EC100B0FF0ACF822
:10329000CDE90A019DED0A0B51EC100B0FF0B0FACD
:1032A00080B29FED170B53EC102B0E909DED1C0B75
:1032B00051EC100B0FF098F8CDE90A019DED0A0BC7
:1032C00051EC100B0FF09CFA80B2012310AA0D9064
:1032D0000E9919E0000000000000424000000000CC
:1032E0000000304025342E31660000000000000050
:1032F00000408F40000000000000204025640000D6
:103300000000000000001840FEF781F944F2082098
:10331000FEF780F89DED260B51EC100B0FF070FAC4
:1033200080B29FEDFE0B53EC102B0E909DED120B17
:1033300051EC100B0FF058F8CDE90A019DED0A0B86
:1033400051EC100B0FF05CFA80B20D9000E019E028
:103350009DED260B53EC102B9DED1C0B51EC100B2F
:103360000FF022FCCDE90A019DED0A0B51EC100B88
:103370000FF046FA80B201230C90DDE90D12FEF742
:1033800083F9F4E00F98B0F8E007282879DD0F986A
:10339000B0F8E007462874DC2898401C00F00300D1
:1033A0000028EED1289A521CAFF2B00110A80DF0FF
:1033B000CFFC1FED2D0B53EC102B9DED120B51ECA0
:1033C000100B0FF011F8CDE90A019DED0A0B51EC3D
:1033D000100B0FF015FA80B21FED370B53EC102BCA
:1033E0000E909DED1C0B51EC100B0EF0FDFFCDE986
:1033F0000A019DED0A0B51EC100B0FF001FA80B29F
:10340000012310AA0D900E99FEF701F944F208204D
:10341000FEF700F89DED260B51EC100B0FF0F0F9C4
:1034200080B29FEDBE0B53EC102B0E909DED120B56
:1034300051EC100B0EF0D8FFCDE90A019DED0A0BFF
:1034400051EC100B0FF0DCF980B20D909DED260BC6
:1034500053EC102B9DED1C0B51EC100B0FF0A4FB4B
:10346000CDE90A019DED0A0B51EC100B0FF0C8F9E4
:1034700080B201230C90DDE90D12FEF705F976E02C
:10348000FFE72898401C0A21B0FBF1F201FB120073
:1034900000286CD1289A521CAFF2A01110A80DF090
:1034A00057FC1FED690B53EC102B9DED120B51ECEB
:1034B000100B0EF099FFCDE90A019DED0A0B51ECBE
:1034C000100B0FF09DF980B21FED730B53EC102B16
:1034D0000E909DED1C0B51EC100B0EF085FFCDE90D
:1034E0000A019DED0A0B51EC100B0FF089F980B227
:1034F000012310AA0D900E99FEF789F844F20820D6
:10350000FDF788FF9DED260B51EC100B0FF078F9BD
:1035100080B29FED820B53EC102B0E909DED120BA1
:1035200051EC100B0EF060FFCDE90A019DED0A0B86
:1035300051EC100B0FF064F980B20D909DED260B4D
:1035400053EC102B9DED1C0B51EC100B0FF02CFBD2
:10355000CDE90A019DED0A0B51EC100B0FF050F96B
:1035600080B201230C90DDE90D12FEF78DF828984A
:1035700000287DD10F981030289930F91100039060
:103580000FF06BF9CDE904019DED140B53EC102BFA
:103590009DED040B51EC100B0EF0DAFFCDE90601A6
:1035A0009DED1C0B53EC102B9DED060B51EC100BFD
:1035B0000FF0EEFACDE908019DED080B51EC100B70
:1035C0000FF01EF980B20E909DED120B51EC100B16
:1035D0000FF016F980B20D909DED1C0B51EC100B05
:1035E0000FF00EF980B20C909DED180B53EC102BE0
:1035F0009DED120B51EC100B0EF0F6FECDE908011B
:103600009DED080B51EC100B0FF0FAF880B20B9007
:10361000BDF87C0000900BA80FC8FEF778FC0F984F
:103620001030289930F9110001900FF016F9CDE90A
:1036300002019DED140B53EC102B9DED020B51EC90
:10364000100B0EF085FFCDE904019DED1C0B53EC32
:10365000102B9DED040B51EC100B0FF099FA9FED20
:103660002F0B53EC102BCDE906019DED060B00E06E
:10367000B8E051EC100B0FF097FACDE908019DED81
:10368000080B51EC100B0FF0BBF880B20E909DEDC3
:10369000120B51EC100B0FF0B3F880B29FED1F0B23
:1036A00053EC102B0D909DED1C0B51EC100B0FF0FB
:1036B0007BFACDE908019DED080B51EC100B0FF0E2
:1036C0009FF880B20C909DED180B53EC102B9DEDE4
:1036D000120B51EC100B0EF087FECDE908019DEDA9
:1036E000080B51EC100B0FF08BF880B20B90BDF86B
:1036F0007C0000900BA80FC8FEF709FC0F98103053
:10370000289930F9110003900FF0A7F8CDE90401D2
:103710009DED140B53EC102B04E0000000000000A2
:103720000000F03F9DED040B51EC100B0EF010FF6C
:10373000CDE906019DED1C0B53EC102B9DED060B06
:1037400051EC100B0FF024FACDE908019DED080BA8
:1037500051EC100B0FF054F880B21FED100B53EC2E
:10376000102B0E909DED120B51EC100B0FF01CFA6C
:10377000CDE908019DED080B51EC100B0FF040F85E
:1037800080B20D909DED1C0B51EC100B0FF038F832
:1037900080B20C909DED180B53EC102B9DED120B8D
:1037A00051EC100B0EF020FE1FED240B53EC102BF0
:1037B000CDE906019DED060B51EC100B0FF0F4F96D
:1037C000CDE908019DED080B51EC100B0FF018F836
:1037D00080B20B90BDF87C0000900BA80FC8FEF7DC
:1037E00096FBA5E10F981030289930F9110003904D
:1037F0000FF033F8CDE904019DED140B53EC102BC1
:103800009DED040B51EC100B0EF0A2FECDE906016C
:103810009DED1C0B53EC102B9DED060B51EC100B8A
:103820000FF0B6F9CDE908019DED080B51EC100B36
:103830000EF0E6FF80B20E909DED120B51EC100BD6
:103840000EF0DEFF80B20D902898411E0F981030C8
:1038500030F9110003900FF000F8CDE904019DED5F
:10386000140B53EC102B9DED040B51EC100B0EF0D0
:103870006FFECDE906019DED1C0B53EC102B9DED69
:10388000060B51EC100B0FF083F9CDE908019DED0B
:10389000080B51EC100B0EF0B3FF80B20C909DEDB5
:1038A000180B53EC102B9DED120B51EC100B0EF07E
:1038B0009BFDCDE908019DED080B51EC100B0EF0BE
:1038C0009FFF80B20B90BDF87C0000900BA80FC842
:1038D000FEF71DFB0F981030289930F91100019068
:1038E0000EF0BBFFCDE902019DED140B53EC102B44
:1038F0009DED020B51EC100B0EF02AFECDE90401F8
:1039000000E05CE19DED1C0B53EC102B9DED040BD6
:1039100051EC100B0FF03CF91FED800B53EC102B0A
:10392000CDE906019DED060B51EC100B0FF03CF9B3
:10393000CDE908019DED080B51EC100B0EF060FF76
:1039400080B21FED8A0B53EC102B0E909DED120BE5
:1039500051EC100B0FF028F9CDE908019DED080B93
:1039600051EC100B0EF04CFF80B20D902898411EC8
:103970000F98103030F9110001900EF06EFFCDE974
:1039800002019DED140B53EC102B9DED020B51EC3D
:10399000100B0EF0DDFDCDE904019DED1C0B53EC89
:1039A000102B9DED040B51EC100B0FF0F1F81FEDF7
:1039B000A50B53EC102BCDE906019DED060B51EC48
:1039C000100B0FF0F1F8CDE908019DED080B51EC5B
:1039D000100B0EF015FF80B20C909DED180B53EC00
:1039E000102B9DED120B51EC100B0EF0FDFCCDE9F0
:1039F00008019DED080B51EC100B0EF001FF80B299
:103A00000B90BDF87C0000900BA80FC8FEF77FFA62
:103A10000F981030289930F9110003900EF01DFF17
:103A2000CDE904019DED140B53EC102B9DED040B1F
:103A300051EC100B0EF08CFDCDE906019DED1C0B39
:103A400053EC102B9DED060B51EC100B0FF0A0F872
:103A5000CDE908019DED080B51EC100B0EF0D0FEE6
:103A600080B21FEDD20B53EC102B0E909DED120B7C
:103A700051EC100B0FF098F8CDE908019DED080B03
:103A800051EC100B0EF0BCFE80B20D902898411E38
:103A90000F98103030F9110003900EF0DEFECDE9E2
:103AA00004019DED140B53EC102B9DED040B51EC18
:103AB000100B0EF04DFDCDE906019DED1C0B53ECF6
:103AC000102B9DED060B51EC100B0FF061F8CDE9BA
:103AD00008019DED080B51EC100B0EF091FE80B229
:103AE0000C909DED180B53EC102B9DED120B51EC2F
:103AF000100B0EF079FC1FEDF70B53EC102BCDE9FA
:103B000006019DED060B51EC100B0FF04DF8CDE9C1
:103B100008019DED080B51EC100B0EF071FE80B208
:103B20000B90BDF87C0000900BA80FC8FEF7EFF9D2
:103B30000F98B0F8E007401E289988423CD1002039
:103B4000FDF768FC9FEDFE0B53EC102B9DED120B67
:103B500051EC100B0EF048FCCDE90A019DED0A0B6B
:103B600051EC100B0EF04CFE80B29FEDF70B53ECB6
:103B7000102B0E909DED1C0B51EC100B0EF034FC35
:103B80009FEDF30B53EC102BCDE908019DED080BD5
:103B900051EC100B0EF028FCCDE90A019DED0A0B4B
:103BA00051EC100B0EF02CFE80B201230D900F9AF9
:103BB000921C0E99FDF72BFD2898401C28900F9819
:103BC000B0F8E017289881423FF69DAA0020FDF743
:103BD000C8FD0120FEF70BBF2DE9F04F2DED108B36
:103BE00089B083460024002008909FEDDB0BB0EEE7
:103BF00040AAF0EE60AA9FEDD80B8DED060BDBF826
:103C0000045025B909B0BDEC108BBDE8F08F012040
:103C100085F8FA03D2480088323886B2D14909883B
:103C2000A1F148000EF019FE41EC180B301D87B2CF
:103C30009FEDCD0B53EC102B51EC180B0EF0B4FF95
:103C400041EC1B0B0EF0DCFD1FFA80FAC448008823
:103C50003C381FFA80F9C348008850381FFA80F8B2
:103C6000B5F8F80399FBF0F0C0B208900A2098FB71
:103C7000F0F003900EF0F1FD41EC190B0020FDF780
:103C8000C9FB0120FDF76DFD51EC180B0EF0B8FDDE
:103C900080B200234A4631460390FDF7F5FC4046CA
:103CA0000EF0F2FD41EC1C0B53EC182B0EF070FFE4
:103CB00041EC1B0B0EF0A4FD80B2012342463146BD
:103CC0000390FDF7E1FC9FEDAA0B53EC102B51EC98
:103CD000180B0EF089FB41EC1B0B0EF091FD80B22E
:103CE0000390701D81B20123AFF6E0620398FDF7E7
:103CF0008EFC07F10B0291B2AAF1050290B20123EA
:103D0000AFF6F862FDF783FC15E005F1100131F91B
:103D100014000EF0A2FD41EC1B0B53EC1A2B0EF01D
:103D200001FF07D205F1100131F914000EF095FDE5
:103D300041EC1A0B641CB5F8F803A042E5D84046E4
:103D40000EF0A2FD41EC1C0B53EC192B0EF02CFFD6
:103D500041EC1B0B53EC1B2B51EC1A0B0EF0F8FB38
:103D6000CDE906010024C3E00020FDF753FB00204D
:103D7000FDF750FB20460EF087FD41EC1E0B53EC87
:103D8000192B0EF0D1FD41EC1C0B50460EF07CFDC2
:103D900041EC1D0B53EC1C2B0EF006FF41EC1B0BF2
:103DA0000EF02EFD80B20023042239460390FDF769
:103DB0006BFC092C70D120460EF066FD53EC192BDC
:103DC000CDE900019DED000B51EC100B0EF0ACFDA8
:103DD00041EC1E0B50460EF057FD41EC1F0B53EC0F
:103DE0001E2B0EF0E1FE41EC1D0B9FED630B53EC1F
:103DF000102B0EF0D9FE41EC1C0B9FED550B53EC34
:103E0000102B0EF0D1FE41EC1B0B0EF0F9FC80B232
:103E1000039007F1280081B2012305F109020398FC
:103E2000FDF7F5FB53EC1A2BAFF6483104A80CF064
:103E30008FFF9FED530B53EC102B51EC1A0B0EF030
:103E400037FD2AD220460EF01FFD41EC1F0B53EC2C
:103E5000192B0EF069FD41EC1D0B50460EF014FDC0
:103E600041EC1E0B53EC1D2B0EF09EFE41EC1C0B87
:103E70009FED450B53EC102B0EF096FE41EC1B0B07
:103E80000EF0BEFC80B2039007F1280081B201233E
:103E900004AA0398FDF7BBFB29E020460EF0F4FCD2
:103EA00041EC1F0B53EC192B0EF03EFD41EC1D0BAA
:103EB00050460EF0E9FC41EC1E0B53EC1D2B0EF0AE
:103EC00073FE41EC1C0B9FED300B53EC102B0EF0EE
:103ED0006BFE41EC1B0B0EF093FC80B2039007F1DC
:103EE000300081B2012304AA0398FDF790FB641C03
:103EF0000A2CFFF439AF0024EDE005F1100131F98F
:103F000014000EF0AAFC41EC1D0B9DED060B53ECCA
:103F1000102B0EF01DFB41EC1C0B53EC182B0EF07C
:103F200037FE41EC1B0B0EF06BFC80B2039051ECA2
:103F3000180B0EF065FC80B202901020009027E074
:103F400000000000000038400000000000000840B1
:103F500000000000000030400000000000000000F1
:103F600074000020720000200000000000001040DB
:103F700000000000000018400000000000000040A9
:103F80000000000000408F400000000000001440CE
:103F90000898301A401C81B23046DDE90223FDF753
:103FA0006AFF0898301A86B20020FDF733FA51EC08
:103FB000180B0EF025FC80B20390701C81B2012317
:103FC00004220398FDF760FBB5F8F8030F2814DC12
:103FD000621CAFF6D84104A80CF0BAFE51EC180BE5
:103FE0000EF00EFC801D80B20390B01D81B2012343
:103FF00004AA0398FDF70BFB49E0B5F8F8030F2876
:1040000026DDB5F8F803282822DC601C0321B0FB6C
:10401000F1F201FB1200D0BB621CAFF6205104A8E4
:104020000CF096FE1FED2E0B53EC102B51EC180BE1
:104030000EF0DAF941EC1B0B0EF0E2FB80B20390BC
:10404000B01D81B2012304AA0398FDF7E0FA1EE037
:10405000601C00F00300D0B9621CAFF6605104A8E8
:104060000CF076FE1FED3E0B53EC102B51EC180BB1
:104070000EF0BAF941EC1B0B0EF0C2FB80B20390BC
:10408000B01D81B2012304AA0398FDF7C0FAB5F868
:10409000F803401EA0421DD11FED550B53EC102B11
:1040A00051EC180B0EF0A0F941EC1C0B1FED580B56
:1040B00053EC102B0EF098F941EC1B0B0EF0A0FB0B
:1040C00080B2039006F1180081B20123AA1C039864
:1040D000FDF79DFA641CB5F8F803A0423FF60DAF5A
:1040E0000020FDF73EFB01208CE52DE9FC5F044636
:1040F0008A46207C082870D1002500264FF0000B4E
:104100000027002001900090DFF874846068D0F8E8
:104110002490606890F82000616891F91F1088422F
:104120000ADA606890F91F000A3080B20190606876
:1041300090F8200009300090606890F820006168D5
:1041400091F91F1088420ADD606890F91F0008305D
:1041500080B20190606890F8200009300090BAF1B8
:10416000000F2DD1002625E0002700251BE02FB9E8
:10417000D8F800B008F104084FF400270BEA070054
:1041800070B122899319019A9A1A91B2A289123AAE
:104190002A4490B2FDF71FFBA9F8000009F10209BB
:1041A0007F08681CC5B2F6480C380068A842DED803
:1041B000701CC6B2F2480C384068B042D4D239E024
:1041C000606890F82000616891F91F10884231D032
:1041D0006068D0F82490002627E02CE00027002516
:1041E0001CE02FB9D8F800B008F104084FF40027FC
:1041F0000BEA070078B139F8022B238903EB060C90
:10420000009BACEB030399B2A389123B2B4498B2F9
:104210000823FDF719F97F08681CC5B2D8480C3887
:104220000068A842DDD8701CC6B2D5480C3840687A
:10423000B042D3D800BFBDE8FC9F2DE9F04F87B056
:1042400006460027002002908146824683460124CC
:1042500001908046756815B907B0BDE8F08F95F8F4
:104260002800012811D0012085F82800C54A1268CD
:10427000D188C44A126890880122FDF789FC287F02
:1042800018B900213046FFF730FF95F81EB0012025
:10429000FDF767FABC480690A8680590BB480490F3
:1042A00068680390287F68BB3789B6F80C90B6F829
:1042B0000EA004980090381F81B253464A463846F3
:1042C000FDF7F9FE0EE00598621CA7EB820291B2A1
:1042D000A7EB8402009090B253464A46FDF7EBFEEE
:1042E000601CC4B21B2CEEDB0698621CA7EB82029A
:1042F00091B2A7EB8402009090B253464A46FDF774
:10430000DAFEACE0287F01284DD1A1480088019059
:104310004FF6FF70FDF77EF8F389B6F80CC0ACF1EC
:10432000010C1FFA8CF2B6F80AC0ACF1020C1FFAAD
:104330008CF13089FDF77AFDBDF80400FDF76AF8CD
:10434000B089001F87B2F089001F80B20290B6F8D2
:104350000890B6F80AA00320FDF760FA04201223A3
:104360005246394600900698FDF7B3FB0BE0042057
:104370000090A7EB840081B2122352460598FDF706
:10438000A8FB601CC4B21B2CF1DB04200090A7EB3F
:10439000840081B2122352460498FDF79AFB002054
:1043A000FDF73CFA5BE0287F022858D17848008866
:1043B00001904FF6FF70FDF72DF8B6F80EC0ACF186
:1043C000050C1FFA8CF3B6F80CC0ACF1060C1FFA02
:1043D0008CF2B6F80AC0ACF1010C1FFA8CF1B6F8F9
:1043E00008C00CF1010C1FFA8CF0FDF71FFDBDF8A1
:1043F0000400FDF70FF8B089001F87B2F089001F95
:1044000080B20290B6F80890B6F80AA00120FDF735
:1044100005FA042012234A46009002990698FDF7F7
:1044200058FB0CE004200090029800EB840081B25D
:1044300012234A460598FDF74CFB601CC4B21B2CA6
:10444000F0DB04200090029800EB840081B212237C
:104450004A460498FDF73DFB0020FDF7DFF995F88B
:10446000200095F91F10884209D0287F38B9002113
:104470003046FFF73AFE01213046FFF736FE287F2F
:10448000E0B90398AAF1010C1FFA8CF309F1010CB1
:104490001FFA8CF2009095F91FC0A7EB0C0CACF141
:1044A0000A0C1FFA8CF195F91FC0A7EB0C0CACF1AC
:1044B000040C1FFA8CF0FDF7FEFD2FE0287F012889
:1044C00014D10320FDF7AAF906200090AAF10100FB
:1044D00082B295F91F00381A001F81B21423039885
:1044E000FDF7F7FA0020FDF799F917E0287F022879
:1044F00014D10120FDF792F90620009009F1010086
:1045000082B295F91F3002981844001D81B214231D
:104510000398FDF7DEFA0020FDF780F9E87F85F8C3
:10452000200005F10C000CF05EFD8046B8F1000F94
:1045300024D00024287F10BB10E0ABEBC802A7EB0F
:104540005202D21EA2EBC40291B209F1020290B251
:10455000002310A2FDF75BF8601CC4B2A8F10100B3
:10456000A042EAD8821CA7EBC20291B209F1020272
:1045700090B2012305F10C02FDF749F86DE00BE064
:104580000001002080000020064C0208D84C0208E0
:104590007800002020000000287F01282FD1032070
:1045A000FDF73CF913E0ABEBC802A7EB5202121D7A
:1045B000A2EBC40291B2F84A1288A2EB0A02921C42
:1045C00090B2AFF23002FDF7E9F9601CC4B2A8F175
:1045D0000100A042E7D8ABEBC802A7EB5202121DC4
:1045E00091B2ED4A1288A2EB0A02921C90B205F138
:1045F0000C02FDF7D3F90020FDF710F92DE0287F1C
:1046000002282AD10120FDF709F910E0ABEBC8021E
:10461000A7EB5203621CA3EBC20291B209F10202A2
:1046200090B2AFF29002FDF7B9F9601CC4B2A8F1E4
:104630000100A042EAD8ABEBC802A7EB5203621C10
:10464000A3EBC20291B209F1020290B205F10C0291
:10465000FDF7A4F90020FDF7E1F80020FDF781F84F
:104660000120F9E577B581B005466C6814B90020E2
:1046700004B070BD0120607360680090BDF80E60EA
:10468000F3B2BDF80C60F2B2BDF80A10BDF8080034
:10469000FDF711FD0120EBE7F7B582B006460027D4
:1046A000746814B9002005B0F0BD012084F826001C
:1046B00094F8250008B9A56800E065680095BDF884
:1046C00012C00CF0FF03BDF810C00CF0FF02BDF8E3
:1046D0000E10BDF80C00FDF7EEFC0120FDF741F8CF
:1046E00004F10C000CF07FFC074607B17F1E002090
:1046F000FCF790FEBDF80E20193291B2BDF81020E3
:10470000D2B20F3A90B2012304F10C02FCF77FFF02
:104710000020FDF726F80120C5E72DE9F74181B01B
:1047200007460025A8467C681CB9002004B0BDE8F7
:10473000F08101206076207E012801D1666800E0CA
:10474000A6680096BDF80EC00CF0FF03BDF80CC0C3
:104750000CF0FF02BDF80A10BDF80800FDF7ABFC35
:104760000120FCF7FEFF04F10C000CF03CFC80463D
:1047700010E0BDF80820163AA2EBC50291B2BDF8D0
:104780000C20D2B20E3A90B200232022FCF73FFF59
:10479000681CC5B24545ECD90020FCF73BFEBDF8CE
:1047A0000820521D91B2BDF80C20D2B20E3A90B240
:1047B000012304F10C02FCF72AFF0020FCF7D1FFD3
:1047C0000120B3E72DE9F74F82B007460026B04637
:1047D0007C6801254FF000094FF0000A002001908D
:1047E00014B905B0BDE8F08F012084F82D0004F164
:1047F0000C000CF0F8FB834604F11C000CF0F3FBFA
:10480000834505D904F10C000CF0EDFB064604E0ED
:1048100004F11C000CF0E7FB06460120FCF7A1FFA9
:1048200094F82C0088B95D49A068884206D1DFF869
:104830007091D4F808A05B4801901FE0DFF8689100
:10484000D4F808A05948019018E094F82C000128E9
:1048500014D15749606888420AD14DF6FB60FCF7D5
:10486000E3FDDFF84491D4F804A05048019005E03E
:10487000DFF82C91D4F804A04A48019001980090E8
:10488000BDF812C00CF0FF03BDF810C00CF0FF0221
:10489000BDF80CC0ACF1080C1FFA8CF1BDF80C008F
:1048A000FDF709FC18E0CDF800A0BDF80CB005F14B
:1048B000010CABEBCC0C1FFA8CF1ABEBC50C1FFA67
:1048C0008CF0BDF812C00CF0FF03BDF810C00CF066
:1048D000FF02FDF7F0FB6D1CB54201D2102DE2D3B3
:1048E000CDF80090BDF80CB005F1010CABEBCC0C91
:1048F0001FFA8CF1ABEBC50C1FFA8CF0BDF812C09F
:104900000CF0FF03BDF810C00CF0FF02FDF7D3FB65
:104910004FF6FF70FCF77EFD102000EBC60894F800
:104920002C0078B9BDF80C20A2EBC60291B2BDF8FC
:104930001020D2B2123A90B2012304F10C02FCF71B
:1049400066FE1CE094F82C00012818D104F11C002C
:104950000CF049FB401CA8EBC000BDF80C10A1EB0B
:104960005000C01E1FFA80FBBDF81010C9B21239EA
:1049700088B2012304F11C025946FCF748FE0020CE
:10498000FCF7EFFE4FF6FF70FCF74EFD1020FCF732
:1049900041FD012025E70000740000207E4402084C
:1049A000BA4002089C4202086046020842480208D7
:1049B000244A02082DE9F74F82B0074600267D6899
:1049C00001244FF000094FF000084FF0000A1DB914
:1049D000002005B0BDE8F08F0120687705F10C00DC
:1049E0000CF001FB0646287F88B9FB49A86888427D
:1049F00006D1DFF8E893D5F80880DFF8E4A31AE0E1
:104A0000DFF8E093D5F80880DFF8DCA313E0287F17
:104A1000012810D1F5496868884206D1DFF8C493AF
:104A2000D5F80480DFF8C0A305E0DFF8B093D5F82F
:104A30000480DFF8ACA3CDF80090BDF81230BDF8CB
:104A40001020BDF80CC0ACF1080C1FFA8CF1BDF8B9
:104A50000C00FDF730FB0A2E24D216E0CDF80080C2
:104A6000BDF80EC00CEBC40C1FFA8CF1BDF80EB0F3
:104A700004F1010C0BEBCC0C1FFA8CF0BDF81230DA
:104A8000BDF81020FDF717FB641CB4422FD2BDF80F
:104A90000E10601C01EBC000D5490988081A0928CE
:104AA000DCD824E016E0CDF80080BDF80EC00CEB99
:104AB000C40C1FFA8CF1BDF80EB004F1010C0BEB25
:104AC000CC0C1FFA8CF0BDF81230BDF81020FDF7A9
:104AD000F2FA641C701EA04209D9BDF80E10601CC9
:104AE00001EBC000C2490988081A0928DBD8BDF8C3
:104AF0000E10601C01EBC000BD490988081A15D0D2
:104B0000CDF800A0BDF80EC00CEBC40C1FFA8CF160
:104B1000BDF80EB004F1010C0BEBCC0C1FFA8CF0BD
:104B2000BDF81230BDF81020FDF7C5FAB148008875
:104B3000FCF770FC0120FCF714FE072E0DD2BDF827
:104B40000E20921D91B2BDF81020123A90B20123AE
:104B500005F10C02FCF75BFD0CE0BDF80E20921D88
:104B600091B2BDF81020123A90B2012305F10C0267
:104B7000FCF74DFD0020FCF7F4FD4FF6FF70FCF74D
:104B800053FC1020FCF746FC012022E72DE9F741F9
:104B900081B0074600257C681CB9002004B0BDE840
:104BA000F0810120A074D4F80480FCF7DAFD4FF600
:104BB000FF70FCF739FC0020FCF72CFCCDF80080DE
:104BC000BDF80E60F3B2BDF80C60F2B2BDF808603B
:104BD000163EB1B2BDF80800FDF76DFA207AD0BBE1
:104BE00000E06D1CA08AA84206D904F1180050F814
:104BF0002500007E0028F4D04FF6FF700090BDF82D
:104C00000E60761CF3B2BDF80C60F2B2BDF80A601B
:104C1000863EB1B2BDF80A60163EB0B2FDF72BF980
:104C20000120FCF79EFD1020FCF7F4FBA08A002871
:104C300053DD04F1180353F8253003F10802BDF8E1
:104C40000830303B99B2BDF80C30103BD8B201238C
:104C5000FCF7DDFC41E0FFE7E068466800E06D1C22
:104C6000B08A401EA84206D906F1180050F8250067
:104C7000007E0028F3D04FF6FF700090BDF80EC004
:104C80000CF1010C0CF0FF03BDF80CC00CF0FF029E
:104C9000BDF80AC0ACF1700C1FFA8CF1BDF80A0027
:104CA000FDF7E9F80120FCF75CFD1020FCF7B2FBF2
:104CB000B08A002810DD06F1180353F8253003F1FF
:104CC0000802BDF808305B1D99B2BDF80C30103BEE
:104CD000D8B20123FCF79BFC00BF0020FCF741FD8C
:104CE0004FF6FF70FCF7A0FB1020FCF793FB0120B0
:104CF00054E7F7B505466C680CB90020FEBD0120ED
:104D000084F83100287C042846D1608EFCF782FBB1
:104D100094F83000012840D1FCF723FD94F83400CA
:104D200048B9BDF80610BDF80A20D0B20123A21C74
:104D3000FCF76DFC2DE094F83400012818D1032015
:104D4000FCF76CFDA01C0CF04EF9BDF8041001EB53
:104D5000C00086B2BDF80A10254A1288511A88B2DE
:104D6000A21C3146FCF71AFE0020FCF757FD10E0AC
:104D700094F8340002280CD10120FCF74FFDBDF857
:104D80000610BDF80A00A21CFCF708FE0020FCF784
:104D900045FD0020FCF7E5FC3FE094F8340048B9FD
:104DA000BDF80610BDF80A20D0B20123A21CFCF702
:104DB0002EFC32E094F8340001281DD10320FCF7CA
:104DC0002DFDBDF80610BDF80A00A21CFCF7E6FD9B
:104DD0000020FCF723FD20E0323902086E3502087E
:104DE00050370208143B0208F63C0208D83E02087D
:104DF000740000207800002094F8340002280CD1C0
:104E00000120FCF70BFDBDF80610BDF80A00A21C3E
:104E1000FCF7C4FD0020FCF701FD01206EE72DE941
:104E2000FC4705460E4614461F46388B1E2874DA8A
:104E30004FF00008C246002000900190FE48008814
:104E4000854203DCFD480088864202DD0020BDE883
:104E5000FC87ADF80250ADF80660207C042805D12F
:104E60006068F749616101882180FAE0207C0728A9
:104E70003AD1A5F1160080B2ADF8020006F1160095
:104E800080B2ADF80400EF4860610098A06001981E
:104E9000E060398B07F1200040F82140388B401C3E
:104EA0003883D4F804A0BAF8100020809AF80800DB
:104EB000C0B90020FDF78BFA8146D9F80480C8F804
:104EC0000C40012088F80800DF48C8F80400DF48DB
:104ED000C8F80000F1B2A5F1160290B23B464A466E
:104EE000FFF79DFF0120B2E7207C012802D0207C43
:104EF000052819D105F1080080B2ADF8000006F1CF
:104F00001A0080B2ADF80400207C012806D1606848
:104F1000CF49616101882180A3E0B0E06068CD499C
:104F20006161018821809CE0207C022810D16068AA
:104F3000C949616101680988218005F1140189B2BC
:104F4000ADF8001006F1140189B2ADF8041088E044
:104F5000207C03280FD16068C049616101882180ED
:104F600005F1140189B2ADF8001006F1140189B2FF
:104F7000ADF8041075E0207C06280FD16068B849B0
:104F80006161018821800189691A89B2ADF8021036
:104F90004189314489B2ADF8041062E0207C0828D0
:104FA00036D16068AF49616101882180017F49B9CC
:104FB000291F89B2ADF8021006F1120189B2ADF8CD
:104FC000041024E0017F01290ED1ADF80050A5F1B5
:104FD000120189B2ADF8021006F1740189B2ADF880
:104FE0000410ADF8066012E0017F02290FD1ADF880
:104FF0000050A5F1120189B2ADF8021006F1780156
:1050000089B2ADF80410311D89B2ADF8061028E060
:10501000207C092805D1606893496161018821805D
:105020001FE0207C0A2805D16068904961610188F1
:10503000218016E0207C0B2813D160684188294428
:1050400089B2ADF800108188314489B2ADF80410FE
:10505000ADF80250ADF80660854961610188218094
:1050600000BF0098A0600198E060398B07F1200034
:1050700040F82140388B401C38830120E7E60020AF
:10508000E5E62DE9F041044688461646002514B9A8
:105090000020BDE8F08130460BF0A5FFD0B116E04E
:1050A00004F1200050F82500007C04280ED104F102
:1050B000200050F8250047683888404506D12E2248
:1050C0003146B81CFDF71AF80120E2E76D1C208B71
:1050D000A842E5D80020DCE72DE9F04104460F4660
:1050E0009046002514B90020BDE8F08116E004F1D7
:1050F000200050F82500007C04280ED104F1200087
:1051000050F8250046683088B84206D12E22B11CDE
:105110004046FCF7F3FF0120E6E76D1C208BA84218
:10512000E5D80020E0E710B502460B460024002138
:105130000AB9002010BD11E002F1200050F8210052
:10514000007C082809D102F1200050F821004468B1
:105150002088984201D1E07FECE7491C108B8842FF
:10516000EAD80020E6E77CB503460020002400943E
:10517000019421B9009C1C60019C5C607CBDEEE048
:1051800001F1200454F82040247C042C12D101F1B8
:10519000200555F820506C682588954208D101F10A
:1051A000200555F82050AE681E60ED685D60E5E7AB
:1051B000401C00BF01F1200454F82040247C012C45
:1051C00012D101F1200555F820506C6825889542D0
:1051D00008D101F1200555F82050AE681E60ED6839
:1051E0005D60CBE7401C00BF01F1200454F8204073
:1051F000247C052C12D101F1200555F820506C6853
:105200002588954208D101F1200555F82050AE6857
:105210001E60ED685D60B1E7401C00BF01F1200435
:1052200054F82040247C032C31D101F1200555F89D
:1052300020506C6825881DE074000020720000205A
:10524000F34C00088D4B00085A2D02086431020807
:10525000B5490008C54700081B47000899460008E3
:10526000654600083B420008D93B0008CD290008EC
:1052700005270008954208D101F1200555F8205076
:10528000AE681E60ED685D6078E7401C00BF01F10C
:10529000200454F82040247C022C12D101F1200576
:1052A00055F820506C682588954208D101F12005F9
:1052B00055F82050AE681E60ED685D605EE7401CEA
:1052C00000BF01F1200454F82040247C072C12D1A7
:1052D00001F1200555F820506C68258A954208D1C7
:1052E00001F1200555F82050AE681E60ED685D6044
:1052F00044E7401C00BF01F1200454F82040247C06
:10530000062C12D101F1200555F820506C68258833
:10531000954208D101F1200555F82050AE681E6075
:10532000ED685D602AE7401C00BF01F1200454F8DD
:105330002040247C082C12D101F1200555F8205082
:105340006C682588954208D101F1200555F8205058
:10535000AE681E60ED685D6010E7401C00BF0C8BFE
:1053600084423FF60DAF009C1C60019C5C6000BF56
:1053700004E710B502460B460021002A4ED04AE051
:1053800002F1200050F82100007C01280AD102F12E
:10539000200050F8210044682088984201D1207FE5
:1053A00010BD37E002F1200050F82100007C0528F4
:1053B0000BD102F1200050F8210044682088984267
:1053C00002D194F82C00EBE724E002F1200050F821
:1053D0002100007C03280BD102F1200050F82100AD
:1053E00044682088984202D194F82500D8E711E05B
:1053F00002F1200050F82100007C06280AD102F1B9
:10540000200050F8210044682088984201D1207B78
:10541000C6E700BF491C108B8842B1D80020BFE707
:1054200002460AB90020704791750120FBE77CB560
:1054300004460E4600250CB900207CBDE6753146B9
:105440002046D4F898209047012E20D112E004F194
:10545000200151F825108A680092C968019104F171
:10546000200151F8250051F825104B69DDE90012A3
:1054700098476D1C208BA842E9D8FC4A1268D18855
:10548000FA4A126890880222FCF782FB0CE04FF681
:10549000FF70FBF7D3FFF54A1268D188F34A126810
:1054A00090880222FCF774FB31462046D4F89820FD
:1054B00090470120C1E710B504460CB9002010BD8B
:1054C0000020A075E075AFF29900E061E848C4F8EB
:1054D0009800AFF26110C4F89C00E648C4F8A00040
:1054E00000202083782104F120000BF00AFE002127
:1054F0002046D4F898209047DF48008832280ADAFE
:10550000DE48DD49098840F82140DB480088401C1E
:10551000D949088001E00020D1E70120CFE72DE93B
:10552000F3410D460024684610B90020BDE8FC8117
:1055300082E30098203050F82400007C042845D1F4
:105540000098203050F8240046683088A8423CD1AA
:105550000099203151F8241048680BF0D2FB00214B
:105560000098203050F8240041600099203151F813
:1055700024000BF0C6FB0098008B401EA04218D000
:105580000098008B401E0099203151F8201000989F
:10559000203040F8241000220098008B401E009913
:1055A000203141F820200098008B401E009908838C
:1055B00009E000210098203040F824100098008B6A
:1055C000401E009908830120B0E734E300982030A2
:1055D00050F82400007C012845D10098203050F874
:1055E000240046683088A8423CD10099203151F807
:1055F000241048680BF085FB00210098203050F8FB
:10560000240041600099203151F824000BF079FB0F
:105610000098008B401EA04218D00098008B401EBE
:105620000099203151F820100098203040F82410C3
:1056300000220098008B401E0099203141F8202064
:105640000098008B401E0099088309E00021009813
:10565000203040F824100098008B401E00990883E9
:10566000012063E7E7E20098203050F82400007C36
:10567000052845D10098203050F82400466830882D
:10568000A8423CD10099203151F8241048680BF011
:1056900038FB00210098203050F824004160009928
:1056A000203151F824000BF02CFB0098008B401E99
:1056B000A04218D00098008B401E0099203151F86C
:1056C00020100098203040F8241000220098008B11
:1056D000401E0099203141F820200098008B401E88
:1056E0000099088309E000210098203040F8241038
:1056F0000098008B401E00990883012016E79AE26B
:105700000098203050F82400007C032845D10098F0
:10571000203050F8240046683088A8423CD10099D7
:10572000203151F8241048680BF0EBFA0021009862
:10573000203050F8240041600099203151F82400B5
:105740000BF0DFFA0098008B401EA04218D00098A2
:10575000008B401E0099203151F820100098203015
:1057600040F8241000220098008B401E0099203140
:1057700041F820200098008B401E0099088309E022
:1057800000210098203040F824100098008B401E23
:10579000009908830120C9E64DE20098203050F8B6
:1057A0002400007C02284ED10098203050F82400BC
:1057B000406806683088A84244D17088401E80B294
:1057C000708010B930460BF09CFA0099203151F8E6
:1057D000241048680BF095FA00210098203050F80A
:1057E000240041600099203151F824000BF089FA1F
:1057F0000098008B401EA04218D00098008B401EDD
:105800000099203151F820100098203040F82410E1
:1058100000220098008B401E0099203141F8202082
:105820000098008B401E0099088309E00021009831
:10583000203040F824100098008B401E0099088307
:10584000012073E6F7E10098203050F82400007C36
:10585000072860D100270098203050F824004668BF
:10586000308AA84256D100BF12E00000800000201C
:1058700021540008675100081C0100208802002004
:1058800006F1180151F827000BF03BFA781CC7B25B
:10589000B08AB842F4DC0020B0820099203151F87F
:1058A000241048680BF02DFA00210098203050F8A1
:1058B000240041600099203151F824000BF021FAB6
:1058C0000098008B401EA04218D00098008B401E0C
:1058D0000099203151F820100098203040F8241011
:1058E00000220098008B401E0099203141F82020B2
:1058F0000098008B401E0099088309E00021009861
:10590000203040F824100098008B401E0099088336
:1059100001200BE68FE10098203050F82400007C35
:10592000062845D10098203050F824004668308879
:10593000A8423CD10099203151F8241048680BF05E
:10594000E0F900210098203050F8240041600099CF
:10595000203151F824000BF0D4F90098008B401E40
:10596000A04218D00098008B401E0099203151F8B9
:1059700020100098203040F8241000220098008B5E
:10598000401E0099203141F820200098008B401ED5
:105990000099088309E000210098203040F8241085
:1059A0000098008B401E009908830120BEE542E16B
:1059B0000098203050F82400007C082854D100982A
:1059C000203050F8240046683088A8424BD1706AD5
:1059D00020B1706A0BF095F90020706200992031B7
:1059E00051F82410486830210BF069FB00992031F0
:1059F00051F8241048680BF084F9002100982030F9
:105A000050F8240041600099203151F824000BF037
:105A100078F90098008B401EA04218D00098008BA7
:105A2000401E0099203151F820100098203040F895
:105A3000241000220098008B401E0099203141F86C
:105A400020200098008B401E0099088309E0002167
:105A50000098203040F824100098008B401E0099D8
:105A60000883012062E5E6E00098203050F8240029
:105A7000007C092845D10098203050F82400466861
:105A80003088A8423CD10099203151F82410486850
:105A90000BF037F900210098203050F824004160C5
:105AA0000099203151F824000BF02BF90098008B5D
:105AB000401EA04218D00098008B401E0099203153
:105AC00051F820100098203040F82410002200984F
:105AD000008B401E0099203141F820200098008B57
