:020000040800F2
:10000000C8100120D91802081D0A00081F0A00089C
:10001000230A0008270A00082B0A00080000000035
:10002000000000000000000000000000A90200081D
:100030002F0A000800000000FD020008E91602086F
:10004000F3180208F3180208F3180208F31802085C
:10005000F3180208F3180208F3180208F31802084C
:10006000F3180208F3180208F3180208F31802083C
:10007000F3180208F3180208F3180208F31802082C
:10008000F3180208F3180208F3180208F31802081C
:10009000F3180208F3180208F3180208F31802080C
:1000A000F3180208F3180208F3180208F3180208FC
:1000B000730A0008750A0008770A0008F318020896
:1000C000F3180208F3180208F3180208F3180208DC
:1000D000F3180208F3180208F3180208F3180208CC
:1000E000F3180208F3180208F3180208F3180208BC
:1000F000F3180208F3180208F3180208F3180208AC
:10010000F3180208F3180208790A0008F318020825
:10011000F3180208F3180208F3180208F31802088B
:10012000F3180208F3180208F3180208F31802087B
:10013000F3180208310A0008F3180208F31802083D
:10014000F3180208F3180208F3180208F31802085B
:10015000F3180208F3180208F3180208F31802084B
:10016000F3180208F3180208F3180208F31802083B
:10017000F3180208F3180208F3180208F31802082B
:10018000F3180208F318020800F002F800F07CF8F7
:100190000AA090E8000C82448344AAF10107DA45E2
:1001A00001D100F071F8AFF2090EBAE80F0013F0B8
:1001B000010F18BFFB1A43F0010318476C500500EC
:1001C0008C5005000A444FF0000C10F8013B13F06E
:1001D000070408BF10F8014B1D1108BF10F8015BA0
:1001E000641E05D010F8016B641E01F8016BF9D193
:1001F00013F0080F1EBF10F8014BAD1C0C1B09D1EA
:100200006D1E58BF01F801CBFAD505E014F8016B5B
:1002100001F8016B6D1EF9D59142D6D370470000ED
:100220000023002400250026103A28BF78C1FBD8FF
:10023000520728BF30C148BF0B607047662924F0C1
:10024000F880642921F02284752921F01F84632914
:1002500022F0B981002070471FB524F0E0F89DE836
:10026000030021F0E1FE22F031FA04000020002119
:1002700023F052FB401C60600020002123F036FB7D
:10028000E0601FBD10B510BD22F08AFB1146FFF7DC
:10029000E3FF00F0F7F922F0B6FB03B4FFF7F2FF3B
:1002A00003BC22F0E3FB00002A4B19680868B0E8A1
:1002B000F04F80F30988BFF36F8F4FF0000080F399
:1002C000118870470000000006480068006880F34D
:1002D000088862B661B6BFF34F8FBFF36F8F00DF40
:1002E00000BF00BF08ED00E0DFF80C00016841F43A
:1002F00070010160704700BF88ED00E0EFF30980F6
:10030000BFF36F8F134B1A681EF0100F08BF20ED5C
:10031000108A20E9F04F106008B44FF0500080F3CD
:100320001188BFF34F8FBFF36F8F20F0CEF84FF0DF
:10033000000080F3118808BC19680868B0E8F04F25
:100340001EF0100F08BFB0EC108A80F30988BFF3CD
:100350006F8F704750030020EFF305807047000057
:100360000EB50121082013F0F0F850200190002074
:10037000ADF80000ADF80800ADF802006946F64897
:1003800013F0CFFB0021F44813F02AFC0121F248BE
:1003900014F090F801221146EF4814F063F80021A0
:1003A000ED4813F047FC0EBD10B50446EB48048041
:1003B000FFF7D6FF0021E84813F0FCFB0121E648D7
:1003C00013F038FC00BFE54800880028FBD100216D
:1003D000E14813F02FFC10BD2DED068B00BF03F09C
:1003E00079FACC2003F02DFB442003F01BFB6420A2
:1003F000FFF7DAFF03F06EFACC2003F022FBBE20F9
:1004000003F010FB03F023FBBCEEC00AD44880EDE0
:10041000000A002003F0D6F9DFEDD20A80EE201AA0
:1004200011EE104A204623F089FF41EC1A0B9FED94
:10043000CE0B53EC102B23F097FE41EC190B9FEDE4
:10044000CC0B53EC102B23F063FB41EC180B23F087
:1004500079FAC9490860B3EE090A03F003FAC648FD
:10046000D0ED000AC54890ED001A30EEC11AC1EE79
:10047000000AC34890ED000A30EE600AC14880EDE2
:10048000000A9FEDC10AC14880ED000AC04800780B
:10049000012805D1BB4890ED000ABE4880ED000A56
:1004A000BD480078012805D1B84890ED000ABB4846
:1004B00080ED000A64201FF0F7FE90E700BFB84807
:1004C0000078401CB6490870084600783B2807DDD4
:1004D000B4480078401CB34908700020B049087047
:1004E000B04800783B2807DDAF480078401CAE4993
:1004F00008700020AB490870AB480078172806DD6B
:100500000020A9490870A7490870A54908704FF450
:100510007A701FF0C9FED2E700BFA4480078002817
:1005200076D0012852D0022830D003287BD1A048B1
:100530000068B0F57A6F09D210229E49012003F0BD
:1005400085F99B480068401C994908609A480068F2
:10055000B0F5FA6F09D220229649012003F076F90E
:1005600095480068401C9449086001201FF09CFEDB
:1005700010229049002003F069F920228D490020C3
:1005800003F064F903201FF08FFE4DE088480068F7
:10059000B0F57A6F09D210228649012003F056F98E
:1005A00083480068401C8249086001201FF07CFEDF
:1005B00010228049002003F049F903201FF074FE47
:1005C00020227C49002003F041F92DE010227949D6
:1005D000002003F03BF978480068B0F5FA6F09D2C3
:1005E00020227449012003F031F973480068401C4F
:1005F0007149086001201FF057FE20226D4900203C
:1006000003F024F903201FF04FFE0DE000E00AE0A4
:1006100010226849002003F019F9202265490020C2
:1006200003F014F900E000BF77E700BF0FF079FB9B
:100630000DF0DAFA0DF0B3FB02F020FDF6E71CB581
:10064000002011F041F8012011F03EF8022011F0D5
:100650003BF8032011F038F80121022012F042FF8C
:10066000012000908DF8040000208DF80600032082
:100670008DF8050001208DF8070069464F4812F0FB
:10068000EFFC1CBD1CB54FF4E1314D480DF0A0FC52
:10069000FFF7D5FF0EF0C4F8002008F0DEFA0FF0E7
:1006A00092F903F0BBF803F057F810F065FF02F081
:1006B000D4F903F0FEFF00F0F3FA00F0EBF94FF489
:1006C000407011F057FC01F038FE02F0F0F8FFF72F
:1006D00047FE0020012103460A02CDE9001039A19E
:1006E000AFF2B9001FF0BBFB0020012103468022BE
:1006F000CDE9001035A1AFF2DF101FF0B0FB0020F4
:10070000012103468022CDE9001034A1AFF253202D
:100710001FF0A5FB0020022103468022CDE9001036
:1007200030A1AFF24B301FF09AFB20F098F800BFD9
:10073000FEE700BF502080F31188BFF34F8FBFF357
:100740006F8F00BF21F0B9F80446214628A00DF0B4
:10075000ECFC00BFFEE77047000C004030000020BA
:100760002C00002000007A442DB29DEFA7C6F93F6F
:10077000DF7A2949920416C00C00002028000020CE
:10078000A0000020040000204992CC3E1000002070
:10079000CC000020BC000020CD000020C0000020C4
:1007A0007E0000207D0000207C0000208C000020C6
:1007B000240000200000024020000020000402402D
:1007C000001001404C43445461736B0041637475E5
:1007D00061746F725461736B00000000436C6F634F
:1007E0006B000000526561645F70485F4F525000BB
:1007F000667265654865617073697A65203D20257C
:10080000640A000010B50DF0E7FA10BD0CB5002029
:10081000019000907648006840F480307449086088
:1008200000BF7348006800F4003000900198401C3D
:100830000190009818B90198B0F5A06FF1D16C48FB
:10084000006800F4003010B10120009001E00020A9
:1008500000900098012846D165484030006840F07B
:1008600080506349403108606248006840F480402D
:10087000604908605E48083000685D4908310860DA
:100880000846006840F4004008600846006840F4EC
:10089000A05008605848091F0860081F006840F011
:1008A0008070091F086000BF5148006800F00070A8
:1008B0000028F9D040F20520504908604C48083023
:1008C000006820F003004A490831086008460068C3
:1008D00040F00200086000BF45480830006800F0A2
:1008E0000C000828F8D10CBD10B54548006840F44C
:1008F0007000434908603E48006840F001003C49F0
:10090000086000203A4908310860394800683D49CC
:100910000840374908603C48091D0860081F006806
:1009200020F48020091F0860002031490C31086044
:10093000FFF76CFF4FF0006031498039086010BD4F
:1009400070B500200022022300240221284D083522
:100950002D6805F00C0020B1042806D0082834D1F9
:1009600007E02A4D2A4E356033E02A4D284E356087
:100970002FE01F4D2D1D2D68C5F380541C4D2D1DDE
:100980002D6805F03F0154B1224DB5FBF1F5184E2D
:10099000361D3668C6F3881605FB06F209E01B4DC6
:1009A000B5FBF1F5124E361D3668C6F3881605FB09
:1009B00006F20F4D2D1D2D68C5F301456D1C6B0012
:1009C000B2FBF3F5124E356003E0104D104E35606A
:1009D00000BF00BF064D08352D68C5F303150E4E48
:1009E000705D0B4D2D68C540094E356070BD00002F
:1009F000003802400070004019544007003C02409B
:100A000088ED00E0FFFFF6FE103000240024F40023
:100A10003400002000127A0038000020704700BF28
:100A2000FEE700BFFEE700BFFEE700BFFEE770473E
:100A300008B500200090402015F01FF8012804D1CF
:100A40006946114800681EF04CFF402015F039F847
:100A50004FF4803015F035F8009848B1009838B15F
:100A60004FF0805009490860BFF34F8FBFF36F8F7D
:100A700008BD70477047704710B50121044813F056
:100A800019FD01F096FF10BD4403002004ED00E0C5
:100A9000000C004000B58DB00021084617F0ACFCFA
:100AA0001D481DF003F90C906FF0FF001DF0FEF8DB
:100AB0000B90194815381DF0F9F80A9016208DF89A
:100AC000240001208DF82500A8208DF82600C020E4
:100AD0008DF827009DF824009DF82510CDE9001021
:100AE0009DF826309DF827200CA104A820F06AFF6D
:100AF0000E480F4900220AABCDE9002102900BAA53
:100B00000CA90C4819F031F80A4819F06EF8094898
:100B100019F0BBF80DB000BD1601A8C02020256457
:100B20002E25642E25642E2564000000A98201086C
:100B3000DDED0108B003002000B5AFB001214FF09A
:100B4000606012F0CFFC14F0F9F914F085FF00BFDB
:100B500014F089FF0128FBD0684614F0FAF901204F
:100B60000090002007904FF400700A9000200B9036
:100B70000E90119013901490159020904FF00070EB
:100B80002190001123900020259026900420289089
:100B9000C005299040122A9080012B9040122C9081
:100BA00040002E900121684614F08DFA43490860F8
:100BB0000121434814F06EFF2FB000BD08B54FF47B
:100BC000A06011F0D7F93D208DF8000002208DF8CB
:100BD000010000208DF8020001208DF80300684616
:100BE00011F0CDF908BD1CB50121472012F07AFCA7
:100BF0000121880312F0BAFC012012F0E0FD8E20E2
:100C0000009003208DF8050002208DF804000020DC
:100C10008DF806008DF8070069462A4812F020FA80
:100C20000B220121274812F0A6FA0B2202212548A7
:100C300012F0A1FA0B220321224812F09CFA0B2297
:100C40000721204812F097FA4FF46050009069464F
:100C50001D4812F005FA0B2211461B4812F08BFAC0
:100C60000B220C21184812F086FA0B220D2116488F
:100C700012F081FA322000906946144812F0F0F91F
:100C80000B220121114812F076FA0B2204210F48A1
:100C900012F071FA0B2205210C4812F06CFA1CBDFF
:100CA00010B5FFF7A0FFFFF789FFFFF745FF0348E7
:100CB000006808B900BFFEE710BD00004800002032
:100CC0004000010000000240000402400008024011
:100CD000002114E001EB41003D4A02EBC000007D21
:100CE00060B9012001EB4102394B03EBC2021075E0
:100CF00001EB41001A4602EBC0007047491C0A296B
:100D0000E8DB0020F9E710B5014600200FE000EB1A
:100D100040022F4B03EBC2028A4207D1002200EBB4
:100D200040032B4C04EBC3031A7502E0401C0A2855
:100D3000EDDB00BF10BD70B50646FFF7C9FF0546E5
:100D40000DB9002070BD234C11E03046616821F0E0
:100D500007F958B9A0682860E0686860E068A86092
:100D60000020E860207C28742846EBE72468002CEB
:100D7000EBD12846FFF7C7FF0020E3E710B5044694
:100D80002046FFF7C0FF10BD2DE9F04104460F4695
:100D90001646D4E90110884203D14FF0FF30BDE878
:100DA000F081D4E90101451AB54200DD3546A2685B
:100DB000206881182A46384621F010F8A068284497
:100DC000A0602846EBE70146D1E90102801A70478E
:100DD000E8030020E8EC020870B504467F4820F0E4
:100DE00087FF05462A467D49204616F0E2FC70BD85
:100DF0002DE9F041054640F6AC51794821F03BF829
:100E000078A1774820F0DEFF78A1754820F0DAFF5E
:100E100078A1734820F0D6FF7DA1714820F0D2FF61
:100E200087A16F4820F0CEFF90A16D4820F0CAFF47
:100E300095A16B4820F0C6FF9EA1694820F0C2FF33
:100E40009FA1674820F0BEFF9EA1654820F0BAFF31
:100E5000A2A1634820F0B6FFA8A1614820F0B2FF2C
:100E6000AEA15F4820F0AEFFADA15D4820F0AAFF23
:100E7000ADA15B4820F0A6FFBBA1594820F0A2FF1E
:100E8000BEA1574820F09EFFC0A1554820F09AFF10
:100E9000C3A1534820F096FFC4A1514820F092FF0F
:100EA0009EA14F4820F08EFFC3A14D4820F08AFF3D
:100EB000C2A14B4820F086FFC6A1494820F082FF1E
:100EC000C8A1474820F07EFFCCA1454820F07AFF1A
:100ED000D1A1434820F076FF90A1414820F072FF55
:100EE000D5A13F4820F06EFFD9A13D4820F06AFF10
:100EF0008AA13B4820F066FFD9A1394820F062FF63
:100F0000DBA1374820F05EFFDFA1354820F05AFF13
:100F1000E2A1334820F056FFE3A1314820F052FF10
:100F20007EA12F4820F04EFFE3A12D4820F04AFF7C
:100F3000E3A12B4820F046FFE6A1294820F042FF1C
:100F4000E8A1274820F03EFFEDA1254820F03AFF18
:100F5000D2A1234820F036FF70A1214820F032FFB3
:100F6000EBA11F4820F02EFFECA11D4820F02AFF26
:100F7000EDA11B4820F026FF8CA1194820F022FF8C
:100F800087A1174820F01EFF64A1154820F01AFF22
:100F9000EBA1134820F016FFEDA1114820F012FF3D
:100FA000F0A10F4820F00EFFF2A10D4820F00AFF3B
:100FB000F5A10B4820F006FFFAA1094820F002FF36
:100FC000B1A1074820F0FEFE54A1054820F0FAFE2A
:100FD000FBA1034820F0F6FEFAE10000E9F2020866
:100FE000D80600203C68746D6C3E0000203C6865AB
:100FF00061643E00203C7469746C653E57656220F4
:101000007365727665723C2F7469746C653E00007E
:10101000203C6D657461206E616D653D2264657371
:101020006372697074696F6E2220636F6E74656E8F
:10103000743D22576562736572766572222F3E0099
:10104000203C6D657461206E616D653D226B657934
:10105000776F72642220636F6E74656E743D2275C3
:1010600062756E7475222F3E00000000203C6D6595
:10107000746120636861727365743D227574662DB6
:1010800038222F3E00000000203C6D65746120680E
:101090007474702D65717569763D2272656672652E
:1010A00073682220636F6E74656E743D2233223E36
:1010B00000000000203C7374796C653E0000000065
:1010C0002A207B00626F782D73697A696E673A20F7
:1010D000626F726465722D626F783B002D6D6F7A5E
:1010E0002D626F782D73697A696E673A20626F722C
:1010F0006465722D626F783B000000002D77656299
:101100006B69742D626F782D73697A696E673A2006
:10111000626F726465722D626F783B007D00000023
:10112000626F6479207B0000666F6E742D66616D5E
:10113000696C793A202248656C76657469616361EF
:10114000204E657565222C2048656C766574696152
:1011500063612C20417269616C2C2073616E732D68
:1011600073657269663B0000666F6E742D77656902
:101170006768743A2033303070783B00636F6C6F6F
:10118000723A20233333333B000000006C696E65F4
:101190002D6865696768743A20312E3235343B001A
:1011A0006D617267696E3A20303B00007061646463
:1011B000696E673A20303B0061207B00746578746B
:1011C0002D6465636F726174696F6E3A206E6F6E25
:1011D000653B0000636F6C6F723A202333623862A4
:1011E00062613B007472616E73666F726D3A20616A
:1011F0006C6C20302E35733B000000002D6D6F7A33
:101200002D7472616E73666F726D3A20616C6C2022
:10121000302E35733B0000002D7765626B69742DAD
:101220007472616E73666F726D3A20616C6C2030FF
:101230002E35733B00000000613A686F7665722CB2
:1012400020613A76697369746564207B0000000050
:10125000636F6C6F723A20233236353737383B0074
:1012600023636F6E7461696E6572207B00000000FD
:1012700070616464696E672D6C6566743A203135FF
:101280003070783B00000000706F736974696F6E96
:101290003A2072656C61746976653B006C656674B2
:1012A0003A20303B0000000077696474683A2031CE
:1012B0003030253B00000000236D656E75207B00FB
:1012C000706F736974696F6E3A2066697865643B04
:1012D000000000006865696768743A203130302585
:1012E0003B0000006261636B67726F756E642D6313
:1012F0006F6C6F723A20233139313831383B00003E
:1013000077696474683A2031353070783B000000AA
:10131000236D656E75207B7D00000000236D656E7A
:101320007520756C7B0000006C6973742D73747983
:101330006C652D747970653A206E6F6E653B0000A8
:10134000236D656E7520756C206C69207B00000034
:101350006C696E652D6865696768743A20322E394C
:10136000656D3B006865696768743A20322E39659F
:101370006D3B20007472616E736974696F6E3A2000
:10138000616C6C2031733B002D6D6F7A2D7472612E
:101390006E736974696F6E3A20616C6C2031733BB7
:1013A000000000002D7765626B69742D7472616EA8
:1013B000736974696F6E3A20616C6C2031733B0005
:1013C000236D656E7520756C206C692061207B0033
:1013D00094A1984820F0F6FC97A1964820F0F2FCE2
:1013E00099A1944820F0EEFC9BA1924820F0EAFCE1
:1013F000AFF2D8218F4820F0E5FC9FA18D4820F066
:10140000E1FCA2A18B4820F0DDFCAFF2F02189487D
:1014100020F0D8FCA4A1874820F0D4FCA7A18548DF
:1014200020F0D0FCA9A1834820F0CCFCACA18148DD
:1014300020F0C8FCAFF2C0117E4820F0C3FCAFF230
:101440005C117C4820F0BEFCAFF23031794820F0CE
:10145000B9FCA5A1774820F0B5FC72A1754820F031
:10146000B1FCAFF24831734820F0ACFCA6A1714842
:1014700020F0A8FCA7A16F4820F0A4FCAFF26431D3
:101480006C4820F09FFCA8A16A4820F09BFCADA10D
:10149000684820F097FCAFF27C31664820F092FC5F
:1014A000AEA1644820F08EFCAFA1624820F08AFC17
:1014B000B5A1604820F086FCB8A15E4820F082FC0F
:1014C000BAA15C4820F07EFCAFF2B031594820F060
:1014D00079FCBBA1574820F075FCBEA1554820F00F
:1014E00071FCC1A1534820F06DFCC6A1514820F009
:1014F00069FCAFF2D8314F4820F064FCC8A14D48D8
:1015000020F060FCC8A14B4820F05CFCCBA149480E
:1015100020F058FCAFF2FC31464820F053FCCCA13F
:10152000444820F04FFCCDA1424820F04BFCCFA115
:10153000404820F047FCD0A13E4820F043FCAFF2E9
:1015400024413C4820F03EFCCFA13A4820F03AFC30
:10155000D3A1384820F036FCD5A1364820F032FC23
:10156000AFF24841334820F02DFCD6A1314820F09D
:1015700029FCBAA12F4820F025FCAFF260412D488C
:1015800020F020FCD3A12B4820F01CFCD4A129483A
:1015900020F018FCD6A1274820F014FCDCA1254837
:1015A00020F010FCDEA1234820F00CFCAFF29441A7
:1015B000204820F007FCDF491E4820F003FCDE49EC
:1015C0001C4820F0FFFBDDA11A4820F0FBFBDEA148
:1015D000184820F0F7FBDFA1164820F0F3FBDFA14D
:1015E000144820F0EFFBE3A1124820F0EBFBE6A14A
:1015F000104820F0E7FBE6A10E4820F0E3FBEEA147
:101600000C4820F0DFFBF7A10A4820F0DBFBFDA12E
:10161000084820F0D7FBFDA1064820F0D3FBFDA130
:1016200002E20000646973706C61793A20626C6F49
:10163000636B3B00D8060020636F6C6F723A202307
:101640006666663B0000000070616464696E673A1C
:1016500020302031656D3B00626F726465722D62CF
:101660006F74746F6D3A2031707820736F6C696499
:1016700020233333333B0000236D656E7520756C7A
:10168000206C693A686F766572207B006261636BDB
:1016900067726F756E642D636F6C6F723A202334BE
:1016A00035343534353B0000236D656E75202E735F
:1016B00075622D6D656E75207B0000006469737026
:1016C0006C61793A206E6F6E653B0000706F7369D4
:1016D00074696F6E3A206162736F6C7574653B005C
:1016E000746F703A20303B00236D656E7520756C09
:1016F000206C693A686F766572202E7375622D6D65
:10170000656E757B0000000023636F6E74656E74F8
:10171000207B000070616464696E673A2031656DFA
:101720002038656D3B000000236865616465722C9C
:10173000202E63616C6C2D746F2D616374696F6E04
:10174000207B0000746578742D616C69676E3A20A7
:101750002063656E7465723B00000000236865615C
:10176000646572207B7D000023686561646572207A
:10177000236C6F676F207B666F6E742D73697A655B
:101780003A343070783B7D0023686561646572206F
:1017900023736C6F67616E207B000000636F6C6F5A
:1017A000723A203839393761303B0000666F6E7409
:1017B0002D73697A653A20302E38656D3B00000044
:1017C0002E63616C6C2D746F2D616374696F6E2074
:1017D0007B00000070616464696E673A20312E35C9
:1017E000656D203230253B006261636B67726F75F7
:1017F0006E642D636F6C6F723A2023663066666686
:10180000663B0000626F726465723A203170782026
:10181000736F6C696420236538653865383B000058
:101820002E726F77207B00006F766572666C6F7723
:101830003A2068696464656E3B0000006D61726700
:10184000696E3A20312E35656D206175746F3B00ED
:101850002E726F77202E636F6C207B00666C6F6139
:10186000743A206C6566743B00000000776964740C
:10187000683A203430253B006D617267696E3A200A
:1018800032656D3B000000002E726F77202E636F73
:101890006C3A6C6173742D6368696C64207B000022
:1018A000666C6F61743A2072696768743B0000006F
:1018B0006D617267696E2D72696768743A20303B9A
:1018C000000000002E726F77202E636F6C20696D10
:1018D00067207B0023666F6F746572207B000000B9
:1018E000666F6E742D73697A653A203835253B0032
:1018F000626F726465722D746F703A203170782057
:10190000736F6C696420236536653665363B00006D
:10191000636F6C6F723A20233833383338333B00AF
:1019200070616464696E673A2031656D2033656D5E
:101930003B000000A0500508F85005083C2F7374C8
:10194000796C653E00000000203C2F686561643EB4
:1019500000000000203C626F64793E00203C646916
:10196000762069643D22636F6E7461696E657222D0
:101970003E000000203C6469762069643D226D656C
:101980006E75223E00000000203C756C3E00000099
:10199000203C6C693E3C6120687265663D222F6880
:1019A0006F6D65223E486F6D65706167653C2F61A4
:1019B0003E3C2F6C693E0000203C6C693E3C61203F
:1019C000687265663D222F73657474696E67223E86
:1019D00053657474696E67733C2F613E3C2F6C696C
:1019E0003E000000203C6C693E3C612068726566E8
:1019F0003D2223223E41626F75743C2F613E3C2F95
:101A00006C693E00203C2F756C3E0000203C2F642A
:101A100069763E00203C6469762069643D22636FEC
:101A20006E74656E74223E008B4820F0CBF98BA15A
:101A3000894820F0C7F98EA1874820F0C3F999A101
:101A4000854820F0BFF99CA1834820F0BBF9AFF294
:101A50004401814820F0B6F9A1A17F4820F0B2F9F5
:101A6000A4A17D4820F0AEF9AAA17B4820F0AAF9F4
:101A7000B2A1794820F0A6F9B8A1774820F0A2F9E0
:101A8000BDA1754820F09EF9C3A1734820F09AF9D2
:101A9000C949714820F096F9C8A16F4820F092F921
:101AA000D0A16D4820F08EF9D0A16B4820F08AF9C2
:101AB000DAA42146684820F085F9D9A1664820F0CB
:101AC00081F9DB49644820F07DF9AFF2C00162483A
:101AD00020F078F9D7A1604820F074F9B6495E4843
:101AE00020F070F9DBA15C4820F06CF9BDA15A48E8
:101AF00020F068F94FF4FA7000F06BFD0646E0A1A3
:101B0000554820F05FF93146534820F05BF9C4A1F5
:101B1000514820F057F9E6494F4820F053F9AFF209
:101B200014114D4820F04EF9E2A14B4820F04AF93B
:101B3000E4A1494820F046F9E7A1474820F042F9DE
:101B4000AFF23811444820F03DF9AFF2401142485D
:101B500020F038F9AFF24C113F4820F033F9E7A1FB
:101B60003D4820F02FF9E8A13B4820F02BF93A48F6
:101B700020F0BEF807463A463749284615F019FEC8
:101B8000BDE8F08170B50446E24820F0B1F80546A2
:101B90002A46E049204615F00CFE70BD70B504469B
:101BA000DD4820F0A5F805462A46DB49204615F019
:101BB00000FE70BD3EB504464FF40071D74820F0DA
:101BC0005AF9D7480068401CD54908600846D5A195
:101BD000026868461FF0F6FE6946D04820F0F2F829
:101BE000D1A1CE4820F0EEF8DCA1CC4820F0EAF8F4
:101BF000CA4820F07DF8C949451828461FF0A0F9C9
:101C0000E4A1C64820F0DEF8F0A1C44820F0DAF8DC
:101C1000FD4820F06DF805462A46FB49204615F0A0
:101C2000C8FDBE4820F064F805462A46BB49204658
:101C300015F0BFFD3EBD2DE9F047ADF5BF6D074680
:101C400040F2DC5A0026524607A9384615F093FCAC
:101C50008046B8F1000FD9E1D8060020203C646925
:101C6000762069643D22686561646572223E0000E9
:101C7000203C6469762069643D226C6F676F223E68
:101C8000486F6D6570616765205765625365727650
:101C9000657220666F722073797374656D3C2F6472
:101CA00069763E00203C6469762069643D22736C4D
:101CB0006F67616E223E0000203C703E57656220D7
:101CC000636F6E74726F6C2064656D6F20666F72E7
:101CD0002053544D3332463478783C2F703E000008
:101CE000203C2F6469763E3C216865616465723EE4
:101CF00000000000203C64697620636C6173733DD2
:101D00002263616C6C2D746F2D616374696F6E2238
:101D10003E000000203C68333E4C43442077617411
:101D2000657220636F6E74726F6C207669612077C4
:101D30006562736974653C2F68333E00203C703ED9
:101D4000704820616E64205265646F7820636F6E06
:101D500074726F6C3C2F703E00000000203C2F64BA
:101D600069763E3C2163616C6C2D746F2D616374E8
:101D7000696F6E3E00000000203C64697620636C51
:101D80006173733D22726F77222069643D22696E10
:101D900074726F223E000000203C64697620696402
:101DA0003D22626F78312220636C6173733D226340
:101DB0006F6C223E00000000684F05083C6833202D
:101DC0007374796C653D22746578742D616C6967F4
:101DD0006E3A63656E7465723B223E70483C2F68B4
:101DE000333E00003C2F6469763E00003C683120A1
:101DF00069643D227048223E70483A203C7370610D
:101E00006E207374796C653D22636F6C6F723A2338
:101E1000303039454532223E00000000372E300078
:101E20003C2F7370616E3E3C2F68313E0000000015
:101E3000C04F0508203C6469762069643D22626FCA
:101E400078322220636C6173733D22636F6C223E93
:101E5000000000003C6833207374796C653D227487
:101E60006578742D616C69676E3A63656E7465722E
:101E70003B223E5265646F783C2F68333E00000081
:101E80003C68312069643D227048223E5265646F8F
:101E9000783A203C7370616E207374796C653D22D2
:101EA000636F6C6F723A23303039454532223E0001
:101EB00030500508203C2F6469763E3C21726F77D4
:101EC0003E000000203C6469762069643D22666F14
:101ED0006F746572223E0000203C703E436F707943
:101EE00072696768743A2043686175205068756F3D
:101EF000632056753C2F703E00000000203C2F628E
:101F00006F64793E00000000203C2F68746D6C3EC9
:101F100000000000F3FC0208ABF90208D80400201E
:101F20004C000020256400003C7072653E3C6272EB
:101F30003E4E616D6520202020202020202020534F
:101F40007461746520205072696F72697479202001
:101F5000537461636B2020204E756D003C62723EAD
:101F60002D2D2D2D2D2D2D2D2D2D2D2D2D2D2D2DA1
:101F70002D2D2D2D2D2D2D2D2D2D2D2D2D2D2D2D91
:101F80002D2D2D2D2D2D2D2D2D2D2D2D2D3C6272F8
:101F90003E0000003C62723E3C62723E2D2D2D2DB3
:101FA0002D2D2D2D2D2D2D2D2D2D2D2D2D2D2D2D61
:101FB0002D2D2D2D2D2D2D2D2D2D2D2D2D2D2D2D51
:101FC0002D2D2D2D2D2D2D2D2D0000003C62723E2E
:101FD00042203A20426C6F636B65642C2052203A99
:101FE0002052656164792C2044203A2044656C6558
:101FF0007465642C2053203A2053757370656E64A9
:1020000065643C62723E0000FCEC020803DA0DF5E8
:10201000BF6DBDE8F0871B22CDA107A81FF087FE8A
:1020200088B9CCA0FEF787FE044607A80CF07DF81F
:102030003846D4E9001215F0BCFB002C02D0204633
:10204000FEF79CFE3CE11E22C8A107A81FF06FFE10
:1020500088B9C7A0FEF76FFE044607A80CF065F824
:102060003846D4E9001215F0A4FB002CEAD0204633
:10207000FEF784FE24E11D22C4A107A81FF057FE2D
:1020800088B9C3A0FEF757FE044607A80CF04DF828
:102090003846D4E9001215F08CFB002CD2D0204633
:1020A000FEF76CFE0CE11822C0A107A81FF03FFE4E
:1020B00030B907A80CF039F83846FFF77BFDFFE090
:1020C0001322C1A107A81FF032FE88B9BFA0FEF7F6
:1020D00032FE044607A80CF028F83846D4E900126E
:1020E00015F067FB002CADD02046FEF747FEE7E079
:1020F0000622BAA107A81FF01AFE18B93846FFF742
:102100004DFDDDE0B7A107A81FF090FD002844D0E9
:10211000B6A107A81FF08AFD00283ED0B1A107A8EC
:102120001FF084FD851D0020049005900690B1A14C
:1021300007A81FF07BFDA0EB05094A46294604A825
:102140001FF0E2FEA9A107A81FF070FD451D0020A9
:10215000019002900390294601A81FF0A5FDA74811
:10216000016804A81FF0FCFE28B9A548016801A871
:102170001FF0F6FE08B1012000E0002030B938461B
:10218000FEF736FE00209F49087005E03846FEF74E
:1021900023FE01209B49087092E00C229AA107A817
:1021A0001FF0C5FD18B93846FFF7ECFC88E009229E
:1021B00099A107A81FF0BBFD28B10A2299A107A881
:1021C0001FF0B5FD18B93846FEF712FE78E098A169
:1021D00007A81FF02BFD18B13846FEF7FDFD6FE094
:1021E00094A107A81FF022FD002859D093A107A8A9
:1021F0001FF01CFD002853D093A107A81FF016FD67
:1022000000284DD093480078002845D1069089A138
:1022100007A81FF00BFD451D88A107A81FF006FDAC
:10222000A0EB05094A46294606A81FF06DFE06A840
:102230001FF0EFFC8849087080A107A81FF0F6FC8A
:1022400000F1080580A107A81FF0F0FCA0EB05092C
:102250004A46294606A81FF057FE06A81FF0D9FCDB
:102260007E49087078A107A81FF0E0FC00F108057E
:102270007BA107A81FF0DAFCA0EB05094A46294616
:1022800006A81FF041FE06A81FF0C3FC75490870A0
:1022900001207049087000BF3846FEF79DFD0FE031
:1022A00071A0FEF748FD044607A80BF03EFF384634
:1022B000D4E9001215F07DFA14B12046FEF75EFD58
:1022C00003E0002007A98855761C40F2DC508642C6
:1022D000F7DB384614F0A0FF00BF98E670B58AB06F
:1022E000064600220121022015F01AFA041E01DA26
:1022F0000AB070BD02208DF8150050201BF0CFFDF4
:10230000ADF8160000200690102205A9204614F012
:102310002BFF002800DAEBE70521204614F0F6FF3A
:102320001020099008E009AA01A9204614F065FED2
:1023300005462846FFF77FFCF5E708B504204FF473
:102340007A7300224B4900904BA01CF06AFE08BD36
:10235000474554202F53544D3332463478375F6607
:10236000696C65732F53542E676966004745542086
:102370002F53544D3332463478375F66696C65733A
:102380002F73746D33322E6A7067000047455420F6
:102390002F53544D3332463478375F66696C65731A
:1023A0002F6C6F676F2E6A706700000047455420DE
:1023B0002F53544D3332463478375441534B532EB8
:1023C00068746D6C00000000474554202F53544D35
:1023D0003332463478372E68746D6C00474554208C
:1023E0002F200000756E616D653D000026707377CB
:1023F0003D0000002670737700000000640000209C
:10240000680000206C000020474554202F7365743D
:1024100074696E6700000000474554202F686F6D97
:1024200065000000474554202F6C6F67696E0000FF
:1024300070483D00686F75723D000000266D696E42
:102440007574653D00000000267365636F6E643D22
:1024500000000000600000207C0000207D000020C3
:102460002F3000007E0000202F3430342E68746D31
:102470006C000000DD220008485454505345525669
:1024800045520000014601F00F01102929D2DFE872
:1024900001F0080A0C0E10121416181A1C1E202225
:1024A0002426302070473120FCE73220FAE7332021
:1024B000F8E73420F6E73520F4E73620F2E7372056
:1024C000F0E73820EEE73920ECE74120EAE7422048
:1024D000E8E74320E6E74420E4E74520E2E746203A
:1024E000E0E77820DEE7014601F00F010A291AD261
:1024F000DFE801F00507090B0D0F11131517302048
:1025000070473120FCE73220FAE73320F8E7342027
:10251000F6E73520F4E73620F2E73720F0E73820F9
:10252000EEE73920ECE77820EAE730B504460D46BF
:102530001346002018700DB9012030BD00220FE0B5
:10254000A15C01F00F00FFF79DFF5100491C58549A
:10255000A15C0809FFF796FF03F81200501CC2B2F5
:10256000AA42EDDB0020E8E710B502460B461E212B
:102570000AE0B2FBF3F003FB10208FA4205C934C25
:102580006054491EB2FBF3F20AB10029F1D18F4C1D
:10259000481C204410BD014608784A7840EA0220D1
:1025A00070470870020A4A7070470146C8780006F2
:1025B0008A7840EA02404A7840EA02200A781043CA
:1025C00070470870020A4A70020C8A70020ECA70C4
:1025D00070470CB501460A290DD27DA00068019014
:1025E00001F13000C0B28DF8050001A8794A1060F1
:1025F000104600680CBD642914D20A20B1FBF0F02B
:102600003030C0B28DF804000A20B1FBF0F200FBBC
:10261000121030308DF8050001A86E4A1060104687
:102620000068E7E7B1F57A7F26D2002001906420A8
:10263000B1FBF0F03030C0B28DF804006420B1FB83
:10264000F0F200FB12100A22B0FBF2F030308DF8ED
:1026500005006420B1FBF0F200FB12100A22B0FB6F
:10266000F2F302FB130030308DF8060001A8594A3E
:10267000106010460068BDE742F2107081423ED201
:102680004FF47A70B1FBF0F03030C0B28DF8040036
:102690004FF47A70B1FBF0F200FB12106422B0FB31
:1026A000F2F03030C0B28DF805004FF47A70B1FB13
:1026B000F0F200FB12106422B0FBF2F302FB1300F5
:1026C0000A22B0FBF2F030308DF806004FF47A7039
:1026D000B1FBF0F200FB12106422B0FBF2F302FB3C
:1026E00013000A22B0FBF2F302FB130030308DF826
:1026F000070001A8374A1060104600687AE742F2E6
:102700001070B1FBF0F03030C0B28DF8000042F232
:102710001070B1FBF0F200FB12104FF47A72B0FBB4
:10272000F2F03030C0B28DF8010042F21070B1FB0F
:10273000F0F200FB12104FF47A72B0FBF2F302FBDE
:1027400013000A22B0FBF2F03030C0B28DF8020064
:1027500042F21070B1FBF0F200FB12104FF47A72EB
:10276000B0FBF2F302FB13006422B0FBF2F302FBB6
:10277000130030308DF8030042F21070B1FBF0F21C
:1027800000FB12104FF47A72B0FBF2F302FB13005D
:102790006422B0FBF2F302FB13000A22B0FBF2F357
:1027A00002FB130030308DF804000A4AC2F800D052
:1027B000104600681EE700003031323334353637BA
:1027C000383961626364656600000000841400208B
:1027D00030000000700000207047704710B50121E4
:1027E000084610F07FFE10BD10B510F039F8FFF765
:1027F000F5FFFFF7F2FFFFF7EFFF10BD0EB54FF447
:102800009670019041F26800ADF800000020ADF82C
:1028100008001020ADF802006946824811F081F9E5
:102820000021804811F0DCF901217E4811F042FEC0
:10283000012211467B4811F015FE4FF47A70019089
:102840002A20ADF800000020ADF80800ADF8020025
:102850006946754811F065F90021734811F0C0F917
:102860000121714811F026FE012211466E4811F037
:10287000F9FD00216B4811F0DDF900216A4811F0E3
:10288000D9F900214FF0804011F0D4F90EBD10B5F8
:102890000121022010F059FE0121042010F055FE04
:1028A00010BD10B5FFF7F3FFFFF7A8FF10BD1CB573
:1028B0001D208DF8040000208DF805008DF806001D
:1028C00001208DF8070001A80FF059FB1E208DF89C
:1028D000040002208DF805008DF8060001208DF817
:1028E000070001A80FF04BFB32208DF800000720F5
:1028F0008DF8010000208DF8020001208DF8030002
:1029000068460FF03CFB1CBD10B5044647480480E8
:102910000021454811F04EF90121434811F08AF990
:1029200000BF424800880028FBD100213E4811F03A
:1029300081F910BD38B504463C4804801E208DF84E
:10294000000000208DF801008DF8020001208DF8B4
:10295000030068460FF013FB0121334811F0AAFD74
:102960000021314811F026F901212F4811F062F9B8
:1029700000BF2E4800880028FBD100212A4811F012
:1029800059F91E208DF8000002208DF801008DF805
:10299000020001208DF8030068460FF0F0FA38BD00
:1029A0002248008820B121480088401E1F49088025
:1029B00070471F48008820B11D480088401E1C49F0
:1029C000088070471CB50121042010F0CFFD0020C5
:1029D0008DF804008DF807008020009069461548A6
:1029E00010F03EFB1CBD10B5044601210D4811F04E
:1029F00061FD21460B4811F0DDF80121094811F075
:102A000019F910BD10B50021064811F013F910BDD9
:102A10004FF0E020006920F003004FF0E021086152
:102A200070470000000400400008004076000020CD
:102A30003000002000080240014600200A6890B2E1
:102A400070470146002008687047014600200A6868
:102A500090B20A2800DD0020704700B5DF48FFF77C
:102A6000F4FFDF490870DD485C38FFF7EEFFDD4911
:102A70000870DA485A38FFF7E8FFDB490870D74892
:102A80005638FFF7E2FFD9490870D4485838FFF7A5
:102A9000DCFFD7490870D1480E38FFF7CDFFD54984
:102AA0000870CE480C38FFF7C7FFD3490870CB48F1
:102AB0005438FFF7C1FFD1490880C8485238FFF7A2
:102AC000BBFFCF490880C5481038FFF7B5FFCD4997
:102AD0000880C248001DFFF7AFFFCB490870BF4810
:102AE000801DFFF7A9FFC9490870BC480830FFF7EF
:102AF000A3FFC7490870B9485038FFF7A2FFC5497E
:102B0000086008460068401C28B9B1EE000AC248B7
:102B100080ED000A05E0BF4890ED000ABE4880ED58
:102B2000000AAE484038FFF78CFFBA4908600846F3
:102B30000068401C28B9B6EE000AB84880ED000ACB
:102B400005E0B44890ED000AB44880ED000AA348BF
:102B50003038FFF776FFAF49086008460068401C30
:102B600028B99FEDAF0AAF4880ED000A05E0A948FB
:102B700090ED000AAB4880ED000A98482038FFF736
:102B800060FFA449086008460068401C28B9B6EEFA
:102B9000000AA54880ED000A05E09E4890ED000A75
:102BA000A14880ED000A8D486038FFF745FF9F4936
:102BB00008808A485E38FFF73FFF9D4908808D48AE
:102BC000007840B29B4908708B48007840B29A491F
:102BD0000870964800889949088095480088984967
:102BE000088086480088974908808548008896496B
:102BF000088084480088954908808A4890ED000A3A
:102C0000934880ED000A884890ED000A914880EDD5
:102C1000000A00BD10B511F063FFF32012F079F93E
:102C20000221402011F0A8FF082801D0012010BD8A
:102C30007E4801886948603812F070F8082801D091
:102C40000120F4E77A48018864485E3812F066F89B
:102C5000082801D00120EAE7624801785F485C3823
:102C600012F05CF8082801D00120E0E75E48017806
:102C70005A485A3812F052F8082801D00120D6E7F5
:102C80005B4801785548583812F048F8082801D0B8
:102C90000120CCE7554801785048563812F03EF8EC
:102CA000082801D00120C2E7544801884B48543815
:102CB00012F034F8082801D00120B8E75048018804
:102CC0004648523812F02AF8082801D00120AEE711
:102CD000514890ED000A4F4880ED000A01683F48D6
:102CE000503811F0F2FF082801D001209FE74B482F
:102CF00090ED000A474880ED000A016837484038E7
:102D000011F0E3FF082801D0012090E7454890ED3D
:102D1000000A404880ED000A01683048303811F060
:102D2000D4FF082801D0012081E73F4890ED000A38
:102D3000384880ED000A01682848203811F0C5FFA6
:102D4000082801D0012072E72E4801882348103856
:102D500011F0E4FF082801D0012068E72548017838
:102D60001E480E3811F0DAFF082801D001205EE776
:102D70002148017819480C3811F0D0FF082801D0FB
:102D8000012054E716480178144811F0C7FF0828BD
:102D900001D001204BE71C4801781048001D11F0BC
:102DA000BDFF082801D0012041E7184801780B48F1
:102DB000801D11F0B3FF082801D0012037E7144827
:102DC00001780648083011F0A9FF082801D0012039
:102DD0002DE711F092FE002029E7000060000808AE
:102DE0008D0000208E0000208F0000209100002028
:102DF0009000002092000020930000209800002006
:102E00009A0000209C0000207C0000207D00002013
:102E10007E00002078000020A0000020A4000020F8
:102E20006666C640A8000020AC0000209400002088
:102E300096000020B0000020B1000020B200002069
:102E4000B4000020B6000020B8000020BA00002026
:102E5000C4000020C800002010B50246012341B183
:102E6000002004E003FB02F4A3B2441C20B2884219
:102E7000F8DB184610BD2DE9FF5F91461C46DDF8D2
:102E80003880B8F10A0F12D2DFE808F00F111105EF
:102E9000060D0A0B080700BF00BF00BF042507E0AE
:102EA00000BF062504E0032502E0012500E000BF85
:102EB00000BF04EB050A50461EF02EFD0646002218
:102EC0006119491E7254B8F10A0F6FD2DFE808F099
:102ED0006C6E6E051263394E2C1F6C216019801EBA
:102EE00031546D216019C01E315420216019001F1A
:102EF00031545CE033216019801E31546D2160191A
:102F0000C01E315420216019001F31544FE043216D
:102F10006019801E31546F216019C01E3154202168
:102F20006019001F315442E056216019801E31544F
:102F30006D216019C01E315420216019001F3154C9
:102F400035E06C216019801E31542F216019C01E9C
:102F5000315467216019001F31546D216019401FE1
:102F6000315420216019801F315420E068216019FC
:102F7000801E31542F216019C01E31546721601901
:102F8000001F31546D216019401F315420216019F8
:102F9000801F31540BE068216019801E31542021BC
:102FA0006019C01E315402E001E0FFE700BF00BF1E
:102FB000002713E0E01B81B20A20FFF74DFF99FBC9
:102FC000F0F100FB119BE01B401E81B20A20FFF7CD
:102FD00043FF9BFBF0F03030F0557F1CA742E9DB4C
:102FE0003246DDE900010BF0BCFE30461EF0C3FCAA
:102FF000BDE8FF9F2DE9F05F2DED028B82468B46E9
:10300000B0EE408AF0EE608A16461F46DDF830804A
:10301000B8F1000F04D0B8F1020F03D1042502E08B
:10302000012500E000BF00BFF019401C00EB0509BE
:1030300048461EF071FC0446B8F1000F09D0B8F103
:10304000020F0DD153EC182BFEA120461EF0BAFC46
:1030500007E053EC182BFEA120461EF0B3FC00E065
:1030600000BF00BF2246594650460BF07AFE20466C
:103070001EF081FCBDEC028BBDE8F09F00B52DED8C
:10308000028B83B0F448008821287DD2DFE800F06D
:103090007C11FDFEFBFA7CF9F8F7F6F5F4F3F2F19A
:1030A000F0EFEEEDECEBEAE9E8E7E6E5E4E3E2E198
:1030B000E00000214FF6FF700BF028FCE7480BF012
:1030C00042FCE74800780090E6480378E64802783A
:1030D000E6A101A81EF076FC01AA822114200BF0C3
:1030E00040FEE548007830B1012834D0022852D0A3
:1030F000032879D163E04FF6686100200BF006FCED
:10310000DE480BF020FCDE48006821F017F941ECA6
:10311000180B002001231A46B0EE480AF0EE680AA8
:10312000642100908220FFF765FFCC480BF00BFC78
:10313000D348006821F002F941EC180B002001236C
:103140001A46B0EE480AF0EE680AAA210090502014
:10315000FFF750FF49E04FF6686100200BF0D6FB07
:10316000C6480BF0F0FB002003230090C5480288FE
:1031700064218220FFF77FFEB8480BF0E4FB0820B3
:1031800003230090BF4800E0C5E202888721502059
:10319000FFF771FE29E04FF6686100200BF0B6FBE7
:1031A000B6480BF0D0FB00200090B74890F9000023
:1031B00082B2022364218220FFF75DFE15E045F212
:1031C000AA2100200BF0A2FBAC480BF0BCFB0020B6
:1031D0000090AE4890F9000082B202236421822060
:1031E000FFF749FE01E0FFE700BF00BF40F2FC41EE
:1031F00000200BF08BFBA1480BF0A5FBA448006856
:1032000021F09CF841EC180B002001231A46B0EE87
:10321000480AF0EE680A4FF4A57100908220FFF78B
:10322000E9FE8E480BF08FFB9948006821F086F884
:1032300041EC180B002001231A46B0EE480AF0EECC
:10324000680A4FF4C87100905020FFF7D3FE63E284
:103250002CE2F3E1F1E1B8E1B6E182E180E15AE18B
:1032600034E14BE2B4E0B2E051E24FE24DE24BE236
:1032700049E247E244E244E297E084E04AE25CE06B
:103280005AE046E23BE225E200E041E24FF66861A7
:1032900000200BF03BFB79480BF055FB032000901E
:1032A0007C48D0ED000A7C4890ED000AB8EE400A58
:1032B00020EE800ABCEEC00A10EE100A82B2032390
:1032C00055217820FFF7D7FD64480BF03CFB032025
:1032D00003464FF4C8729B2100904620FFF7CBFDB8
:1032E00040F2FC4100200BF011FB64480BF02BFB7B
:1032F000032000906748D0ED000A684890ED000A6E
:10330000B8EE400A20EE800ABCEEC00A10EE100AA9
:1033100082B2032340F23B117820FFF7ACFD4F4807
:103320000BF011FB03200346C82240F281110090EC
:103330004620FFF7A0FDEFE100BF45F2AA214FF6BE
:10334000FF700BF0E3FA4D480BF0FDFA0420022366
:1033500000905348028869216420FFF78CFD45F2F4
:10336000AA214FF6FF700BF0D1FA44480BF0EBFAAC
:103370000520022300904B48028840F23B11642054
:10338000FFF779FDC8E147F2C5514FF6FF700BF02A
:10339000BDFA3A480BF0D7FA002002230F22C321CE
:1033A00000909620FFF767FDB6E14EF2E3014FF67D
:1033B000FF700BF0ABFA31480BF0C5FA0020022386
:1033C0001422C32100909620FFF755FDA4E100BF11
:1033D0004FF6686100200BF099FA28480BF0B3FA19
:1033E0002748006820F0AAFF41EC180B00200123B9
:1033F0001A46B0EE480AF0EE680A642100900846CA
:10340000FFF7F8FD15480BF09EFA27A2A5216E20C4
:103410000BF0A7FC40F2FC4100200BF077FA1748B4
:103420000BF091FA1A48006820F088FF41EC180B65
:10343000002001231A46B0EE480AF0EE680A4FF465
:10344000A57135E025312E3166207048000000005E
:1034500025312E3166000000D4000020B401002088
:103460007E0000207D0000207C0000202532643A90
:103470002532643A2532640091000020AC0100201E
:10348000C8000020BA000020B0000020B1000020D9
:10349000C40000201C000020240000202000002088
:1034A000B2000020B40000206D672F6C0000000007
:1034B00000906420FFF79EFD9A480BF044FA9AA210
:1034C00040F28B116E200BF04CFC25E140F2FC41E8
:1034D00000200BF01BFA95480BF035FA9448006871
:1034E00020F02CFF41EC180B002001231A46B0EE0F
:1034F000480AF0EE680A4FF4A57100906420FFF7C7
:1035000079FD88480BF01FFA87A240F28B116E20DC
:103510000BF027FC00E14FF6686100200BF0F6F994
:1035200082480BF010FA8348006820F007FF41EC56
:10353000180B002001231A46B0EE480AF0EE680A84
:103540004FF4A57100906420FFF754FD75480BF00F
:10355000FAF979A240F28B116E200BF002FCDBE04D
:1035600000BF4FF6686100200BF0D0F96F480BF0F8
:10357000EAF9082003230090714802886421084674
:10358000FFF779FC40F2FC4100200BF0BFF96748DF
:103590000BF0D9F96B48006820F0D0FE41EC180B15
:1035A000002001231A46B0EE480AF0EE680A4FF4F4
:1035B000A57100906420FFF71DFD5BA240F28B1106
:1035C00064200BF0CEFBA7E000BF4FF6686100203F
:1035D0000BF09CF955480BF0B6F9002000905A48C2
:1035E00090F9000082B2022364210846FFF743FCF1
:1035F00040F2FC4100200BF089F94C480BF0A3F994
:103600005048006820F09AFE41EC180B002001237E
:103610001A46B0EE480AF0EE680A4FF4A571009021
:103620006420FFF7E7FC3F480BF08DF93EA240F223
:103630008B116E200BF095FB6EE000BF45F2AA21C6
:1036400000200BF063F939480BF07DF90020009061
:103650003E4890F9000082B2022364210846FFF739
:103660000AFC40F2FC4100200BF050F92F480BF00F
:103670006AF93448006820F061FE41EC180B002024
:1036800001231A46B0EE480AF0EE680A4FF4A5711D
:1036900000906420FFF7AEFC22480BF054F922A200
:1036A00040F28B116E200BF05CFB35E045F2AA2155
:1036B0004FF6FF700BF02AF91C480BF044F9092073
:1036C00002230090224802884FF4A5716420FFF77E
:1036D000D2FB21E045F2AA214FF6FF700BF016F95C
:1036E00012480BF030F90920022300901948028893
:1036F0004FF4A5716420FFF7BEFB0DE000BF00BFD3
:1037000000BF00BF00BF00BF00BF00BF00BF00BFC1
:1037100000BF00BF00E000BF00BF03B0BDEC028BE4
:1037200000BD0000B401002070480000AC01002082
:10373000BC000020C00000206D672F680000000062
:10374000BA000020C4000020B0000020B10000201A
:10375000B8000020B600002000B58DB00121084659
:103760000FF0C0FE012108020FF000FF4120019080
:1037700003208DF8080000208DF80B0001A92448D3
:103780000FF06EFC0020039004900590069003A8B3
:103790000EF09AFC0EF05EFC002007908DF82000E1
:1037A0008DF8210009900A900B9001208DF83000CF
:1037B00007A918480EF059FC012116480EF09BFC91
:1037C0000DB000BD10B50446042301222146114866
:1037D0000EF0D1FC0F480EF02AFD00BF02210D486B
:1037E0000EF046FE0028F9D00A480EF05CFD40F6C7
:1037F000E441484340F6FF7190FBF1F000EE100AFF
:10380000B8EEC00A044880ED000A90ED000A10BD31
:103810000000024000200140840000201CB501216E
:1038200008460FF05FFE3020009001208DF8040064
:1038300000208DF8060003208DF8050000208DF88B
:103840000700694606480FF00BFC1CBD18B10128A3
:1038500003D10A8302E04A8300E000BF00BF704743
:103860000000024010B52DED0C8BB0EE408A18EE32
:10387000100A20F063FD41EC1D0B9FED110B53EC82
:10388000102B20F091F841EC1B0B0F48006820F042
:1038900055FD41EC1C0B53EC1B2B20F025FB41ECA0
:1038A0001A0B9FED0A0B53EC102B20F031F941EC71
:1038B000190B20F047F800EE100ABDEC0C8B10BD80
:1038C00066666666661271408800002066666666F7
:1038D0006692724010B5012175480FF03FFC4FF41D
:1038E0001670FCF761FD012171480FF035FC642072
:1038F000FCF75AFD01216E480FF014FC28B94FF473
:10390000FA70FCF751FD012010BD4FF4FA70FCF77E
:103910004BFD0020F8E710B5012165480FF01EFCB3
:103920000220FCF741FD012161480FF015FC0A203F
:10393000FCF73AFD01215E480FF0F4FB20B93A2074
:10394000FCF732FD002010BD3A20FCF72DFD0120D0
:10395000F9E770B50025002406E0FFF7DCFFA04082
:103960002843C5B2601CC4B2082CF6DB284670BDE3
:103970002DE9F0410446012504EA0507002623E06D
:1039800077B101214A480FF0E9FB0320FCF70CFD59
:10399000012147480FF0E0FB5A20FCF705FD0DE040
:1039A000012143480FF0DAFB5A20FCF7FDFC01210E
:1039B0003F480FF0D1FB0320FCF7F6FC6806050E2C
:1039C00004EA0507701CC6B2082ED9DBBDE8F081F9
:1039D0002DE9F0473320FFF7CBFFFFF7BAFF04468E
:1039E000FFF7B7FF00260546FFF7B3FF00020543C8
:1039F00046EAE076FFF7ADFF0004054346EAE076CD
:103A0000FFF7A7FF81464FEA0960310241EA156CD2
:103A100040EA05214CEAE07841EA0407384641468D
:103A2000BDE8F08710B504462046FFF7A1FF442CFF
:103A300006D100BF01211E480FF074FB0028F9D009
:103A400010BD10B504462046FFF792FF10BD2DE9CA
:103A5000F0412DED028B01259FED160AB0EE408A54
:103A6000FFF777FF0646FFF774FF074646EA072889
:103A70006C1F14E008EA050058B100EE104AF8EE99
:103A8000C00AB0EE000A1FF0FDFB30EE080AB0EEEF
:103A9000408A4FF6FF7000EA4505601C44B2072CCF
:103AA000E8DBB0EE480ABDEC028BBDE8F081000017
:103AB000000402400000000010B5F748006809F05B
:103AC0003EFB00F044FF10BD10B5F348006809F05C
:103AD00036FB04F053FE10BD10B5EF48006809F046
:103AE0002EFB00F0E6FD10BD10B5EB48006809F0B4
:103AF00026FB01F0D2F910BD10B5E748006809F0C7
:103B00001EFB02F0B7FF10BD10B5E348006809F0D6
:103B100016FBE248007808B101F038F801F07BF8B4
:103B200010BD10B5DC48006809F009FB04F087FD02
:103B300010BD10B5FFF76EF810BD10B50020D749C5
:103B40000870D7490860D7490860D348006809F071
:103B5000F6FA00F0FCFE10BD10B50020CF49087049
:103B6000CF490860CF490860CB48006809F0E7FA00
:103B700000F09FFD10BD10B5C848007830B1012895
:103B800008D002280AD0032814D10FE00220C3492C
:103B9000087010E00320C14908700CE0BE480068BE
:103BA00009F0CDFA0020BD49087004E00120BB49AE
:103BB000087000E000BF00BF01F02DF810BD10B587
:103BC000B648007830B1012808D002280ED003286A
:103BD00014D10FE00120B149087010E0AE48006830
:103BE00009F0ADFA0020AD49087008E00320AB49A8
:103BF000087004E00220A949087000E000BF00BF7F
:103C000001F009F810BD10B5A348006809F097FA53
:103C100000F09DFE10BD10B59F48006809F08FFAB6
:103C200000F047FD10BD10B59B48006809F087FA09
:103C300001F078FA10BD10B59748006809F07FFAD6
:103C400001F068FD10BD10B59348006809F077FADF
:103C50009548007830B1012807D0022808D0032801
:103C60000CD108E002F098FC09E003F0A8FA06E0A5
:103C700003F049FD03E003F0F6FF00E000BF00BFE2
:103C800010BD10B58448006809F059FA01F005F933
:103C900010BD10B58048006809F051FA00F009FD28
:103CA00010BD82480088401C804908800846008872
:103CB000322801DD3220088070477C480088401E91
:103CC0007A4908800846008808B9002008807047B3
:103CD0007648008876490880704710B56E480068BD
:103CE00009F02DFA01F03EFB10BD10B56A480068DE
:103CF00009F025FA01F0D1F810BD10B5664800684A
:103D000009F01DFA00F0D5FC10BD6A480088401C7F
:103D10006849088008460088182801DD18200880B6
:103D2000704764480088401E624908800846008841
:103D3000062800D1088070475E4800885E490880E8
:103D4000704710B55448006809F0F9F901F0EAF934
:103D500010BD10B55048006809F0F1F901F09DF868
:103D600010BD10B54C48006809F0E9F900F0A1FC5D
:103D700010BD002051490870704701204F4908705C
:103D8000704710B502204D4908704348006809F09B
:103D9000D6F901F084FE10BD002049490870704733
:103DA0000120474908707047022045490870704754
:103DB00010B50020434908703748006809F0BFF982
:103DC00001F0DEFE10BD01203E4908707047022060
:103DD0003C490870704710B52F48006809F0AFF9EA
:103DE00001F098FC10BD10B52B48006809F0A7F948
:103DF00001F090FC10BD10B52748006809F09FF94C
:103E000001F088FC10BD10B52348006809F097F94F
:103E100002F040FF10BD10B51F48006809F08FF98F
:103E200002F038FF10BD10B51B48006809F087F993
:103E300002F030FF10BD10B51748006809F07FF997
:103E400003F098F810BD10B51348006809F077F931
:103E500003F090F810BD10B50F48006809F06FF935
:103E600001F058FC10BD10B50B48006809F067F967
:103E700001F050FC10BD10B50748006809F05FF96B
:103E800001F00BF810BD10B50348006809F057F9B0
:103E900000F00FFC10BD0000D00000208C000020BE
:103EA000200000202400002091000020B20000200B
:103EB00094000020B4000020960000208E00002016
:103EC0008F00002090000020FD4890ED000ADFEDFB
:103ED000FD0A30EE200A80ED000A90ED000ADFEDC9
:103EE000FA0AB4EEE00AF1EE10FA03DD9FEDF60AED
:103EF00080ED000A7047F24890ED000ADFEDF10A0C
:103F000030EE600A80ED000A90ED000AF1EE0A0A38
:103F1000B4EEE00AF1EE10FA03D2B1EE0A0A80ED37
:103F2000000A7047E64890ED000AE84880ED000A74
:103F3000704710B5E648006809F001F902F049FC45
:103F400010BD10B5E248006809F0F9F800F0A5FFCF
:103F500010BD10B5DE48006809F0F1F800F0A9FBCB
:103F600010BDDC4890ED000ADFEDD60A30EE200AE5
:103F700080ED000A90ED000ADFEDD70AB4EEE00A0A
:103F8000F1EE10FA03DD9FEDD40A80ED000A7047D0
:103F9000D04890ED000ADFEDCB0A30EE600A80EDEC
:103FA000000A90ED000AF6EE000AB4EEE00AF1EE27
:103FB00010FA03D2B6EE000A80ED000A7047C54839
:103FC00090ED000AC54880ED000A704710B5C04862
:103FD000006809F0B4F802F0DFFA10BD10B5BC4873
:103FE000006809F0ACF800F0B2FC10BD10B5B8489C
:103FF000006809F0A4F800F05CFB10BD10B5B448EF
:10400000006809F09CF802F0B5FFB148006809F0BB
:1040100096F802F009F810BD10B5AD48006809F037
:104020008EF802F037FEAA48006809F088F801F01F
:1040300099FF10BD10B5A648006809F080F804F09B
:1040400073F810BD10B5A248006809F078F804F0C4
:1040500081F910BD10B59E48006809F070F8012084
:104060009F49087002F006FD10BD10B59848006821
:1040700009F065F801209A49087000F01AFB10BD9C
:1040800010B5002096490870964890ED000ADFEDC3
:104090008D0A30EE200A80ED000A90ED000ADFED77
:1040A000920AB4EEE00AF1EE10FA0ADD88480068E0
:1040B00009F045F801F0CAFD9FED8B0A894880EDB3
:1040C000000A10BD10B5002085490870854890EDA4
:1040D000000ADFED7C0A30EE600A80ED000A90ED08
:1040E000000ADFED820AB4EEE00AF1EE10FA0AD21D
:1040F0007748006809F023F801F0A8FD9FED7B0ADE
:10410000784880ED000A10BD764890ED000A7848A6
:1041100080ED000A774890ED000A774880ED000AAC
:10412000704710B56A48006809F009F802F0A2FC6F
:1041300010BD10B56648006809F001F800F0B9FA42
:1041400010BD6E4890ED000ADFED5E0A30EE200AE9
:1041500080ED000A90ED000ADFED5F0AB4EEE00AA0
:10416000F1EE10FA03DD9FED5C0A80ED000A704766
:1041700010B5624890ED000ADFED520A30EE600A99
:1041800080ED000A90ED000A5448D0ED000AB4EE2C
:10419000600AF1EE10FA06D14D48006808F0CFFF32
:1041A00001F0A9FF0DE0554890ED000AF6EE000A77
:1041B000B4EEE00AF1EE10FA03D2B6EE000A80ED9A
:1041C000000A10BD4D4890ED000A4D4880ED000AF0
:1041D000704710B53E48006808F0B1FF00F05DFE82
:1041E00010BD10B53A48006808F0A9FF00F061FA68
:1041F00010BD444800880A304249088008460088BB
:1042000040F2DE31884202DD08463E4908807047B0
:104210003C4800880A383B490880084600880A283C
:1042200001DA0A200880704736480088364908803D
:10423000704710B52648006808F081FF03F040F988
:1042400010BD10B52248006808F079FF00F025FE87
:1042500010BD10B51E48006808F071FF00F029FA83
:1042600010BD174890ED000ADFED160A30EE200A67
:1042700080ED000A90ED000ADFED1B0AB4EEE00AC3
:10428000F1EE10FA03DD9FED180A80ED000A704789
:104290000B4890ED000ADFED0B0A30EE600A80ED6E
:1042A000000A90ED000ADFED110AB4EEE00AF1EE2B
:1042B00010FA03D29FED0D0A80ED000A704700004E
:1042C000C4000020CDCCCC3D3333F340A800002007
:1042D000D0000020C80000209A99993FAC0000202F
:1042E000CC000020BC0000209A99F9406666C640C8
:1042F000A00000200C00002028000020C0000020AA
:10430000A4000020BA0000209C000020D14890EDBD
:10431000000AD14880ED000A704710B5CF48006808
:1043200008F00DFF02F04BFF10BD10B5CB48006840
:1043300008F005FF00F0B1FD10BD10B5C7480068DA
:1043400008F0FDFE00F0B5F910BDC5480078401C2E
:1043500040B2C3490870084690F90000142801DDF6
:10436000142008707047BE480078401E40B2BC4917
:104370000870084690F90000002801DA0020087053
:104380007047B7480078B7490870704710B5B34810
:10439000006808F0D4FE03F00BFB10BD10B5AF4869
:1043A000006808F0CCFE00F078FD10BD10B5AB48F9
:1043B000006808F0C4FE00F07CF910BDA54890ED3F
:1043C000000A5FED400A30EE200A80ED000A90ED11
:1043D000000A5FED3B0AB4EEE00AF1EE10FA03DDED
:1043E0001FED3F0A80ED000A70479A4890ED000AE1
:1043F0005FED4C0A30EE600A80ED000A90ED000A95
:104400005FED460AB4EEE00AF1EE10FA03D21FEDBA
:10441000490A80ED000A70478E4890ED000A8E48E8
:1044200080ED000A704710B58C48006808F087FEE0
:1044300003F069F910BD10B58848006808F07FFEE8
:1044400000F02BFD10BD10B58448006808F077FE21
:1044500000F02FF910BD84480078401C40B282491A
:104460000870084690F900001E2801DD1E20087023
:1044700070477D480078401E40B27B49087008466E
:1044800090F90000002801DA002008707047764893
:10449000007876490870704710B57048006808F0D9
:1044A0004EFE03F007FD10BD10B56C48006808F023
:1044B00046FE00F0F2FC10BD10B56848006808F038
:1044C0003EFE00F0F6F810BD624890ED000A5FED88
:1044D000830A30EE200A80ED000A90ED000A5FEDBD
:1044E0007E0AB4EEE00AF1EE10FA03DD1FED820A57
:1044F00080ED000A7047574890ED000A5FED8F0A83
:1045000030EE600A80ED000A90ED000A5FED890A46
:10451000B4EEE00AF1EE10FA03D21FED8C0A80ED42
:10452000000A70474B4890ED000A4B4880ED000AA6
:10453000704710B54948006808F001FE03F093FB8E
:1045400010BD10B54548006808F0F9FD02F092FA78
:1045500010BD10B54148006808F0F1FD00F0A9F861
:1045600010BD43480088401C414908800846008827
:10457000282801DA2820088070473D480088401E1E
:104580003B4908800846008808B900200880704729
:104590003748008837490880704710B52F480068B1
:1045A00008F0CDFD02F066FA10BD10B52B4800688A
:1045B00008F0C5FD00F07DF810BD2F480088401CB4
:1045C0002D49088008460088282801DD2820088019
:1045D000704729480088401E2749088008460088FF
:1045E00008B90020088070472348008823490880C4
:1045F000704710B51948006808F0A1FD00F0A7F950
:1046000010BD10B51548006808F099FD00F051F88C
:1046100010BD00201A490870704701201849087021
:10462000704702201649087070470320144908702B
:10463000704710B50948006808F081FD00F039F8AE
:1046400010BD01200F490870704700200D49087007
:1046500070470000C4000020A8000020D000002007
:10466000B000002092000020B10000209300002044
:10467000B80000209A000020B6000020980000201A
:10468000910000208D00002038B5FD484FF6FF73E3
:104690002022D2210090012009F057FB0446F9485E
:1046A00008F085F9F74B2246F021FA2007F033FE97
:1046B00038BD08B5FFF7E8FF00200AF0C8F94FF64B
:1046C000FF702023D222F0210090FA200AF038FE59
:1046D000ED480AF038F9EDA02023D222F021009015
:1046E000FA200BF085F805221421EB480AF085FD2D
:1046F00000214FF6FF700AF009F9E3480AF023F9A8
:10470000E6A24FF4967114200AF02BFBE7A21421C5
:10471000FA200AF026FB40F2FC40A023D2223C21E2
:104720000090FA200AF00CFEE348007830B101282E
:1047300020D002283AD0032872D154E04FF66860A6
:10474000A023D2223C21009014200AF0F9FD4FF65C
:10475000686100200AF0DAF8CB480AF0F4F8D7A232
:104760001E2150200AF0FDFAD7A2AF21A0200AF0A6
:10477000F8FA56E04FF66860A023D2223C21009060
:1047800014200AF0DDFD4FF6686100200AF0BEF843
:10479000BD480AF0D8F8CEA21E2150200AF0E1FA56
:1047A000CDA2AF21A0200AF0DCFA3AE04FF6686013
:1047B000A023D2223C21009014200AF0C1FD4FF624
:1047C000686100200AF0A2F8AF480AF0BCF8C3A262
:1047D0001E2150200AF0C5FA0023C2A282215020D7
:1047E0000AF0E1FA1DE045F2AA20A023D2223C21E2
:1047F000009014200AF0A4FD45F2AA2100200AF03E
:1048000085F8A1480AF09FF8B4A21E2150200AF0B2
:10481000A8FAB7A2822150200AF0A3FA01E0FFE72C
:1048200000BF00BF40F2FC4100200AF06FF896483C
:104830000AF089F8B1A24FF4827150200AF091FA7F
:10484000B0A24FF4C871A0200AF08BFA8D48012164
:10485000C26990470120AC4908808A48AB4908608A
:1048600008BD10B5FFF725FF10BD2DE9F84FA8488A
:1048700003231E2282210090012009F066FA0446DB
:10488000A4484FF6FF731E22A0210090022009F0D9
:104890005CFA0546A04800235022D2210090032054
:1048A00009F053FA06469D4800235022D221009079
:1048B000042009F04AFA0746994800235022D221E1
:1048C0000090052009F041FA8046964800235022C6
:1048D000D2210090062009F038FA8146924803233D
:1048E0001E2282210090072009F02FFA82468F486D
:1048F00008F05DF88D4B2246F0214FF4A57007F0CB
:104900000AFD8A4B2A46F021142007F004FD874B4C
:1049100032463C21142007F0FEFC844B3A463C21F1
:10492000FA2007F0F8FC814B42469621142007F04C
:10493000F2FC7E4B4A469621FA2007F0ECFC7B4BBA
:104940005246F021BE2007F0E6FCBDE8F88F08B51E
:10495000FFF78BFF00200AF07AF8052214214E4859
:104960000AF04BFC00214FF6FF7009F0CFFF4648DC
:1049700009F0E9FF45A24FF4B97114200AF0F1F9EA
:10498000D22350223C2114200AF034FBD22350229F
:104990003C21FA200AF02EFBD2235022962114202B
:1049A0000AF028FBD22350229621FA200AF022FB9B
:1049B0004FF6FF701E23A022F021009014200AF071
:1049C000BFFC82231E22F021BE200AF013FB8223AB
:1049D0001E22F0214FF4A5700AF00CFB00214FF6C7
:1049E000FF7009F093FF284809F0ADFF50A0502355
:1049F000D2223C21009014200AF0FAFE4FA050234E
:104A0000D2223C210090FA200AF0F2FE4EA0502360
:104A1000D2229621009014200AF0EAFE4DA05023E5
:104A2000D22296210090FA200AF0E2FE4DA01E2329
:104A30008222F0210090BE200AF0DAFE4CA01E2354
:104A40008222F02100904FF4A5700AF0D1FE4FF6BB
:104A5000FF71002009F05AFF48A01E23A022F02178
:104A6000009014200AF0C4FE30480121C26990472A
:104A70000220254908802D482449086008BD00000F
:104A8000B93A0008A4140020B4010020534554543E
:104A9000494E475300000000542C04084348415538
:104AA000205048554F43205655000000424143488E
:104AB000204B484F410000009100002043484C4FDC
:104AC00052494E45000000006D672F6C0000000049
:104AD0005245444F580000006D560000444F534566
:104AE000000000006D6C2F6D33686F757200000060
:104AF0006D6C2F6D336461790000000050482D2DDE
:104B00000000000070480000D4000020D000002009
:104B1000C93A0008D93A0008E93A0008F93A000809
:104B2000093B0008233B0008333B000848150020E0
:104B3000504152414D4554455253000043414C4968
:104B400042524154494F4E00444F53494E4720541E
:104B50004553540054595045204F462050524F421F
:104B60004500000053415645204441544100000097
:104B70004C414E4755414745530000004241434B8D
:104B800020544F205354415254000000F8B5FE48C1
:104B90004FF6FF731E22D2210090012009F0D5F8B4
:104BA0000446FA484FF6FF731E22D22100900220DD
:104BB00009F0CBF80546F64840F2FC433C22D221EE
:104BC0000090032009F0C1F80646F2484FF66863EA
:104BD0003C22D2210090042009F0B7F80746EE48A5
:104BE00007F0E5FEEC4B2246F021FA2007F093FB9C
:104BF000E94B2A46F021142007F08DFBE64B3246A4
:104C0000AA21142007F087FBE34B3A46AA21FA2099
:104C100007F081FBF8BD08B5E048007808B9FFF758
:104C2000B5FF002009F013FF05221421DC480AF02B
:104C3000E4FA00214FF6FF7009F068FED94809F048
:104C400082FEAFF2FC024FF4A57114200AF089F83D
:104C50004FF668606423D2223C21009014200AF0B1
:104C60006FFB40F2FC406423D2223C210090FA20EA
:104C70000AF066FB4FF66861002009F047FEC9485C
:104C800009F061FEC8A21E2146200AF06AF840F22F
:104C9000FC41002009F03AFEC24809F054FEAFF290
:104CA0009C124FF4827146200AF05BF84FF6FF70B9
:104CB0001E23D222F021009014200AF041FB4FF66F
:104CC000FF701E23D222F0210090FA200AF038FB58
:104CD0004FF6686009F02BFED2233C22AA21142053
:104CE0000AF088F940F2FC4009F021FED2233C2270
:104CF000AA21FA200AF07EF9AA4809F024FE002130
:104D00004FF6FF7009F002FEA448007830B1012888
:104D100017D0022838D0032848D124E0AFF29C10E5
:104D20003C23D222AA21009014200AF061FDAFF2A8
:104D3000AC103C23D222AA210090FA200AF058FDA0
:104D400035E0AFF2C0103C23D222AA2100901420FB
:104D50000AF04EFD96A03C23D222AA210090FA2010
:104D60000AF046FD23E092A03C23D222AA21009023
:104D700014200AF03DFD8EA03C23D222AA210090EF
:104D8000FA200AF035FD12E089A03C23D222AA21A4
:104D9000009014200AF02CFDAFF218203C23D22200
:104DA000AA210090FA200AF023FD00E000BF00BF16
:104DB0004FF6FF71002009F0A9FD7FA01E23D2222B
:104DC000F0210090FA200AF013FDAFF250201E23CC
:104DD000D222F021009014200AF00AFD6E48012131
:104DE000C26990470320764908806B48754908607E
:104DF00008BD2DE9F84374484FF6FF731E22D221F7
:104E00000090012008F0A1FF044670484FF6FF73A0
:104E10001E22D2210090022008F097FF05466C4820
:104E200000235022D2210090032008F08EFF064676
:104E3000684800235022D2210090042008F085FF0A
:104E40000746654801235022D2210090052008F032
:104E50007CFF8046614807F0AAFD604B2246F021A6
:104E6000FA2007F058FA5D4B2A46F021142007F08B
:104E700052FA5A4B32463C21142007F04CFA574B59
:104E80003A463C21FA2007F046FA544B4246962116
:104E9000FA2007F040FABDE8F88308B5FFF7A9FF4C
:104EA000002009F0D4FD052214213D480AF0A5F99F
:104EB00000214FF6FF7009F029FD3A4809F043FD43
:104EC000AFF294324FF4AA71142009F04AFFD223B2
:104ED00050223C2114200AF08DF8D22350223C218C
:104EE000FA200AF087F84FF668605023D222962104
:104EF000009014200AF024FA40F2FC405023D22201
:104F000096210090FA200AF01BFA00214FF6FF705C
:104F100009F0FCFC4FF66861002009F0F7FC30A0B6
:104F20005023D2229621009014200AF061FC40F216
:104F3000FC41002009F0EAFCAFF238405023D222B5
:104F400096210090FA200AF053FC4FF6FF701E23C2
:104F5000D222F021009014200AF0F2F94FF6FF70EF
:104F60001E23D222F0210090FA200AF0E9F90D4820
:104F700009F0E9FC00214FF6FF7009F0C7FC1CA006
:104F80005023D2223C2137E03B3B0008593B00082C
:104F9000773B0008BF3B0008EC1500208C00002088
:104FA000542C0408B4010020444953494E462E00B5
:104FB00053544F50000000004241434B000000009A
:104FC000D4000020D0000020073C0008173C000857
:104FD000273C0008373C0008473C0008901600209A
:104FE000444953494E46454354494F4E0000000042
:104FF000504F4F4C00000000009014200AF0F8FBC6
:10500000FEA05023D2223C210090FA200AF0F0FBAF
:105010004FF6FF71002009F079FCAFF264001E2307
:10502000D222F0210090FA200AF0E2FBAFF2B44065
:105030001E23D222F021009014200AF0D9FB4FF653
:10504000FF71002009F062FCEE480121C26990471F
:105050000720ED490880EB48EC49086008BD2DE9C0
:10506000F843EB484FF6FF731E22D2210090012037
:1050700008F06BFE0446E7484FF6FF731E22D2216C
:105080000090022008F061FE0546E34803233C221D
:1050900064210090184608F058FE0646DF480323B6
:1050A0003C2264210090042008F04FFE0746DC48B3
:1050B00003233C22D2210090052008F046FE8046C2
:1050C000D84801236422D2210090062008F03DFE3A
:1050D0008146D54807F06BFCD34B2246F021FA20DD
:1050E00007F019F9D04B2A46F021142007F013F9E4
:1050F000CD4B3246AA21142007F00DF9CA4B3A468F
:10510000AA21822007F007F9C74B4246AA21FA20BC
:1051100007F001F9C44B4A463C21FA2007F0FBF89E
:10512000BDE8F88308B5FFF79AFF002009F08FFC6F
:1051300005221421BD480AF060F800214FF6FF70E7
:1051400009F0E4FBBA4809F0FEFBBAA24FF48C71F7
:10515000142009F006FE45F2AA206423D2223C2145
:10516000009014200AF0ECF845F2AA206423D22221
:105170003C210090FA200AF0E3F845F2AA2009F059
:10518000DCFBAB4809F0DFFBAEA21E21462009F094
:10519000E8FD002014233C228C2100905F200AF0BF
:1051A000CFF845F2AA2009F0C8FBA14809F0CBFBD3
:1051B000A7A2FF21462009F0D4FD4FF6FF701E2361
:1051C000D222F021009014200AF0BAF84FF6FF70B6
:1051D0001E23D222F0210090FA200AF0B1F84FF6F7
:1051E000FF7009F0A4FB64233C22AA21142009F0DB
:1051F00001FF64233C22AA21822009F0FBFED22376
:105200003C22AA21FA2009F0F5FE964809F09BFB02
:1052100000214FF6FF7009F079FB93A03C23642234
:10522000AA21009014200AF0E3FA90A03C23642203
:10523000AA21009082200AF0DBFA7D4809F083FB66
:105240008BA03C23D222AA210090FA200AF0D0FAA7
:105250004FF6FF71002009F059FBAFF2A4201E2386
:10526000D222F0210090FA200AF0C2FAAFF2F460E4
:105270001E23D222F021009014200AF0B9FA4FF632
:10528000FF71002009F042FB67480121C269904785
:1052900008205D49088064485C49086008BD2DE924
:1052A000F84374484FF6FF731E22D221009001206C
:1052B00008F04BFD044670484FF6FF731E22D221C2
:1052C0000090022008F041FD05466C4803233C2273
:1052D00064210090184608F038FD0646684803230C
:1052E0003C2264210090042008F02FFD0746654809
:1052F00003233C22D2210090052008F026FD8046A1
:10530000614801236422D2210090062008F01DFD8F
:1053100081465E4807F04BFB5C4B2246F021FA20A9
:1053200006F0F9FF594B2A46F021142006F0F3FF4E
:10533000564B3246AA21142006F0EDFF534B3A4655
:10534000AA21822006F0E7FF504B4246AA21FA200C
:1053500006F0E1FF4D4B4A463C21142006F0DBFFEE
:10536000BDE8F88308B5FFF79AFF002009F06FFB4E
:10537000052214212D4809F040FF00214FF6FF704F
:1053800009F0C4FA2A4809F0DEFA2AA24FF48C7117
:10539000142009F0E6FC45F2AA206423D2223C2125
:1053A0000090142009F0CCFF45F2AA206423D222F9
:1053B0003C210090FA2009F0C3FF002014233C2276
:1053C0008C21009040F2451009F0BAFF45F2AA2165
:1053D0004FF6FF7009F09AFA154809F0B4FA19A2CD
:1053E0001E21462009F0BDFC45F2AA214FF6FF70B0
:1053F00009F08CFA0E4809F0A6FA49E057415445E5
:105400005200000090160020D4000020D0000020A0
:10541000833C0008933C0008A33C0008BB3C000808
:10542000D13C0008DB3C000834170020542C040851
:10543000B4010020504F4F4C20504152414D455433
:1054400045525300504F4F4C20564F4C554D450040
:1054500046494C54524154494F4E20504552494FB1
:1054600044000000AC0100202B0000002D000000D3
:105470004F4B0000EB3C0008FB3C00080B3D0008D4
:10548000233D0008393D0008433D0008D81700209F
:10549000AFF24402FF21462009F063FC4FF6FF7093
:1054A0001E23D222F0210090142009F049FF4FF66C
:1054B000FF701E23D222F0210090FA2009F040FF55
:1054C0004FF6FF7009F033FA64233C22AA2114201E
:1054D00009F090FD64233C22AA21822009F08AFD74
:1054E000D2233C22AA21FA2009F084FDFE4809F0CB
:1054F0002AFA00214FF6FF7009F008FAAFF298007F
:105500003C236422AA21009014200AF071F9AFF222
:10551000A4003C236422AA21009082200AF068F9AA
:10552000F24809F010FAAFF2B8003C23D222AA21C7
:105530000090FA200AF05CF94FF6FF71002009F0A4
:10554000E5F9AFF28C501E23D222F0210090FA2010
:105550000AF04EF9AFF6DC101E23D222F0210090A3
:1055600014200AF045F94FF6FF71002009F0CEF93A
:10557000DF480121C26990470920DE490880DC48E4
:10558000DD49086008BD2DE9F04F87B0012004F027
:1055900041F90446022004F03DF90546032004F0D9
:1055A00039F90646D5484FF6FF731E22D2210090E6
:1055B000042008F0CAFB0746D1484FF6FF731E22AD
:1055C000D2210090052008F0C0FB8046CD4AAFF202
:1055D0001C612046E36A98478146CB4AAFF22C61B2
:1055E0002046E36A98478246C84AAFF238612046AF
:1055F000E36A98478346C64AAFF248612846EB6A99
:1056000098470690C34AAFF254612846EB6A984720
:105610000590C14AAFF264612846EB6A984704904E
:10562000BE4AAFF270613046F36A98470390BC4AB5
:10563000AFF280613046F36A98470290B94AAFF200
:105640008C613046F36A98470190B74807F0AFF98C
:10565000B54B3A46F021FA2006F05DFEB24B4246C9
:10566000F021142006F057FEAF4B4A4655214FF467
:10567000877006F050FEAC4B52465521880006F06C
:105680004AFEA94B5A4655214FF4CD7006F043FE11
:10569000A54B8C214FF48770069A06F03CFEA24B76
:1056A0008C214FF4AA70059A06F035FE9E4B8C2192
:1056B0004FF4CD70049A06F02EFE9B4BCD214FF493
:1056C0008770039A06F027FE974BCD214FF4AA70FE
:1056D000029A06F020FE944BCD214800019A06F074
:1056E0001AFE0121201D914A127850F822004068CC
:1056F0000176281D8E4A127850F822004068017603
:10570000301D8C4A127850F822004068017607B0AC
:10571000BDE8F08F08B5FFF736FF002009F097F9D4
:1057200005221421844809F068FD00214FF6FF701E
:1057300009F0ECF86D4809F006F980A24FF4877182
:10574000142009F00EFB824809F0FDF8AFF26072F8
:105750001E21412009F005FB7EA21E21782009F0C0
:1057600000FBAFF268321E21872009F0FAFA7BA213
:105770001E21962009F0F5FAAFF280321E21B920E1
:1057800009F0EFFA78A21E21C82009F0EAFA794858
:1057900009F0D9F878A2FF21372009F0E2FA78A2BF
:1057A0004FF4A071372009F0DCFA77A2FF217820AE
:1057B00009F0D7FA76A24FF4A071782009F0D1FA57
:1057C00075A240F28B11782009F0CBFA74A240F256
:1057D0000911B92009F0C5FA73A240F24F11B9209E
:1057E00009F0BFFA72A240F28111B92009F0B9FAAA
:1057F0004FF4784009F09BF870A24FF4C371372042
:1058000009F0AFFA6FA240F28111462009F0A9FA1F
:105810004FF6FF701E23D222F0210090142009F0D1
:105820008FFD4FF6FF701E23D222F0210090FA2048
:1058300009F086FD4FF6FF71002009F067F8AFF61A
:1058400088001E23D222F0210090FA2009F0D0FF18
:10585000AFF6D8401E23D222F0210090142009F088
:10586000C7FF4FF6FF71002009F050F82E480121C4
:10587000C26990470A201F4908802B481E490860CA
:1058800008BD38B5524847F2C5531E223C2100904E
:10589000012008F05AFA04464E4807F088F84D4BAC
:1058A0002246AA214FF4967006F035FD38BD08B5A2
:1058B000FFF7E7FF47F2C550AC234FF48C7232215B
:1058C0000090642009F03CFD47F2C5514FF6FF708F
:1058D00009F01CF81E4809F036F83FA278213C2058
:1058E00009F03FFA40A285E0AC010020B40100209D
:1058F000D8170020D4000020D0000020533D00081D
:10590000633D0008733D00087B3D0008833D0008AF
:10591000993D0008A13D0008A93D0008B13D0008DF
:10592000C73D0008CF3D00087C1800208E000020F5
:105930008F00002090000020542C0408574154454B
:105940005220504152414D455445525300000000F1
:10595000D4010020415645524147450054454D5021
:105960004552415455524500484152444E455353C7
:1059700000000000C4010020696E646F6F720000B7
:105980006F7574646F6F72003C2032306F4300009B
:1059900032302D33306F43003E2033306F430000F0
:1059A000736F66740000000068617264000000009C
:1059B000766572792068617264000000657874729F
:1059C000656D6500636F6E646974696F6E000000D9
:1059D000D73D0008201900204D6178696D616C2069
:1059E00073616665747900006469736665637469E0
:1059F0006F6E00007821502009F0B3F9F9A27821E8
:105A0000642009F0AEF9F94808F09DFFF8A2E621FC
:105A1000962009F0A6F9F8A2E621A02009F0A1F944
:105A20004FF6FF7008F083FF3C231E22AA214FF49B
:105A3000967009F0DFFA47F2C5514FF6FF7008F093
:105A400065FFEF4808F07FFFAFF2DC501E233C22D9
:105A5000AA2100904FF4967009F0CAFEE94801218E
:105A6000C2699047E748E84908600B20E749088089
:105A700008BD38B5E64847F2C5531E223C210090C8
:105A8000012008F062F90446E24806F090FFE14B7D
:105A90002246AA214FF4967006F03DFC38BD08B5A9
:105AA000FFF7E7FF4EF2E300AC234FF48C72322194
:105AB0000090642009F044FC4EF2E3014FF6FF70C1
:105AC00008F024FFCE4808F03EFFD3A278213C2006
:105AD00009F047F9D5A27821502009F042F9C1A276
