:020000040800F2
:10000000380201204DBC0108AD080008AF08000807
:10001000B3080008B7080008BB080008000000008B
:100020000000000000000000000000009D02000829
:10003000BF08000800000000F10200085DBA0108D6
:1000400067BC010867BC010867BC010867BC010800
:1000500067BC010867BC010867BC010867BC0108F0
:1000600067BC010867BC010867BC010867BC0108E0
:1000700067BC010867BC010867BC010867BC0108D0
:1000800067BC010867BC010867BC010867BC0108C0
:1000900067BC010867BC010867BC010867BC0108B0
:1000A00067BC010867BC010867BC010867BC0108A0
:1000B00003090008050900080709000867BC0108D2
:1000C00067BC010867BC010867BC010867BC010880
:1000D00067BC010867BC010867BC010867BC010870
:1000E00067BC010867BC010867BC010867BC010860
:1000F00067BC010867BC010867BC010867BC010850
:1001000067BC010867BC010867BC010867BC01083F
:1001100067BC010867BC010867BC010867BC01082F
:1001200067BC010867BC010867BC010867BC01081F
:1001300067BC0108C108000867BC010867BC01086A
:1001400067BC010867BC010867BC010867BC0108FF
:1001500067BC010867BC010867BC010867BC0108EF
:1001600067BC010867BC010867BC010867BC0108DF
:1001700067BC010867BC010867BC010867BC0108CF
:1001800067BC010867BC010800F002F800F076F8CF
:100190000AA090E8000C82448344AAF10107DA45E2
:1001A00001D100F06BF8AFF2090EBAE80F0013F0BE
:1001B000010F18BFFB1A43F001031847883E0300E4
:1001C000A83E03000A444FF0000C10F8013B13F066
:1001D000070408BF10F8014B1D1108BF10F8015BA0
:1001E000641E05D010F8016B641E01F8016BF9D193
:1001F00013F0080F1EBF10F8014BAD1C0C1B09D1EA
:100200006D1E58BF01F801CBFAD505E014F8016B5B
:1002100001F8016B6D1EF9D59142D6D370470000ED
:100220000023002400250026103A28BF78C1FBD8FF
:10023000520728BF30C148BF0B60704766291DF0C8
:100240001D8664291BF0DC8575291BF0D98563297F
:100250001CF04383002070471FB51DF005FE9DE88C
:1002600003001CF077F81CF07BFB04000020002149
:100270001DF0E8F8E0601FBD10B510BD1CF08AFC51
:100280001146FFF7E9FF00F07FF91CF0A8FC03B46A
:10029000FFF7F2FF03BC1CF0D5FC00002A4B1968E5
:1002A0000868B0E8F04F80F30988BFF36F8F4FF014
:1002B000000080F3118870470000000006480068C5
:1002C000006880F3088862B661B6BFF34F8FBFF352
:1002D0006F8F00DF00BF00BF08ED00E0DFF80C000B
:1002E000016841F470010160704700BF88ED00E0D3
:1002F000EFF30980BFF36F8F134B1A681EF0100FD6
:1003000008BF20ED108A20E9F04F106008B44FF0CC
:10031000500080F31188BFF34F8FBFF36F8F1AF037
:100320008EFA4FF0000080F3118808BC1968086845
:10033000B0E8F04F1EF0100F08BFB0EC108A80F349
:100340000988BFF36F8F704740020020EFF30580EC
:100350007047000010B50446042301222146B84826
:100360000CF015FFB6480CF06EFF00BF0221B44838
:100370000DF08AF80028F9D0B1480CF0A0FF10BDAC
:100380002DED028B86B000BF0020FFF7E3FFAD49E3
:100390000880AD480068AD4988427CD1A9490988E8
:1003A000C1EBC1014800C11700EB11510C13A54965
:1003B0000988C1EBC1014800C11700EB11510913B5
:1003C000A0EB013500EE105AB8EEC00ADFEDA00A2E
:1003D00080EE201AF0EE418AB2EE040A28EE800A7E
:1003E000BDEEC00A10EE105A9AA103C9CDE904016E
:1003F0000A2094FBF0F03030C0B28DF810000A20D3
:1004000094FBF0F100FB11403030C0B28DF81100C8
:1004100005F13000C0B28DF8130004AF40F2FC408B
:10042000322364227821009040F2311009F0D3FF8A
:1004300001233A4640F23111782003F002FE0620F3
:10044000FFF788FF8549088008460088084600882D
:1004500000EE100AB8EE400ADFED7D0A80EE201AA9
:10046000B0EE418AB2EE040A28EE000ABDEEC00AE0
:1004700010EE106A9FED7A0A28EE000ABDEEC00A5F
:1004800010EE100A06EB8601A0EB410875A103C926
:10049000CDE9020100E01BE006F13000C0B28DF8AA
:1004A0000A0008F13000C0B28DF80B000DF1080908
:1004B0004CF6446032236422782100905A2009F0DF
:1004C0008AFF01234A465A21782003F0BAFD00BF73
:1004D0004FF47A701AF0A2F856E700BF0AF00DFC4C
:1004E00008F07AFC08F046FD64201AF097F8F5E76A
:1004F00000B58DB0012108020EF044F80CF0B6FDF5
:10050000012108460DF0FAFF41200B9003208DF8E1
:10051000300002208DF8310000208DF833000BA947
:1005200052480DF0A9FD002007904FF4803008904C
:10053000002009900A9007A80CF0D2FD01208DF848
:100540000900002005900490039002208DF8180007
:10055000002001908DF8080001A939480CF091FDA8
:10056000012137480CF0D3FD0DB000BD10B50020BF
:100570000CF0B6F801200CF0B3F802200CF0B0F843
:1005800003200CF0ADF810BD1CB54FF4E131384834
:1005900008F00CFEFFF7EAFF09F030FA002003F044
:1005A00024FE0AF0FCF9FFF7A3FF0BF0E6FF102092
:1005B00003F04AFC48F2100003F050FC4FF6FF70C5
:1005C00003F056FC03F02AFC00F0A8FA00F0A0F9B2
:1005D0004FF440700CF0DAFC02F0E8FA0020012140
:1005E00003464FF4C062CDE9001022A1AFF215100E
:1005F00019F0EFFD0020012103468022CDE9001013
:100600001EA1AFF2832019F0E4FD1AF0E2FA00BF58
:10061000FEE700BF502080F31188BFF34F8FBFF378
:100620006F8F00BF1BF003FB0446214616A008F0A5
:100630006AFE00BFFEE7704710B508F0B7FC10BDBA
:100640000020014000000020300000207415002030
:100650000000804500002C007048000002000020CF
:100660000000C842302C00000000000000000240E2
:100670000010014054657374000000004144435F62
:100680007461736B00000000667265654865617097
:1006900073697A65203D2025640A00000CB50020AE
:1006A000019000907648006840F4803074490860FA
:1006B00000BF7348006800F4003000900198401CAF
:1006C0000190009818B90198B0F5A06FF1D16C486D
:1006D000006800F4003010B10120009001E000201B
:1006E00000900098012846D165484030006840F0ED
:1006F00080506349403108606248006840F480409F
:10070000604908605E48083000685D49083108604B
:100710000846006840F4004008600846006840F45D
:10072000A05008605848091F0860081F006840F082
:100730008070091F086000BF5148006800F0007019
:100740000028F9D040F20520504908604C48083094
:10075000006820F003004A49083108600846006834
:1007600040F00200086000BF45480830006800F013
:100770000C000828F8D10CBD10B54548006840F4BD
:100780007000434908603E48006840F001003C4961
:10079000086000203A4908310860394800683D493E
:1007A0000840374908603C48091D0860081F006878
:1007B00020F48020091F0860002031490C310860B6
:1007C000FFF76CFF4FF0006031498039086010BDC1
:1007D00070B500200022022300240221284D083594
:1007E0002D6805F00C0020B1042806D0082834D16B
:1007F00007E02A4D2A4E356033E02A4D284E3560F9
:100800002FE01F4D2D1D2D68C5F380541C4D2D1D4F
:100810002D6805F03F0154B1224DB5FBF1F5184E9E
:10082000361D3668C6F3881605FB06F209E01B4D37
:10083000B5FBF1F5124E361D3668C6F3881605FB7A
:1008400006F20F4D2D1D2D68C5F301456D1C6B0083
:10085000B2FBF3F5124E356003E0104D104E3560DB
:1008600000BF00BF064D08352D68C5F303150E4EB9
:10087000705D0B4D2D68C540094E356070BD0000A0
:10088000003802400070004019544007003C02400C
:1008900088ED00E0FFFFF6FE103000240024F40095
:1008A0000400002040787D0108000020704700BF50
:1008B000FEE700BFFEE700BFFEE700BFFEE77047B0
:1008C00008B50020009040200FF091FA012804D1D3
:1008D00069460D48006819F0BEF940200FF0ABFAE8
:1008E0004FF480300FF0A7FA009848B1009838B163
:1008F0004FF0805005490860BFF34F8FBFF36F8FF3
:1009000008BD7047704770473402002004ED00E0D6
:1009100000B58DB00021084611F028FF1D4817F0E2
:100920007FFB0C906FF0FF0017F07AFB0B901948DB
:10093000153817F075FB0A9016208DF82400012059
:100940008DF82500A8208DF82600C0208DF82700FE
:100950009DF824009DF82510CDE900109DF8263063
:100960009DF827200CA104A81BF0E6F90E480F49BA
:1009700000220AABCDE9002102900BAA0CA90C4879
:1009800013F0ADFA0A4813F0EAFA094813F037FBFE
:100990000DB000BD1601A8C0202025642E25642EB0
:1009A00025642E25640000001D26010851910108D0
:1009B000A002002000B5AFB001214FF060600DF043
:1009C0009DFD0EF075FC0FF001FA00BF0FF005FA67
:1009D0000128FBD068460EF076FC01200090002034
:1009E00007904FF400700A9000200B900E90119029
:1009F00013901490159020904FF0007021900011EA
:100A0000239000202590269004202890C00529904E
:100A100040122A9080012B9040122C9040002E9082
:100A2000012168460EF009FD434908600121434851
:100A30000FF0EAF92FB000BD08B54FF4A0600CF03C
:100A4000A5FA3D208DF8000002208DF8010000205D
:100A50008DF8020001208DF8030068460CF09BFA27
:100A600008BD1CB5012147200DF048FD0121880378
:100A70000DF088FD01200DF0AEFE8E2000900320C9
:100A80008DF8050002208DF8040000208DF8060086
:100A90008DF8070069462A480DF0EEFA0B22012175
:100AA00027480DF074FB0B22022125480DF06FFB47
:100AB0000B22032122480DF06AFB0B22072120485C
:100AC0000DF065FB4FF46050009069461D480DF035
:100AD000D3FA0B2211461B480DF059FB0B220C21B7
:100AE00018480DF054FB0B220D2116480DF04FFB5A
:100AF00032200090694614480DF0BEFA0B22012105
:100B000011480DF044FB0B2204210F480DF03FFB70
:100B10000B2205210C480DF03AFB1CBD10B5FFF768
:100B2000A0FFFFF789FFFFF745FF0348006808B9FA
:100B300000BFFEE710BD00001800002040000100CB
:100B4000000002400004024000080240002114E0BE
:100B500001EB41003D4A02EBC000007D60B901207D
:100B600001EB4102394B03EBC202107501EB41006E
:100B70001A4602EBC0007047491C0A29E8DB002036
:100B8000F9E710B5014600200FE000EB40022F4BC3
:100B900003EBC2028A4207D1002200EB40032B4C38
:100BA00004EBC3031A7502E0401C0A28EDDB00BF0A
:100BB00010BD70B50646FFF7C9FF05460DB9002008
:100BC00070BD234C11E0304661681BF063FB58B9DF
:100BD000A0682860E0686860E068A8600020E860BD
:100BE000207C28742846EBE72468002CEBD12846AB
:100BF000FFF7C7FF0020E3E710B504462046FFF7E4
:100C0000C0FF10BD2DE9F04104460F461646D4E959
:100C10000110884203D14FF0FF30BDE8F081D4E9E4
:100C20000101451AB54200DD3546A26820688118E9
:100C30002A4638461BF06DFAA0682844A060284672
:100C4000EBE70146D1E90102801A7047D802002083
:100C5000E087020870B5044640F6AC517C481BF0B2
:100C6000A5FA7CA17A481BF048FA7CA178481BF0D1
:100C700044FA7CA176481BF040FA81A174481BF02D
:100C80003CFA8BA172481BF038FA94A170481BF013
:100C900034FA99A16E481BF030FA9AA16C481BF007
:100CA0002CFA99A16A481BF028FA9DA168481BF00C
:100CB00024FAA3A166481BF020FAA9A164481BF0FE
:100CC0001CFAA8A162481BF018FAA8A160481BF002
:100CD00014FAB6A15E481BF010FAB9A15C481BF0EB
:100CE0000CFABBA15A481BF008FABEA158481BF0E9
:100CF00004FABFA156481BF000FA99A154481BF012
:100D0000FCF9BEA152481BF0F8F9BDA150481BF0F8
:100D1000F4F9C1A14E481BF0F0F9C3A14C481BF0F7
:100D2000ECF9C7A14A481BF0E8F9CCA148481BF0F0
:100D3000E4F98BA146481BF0E0F9D0A144481BF030
:100D4000DCF9D4A142481BF0D8F985A140481BF03A
:100D5000D4F9D4A13E481BF0D0F9D6A13C481BF0F1
:100D6000CCF9DAA13A481BF0C8F9DDA138481BF0EC
:100D7000C4F9DEA136481BF0C0F979A134481BF054
:100D8000BCF9DEA132481BF0B8F9DEA130481BF0F7
:100D9000B4F9E1A12E481BF0B0F9E3A12C481BF0F7
:100DA000ACF9E8A12A481BF0A8F9CDA128481BF00E
:100DB000A4F96BA126481BF0A0F9E6A124481BF07A
:100DC0009CF9E7A122481BF098F9E8A120481BF004
:100DD00094F987A11E481BF090F982A11C481BF0D2
:100DE0008CF95FA11A481BF088F9E6A118481BF09E
:100DF00084F9E8A116481BF080F9EBA114481BF018
:100E00007CF9EDA112481BF078F9F0A110481BF015
:100E100074F9F5A10E481BF070F9ACA10C481BF059
:100E20006CF94FA10A481BF068F9F6A108481BF0BD
:100E300064F9F8A106481BF060F9FAA104481BF018
:100E40005CF9FCA102481BF058F9FEA10AE200007F
:100E5000C80300203C68746D6C3E0000203C68654F
:100E600061643E00203C7469746C653E5765622085
:100E70007365727665723C2F7469746C653E000010
:100E8000203C6D657461206E616D653D2264657303
:100E90006372697074696F6E2220636F6E74656E21
:100EA000743D22576562736572766572222F3E002B
:100EB000203C6D657461206E616D653D226B6579C6
:100EC000776F72642220636F6E74656E743D227555
:100ED00062756E7475222F3E00000000203C6D6527
:100EE000746120636861727365743D227574662D48
:100EF00038222F3E00000000203C7374796C653E60
:100F0000000000002A207B00626F782D73697A69E7
:100F10006E673A20626F726465722D626F783B0073
:100F20002D6D6F7A2D626F782D73697A696E673ACD
:100F300020626F726465722D626F783B0000000062
:100F40002D7765626B69742D626F782D73697A698C
:100F50006E673A20626F726465722D626F783B0033
:100F60007D000000626F6479207B0000666F6E7404
:100F70002D66616D696C793A202248656C766574DE
:100F800069616361204E657565222C2048656C7629
:100F90006574696163612C20417269616C2C2073F6
:100FA000616E732D73657269663B0000666F6E74C7
:100FB0002D7765696768743A2033303070783B006C
:100FC000636F6C6F723A20233333333B00000000B1
:100FD0006C696E652D6865696768743A20312E32D8
:100FE00035343B006D617267696E3A20303B00001A
:100FF00070616464696E673A20303B0061207B0059
:10100000746578742D6465636F726174696F6E3A8C
:10101000206E6F6E653B0000636F6C6F723A202329
:101020003362386262613B007472616E73666F7224
:101030006D3A20616C6C20302E35733B000000004F
:101040002D6D6F7A2D7472616E73666F726D3A20BA
:10105000616C6C20302E35733B0000002D7765628B
:101060006B69742D7472616E73666F726D3A206174
:101070006C6C20302E35733B00000000613A686FC5
:101080007665722C20613A76697369746564207B99
:1010900000000000636F6C6F723A202332363537E0
:1010A00037383B0023636F6E7461696E6572207B15
:1010B0000000000070616464696E672D6C65667481
:1010C0003A2031353070783B00000000706F736952
:1010D00074696F6E3A2072656C61746976653B0065
:1010E0006C6566743A20303B0000000077696474D8
:1010F000683A20313030253B00000000236D656EDA
:1011000075207B00706F736974696F6E3A20666931
:101110007865643B000000006865696768743A2080
:10112000313030253B0000006261636B67726F7580
:101130006E642D636F6C6F723A2023313931383110
:10114000383B000077696474683A20313530707834
:101150003B000000236D656E75207B7D0000000064
:10116000236D656E7520756C7B0000006C6973746F
:101170002D7374796C652D747970653A206E6F6E7D
:10118000653B0000236D656E7520756C206C6920D1
:101190007B0000006C696E652D6865696768743A4C
:1011A00020322E39656D3B006865696768743A20A6
:1011B000322E39656D3B20007472616E73697469FB
:1011C0006F6E3A20616C6C2031733B002D6D6F7A2D
:1011D0002D7472616E736974696F6E3A20616C6C04
:1011E0002031733B000000002D7765626B69742D20
:1011F0007472616E736974696F6E3A20616C6C20F1
:1012000031733B00236D656E7520756C206C692011
:1012100061207B00646973706C61793A20626C6F45
:10122000636B3B00636F6C6F723A20236666663BAC
:101230000000000070616464696E673A20302031FC
:10124000656D3B00626F726465722D626F74746FBE
:101250006D3A2031707820736F6C696420233333CA
:10126000333B000094481AF048FFAFF20C3192482B
:101270001AF043FF91A190481AF03FFF94A18E48C5
:101280001AF03BFFAFF228318B481AF036FF97A1D6
:1012900089481AF032FF9AA187481AF02EFF9CA1C4
:1012A00085481AF02AFF9FA183481AF026FFAFF263
:1012B000F41181481AF021FFAFF294117E481AF020
:1012C0001CFFAFF264317C481AF017FF97A17A48EF
:1012D0001AF013FFAFF2C40177481AF00EFFAFF215
:1012E000803175481AF009FF98A173481AF005FF7C
:1012F00099A171481AF001FFAFF29C316E481AF0C3
:10130000FCFE9AA16C481AF0F8FE9FA16A481AF0F8
:10131000F4FEAFF2B43168481AF0EFFEA0A16648BF
:101320001AF0EBFEA1A164481AF0E7FEA7A16248FB
:101330001AF0E3FEAAA160481AF0DFFEACA15E48F5
:101340001AF0DBFEAFF2E8315B481AF0D6FEADA131
:1013500059481AF0D2FEB0A157481AF0CEFEB3A1F8
:1013600055481AF0CAFEB8A153481AF0C6FEAFF2AB
:10137000104151481AF0C1FEBAA14F481AF0BDFE03
:10138000BAA14D481AF0B9FEBDA14B481AF0B5FEFE
:10139000AFF2344148481AF0B0FEBEA146481AF0F8
:1013A000ACFEBFA144481AF0A8FEC1A142481AF001
:1013B000A4FEC2A140481AF0A0FEAFF25C413E4834
:1013C0001AF09BFEC1A13C481AF097FEC5A13A480D
:1013D0001AF093FEC7A138481AF08FFEAFF2804191
:1013E00035481AF08AFEC8A133481AF086FEACA12F
:1013F00031481AF082FEAFF298412F481AF07DFE74
:1014000051A12D481AF079FEC3A12B481AF075FEA0
:10141000C4A129481AF071FEC6A127481AF06DFE32
:10142000CCA125481AF069FECEA123481AF065FE2A
:10143000AFF2D44120481AF060FECF491E481AF09E
:101440005CFECE491C481AF058FECDA11A481AF08D
:1014500054FED9A118481AF050FEDAA116481AF025
:101460004CFEDBA114481AF048FEDBA112481AF02A
:1014700044FEDFA110481AF040FEE2A10E481AF027
:101480003CFEE2A10C481AF038FEEBA10A481AF023
:1014900034FEF4A108481AF030FEFAA106481AF00A
:1014A0002CFEFAA104481AF028FEFCA102481AF00A
:1014B00024FEFFA106E20000C8030020236D656E34
:1014C0007520756C206C693A686F766572207B00B8
:1014D0006261636B67726F756E642D636F6C6F72A0
:1014E0003A20233435343534353B0000236D656EA6
:1014F00075202E7375622D6D656E75207B00000062
:10150000646973706C61793A206E6F6E653B0000A0
:10151000706F736974696F6E3A206162736F6C7576
:1015200074653B00746F703A20303B00236D656E2C
:101530007520756C206C693A686F766572202E7321
:1015400075622D6D656E757B0000000023636F6E04
:1015500074656E74207B000070616464696E673A24
:101560002031656D2038656D3B00000023686561A2
:101570006465722C202E63616C6C2D746F2D616319
:1015800074696F6E207B0000746578742D616C69DE
:10159000676E3A202063656E7465723B0000000040
:1015A00023686561646572207B7D00002368656146
:1015B00064657220236C6F676F207B666F6E742D7D
:1015C00073697A653A343070783B7D0023686561D1
:1015D0006465722023736C6F67616E207B0000006E
:1015E000636F6C6F723A203839393761303B0000D5
:1015F000666F6E742D73697A653A20302E38656D8A
:101600003B0000002E63616C6C2D746F2D61637460
:10161000696F6E207B00000070616464696E673AD8
:1016200020312E35656D203230253B006261636BC1
:1016300067726F756E642D636F6C6F723A202366EC
:1016400030666666663B0000626F726465723A20BF
:1016500031707820736F6C69642023653865386554
:10166000383B00002E726F77207B00006F7665722A
:10167000666C6F773A2068696464656E3B000000B1
:101680006D617267696E3A20312E35656D20617526
:10169000746F3B002E726F77202E636F6C207B007F
:1016A000666C6F61743A206C6566743B00000000E4
:1016B00077696474683A203430253B006D61726745
:1016C000696E3A2032656D3B000000002E726F7724
:1016D000202E636F6C3A6C6173742D6368696C645F
:1016E000207B0000666C6F61743A207269676874D1
:1016F0003B0000006D617267696E2D7269676874E6
:101700003A20303B000000002E726F77202E636F6E
:101710006C20696D67207B0023666F6F7465722093
:101720007B000000666F6E742D73697A653A20380D
:1017300035253B00626F726465722D746F703A20BC
:1017400031707820736F6C69642023653665366567
:10175000363B0000636F6C6F723A202338333833A6
:1017600038333B0070616464696E673A2031656D9F
:101770002033656D3B000000003F0308483E03082E
:10178000696E7075745B747970653D7375626D69AF
:10179000745D3A686F766572207B6261636B677215
:1017A0006F756E642D636F6C6F723A2023343561F0
:1017B0003034393B7D0000003C2F7374796C653EFA
:1017C00000000000203C2F686561643E00000000BE
:1017D000203C626F64793E00203C64697620696435
:1017E0003D22636F6E7461696E6572223E00000077
:1017F000203C6469762069643D226D656E75223EE9
:1018000000000000203C756C3E000000203C6C692C
:101810003E3C6120687265663D222F636F6E747274
:101820006F6C223E486F6D65706167653C2F613E4D
:101830003C2F6C693E000000203C6C693E3C6120FE
:10184000687265663D222F73657474696E67223E07
:1018500053657474696E67733C2F613E3C2F6C69ED
:101860003E000000203C6C693E3C61206872656669
:101870003D2223223E41626F75743C2F613E3C2F16
:101880006C693E00203C2F756C3E0000203C2F64AC
:1018900069763E3C216D656E753E0000203C6469B2
:1018A000762069643D22636F6E74656E74223E001B
:1018B000203C6469762069643D22686561646572D4
:1018C000223E0000A0481AF018FCA0A19E481AF081
:1018D00014FCACA19C481AF010FCAFA19A481AF075
:1018E0000CFCB7A198481AF008FCB7A196481AF06A
:1018F00004FCBAA194481AF000FCC0A192481AF066
:10190000FCFBC8A190481AF0F8FBCDA18E481AF054
:10191000F4FBD2A18C481AF0F0FBD8A18A481AF047
:10192000ECFBDE4988481AF0E8FBDDA186481AF096
:10193000E4FBE54984481AF0E0FBE44982481AF0E8
:10194000DCFBE3A180481AF0D8FBEBA17E481AF03B
:10195000D4FBEB497C481AF0D0FB99A17A481AF0E5
:10196000CCFBE8A178481AF0C8FBEE4976481AF09B
:10197000C4FBEDA174481AF0C0FBF54972481AF097
:10198000BCFBF44970481AF0B8FBD1A16E481AF0BC
:10199000B4FBD9A16C481AF0B0FBEF496A481AF0C1
:1019A000ACFB87A168481AF0A8FBECA166481AF0C6
:1019B000A4FBEEA164481AF0A0FBF1A162481AF062
:1019C0009CFB7FA160481AF098FBF7A15E481AF0D3
:1019D00094FBFAA15C481AF090FBFDA15A481AF05A
:1019E0008CFBFEA158481AF088FB57481AF01BFBE5
:1019F00005462A465449204610F095F870BD2DE959
:101A0000F04F2DED028B89B0824640F6AC514E4826
:101A10001AF0CCFBAFF6C4314B481AF06EFBAFF6B0
:101A2000C43149481AF069FBAFF6C83146481AF08C
:101A300064FBAFF6B43144481AF05FFBAFF6903167
:101A400041481AF05AFBAFF66C313F481AF055FB8B
:101A5000E5A13D481AF051FBAFF664313A481AF05F
:101A60004CFBAFF6603138481AF047FBAFF66831EF
:101A700035481AF042FBAFF6583133481AF03DFBB7
:101A8000AFF6443130481AF038FBAFF2D8212E4877
:101A90001AF033FBAFF634312B481AF02EFBAFF6B9
:101AA000343129481AF029FBAFF6003126481AF0E4
:101AB00024FBAFF6F42124481AF01FFBAFF6F02107
:101AC00021481AF01AFBAFF6E4211F481AF015FB63
:101AD000AFF6E4211C481AF010FBAFF228311A4887
:101AE0001AF00BFBAFF6EC2117481AF006FBAFF625
:101AF000F02115481AF001FBAFF6E42112481AF064
:101B0000FCFAAFF6DC2110481AF0F7FAAFF6D02154
:101B10000D481AF0F2FAAFF6BC210B481AF0EDFAB4
:101B2000AFF2703108481AF0E8FAAFF6B021064873
:101B30001AF0E3FAAFF6A42103481AF0DEFAAFF286
:101B40008C31014866E10000C8030020203C646934
:101B5000762069643D226C6F676F223E5765625341
:101B6000657276657220666F72204C4344207761FF
:101B700074657220636F6E74726F6C3C2F6469764B
:101B80003E000000203C6469762069643D22736C4D
:101B90006F67616E223E0000203C703E57656220F8
:101BA000636F6E74726F6C2064656D6F20666F7208
:101BB0002053544D3332463478783C2F703E000029
:101BC000203C2F6469763E00203C2F6469763E3CC1
:101BD000216865616465723E00000000203C646914
:101BE0007620636C6173733D2263616C6C2D746F3E
:101BF0002D616374696F6E223E000000203C6833E3
:101C00003E4C434420776174657220636F6E74723A
:101C10006F6C2076696120776562736974653C2F0B
:101C200068333E00203C703E704820616E64204363
:101C3000484C20636F6E74726F6C3C2F703E0000D6
:101C4000203C2F6469763E3C2163616C6C2D746F7F
:101C50002D616374696F6E3E00000000203C646972
:101C60007620636C6173733D22726F772220696402
:101C70003D22696E74726F223E000000203C646950
:101C8000762069643D22626F78312220636C617333
:101C9000733D22636F6C223E00000000343C030859
:101CA0003C666F726D20616374696F6E3D222F70A8
:101CB0006876616C756522206D6574686F643D227D
:101CC000474554223E00000068390308103A0308D3
:101CD000203C696E70757420747970653D2273754F
:101CE000626D6974222076616C75653D2253756260
:101CF0006D6974223E0000003C2F666F726D3E00DD
:101D0000043B0308203C6469762069643D22626FCD
:101D100078322220636C6173733D22636F6C223EC4
:101D200000000000C03C03083C666F726D206163D8
:101D300074696F6E3D222F636C76616C756522202D
:101D40006D6574686F643D22474554223E00000073
:101D5000BC390308643A0308B83A0308203C2F64EE
:101D600069763E3C21726F773E000000203C64693A
:101D7000762069643D22666F6F746572223E0000B2
:101D8000203C703E436F70797269676874202663E7
:101D90006F70793B204C65204E68617420546861F7
:101DA0006E683C2F703E0000203C2F6469763E3CFC
:101DB00021636F6E74656E743E000000203C2F64DA
:101DC00069763E3C21636F6E7461696E65723E0098
:101DD000203C2F626F64793E00000000203C2F6899
:101DE000746D6C3E00000000203C6D6574612068DD
:101DF0007474702D65717569763D227265667265C1
:101E000073682220636F6E74656E743D2231223ECA
:101E1000000000001AF071F9AFF67851FE481AF090
:101E20006CF9AFF67051FC481AF067F9AFF66451DF
:101E3000F9481AF062F9AFF65851F7481AF05DF90F
:101E4000AFF65851F4481AF058F9AFF29861F248D9
:101E50001AF053F9AFF65C51EF481AF04EF9AFF6AD
:101E60005C51ED481AF049F9AFF65451EA481AF0BE
:101E700044F9AFF64C51E8481AF03FF9AFF63C513F
:101E8000E5481AF03AF9AFF6A851E3481AF035F9E7
:101E9000AFF2E061E0481AF030F9AFF64851DE48A1
:101EA0001AF02BF9AFF64851DB481AF026F9AFF6D5
:101EB0004451D9481AF021F9AFF6CC61D6481AF04E
:101EC0001CF9AFF6E061D4481AF017F9AFF21C71B3
:101ED000D1481AF012F9AFF65451CF481AF00DF963
:101EE000AFF65051CC481AF008F9AFF64451CA4841
:101EF0001AF003F9AFF64051C7481AF0FEF8AFF6F2
:101F00003451C5481AF0F9F8AFF62451C2481AF016
:101F1000F4F8AFF64861C0481AF0EFF8AFF26C7110
:101F2000BD481AF0EAF8AFF62451BB481AF0E5F8BC
:101F3000AFF62051B8481AF0E0F8AFF61851B6489D
:101F40001AF0DBF8AFF61451B3481AF0D6F8AFF632
:101F50000C51B1481AF0D1F8AFF2A871AE481AF09E
:101F6000CCF8AFF6A821AC481AF0C7F8AFF6A0211C
:101F7000A9481AF0C2F8AFF2C471A7481AF0BDF828
:101F8000AFF69821A4481AF0B8F8AFF68C21A24811
:101F90001AF0B3F8AFF688219F481AF0AEF8AFF602
:101FA0007C219D481AF0A9F8AFF6F0619A481AF022
:101FB000A4F8AFF68C6198481AF09FF8AFF60C01C0
:101FC00095481AF09AF8AFF69C2193481AF095F8C4
:101FD000AFF6C05190481AF090F8AFF628018E483D
:101FE0001AF08BF8AFF69C218B481AF086F8AFF602
:101FF000982189481AF081F8AFF6480186481AF00E
:102000007CF8AFF6982184481AF077F8AFF688216B
:1020100081481AF072F8AFF664017F481AF06DF843
:10202000AFF684217C481AF068F8AFF680217A4830
:102030001AF063F8AFF66C2177481AF05EF8AFF645
:10204000602175481AF059F8AFF65C2172481AF011
:1020500054F8AFF6A00170481AF04FF8AFF65C21C3
:102060006D481AF04AF8AFF650216B481AF045F85F
:10207000AFF6482168481AF040F8AFF634216648B8
:102080001AF03BF8AFF6D40163481AF036F8AFF611
:102090002C2161481AF031F8AFF630215E481AF071
:1020A0002CF8AFF624215C481AF027F8AFF6FC01B3
:1020B00059481AF022F8AFF6242157481AF01DF8B3
:1020C000AFF6242154481AF018F8AFF61C215248F4
:1020D0001AF013F8AFF61C214F481AF00EF8AFF6BD
:1020E0002C114D481AF009F8AFF620214A481AF091
:1020F00004F8AFF61021484819F0FFFFAFF60C21A5
:10210000454819F0FAFFAFF65411434819F0F5FFAE
:10211000AFF60C21404819F0F0FFAFF67C213E48A5
:1021200019F0EBFFAFF674113B4819F0E6FFAFF67C
:102130001821394819F0E1FFAFF61821364819F097
:10214000DCFFAFF61021344819F0D7FFAFF6FC11D1
:10215000314819F0D2FFAFF6F4112F4819F0CDFF36
:10216000AFF6B0112C4819F0C8FF2C492A4819F0D5
:10217000C4FF2B49284819F0C0FFAFF6C411264808
:1021800019F0BBFFAFF6C411234819F0B6FFAFF644
:10219000C011214819F0B1FFAFF6C4111E4819F063
:1021A000ACFFAFF6B4111C4819F0A7FFAFF6AC11A5
:1021B000194819F0A2FFAFF6AC11174819F09DFFAE
:1021C000AFF68C11144819F098FFAFF66811124859
:1021D00019F093FFAFF654110F4819F08EFFAFF2CC
:1021E00020610D4819F089FFAFF650110A4819F027
:1021F00084FFAFF64411084819F07FFFAFF2B461D5
:10220000054819F07AFFAFF28461034819F075FFB1
:10221000AFF27C61004805E0C80300204C3D030894
:10222000A43D030819F069FFAFF26C61F04819F0A2
:1022300064FFAFF26C61EE4819F05FFFAFF26461CA
:10224000EB4819F05AFFAFF24C61E94819F055FF1D
:10225000AFF23061E64819F050FFAFF21C61E4487C
:1022600019F04BFFAFF20C61E14819F046FFAFF2F5
:10227000F451DF4819F041FFDE49DD4819F03DFF18
:10228000DDA1DB4819F039FFE7A1D94819F035FF86
:10229000F44800783030C0B2089008A9D44819F04A
:1022A0002CFFF1A1D24819F028FFF1A1D04819F074
:1022B00024FFFE4800783030C0B2079007A9CC4810
:1022C00019F01BFFE8A1CA4819F017FFF8A1C84888
:1022D00019F013FFF8490988C1EBC1014800C11783
:1022E00000EB11510D13F4490988C1EBC1014800FD
:1022F000C11700EB11510913A0EB013600EE106A73
:10230000B8EEC00ADFEDED0AC0EE208AB2EE040A94
:1023100028EE800ABDEEC00A10EE106AE8A103C9DB
:10232000CDE905010A2095FBF0F03030C0B28DF800
:1023300014000A2095FBF0F100FB11503030C0B2C0
:102340008DF8150006F13000C0B28DF8170005AF0A
:10235000DD490888C11700EB11514FEA213BDA48EB
:10236000008800EE100AB8EE400ADFEDD40A80EED5
:10237000208AB2EE040A28EE000ABDEEC00A10EE72
:10238000104A9FEDD20A28EE000ABDEEC00A10EEF8
:10239000100A04EB8401A0EB4108CDA103C9CDE9EB
:1023A000030104F13000C0B28DF80E0008F13000D6
:1023B000C0B28DF80F000DF10C09C7A18C4819F0BF
:1023C0009CFE39468A4819F098FED0A1884819F039
:1023D00094FED249864819F090FED149844819F0FC
:1023E0008CFEB2480068854208DB9E480068854242
:1023F00004DBCCA17E4819F080FE03E0D0A17C482C
:1024000019F07BFED5480068844208DBD448006898
:10241000844204DBD3A1764819F06FFE03E0D8A113
:10242000734819F06AFEDDA1714819F066FEAFF637
:1024300070016F4819F061FEAFF238716C4819F005
:102440005CFE6C496A4819F058FED7A1684819F03B
:1024500054FE75A1664819F050FEDFA00068029096
:10246000BF4800783030C0B28DF80A0002A9604839
:1024700019F043FE7CA15E4819F03FFE7CA15C4848
:1024800019F03BFED4A000680190B44800783030C9
:10249000C0B28DF8060001A9554819F02EFE72A1B0
:1024A000534819F02AFE82A1514819F026FECBA10B
:1024B0004F4819F022FE49464D4819F01EFE93A1DF
:1024C0004B4819F01AFED249494819F016FEAFF6EA
:1024D0001011474819F011FEAFF28071444819F00D
:1024E0000CFEAFF27871424819F007FEAFF270713E
:1024F0003F4819F002FEAFF638113D4819F0FDFDD6
:10250000AFF644113A4819F0F8FDAFF64C113848CF
:1025100019F0F3FDAFF24871354819F0EEFDAFF256
:102520004471334819F0E9FD314819F07CFD024649
:102530002F49009050460FF0F6FA09B0BDEC028B1F
:10254000BDE8F08F2DE9F0412DED028B86B00646F7
:102550004FF48061AF4819F029FEAF480068401C75
:10256000AD4908600846ADA1026803A819F0E4FB74
:1025700003A9A84819F0C1FDA9A1A64819F0BDFDFD
:10258000B4A1A44819F0B9FDA24819F04CFDA14925
:1025900000EB0108404618F08DFEBCA19D4819F0E3
:1025A000ACFDC8A19B4819F0A8FDD5A1994819F028
:1025B000A4FD41490988C1EBC1014800C11700EBE6
:1025C00011510C133C490988C1EBC1014800C117E6
:1025D00000EB11510913A0EB013500EE105AB8EED3
:1025E000C00ADFED360A80EE201AB0EE418A8DE196
:1025F000C8030020C43803083C6833207374796C26
:10260000653D22746578742D616C69676E3A636507
:102610006E7465723B223E70482073657474696EF7
:1026200067733C2F68333E003C70207374796C658F
:102630003D22666C6F61743A6C6566743B666F6EC2
:10264000742D7765696768743A20626F6C643B2209
:102650003E4D696E696D756D2076616C75653A20C9
:1026600000000000200000203C2F703E0000000011
:102670003C70207374796C653D22666C6F61743AAE
:1026800072696768743B666F6E742D7765696768F9
:10269000743A20626F6C643B223E4D6178696D75BF
:1026A0006D2076616C75653A2000000024000020E2
:1026B0003C2F6469763E0000000000200000804549
:1026C00000002C0070480000020000200000C842FA
:1026D000302C0000000000003C68312069643D227D
:1026E0007048223E70482076616C75653A203C73D4
:1026F00070616E207374796C653D22636F6C6F72CC
:102700003A23303039454532223E00003C2F737069
:10271000616E3E3C2F68313E00000000543B0308D0
:1027200044380308782E7374796C652E646973706D
:102730006C6179203D2022626C6F636B223B00004C
:10274000782E7374796C652E646973706C6179206E
:102750003D20226E6F6E65223B00000028000020A5
:102760002C000020792E7374796C652E6469737067
:102770006C6179203D2022626C6F636B223B00000C
:10278000792E7374796C652E646973706C6179202D
:102790003D20226E6F6E65223B0000007D3B3C2F8A
:1027A0007363726970743E003C6833207374796C93
:1027B000653D22746578742D616C69676E3A636556
:1027C0006E7465723B223E434C2073657474696E6F
:1027D00067733C2F68333E00302E00003C68312088
:1027E00069643D227048223E43484C4F52494E4551
:1027F0003A203C7370616E207374796C653D22637E
:102800006F6C6F723A23303039454532223E0000FA
:10281000C43B0308741100201C0000202564000044
:102820003C7072653E3C62723E4E616D65202020B8
:1028300020202020202020537461746520205072B5
:10284000696F726974792020537461636B20202052
:102850004E756D003C62723E2D2D2D2D2D2D2D2D92
:102860002D2D2D2D2D2D2D2D2D2D2D2D2D2D2D2D98
:102870002D2D2D2D2D2D2D2D2D2D2D2D2D2D2D2D88
:102880002D2D2D2D2D3C62723E0000003C62723ECB
:102890003C62723E2D2D2D2D2D2D2D2D2D2D2D2DCE
:1028A0002D2D2D2D2D2D2D2D2D2D2D2D2D2D2D2D58
:1028B0002D2D2D2D2D2D2D2D2D2D2D2D2D2D2D2D48
:1028C0002D0000003C62723E42203A20426C6F6351
:1028D0006B65642C2052203A2052656164792C206B
:1028E00044203A2044656C657465642C2053203A7A
:1028F0002053757370656E6465643C62723E0000BF
:102900003C62723E3C62723E00000000B2EE040A7D
:1029100028EE000ABDEEC00A10EE105AAFF2602198
:1029200003C9CDE901010A2094FBF0F03030C0B2B8
:102930008DF804000A2094FBF0F100FB11403030C8
:10294000C0B28DF8050005F13000C0B28DF8070067
:1029500001AF9CA19F4819F0D0FB39469D4819F062
:10296000CCFB9DA19B4819F0C8FB9DA1994819F08B
:10297000C4FBA5A1974819F0C0FBB0A1954819F078
:10298000BCFBB449934819F0B8FBAFF694419148A9
:1029900019F0B3FBB04819F046FB80464246AE49F9
:1029A00030460FF0C0F88B4819F03DFB8046424698
:1029B000884930460FF0B7F806B0BDEC028BBDE891
:1029C000F081F0B5ADF26C7D054640F26C76324692
:1029D000694628460EF089FF0746002F02DA0DF2FD
:1029E0006C7DF0BD1B229DA1684619F03BFB70B9C0
:1029F0009BA0FEF7DEF804462846D4E900120FF04B
:102A000092F8002C02D02046FEF7F6F897E01E223E
:102A100099A1684619F026FB70B998A0FEF7C9F88D
:102A200004462846D4E900120FF07DF8002CEDD0C2
:102A30002046FEF7E1F882E01D2297A1684619F0D2
:102A400011FB70B99CA0FEF7B4F804462846D4E9FF
:102A500000120FF068F8002C71D02046FEF7CCF879
:102A60006DE018229BA1684619F0FCFA18B92846B7
:102A7000FFF768FD63E013229DA1684619F0F2FAA2
:102A800028B106229FA1684619F0ECFA70B999A006
:102A9000FEF78FF804462846D4E900120FF043F8F9
:102AA000002C4CD02046FEF7A7F848E00C2297A156
:102AB000684619F0D7FA68B99DF81400303897497C
:102AC00008609DF81D003038954908602846FEF7DB
:102AD000C1F834E00C2293A1684619F0C3FA68B932
:102AE0009DF816003038934908609DF82100303871
:102AF000914908602846FEF7ADF820E00C228FA12E
:102B0000684619F0AFFA18B92846FEF778FF16E0C4
:102B10000C228EA1684619F0A5FA18B92846FEF7CE
:102B200099F80CE08DA0FEF744F804462846D4E955
:102B300000120EF0F8FF14B12046FEF75DF82846AB
:102B40000EF024FD00BF4AE770B58AB006460022A9
:102B5000012102200EF09EFF041E01DA0AB070BDB2
:102B600002208DF81500502015F053FBADF816002B
:102B700000200690102205A920460EF0AFFC002888
:102B800000DAEBE7052120460EF07AFD10200990CF
:102B90000BE009AA01A920460EF0E9FB05462846EC
:102BA000FFF70FFF0A2017F039FDF2E708B5042000
:102BB0004FF47A7300226C4900906CA016F0EBFB86
:102BC00008BD00003C68313E70482076616C756538
:102BD0003A200000741100203C2F68313E000000B4
:102BE0003C666F726D20616374696F6E3D222F6465
:102BF0007261776C636422206D6574686F643D2236
:102C0000474554223E00000020203C696E707574D8
:102C100020747970653D227375626D697422207627
:102C2000616C75653D2253686F77205365747469D4
:102C30006E672053637265656E223E0020203C6201
:102C4000723E546573742076616C75653A3C6272AD
:102C50003E0000001C390308F48702084745542051
:102C60002F53544D3332463478375F66696C657341
:102C70002F53542E67696600474554202F53544DF7
:102C80003332463478375F66696C65732F73746DC1
:102C900033322E6A70670000474554202F53544D3D
:102CA0003332463478375F66696C65732F6C6F67B3
:102CB0006F2E6A70670000002F53544D3332463434
:102CC00078375F66696C65732F6C6F676F2E706EF7
:102CD00067000000474554202F53544D333246348B
:102CE00078375441534B532E68746D6C00000000CC
:102CF000474554202F53544D3332463478372E688D
:102D0000746D6C00474554202F2000004745542027
:102D10002F706876616C756500000000200000204F
:102D200024000020474554202F636C76616C756544
:102D3000000000002C0000202800002047455420FF
:102D40002F636F6E74726F6C000000004745542053
:102D50002F73657474696E67000000002F3430347F
:102D60002E68746D6C000000492B000848545450C4
:102D7000534552564552000010B5734805F0FCFA11
:102D8000002001F075F800F04DFA00F069FA10BD6E
:102D90007047704710B56D4805F0EEFA002001F05D
:102DA00067F800F06DF900F0BDF910BD10B5684886
:102DB00005F0E2FA002001F05BF800F061F900F0A4
:102DC000B1F910BD10B5634805F0D6FA002001F046
:102DD0004FF800F055F900F0A5F910BD10B55E48A8
:102DE00005F0CAFA002001F043F800F055FB00F0AE
:102DF000ABFB10BD10B5544805F0BEFA002001F041
:102E000037F800F019FF00F061FF10BD10B5504811
:102E100005F0B2FA002001F02BF800F031F900F0D3
:102E200081F910BD10B5484805F0A6FA002001F060
:102E30001FF800F097F800F0D5F810BD10B547481E
:102E400005F09AFA002001F013F800F025FB00F0DD
:102E50007BFB10BD10B5414805F08EFA002001F053
:102E600007F800F07FF800F0BDF810BD10B5394844
:102E700005F082FA002000F0FBFF00F032FE00F0C7
:102E800050FE10BD10B5324805F076FA002000F073
:102E9000EFFF00F067F800F0A5F810BD10B52A4864
:102EA00005F06AFA002000F0E3FF00F0F5FA00F008
:102EB0004BFB10BD10B5274805F05EFA002000F06E
:102EC000D7FF00F04FF800F08DF810BD10B5214885
:102ED00005F052FA002000F0CBFF00F0B2FB00F04A
:102EE000D0FB10BD10B51C4805F046FA002000F0DC
:102EF000BFFF00F037F800F075F810BD10B51848A6
:102F000005F03AFA002000F0B3FF00F02BF800F0D3
:102F100069F810BD10B5124805F02EFA002000F037
:102F2000A7FF00F0B9FA00F00FFB10BD10B509487B
:102F300005F022FA002000F09BFF00F02CFC00F0CE
:102F400017FD10BD704700001816002074150020F2
:102F5000BC16002060170020041800204C19002027
:102F6000A8180020F8B54FF6FF7001230022FEA13B
:102F70000090022001F02EFE0446002001230246AC
:102F8000FCA10090052001F025FE0546002001234C
:102F90000246FBA10090062001F01CFE0646FA4AFC
:102FA000FAA1032001F04FFE0746FC4804F06AFE38
:102FB000FA4B2246EB210A2004F031FBF74B2A465C
:102FC0003221192004F02BFBF44B32463221FF2032
:102FD00004F025FBF14B3A46E5214FF4AF7004F0C5
:102FE0001EFBF8BD08B5EE48006830B1EC4800683B
:102FF0000021C269EA4800689047002000F038FFCD
:10300000E84806F08EFD4FF6FF7017235222032189
:103010000090084607F0DFF9002000F015FF0123BB
:10302000E1A20521084601F00CF8E14806F079FD1F
:103030004FF6FF7000F008FF0123DEA2E621052015
:1030400000F0FFFF4FF6FF7000F0FEFE4CF644600C
:10305000AC23D2222D210090142007F0BCF940F2BD
:10306000FC40AC23D2222D210090FA2007F0B3F9C6
:10307000CA480121C2699047C848C949086008BDCB
:103080002DE9F047D04AD1A1012001F0DCFD044632
:10309000BD4ACEA1022001F0D6FD0546CE4ACBA105
:1030A000032001F0D0FD0646CC4AC8A1042001F05F
:1030B000CAFD0746CA4ACBA1052001F0C4FD8046DF
:1030C000B14ACCA1062001F0BEFD8146CD4804F0F6
:1030D000D9FDCC4B224655215A2004F0A0FAC94B09
:1030E0002A46552140F23B1004F099FAC54B32466E
:1030F000B9215A2004F093FAC24B3A46B92140F262
:103100003B1004F08CFABF4B4246E521412004F00D
:1031100086FABC4B4A46E5214FF4917004F07FFAE1
:10312000BDE8F08708B59E48006830B19C4800684B
:103130000021C2699A4800689047002000F098FE7C
:10314000984806F0EEFC4FF6FF7017235222032139
:103150000090084607F03FF9002000F075FE0123BB
:1031600091A20521084600F06CFF914806F0D9FCB9
:103170004FF6FF7000F068FE0123A3A24FF4AF7179
:10318000052000F05EFFC3234B222E211F2007F0F5
:103190001FF8C3234B222E214FF4807007F018F83C
:1031A000C3234B2292211F2007F012F8C3234B2286
:1031B00092214FF4807007F00BF8012395A2302183
:1031C000332000F03EFF012395A24FF48771332096
:1031D00000F037FF012395A22D21972000F031FF49
:1031E000012395A240F21311972000F02AFF4FF619
:1031F000FF702823C322E52100901F2007F0EBF881
:103200004FF6FF702823C322E52100904FF4807011
:1032100007F0E1F87B480121C2699047794860498D
:10322000086008BD70B5874A6EA1052001F00BFD4E
:103230000446854A85A1062001F005FD054687481C
:1032400004F020FD854B2246E521412004F0E7F9FA
:10325000824B2A46E5214FF4917004F0E0F970BDED
:1032600008B54F48006830B14D4800680021C26978
:103270004B4800689047002000F0FAFD494806F0EE
:1032800050FC4FF6FF70172352220321009008468E
:1032900007F0A1F8002000F0D7FD012342A205218C
:1032A000084600F0CEFE424806F03BFC4FF6FF70A9
:1032B00000F0CAFD01235DA24FF49671052000F0D5
:1032C000C0FE4CF644606423D2222D2100901420CD
:1032D00007F081F840F2FC406423D2222D210090B7
:1032E000FA2007F078F8002000F0AEFD01235CA280
:1032F00016212F2000F0A5FE01235BA2FC212F2028
:1033000000F09FFE012359A24821612000F099FEA0
:10331000012358A24FF49771612000F092FE4FF6FE
:10332000686000F091FDC32337229C211F2006F026
:103330004FFF40F2FC4000F087FDC32337229C2161
:103340004FF4807006F044FF4FF6FF7000F07CFDF4
:1033500001234AA25521A12000F073FE012347A2B8
:1033600040F23B11A1208DE0415349204E20417194
:103370007561000043484C4F5249204E4500000003
:103380007048202D00000000952D00082020534596
:10339000545449204E47532020000000741500204B
:1033A00030000020E80000204153454B4F00000052
:1033B000F00000204173656B6F20506F6F6C2054DC
:1033C0006563682E000000009D2E0008544F554391
:1033D0004820484552450000792D0008F52D000889
:1033E000252E0008204241434820544F2053544189
:1033F000525420002020204C414E47554147452043
:10340000202020001816002053455454494E47539D
:1034100000000000504152414D45544552530000B8
:1034200043414C4942524154494F4E00444F534945
:103430004E4720544553540050524F424520545952
:1034400050450000852E0008AD2D000820202020CA
:10345000204241434B20202020202000BC16002089
:10346000444953494E462E00704800003133302005
:103470006D6C0000313235206D6C000053544152A8
:103480005400000000F0DDFDFE480121C2699047B4
:10349000FC48FD49086008BD2DE9F047FB4AAFF242
:1034A000D401012001F0CFFB0446F94AAFF2E40158
:1034B000022001F0C8FB0546F64AAFF2F0010320F6
:1034C00001F0C1FB0646F24AAFF20011042001F000
:1034D000BAFB0746F04AAFF2F401052001F0B3FB56
:1034E0008046EE4AAFF29C01062001F0ACFB81461B
:1034F000EB4804F0C7FBEA4B224655215A2004F062
:103500008EF8E74B2A46552140F23B1004F087F82D
:10351000E34B4246E521412004F081F8E04B4A4666
:10352000E5214FF4917004F07AF8DD4B3A46B4216E
:103530005A2004F074F8DA4B3246B42140F23B10C2
:1035400004F06DF8BDE8F08708B5CF48006830B1E9
:10355000CD4800680021C269CB4800689047002030
:1035600000F086FCCF4806F0DCFA4FF6FF70172318
:10357000522203210090084606F02DFF002000F0A3
:1035800063FC0123AFF2E0120521084600F059FD6B
:10359000C54806F0C6FA4FF6FF7000F055FC01234F
:1035A000AFF290124FF49671052000F04AFD4FF6ED
:1035B000FF7000F049FCC3234B222E211F2006F090
:1035C00007FEC3234B222E214FF4807006F000FE2D
:1035D0004CF644604B23C322922100901F2006F03A
:1035E000FAFE40F2FC404B23C322922100904FF49C
:1035F000807006F0F0FE0123ACA26121332000F0C0
:1036000020FD0123ABA240F23B11332000F019FD55
:10361000002000F019FC0123A8A22D21972000F022
:1036200010FD0123AFF2C0124FF4A571972000F0F6
:1036300008FD9B480121C26990479948924908605A
:1036400008BD70B5A14AAFF26421052001F0FBFA74
:1036500004469F4AAFF20C21062001F0F4FA054619
:103660009C4804F00FFB9B4B2246E521412003F0D0
:10367000D6FF984B2A46E5214FF4917003F0CFFF17
:1036800070BD08B58048006830B17F4800680021EF
:10369000C2697D48006890477B48006830B17A482D
:1036A00000680021C269784800689047002000F057
:1036B000DFFB7C4806F035FA4FF6FF7017235222E5
:1036C00003210090084606F086FE002000F0BCFBB7
:1036D0000123AFF22C320521084600F0B2FC7248FB
:1036E00006F01FFA4FF6FF7000F0AEFB01237AA23E
:1036F000FA21052000F0A5FC45F2AA206423D2227D
:103700002D210090142006F066FE45F2AA206423C5
:10371000D2222D210090FA2006F05DFE4FF6FF70B8
:1037200000F092FB012370A21E212F2000F089FCE3
:10373000012370A240F231112F2000F082FC0123FE
:103740006EA24821612000F07CFC01236DA24FF4A1
:103750009771612000F075FC4FF6FF7000F074FB6C
:103760005A2337229C211F2006F032FD5A2337228C
:103770009C21822006F02CFDC32337229C214FF48C
:10378000807006F025FD53480121C26990475148D9
:103790003D49086008BD2DE9F04F87B05B4AAFF2A4
:1037A000BC31052001F04FFA0746594AAFF26431A7
:1037B000062001F048FA8046012001F0F9FA04469B
:1037C000534A3BA12046236998478146504A38A175
:1037D00020462369984782464D4A35A120462369F1
:1037E00098478346022001F0E3FA0546484A30A193
:1037F00028462B6998470690454A2DA128462B69F3
:1038000098470590424A2AA128462B699847049078
:10381000032001F0CDFA06463D4A25A13046336922
:10382000984703903A4A22A130463369984702905C
:10383000374A1FA13046336998470190354804F054
:1038400021FA344B3A46E521412003F0E8FE314BA2
:103850004246E5214FF4917003F0E1FE2D4B4A46BC
:103860004121B42003F0DBFE2A4B524641214FF4A4
:103870008C7003F0D4FE274B5A4641214FF4BE70A2
:103880004AE00000BC16002030000020CD2E0008C9
:103890002D2F00086D2E0008B52E0008C52D00083C
:1038A00060170020E8000020F0000020504F4F4C2F
:1038B000000000005741544552000000444953495C
:1038C0004E46454354494F4E00000000E52E000887
:1038D000DD2D000804180020504F4F4C205041525D
:1038E000414D455445525300504F4F4C20564F4C7C
:1038F000554D4500504552494F4400003330206D2E
:103900005E3200003036206800000000FD2E000806
:10391000152F0008A818002003F081FEFE4B81211E
:10392000B420069A03F07BFEFB4B81214FF48C7090
:10393000059A03F074FEF84B81214FF4BE70049A8F
:1039400003F06DFEF44BBE21B420039A03F067FE32
:10395000F14BBE214FF48C70029A03F060FEEE4BE7
:10396000BE214800019A03F05AFE07B0BDE8F08F6F
:1039700008B5EA48006830B1E84800680021C2692B
:10398000E64800689047E548006830B1E3480068C1
:103990000021C269E14800689047002000F068FA01
:1039A0004FF6FF7000F050FA4FF4A2733522252134
:1039B000852006F00DFC4FF4A2733522642185208A
:1039C00006F006FC4FF4A2733522A221852006F0F2
:1039D000FFFBD34806F0A5F84FF6FF7017235222DD
:1039E00003210090084606F0F6FC002000F02CFAB7
:1039F0000123AFF24C620521084600F022FBC948C2
:103A000006F08FF84FF6FF7000F01EFA0123C6A2F1
:103A1000F521052000F015FB0123AFF270120521FE
:103A2000322000F00EFB0123C4A20521692000F022
:103A300008FB0123C3A20521822000F002FB012321
:103A4000AFF290120521AA2000F0FBFA0123BFA2D9
:103A50000521BE2000F0F5FA4FF6410000F0F4F920
:103A60000123BDA28721282000F0EBFA0123BCA28C
:103A7000EB21282000F0E5FA0123BBA24FF4AF713F
:103A8000282000F0DEFA0123B9A296216A2000F076
:103A9000D8FA0123B8A2F0216A2000F0D2FA01235B
:103AA000B7A240F261116A2000F0CBFA0123B6A25E
:103AB0009D21A72000F0C5FA0123B5A2FF21A72070
:103AC00000F0BFFA0123B4A240F25B11A72000F07E
:103AD000B8FA91480121C26990478F488F49086020
:103AE00008BD70B5AE4AAFF20471052001F0ABF825
:103AF0000446AC4AAFF2AC61062001F0A4F80546DA
:103B0000A94804F0BFF8A84B2246E521412003F064
:103B100086FDA54B2A46E5214FF4917003F07FFD09
:103B200070BD08B57D48006830B17C480068002150
:103B3000C2697A48006890477848006830B1774891
:103B400000680021C269754800689047002000F0B5
:103B50008FF9734805F0E5FF4FF6FF7017235222E7
:103B600003210090084606F036FC002000F06CF9B6
:103B70000123AFF2CC720521084600F062FA6948D1
:103B800005F0CFFF4FF6FF7000F05EF9012387A22A
:103B9000FA21052000F055FA4FF668606423D2221E
:103BA0002D210090142006F016FC40F2FC40642306
:103BB000D2222D210090FA2006F00DFC4FF6FF7066
:103BC00000F042F901237DA21E212F2000F039FAD6
:103BD0000123AFF26C7240F201112F2000F031FA94
:103BE000012377A24821612000F02BFA012377A25C
:103BF0004FF49771612000F024FA4FF6FF7000F047
:103C000023F95A2337229C211F2006F0E1FA5A2378
:103C100037229C21822006F0DBFAC32337229C2125
:103C20004FF4807006F0D4FA5F480121C2699047D2
:103C30005D483A49086008BD2DE9F047654AAFF68E
:103C40005C01052000F0FFFF0546634AAFF6040162
:103C5000062000F0F8FF0646012001F0A9F804460E
:103C60005D4A35A120462369984707465A4A32A142
:103C70002046236998478046574A2FA1204623694A
:103C800098478146554803F0FDFF544B2A46E521ED
:103C9000412003F0C4FC514B3246E5214FF49170B2
:103CA00003F0BDFC4D4B3A4632211E2003F0B7FC19
:103CB0004A4B42465A211E2003F0B1FC474B4A466C
:103CC00082211E2003F0ABFCBDE8F08708B5134845
:103CD000006830B1114800680021C2690F480068CF
:103CE00090470E48006830B10C4800680021C26956
:103CF0000A4800689047002000F0BAF8084805F02C
:103D000010FF4FF6FF701723522203210090084640
:103D100006F061FB002063E0A818002030000020BE
:103D2000E8000020F0000020574154455220504147
:103D300052414D45544552530000000041564552F2
:103D40004147450054454D50000000004841524451
:103D50004E45535300000000696E646F6F7200009F
:103D60006F7574646F6F720065787472656D65004D
:103D70003C3230430000000032302D33304300002D
:103D80003E33304300000000736F66740000000093
:103D90006861726400000000736F206861726400E3
:103DA000552E00083D2E00084C1900205245515553
:103DB000495245442056414C55455300434C46001A
:103DC000302C32206D672F6C00000000372C302023
:103DD00070480000FD2E0008152F0008F019002083
:103DE00000F032F80123AFF640220521084600F02A
:103DF00028F90D4805F095FE4FF6FF7000F024F805
:103E000001230AA2C821052000F01BF90C4801215A
:103E1000C26990470A480B49086008BD10B5FFF712
:103E2000A1F8FFF7DFF810BDF000002043484F4F26
:103E300053452050524F42452054595045000000F0
:103E4000F01900203000002001B5BDF80000F6494F
:103E500008800846008805F058FE08BD01B5BDF889
:103E60000000F24908800846008805F054FE08BDAD
:103E700010B50446204605F0D8FE10BD2DE9F041EE
:103E800005460E4614469846E74807882046FFF741
:103E9000DBFF3146284605F0D9FD3846FFF7D4FF51
:103EA000BDE8F0812DE9F047064688461746002414
:103EB0000025A146A246B146C24600BF2EE000251D
:103EC00022E0DB48007828B937F814000121A94026
:103ED000084048B1D648007801280AD137F81400C4
:103EE00080212941084020B909F101001FFA80F919
:103EF00009E04846421C1FFA82F90823CA490A8889
:103F00005146FFF7BBFF6D1CCA4800788542D8D3E5
:103F10000AF101001FFA80FAB146641CC648007815
:103F20008442CCD3BDE8F0872DE9F84F0646884699
:103F3000174600240025A246A14600200090B24664
:103F4000C14600BF30E0002524E0B948007828B918
:103F500037F814000121A940084048B1B44800785E
:103F6000012809D137F8140080212941084018B9E7
:103F7000AE480088009002E0AB48008800905046B0
:103F8000421C1FFA82FA0223BDF800204946FFF7BF
:103F900075FF6D1CA74800788542D6D309F1010052
:103FA0001FFA80F9B246641CA34800788442CAD341
:103FB000BDE8F88F2DE9F04107460D4614461E4630
:103FC000A4F12000C4B29A48007810B1012834D17D
:103FD00019E0012E0BD19948016897480078604399
:103FE00001EB400239462846FFF75CFF0AE093499F
:103FF0000B6891490978614303EB4102E8B2394605
:10400000FFF792FF1AE0012E0BD18D4801688A4814
:104010000078604301EB400239462846FFF742FF33
:104020000AE087490B6884490978614303EB410240
:10403000E8B23946FFF778FF00E000BF00BFBDE8F7
:10404000F0812DE9F04707460D46144698460026B4
:104050007C480088411B77480078401E91FBF0F9AE
:1040600035E02278434629463846FFF7A3FF2078FB
:10407000412811D0207847280ED020784D280BD029
:1040800020784F2808D02078512805D0207858284B
:1040900002D020786D2804D166480078284485B283
:1040A00013E02078692805D02078492802D02078AC
:1040B0006C2805D15F480078401F284485B204E091
:1040C0005C480078401E284485B2641C761C207829
:1040D00008B1012000E000204E4501D2012100E09E
:1040E000002108400028BCD1BDE8F0872DE9F0414F
:1040F00004460D4616461F46A21B521C91B2EA1BEF
:10410000521C90B223462A4605F083FCBDE8F0819C
:104110002DE9F04104460D4616461F463B46324601
:104120002946204606F01DF8BDE8F0812DE9F04152
:1041300006460F4614461D4623462A463946304653
:1041400006F046F8BDE8F08170B504460D46164607
:1041500032462946204606F05CF870BD0022026017
:104160000A7802604B78026802EB032202608B78C7
:10417000026802EB03420260CB78026802EB036242
:10418000026070477CB50446002001900090A11C9D
:104190006846FFF7E3FF04F10A0101A8FFF7DEFF1D
:1041A00036200107088088204FF0C24108802C206B
:1041B000C10608800DE00198205C019921444978EE
:1041C00000EB012085B24FF0C24005800198801CB1
:1041D0000190DDE900108842EDD336200107088008
:1041E00008204FF0C24108807CBD10B5044610483D
:1041F000047014B1012C14D109E010200D4908708D
:1042000018200D490870104805F08BFC0AE00820C2
:10421000084908700C20084908700C4805F081FC1A
:1042200000E000BF00BF10BD3E00002040000020A5
:1042300034000020350000203600002060000020FF
:10424000780000203A000020D8000020F000002074
:1042500010B504461CB9032008F069FA04E0012CEB
:1042600002D1032008F05BFA10BD10B505F0C6FBC3
:1042700010BD10B540F20F1340F2DF1200210846C6
:1042800005F0C7FB10BD2DE9F04104460D460026A0
:104290000027B0462946204605F0ECFB064630468E
:1042A000BDE8F081D1490870097839B936210A078B
:1042B000118008214FF0C242118022E0CB490978D9
:1042C000012907D136210A07118068214FF0C24227
:1042D000118016E0C5490978022907D136210A075D
:1042E0001180C8214FF0C24211800AE0BF4909780D
:1042F000032906D136210A071180A8214FF0C242B6
:10430000118070472DE9F04704460D46904600267F
:104310000027B146B246B548007818B1B3480078D6
:1043200002280FD1A146B24800782844401E83B22B
:10433000B04800782044401E82B22946204605F04D
:1043400068FB16E0A9480078012803D0A748007848
:1043500003280ED1AA46A74800782844401E83B2FD
:10436000A34800782044401E82B22946204605F02A
:1043700050FB2C20C1060880002625E000271EE007
:104380009D48007828B938F816000121B940084046
:1043900048B19948007801280BD138F816108020D0
:1043A0003841014029B9954800884FF0C241088042
:1043B00004E0934800884FF0C24108807F1C8D487C
:1043C00000788742DCD3761C894800788642D5D3B2
:1043D000BDE8F08770B505460E461446A4F12000EE
:1043E000C4B28548007810B1012818D10BE0854887
:1043F00001687F480078604301EB4002294630465F
:10440000FFF780FF0CE0804801687948007860433E
:1044100001EB400229463046FFF774FF00E000BF81
:1044200000BF70BD2DE9F04707460E4614464FF019
:1044300000080025A946754807806C48007848B9EF
:10444000734800886B49097890FBF1F000F0FF0990
:10445000354632E06548007801280BD16D48008868
:104460006449097890FBF1F000F0FF093D46674888
:10447000068022E05D48007802280CD1644800885C
:104480005C49097890FBF1F000F0FF095948007889
:10449000301A85B211E05548007803280DD15D48E7
:1044A00000885449097890FBF1F000F0FF09514869
:1044B0000078381A85B2554806803CE04B480078B1
:1044C00050B92278294651480088FFF783FF4948B0
:1044D0000078284485B22BE04448007801280AD1AE
:1044E00022784A4801882846FFF774FF414800783F
:1044F000284485B21CE03D48007802280AD1227881
:10450000294642480088FFF765FF3A480078281A94
:1045100085B20DE035480078032809D122783B4860
:1045200001882846FFF756FF32480078281A85B2DE
:10453000641C08F10108207808B1012000E0002087
:10454000C84501D2012100E0002108400028B5D172
:10455000BDE8F08710B5029C10BD2DE9FC4704466C
:104560000D4616461F46DDF8288000200190009079
:104570008146A11C6846FFF7F1FD04F10A0101A87C
:10458000FFF7ECFDF019401E83B205EB0800401E5A
:1045900082B231462846FFF7A9FD36200107088080
:1045A00088204FF0C24108802C20C10608800FE00F
:1045B0000198205C01992144497800EB01201FFA01
:1045C00080F94FF0C240A0F800900198801C019043
:1045D000DDE900108842EBD336200107088008206F
:1045E0004FF0C2410880BDE8FC8700003C0000207D
:1045F000360000203500002034000020400000205C
:104600003E000020600000207800002042000020D2
:104610003A000020380000202DE9F74F82B0834691
:1046200091460025002001909E480068D0F8008047
:1046300009F00100002830D09A4800680068C71CC3
:1046400098480068D0F80CA000BF22E000260024A3
:1046500019E01EB9387801907F1C802601983040FF
:1046600070B13AF8022B8F4B1B68DB882B4499B250
:104670008C4B1B689B88234498B20823FFF7FEFBF2
:104680007610601CC4B298F80000A042E1DC681CFF
:10469000C5B298F80100A842D8DC09F00200002851
:1046A0002DD0804800680068C71C7E480068D0F89C
:1046B0000CA000251FE00026002416E01EB9387863
:1046C00001907F1C80260198304058B1039A2A44FB
:1046D00091B20BEB040290B2FFF7D5FDAAF80000EF
:1046E0000AF1020A7610601CC4B298F80000A042D9
:1046F000E4DC681CC5B298F80100A842DBDC09F0D4
:10470000040010B9B9F1080F29D1664800680068A3
:10471000C71C00251FE00026002416E01EB93878CB
:1047200001907F1C80260198304058B15D4B1B687A
:104730001A8A039B2B4499B20BEB040398B208230B
:10474000FFF79CFB7610601CC4B298F80000A042F2
:10475000E4DC681CC5B298F80100A842DBDC5148D3
:104760000068A0F804B04F4903980968C88005B0F4
:10477000BDE8F08F70B504460D460122294620465B
:10478000FFF74AFF062229462046FFF745FF70BD86
:1047900070B5064643480068C4884248006885886A
:1047A000012E06D0022E32D0032E1DD0042E36D17B
:1047B00007E0042C01DB042000E02046201A84B22C
:1047C0002EE039480088001B38494978401A0428EF
:1047D00001DB042005E034480088001B3349497898
:1047E000401A204484B21BE031480088401B2F4906
:1047F0000978401A042801DB042005E02C480088D1
:10480000401B2A490978401A284485B208E0042D43
:1048100001DB042000E02846281A85B200E000BF32
:1048200000BF21462846FFF7A5FF032004F078F8D3
:1048300070BD10B50446142017F028FA1949086015
:104840000846006808B9002010BD18490978174AC1
:10485000527811FB02F1480017F018FA1149096863
:10486000C86010480068C06808B90020ECE70CB9BF
:104870000E4800E020460B490968086000200949FD
:104880000968088220200749096808720120DBE7CF
:1048900070B504460D46062229462046FFF7BCFEA9
:1048A00070BD0000440000203A00002048000020B5
:1048B000380000202DE9F04104460D4616461F46FB
:1048C000601B82B2002339462846FFF721FC601B9B
:1048D00082B2002331462846FFF71AFCF01B82B251
:1048E000012339462846FFF713FCF11B8AB2611EEB
:1048F00088B201233946FFF70BFCBDE8F0812DE9B2
:10490000F04707460C4690461D46DDF820900026ED
:104910002B46424621463846FFF7CCFF4846FFF774
:1049200093FA01260AE03B1B9B1E9AB2AB1999B27F
:10493000631C98B20023FFF7EBFB761CA8EB050085
:10494000B042F0D8BDE8F0872DE9F04105460E46AB
:104950001446984602272A1B91B2321BD0B2224637
:10496000FFF7F2FB631E9AB22B1B99B2331BD8B22E
:10497000FFF7EAFB4046FFF767FA08E0E31B9AB24D
:104980002B1B99B2331BD8B2FFF7DEFB7F1CA7426B
:10499000F4D3BDE8F0812DE9F04F85B004460D4613
:1049A00017461E46002004908046814682460390AA
:1049B000029083460190B54208D1BC4206D108233B
:1049C000214628460E9AFFF759FAA1E0BC4221D1B0
:1049D000B54202DDB0462E46454601232146284613
:1049E0000E9AFFF74BFA681C1FFA80F909E00223C0
:1049F000214628460E9AFFF741FA09F101001FFAF5
:104A000080F9B145F3DB0423214630460E9AFFF7C7
:104A100035FA7DE0B54219D1BC4202DDB8462746E1
:104A200044460E98A5F1020C0CF0FF03A6F1010C10
:104A30000CF0FF02A4F1010C1FFA8CF1A7F1010C9C
:104A400000901FFA8CF0FFF75AFF61E0BC4201DDD5
:104A5000E01B00E0381BB54201DDA91B00E0711B23
:104A6000884201DD012000E000200490049828B174
:104A7000A0462C464546B84637464646B54205DD73
:104A8000A0463C464746B0462E464546701B80B27F
:104A90000390BC4201DDE01B00E0381B80B20290B5
:104AA0000399491C484200EBD07149100FFA81FB71
:104AB000A246BC4202DA0120019002E04FF0FF3032
:104AC0000190A94622E0049830B108234946504697
:104AD0000E9AFFF7D3F905E00823514648460E9A8F
:104AE000FFF7CCF9029858440FFA80FBBBF1000F96
:104AF00008DB019850441FFA80FA0398ABEB0000E2
:104B00000FFA80FB09F101001FFA80F9B145DADDE7
:104B100005B0BDE8F08F70B504460D46A4F11E0146
:104B200088B200233C222946FFF7F2FAA5F11E00C5
:104B300081B201233C222046FFF7EAFA70BD2DE93D
:104B4000F04104460E4615461F46DDF81880A01BAE
:104B500083B2E81B82B221462846FFF7C7FA4046D7
:104B6000FFF710FBFE4A1288521E91B2FD4A1288CE
:104B7000521E90B2FA4A1388FA4A1288FFF7B6FA20
:104B8000BDE8F0812DE9F04104460F4615460026A8
:104B9000384617F048FA691E884203D2384617F0A3
:104BA00042FA00E0681E06463EB1324639462046CB
:104BB00017F045FB0020A05501E000202070BDE863
:104BC000F081014609B900207047012081F83100C9
:104BD00000BFF9E72DE9FF41064688461746002445
:104BE0000025362017F052F80446F4B126802E2214
:104BF0004146A01CFFF7C6FF9DF80C0084F830006A
:104C0000BDF82800608684F834702046FFF7D9FF8D
:104C1000182017F03BF805461DB16C60042028747D
:104C200003E0204617F061F80024284604B0BDE8F0
:104C3000F081014609B90020704700200877012063
:104C4000487700BFF8E72DE9F04106468846174649
:104C500000250024242017F019F80446DCB1268032
:104C6000C148A060C14860601022414604F10C00B8
:104C7000FFF788FF27622046FFF7DBFF182017F0B9
:104C800005F805461DB16C600120287403E020463C
:104C900017F02BF800242846BDE8F081014609B939
:104CA00000207047002081F82500012081F82600AF
:104CB00000BFF6E72DE9F041064688461746002476
:104CC00000252C2016F0E2FF0446DCB126801922D4
:104CD000414604F10C00FFF755FFA548A060A54828
:104CE0006060A7622046FFF7D9FF182016F0CEFFBC
:104CF00005461DB16C600320287403E0204616F0C1
:104D0000F4FF00242846BDE8F081014609B90020DF
:104D1000704701204876984848609848886000208D
:104D200008760120F4E72DE9F0410446884617464D
:104D30000025002614B16088032802D10020BDE8B8
:104D4000F081202016F0A2FF0546FDB12C600C2258
:104D5000414605F10C00FFF715FFEF61182016F032
:104D600095FF06469EB17560022030742846FFF715
:104D7000CCFF6188201D40F821606088401C608065
:104D80006088012807D161684968087603E02846F1
:104D900016F0ABFF00253046D1E7014609B90020E7
:104DA000704700204880AFF2810008610120F7E7DA
:104DB00070B505460024142016F068FF04461CB1A7
:104DC00025802046FFF7E9FF204670BD014609B95E
:104DD000002070474FF6FF700880102048800020A8
:104DE00008760120F5E72DE9F04104460F46164606
:104DF000002514B1A08A0A2802D10020BDE8F08164
:104E0000202016F043FF0546BDB16C6010223946E4
:104E100005F10800FFF7B6FEEE612846FFF7D6FF62
:104E2000A18A04F1180040F82150A08A401CA082F9
:104E3000A08A012801D1A16908760120DEE7014698
:104E400009B9002070474E4848604E48086001206C
:104E50008874002008728882AFF27500086401200F
:104E6000F0E770B5064600240025442016F00EFF3A
:104E7000044684B126822046FFF7E1FF182016F091
:104E800005FF05461DB16C600720287403E020462D
:104E900016F02BFF0024284670BD014609B90020FA
:104EA0007047002081F82C00012081F82D0000BF00
:104EB000F6E72DE9F047064689461746984600244E
:104EC0000025342016F0E2FE044614B326802E4856
:104ED000A0602E4860601022494604F10C00FFF7E4
:104EE00051FE1022394604F11C00FFF74BFEC4F8B6
:104EF00030802046FFF7D1FF182016F0C7FE054688
:104F00001DB16C600520287403E0204616F0EDFE0C
:104F100000242846BDE8F087014609B90020704703
:104F20000020C8720120087300BFF8E72DE9F047A0
:104F300006460F4690469946DDF820A0002400253D
:104F4000142016F0A3FE04464CB126806760A4F836
:104F5000088084F80A90C4F810A0204618E026E0E3
:104F60003A0000203800002074F602081AFC0208FB
:104F7000C4DB020826DF020800D5020862D8020856
:104F800088E2020892E60208C001030866070308E7
:104F9000FFF7C2FF182016F079FE05461DB16C60C0
:104FA0000620287403E0204616F09FFE00242846C1
:104FB000BDE8F08710B504460CB9002010BD0120F3
:104FC00084F82800FE498968480016F05FFE606298
:104FD0000120F3E72DE9F047064689461746984633
:104FE00000240025302016F051FE04462CB3268004
:104FF000F4486060F448A0601022494604F10C00B7
:10500000FFF7C0FD04F81C7F122060707620A070AE
:1050100064202071E070002060716420A071C4F8E9
:1050200010801C3C2046FFF7C5FF182016F02EFE0E
:1050300005461DB16C600820287403E0204616F078
:1050400054FE00242846BDE8F087014609B9002037
:105050007047012081F8750000BFF9E72DE9F0479E
:1050600007468A4690469946089E002500247620E9
:1050700016F00CFE0446002C32D0002084F8740098
:10508000278007225146A01CFFF77CFD07224146DE
:1050900004F10900FFF776FD322E09DD642249464E
:1050A00004F1100017F035F8322084F8740007E09E
:1050B0007200494604F1100017F02BF884F8746070
:1050C0002046FFF7C2FF182016F0E0FD05461DB18F
:1050D0006C600920287403E0204616F006FE0024C8
:1050E0002846BDE8F087014609B900207047012035
:1050F00081F8DA0000BFF9E72DE9F05F07468A463C
:1051000090469946DDE90A6B00250024DC2016F064
:10511000BDFD0446002C34D0002084F8D800278040
:1051200007225146A01CFFF72DFD0722414604F13E
:105130000900FFF727FD642E09DDC822494604F166
:10514000100016F0E6FF642084F8D80007E0720033
:10515000494604F1100016F0DCFF84F8D86084F8AA
:10516000D9B02046FFF7BFFF182016F08FFD054687
:105170001DB16C600A20287403E0204616F0B5FDCE
:1051800000242846BDE8F09F07B5AAB0002028906B
:105190004FF400401F909FED8D0B8DED140B2A985E
:1051A00040680F900F9810B900202DB000BD01216C
:1051B0000F9880F8DA109FED850B8DED160B854862
:1051C000008835380E9018F0BEFBCDE912018248F8
:1051D00000883F380E9018F0B6FBCDE91C019FED1A
:1051E0007F0B53EC102B9DED120B51EC100B18F0B4
:1051F00071F9CDE922019DED1C0B8DED200B754859
:10520000008848380E9018F09EFBCDE924017248C2
:10521000008851380E9018F096FBCDE926010F98C2
:1052200090F8D8000B9018F0A5FBCDE90C019DED8E
:105230000C0B53EC102B9DED240B51EC100B18F0C4
:10524000FDF9CDE918019FED670B53EC102B9DED97
:10525000260B51EC100B18F0F1F9CDE91A010020E2
:10526000FEF7F2FD0120FEF7C0FF9FED600B53EC4F
:10527000102B9DED240B51EC100B18F02BF9CDE900
:105280000A019DED0A0B51EC100B18F02FFB80B2B8
:105290000E909DED120B51EC100B18F027FB80B215
:1052A0000D909DED1C0B51EC100B18F01FFB80B204
:1052B00000230C90DDE90D12FEF72AFF9DED260B71
:1052C00051EC100B18F012FB80B20E909DED120BFA
:1052D00051EC100B18F00AFB80B20D909DED260BDF
:1052E00053EC102B9DED1C0B51EC100B18F0D2FC65
:1052F000CDE90A019DED0A0B51EC100B18F0F6FAFE
:1053000080B201230C90DDE90D12FEF701FF9FED45
:10531000390B53EC102B9DED120B51EC100B18F0C8
:10532000D9F8CDE90A019DED0A0B51EC100B18F0EC
:10533000DDFA80B29FED310B53EC102B0E909DEDFA
:105340001C0B51EC100B18F0C5F8CDE90A019DEDCE
:105350000A0B51EC100B18F0C9FA80B2012329A2F4
:105360000D900E99FEF76DFE9FED270B53EC102B61
:105370009DED220B51EC100B18F0ACF89FED240BB7
:1053800053EC102BCDE908019DED080B51EC100BEF
:1053900018F080FCCDE90A019DED0A0B51EC100BD1
:1053A00018F0A4FA80B29FED130B53EC102B0E9063
:1053B0009DED200B51EC100B18F06CFC2CE0000064
:1053C00088000020BE0B0308EC0A03080000000060
:1053D000000000003A00002038000020000000001B
:1053E0000000104000000000000026400000000007
:1053F0000000004000000000000014400000000019
:1054000000001840300000000000000000003240A2
:105410000000000000002240CDE90A019DED0A0BCA
:1054200051EC100B18F062FA80B20123AFF22C029B
:105430000D900E99FEF705FE0F9890F8D9000128FF
:1054400053D11FED160B53EC102B9DED240B51EC9B
:10545000100B18F03FF8CDE908019DED080B51EC59
:10546000100B18F043FA80B20E909DED260B51EC14
:10547000100B18F03BFA80B20D909DED120B51EC21
:10548000100B18F033FA80B29FEDFE0B53EC102B8B
:105490000C909DED1C0B51EC100B18F0FBFBCDE9B3
:1054A00008019DED080B51EC100B18F01FFA80B2AB
:1054B0000B900CA90EC9FEF719FE0020FEF7D8FCD0
:1054C000F2480088401E80B20E90F1480088401ECD
:1054D00080B20D90ED480388ED480288DDE90D01AA
:1054E000FEF704FE4FF6F0701F9021E00F98103089
:1054F000289930F911000B9018F025FACDE90C012C
:105500009DED160B53EC102B9DED0C0B51EC100B7D
:1055100018F07EFB09D20F981030289930F911004D
:105520000E9018F010FACDE916012898401C28902A
:105530000F9890F8D81028988142D7D89DED1A0B73
:1055400053EC102B9DED260B51EC100B18F0A2FB29
:10555000CDE90C019DED0C0B53EC102B9DED160BC2
:1055600051EC100B18F06AF8CDE9140100202890D6
:10557000C2E1289800287CD00020FEF765FC9DED54
:10558000220B51EC100B18F0B1F980B20E90289854
:1055900018F0F0F9CDE906019DED1A0B53EC102B34
:1055A0009DED060B51EC100B18F034FACDE9080113
:1055B0009DED200B53EC102B9DED080B51EC100BC7
:1055C00018F05CFBCDE90A019DED0A0B51EC100BC4
:1055D00018F08CF980B2002304220D900E99FEF78A
:1055E00097FD44F20820FEF72FFC1FED800B53ECD3
:1055F000102B9DED240B51EC100B17F06BFFCDE938
:105600000A019DED0A0B51EC100B18F06FF980B2F6
:105610001FED8E0B53EC102B0E909DED220B51ECD9
:10562000100B18F037FBCDE90A019DED0A0B51EC88
:10563000100B18F05BF980B20D90289818F09AF9C9
:10564000CDE906019DED1A0B53EC102B9DED060BD9
:1056500051EC100B18F0DEF9CDE908019DED200B9F
:1056600053EC102B9DED080B51EC100B18F006FBC2
:1056700000E00EE0CDE90A019DED0A0B51EC100BA4
:1056800018F034F980B200230C90DDE90D12FEF71A
:105690003FFD28980A287DD10020FEF7D5FB9FED1D
:1056A0007D0B53EC102B9DED220B51EC100B17F0E2
:1056B00011FFCDE90A019DED0A0B51EC100B18F01A
:1056C00015F980B20E90289818F054F9CDE902012E
:1056D0009DED1A0B53EC102B9DED020B51EC100BB2
:1056E00018F098F9CDE904019DED200B53EC102B37
:1056F0009DED040B51EC100B18F0C0FA1FEDC50B1B
:1057000053EC102BCDE906019DED060B51EC100B6F
:1057100018F0C0FA9FED610B53EC102BCDE9080196
:105720009DED080B51EC100B18F0B4FACDE90A010D
:105730009DED0A0B51EC100B18F0D8F880B2012344
:105740000D900F9A09320E99FEF77BFC9DED160B1A
:1057500053EC102B53A110A816F0EEFA9FED530B4B
:1057600053EC102B9DED160B51EC100B18F016F9A5
:105770004CD29FED480B53EC102B9DED220B51ECBE
:10578000100B17F0A7FECDE90A019DED0A0B51ECB5
:10579000100B00E0ADE018F0A9F880B20E90289848
:1057A00018F0E8F8CDE904019DED1A0B53EC102B2D
:1057B0009DED040B51EC100B18F02CF9CDE906010E
:1057C0009DED200B53EC102B9DED060B51EC100BB7
:1057D00018F054FA1FEDF90B53EC102BCDE908012A
:1057E0009DED080B51EC100B18F054FACDE90A01AD
:1057F0009DED0A0B51EC100B18F078F880B20123E4
:1058000010AA0D900E99FEF71CFC72E09FED290B7B
:1058100053EC102B9DED220B51EC100B17F05AFEA0
:105820009FED1C0B53EC102BCDE908019DED080BEF
:1058300051EC100B17F04EFECDE90A019DED0A0B5D
:1058400051EC100B18F052F880B20E90289818F016
:1058500091F8CDE904019DED1A0B53EC102B9DED51
:10586000040B51EC100B18F0D5F8CDE906019DEDB5
:10587000200B53EC102B9DED060B51EC100B18F088
:10588000FDF91BE0000000000000F03F3A0000209E
:10589000380000200000000000004240000000002E
:1058A0000000304025342E3166000000000000006A
:1058B00000408F4000000000000020409FEDFE0BE4
:1058C00053EC102BCDE908019DED080B51EC100BAA
:1058D00018F0E0F9CDE90A019DED0A0B51EC100B2F
:1058E00018F004F880B2012310AA0D900E99FEF76B
:1058F000A8FB2898401C289028980A287FF639AEE3
:1059000000202890F2E39DED180B53EC102B9DED39
:10591000120B51EC100B18F0BDF9CDE9120100206B
:10592000FEF792FA1FED290B53EC102B9DED120B95
:1059300051EC100B17F0CEFDCDE90A019DED0A0BDD
:1059400051EC100B17F0D2FF80B20E909DED1C0BA6
:1059500051EC100B17F0CAFF80B2012304220D9006
:105960000E99FEF7D5FB0F9890F8D8000F286CDC45
:10597000289A521CD2A110A816F0DEF99FEDD10B87
:1059800053EC102B9DED120B51EC100B17F0A2FDF8
:10599000CDE90A019DED0A0B51EC100B17F0A6FFA3
:1059A00080B29FEDC80B53EC102B0E909DED1C0B9D
:1059B00051EC100B17F08EFDCDE90A019DED0A0B9D
:1059C00051EC100B17F092FF80B2012310AA0D903A
:1059D0000E99FEF736FB44F20820FEF735FA9DEDEE
:1059E000260B51EC100B17F081FF80B21FED5B0B03
:1059F00053EC102B0E909DED120B51EC100B17F089
:105A000069FDCDE90A019DED0A0B51EC100B17F071
:105A10006DFF80B20D909DED260B53EC102B9DED8C
:105A20001C0B51EC100B18F035F9CDE90A019DED76
:105A30000A0B51EC100B17F059FF80B201230C90A8
:105A4000DDE90D12FEF764FB7EE10F9890F8D800B7
:105A50000F287BDD0F9890F8D800282876DC28984E
:105A6000401C0321B0FBF1F201FB12000028EBD136
:105A7000289A521C92A110A816F05EF99FED910B86
:105A800053EC102B9DED120B51EC100B17F022FD77
:105A9000CDE90A019DED0A0B51EC100B17F026FF22
:105AA00080B29FED880B53EC102B0E909DED1C0BDC
:105AB00051EC100B17F00EFDCDE90A019DED0A0B1C
:105AC00051EC100B17F012FF80B2012310AA0D90B9
:105AD0000E99FEF7B6FA44F20820FEF7B5F99DEDEF
