:020000040800F2
:1000000030A70020D9290108C1080008C30800084A
:10001000C7080008CB080008CF080008000000004F
:100020000000000000000000000000009D02000829
:10003000D308000800000000F1020008E9270108C9
:10004000F3290108F3290108F3290108F32901081C
:10005000F3290108F3290108F3290108F32901080C
:10006000F3290108F3290108F3290108F3290108FC
:10007000F3290108F3290108F3290108F3290108EC
:10008000F3290108F3290108F3290108F3290108DC
:10009000F3290108F3290108F3290108F3290108CC
:1000A000F3290108F3290108F3290108F3290108BC
:1000B00017090008190900081B090008F32901089D
:1000C000F3290108F3290108F3290108F32901089C
:1000D000F3290108F3290108F3290108F32901088C
:1000E000F3290108F3290108F3290108F32901087C
:1000F000F3290108F3290108F3290108F32901086C
:10010000F3290108F3290108F3290108F32901085B
:10011000F3290108F3290108F3290108F32901084B
:10012000F3290108F3290108F3290108F32901083B
:10013000F3290108D5080008F3290108F32901086B
:10014000F3290108F3290108F3290108F32901081B
:10015000F3290108F3290108F3290108F32901080B
:10016000F3290108F3290108F3290108F3290108FB
:10017000F3290108F3290108F3290108F3290108EB
:10018000F3290108F329010800F002F800F076F8DD
:100190000AA090E8000C82448344AAF10107DA45E2
:1001A00001D100F06BF8AFF2090EBAE80F0013F0BE
:1001B000010F18BFFB1A43F00103184790610200BA
:1001C000B06102000A444FF0000C10F8013B13F03C
:1001D000070408BF10F8014B1D1108BF10F8015BA0
:1001E000641E05D010F8016B641E01F8016BF9D193
:1001F00013F0080F1EBF10F8014BAD1C0C1B09D1EA
:100200006D1E58BF01F801CBFAD505E014F8016B5B
:1002100001F8016B6D1EF9D59142D6D370470000ED
:100220000023002400250026103A28BF78C1FBD8FF
:10023000520728BF30C148BF0B607047662914F0D1
:100240007984642912F0A284752912F09F846329AD
:1002500013F08981002070471FB514F061FC9DE800
:10026000030012F0BBFE13F0C1F9040000200021CE
:1002700013F044FFE0601FBD10B510BD13F0D4FAB9
:100280001146FFF7E9FF00F07FF913F0F2FA03B42B
:10029000FFF7F2FF03BC13F023FB00002A4B1968A1
:1002A0000868B0E8F04F80F30988BFF36F8F4FF014
:1002B000000080F3118870470000000006480068C5
:1002C000006880F3088862B661B6BFF34F8FBFF352
:1002D0006F8F00DF00BF00BF08ED00E0DFF80C000B
:1002E000016841F470010160704700BF88ED00E0D3
:1002F000EFF30980BFF36F8F134B1A681EF0100FD6
:1003000008BF20ED108A20E9F04F106008B44FF0CC
:10031000500080F31188BFF34F8FBFF36F8F11F040
:1003200054F94FF0000080F3118808BC1968086880
:10033000B0E8F04F1EF0100F08BFB0EC108A80F349
:100340000988BFF36F8F704798010020EFF3058095
:100350007047000010B5B6480088172846D2DFE87D
:1003600000F0F90C464748494A828384A2A3B2C2EE
:10037000C1C3C4C5C6C7C8C9CA0000214FF6FF70B3
:1003800009F0D2FDAB4809F0ECFDABA282211420AC
:1003900009F0F5FF4FF66861002009F0C5FDA94896
:1003A00009F0DFFDA8A26421822009F0E8FFA1483E
:1003B00009F0D7FDA4A2AA21502009F0E0FF40F2E5
:1003C000FC41002009F0B0FD9E4809F0CAFD9EA244
:1003D0004FF4A571822009F0D2FF964809F0C1FDC3
:1003E00099A24FF4C871502009F0C9FFB2E0B1E002
:1003F00000BF00BF00BF4FF66861002009F094FD08
:10040000904809F0AEFD91A26421782009F0B7FF71
:10041000884809F0A6FD8EA2AA21462009F0AFFF68
:100420008DA29B217F2009F0AAFF40F2FC41002011
:1004300009F07AFD834809F094FD84A24FF4A57178
:10044000782009F09CFF7B4809F08BFD83A24FF4D4
:10045000C871462009F093FF7FA240F281117F20EE
:1004600009F08DFF76E075E000BF45F2AA214FF656
:10047000FF7009F059FD734809F073FD79A26421FA
:10048000084609F07CFF45F2AA214FF6FF7009F0FB
:100490004BFD6C4809F065FD74A24FF4A571642012
:1004A00009F06DFF56E055E047F2C5514FF6FF7079
:1004B00009F03AFD634809F054FD6EA2C32196206D
:1004C00009F05DFF46E04EF2E3014FF6FF7009F0E0
:1004D0002BFD5C4809F045FD66A2C321962009F07A
:1004E0004EFF37E036E035E034E033E032E031E033
:1004F00030E02FE000BF4FF668614FF6FF7009F063
:1005000013FD504809F02DFD5BA26421084609F057
:1005100036FF484809F025FD58A2A5216E2009F0B4
:100520002EFF40F2FC414FF6FF7009F0FDFC4548FC
:1005300009F017FD53A24FF4A571642009F01FFFC5
:100540003C4809F00EFD50A240F28B116E2009F0DC
:1005500016FF00BF00BF10BD00BF0AF048FE08F044
:100560000CFE08F0ECFEFFF7F5FEF6E710B50020F4
:100570000CF03AFB01200CF037FB02200CF034FBAE
:1005800003200CF031FB10BD1CB54FF4E1313F48A6
:1005900009F02CF8FFF7EAFF09F050FC002003F007
:1005A00008FD0AF076FC0CF06CFA394800F000FA0D
:1005B000384908803648801C00F0FAF9364908802E
:1005C0003348001D00F0F4F9344908803048001F1A
:1005D00000F0EEF9324908802D48801E00F0E8F95D
:1005E0003049088003F026FA0020012103464FF429
:1005F0002062CDE900102CA1AFF2A30010F0AFFCF7
:1006000011F0ADF900BFFEE700BFFEE700BF5020CC
:1006100080F31188BFF34F8FBFF36F8F00BF00BF10
:10062000FEE7704710B508F0FBFE03F0D7FA10BDE7
:100630002C000020E400002030303A30303A3031D5
:1006400000000000DC000020302E35003135300085
:100650003430306D6C0000006D6C00003230306D55
:100660006C0000003135206D33000000303620680A
:100670000000000031350000302C32006D672F6C17
:1006800000000000372C30007048000000100140CE
:1006900004000808180000201A0000201C00002098
:1006A0001E000020200000204D795461736B000073
:1006B0000CB50020019000907648006840F480302E
:1006C0007449086000BF7348006800F4003000906F
:1006D0000198401C0190009818B90198B0F5A06FDE
:1006E000F1D16C48006800F4003010B10120009096
:1006F00001E0002000900098012846D16548403074
:10070000006840F0805063494031086062480068EA
:1007100040F48040604908605E48083000685D49E8
:10072000083108600846006840F400400860084648
:10073000006840F4A05008605848091F0860081F6E
:10074000006840F08070091F086000BF51480068D1
:1007500000F000700028F9D040F2052050490860F0
:100760004C480830006820F003004A49083108600E
:100770000846006840F00200086000BF45480830A5
:10078000006800F00C000828F8D10CBD10B54548F1
:10079000006840F47000434908603E48006840F03B
:1007A00001003C49086000203A4908310860394896
:1007B00000683D490840374908603C48091D086009
:1007C000081F006820F48020091F086000203149BC
:1007D0000C310860FFF76CFF4FF000603149803941
:1007E000086010BD70B50020002202230024022101
:1007F000284D08352D6805F00C0020B1042806D0DE
:10080000082834D107E02A4D2A4E356033E02A4DBE
:10081000284E35602FE01F4D2D1D2D68C5F38054E7
:100820001C4D2D1D2D6805F03F0154B1224DB5FB27
:10083000F1F5184E361D3668C6F3881605FB06F22C
:1008400009E01B4DB5FBF1F5124E361D3668C6F3B7
:10085000881605FB06F20F4D2D1D2D68C5F30145C9
:100860006D1C6B00B2FBF3F5124E356003E0104DCA
:10087000104E356000BF00BF064D08352D68C5F32A
:1008800003150E4E705D0B4D2D68C540094E356049
:1008900070BD00000038024000700040195440074D
:1008A000003C024088ED00E0FFFFF6FE103000241F
:1008B0000024F4000000002040787D0104000020A6
:1008C000704700BFFEE700BFFEE700BFFEE700BFC6
:1008D000FEE7704708B50020009040200FF0D9FADD
:1008E000012804D169460D48006810F07AF84020CC
:1008F0000FF0F3FA4FF480300FF0EFFA009848B1A0
:10090000009838B14FF0805005490860BFF34F8F11
:10091000BFF36F8F08BD704770477047900100208C
:1009200004ED00E010B50EF0E7FAF3200EF0FDFC48
:10093000022140200EF02CFB082801D0012010BD20
:100940001F4801881F480EF0F5FB082801D0012040
:10095000F5E71D4801881B48801C0EF0EBFB0828BA
:1009600001D00120EBE7194801881648001D0EF060
:10097000E1FB082801D00120E1E70F211148001F09
:100980000EF0D8FB082801D00120D8E706210D4839
:10099000801E0EF0CFFB082801D00120CFE70EF01B
:1009A000B8FA0020CBE7014600200A6890B27047F1
:1009B000014600200A6890B2022800DD002070473E
:1009C00018000020040008081A0000201C00002065
:1009D00010B5F648006807F01DFE00F0C4FB10BD1E
:1009E000704710B5F148006807F014FE00F0CBFA2C
:1009F00010BD10B5ED48006807F00CFE01F0D6F907
:100A000010BD704710B5EA48007830B101280BD00E
:100A1000022810D003281CD114E0E448006807F035
:100A2000F9FD00F081FC14E0E048006807F0F2FDF9
:100A300001F075F80DE0DD48006807F0EBFD00F00F
:100A400015FE06E0D948006807F0E4FD00F013FF4A
:100A500000BF00BF10BD704710B5D448006807F054
:100A6000D9FD00F080FB0020D149087010BD10B501
:100A7000CE48006807F0CEFD00F085FA0020CC4992
:100A8000087010BD10B5C948006807F0C3FD00F03C
:100A9000EDFD10BD10B5C548006807F0BBFD01F0C5
:100AA0003EF810BD10B5C148006807F0B3FD00F076
:100AB0005AFB0220BE49087010BD10B5BB48006843
:100AC00007F0A8FD00F05FFA0020B949087010BDDA
:100AD00010B5B648006807F09DFD00F025FC10BD7C
:100AE00010B5B248006807F095FD00F0C4FE10BDD7
:100AF00010B5AE48006807F08DFD00F034FB032010
:100B0000AB49087010BD10B5A848006807F082FD19
:100B100000F039FA0020A649087010BD10B5A348AE
:100B2000006807F077FD00F0FAFF10BD10B59F4890
:100B3000006807F06FFD00F099FD10BD10B59B48EF
:100B4000006807F067FD00F00EFB0120984908706F
:100B500010BD10B59548006807F05CFD00F013FA71
:100B600000209349087010BD10B59048006807F048
:100B700051FD00F07BFD10BD10B58C48006807F0FA
:100B800049FD00F0D1FB10BD10B58848006807F0A2
:100B900041FD00F0E8FA10BD10B58448006807F088
:100BA00039FD00F0F0F910BD10B58048006807F07D
:100BB00031FD01F01CFA10BD10B57C48006807F04B
:100BC00029FD01F095FD10BD10B57848006807F0CB
:100BD00021FD02F015FD10BD10B57448006807F046
:100BE00019FD01F0E3F810BD10B57048006807F07A
:100BF00011FD00F0C8F910BD70477047704710B57F
:100C00006A48006807F006FD01F08BFB10BD10B5C7
:100C10006648006807F0FEFC01F0C8F810BD10B58A
:100C20006248006807F0F6FC00F0ADF910BD7047AF
:100C30007047704710B55D48006807F0EBFC01F0A5
:100C4000D6F910BD10B55948006807F0E3FCFFF76E
:100C500069FE01F0ABF810BD10B55448006807F00C
:100C6000D9FCFFF75FFE00F08EF910BD10B551A062
:100C700008F069FD00205749088010BD10B556A046
:100C800008F061FD01205349088010BD10B55AA03D
:100C900008F059FD02204F49088010BD10B561A031
:100CA00008F051FD00206849088010BD10B567A00C
:100CB00008F049FD01206449088010BD10B56CA002
:100CC00008F041FD02206049088010BD10B571A0F8
:100CD00008F039FD00207749088010BD10B576A0D6
:100CE00008F031FD01207349088010BD10B57AA0CD
:100CF00008F029FD02206F49088010BD10B52B486F
:100D0000006807F087FC01F0F3FC10BD10B5274820
:100D1000006807F07FFC01F0EBFC10BD10B5234824
:100D2000006807F077FC01F0E3FC10BD10B51F4828
:100D3000006807F06FFC01F0DBFC10BD10B51B482C
:100D4000006807F067FC01F0D3FC10BD10B5174830
:100D5000006807F05FFC01F0CBFC10BD10B5134834
:100D6000006807F057FC01F0C3FC10BD10B50F4838
:100D7000006807F04FFC01F0BBFC10BD10B50B483C
:100D8000006807F047FC01F0B3FC10BD10B5074840
:100D9000006807F03FFC01F0ABFC10BD10B5034844
:100DA000006807F037FC01F001F810BD28000020B2
:100DB00016000020506172616D6574657273576131
:100DC00074657253637265656E5F496E646F6F72AE
:100DD0000D0A000018000020506172616D65746595
:100DE0007273576174657253637265656E5F4F7598
:100DF00074646F6F720D0A00506172616D65746585
:100E00007273576174657253637265656E5F45787E
:100E10007472656D65436F6E646974696F6E0D0AF7
:100E200000000000506172616D65746572735761F6
:100E300074657253637265656E5F4C6573733230AF
:100E40006F430D0A000000001A000020506172611B
:100E50006D6574657273576174657253637265650D
:100E60006E5F32306F435F33306F430D0A00000016
:100E7000506172616D657465727357617465725308
:100E8000637265656E5F4D6F726533306F430D0A37
:100E900000000000506172616D6574657273576186
:100EA00074657253637265656E5F536F66740D0A85
:100EB000000000001C000020506172616D657465C7
:100EC0007273576174657253637265656E5F4861D2
:100ED00072640D0A00000000506172616D657465F6
:100EE0007273576174657253637265656E5F5665A0
:100EF0007279486172640D0A0000000010B516484E
:100F0000006807F087FB00F03EF810BD704770479F
:100F1000704710B51048006807F07CFB02F08AFDAE
:100F200010BD10B50C48006807F074FB00F03EFFE0
:100F300010BD10B50848006807F06CFB00F023F8FE
:100F400010BD70477047704710B50348006807F040
:100F500061FB02F055FB10BD2800002038B5FE48AB
:100F60004FF6FF732022D2210090012008F0BAF939
:100F70000446FA4806F084FFF84B2246F021FA2096
:100F800006F00BFC38BD08B5F5A008F0DCFBFFF758
:100F9000E5FF002009F069F84FF6FF702023D22208
:100FA000F0210090FA2009F036FCF34808F0D9FF50
:100FB000F2A02023D222F0210090FA2009F07FFE37
:100FC0004FF6FF701C235A220C210090142009F0C8
:100FD00022FCED4808F0C5FF4FF6FF71002008F035
:100FE000A3FFEAA214210E2009F0C9F900214FF64F
:100FF000FF7008F099FFE04808F0B3FFE5A24FF456
:101000009171142009F0BBF9E6A21421FA2009F02D
:10101000B6F94FF66860A023D2223C21009014203C
:1010200009F0F9FB40F2FC40A023D2223C210090C1
:10103000FA2009F0F0FB4FF66861002008F074FF19
:10104000CD4808F08EFFDAA21E21502009F097F952
:10105000DAA2AF21A02009F092F940F2FC41002071
:1010600008F062FFC44808F07CFFD6A24FF48271FA
:10107000502009F084F9D5A24FF4C871A02009F0DE
:101080007EF9B6480121C26990470120D049088005
:10109000B248D049086008BD10B5FFF774FF10BD15
:1010A0002DE9F843CC484FF6FF731E22D221009061
:1010B000012008F017F90446C8484FF6FF731E22B6
:1010C000D2210090022008F00DF90546C448002303
:1010D0005022D2210090032008F004F90646C148AE
:1010E00000235022D2210090042008F0FBF807468C
:1010F000BD4800235022D2210090052008F0F2F8CC
:101100008046BA4800235022D2210090062008F0E1
:10111000E9F88146B64806F0B3FEB54B2246F02109
:10112000FA2006F03AFBB24B2A46F021142006F0D2
:1011300034FBAF4B32463C21142006F02EFBAC4B67
:101140003A463C21FA2006F028FBA94B424696215C
:10115000142006F022FBA64B4A469621FA2006F000
:101160001CFBBDE8F88308B5A2A008F0ECFAFFF775
:1011700097FF002008F079FF4FF6FF701C235A22DA
:101180000C210090142009F046FB7F4808F0E9FE8E
:101190004FF6FF71002008F0C7FE7CA214210E203C
:1011A00009F0EDF800214FF6FF7008F0BDFE72481F
:1011B00008F0D7FE71A24FF4BE71142009F0DFF8D9
:1011C000D22350223C21142009F022FAD2235022AB
:1011D0003C21FA2009F01CFAD22350229621142037
:1011E00009F016FAD22350229621FA2009F010FABB
:1011F0004FF6FF701E23D222F0210090142009F038
:101200000AFBD2231E22F021FA2009F001FA002164
:101210004FF6FF7008F088FE574808F0A2FE7BA04A
:101220005023D2223C210090142009F048FD7AA0DE
:101230005023D2223C210090FA2009F040FD79A0F1
:101240005023D22296210090142009F038FD78A076
:101250005023D22296210090FA2009F030FD78A088
:101260001E23D222F0210090FA2009F028FD4FF62B
:10127000FF71002008F058FE74A01E23D222F02136
:101280000090142009F01BFD59480121C2699047C4
:1012900002204F49088056484E49086008BDF8B5FD
:1012A0006E484FF6FF731E22D2210090012008F0F5
:1012B00019F804466A484FF6FF731E22D2210090A7
:1012C000022008F00FF80546664840F2FC433C2235
:1012D000D2210090032008F005F8064662484FF638
:1012E00068633C22D2210090042007F0FBFF0746F0
:1012F0005E4806F0C5FD5D4B2246F021FA2006F05F
:101300004CFA5A4B2A46F021142006F046FA574B65
:101310003246AA21142006F040FA544B3A46AA213C
:10132000FA2006F03AFAF8BD08B551A008F00BFA19
:10133000FFF7B5FF002008F098FE4FF6FF701C2362
:101340005A220C210090142009F065FA0E4808F08A
:1013500008FE4FF6FF719DE0D1090008F80100205A
:101360004372656174655F5374617274536372652F
:10137000656E0D0A00000000E4000020534554543F
:10138000494E475300000000DC0000205449544CF3
:101390004500000043484155205048554F432056D2
:1013A0005500000042414348204B484F4100000097
:1013B00043484C4F52494E45000000006D672F6C6A
:1013C0000000000050482D2D000000007048000073
:1013D0002C00002028000020E1090008E309000893
:1013E000F3090008030A0008050A0008570A000864
:1013F0009C0200204372656174655F536574746973
:101400006E677353637265656E0D0A0050415241F9
:101410004D4554455253000043414C4942524154BA
:10142000494F4E00444F53494E47205445535400B2
:1014300054595045204F462050524F42450000001D
:101440004C414E4755414745530000004241434BF4
:1014500020544F205354415254000000590A0008B0
:101460006F0A0008850A0008950A0008400300205A
:101470004372656174655F446F73696E6754657329
:1014800074537461727453746172745363726565DA
:101490006E0D0A00002008F047FDAFF21012142173
:1014A0000E2008F06CFF00214FF6FF7008F03CFDA5
:1014B000FE4808F056FDAFF294024FF4AA711420D2
:1014C00008F05DFF4FF668606423D2223C21009053
:1014D000142009F0A0F940F2FC406423D2223C2100
:1014E0000090FA2009F097F94FF66861002008F0A3
:1014F0001BFDEE4808F035FDEDA21E21462008F048
:101500003EFF40F2FC41002008F00EFDE74808F0E5
:1015100028FDAFF248124FF48271462008F02FFFE9
:101520004FF6FF701E23D222F0210090142009F004
:1015300072F94FF6FF701E23D222F0210090FA209C
:1015400009F069F94FF6686008F0FFFCD2233C22ED
:10155000AA21142009F05CF840F2FC4008F0F5FCE8
:10156000D2233C22AA21FA2009F052F8CF4808F0F1
:10157000F8FC00214FF6FF7008F0D6FCAFF22C10FB
:101580003C23D222AA210090142009F098FBAFF24C
:101590003C103C23D222AA210090FA2009F08FFBB4
:1015A0004FF6FF71002008F0BFFCC3A01E23D2221B
:1015B000F0210090FA2009F082FBAFF270101E2398
:1015C000D222F0210090142009F079FBBC480121BF
:1015D000C26990470320BB490880B948BA490860EE
:1015E00008BDF8B5B9484FF6FF731E22D22100900E
:1015F000012007F077FE0446B5484FF6FF731E2220
:10160000D2210090022007F06DFE0546B14840F25D
:10161000FC433C22D2210090032007F063FE0646E3
:10162000AD484FF668633C22D2210090042007F0B9
:1016300059FE0746A94806F023FCA84B2246F02194
:10164000FA2006F0AAF8A54B2A46F021142006F04D
:10165000A4F8A24B3246AA21142006F09EF89F4B14
:101660003A46AA21FA2006F098F8F8BD08B59CA0E1
:1016700008F069F8FFF7B5FF002008F0F6FC4FF618
:10168000FF701C235A220C210090142009F0C3F88B
:101690009C4808F066FC4FF6FF71002008F044FCFF
:1016A000AFF2183214210E2008F069FE00214FF627
:1016B000FF7008F039FC7D4808F053FCAFF29C2223
:1016C0004FF4AA71142008F05AFE4FF668606423A4
:1016D000D2223C210090142009F09DF840F2FC40F9
:1016E0006423D2223C210090FA2009F094F84FF6AE
:1016F0006861002008F018FC6C4808F032FC6CA20D
:101700001E21462008F03BFE40F2FC41002008F07C
:101710000BFC7C4808F025FC644808F022FCAFF282
:1017200054324FF48271462008F029FE4FF6FF70C4
:101730001E23D222F0210090142009F06CF84FF6FD
:10174000FF701E23D222F0210090FA2009F063F8E6
:101750004FF6686008F0F9FBD2233C22AA2114203E
:1017600008F056FF40F2FC4008F0EFFBD2233C2289
:10177000AA21FA2008F04CFF4C4808F0F2FB0021A7
:101780004FF6FF7008F0D0FB5FA03C23D222AA21C5
:101790000090142009F093FAAFF248303C23D22293
:1017A000AA210090FA2009F08AFA4FF6FF71002072
:1017B00008F0BAFB40A01E23D222F0210090FA20AC
:1017C00009F07DFAAFF27C301E23D222F021009086
:1017D000142009F074FA41480121C269904704209D
:1017E000384908803D483849086008BDF8B5484880
:1017F0004FF6FF731E22D2210090012007F072FDE8
:10180000044644484FF6FF731E22D2210090022066
:1018100007F068FD0546404840F2FC433C22D221D7
:101820000090032007F05EFD06463C484FF66863D3
:101830003C22D2210090042007F054FD074638488E
:1018400006F01EFB364B2246F021FA2005F0A5FFDC
:10185000334B2A46F021142005F09FFF304B3246CF
:10186000AA21142005F099FF2D4B3A46AA21FA200F
:1018700005F093FFF8BD08B52AA007F064FFFFF755
:10188000B5FF002008F0F1FB4FF6FF701C235A2231
:101890000C210090142008F0BEFF1A4808F061FBEC
:1018A0004FF6FF71002008F03FFB4DE0E400002000
:1018B000444953494E462E004241434B000000002C
:1018C000400300202C00002028000020A50A00086A
:1018D000BB0A0008D10A0008E10A0008E40300205E
:1018E0004372656174655F446F73696E67546573B5
:1018F0007453746F70537461727453637265656E60
:101900000D0A0000DC00002053544F50000000007E
:10191000F10A0008070B00081D0B00082D0B00083A
:10192000880400204372656174655F446F73696E5B
:10193000675465737453746F7053746F705363722C
:1019400065656E0D0A000000AFF2C05214210E2032
:1019500008F015FD00214FF6FF7008F0E5FAFA488F
:1019600008F0FFFAAFF244524FF4AA71142008F0C5
:1019700006FD4FF668606423D2223C2100901420BB
:1019800008F049FF40F2FC406423D2223C21009041
:10199000FA2008F040FF4FF66861002008F0C4FA12
:1019A000E94808F0DEFAAFF2F8021E21462008F0FE
:1019B000E6FC40F2FC41002008F0B6FAE24808F0EC
:1019C000D0FAAFF2F8524FF48271462008F0D7FCFB
:1019D0004FF6FF701E23D222F0210090142008F051
:1019E0001AFF4FF6FF701E23D222F0210090FA203A
:1019F00008F011FF4FF6686008F0A7FAD2233C22E6
:101A0000AA21142008F004FE40F2FC4008F09DFAE0
:101A1000D2233C22AA21FA2008F0FAFDCA4808F095
:101A2000A0FA00214FF6FF7008F07EFAAFF22810FE
:101A30003C23D222AA210090142009F040F9AFF2F1
:101A400038103C23D222AA210090FA2009F037F95D
:101A50004FF6FF71002008F067FAAFF2A4101E23C2
:101A6000D222F0210090FA2009F029F9AFF2246087
:101A70001E23D222F0210090142009F020F9B3484F
:101A80000121C26990470520B1490880AF48B1499A
:101A9000086008BDF8B5B0484FF6FF731E22D2218A
:101AA0000090012007F01EFC0446AC484FF6FF737F
:101AB0001E22D2210090022007F014FC0546A848FF
:101AC00040F2FC433C22D2210090032007F00AFCA4
:101AD0000646A4484FF668633C22D22100900420B9
:101AE00007F000FC0746A04806F0CAF99E4B2246C4
:101AF000F021FA2005F051FE9B4B2A46F0211420DC
:101B000005F04BFE984B3246AA21142005F045FE05
:101B1000954B3A46AA21FA2005F03FFEF8BD08B5DC
:101B200092A007F010FEFFF7B5FF002008F09DFA25
:101B30004FF6FF701C235A220C210090142008F04D
:101B40006AFE934808F00DFA4FF6FF71002008F086
:101B5000EBF9AFF2C87214210E2008F010FC00213E
:101B60004FF6FF7008F0E0F9774808F0FAF9AFF2A5
:101B70004C724FF4AA71142008F001FC4FF6686013
:101B80006423D2223C210090142008F044FE40F24D
:101B9000FC406423D2223C210090FA2008F03BFE56
:101BA0004FF66861002008F0BFF9674808F0D9F9DE
:101BB000AFF204321E21462008F0E1FB40F2FC4166
:101BC000002008F0B1F9604808F0CBF9AFF6040244
:101BD0004FF48271462008F0D2FB4FF6FF701E23AF
:101BE000D222F0210090142008F015FE4FF6FF706D
:101BF0001E23D222F0210090FA2008F00CFE4FF6AE
:101C0000686008F0A2F9D2233C22AA21142008F02F
:101C1000FFFC40F2FC4008F098F9D2233C22AA21B4
:101C2000FA2008F0F5FC484808F09BF900214FF62F
:101C3000FF7008F079F9AFF2E4703C23D222AA21B8
:101C40000090142009F03BF8AFF244303C23D2223C
:101C5000AA210090FA2009F032F84FF6FF71002017
:101C600008F062F9AFF2B0301E23D222F0210090CA
:101C7000FA2009F024F8AFF62C001E23D222F0211E
:101C80000090142009F01BF837480121C2699047E1
:101C900006202F49088034482E49086008BD2DE9E8
:101CA000F8433C484FF6FF731E22D22100900120DA
:101CB00007F018FB044638484FF6FF731E22D22166
:101CC0000090022007F00EFB054634480023502206
:101CD000D2210090032007F005FB06463048002380
:101CE0005022D2210090042007F0FCFA07462D482C
:101CF00040F2FC435022D2210090052007F0F2FA76
:101D00008046294806F0BCF8274B2246F021FA20ED
:101D100005F043FD244B2A46F021142005F03DFD3B
:101D2000214B32463C21142005F037FD1E4B3A462C
:101D30003C21FA2005F031FD1B4B42469621FA204A
:101D400005F02BFDBDE8F883E400002088040020A6
:101D50002C000020280000203D0B0008530B000839
:101D6000690B0008790B00082C050020437265619F
:101D700074655F446F73696E6754657374537461FF
:101D8000727453746F7053637265656E0D0A000050
:101D9000DC000020890B0008990B0008A90B000843
:101DA000B90B0008C90B0008D005002008B5F9A040
:101DB00007F0C9FCFFF773FF002008F056F94FF653
:101DC000FF701C235A220C210090142008F023FDE0
:101DD000F74808F0C6F84FF6FF71002008F0A4F8A5
:101DE000AFF6582214210E2008F0C9FA00214FF650
:101DF000FF7008F099F8EF4808F0B3F8AFF6F41266
:101E000040F26311142008F0BAFAD22350223C2188
:101E1000142008F0FDFBD22350223C21FA2008F0C8
:101E2000F7FB4FF668605023D222962100901420D1
:101E300008F0F1FC40F2FC405023D22296210090A1
:101E4000FA2008F0E8FC00214FF6FF7008F06CF86B
:101E50004FF66861002008F067F8D7A05023D2221F
:101E600096210090142008F02AFF40F2FC41002047
:101E700008F05AF8AFF6AC205023D22296210090F9
:101E8000FA2008F01CFF4FF6FF701E23D222F0212B
:101E90000090142008F0BFFC4FF6FF701E23D222E2
:101EA000F0210090FA2008F0B6FCC24808F059F87A
:101EB00000214FF6FF7008F037F8C3A05023D2225C
:101EC0003C210090142008F0FAFEC1A05023D22239
:101ED0003C210090FA2008F0F2FE4FF6FF7100203E
:101EE00008F022F8AFF230601E23D222F0210090D9
:101EF000FA2008F0E4FEAFF6AC201E23D222F02137
:101F00000090142008F0DBFE4FF6FF71002008F06F
:101F10000BF8B1480121C26990470720AF490880FA
:101F2000AD48AF49086008BD2DE9F843AD484FF60C
:101F3000FF731E22D2210090012007F0D3F904463E
:101F4000A9484FF6FF731E22D2210090022007F00D
:101F5000C9F90546A54803233C2264210090184690
:101F600007F0C0F90646A24803233C2264210090F2
:101F7000042007F0B7F907469E4803233C22D221EC
:101F80000090052007F0AEF980469B4801236422AB
:101F9000D2210090062007F0A5F98146974805F068
:101FA0006FFF964B2246F021FA2005F0F6FB934B8B
:101FB0002A46F021142005F0F0FB904B3246AA216E
:101FC000142005F0EAFB8D4B3A46AA21822005F049
:101FD000E4FB8A4B4246AA21FA2005F0DEFB874B40
:101FE0004A463C21FA2005F0D8FBBDE8F88308B545
:101FF00083A007F0A8FBFFF797FF002008F035F853
:102000004FF6FF701C235A220C210090142008F078
:1020100002FC674807F0A5FF4FF6FF71002007F0AC
:1020200083FFAFF6984214210E2008F0A8F9002192
:102030004FF6FF7007F078FF5E4807F092FF78A236
:102040004FF49171142008F09AF945F2AA20642304
:10205000D2223C210090142008F0DDFB45F2AA209A
:102060006423D2223C210090FA2008F0D4FB45F2F0
:10207000AA2007F070FF4F4807F073FF6CA21E21E3
:10208000462008F07CF9002014233C228C2100908B
:102090005F2008F0C0FB45F2AA2007F05CFF45482E
:1020A00007F05FFF65A2FF21462008F068F94FF6B0
:1020B000FF701E23D222F0210090142008F0ABFB09
:1020C0004FF6FF701E23D222F0210090FA2008F074
:1020D000A2FB4FF6FF7007F038FF64233C22AA21D1
:1020E000142008F095FA64233C22AA21822008F0EB
:1020F0008FFAD2233C22AA21FA2008F089FA2C4830
:1021000007F02FFF00214FF6FF7007F00DFF50A0E2
:102110003C236422AA210090142008F0D0FD4DA099
:102120003C236422AA210090822008F0C8FD2148A7
:1021300007F017FF48A03C23D222AA210090FA20E2
:1021400008F0BDFD4FF6FF71002007F0EDFEAFF681
:1021500098001E23D222F0210090FA2008F0AFFD53
:10216000AFF618501E23D222F0210090142008F060
:10217000A6FD4FF6FF71002007F0D6FE1F48012193
:10218000C26990470820154908801C481449086016
:1021900008BD00004372656174655F506172616DD6
:1021A000657465727353637265656E0D0A00000095
:1021B000DC000020E4000020444953494E464543DA
:1021C00054494F4E00000000504F4F4C000000009B
:1021D0005741544552000000D00500202C0000203B
:1021E00028000020D90B0008E90B0008F90B0008B3
:1021F000FB0B0008FD0B0008FF0B00087406002015
:102200004372656174655F506172616D657465727A
:1022100073566F6C756D6553637265656E0D0A005C
:10222000504F4F4C20504152414D45544552530060
:10223000504F4F4C20564F4C554D450046494C543D
:10224000524154494F4E20504552494F44000000DE
:102250002B0000002D0000004F4B00002DE9F8433B
:10226000FD484FF6FF731E22D2210090012007F097
:1022700039F80446F9484FF6FF731E22D221009028
:10228000022007F02FF80546F54803233C2264217D
:102290000090184607F026F80646F24803233C2231
:1022A00064210090042007F01DF80746EE48032340
:1022B0003C22D2210090052007F014F88046EB481C
:1022C00001236422D2210090062007F00BF88146FA
:1022D000E74805F0D5FDE64B2246F021FA2005F04F
:1022E0005CFAE34B2A46F021142005F056FAE04B45
:1022F0003246AA21142005F050FADD4B3A46AA21B5
:10230000822005F04AFADA4B4246AA21FA2005F06B
:1023100044FAD74B4A463C21142005F03EFABDE86A
:10232000F88308B5D3A007F00EFAFFF797FF002057
:1023300007F09BFE4FF6FF701C235A220C210090E1
:10234000142008F068FAD64807F00BFE4FF6FF712C
:10235000002007F0E9FDAFF6CC7214210E2008F042
:102360000EF800214FF6FF7007F0DEFDCD4807F0B4
:10237000F8FDAFF254124FF49171142007F0FFFFF3
:1023800045F2AA206423D2223C210090142008F0B8
:1023900042FA45F2AA206423D2223C210090FA207E
:1023A00008F039FA002014233C228C21009040F2DE
:1023B000451008F030FA45F2AA214FF6FF7007F0F9
:1023C000B3FDB84807F0CDFDAFF29C121E214620A8
:1023D00007F0D5FF45F2AA214FF6FF7007F0A4FDE4
:1023E000B04807F0BEFDAFF2AC12FF21462007F067
:1023F000C6FF4FF6FF701E23D222F021009014205A
:1024000008F009FA4FF6FF701E23D222F021009047
:10241000FA2008F000FA4FF6FF7007F096FD6423EB
:102420003C22AA21142008F0F3F864233C22AA21BC
:10243000822008F0EDF8D2233C22AA21FA2008F0ED
:10244000E7F8974807F08DFD00214FF6FF7007F081
:102450006BFDAFF204203C236422AA2100901420DB
:1024600008F02DFCAFF214203C236422AA21009036
:10247000822008F024FC8B4807F073FDAFF228207F
:102480003C23D222AA210090FA2008F018FC4FF633
:10249000FF71002007F048FDAFF6E4301E23D22282
:1024A000F0210090FA2008F00AFC7F481E23D22277
:1024B000F0210090142008F002FC4FF6FF7100207C
:1024C00007F032FD6A480121C26990470920774927
:1024D000088067487649086008BD2DE9F04F87B04D
:1024E000012002F043FB0446022002F03FFB0546B8
:1024F000032002F03BFB06466E484FF6FF731E2298
:10250000D2210090042006F0EDFE07466A484FF6FF
:10251000FF731E22D2210090052006F0E3FE8046C4
:10252000664A5EA12046236998478146644A5BA1BA
:102530002046236998478246624A58A1204623696B
:1025400098478346604A55A128462B6998470690CC
:102550005E4A52A128462B69984705905C4A4FA1D4
:1025600028462B69984704905A4A4CA13046336953
:1025700098470390584A49A13046336998470290DA
:10258000564A46A13046336998470190544805F0B1
:1025900077FC534B3A46F021FA2005F0FEF8504BF9
:1025A0004246F021142005F0F8F84D4B4A465521DB
:1025B0004FF4877005F0F1F8494B524655218800D9
:1025C00005F0EBF8464B5A4655214FF4CD7005F017
:1025D000E4F8434B8C214FF48770069A05F0DDF840
:1025E0003F4B8C214FF4AA70059A05F0D6F83C4B6E
:1025F0008C214FF4CD70049A05F0CFF8384BCD21E3
:102600004FF48770039A05F0C8F8354BCD214FF48D
:10261000AA70029A05F0C1F8314BCD214800019A09
:1026200005F0BBF80121201D2E4A128850F8220027
:1026300040680176281D2C4A128850F82200406814
:102640000176301D294A128850F822004068017630
:1026500007B0BDE8F08F00000F0C00081F0C000849
:102660002F0C0008310C0008330C0008350C000852
:10267000180700204372656174655F506172616D77
:102680006574657273466974726174696F6E5065C2
:1026900072696F6453637265656E0D0A0000000015
:1026A000DC000020E40000204C1400082C00002076
:1026B00028000020450C0008590C00086D0C00088B
:1026C0007D0C00088D0C00089D0C0008AD0C000866
:1026D000BD0C0008CD0C0008DD0C0008ED0C000856
:1026E000BC070020180000201A0000201C00002059
:1026F00008B5FEA007F027F8FFF7EFFE002007F06F
:10270000B4FC4FF6FF701C235A220C2100901420B9
:1027100008F081F8FD4807F024FC4FF6FF71002017
:1027200007F002FCFA4A14210E2007F028FE0021CF
:102730004FF6FF7007F0F8FBF64807F012FCF6A220
:102740004FF48C71142007F01AFEF84807F009FCCA
:10275000AFF28C521E21372007F011FEF4A21E2189
:10276000782007F00CFEAFF298521E21872007F068
:1027700006FEF1A21E21962007F001FEAFF2B05234
:102780001E21B92007F0FBFDEEA21E21C82007F094
:10279000F6FDEF4807F0E5FBEEA2FF21372007F03A
:1027A000EEFDEEA24FF4A071372007F0E8FDEDA298
:1027B000FF21782007F0E3FDECA24FF4A071782010
:1027C00007F0DDFDEBA240F28B11782007F0D7FD7A
:1027D000EAA240F20911B92007F0D1FDE9A240F2C6
:1027E0004F11B92007F0CBFDE8A240F28111B920CA
:1027F00007F0C5FD4FF4784007F0A7FBE6A24FF4C1
:10280000C371372007F0BBFDE5A240F281114620DD
:1028100007F0B5FD4FF6FF701E23D222F021009085
:10282000142007F0F8FF4FF6FF701E23D222F0218C
:102830000090FA2007F0EFFF4FF6FF71002007F03D
:1028400073FBAFF68C701E23D222F0210090FA2089
:1028500008F035FAAE48C0301E23D222F021009095
:10286000142008F02CFA4FF6FF71002007F05CFBF3
:10287000CE480121C26990470A20CD490880CB4843
:10288000CC49086008BD38B5CB4847F2C5531E2275
:102890003C210090012006F025FD0446C74805F0C4
:1028A000EFFAC64B2246AA214FF4967004F075FF4A
:1028B00038BD08B5C2A006F046FFFFF7E4FF47F2B7
:1028C000C550AC234FF48C7232210090642007F085
:1028D000A2FF47F2C5514FF6FF7007F025FB934862
:1028E00007F03FFBBFA278213C2007F048FDC1A2C2
:1028F0007821502007F043FDC1A27821642007F021
:102900003EFD934807F02DFBBFA2E621962007F07D
:1029100036FDBFA2E621A02007F031FD4FF6FF7083
:1029200007F013FB3C231E22AA214FF4967007F0F8
:102930006FFE47F2C5514FF6FF7007F0F5FA7B487E
:1029400007F00FFBAFF2F0601E233C22AA2100909B
:102950004FF4967008F0B3F998480121C269904786
:102960000B209349088095489249086008BD38B506
:10297000A94847F2C5531E223C210090012006F0D1
:10298000B1FC0446A54805F07BFAA44B2246AA21D7
:102990004FF4967004F001FF38BD08B5A0A006F012
:1029A000D2FEFFF7E4FF4EF2E300AC234FF48C724B
:1029B00032210090642007F02EFF4EF2E3014FF623
:1029C000FF7007F0B1FA594807F0CBFA9EA27821C0
:1029D0003C2007F0D4FCA1A27821502007F0CFFCC6
:1029E00087A27821642007F0CAFC594807F0B9FA99
:1029F00085A2E621962007F0C2FC85A2E621A02050
:102A000007F0BDFC4FF6FF7007F09FFA3C231E2233
:102A1000AA214FF4967007F0FBFD4EF2E3014FF64A
:102A2000FF7007F081FA414807F09BFAAFF2D870C7
:102A30001E233C22AA2100904FF4967008F03FF923
:102A400076480121C26990470C2059490880734893
:102A50005849086008BD38B56F4847F2C5531E2273
:102A60003C210090012006F03DFC04467F4805F023
:102A700007FA7E4B2246AA214FF4967004F08DFE91
:102A800038BD08B57AA006F05EFEFFF7E4FF47F216
:102A9000C550AC234FF48C7232210090642007F0B3
:102AA000BAFE47F2C5514FF6FF7007F03DFA1F48D6
:102AB00007F057FA77A278213C2007F060FC79A252
:102AC00078215A2007F05BFC7EA278216E2007F067
:102AD00056FC83A27821822007F051FC4FF6FF704C
:102AE00007F033FA3C231E22AA2109E143726561F3
:102AF00074655F506172616D65746572735761745E
:102B0000657253637265656E0D0A0000DC0000207B
:102B10008C130008E40000205741544552205041D6
:102B200052414D455445525300000000040100201D
:102B3000415645524147450054454D504552415438
:102B400055524500484152444E4553530000000041
:102B5000F4000020696E646F6F7200006F7574641A
:102B60006F6F72003C2032306F43000032302D33E3
:102B7000306F43003E2033306F430000736F667444
:102B800000000000686172640000000076657279E0
:102B9000206861726400000065787472656D65007C
:102BA000636F6E646974696F6E000000BC0700207B
:102BB0002C00002028000020FD0C000860080020E8
:102BC00053686F775F5761726E696E674D617869A0
:102BD0006D616C53616665747953637265656E0DE2
:102BE0000A0000004D6178696D616C207361666553
:102BF0007479000064697366656374696F6E0000C0
:102C0000646F736167653A006D6C2F6D330000006F
:102C1000686F7572000000000D0D000804090020A7
:102C200053686F775F5761726E696E67457874722B
:102C3000656D65436F6E646974696F6E5363726529
:102C4000656E0D0A0000000045787472656D6520A0
:102C5000636F6E646974696F6E0000006D617869FE
:102C60006D616C207361666574790000A8090020AD
:102C700053686F775F5761726E696E6757617465ED
:102C800072486172646E65737353637265656E0D2D
:102C90000A000000576174657220686172646E6595
:102CA00073730000536F667420746F206D6F6465DA
:102CB000726174656C792068617264203C39206FA0
:102CC0006448000049662070482076616C75652074
:102CD000646F6573206E6F74206368616E67650052
:102CE00042616368204B686F612073746F7073205A
:102CF000616674657220313020646F7365732E00D5
:102D00004FF4967007F084FC47F2C5514FF6FF7000
:102D100007F00AF9AFF6C0201E233C22AA2100903A
:102D20004FF4967007F0CBFFFD480121C269904730
:102D30000E20FC490880FA48FB49086008BD38B5F8
:102D4000FA484EF2E3031E223C210090012006F0D7
:102D5000C9FA0446F64805F093F8F54B2246AA2135
:102D60004FF4967004F019FD38BD08B5F1A006F0D7
:102D7000EAFCFFF7E4FF4EF2E300AC234FF48C7261
:102D800032210090642007F046FD4EF2E3014FF639
:102D9000FF7007F0C9F8F24807F0E3F8F1A27821D4
:102DA0003C2007F0ECFAF4A278215A2007F0E7FA69
:102DB000F8A27821084607F0E2FAFEA278218C20DA
:102DC00007F0DDFA4FF6FF7007F0BFF83C231E2234
:102DD000AA214FF4967007F01BFC4EF2E3014FF668
:102DE000FF7007F0A1F8AFF690301E233C22AA2115
:102DF00000904FF4967007F062FFCD480121C26940
:102E000090470D20C7490880C948C749086008BDD8
:102E100038B5ED484EF2E3031E223C21009001201C
:102E200006F060FA0446E94805F02AF8E74B224626
:102E3000AA214FF4967004F0B0FC38BD08B5E4A0A8
:102E400006F081FCFFF7E4FF4EF2E300AC234FF401
:102E50008C7232210090642007F0DDFC4EF2E30119
:102E60004FF6FF7007F060F8BD4807F07AF8BDA292
:102E700078213C2007F083FABFA278215A2007F07E
:102E80007EFADDA27821084607F079FAE2A27821DD
:102E90008C2007F074FA4FF6FF7007F056F83C23C9
:102EA0001E22AA214FF4967007F0B2FB4EF2E30106
:102EB0004FF6FF7007F038F8AFF664401E233C224F
:102EC000AA2100904FF4967007F0F9FEBF48012147
:102ED000C26990470F2093490880BC489249086016
:102EE00008BD38B5D34847F2C5531E223C21009097
:102EF000012006F0F7F90446CF4804F0C1FFCE4B9D
:102F00002246AA214FF4967004F047FC38BD08B55C
:102F1000CAA006F018FCFFF7E4FF47F2C550AC2347
:102F20004FF48C7232210090642007F074FC47F259
:102F3000C5514FF6FF7006F0F7FF894807F011F80A
:102F400088A278213C2007F01AFAC6A278215A20DC
:102F500007F015FACAA278216E2007F010FA4FF692
:102F6000FF7006F0F2FF3C231E22AA214FF4967058
:102F700007F04EFB47F2C5514FF6FF7006F0D4FF45
:102F8000AFF62C501E233C22AA2100904FF49670DD
:102F900007F095FEA8480121C269904710206149B9
:102FA0000880A5486049086008BD38B5BA4847F2AE
:102FB000C5531E223C210090012006F093F90446DF
:102FC000B64804F05DFFB54B2246AA214FF4967037
:102FD00004F0E3FB38BD08B5B1A006F0B4FBFFF781
:102FE000E4FF47F2C550AC234FF48C7232210090BD
:102FF000642007F010FC47F2C5514FF6FF7006F051
:1030000093FF574806F0ADFF56A278213C2007F009
:10301000B6F9B0A278215A2007F0B1F9B5A278210B
:103020006E2007F0ACF9BAA27821822007F0A7F948
:103030004FF6FF7006F089FF3C231E22AA214FF4B1
:10304000967007F0E5FA47F2C5514FF6FF7006F0AB
:103050006BFFAFF6FC501E233C22AA2100904FF4D8
:10306000967007F02CFE8D480121C269904711200F
:103070002C49088089482C49086008BD38B5A94802
:103080004EF2E3031E223C210090012006F02AF9B3
:103090000446A54804F0F4FEA34B2246AA214FF4AF
:1030A000967004F07AFB38BD08B5A0A006F04BFB83
:1030B000FFF7E4FF4EF2E300AC234FF48C723221B1
:1030C0000090642007F0A7FB4EF2E3014FF6FF707B
:1030D00006F02AFF224806F044FF22A278213C2075
:1030E00007F04DF97BA278215A2007F048F981A218
:1030F00078216E2007F043F985A27821822007F01D
:103100003EF94FF6FF7006F020FF3C231E22AA2155
:103110004FF4967007F07CFA4EF2E30122E10000D2
:10312000A80900202C000020280000202D0D0008F8
:103130004C0A002053686F775F5761726E696E6743
:1031400050726F626543616C6962726174696F6E1F
:1031500036325F373853637265656E0D0A000000C2
:103160000401002050524F42452043414C494252F5
:103170004154494F4E00000050726F6265206361F8
:103180006E6E6F742062652063616C696272617437
:1031900065210000596F75206172652063616C695B
:1031A00062726174696E67206F75747369646520FB
:1031B0007468650072616E6765206F6620362E3216
:1031C000202D20372E3821003D0D0008F00A002068
:1031D00053686F775F5761726E696E6750726F6286
:1031E0006543616C6962726174696F6E5363726585
:1031F000656E0D0A0000000057652061726520723F
:1032000065636F6D6D656E646564207265706C6179
:1032100063696E67000000007468652070726F62F9
:103220006520776974682061206E6577206F6E6510
:103230002E0000004D0D0008940B002053686F779E
:103240005F5761726E696E6750726F626543616C41
:103250006962726174696F6E373053637265656E4F
:103260000D0A000043616C6962726174696F6E20BF
:103270007265636F6D6D656E6465642062790000D0
:103280007573696E67206275666665722070482086
:10329000372C302E000000005D0D0008380C002097
:1032A00053686F775F5761726E696E6750726F62B5
:1032B0006543616C6962726174696F6E52657175A4
:1032C0006972656456616C756553637265656E0DF0
:1032D0000A0000005468652063686C6F72696E654F
:1032E00020636F6E74656E7420696E20706F6F6CF2
:1032F000000000007761746572206D757374206240
:10330000652067726561746572207468616E000083
:103310002272657175697265642076616C756522CB
:103320002E0000006D0D0008DC0C002053686F7744
:103330005F5761726E696E6750726F626543616C50
:103340006962726174696F6E5265717569726564E4
:1033500056616C756552656453637265656E0D0ADE
:10336000000000004FF6FF7006F0DEFDFEA01E23F9
:103370003C22AA2100904FF4967007F0A0FCFB4875
:103380000121C26990471220F9490880F748F9499C
:10339000086008BD38B5F8484EF2E3031E223C2110
:1033A0000090012005F09EFF0446F44804F068FDFB
:1033B000F24B2246AA214FF4967004F0EEF938BD84
:1033C00008B5EFA006F0BFF9FFF7E4FF4EF2E30007
:1033D000AC234FF48C7232210090642007F01BFA6A
:1033E0004EF2E3014FF6FF7006F09EFDF34806F043
:1033F000B8FDAFF2902278213C2006F0C0FFF0A289
:1034000078215A2006F0BBFFF4A278216E2006F046
:10341000B6FFF9A27821822006F0B1FFF8A2782148
:10342000962006F0ACFF4FF6FF7006F08EFD3C23B1
:103430001E22AA214FF4967007F0EAF84EF2E3013B
:103440004FF6FF7006F070FDC7A01E233C22AA2194
:1034500000904FF4967007F032FCC8480121C26911
:1034600090471320C2490880C448C249086008BD7B
:1034700038B5EA484EF2E3031E22C821009001202D
:1034800005F030FF0446E64804F0FAFCE44B22461F
:10349000AA21A02004F081F938BD08B5E1A006F00A
:1034A00052F9FFF7E5FF4EF2E300AC234FF48C72C4
:1034B00032210090642007F0AEF94EF2E3014FF69E
:1034C000FF7006F031FDBD4806F04BFDDEA278210D
:1034D0003C2006F054FFE4A278215A2006F04FFF6A
:1034E000E9A278216E2006F04AFFEEA27821822020
:1034F00006F045FF4FF6FF7006F027FDC8231E2299
:10350000AA21A02007F084F84EF2E3014FF6FF70E5
:1035100006F00AFDE6A01E23C822AA210090A020E2
:1035200007F0CDFBBE480121C269904714209049A5
:103530000880BB488F49086008BD2DE9F843E14881
:103540004FF6FF731E22D2210090012005F0CAFE23
:103550000446DD484FF6FF731E22D2210090022060
:1035600005F0C0FE0546D94805233C2264210090A1
:10357000032005F0B7FE0646D54805233C2264210A
:103580000090042005F0AEFE0746D24805233C22F9
:10359000D2210090184605F0A5FE8046CE480123B2
:1035A0006422D2210090062005F09CFE8146CB4883
:1035B00004F066FCC94B2246F021FA2004F0EDF835
:1035C000C64B2A46F021142004F0E7F8C34B3246DC
:1035D000AA21142004F0E1F8C04B3A46AA21822027
:1035E00004F0DBF8BD4B4246AA21FA2004F0D5F8DE
:1035F000BA4B4A463C21142004F0CFF8BDE8F883CA
:1036000008B5B7A006F09FF8FFF797FF002006F077
:103610002CFD4FF6FF701C235A220C210090142021
:1036200007F0F9F8B84806F09CFC4FF6FF7100204F
:1036300006F07AFCB54A14210E2006F0A0FE002107
:103640004FF6FF7006F070FCB14806F08AFCB1A29C
:103650004FF49171142006F092FE4FF668606423D7
:10366000D2223C210090142007F0D5F840F2FC4013
:103670006423D2223C210090FA2007F0CCF84FF6C8
:10368000686006F068FCA04806F06BFCA5A21E214D
:10369000462006F074FE40F2FC4006F05CFCA2A25C
:1036A0004FF48271462006F06AFE002014233C226B
:1036B0008C21009040F2451007F0ADF84FF6FF70F6
:1036C0001E23D222F0210090142007F0A4F84FF618
:1036D000FF701E23D222F0210090FA2007F09BF801
:1036E00040F2FC4006F031FC64233C22AA21142065
:1036F00006F08EFF64233C22AA21822006F088FF78
:10370000D2233C22AA21FA2006F082FF7E4806F04E
:1037100028FC00214FF6FF7006F006FC83A03C2336
:103720006422AA210090142007F0C9FA80A03C234B
:103730006422AA210090822007F0C1FA744806F0A2
:1037400010FC09A03C23D222AA210090FA2007F005
:10375000B6FA4FF6FF71002006F0E6FB75481E230F
:10376000D222F0210090E7E04F4B0000DC0C00205B
:103770002C000020280000207D0D0008800D002076
:1037800053686F775F5761726E696E6750726F62D0
:103790006543616C6962726174696F6E52657175BF
:1037A0006972656456616C7565496D706F73736994
:1037B000626C6553637265656E0D0A00040100203A
:1037C00043616C6962726174696F6E20697320690C
:1037D0006D706F737369626C6521000050726F6267
:1037E000652073656E736974697669747920746F86
:1037F0006F206C6F772E00004368616E67653A003A
:10380000656C656374726F6C7974652F6D656D623C
:1038100072616E652F70726F62652E008D0D0008EB
:10382000240E002053686F775F5761726E696E6770
:10383000546F6F52617069644368616E676553636A
:103840007265656E0D0A0000546F6F2072617069B9
:1038500064206368616E6765206F6620704820761B
:10386000616C75652E00000042414348204B484F73
:10387000412073746F7020726567756C6174696F35
:103880006E73206F66000000704820666F722032F1
:1038900020686F75727320666F722073616665743D
:1038A00079000000726561736F6E732E0000000076
:1038B00043414E43454C2052455354524943544989
:1038C0004F4E53009D0D0008FD0E00080D0F00081F
:1038D0000F0F0008110F0008130F0008C80E00207A
:1038E00053686F775F506172616D65746572735272
:1038F00065717569726556616C7565704853637260
:1039000065656E0D0A000000DC0000208C130008C5
:10391000E400002052455155495245442056414C3F
:1039200055455300434C4600704800002B000000F2
:103930002D000000B8180008FA2007F0C0F9B048C0
:103940001E23D222F0210090142007F0B8F94FF680
:10395000FF71002006F0E8FAAA480121C2699047E9
:103960001520A9490880A748A849086008BD2DE985
:10397000F843A7484FF6FF731E22D2210090012082
:1039800005F0B0FC0446A3484FF6FF731E22D22177
:103990000090022005F0A6FC05469F4804233C2227
:1039A00064210090032005F09DFC06469B480423FB
:1039B0003C2264210090184605F094FC0746984884
:1039C00004233C22D2210090052005F08BFC804688
:1039D000944801236422D2210090062005F082FC45
:1039E0008146914804F04CFA8F4B2246F021FA2090
:1039F00003F0D3FE8C4B2A46F021142003F0CDFEB9
:103A0000894B3246AA21142003F0C7FE864B3A4662
:103A1000AA21822003F0C1FE834B4246AA21FA204C
:103A200003F0BBFE804B4A463C21FA2003F0B5FE72
:103A3000BDE8F88308B57DA005F085FEFFF797FF88
:103A4000002006F012FB4FF6FF701C235A220C21B7
:103A50000090142006F0DFFE7E4806F082FA4FF652
:103A6000FF71002006F060FA654AC03A14210E206A
:103A700006F085FC00214FF6FF7006F055FA7648F7
:103A800006F06FFAAFF274124FF49171142006F041
:103A900076FC4FF668606423D2223C21009014200B
:103AA00006F0B9FE40F2FC406423D2223C21009093
:103AB000FA2006F0B0FE4FF6686006F04CFA654852
:103AC00006F04FFAAFF2A4121E21462006F057FC72
:103AD000002014233C228C2100905F2006F09BFEE6
:103AE00040F2FC4006F037FAAFF2C4124FF4827194
:103AF000462006F044FC4FF6FF701E23D222F02130
:103B00000090142006F087FE4FF6FF701E23D2228D
:103B1000F0210090FA2006F07EFE4FF6686006F075
:103B200014FA64233C22AA21142006F071FD6423B8
:103B30003C22AA21822006F06BFDD2233C22AA213E
:103B4000FA2006F065FD434806F00BFA00214FF617
:103B5000FF7006F0E9F9AFF22C203C236422AA2181
:103B60000090142007F0ABF8AFF23C203C23642215
:103B7000AA210090822007F0A2F8374806F0F1F958
:103B8000AFF21C403C23D222AA210090FA2007F079
:103B900096F84FF6FF71002006F0C6F92F481E2355
:103BA000D222F0210090FA2007F089F814481E2351
:103BB000D222F0210090142007F081F84FF6FF7117
:103BC000002006F0B1F918480121C269904716207B
:103BD0000D49088014480D49086008BD2048008838
:103BE00020B11F480088401E1D49088070471C49AD
:103BF000088000BF1A4909880029FBD170470000DE
:103C00004C140008C80E00202C00002028000020C2
:103C1000230F0008330F0008430F0008450F00086A
:103C2000470F0008490F00086C0F002053686F779A
:103C30005F506172616D657465727352657175690B
:103C4000726556616C7565434C4653637265656E6B
:103C50000D0A0000DC000020E4000020B818000875
:103C60002400002001B5BDF80000F6490880084690
:103C7000008806F06AF908BD01B5BDF80000F249F8
:103C800008800846008806F066F908BD10B50446AD
:103C9000204606F0EAF910BD2DE9F04105460E4632
:103CA00014469846E74807882046FFF7DBFF314671
:103CB000284606F0EBF83846FFF7D4FFBDE8F08160
:103CC0002DE9F04706468846174600240025A14600
:103CD000A246B146C24600BF2EE0002522E0DB48E6
:103CE000007828B937F814000121A940084048B1EC
:103CF000D648007801280AD137F8140080212941DC
:103D0000084020B909F101001FFA80F909E048468E
:103D1000421C1FFA82F90823CA490A885146FFF754
:103D2000BBFF6D1CCA4800788542D8D30AF1010058
:103D30001FFA80FAB146641CC64800788442CCD38E
:103D4000BDE8F0872DE9F84F06468846174600245F
:103D50000025A246A14600200090B246C14600BF01
:103D600030E0002524E0B948007828B937F814007D
:103D70000121A940084048B1B4480078012809D180
:103D800037F8140080212941084018B9AE4800884E
:103D9000009002E0AB48008800905046421C1FFA99
:103DA00082FA0223BDF800204946FFF775FF6D1C1B
:103DB000A74800788542D6D309F101001FFA80F99F
:103DC000B246641CA34800788442CAD3BDE8F88F89
:103DD0002DE9F04106460F4614461D46A4F1200089
:103DE000C4B29A48007810B1012834D119E0012DED
:103DF0000BD19948016897480078604301EB400275
:103E000031463846FFF75CFF0AE093480168914865
:103E10000078604301EB400231463846FFF792FFDD
:103E20001AE0012D0BD18D4801688A480078604363
:103E300001EB400231463846FFF742FF0AE087486F
:103E4000016884480078604301EB400231463846FF
:103E5000FFF778FF00E000BF00BFBDE8F0812DE96B
:103E6000F04707460D461446984600267C480088D1
:103E7000411B77480078401E91FBF0F90BE0227857
:103E8000434629463846FFF7A3FF71480078284487
:103E900085B2641C761C207808B1012000E0002067
:103EA0004E4501D2012100E0002108400028E6D162
:103EB000BDE8F0872DE9F04104460D4616461F4641
:103EC000A21B521C91B2EA1B521C90B223462A46F6
:103ED00005F0BFFFBDE8F0812DE9F04104460D4635
:103EE00016461F463B4632462946204606F059FBF9
:103EF000BDE8F0812DE9F04106460F4614461D4607
:103F000023462A463946304606F082FBBDE8F0815A
:103F100070B504460D46164632462946204606F040
:103F200098FB70BD002202600A7802604B7802683C
:103F300002EB032202608B78026802EB034202600C
:103F4000CB78026802EB0362026070477CB50446DE
:103F5000002001900090A11C6846FFF7E3FF04F1E8
:103F60000A0101A8FFF7DEFF36200107088088203C
:103F70004FF0C24108802C20C10608800DE0019856
:103F8000205C01992144497800EB012085B24FF073
:103F9000C24005800198801C0190DDE90010884234
:103FA000EDD336200107088008204FF0C241088079
:103FB0007CBD10B504462548047014B1012C14D101
:103FC00009E010202249087018202249087025486D
:103FD00005F0C7FF0AE008201D4908700C201D49A4
:103FE0000870214805F0BDFF00E000BF00BF10BD14
:103FF00010B504461CB9032008F01DFE04E0012C96
:1040000002D1032008F00FFE10BD10B505F016FF19
:1040100010BD10B540F20F1340F2DF120021084628
:1040200005F017FF10BD2DE9F04104460D460026AE
:104030000027B0462946204605F03CFF064630469C
:10404000BDE8F081380000203A0000202E0000205A
:104050002F000020300000205C00002074000020B1
:1040600034000020DC000020F4000020D14908705A
:10407000097839B936210A07118008214FF0C24268
:10408000118022E0CB490978012907D136210A079E
:10409000118068214FF0C242118016E0C5490978AD
:1040A000022907D136210A071180C8214FF0C242E8
:1040B00011800AE0BF490978032906D136210A0791
:1040C0001180A8214FF0C242118070472DE9F047BE
:1040D00004460D46904600260027B146B246B54834
:1040E000007818B1B348007802280FD1A146B24831
:1040F00000782844401E83B2B04800782044401E17
:1041000082B22946204605F0A4FE16E0A9480078B0
:10411000012803D0A748007803280ED1AA46A74853
:1041200000782844401E83B2A34800782044401EF3
:1041300082B22946204605F08CFE2C20C10608805C
:10414000002625E000271EE09D48007828B938F8B1
:1041500016000121B940084048B19948007801286B
:104160000BD138F8161080203841014029B9954804
:1041700000884FF0C241088004E0934800884FF067
:10418000C24108807F1C8D4800788742DCD3761CB2
:10419000894800788642D5D3BDE8F08770B50546DA
:1041A0000E461446A4F12000C4B28548007810B130
:1041B000012818D10BE0854801687F4800786043EA
:1041C00001EB400229463046FFF780FF0CE08048B3
:1041D000016879480078604301EB40022946304687
:1041E000FFF774FF00E000BF00BF70BD2DE9F0478E
:1041F00007460E4614464FF000080025A9467548AC
:1042000007806C48007848B9734800886B49097882
:1042100090FBF1F000F0FF09354632E06548007888
:1042200001280BD16D4800886449097890FBF1F0B2
:1042300000F0FF093D466748068022E05D480078AF
:1042400002280CD1644800885C49097890FBF1F0A1
:1042500000F0FF0959480078301A85B211E055483E
:10426000007803280DD15D4800885449097890FBF7
:10427000F1F000F0FF0951480078381A85B255482E
:1042800006803CE04B48007850B9227829465148D6
:104290000088FFF783FF49480078284485B22BE067
:1042A0004448007801280AD122784A4801882846E3
:1042B000FFF774FF41480078284485B21CE03D4870
:1042C000007802280AD12278294642480088FFF760
:1042D00065FF3A480078281A85B20DE03548007825
:1042E000032809D122783B4801882846FFF756FF6A
:1042F00032480078281A85B2641C08F10108207839
:1043000008B1012000E00020C84501D2012100E0F1
:10431000002108400028B5D1BDE8F08710B5029C07
:1043200010BD2DE9FC4704460D4616461F46DDF834
:1043300028800020019000908146A11C6846FFF76C
:10434000F1FD04F10A0101A8FFF7ECFDF019401E90
:1043500083B205EB0800401E82B231462846FFF7C3
:10436000A9FD36200107088088204FF0C24108804F
:104370002C20C10608800FE00198205C019921449F
:10438000497800EB01201FFA80F94FF0C240A0F8F5
:1043900000900198801C0190DDE900108842EBD369
:1043A00036200107088008204FF0C2410880BDE890
:1043B000FC87000036000020300000202F00002085
:1043C0002E0000203A000020380000205C00002071
:1043D000740000203C000020340000203200002047
:1043E0002DE9F74F82B083469146002500200190C9
:1043F0009E480068D0F8008009F00100002830D005
:104400009A4800680068C71C98480068D0F80CA05B
:1044100000BF22E00026002419E01EB93878019080
:104420007F1C80260198304070B13AF8022B8F4BE8
:104430001B68DB882B4499B28C4B1B689B882344F8
:1044400098B20823FFF728FC7610601CC4B298F8D5
:104450000000A042E1DC681CC5B298F80100A84247
:10446000D8DC09F0020000282DD0804800680068E0
:10447000C71C7E480068D0F80CA000251FE000266D
:10448000002416E01EB9387801907F1C8026019820
:10449000304058B1039A2A4491B20BEB040290B217
:1044A000FFF7C1FDAAF800000AF1020A7610601CAD
:1044B000C4B298F80000A042E4DC681CC5B298F8C9
:1044C0000100A842DBDC09F0040010B9B9F1080FC3
:1044D00029D1664800680068C71C00251FE0002637
:1044E000002416E01EB9387801907F1C80260198C0
:1044F000304058B15D4B1B681A8A039B2B4499B21C
:104500000BEB040398B20823FFF7C6FB7610601C80
:10451000C4B298F80000A042E4DC681CC5B298F868
:104520000100A842DBDC51480068A0F804B04F4904
:1045300003980968C88005B0BDE8F08F70B50446DF
:104540000D46012229462046FFF74AFF062229464A
:104550002046FFF745FF70BD70B50646434800682A
:10456000C488424800688588012E06D0022E32D0C9
:10457000032E1DD0042E36D107E0042C01DB0420CD
:1045800000E02046201A84B22EE039480088001B43
:1045900038494978401A042801DB042005E03448F2
:1045A0000088001B33494978401A204484B21BE03C
:1045B00031480088401B2F490978401A042801DB44
:1045C000042005E02C480088401B2A490978401A3D
:1045D000284485B208E0042D01DB042000E02846D1
:1045E000281A85B200E000BF00BF21462846FFF729
:1045F000A5FF032004F041FB70BD10B50446142054
:104600000EF00AFA194908600846006808B9002047
:1046100010BD18490978174A527811FB02F1480079
:104620000EF0FAF911490968C86010480068C068BE
:1046300008B90020ECE70CB90E4800E020460B4911
:104640000968086000200949096808822020074994
:10465000096808720120DBE770B504460D460622A2
:1046600029462046FFF7BCFE70BD00004000002038
:104670003400002044000020320000202DE9F041E9
:1046800004460D4616461F46601B82B2002339467B
:104690002846FFF721FC601B82B2002331462846E2
:1046A000FFF71AFCF01B82B2012339462846FFF7B8
:1046B00013FCF11B8AB2611E88B201233946FFF751
:1046C0000BFCBDE8F0812DE9F04707460C4690460B
:1046D0001D46DDF8209000262B46424621463846EE
:1046E000FFF7CCFF4846FFF7BDFA01260AE03B1B67
:1046F0009B1E9AB2AB1999B2631C98B20023FFF7C4
:10470000EBFB761CA8EB0500B042F0D8BDE8F087C3
:104710002DE9F04105460E461446984602272A1B0D
:1047200091B2321B90B22246FFF7F2FB631E9AB29F
:104730002B1B99B2331B98B2FFF7EAFB4046FFF7F9
:1047400091FA08E0E31B9AB22B1B99B2331B98B283
:10475000FFF7DEFB7F1CA742F4D3BDE8F0812DE913
:10476000F04F85B004460D4617461E4600200490C3
:104770008046814682460390029083460190B5426E
:1047800008D1BC4206D10823214628460E9AFFF7DD
:1047900083FAA1E0BC4221D1B54202DDB0462E46EB
:1047A00045460123214628460E9AFFF775FA681CF4
:1047B0001FFA80F909E00223214628460E9AFFF7E6
:1047C0006BFA09F101001FFA80F9B145F3DB04230C
:1047D000214630460E9AFFF75FFA7DE0B54219D1C7
:1047E000BC4202DDB846274644460E98A5F1020CAD
:1047F0001FFA8CF3A6F1010C1FFA8CF2A4F1010C44
:104800001FFA8CF1A7F1010C00901FFA8CF0FFF752
:104810005AFF61E0BC4201DDE01B00E0381BB542FD
:1048200001DDA91B00E0711B884201DD012000E0D1
:1048300000200490049828B1A0462C464546B8466E
:1048400037464646B54205DDA0463C464746B0469B
:104850002E464546701B80B20390BC4201DDE01B32
:1048600000E0381B80B202900399491C484200EBDB
:10487000D07149100FFA81FBA246BC4202DA012036
:10488000019002E04FF0FF300190A94622E0049829
:1048900030B10823494650460E9AFFF7FDF905E06E
:1048A0000823514648460E9AFFF7F6F902985844F5
:1048B0000FFA80FBBBF1000F08DB019850441FFA90
:1048C00080FA0398ABEB00000FFA80FB09F10100BE
:1048D0001FFA80F9B145DADD05B0BDE8F08F70B59B
:1048E00004460D46A4F11E0188B200233C2229464D
:1048F000FFF7F2FAA5F11E0081B201233C22204607
:10490000FFF7EAFA70BD2DE9F04104460E46154660
:104910001F46DDF81880A01B83B2E81B82B2214637
:104920002846FFF7C7FA4046FFF710FBFE4A1288F9
:10493000521E91B2FD4A1288521E90B2FA4A138852
:10494000FA4A1288FFF7B6FABDE8F0812DE9F04186
:1049500004460F461546002638460EF0FEF9691E3D
:10496000884203D238460EF0F8F900E0681E064689
:104970003EB13246394620460EF0A4FA0020A0553A
:1049800001E000202070BDE8F081014609B9002057
:104990007047012081F8310000BFF9E72DE9FF41A0
:1049A0000646884617460024002536200EF034F8C7
:1049B0000446F4B126802E224146A01CFFF7C6FF14
:1049C0009DF80C0084F83000BDF82800608684F85B
:1049D00034702046FFF7D9FF18200EF01DF8054669
:1049E0001DB16C600420287403E020460EF043F8EB
:1049F0000024284604B0BDE8F081014609B9002032
:104A00007047002008770120487700BFF8E72DE9BC
:104A1000F0410646884617460025002424200DF064
:104A2000FBFF0446DCB12680C148A060C14860603D
:104A30001022414604F10C00FFF788FF2762204650
:104A4000FFF7DBFF18200DF0E7FF05461DB16C6096
:104A50000120287403E020460EF00DF800242846BB
:104A6000BDE8F081014609B900207047002081F8B7
:104A70002500012081F8260000BFF6E72DE9F0416E
:104A8000064688461746002400252C200DF0C4FF5A
:104A90000446DCB126801922414604F10C00FFF7E0
:104AA00055FFA548A060A5486060A7622046FFF7B3
:104AB000D9FF18200DF0B0FF05461DB16C60032032
:104AC000287403E020460DF0D6FF00242846BDE8F8
:104AD000F081014609B900207047012048769848C6
:104AE000486098488860002008760120F4E72DE9A6
:104AF000F0410446884617460025002614B1608818
:104B0000032802D10020BDE8F08120200DF084FFB1
:104B10000546F5B12C600C22414605F10C00FFF76B
:104B200015FFEF6118200DF077FF06466EB1756036
:104B3000022030742846FFF7CCFF6188201D40F822
:104B400021606088401C608003E028460DF093FFE0
:104B500000253046D7E7014609B9002070470020FC
:104B60004880AFF2750008610120F7E770B505468F
:104B7000002414200DF050FF04461CB1258020466F
:104B8000FFF7E9FF204670BD014609B900207047D4
:104B90004FF6FF7008801020488000200876012022
:104BA000F5E72DE9F04104460F461646002514B1FD
:104BB000A08A0A2802D10020BDE8F08120200DF053
:104BC0002BFF0546BDB16C601022394605F1080087
:104BD000FFF7BCFEEE612846FFF7D6FFA18A04F17D
:104BE000180040F82150A08A401CA082A08A012809
:104BF00001D1A16908760120DEE7014609B900204C
:104C0000704751484860514808600120887400206E
:104C100008728882AFF2750008640120F0E770B571
:104C200006460024002544200DF0F6FE044684B11B
:104C300026822046FFF7E1FF18200DF0EDFE054625
:104C40001DB16C600720287403E020460DF013FFAF
:104C50000024284670BD014609B900207047002095
:104C600081F82C00012081F82D0000BFF6E72DE926
:104C7000F04706468946174698460024002534200A
:104C80000DF0CAFE044614B326803148A0603148B6
:104C900060601022494604F10C00FFF757FE102215
:104CA000394604F11C00FFF751FEC4F8308020465D
:104CB000FFF7D1FF18200DF0AFFE05461DB16C6067
:104CC0000520287403E020460DF0D5FE0024284678
:104CD000BDE8F087014609B900207047002008733D
:104CE0000120487300BFF8E72DE9F04706460F465C
:104CF00090469946DDF820A00024002514200DF0F0
:104D00008BFE044644B326806760A4F80880A4F8AC
:104D10000A90C4F810A02046FFF7DCFF18200DF021
:104D20007BFE0546EDB118E0340000203200002083
:104D30003CDC0108E2E101088CC10108EEC4010875
:104D4000C8BA01082ABE010850C801085ACC010897
:104D500088E701082EED010807E06C600620287442
:104D600003E020460DF087FE00242846BDE8F087CA
:104D700010B504460CB9002010BD012084F82800AD
:104D8000FC49896848000DF047FE60620120F3E7A6
:104D90002DE9F04706468946174698460024002527
:104DA00030200DF039FE04462CB32680F2486060B6
:104DB000F248A0601022494604F10C00FFF7C6FD3E
:104DC00004F81C7F122060707620A070642020718F
:104DD000E070002060716420A071C4F810801C3C59
:104DE0002046FFF7C5FF18200DF016FE05461DB141
:104DF0006C600820287403E020460DF03CFE00247F
:104E00002846BDE8F087014609B900207047012017
:104E100081F8FA0300BFF9E72DE9F04707468A4613
:104E200090469946089E002500244FF47F700DF0AF
:104E3000F3FD0446002C35D00020A4F8F8032780A9
:104E400007225146A01CFFF781FD0722414604F1CD
:104E50000900FFF77BFDB6F5FA7F0BDD4FF47A72A0
:104E6000494604F110000DF097FF4FF4FA70A4F8D2
:104E7000F80307E07200494604F110000DF08CFFC2
:104E8000A4F8F8632046FFF7BEFF18200DF0C4FD1C
:104E900005461DB16C600920287403E020460DF022
:104EA000EAFD00242846BDE8F087014609B9002044
:104EB0007047012081F8E30700BFF9E72DE9F05FB3
:104EC00007468A4690469946DDE90A6B002500248C
:104ED00040F2E4700DF0A0FD0446002C37D0002015
:104EE000A4F8E007278007225146A01CFFF72EFDFB
:104EF0000722414604F10900FFF728FDB6F57A7F45
:104F00000BDD4FF4FA62494604F110000DF044FF46
:104F10004FF47A70A4F8E00707E07200494604F104
:104F200010000DF039FFA4F8E06784F8E2B72046DE
:104F3000FFF7BBFF18200DF06FFD05461DB16C603B
:104F40000A20287403E020460DF095FD0024284631
:104F5000BDE8F09F2DE9F7438046D8F8045015B915
:104F60000020BDE8FE8386A004F0EDFB01206872FE
:104F7000287A002876D1BDF80800BDF80A10401A3A
:104F80000A2804DC012688A004F0DDFB16E0BDF849
:104F90000800BDF80A10401A1E2804DC052684A06B
:104FA00004F0D1FB0AE0BDF80800BDF80A10401A71
:104FB000642803DC0A2680A004F0C5FBE8880328E7
:104FC00004D0042828D0052874D14CE00020FEF736
:104FD00049FE00240FE0BDF80A702744BBB2BDF8BB
:104FE00008703F1BBAB2BDF80610BDF80400FFF709
:104FF00045FB601CC4B2B442EDDB4FF6FF70FEF718
:1050000031FEBDF80A30BDF80820BDF80610BDF825
:105010000400FFF733FB4EE00020FEF723FE0024E0
:105020000FE0BDF80A702744BBB2BDF808703F1B03
:10503000BAB2BDF80610BDF80400FFF71FFB601CF4
:10504000C4B2B442EDDB4FF66860FEF70BFEBDF86C
:105050000A30BDF80820BDF80610BDF80400FFF7BF
:105060000DFB28E029E00020FEF7FCFD00240FE006
:10507000BDF80A702744BBB2BDF808703F1BBAB236
:10508000BDF80610BDF80400FFF7F8FA601CC4B2C2
:10509000B442EDDB40F2FC40FEF7E4FDBDF80A301F
:1050A000BDF80820BDF80610BDF80400FFF7E6FAC9
:1050B00001E0FFE700BF00BFBBE0287A0128FBD179
:1050C000E88840F2FC42811A904228D006DC06288B
:1050D00035D2DFE800F0132C34312529A1F5E0406A
:1050E000C938B0B1A0F5D6401E38A8B1A0F5E85037
:1050F0008538C0B1A0F2971008BB05E04FF6FF74E9
:105100002FA004F020FB1CE000242FA004F01BFBC8
:1051100017E04EF2E30414E047F2C55411E000BF7B
:105120004FF668640DE000BF40F2FC4409E028A09F
:1051300004F009FB012404E04FF6FF7401E00024B1
:1051400000BF00BFBDF80800BDF80A10401A0A28C9
:1051500004DC022714A004F0F6FA49E0BDF80800C8
:10516000BDF80A10401A1E2836DC052710A004F0EE
:10517000EAFA3DE08C00002086F10108B4F0010855
:10518000696E205365744E657752656374436F6E24
:1051900074726F6C56697369626C65204E657772C4
:1051A0006563740D0A00000031300D0A0000000034
:1051B00033300D0A0000000035300D0A00000000F9
:1051C00057484954450D0A00424C41434B0D0A00D3
:1051D0004E4F4E450D0A0000BDF80800BDF80A10FC
:1051E000401A642804DC0A27AFF2340004F0ABFA5A
:1051F000E88801281CD02046FEF734FDE7A004F023
:10520000A2FA002612E0BDF80AC0B4441FFA8CF3DB
:10521000BDF808C0ACEB060C1FFA8CF2BDF8061006
:10522000BDF80400FFF72AFA701CC6B2BE42EADBE2
:1052300000BFDCA004F087FA0020FEF7BAFEE5A06C
:1052400004F081FA4FF6FF70FEF716FDEEA004F0B1
:105250007AFA1020FEF706FDF7A004F074FA012098
:105260007FE607B5AAB0002028904FF400401F90B9
:105270009FEDFD0B8DED140B2A9840680F900F9851
:1052800010B900202DB000BD01210F9880F8E31760
:105290009FEDF50B8DED160BF548008835380E9017
:1052A0000FF0ADF9CDE91201F24800883F380E90B9
:1052B0000FF0A5F9CDE91C019FEDEF0B53EC102B7E
:1052C0009DED120B51EC100B0EF060FFCDE92201A9
:1052D0009DED1C0B8DED200BE548008848380E90A5
:1052E0000FF08DF9CDE92401E248008851380E9085
:1052F0000FF085F9CDE926010F98B0F8E0070B9083
:105300000FF094F9CDE90C019DED0C0B53EC102B33
:105310009DED240B51EC100B0EF0ECFFCDE91801C4
:105320009FEDD70B53EC102B9DED260B51EC100B82
:105330000EF0E0FFCDE91A010020FEF793FC0120FA
:10534000FEF737FE9FEDD00B53EC102B9DED240B99
:1053500051EC100B0EF01AFFCDE90A019DED0A0B7E
:1053600051EC100B0FF01EF980B20E909DED120B58
:1053700051EC100B0FF016F980B20D909DED1C0B47
:1053800051EC100B0FF00EF980B200230C90DDE908
:105390000D12FEF7A1FD9DED260B51EC100B0FF049
:1053A00001F980B20E909DED120B51EC100B0FF035
:1053B000F9F880B20D909DED260B53EC102B9DED6E
:1053C0001C0B51EC100B0FF0C1FACDE90A019DED59
:1053D0000A0B51EC100B0FF0E5F880B201230C9092
:1053E000DDE90D12FEF778FD9FEDA90B53EC102BB4
:1053F0009DED120B51EC100B0EF0C8FECDE90A0129
:105400009DED0A0B51EC100B0FF0CCF880B29FED24
:10541000A20B53EC102B0E909DED1C0B51EC100BBE
:105420000EF0B4FECDE90A019DED0A0B51EC100B14
:105430000FF0B8F880B2012399A20D900E99FEF7F3
:105440000EFD9FED980B53EC102B9DED220B51ECB4
:10545000100B0EF09BFE9FED950B53EC102BCDE93E
:1054600008019DED080B51EC100B0FF06FFACDE920
:105470000A019DED0A0B51EC100B0FF093F880B26E
:105480009FED830B53EC102B0E909DED200B51ECF8
:10549000100B0FF05BFACDE90A019DED0A0B51EC00
:1054A000100B0FF07FF880B201237DA20D900E99B2
:1054B000FEF7D5FC0F9890F8E207012853D19FED35
:1054C000720B53EC102B9DED240B51EC100B0EF0D6
:1054D0005DFECDE908019DED080B51EC100B0FF0BE
:1054E00061F880B20E909DED260B51EC100B0FF081
:1054F00059F880B20D909DED120B51EC100B0FF08E
:1055000051F880B29FED6B0B53EC102B0C909DED7E
:105510001C0B51EC100B0FF019FACDE908019DEDB1
:10552000080B51EC100B0FF03DF880B20B900CA95A
:105530000EC9FEF7BFFC0020FEF7A8FB4C48008810
:10554000401E80B20E904B480088401E80B20D90E5
:105550004748038847480288DDE90D01FEF7AAFCA9
:105560004FF6F0701F90B3E00F981030289930F983
:1055700011000B900FF043F8CDE90C019DED160BD7
:1055800053EC102B9DED0C0B51EC100B0FF09CF914
:1055900003D20F981030289990E096E0434F4C4F7B
:1055A000520D0A00696E205365744E65775265632B
:1055B00074436F6E74726F6C56697369626C6520A8
:1055C000474C5F54525545204E6577726563740DA4
:1055D0000A000000696E205365744E65775265635A
:1055E00074436F6E74726F6C56697369626C652078
:1055F000474C5F464F4E545F424947204E65777295
:105600006563740D0A000000696E205365744E6571
:105610007752656374436F6E74726F6C5669736909
:10562000626C6520474C5F5768697465204E6577EA
:10563000726563740D0A0000696E205365744E65CF
:105640007752656374436F6E74726F6C56697369D9
:10565000626C6520474C5F426C7565204E657772C1
:105660006563740D0A0000000000000000000000E7
:105670003400002032000020000000000000104034
:105680000000000000002640000000000000004074
:10569000000000000000144000000000000018405E
:1056A0003000000000000000000032400000000058
:1056B00000002240000000000000F03F30F911001F
:1056C0000E900EF09CFFCDE916012898401C289002
:1056D0000F98B0F8E017289881423FF645AF9DED4E
:1056E0001A0B53EC102B9DED260B51EC100B0FF009
:1056F0002DF9CDE90C019DED0C0B53EC102B9DED1C
:10570000160B51EC100B0EF0F5FDCDE91401002045
:105710002890A5E1289800287ED00020FEF7A2FA64
:105720009DED220B51EC100B0EF03CFF80B20E9061
:1057300028980EF07BFFCDE906019DED1A0B53EC86
:10574000102B9DED060B51EC100B0EF0BFFFCDE9B9
:1057500008019DED200B53EC102B9DED080B51EC37
:10576000100B0FF0E7F8CDE90A019DED0A0B51ECA3
:10577000100B0EF017FF80B2002304220D900E993B
:10578000FEF7AAFB44F20820FEF76CFA1FED420B6D
:1057900053EC102B9DED240B51EC100B0EF0F6FC8E
:1057A000CDE90A019DED0A0B51EC100B0EF0FAFE4B
:1057B00080B21FED4F0B53EC102B0E909DED220B82
:1057C00051EC100B0FF0C2F8CDE90A019DED0A0B68
:1057D00051EC100B0EF0E6FE80B20D9028980EF002
:1057E00025FFCDE906019DED1A0B53EC102B9DED25
:1057F000060B51EC100B0EF069FFCDE908019DED91
:10580000200B53EC102B9DED080B51EC100B0FF0FF
:1058100091F8CDE90A0100E00CE09DED0A0B51EC96
:10582000100B0EF0BFFE80B200230C90DDE90D12CC
:10583000FEF752FB28980A287DD10020FEF712FAC5
:105840009FEDFE0B53EC102B9DED220B51EC100B3A
:105850000EF09CFCCDE90A019DED0A0B51EC100BFA
:105860000EF0A0FE80B20E9028980EF0DFFECDE97B
:1058700002019DED1A0B53EC102B9DED020B51EC28
:10588000100B0EF023FFCDE904019DED200B53EC2E
:10589000102B9DED040B51EC100B0FF04BF81FED8E
:1058A000860B53EC102BCDE906019DED060B51EC58
:1058B000100B0FF04BF89FEDE30B53EC102BCDE9E1
:1058C00008019DED080B51EC100B0FF03FF8CDE9EE
:1058D0000A019DED0A0B51EC100B0EF063FE80B235
:1058E00001230D900F9A09320E99FEF7B8FA9DED3B
:1058F000160B53EC102BD5A110A80DF0E3F89FED7B
:10590000D50B53EC102B9DED160B51EC100B0EF03C
:10591000A1FE4CD29FEDC90B53EC102B9DED220B39
:1059200051EC100B0EF032FCCDE90A019DED0A0B93
:1059300051EC100B00E090E00EF034FE80B20E90BF
:1059400028980EF073FECDE904019DED1A0B53EC7F
:10595000102B9DED040B51EC100B0EF0B7FECDE9B2
:1059600006019DED200B53EC102B9DED060B51EC29
:10597000100B0EF0DFFF1FEDBA0B53EC102BCDE92F
:1059800008019DED080B51EC100B0EF0DFFFCDE987
:105990000A019DED0A0B51EC100B0EF003FE80B2D4
:1059A000012310AA0D900E99FEF759FA55E09FEDCC
:1059B000AB0B53EC102B9DED220B51EC100B0EF0AA
:1059C000E5FB9FED9E0B53EC102BCDE908019DEDFF
:1059D000080B51EC100B0EF0D9FBCDE90A019DED3F
:1059E0000A0B51EC100B0EF0DDFD80B20E902898E2
:1059F0000EF01CFECDE904019DED1A0B53EC102BAB
:105A00009DED040B51EC100B0EF060FECDE906018C
:105A10009DED200B53EC102B9DED060B51EC100B64
:105A20000EF088FF1FEDE60B53EC102BCDE90801BB
:105A30009DED080B51EC100B0EF088FFCDE90A012B
:105A40009DED0A0B51EC100B0EF0ACFD80B2012362
:105A500010AA0D900E99FEF702FA2898401C289083
:105A600028980A287FF656AE00202890FDE39DED89
:105A7000180B53EC102B9DED120B51EC100B0EF08C
:105A800065FFCDE912010020FEF7ECF81FEDF70BE2
:105A900053EC102B9DED120B51EC100B0EF076FB1E
:105AA000CDE90A019DED0A0B51EC100B0EF07AFDC9
:105AB00080B20E909DED1C0B51EC100B0EF072FDA0
:105AC00080B2012304220D900E99FEF705FA0F987B
:105AD000B0F8E0070F286CDC289A521C61A110A8CE
