:020000040800F2
:1000000098100120251C02087D0A00087F0A0008BC
:10001000830A0008870A00088B0A00080000000015
:10002000000000000000000000000000A90200081D
:100030008F0A000800000000FD020008351A0208BF
:100040003F1C02083F1C02083F1C02083F1C02081C
:100050003F1C02083F1C02083F1C02083F1C02080C
:100060003F1C02083F1C02083F1C02083F1C0208FC
:100070003F1C02083F1C02083F1C02083F1C0208EC
:100080003F1C02083F1C02083F1C02083F1C0208DC
:100090003F1C02083F1C02083F1C02083F1C0208CC
:1000A0003F1C02083F1C02083F1C02083F1C0208BC
:1000B000D30A0008D50A0008D70A00083F1C020826
:1000C0003F1C02083F1C02083F1C02083F1C02089C
:1000D0003F1C02083F1C02083F1C02083F1C02088C
:1000E0003F1C02083F1C02083F1C02083F1C02087C
:1000F0003F1C02083F1C02083F1C02083F1C02086C
:100100003F1C02083F1C0208D90A00083F1C0208D5
:100110003F1C02083F1C02083F1C02083F1C02084B
:100120003F1C02083F1C02083F1C02083F1C02083B
:100130003F1C0208910A00083F1C02083F1C0208ED
:100140003F1C02083F1C02083F1C02083F1C02081B
:100150003F1C02083F1C02083F1C02083F1C02080B
:100160003F1C02083F1C02083F1C02083F1C0208FB
:100170003F1C02083F1C02083F1C02083F1C0208EB
:100180003F1C02083F1C020800F002F800F07CF857
:100190000AA090E8000C82448344AAF10107DA45E2
:1001A00001D100F071F8AFF2090EBAE80F0013F0B8
:1001B000010F18BFFB1A43F0010318472C4205003A
:1001C0004C4205000A444FF0000C10F8013B13F0BC
:1001D000070408BF10F8014B1D1108BF10F8015BA0
:1001E000641E05D010F8016B641E01F8016BF9D193
:1001F00013F0080F1EBF10F8014BAD1C0C1B09D1EA
:100200006D1E58BF01F801CBFAD505E014F8016B5B
:1002100001F8016B6D1EF9D59142D6D370470000ED
:100220000023002400250026103A28BF78C1FBD8FF
:10023000520728BF30C148BF0B607047662923F0C2
:100240005287642921F0C885752921F0C585632965
:1002500022F05383002070471FB523F03AFF9DE83A
:10026000030022F087F822F0CBFB040000200021DD
:1002700023F0ACF9401C60600020002123F090F9CD
:10028000E0601FBD10B510BD22F024FD1146FFF740
:10029000E3FF00F0DEF922F050FD03B4FFF7F2FFB8
:1002A00003BC22F07DFD00002A4B19680868B0E805
:1002B000F04F80F30988BFF36F8F4FF0000080F399
:1002C000118870470000000006480068006880F34D
:1002D000088862B661B6BFF34F8FBFF36F8F00DF40
:1002E00000BF00BF08ED00E0DFF80C00016841F43A
:1002F00070010160704700BF88ED00E0EFF30980F6
:10030000BFF36F8F134B1A681EF0100F08BF20ED5C
:10031000108A20E9F04F106008B44FF0500080F3CD
:100320001188BFF34F8FBFF36F8F20F074FA4FF037
:10033000000080F3118808BC19680868B0E8F04F25
:100340001EF0100F08BFB0EC108A80F30988BFF3CD
:100350006F8F704744030020EFF305807047000063
:100360002DED0A8B00BF002003F0E9FCDFEDFB0A56
:1003700080EE201A11EE104A204623F039FE41EC9F
:100380001A0B9FEDF70B53EC102B23F047FD41ECBC
:10039000190B9FEDF50B53EC102B23F013FA41ECE6
:1003A000180B23F029F9F2490860B3EE0E0A03F0A6
:1003B00019FD10EE104A204623F01AFE41EC1A0BEC
:1003C000EB48006823F014FE41EC1C0B9FEDE90B99
:1003D00053EC102B23F022FD41EC1B0B53EC1A2B9A
:1003E00023F0F0F941EC190B9FEDE40B53EC102BCB
:1003F00023F008FD41EC180B23F0FEF8E1490860FA
:10040000B1E700BFE0480078401CDF4908700846AB
:1004100000783B2807DDDD480078401CDB49087088
:100420000020D9490870D94800783B2807DDD84812
:100430000078401CD64908700020D4490870D44880
:100440000078172806DD0020D1490870CF490870D0
:10045000CD4908704FF47A7020F0CCF8D2E70EB591
:100460000121082013F017FA502001900020ADF868
:100470000000ADF80800ADF802006946C54813F069
:10048000F6FC0021C34813F051FD0121C14814F0CE
:10049000B7F901221146BF4814F08AF90021BD487E
:1004A00013F06EFD0EBD10B50446BB480480FFF787
:1004B000D6FF0021B74813F023FD0121B54813F002
:1004C0005FFD00BFB44800880028FBD10021B1487F
:1004D00013F056FD10BD10B50121B04812F0E4FF35
:1004E0004FF4F070FFF7DFFF0121AC4812F0DAFFA4
:1004F0004620FFF7D8FF0121A84812F0B9FF0446B3
:100500004FF4CD70FFF7CFFF204610BD00BFA448C9
:10051000007830B1012833D0022851D003287BD194
:100520006FE0A0480068B0F5FA6F09D210229E492A
:10053000012003F04BFC9B480068401C994908606F
:100540009A480068B0F5FA6F09D220229649012036
:1005500003F03CFC95480068401C94490860032067
:1005600020F048F810229049002003F02FFC2022B0
:100570008D49002003F02AFC032020F03BF84CE0DA
:1005800088480068B0F5FA6F09D210228649012028
:1005900003F01CFC83480068401C8249086003206B
:1005A00020F028F810228049002003F00FFC0320DF
:1005B00020F020F820227C49002003F007FC2CE0EA
:1005C00010227949002003F001FC78480068B0F55A
:1005D000FA6F09D220227449012003F0F7FB734817
:1005E0000068401C71490860032020F003F82022B5
:1005F0006D49002003F0EAFB03201FF0FBFF0CE035
:100600000AE010226849002003F0E0FB202266493E
:10061000002003F0DBFB00E000BF00BFFFF75BFF43
:1006200075E700BF0FF023FD0DF084FC0DF05DFDBC
:1006300003F006F8F6E710B5002011F0EBF9012001
:1006400011F0E8F9022011F0E5F9032011F0E2F9C8
:1006500010BD1CB54FF4E13155480DF05FFEFFF7BA
:10066000EAFF0EF083FA002008F09DFC0FF051FB2A
:1006700003F094FB03F022FB11F024F902F0BFFC1D
:1006800004F0BDF900F03CFB00F034FA4FF4407088
:1006900011F016FE01F07DFF0020012103464FF40A
:1006A000C062CDE9001043A1AFF289001FF07DFDCB
:1006B0000020012103460A02CDE900103FA1AFF25C
:1006C000B3101FF072FD0020012103468022CDE906
:1006D00000103EA1AFF2D5201FF067FD00200121E0
:1006E00003460A02CDE900103AA1AFF28B301FF0A9
:1006F0005CFD20F05AFA00BFFEE700BF502080F3F7
:100700001188BFF34F8FBFF36F8F00BF00BFFEE7AD
:10071000704710B50DF006FD10BD10B501211F4842
:1007200012F0C2FE0620FFF7BEFE01211B4812F0A8
:10073000B9FE4020FFF7B7FE10BD10B501211748E4
:1007400012F0B2FE3C20FFF7AEFE0121134812F07A
:10075000A9FE0A20FFF7A7FE10BD000000007A44A2
:100760002DB29DEFA7C6F93FDF7A2949920416C042
:100770000C000020FCA9F1D24D62403F00000000B7
:1007800000001C40040000207600002075000020BE
:1007900074000020000C00402C00002000040240E7
:1007A0008400002020000020000002401C000020E7
:1007B000001001404C43445461736B0041637475F5
:1007C00061746F725461736B00000000436C6F635F
:1007D0006B000000526561645F70485F4F525000CB
:1007E00010B50446012C02D1FFF797FF01E0FFF797
:1007F000A4FF10BD10B501211B4812F055FE0620C4
:10080000FFF751FE0121184812F04CFE0920FFF7B6
:100810004AFE0121144812F02BFE04463720FFF750
:1008200042FE204610BD70B50446082504E004F0E1
:100830000100FFF7D5FF64102800A5F10101CDB23A
:10084000F5D170BD70B50825002405E06410FFF7F0
:10085000D1FF44EAC010C4B22800A5F10101CDB215
:10086000F4D1204670BD0000000402400CB5002009
:10087000019000907648006840F480307449086028
:1008800000BF7348006800F4003000900198401CDD
:100890000190009818B90198B0F5A06FF1D16C489B
:1008A000006800F4003010B10120009001E0002049
:1008B00000900098012846D165484030006840F01B
:1008C00080506349403108606248006840F48040CD
:1008D000604908605E48083000685D49083108607A
:1008E0000846006840F4004008600846006840F48C
:1008F000A05008605848091F0860081F006840F0B1
:100900008070091F086000BF5148006800F0007047
:100910000028F9D040F20520504908604C480830C2
:10092000006820F003004A49083108600846006862
:1009300040F00200086000BF45480830006800F041
:100940000C000828F8D10CBD10B54548006840F4EB
:100950007000434908603E48006840F001003C498F
:10096000086000203A4908310860394800683D496C
:100970000840374908603C48091D0860081F0068A6
:1009800020F48020091F0860002031490C310860E4
:10099000FFF76CFF4FF0006031498039086010BDEF
:1009A00070B500200022022300240221284D0835C2
:1009B0002D6805F00C0020B1042806D0082834D199
:1009C00007E02A4D2A4E356033E02A4D284E356027
:1009D0002FE01F4D2D1D2D68C5F380541C4D2D1D7E
:1009E0002D6805F03F0154B1224DB5FBF1F5184ECD
:1009F000361D3668C6F3881605FB06F209E01B4D66
:100A0000B5FBF1F5124E361D3668C6F3881605FBA8
:100A100006F20F4D2D1D2D68C5F301456D1C6B00B1
:100A2000B2FBF3F5124E356003E0104D104E356009
:100A300000BF00BF064D08352D68C5F303150E4EE7
:100A4000705D0B4D2D68C540094E356070BD0000CE
:100A5000003802400070004019544007003C02403A
:100A600088ED00E0FFFFF6FE103000240024F400C3
:100A70003000002040787D0134000020704700BF26
:100A8000FEE700BFFEE700BFFEE700BFFEE77047DE
:100A900008B500200090402015F095F9012804D1F8
:100AA0006946114800681FF0C2F8402015F0AFF900
:100AB0004FF4803015F0ABF9009848B1009838B188
:100AC0004FF0805009490860BFF34F8FBFF36F8F1D
:100AD00008BD70477047704710B50121044813F0F6
:100AE0008FFE02F038FA10BD3803002004ED00E05C
:100AF000000C004000B58DB00021084617F022FE22
:100B00001D481DF079FA0C906FF0FF001DF074FA8B
:100B10000B90194815381DF06FFA0A9016208DF8C1
:100B2000240001208DF82500A8208DF82600C02083
:100B30008DF827009DF824009DF82510CDE90010C0
:100B40009DF826309DF827200CA104A821F0E0F89C
:100B50000E480F4900220AABCDE9002102900BAAF2
:100B60000CA90C4819F0A7F90A4819F0E4F909484A
:100B700019F031FA0DB000BD1601A8C0202025647F
:100B80002E25642E25642E2564000000F5850108BD
:100B900029F10108A403002000B5AFB001214FF0F6
:100BA000606012F045FE14F06FFB15F0FBF800BF1B
:100BB00015F0FFF80128FBD0684614F070FB012007
:100BC0000090002007904FF400700A9000200B90D6
:100BD0000E90119013901490159020904FF000708B
:100BE0002190001123900020259026900420289029
:100BF000C005299040122A9080012B9040122C9021
:100C000040002E900121684614F003FC434908601F
:100C10000121434815F0E4F82FB000BD08B54FF4AA
:100C2000A06011F04DFB3D208DF8000002208DF8F2
:100C3000010000208DF8020001208DF803006846B5
:100C400011F043FB08BD1CB50121472012F0F0FD57
:100C50000121880312F030FE012012F056FF8E2091
:100C6000009003208DF8050002208DF8040000207C
:100C70008DF806008DF8070069462A4812F096FBA9
:100C80000B220121274812F01CFC0B2202212548CF
:100C900012F017FC0B220321224812F012FC0B2247
:100CA0000721204812F00DFC4FF460500090694677
:100CB0001D4812F07BFB0B2211461B4812F001FC71
:100CC0000B220C21184812F0FCFB0B220D211648B8
:100CD00012F0F7FB322000906946144812F066FBD0
:100CE0000B220121114812F0ECFB0B2204210F48CA
:100CF00012F0E7FB0B2205210C4812F0E2FB1CBDB1
:100D000010B5FFF7A0FFFFF789FFFFF745FF034886
:100D1000006808B900BFFEE710BD000044000020D5
:100D200040000100000002400004024000080240B0
:100D3000002114E001EB41003D4A02EBC000007DC0
:100D400060B9012001EB4102394B03EBC20210757F
:100D500001EB41001A4602EBC0007047491C0A290A
:100D6000E8DB0020F9E710B5014600200FE000EBBA
:100D700040022F4B03EBC2028A4207D1002200EB54
:100D800040032B4C04EBC3031A7502E0401C0A28F5
:100D9000EDDB00BF10BD70B50646FFF7C9FF054685
:100DA0000DB9002070BD234C11E03046616821F080
:100DB0007DFA58B9A0682860E0686860E068A860BB
:100DC0000020E860207C28742846EBE72468002C8B
:100DD000EBD12846FFF7C7FF0020E3E710B5044634
:100DE0002046FFF7C0FF10BD2DE9F04104460F4635
:100DF0001646D4E90110884203D14FF0FF30BDE818
:100E0000F081D4E90101451AB54200DD3546A268FA
:100E1000206881182A46384621F086F9A0682844BF
:100E2000A0602846EBE70146D1E90102801A70472D
:100E3000DC0300209CE9020870B504467F4821F0DD
:100E4000FDF805462A467D49204616F058FE70BD3D
:100E50002DE9FF41064640F6AC51794821F0B1F941
:100E600078A1774821F054F978A1754821F050F91C
:100E700078A1734821F04CF97DA1714821F048F91F
:100E800087A16F4821F044F990A16D4821F040F905
:100E900095A16B4821F03CF99EA1694821F038F9F1
:100EA0009FA1674821F034F99EA1654821F030F9EF
:100EB000A2A1634821F02CF9A8A1614821F028F9EA
:100EC000AEA15F4821F024F9ADA15D4821F020F9E1
:100ED000ADA15B4821F01CF9BBA1594821F018F9DC
:100EE000BEA1574821F014F9C0A1554821F010F9CE
:100EF000C3A1534821F00CF9C4A1514821F008F9CD
:100F00009EA14F4821F004F9C3A14D4821F000F9FA
:100F1000C2A14B4821F0FCF8C6A1494821F0F8F8DD
:100F2000C8A1474821F0F4F8CCA1454821F0F0F8D9
:100F3000D1A1434821F0ECF890A1414821F0E8F814
:100F4000D5A13F4821F0E4F8D9A13D4821F0E0F8CF
:100F50008AA13B4821F0DCF8D9A1394821F0D8F822
:100F6000DBA1374821F0D4F8DFA1354821F0D0F8D3
:100F7000E2A1334821F0CCF8E3A1314821F0C8F8D0
:100F80007EA12F4821F0C4F8E3A12D4821F0C0F83C
:100F9000E3A12B4821F0BCF8E6A1294821F0B8F8DC
:100FA000E8A1274821F0B4F8EDA1254821F0B0F8D8
:100FB000D2A1234821F0ACF870A1214821F0A8F873
:100FC000EBA11F4821F0A4F8ECA11D4821F0A0F8E6
:100FD000EDA11B4821F09CF88CA1194821F098F84C
:100FE00087A1174821F094F864A1154821F090F8E2
:100FF000EBA1134821F08CF8EDA1114821F088F8FD
:10100000F0A10F4821F084F8F2A10D4821F080F8FA
:10101000F5A10B4821F07CF8FAA1094821F078F8F5
:10102000B1A1074821F074F854A1054821F070F8E7
:10103000FBA1034821F06CF8FAE100009DEF0208E3
:10104000CC0600203C68746D6C3E0000203C686556
:1010500061643E00203C7469746C653E5765622093
:101060007365727665723C2F7469746C653E00001E
:10107000203C6D657461206E616D653D2264657311
:101080006372697074696F6E2220636F6E74656E2F
:10109000743D22576562736572766572222F3E0039
:1010A000203C6D657461206E616D653D226B6579D4
:1010B000776F72642220636F6E74656E743D227563
:1010C00062756E7475222F3E00000000203C6D6535
:1010D000746120636861727365743D227574662D56
:1010E00038222F3E00000000203C6D6574612068AE
:1010F0007474702D65717569763D227265667265CE
:1011000073682220636F6E74656E743D2231223ED7
:1011100000000000203C7374796C653E0000000004
:101120002A207B00626F782D73697A696E673A2096
:10113000626F726465722D626F783B002D6D6F7AFD
:101140002D626F782D73697A696E673A20626F72CB
:101150006465722D626F783B000000002D77656238
:101160006B69742D626F782D73697A696E673A20A6
:10117000626F726465722D626F783B007D000000C3
:10118000626F6479207B0000666F6E742D66616DFE
:10119000696C793A202248656C766574696163618F
:1011A000204E657565222C2048656C7665746961F2
:1011B00063612C20417269616C2C2073616E732D08
:1011C00073657269663B0000666F6E742D776569A2
:1011D0006768743A2033303070783B00636F6C6F0F
:1011E000723A20233333333B000000006C696E6594
:1011F0002D6865696768743A20312E3235343B00BA
:101200006D617267696E3A20303B00007061646402
:10121000696E673A20303B0061207B00746578740A
:101220002D6465636F726174696F6E3A206E6F6EC4
:10123000653B0000636F6C6F723A20233362386243
:1012400062613B007472616E73666F726D3A206109
:101250006C6C20302E35733B000000002D6D6F7AD2
:101260002D7472616E73666F726D3A20616C6C20C2
:10127000302E35733B0000002D7765626B69742D4D
:101280007472616E73666F726D3A20616C6C20309F
:101290002E35733B00000000613A686F7665722C52
:1012A00020613A76697369746564207B00000000F0
:1012B000636F6C6F723A20233236353737383B0014
:1012C00023636F6E7461696E6572207B000000009D
:1012D00070616464696E672D6C6566743A2031359F
:1012E0003070783B00000000706F736974696F6E36
:1012F0003A2072656C61746976653B006C65667452
:101300003A20303B0000000077696474683A20316D
:101310003030253B00000000236D656E75207B009A
:10132000706F736974696F6E3A2066697865643BA3
:10133000000000006865696768743A203130302524
:101340003B0000006261636B67726F756E642D63B2
:101350006F6C6F723A20233139313831383B0000DD
:1013600077696474683A2031353070783B0000004A
:10137000236D656E75207B7D00000000236D656E1A
:101380007520756C7B0000006C6973742D73747923
:101390006C652D747970653A206E6F6E653B000048
:1013A000236D656E7520756C206C69207B000000D4
:1013B0006C696E652D6865696768743A20322E39EC
:1013C000656D3B006865696768743A20322E39653F
:1013D0006D3B20007472616E736974696F6E3A20A0
:1013E000616C6C2031733B002D6D6F7A2D747261CE
:1013F0006E736974696F6E3A20616C6C2031733B57
:10140000000000002D7765626B69742D7472616E47
:10141000736974696F6E3A20616C6C2031733B00A4
:10142000236D656E7520756C206C692061207B00D2
:1014300094A1984820F06CFE97A1964820F068FE91
:1014400099A1944820F064FE9BA1924820F060FE90
:10145000AFF2D8218F4820F05BFE9FA18D4820F08D
:1014600057FEA2A18B4820F053FEAFF2F02189482D
:1014700020F04EFEA4A1874820F04AFEA7A185488F
:1014800020F046FEA9A1834820F042FEACA181488D
:1014900020F03EFEAFF2C0117E4820F039FEAFF2E0
:1014A0005C117C4820F034FEAFF23031794820F0F6
:1014B0002FFEA5A1774820F02BFE72A1754820F0E1
:1014C00027FEAFF24831734820F022FEA6A17148F2
:1014D00020F01EFEA7A16F4820F01AFEAFF2643183
:1014E0006C4820F015FEA8A16A4820F011FEADA1BD
:1014F000684820F00DFEAFF27C31664820F008FE0F
:10150000AEA1644820F004FEAFA1624820F000FEC6
:10151000B5A1604820F0FCFDB8A15E4820F0F8FDC0
:10152000BAA15C4820F0F4FDAFF2B031594820F088
:10153000EFFDBBA1574820F0EBFDBEA1554820F0C0
:10154000E7FDC1A1534820F0E3FDC6A1514820F0BA
:10155000DFFDAFF2D8314F4820F0DAFDC8A14D4889
:1015600020F0D6FDC8A14B4820F0D2FDCBA14948C0
:1015700020F0CEFDAFF2FC31464820F0C9FDCCA1F1
:10158000444820F0C5FDCDA1424820F0C1FDCFA1C7
:10159000404820F0BDFDD0A13E4820F0B9FDAFF29B
:1015A00024413C4820F0B4FDCFA13A4820F0B0FDE2
:1015B000D3A1384820F0ACFDD5A1364820F0A8FDD5
:1015C000AFF24841334820F0A3FDD6A1314820F0C6
:1015D0009FFDBAA12F4820F09BFDAFF260412D483E
:1015E00020F096FDD3A12B4820F092FDD4A12948EC
:1015F00020F08EFDD6A1274820F08AFDDCA12548E9
:1016000020F086FDDEA1234820F082FDAFF2944158
:10161000204820F07DFDDF491E4820F079FDDE499D
:101620001C4820F075FDDDA11A4820F071FDDEA1F7
:10163000184820F06DFDDFA1164820F069FDDFA1FC
:10164000144820F065FDE3A1124820F061FDE6A1F9
:10165000104820F05DFDE6A10E4820F059FDEFA1F5
:101660000C4820F055FDF8A10A4820F051FDFEA1DC
:10167000084820F04DFDFEA1064820F049FDFEA1DE
:1016800004E20000646973706C61793A20626C6FE7
:10169000636B3B00CC060020636F6C6F723A2023B3
:1016A0006666663B0000000070616464696E673ABC
:1016B00020302031656D3B00626F726465722D626F
:1016C0006F74746F6D3A2031707820736F6C696439
:1016D00020233333333B0000236D656E7520756C1A
:1016E000206C693A686F766572207B006261636B7B
:1016F00067726F756E642D636F6C6F723A2023345E
:1017000035343534353B0000236D656E75202E73FE
:1017100075622D6D656E75207B00000064697370C5
:101720006C61793A206E6F6E653B0000706F736973
:1017300074696F6E3A206162736F6C7574653B00FB
:10174000746F703A20303B00236D656E7520756CA8
:10175000206C693A686F766572202E7375622D6D04
:10176000656E757B0000000023636F6E74656E7498
:10177000207B000070616464696E673A2031656D9A
:101780002038656D3B000000236865616465722C3C
:10179000202E63616C6C2D746F2D616374696F6EA4
:1017A000207B0000746578742D616C69676E3A2047
:1017B0002063656E7465723B0000000023686561FC
:1017C000646572207B7D000023686561646572201A
:1017D000236C6F676F207B666F6E742D73697A65FB
:1017E0003A343070783B7D0023686561646572200F
:1017F00023736C6F67616E207B000000636F6C6FFA
:10180000723A203839393761303B0000666F6E74A8
:101810002D73697A653A20302E38656D3B000000E3
:101820002E63616C6C2D746F2D616374696F6E2013
:101830007B00000070616464696E673A20312E3568
:10184000656D203230253B006261636B67726F7596
:101850006E642D636F6C6F723A2023663066666625
:10186000663B0000626F726465723A2031707820C6
:10187000736F6C696420236538653865383B0000F8
:101880002E726F77207B00006F766572666C6F77C3
:101890003A2068696464656E3B0000006D617267A0
:1018A000696E3A20312E35656D206175746F3B008D
:1018B0002E726F77202E636F6C207B00666C6F61D9
:1018C000743A206C6566743B0000000077696474AC
:1018D000683A203430253B006D617267696E3A20AA
:1018E00032656D3B000000002E726F77202E636F13
:1018F0006C3A6C6173742D6368696C64207B0000C2
:10190000666C6F61743A2072696768743B0000000E
:101910006D617267696E2D72696768743A20303B39
:10192000000000002E726F77202E636F6C20696DAF
:1019300067207B0023666F6F746572207B00000058
:10194000666F6E742D73697A653A203835253B00D1
:10195000626F726465722D746F703A2031707820F6
:10196000736F6C696420236536653665363B00000D
:10197000636F6C6F723A20233833383338333B004F
:1019800070616464696E673A2031656D2033656DFE
:101990003B000000F0400508484105083C2F7374E7
:1019A000796C653E00000000203C2F686561643E54
:1019B00000000000203C626F64793E00203C6469B6
:1019C000762069643D22636F6E7461696E65722270
:1019D0003E000000203C6469762069643D226D650C
:1019E0006E75223E00000000203C756C3E00000039
:1019F000203C6C693E3C6120687265663D222F6325
:101A00006F6E74726F6C223E486F6D6570616765B2
:101A10003C2F613E3C2F6C693E000000203C6C690D
:101A20003E3C6120687265663D222F73657474695F
:101A30006E67223E53657474696E67733C2F613E16
:101A40003C2F6C693E000000203C6C693E3C6120EC
:101A5000687265663D2223223E41626F75743C2F99
:101A6000613E3C2F6C693E00203C2F756C3E0000AF
:101A7000203C2F6469763E00203C646976206964CE
:101A80003D22636F6E74656E74223E008E4820F0B6
:101A90003FFB8EA18C4820F03BFB91A18A4820F0AF
:101AA00037FB9DA1884820F033FBA0A1864820F099
:101AB0002FFBAFF24401844820F02AFBA5A1824805
:101AC00020F026FBA8A1804820F022FBAEA17E4892
:101AD00020F01EFBB6A17C4820F01AFBBBA17A487F
:101AE00020F016FBC0A1784820F012FBC6A1764872
:101AF00020F00EFBCC49744820F00AFBCBA17248C1
:101B000020F006FBD5A1704820F002FBE2480078E7
:101B10003030C0B2039003A96B4820F0F9FADFA17E
:101B2000694820F0F5FADFA1674820F0F1FAEC48A7
:101B300000783030C0B2029002A9634820F0E8FA81
:101B4000D6A1614820F0E4FAE6A15F4820F0E0FA6F
:101B5000E6A15D4820F0DCFAF1A421465A4820F0C5
:101B6000D7FAF0A1584820F0D3FAF249564820F0AD
:101B7000CFFAF1A1544820F0CBFAAFF20C11524841
:101B800020F0C6FAEFA1504820F0C2FAA6494E480C
:101B900020F0BEFAF3A14C4820F0BAFAAFA14A48AF
:101BA00020F0B6FAFBA000680190FB4800783030C6
:101BB000C0B28DF8060001A9434820F0A9FAB7A1E8
:101BC000414820F0A5FAB7A13F4820F0A1FAF1A0C2
:101BD00000680090F14800783030C0B28DF8020003
:101BE0006946394820F094FAACA1374820F090FAC1
:101BF000BCA1354820F08CFAE9A5EAA1324820F0D2
:101C000087FA2946304820F083FAC6A12E4820F0F2
:101C10007FFAF1492C4820F07BFAAFF2AC112A4848
:101C200020F076FAEDA1284820F072FAEFA12648BC
:101C300020F06EFAF2A1244820F06AFAAFF2D01137
:101C4000214820F065FAAFF2D8111F4820F060FA61
:101C5000AFF2E4111C4820F05BFAF3A11A4820F01F
:101C600057FAF4A1184820F053FA174820F0E6F983
:101C700007463A461449304615F041FFBDE8FF815A
:101C800070B50446EE4820F0D9F905462A46EC49DD
:101C9000204615F034FF70BD3EB504464FF4007188
:101CA000E84820F08EFAE8480068401CE6490860E1
:101CB0000846E6A10268684620F02AF86946E1482D
:101CC00020F026FAC4E10000CC060020203C646924
:101CD000762069643D22686561646572223E000079
:101CE000203C6469762069643D226C6F676F223EF8
:101CF00057656253657276657220666F72204C4339
:101D00004420776174657220636F6E74726F6C3CEF
:101D10002F6469763E000000203C64697620696487
:101D20003D22736C6F67616E223E0000203C703E66
:101D300057656220636F6E74726F6C2064656D6F9F
:101D400020666F722053544D3332463478783C2FDE
:101D5000703E0000203C2F6469763E3C216865613E
:101D60006465723E00000000203C64697620636C6C
:101D70006173733D2263616C6C2D746F2D616374AC
:101D8000696F6E223E000000203C68333E4C4344A5
:101D900020776174657220636F6E74726F6C207649
:101DA000696120776562736974653C2F68333E0012
:101DB000203C703E704820616E642043484C206394
:101DC0006F6E74726F6C3C2F703E0000203C2F646D
:101DD00069763E3C2163616C6C2D746F2D61637478
:101DE000696F6E3E00000000203C64697620636CE1
:101DF0006173733D22726F77222069643D22696EA0
:101E000074726F223E000000203C64697620696491
:101E10003D22626F78312220636C6173733D2263CF
:101E20006F6C223E00000000B43C05083C68332083
:101E30007374796C653D22746578742D616C696783
:101E40006E3A63656E7465723B223E70482073651E
:101E50007474696E67733C2F68333E003C70207366
:101E600074796C653D22666C6F61743A6C6566745A
:101E70003B666F6E742D7765696768743A20626F90
:101E80006C643B223E4D696E696D756D2076616CA8
:101E900075653A20000000004C0000203C2F703E89
:101EA000000000003C70207374796C653D22666C04
:101EB0006F61743A72696768743B666F6E742D77F0
:101EC00065696768743A20626F6C643B223E4D61BD
:101ED00078696D756D2076616C75653A200000003B
:101EE000500000203C2F6469763E00003C683120A1
:101EF00069643D227048223E70482076616C7565A9
:101F00003A203C7370616E207374796C653D226376
:101F10006F6C6F723A23303039454532223E0000F3
:101F2000372E30003C2F7370616E3E3C2F68313E7F
:101F300000000000F83E05087D3B3C2F736372698A
:101F400070743E00203C6469762069643D22626FB3
:101F500078322220636C6173733D22636F6C223E82
:101F6000000000003C6833207374796C653D227476
:101F70006578742D616C69676E3A63656E7465721D
:101F80003B223E434C2073657474696E67733C2F2B
:101F900068333E00302E000054000020580000201E
:101FA000322E35003C68312069643D227048223E63
:101FB00043484C4F52494E453A203C7370616E2065
:101FC0007374796C653D22636F6C6F723A233030A5
:101FD00039454532223E0000683F0508203C2F6409
:101FE00069763E3C21726F773E000000203C6469B8
:101FF000762069643D22666F6F746572223E000030
:10200000203C703E436F7079726967687420266364
:102010006F70793B204C65204E6861742054686174
:102020006E683C2F703E0000203C2F626F64793E4A
:1020300000000000203C2F68746D6C3E0000000022
:102040005FF60208CC040020480000202564000050
:10205000CFA1DC4820F05CF8DBA1DA4820F058F88A
:10206000D8481FF0EBFFD749451828461FF00EF956
:10207000E3A1D44820F04CF8EFA1D24820F048F872
:10208000FC481FF0DBFF05462A46FA49204615F0BA
:1020900036FDCC481FF0D2FF05462A46C9492046E6
:1020A00015F02DFD3EBD2DE9F047ADF5BF6D07469E
:1020B00040F2DC580026424607A9384615F001FCDC
:1020C0008146B9F1000F03DA0DF5BF6DBDE8F08769
:1020D0001B22E9A107A81FF0D0FF88B9E7A0FEF7EF
:1020E0005AFE044607A80CF0C6F93846D4E9001297
:1020F00015F005FD002C02D02046FEF76FFE19E119
:102100001E22E4A107A81FF0B8FF88B9E2A0FEF7DD
:1021100042FE044607A80CF0AEF93846D4E9001296
:1021200015F0EDFC002CEAD02046FEF757FE01E149
:102130001D22E0A107A81FF0A0FF88B9DEA0FEF7CE
:102140002AFE044607A80CF096F93846D4E9001296
:1021500015F0D5FC002CD2D02046FEF73FFEE9E07A
:102160001822DCA107A81FF088FF30B907A80CF0DF
:1021700082F93846FFF790FDDCE01322DCA107A8C6
:102180001FF07BFF88B9DBA0FEF705FE044607A819
:102190000CF071F93846D4E9001215F0B0FC002CAF
:1021A000ADD02046FEF71AFEC4E00622D5A107A84E
:1021B0001FF063FF18B93846FFF762FDBAE0D3A1FC
:1021C00007A81FF0D9FE002844D0D2A107A81FF00D
:1021D000D3FE00283ED0CDA107A81FF0CDFE851D5F
:1021E0000020049005900690CCA107A81FF0C4FE23
:1021F000A0EB050A5246294604A820F02BF8C5A1F9
:1022000007A81FF0B9FE451D002001900290039021
:10221000294601A81FF0EEFEC248016804A820F07C
:1022200045F828B9C048016801A820F03FF808B176
:10223000012000E0002030B93846FEF709FE0020FA
:10224000BA49087005E03846FEF7F6FD0120B749A7
:1022500008706FE0B6A107A81FF08EFE002859D0C5
:10226000B5A107A81FF088FE002853D0B5A107A884
:102270001FF082FE00284DD0B5480078002845D1D7
:102280000690ABA107A81FF077FE451DAAA107A8DD
:102290001FF072FEA0EB050A5246294606A81FF061
:1022A000D9FF06A81FF05BFEAA490870A2A107A8E3
:1022B0001FF062FE00F10805A2A107A81FF05CFE56
:1022C000A0EB050A5246294606A81FF0C3FF06A840
:1022D0001FF045FEA04908709AA107A81FF04CFE08
:1022E00000F108059DA107A81FF046FEA0EB050A16
:1022F0005246294606A81FF0ADFF06A81FF02FFE84
:102300009749087001209249087000BF3846FEF7CF
:1023100093FD0FE093A0FEF73EFD044607A80CF0E6
:10232000AAF83846D4E9001215F0E9FB14B12046AA
:10233000FEF754FD03E0002007A98855761C40F203
:10234000DC508642F7DB384615F00CF900BFBBE6DF
:1023500070B58AB0064600220121022015F086FBE6
:10236000041E01DA0AB070BD02208DF8150050205D
:102370001BF03BFFADF8160000200690102205A9C7
:10238000204615F097F8002800DAEBE7F0E00000AF
:102390003C7072653E3C62723E4E616D652020204D
:1023A000202020202020205374617465202050724A
:1023B000696F726974792020537461636B202020E7
:1023C0004E756D00CC0400203C62723E2D2D2D2DEB
:1023D0002D2D2D2D2D2D2D2D2D2D2D2D2D2D2D2D2D
:1023E0002D2D2D2D2D2D2D2D2D2D2D2D2D2D2D2D1D
:1023F0002D2D2D2D2D2D2D2D2D3C62723E000000FA
:102400003C62723E3C62723E2D2D2D2D2D2D2D2DC8
:102410002D2D2D2D2D2D2D2D2D2D2D2D2D2D2D2DEC
:102420002D2D2D2D2D2D2D2D2D2D2D2D2D2D2D2DDC
:102430002D2D2D2D2D0000003C62723E42203A20B1
:10244000426C6F636B65642C2052203A20526561A8
:1024500064792C2044203A2044656C657465642CB2
:102460002053203A2053757370656E6465643C6236
:10247000723E0000B0E90208474554202F53544DE6
:102480003332463478375F66696C65732F53542E48
:1024900067696600474554202F53544D3332463404
:1024A00078375F66696C65732F73746D33322E6A8B
:1024B00070670000474554202F53544D3332463443
:1024C00078375F66696C65732F6C6F676F2E6A7003
:1024D00067000000474554202F53544D3332463493
:1024E00078375441534B532E68746D6C00000000D4
:1024F000474554202F53544D3332463478372E6895
:10250000746D6C00474554202F200000756E616D7E
:10251000653D0000267073773D00000026707377DC
:10252000000000006000002064000020680000201F
:10253000686F75723D000000266D696E7574653DAB
:1025400000000000267365636F6E643D00000000AC
:102550005C00002074000020750000202F30000077
:10256000760000202F3430342E68746D6C0000002B
:102570000521204615F070F81020099008E009AAFE
:1025800001A9204614F0DFFE05462846FFF78BFD23
:10259000F5E708B504204FF47A730022FE49009055
:1025A000FEA01CF0E4FE08BD70B5044640F6AC5138
:1025B000FD481FF006FEFD49FB481FF0A9FDFB4941
:1025C0000831F9481FF0A4FDF8491031F6481FF012
:1025D0009FFDF6492C31F4481FF09AFDF3495C3118
:1025E000F1481FF095FDF1498831EF481FF090FD4B
:1025F000EE49D031EC481FF08BFDEC49DC31EA4864
:102600001FF086FDE949E031E7481FF081FDE74909
:10261000F831E5481FF07CFDE549E3481FF078FDFF
:10262000E4A1E1481FF074FDE1492431DE481FF0C8
:102630006FFDDF492C31DC481FF06AFDDC496C314D
:10264000D9481FF065FDDA498031D7481FF060FD99
:10265000D7499031D4481FF05BFDD549A431D24809
:102660001FF056FDD249B031CF481FF051FDD1A126
:10267000CD481FF04DFDCE49BC31CB481FF048FD81
:10268000CB49C031C8481FF043FDC949D831C648BD
:102690001FF03EFDC649E831C3481FF039FDC64969
:1026A000C1481FF035FDC4491C31BF481FF030FD43
:1026B000C0A1BD481FF02CFDBF493C31BA481FF0F6
:1026C00027FDBD495431B8481FF022FDB9A1B648D5
:1026D0001FF01EFDB8496431B3481FF019FDB6491B
:1026E0007431B1481FF014FDB3498C31AE481FF06E
:1026F0000FFDB149A031AC481FF00AFDAE49AC3125
:10270000A9481FF005FDABA1A7481FF001FDAA498C
:10271000BC31A5481FF0FCFCA749C431A2481FF0FA
:10272000F7FCA549D831A0481FF0F2FCA249E831D6
:102730009D481FF0EDFCA1499B481FF0E9FC9F4913
:10274000643999481FF0E4FC9AA197481FF0E0FC17
:102750009A49103194481FF0DBFC98491C3192488B
:102760001FF0D6FC954928318F481FF0D1FC9249C3
:1027700050398D481FF0CCFC8F495C398A481FF0D6
:10278000C7FC8CA188481FF0C3FC8C4940318648A7
:102790001FF0BEFC8949503183481FF0B9FC8749BE
:1027A000643181481FF0B4FC844974317E481FF0C5
:1027B000AFFC824988317C481FF0AAFC7F49A431D4
:1027C00079481FF0A5FC7D49783977481FF0A0FCB7
:1027D00078A175481FF09CFC7849C03172481FF001
:1027E00097FC774970481FF093FC754914316E4887
:1027F0001FF08EFC724924316B481FF089FC704930
:10280000343169481FF084FC6AA167481FF080FCDE
:102810006B49543164481FF07BFC69496831624858
:102820001FF076FC63A160481FF072FC644984319C
:102830005D481FF06DFC624998315B481FF068FCF1
:102840005F49A83158481FF063FC5D49BC315648C8
:102850001FF05EFC58497C3153481FF059FC574922
:102860001C3951481FF054FC52A14F481FF050FC36
:102870005349C4314C481FF04BFC51494A481FF0A2
:1028800047FC4CA148481FF043FC4D49E431464801
:102890001FF03EFC4A49F03143481FF039FC45A186
:1028A00041481FF035FC47493F481FF031FC45497E
:1028B0001C313D481FF02CFC3EA13B481FF028FC7A
:1028C0004049343138481FF023FC3E4940313648F6
:1028D0001FF01EFC3B49603133481FF019FC394999
:1028E000743131481FF014FC364984312E481FF0F2
:1028F0000FFC30A12C481FF00BFC324998312A48BC
:102900001FF006FC2F49AC3127481FF001FC2D4970
:10291000C03125481FF0FCFB2A49DC3122481FF05A
:10292000F7FB24A120481FF0F3FB2649F8311E488D
:102930001FF0EEFB24491C481FF0EAFB224914312A
:1029400019481FF0E5FB1BA117481FF0E1FB1E49CA
:10295000283115481FF0DCFB1B49343112481FF0A9
:10296000D7FB1949443110481FF0D2FB16495031AA
:102970000D481FF0CDFB0FA10B481FF0C9FB1249FA
:10298000603109481FF0C4FB0F49783106481FF039
:10299000BFFB0D49883119E05123000848545450B9
:1029A0005345525645520000CC0600204410000802
:1029B0005C1100087D0000005C1200086013000834
:1029C00084160008881700088818000898481FF027
:1029D0009FFBAFF2200196481FF09AFB954994485F
:1029E0001FF096FB9349683991481FF091FBAFF2B5
:1029F0003C018F481FF08CFBAFF210518C481FF048
:102A000087FB8C4910318A481FF082FB89491C31B1
:102A100087481FF07DFB87492C3185481FF078FBE4
:102A200084494C3182481FF073FB82495C318048F5
:102A30001FF06EFBAFF284017D481FF069FB7E49F9
:102A40007B481FF065FB7D4979481FF061FB7CA145
:102A500077481FF05DFB7749783175481FF058FBC8
:102A60007449843172481FF053FB724990317048A9
:102A70001FF04EFB6F4998316D481FF049FB6D49BF
:102A8000B0316B481FF044FB6A49C43168481FF0FD
:102A90003FFB6849CC3166481FF03AFB6549F83185
:102AA00063481FF035FB744961481FF031FB7249E0
:102AB00020315F481FF02CFB70A15D481FF028FB00
:102AC0006D4930315A481FF023FBAFF6006158487A
:102AD0001FF01EFBAFF6F85155481FF019FBAFF67B
:102AE000C85153481FF014FBAFF6C05150481FF0B7
:102AF0000FFB614928314E481FF00AFBAFF6AC517D
:102B00004B481FF005FBAFF6A05149481FF000FBF2
:102B1000AFF68C5146481FF0FBFAAFF66C514448B3
:102B20001FF0F6FAAFF65C5141481FF0F1FAAFF62C
:102B300048513F481FF0ECFAAFF634513C481FF0C3
:102B4000E7FA52493A481FF0E3FA51A138481FF01A
:102B5000DFFA594936481FF0DBFA584934481FF06C
:102B6000D7FA57A132481FF0D3FA5FA130481FF0BF
:102B7000CFFA5F492E481FF0CBFA3F4928312C4845
:102B80001FF0C6FAAFF6444129481FF0C1FA59496F
:102B900027481FF0BDFA58A125481FF0B9FA60492F
:102BA00023481FF0B5FA5F4921481FF0B1FA44A14C
:102BB0001F481FF0ADFA4CA11D481FF0A9FA5A4951
:102BC0001B481FF0A5FA2C49283119481FF0A0FA1C
:102BD000AFF6F83116481FF09BFAAFF6F031144803
:102BE0001FF096FA51A112481FF092FA224928319B
:102BF0000F481FF08DFA57A10D481FF089FA5AA10E
:102C00000B481FF085FAAFF6E03109481FF080FA53
:102C1000AFF6E03106481FF07BFA05481FF00EFAC8
:102C200005462A460249204614F069FF70BD00009F
:102C3000CC06002024190008A4420508EC41050830
:102C4000696E7075745B747970653D7375626D69DA
:102C5000745D3A686F766572207B6261636B677240
:102C60006F756E642D636F6C6F723A20233435611B
:102C70003034393B7D000000481A0008203C2F64A6
:102C800069763E3C216D656E753E0000D83F0508B3
:102C90003C666F726D20616374696F6E3D222F70A8
:102CA0006876616C756522206D6574686F643D227D
:102CB000474554223E0000000C3D0508B43D050880
:102CC000203C696E70757420747970653D2273754F
:102CD000626D6974222076616C75653D2253756260
:102CE0006D6974223E0000003C2F666F726D3E00DD
:102CF000A83E0508644005083C666F726D2061635C
:102D000074696F6E3D222F636C76616C756522204D
:102D10006D6574686F643D22474554223E00000093
:102D2000603D0508083E05085C3E0508203C703EF5
:102D3000436F707972696768742026636F70793B9E
:102D40002043686175205068756F632056753C2F6D
:102D5000703E0000203C2F6469763E3C21636F6E1C
:102D600074656E743E000000203C2F6469763E3C22
:102D700021636F6E7461696E65723E0070477047C3
:102D800010B50121084610F053FD10BD10B50FF02D
:102D90000DFFFFF7F5FFFFF7F2FFFFF7EFFF10BDA5
:102DA0000EB54FF49670019041F26800ADF8000046
:102DB0000020ADF808001020ADF8020069468248F6
:102DC00011F055F80021804811F0B0F801217E483B
:102DD00011F016FD012211467B4811F0E9FC4FF479
:102DE0007A7001902A20ADF800000020ADF80800AC
:102DF000ADF802006946754811F039F800217348B2
:102E000011F094F80121714811F0FAFC01221146E9
:102E10006E4811F0CDFC00216B4811F0B1F8002193
:102E20006A4811F0ADF800214FF0804011F0A8F889
:102E30000EBD10B50121022010F02DFD012104204E
:102E400010F029FD10BD10B5FFF7F3FFFFF7A8FF45
:102E500010BD1CB51D208DF8040000208DF8050064
:102E60008DF8060001208DF8070001A80FF02DFA5B
:102E70001E208DF8040002208DF805008DF8060054
:102E800001208DF8070001A80FF01FFA32208DF8FD
:102E9000000007208DF8010000208DF802000120BD
:102EA0008DF8030068460FF010FA1CBD10B50446FB
:102EB000474804800021454811F022F80121434889
:102EC00011F05EF800BF424800880028FBD10021C5
:102ED0003E4811F055F810BD38B504463C48048012
:102EE0001E208DF8000000208DF801008DF80200F2
:102EF00001208DF8030068460FF0E7F901213348FF
:102F000011F07EFC0021314810F0FAFF01212F481A
:102F100011F036F800BF2E4800880028FBD10021B0
:102F20002A4811F02DF81E208DF8000002208DF89F
:102F300001008DF8020001208DF8030068460FF0B3
:102F4000C4F938BD2248008820B121480088401EBD
:102F50001F49088070471F48008820B11D4800881D
:102F6000401E1C49088070471CB50121042010F048
:102F7000A3FC00208DF804008DF80700802000904D
:102F80006946154810F012FA1CBD10B5044601211F
:102F90000D4811F035FC21460B4810F0B1FF01211E
:102FA000094810F0EDFF10BD10B50021064810F0E3
:102FB000E7FF10BD4FF0E020006920F003004FF064
:102FC000E021086170470000000400400008004054
:102FD0006C0000202C000020000802400146002068
:102FE0000A6890B2704701460020086870470146A1
:102FF00000200A6890B20A2800DD0020704700B562
:10300000E548FFF7F4FFE5490870E3485C38FFF74F
:10301000EEFFE3490870E0485A38FFF7E8FFE1495E
:103020000870DD485638FFF7E2FFDF490870DA48DC
:103030005838FFF7DCFFDD490870D7480E38FFF736
:10304000CDFFDB490870D4480C38FFF7C7FFD949DA
:103050000870D1485438FFF7C1FFD7490880CE48DF
:103060005238FFF7BBFFD5490880CB481038FFF72F
:10307000B5FFD3490880C848001DFFF7AFFFD1490D
:103080000870C548801DFFF7A9FFCF490870C248E6
:103090000830FFF7A3FFCD490870BF485038FFF74D
:1030A000A2FFCB49086008460068401C28B99FED84
:1030B000C90AC94880ED000A05E0C54890ED000A3C
:1030C000C54880ED000AB4484038FFF78CFFC0497E
:1030D000086008460068401C28B9B6EE000ABF48E0
:1030E00080ED000A05E0BA4890ED000ABB4880ED8B
:1030F000000AA9483038FFF776FFB549086008464E
:103100000068401C28B99FEDB30AB54880ED000A5D
:1031100005E0AF4890ED000AB14880ED000A9E48F6
:103120002038FFF760FFAA49086008460068401C85
:1031300028B9B6EE000AAB4880ED000A05E0A448C5
:1031400090ED000AA74880ED000A93486038FFF729
:1031500045FFA549088090485E38FFF73FFFA34927
:1031600008809348007840B2A149087091480078DF
:1031700040B2A04908709C4800889F4908809B483D
:1031800000889E4908808C4800889D4908808B48AB
:1031900000889C4908808A4800889B4908808E489E
:1031A00090ED000A994880ED000A8C4890ED000AE5
:1031B000974880ED000A8A4890ED000A954880ED16
:1031C000000A884890ED000A934880ED000A00BD8F
:1031D00010B511F02BFEF32012F041F8022140202F
:1031E00011F070FE082801D0012010BD7E48018832
:1031F0006948603811F038FF082801D00120F4E751
:103200007A48018864485E3811F02EFF082801D002
:103210000120EAE7624801785F485C3811F024FF3A
:10322000082801D00120E0E75E4801785A485A3862
:1032300011F01AFF082801D00120D6E75B48017879
:103240005548583811F010FF082801D00120CCE76C
:10325000554801785048563811F006FF082801D02B
:103260000120C2E7544801884B48543811F0FCFE55
:10327000082801D00120B8E7504801884648523854
:1032800011F0F2FE082801D00120AEE7524890ED7F
:10329000000A4F4880ED000A01683F48503811F09D
:1032A000BAFE082801D001209FE74C4890ED000AA3
:1032B000474880ED000A01683748403811F0ABFEFE
:1032C000082801D0012090E7454890ED000A4048C9
:1032D00080ED000A01683048303811F09CFE082863
:1032E00001D0012081E73F4890ED000A384880ED89
:1032F000000A01682848203811F08DFE082801D006
:10330000012072E72E4801882348103811F0ACFEE6
:10331000082801D0012068E7254801781E480E38AA
:1033200011F0A2FE082801D001205EE721480178B3
:1033300019480C3811F098FE082801D0012054E7F4
:1033400016480178144811F08FFE082801D001209A
:103350004BE71C4801781048001D11F085FE082835
:1033600001D0012041E7184801780B48801D11F079
:103370007BFE082801D0012037E714480178064871
:10338000083011F071FE082801D001202DE711F05E
:103390005AFD002029E70000600008088500002091
:1033A000860000208700002089000020880000207F
:1033B0008A0000208B000020900000209200002056
:1033C000940000207400002075000020760000208A
:1033D000700000206666C640980000209C00002017
:1033E000A0000020A40000208C0000208E000020FF
:1033F000A8000020A9000020AA000020AC000020A6
:10340000AE000020B0000020B2000020B400002078
:10341000B8000020BC000020C000002010B502460B
:10342000012341B1002004E003FB02F4A3B2441CD9
:1034300020B28842F8DB184610BD2DE9FF5F9146A7
:103440001C46DDF83880B8F10A0F12D2DFE808F028
:103450000F111105060D0A0B080700BF00BF00BFC2
:10346000042507E000BF062504E0032502E001254E
:1034700000E000BF00BF04EB050A50461EF0F2FB5F
:10348000064600226119491E7254B8F10A0F6FD224
:10349000DFE808F06C6E6E051263394E2C1F6C214C
:1034A0006019801E31546D216019C01E31542021D5
:1034B0006019001F31545CE033216019801E3154C3
:1034C0006D216019C01E315420216019001F315434
:1034D0004FE043216019801E31546F216019C01ED6
:1034E000315420216019001F315442E056216019E7
:1034F000801E31546D216019C01E31542021601985
:10350000001F315435E06C216019801E31542F2189
:103510006019C01E315467216019001F31546D219C
:103520006019401F315420216019801F315420E060
:1035300068216019801E31542F216019C01E31543A
:1035400067216019001F31546D216019401F3154EB
:1035500020216019801F31540BE068216019801E02
:10356000315420216019C01E315402E001E0FFE710
:1035700000BF00BF002713E0E01B81B20A20FFF765
:103580004DFF99FBF0F100FB119BE01B401E81B247
:103590000A20FFF743FF9BFBF0F03030F0557F1C13
:1035A000A742E9DB3246DDE900010BF080FD304641
:1035B0001EF087FBBDE8FF9F2DE9F05F2DED028B2C
:1035C00082468B46B0EE408AF0EE608A16461F4671
:1035D000DDF83080B8F1000F04D0B8F1020F03D14C
:1035E000042502E0012500E000BF00BFF019401CE7
:1035F00000EB050948461EF035FB0446B8F1000F04
:1036000009D0B8F1020F0DD153EC182BFEA12046C2
:103610001EF07EFB07E053EC182BFEA120461EF0A7
:1036200077FB00E000BF00BF2246594650460BF032
:103630003EFD20461EF045FBBDEC028BBDE8F09F31
:1036400000B52DED028B83B0F448008821287DD28F
:10365000DFE800F07C11FDFEFBFA7CF9F8F7F6F5E7
:10366000F4F3F2F1F0EFEEEDECEBEAE9E8E7E6E592
:10367000E4E3E2E1E00000214FF6FF700BF0ECFA2A
:10368000E7480BF006FBE74800780090E64803782F
:10369000E6480278E6A101A81EF03AFB01AA8221C1
:1036A00014200BF004FDE548007830B1012834D037
:1036B000022852D0032879D163E04FF668610020D8
:1036C0000BF0CAFADE480BF0E4FADE48006820F09E
:1036D0008FFC41EC180B002001231A46B0EE480A7B
:1036E000F0EE680A642100908220FFF765FFCC4865
:1036F0000BF0CFFAD348006820F07AFC41EC180BAD
:10370000002001231A46B0EE480AF0EE680AAA210A
:1037100000905020FFF750FF49E04FF6686100200D
:103720000BF09AFAC6480BF0B4FA0020032300907D
:10373000C548028864218220FFF77FFEB8480BF05D
:10374000A8FA082003230090BF4800E099E202880D
:1037500087215020FFF771FE29E04FF668610020B5
:103760000BF07AFAB6480BF094FA00200090B748B4
:1037700090F9000082B2022364218220FFF75DFEEF
:1037800015E045F2AA2100200BF066FAAC480BF0D8
:1037900080FA00200090AE4890F9000082B2022327
:1037A00064218220FFF749FE01E0FFE700BF00BF70
:1037B00040F2FC4100200BF04FFAA1480BF069FAEF
:1037C000A448006820F014FC41EC180B00200123F1
:1037D0001A46B0EE480AF0EE680A4FF4A571009060
:1037E0008220FFF7E9FE8E480BF053FA99480068F3
:1037F00020F0FEFB41EC180B002001231A46B0EE2E
:10380000480AF0EE680A4FF4C87100905020FFF7A4
:10381000D3FE37E200E2C6E1C4E18AE188E153E188
:1038200051E12BE1D0E01FE287E085E025E223E2D1
:1038300021E21FE21DE21BE218E218E26AE057E013
:103840001EE22FE02DE01AE20FE2F9E100E015E2BE
:103850004FF6686100200BF0FFF979480BF019FA78
:103860006F480BF016FA032003464FF4C8729B21F1
:1038700000904620FFF7E1FD40F2FC4100200BF0F4
:10388000EBF96F480BF005FA65480BF002FA0320DC
:103890000346C82240F2811100904620FFF7CDFD7B
:1038A000F0E100BF45F2AA214FF6FF700BF0D4F90A
:1038B00063480BF0EEF9042002230090664802886A
:1038C00069216420FFF7B9FD45F2AA214FF6FF7088
:1038D0000BF0C2F95A480BF0DCF9052002230090E6
:1038E0005E48028840F23B116420FFF7A6FDC9E163
:1038F00047F2C5514FF6FF700BF0AEF950480BF090
:10390000C8F9002002230F22C32100909620FFF760
:1039100094FDB7E14EF2E3014FF6FF700BF09CF916
:1039200047480BF0B6F9002002231422C32100906F
:103930009620FFF782FDA5E100BF4FF668610020E9
:103940000BF08AF93E480BF0A4F93E48006820F0DD
:103950004FFB41EC180B002001231A46B0EE480A39
:10396000F0EE680A642100900846FFF725FE2C4817
:103970000BF08FF93AA2A5216E200BF098FB40F2D4
:10398000FC4100200BF068F92D480BF082F931481A
:10399000006820F02DFB41EC180B002001231A4693
:1039A000B0EE480AF0EE680A4FF4A571009064206A
:1039B000FFF702FE1A480BF06CF92BA240F28B11B4
:1039C0006E200BF074FB5DE140F2FC4100200BF037
:1039D00043F91B480BF05DF92448006820F008FB10
:1039E00041EC180B002001231A46B0EE480AF0EE15
:1039F000680A4FF4A57100906420FFF7DDFD0848C8
:103A00000BF047F918A233E025312E3166207048BB
:103A10000000000025312E3166000000C8000020A3
:103A2000A80100207600002075000020740000200E
:103A30002532643A2532643A253264008900002038
:103A4000A0010020C0000020B2000020A80000203B
:103A5000A9000020BC000020AA000020AC0000202B
:103A60006D672F6C0000000070480000B40000205B
:103A700040F28B116E200BF01AFB03E14FF66861E8
:103A800000200BF0E9F882480BF003F98148006848
:103A900020F0AEFA41EC180B002001231A46B0EEDC
:103AA000480AF0EE680A4FF4A57100906420FFF711
:103AB00083FD79480BF0EDF878A240F28B116E206F
:103AC0000BF0F5FADEE000BF4FF6686100200BF066
:103AD000C3F86F480BF0DDF808200323009071480D
:103AE000028864210846FFF7A8FC40F2FC41002050
:103AF0000BF0B2F866480BF0CCF86B48006820F089
:103B000077FA41EC180B002001231A46B0EE480A60
:103B1000F0EE680A4FF4A57100906420FFF74CFDA9
:103B2000AFF2BC0240F28B1164200BF0C0FAA9E0A6
:103B300000BF4FF6686100200BF08EF854480BF080
:103B4000A8F800200090594890F9000082B20223A2
:103B500064210846FFF771FC40F2FC4100200BF0A5
:103B60007BF84B480BF095F84F48006820F040FA7E
:103B700041EC180B002001231A46B0EE480AF0EE83
:103B8000680A4FF4A57100906420FFF715FD4248C4
:103B90000BF07FF8AFF2301240F28B116E200BF079
:103BA00086FA6FE000BF45F2AA2100200BF054F81E
:103BB00037480BF06EF8002000903D4890F9000067
:103BC00082B2022364210846FFF737FC40F2FC4131
:103BD00000200BF041F82E480BF05BF832480068EB
:103BE00020F006FA41EC180B002001231A46B0EE33
:103BF000480AF0EE680A4FF4A57100906420FFF7C0
:103C0000DBFC25480BF045F8AFF2A41240F28B1113
:103C10006E200BF04CFA35E045F2AA214FF6FF700A
:103C20000BF01AF81A480BF034F809200223009020
:103C3000204802884FF4A5716420FFF7FEFB21E0C5
:103C400045F2AA214FF6FF700BF006F810480BF072
:103C500020F8092002230090174802884FF4A5712C
:103C60006420FFF7EAFB0DE000BF00BF00BF00BF0C
:103C700000BF00BF00BF00BF00BF00BF00BF00BF4C
:103C800000E000BF00BF03B0BDEC028B00BD000030
:103C9000A0010020B8000020A80100206D672F6857
:103CA00000000000B2000020BC000020A80000209E
:103CB000A9000020B0000020AE00002000B58DB0AB
:103CC000012103200FF0B4FD012108020FF0F4FDE3
:103CD000032001908DF8080000208DF80B0001A949
:103CE0002A480FF063FB4120019003208DF8080063
:103CF00000208DF80B0001A925480FF057FB00208C
:103D0000039004900590069003A80EF083FB0EF03C
:103D100047FB002007908DF820008DF821000990C6
:103D20000A900B9001208DF8300007A919480EF079
:103D300042FB012117480EF084FB0DB000BD10B509
:103D4000044604230122214612480EF0BAFB114812
:103D50000EF013FC00BF02210E480EF02FFD0028CC
:103D6000F9D00C480EF045FC40F6E441484340F6DB
:103D7000FF7190FBF1F000EE100AB8EEC00A0648A1
:103D800080ED000A90ED000A10BD00000004024022
:103D900000000240002001407C0000201CB50121F1
:103DA00008460FF045FD3020009001208DF80400FA
:103DB00000208DF8060003208DF8050000208DF806
:103DC0000700694606480FF0F1FA1CBD18B101283A
:103DD00003D10A8302E04A8300E000BF00BF7047BE
:103DE0000000024010B52DED0C8BB0EE408A18EEAD
:103DF000100A20F0FDF841EC1D0B9FED110B53EC68
:103E0000102B1FF02BFC41EC1B0B0F48006820F01F
:103E1000EFF841EC1C0B53EC1B2B1FF0BFFE41ECE9
:103E20001A0B9FED0A0B53EC102B1FF0CBFC41EC4F
:103E3000190B1FF0E1FB00EE100ABDEC0C8B10BD5E
:103E40006666666666127140800000206666666679
:103E50006692724010B5FB48006809F016FB00F04E
:103E60001CFF10BD10B5F748006809F00EFB04F008
:103E70002BFE10BD10B5F348006809F006FB00F0FA
:103E8000BEFD10BD10B5EF48006809F0FEFA01F064
:103E9000AAF910BD10B5EB48006809F0F6FA02F077
:103EA0008FFF10BD10B5E748006809F0EEFAE6484C
:103EB000007808B101F010F801F053F810BD10B50A
:103EC000E048006809F0E1FA04F05FFD10BD10B5AC
:103ED000FFF77EF910BD10B5DA48006809F0D5FA91
:103EE00000F0DBFE10BD10B5D648006809F0CDFA31
:103EF00000F085FD10BD10B5D348007830B1012821
:103F000008D002280AD0032814D10FE00220CE499D
:103F1000087010E00320CC4908700CE0C948006824
:103F200009F0B3FA0020C849087004E00120C6492E
:103F3000087000E000BF00BF01F013F810BD10B51D
:103F4000C148007830B1012808D002280ED00328DB
:103F500014D10FE00120BC49087010E0B948006896
:103F600009F093FA0020B849087008E00320B64928
:103F7000087004E00220B449087000E000BF00BFF0
:103F800000F0EFFF10BD10B5AE48006809F07DFAF3
:103F900000F083FE10BD10B5AA48006809F075FA5C
:103FA00000F02DFD10BD10B5A648006809F06DFAAF
:103FB00001F05EFA10BD10B5A248006809F065FA7C
:103FC00001F04EFD10BD10B59E48006809F05DFA85
:103FD0009E48007830B1012807D0022808D0032875
:103FE0000CD108E002F07EFC09E003F08EFA06E056
:103FF00003F02FFD03E003F0DCFF00E000BF00BF93
:1040000010BD10B58F48006809F03FFA01F0EBF8D9
:1040100010BD10B58B48006809F037FA00F0EFFCCE
:1040200010BD8B480088401C8949088008460088DC
:10403000322801DD32200880704785480088401E04
:10404000834908800846008808B900200880704726
:104050007F4800887F490880704710B5794800681C
:1040600009F013FA01F024FB10BD10B57548006883
:1040700009F00BFA01F0B7F810BD10B571480068EF
:1040800009F003FA00F0BBFC10BD73480088401C27
:104090007149088008460088182801DD182008802A
:1040A00070476D480088401E6B49088008460088AC
:1040B000062800D108807047674800886749088053
:1040C000704710B55F48006809F0DFF901F0D0F9DA
:1040D00010BD10B55B48006809F0D7F901F083F80E
:1040E00010BD10B55748006809F0CFF900F087FC03
:1040F00010BD00205A4908707047012058490870C7
:10410000704710B50220564908704E48006809F003
:10411000BCF901F06AFE10BD0020524908707047DA
:10412000012050490870704702204E4908707047BE
:1041300010B500204C4908704248006809F0A5F904
:1041400001F0C4FE10BD01204749087070470220ED
:1041500045490870704710B53A48006809F095F96C
:1041600001F07EFC10BD10B53648006809F08DF9ED
:1041700001F076FC10BD10B53248006809F085F9F1
:1041800001F06EFC10BD10B52E48006809F07DF9F5
:1041900002F026FF10BD10B52A48006809F075F935
:1041A00002F01EFF10BD10B52648006809F06DF939
:1041B00002F016FF10BD10B52248006809F065F93D
:1041C00003F07EF810BD10B51E48006809F05DF9D7
:1041D00003F076F810BD10B51A48006809F055F9DB
:1041E00001F03EFC10BD10B51648006809F04DF90D
:1041F00001F036FC10BD10B51248006809F045F911
:1042000000F0F1FF10BD10B50E48006809F03DF94F
:1042100000F0F5FB10BD154890ED000ADFED140A23
:1042200030EE200A80ED000A90ED000ADFED110A61
:10423000B4EEE00AF1EE10FA03DD9FED0E0A80ED18
:10424000000A7047C400002084000020890000207C
:10425000AA0000208C000020AC0000208E0000206E
:10426000860000208700002088000020BC0000207D
:10427000CDCCCC3D3333F340F84890ED000A5FEDF0
:10428000040A30EE600A80ED000A90ED000AF1EEBB
:104290000A0AB4EEE00AF1EE10FA03D2B1EE0A0A0D
:1042A00080ED000A7047ED4890ED000AEC4880ED83
:1042B000000A704710B5EB48006809F0E6F802F014
:1042C0002EFC10BD10B5E748006809F0DEF800F0DC
:1042D0008AFF10BD10B5E348006809F0D6F800F079
:1042E0008EFB10BDE04890ED000A5FED1F0A30EE36
:1042F000200A80ED000A90ED000ADFEDDC0AB4EE42
:10430000E00AF1EE10FA03DD9FEDD80A80ED000A15
:104310007047D54890ED000A5FED2B0A30EE600A39
:1043200080ED000A90ED000AF6EE000AB4EEE00A15
:10433000F1EE10FA03D2B6EE000A80ED000A7047E3
:10434000C94890ED000ACA4880ED000A704710B5D0
:10435000C448006809F099F802F0C4FA10BD10B51D
:10436000C048006809F091F800F097FC10BD10B546
:10437000BC48006809F089F800F041FB10BD10B599
:10438000B848006809F081F802F09AFFB548006863
:1043900009F07BF801F0EEFF10BD10B5B1480068E0
:1043A00009F073F802F01CFEAE48006809F06DF8E1
:1043B00001F07EFF10BD10B5AA48006809F065F84D
:1043C00004F058F810BD10B5A648006809F05DF873
:1043D00004F066F910BD10B5A248006809F055F860
:1043E00002F0EEFC10BD10B59E48006809F04DF8D3
:1043F00000F005FB10BD10B59E4890ED000A5FED82
:10440000640A30EE200A80ED000A90ED000ADFED2C
:104410009A0AB4EEE00AF1EE10FA0ADD914800685B
:1044200009F033F801F0B8FD9FED930A914880ED53
:10443000000A10BD10B58F4890ED000A5FED740AB8
:1044400030EE600A80ED000A90ED000ADFED8B0A85
:10445000B4EEE00AF1EE10FA0AD28248006809F0E0
:1044600014F801F099FD9FED850A824880ED000A5D
:1044700010BD804890ED000A814880ED000A704729
:1044800010B57848006809F000F802F099FC10BDFA
:1044900010B57448006808F0F8FF00F0B0FA10BDDD
:1044A000784890ED000A5FED8E0A30EE200A80ED2C
:1044B000000A90ED000ADFED6D0AB4EEE00AF1EEBD
:1044C00010FA03DD9FED690A80ED000A704710B510
:1044D0006C4890ED000A5FED9A0A30EE600A80EDBC
:1044E000000A90ED000A6248D0ED000AB4EE600ABE
:1044F000F1EE10FA06D15B48006808F0C6FF01F043
:10450000A0FF0DE05F4890ED000AF6EE000AB4EE61
:10451000E00AF1EE10FA03D2B6EE000A80ED000ACE
:1045200010BD584890ED000A574880ED000A7047CA
:1045300010B54C48006808F0A8FF00F054FE10BD0C
:1045400010B54848006808F0A0FF00F058FA10BD08
:104550004E4800880A304D4908800846008840F2DD
:10456000DE31884202DD08464849088070474748E6
:1045700000880A3845490880084600880A2801DA78
:104580000A200880704741480088414908807047E8
:1045900010B53448006808F078FF03F037F910BD13
:1045A00010B53048006808F070FF00F01CFE10BD28
:1045B00010B52C48006808F068FF00F020FA10BD24
:1045C000264890ED000A5FEDD60A30EE200A80ED15
:1045D000000A90ED000ADFED280AB4EEE00AF1EEE1
:1045E00010FA03DD9FED240A80ED000A70471B4896
:1045F00090ED000A5FEDE20A30EE600A80ED000AFD
:1046000090ED000ADFED1D0AB4EEE00AF1EE10FABB
:1046100003D29FED1A0A80ED000A70470F4890ED13
:10462000000A0F4880ED000A704710B50D48006879
:1046300008F02BFF02F069FF10BD10B509480068B3
:1046400008F023FF00F0CFFD10BD10B5054800684D
:1046500008F01BFF00F0D3F910BD0000BC000020E3
:10466000A0000020C4000020C00000209A99993FBB
:10467000A4000020B40000209A99F9406666C64064
:1046800098000020B80000209C000020B20000200C
:1046900094000020C1480078401C40B2BF49087017
:1046A000084690F90000142801DD142008707047B6
:1046B000BA480078401E40B2B8490870084690F9E0
:1046C0000000002801DA002008707047B348007825
:1046D000B3490870704710B5B248006808F0D5FEBD
:1046E00003F00CFB10BD10B5AE48006808F0CDFE1D
:1046F00000F079FD10BD10B5AA48006808F0C5FEAD
:1047000000F07DF910BDA84890ED000ADFEDA70A82
:1047100030EE200A80ED000A90ED000A5FED2A0AD3
:10472000B4EEE00AF1EE10FA03DD1FED2D0A80ED84
:10473000000A70479C4890ED000ADFED9C0A30EEBD
:10474000600A80ED000A90ED000A5FED340AB4EED5
:10475000E00AF1EE10FA03D21FED380A80ED000AEC
:104760007047914890ED000A914880ED000A70472B
:1047700010B58C48006808F088FE03F06AF910BD97
:1047800010B58848006808F080FE00F02CFD10BDD0
:1047900010B58448006808F078FE00F030F910BDCC
:1047A00084480078401C40B282490870084690F95D
:1047B00000001E2801DD1E20087070477D4800782B
:1047C000401E40B27B490870084690F9000000285E
:1047D00001DA002008707047764800787649087042
:1047E000704710B56F48006808F04FFE03F008FDF1
:1047F00010BD10B56B48006808F047FE00F0F3FCF0
:1048000010BD10B56748006808F03FFE00F0F7F8EB
:1048100010BD654890ED000ADFED640A30EE200A15
:1048200080ED000A90ED000A5FED6D0AB4EEE00A3B
:10483000F1EE10FA03DD1FED700A80ED000A7047FB
:10484000594890ED000ADFED590A30EE600A80ED1C
:10485000000A90ED000A5FED770AB4EEE00AF1EE8F
:1048600010FA03D21FED7B0A80ED000A70474E4814
:1048700090ED000A4E4880ED000A704710B5494897
:10488000006808F002FE03F094FB10BD10B5454827
:10489000006808F0FAFD02F093FA10BD10B5414827
:1048A000006808F0F2FD00F0AAF810BD4348008847
:1048B000401C4249088008460088282801DA282040
:1048C000088070473D480088401E3C4908800846E3
:1048D000008808B9002008807047384800883849A7
:1048E0000880704710B52F48006808F0CEFD02F030
:1048F00067FA10BD10B52B48006808F0C6FD00F03F
:104900007EF810BD2F480088401C2E4908800846BC
:104910000088282801DD2820088070472948008861
:10492000401E284908800846008808B900200880F1
:1049300070472448008824490880704710B51948FA
:10494000006808F0A2FD00F0A8F910BD10B51548E8
:10495000006808F09AFD00F052F810BD00201B49D5
:1049600008707047012019490870704702201749E4
:1049700008707047032015490870704710B5094842
:10498000006808F082FD00F03AF810BD01201049DF
:104990000870704700200E4908707047A80000207A
:1049A0008A000020C4000020BC000020CDCCCC3DFB
:1049B000A0000020A90000208B000020B0000020F3
:1049C00092000020AE00002090000020890000200E
:1049D0008500002038B5FD484FF6FF732022D22114
:1049E0000090012009F057FB0446F94808F085F9CA
:1049F000F74B2246F021FA2007F033FE38BD08B508
:104A0000FFF7E8FF00200AF0C8F94FF6FF702023F7
:104A1000D222F0210090FA200AF038FEED480AF088
:104A200038F9EDA02023D222F0210090FA200BF0DB
:104A300085F805221421EB480AF085FD00214FF688
:104A4000FF700AF009F9E3480AF023F9E6A24FF4EF
:104A5000967114200AF02BFBE7A21421FA200AF029
:104A600026FB40F2FC40A023D2223C210090FA20F9
:104A70000AF00CFEE348007830B1012820D002286B
:104A80003AD0032872D154E04FF66860A023D222B6
:104A90003C21009014200AF0F9FD4FF668610020D7
:104AA0000AF0DAF8CB480AF0F4F8D7A21E21502019
:104AB0000AF0FDFAD7A2AF21A0200AF0F8FA56E0DA
:104AC0004FF66860A023D2223C21009014200AF007
:104AD000DDFD4FF6686100200AF0BEF8BD480AF01F
:104AE000D8F8CEA21E2150200AF0E1FACDA2AF21C3
:104AF000A0200AF0DCFA3AE04FF66860A023D22248
:104B00003C21009014200AF0C1FD4FF6686100209E
:104B10000AF0A2F8AF480AF0BCF8C3A21E21502048
:104B20000AF0C5FA0023C2A2822150200AF0E1FA5D
:104B30001DE045F2AA20A023D2223C21009014209F
:104B40000AF0A4FD45F2AA2100200AF085F8A14848
:104B50000AF09FF8B4A21E2150200AF0A8FAB7A2CA
:104B6000822150200AF0A3FA01E0FFE700BF00BF56
:104B700040F2FC4100200AF06FF896480AF089F8EC
:104B8000B1A24FF4827150200AF091FAB0A24FF412
:104B9000C871A0200AF08BFA8D480121C2699047A4
:104BA0000120AC4908808A48AB49086008BD10B5AF
:104BB000FFF725FF10BD2DE9F84FA84803231E225B
:104BC00082210090012009F066FA0446A4484FF6BD
:104BD000FF731E22A0210090022009F05CFA054616
:104BE000A04800235022D2210090032009F053FA5C
:104BF00006469D4800235022D2210090042009F04F
:104C00004AFA0746994800235022D22100900520F5
:104C100009F041FA8046964800235022D2210090A4
:104C2000062009F038FA8146924803231E22822189
:104C30000090072009F02FFA82468F4808F05DF8AF
:104C40008D4B2246F0214FF4A57007F00AFD8A4BE8
:104C50002A46F021142007F004FD874B32463C2100
:104C6000142007F0FEFC844B3A463C21FA2007F062
:104C7000F8FC814B42469621142007F0F2FC7E4B53
:104C80004A469621FA2007F0ECFC7B4B5246F02175
:104C9000BE2007F0E6FCBDE8F88F08B5FFF78BFFF4
:104CA00000200AF07AF8052214214E480AF04BFC45
:104CB00000214FF6FF7009F0CFFF464809F0E9FFE9
:104CC00045A24FF4B97114200AF0F1F9D223502211
:104CD0003C2114200AF034FBD22350223C21FA203C
:104CE0000AF02EFBD2235022962114200AF028FB32
:104CF000D22350229621FA200AF022FB4FF6FF70B1
:104D00001E23A022F021009014200AF0BFFC822371
:104D10001E22F021BE200AF013FB82231E22F02166
:104D20004FF4A5700AF00CFB00214FF6FF7009F05C
:104D300093FF284809F0ADFF50A05023D2223C2118
:104D4000009014200AF0FAFE4FA05023D2223C21FA
:104D50000090FA200AF0F2FE4EA05023D2229621B3
:104D6000009014200AF0EAFE4DA05023D222962192
:104D70000090FA200AF0E2FE4DA01E238222F021CC
:104D80000090BE200AF0DAFE4CA01E238222F02101
:104D900000904FF4A5700AF0D1FE4FF6FF7100208D
:104DA00009F05AFF48A01E23A022F02100901420F1
:104DB0000AF0C4FE30480121C2699047022025490B
:104DC00008802D482449086008BD0000553E0008B1
:104DD00078140020A801002053455454494E4753ED
:104DE00000000000E01A040843484155205048558F
:104DF0004F4320565500000042414348204B484F46
:104E0000410000008900002043484C4F52494E4564
:104E1000000000006D672F6C000000005245444FF9
:104E2000580000006D560000444F5345000000003C
:104E30006D6C2F6D33686F75720000006D6C2F6D97
:104E4000336461790000000050482D2D00000000FF
:104E500070480000C8000020C4000020653E000823
:104E6000753E0008853E0008953E0008A53E0008F6
:104E7000BF3E0008CF3E00081C15002050415241A3
:104E80004D4554455253000043414C494252415410
:104E9000494F4E00444F53494E4720544553540008
:104EA00054595045204F462050524F424500000073
:104EB0005341564520444154410000004C414E4767
:104EC00055414745530000004241434B20544F2079
:104ED0005354415254000000F8B5FE484FF6FF739A
:104EE0001E22D2210090012009F0D5F80446FA488C
:104EF0004FF6FF731E22D2210090022009F0CBF85A
:104F00000546F64840F2FC433C22D22100900320A3
:104F100009F0C1F80646F2484FF668633C22D221F8
:104F20000090042009F0B7F80746EE4807F0E5FEC8
:104F3000EC4B2246F021FA2007F093FBE94B2A467E
:104F4000F021142007F08DFBE64B3246AA211420F5
:104F500007F087FBE34B3A46AA21FA2007F081FBD2
:104F6000F8BD08B5E048007808B9FFF7B5FF0020A4
:104F700009F013FF05221421DC480AF0E4FA0021AD
:104F80004FF6FF7009F068FED94809F082FEAFF2D3
:104F9000FC024FF4A57114200AF089F84FF66860FE
:104FA0006423D2223C21009014200AF06FFB40F2CF
:104FB000FC406423D2223C210090FA200AF066FBD8
:104FC0004FF66861002009F047FEC94809F061FE0C
:104FD000C8A21E2146200AF06AF840F2FC410020D7
:104FE00009F03AFEC24809F054FEAFF29C124FF4A9
:104FF000827146200AF05BF84FF6FF701E23D22222
:10500000F021009014200AF041FB4FF6FF701E23A0
:10501000D222F0210090FA200AF038FB4FF66860A7
:1050200009F02BFED2233C22AA2114200AF088F991
:1050300040F2FC4009F021FED2233C22AA21FA20B2
:105040000AF07EF9AA4809F024FE00214FF6FF700D
:1050500009F002FEA448007830B1012817D00228D8
:1050600038D0032848D124E0AFF29C103C23D22250
:10507000AA21009014200AF061FDAFF2AC103C238D
:10508000D222AA210090FA200AF058FD35E0AFF2B2
:10509000C0103C23D222AA21009014200AF04EFD19
:1050A00096A03C23D222AA210090FA200AF046FDC5
:1050B00023E092A03C23D222AA21009014200AF0DF
:1050C0003DFD8EA03C23D222AA210090FA200AF0B6
:1050D00035FD12E089A03C23D222AA2100901420A1
:1050E0000AF02CFDAFF218203C23D222AA21009016
:1050F000FA200AF023FD00E000BF00BF4FF6FF7169
:10510000002009F0A9FD7FA01E23D222F0210090EB
:10511000FA200AF013FDAFF250201E23D222F02114
:10512000009014200AF00AFD6E480121C2699047E0
:105130000320764908806B487549086008BD2DE951
:10514000F84374484FF6FF731E22D22100900120CD
:1051500008F0A1FF044670484FF6FF731E22D221CB
:105160000090022008F097FF05466C48002350226B
:10517000D2210090032008F08EFF064668480023E5
:105180005022D2210090042008F085FF0746654890
:1051900001235022D2210090052008F07CFF804698
:1051A000614807F0AAFD604B2246F021FA2007F083
:1051B00058FA5D4B2A46F021142007F052FA5A4B58
:1051C00032463C21142007F04CFA574B3A463C211A
:1051D000FA2007F046FA544B42469621FA2007F08F
:1051E00040FABDE8F88308B5FFF7A9FF002009F0F1
:1051F000D4FD052214213D480AF0A5F900214FF6FF
:10520000FF7009F029FD3A4809F043FDAFF29432EE
:105210004FF4AA71142009F04AFFD22350223C21F6
:1052200014200AF08DF8D22350223C21FA200AF0F3
:1052300087F84FF668605023D22296210090142000
:105240000AF024FA40F2FC405023D222962100902A
:10525000FA200AF01BFA00214FF6FF7009F0FCFC5F
:105260004FF66861002009F0F7FC30A05023D222ED
:105270009621009014200AF061FC40F2FC410020CD
:1052800009F0EAFCAFF238405023D2229621009078
:10529000FA200AF053FC4FF6FF701E23D222F021B1
:1052A000009014200AF0F2F94FF6FF701E23D2226C
:1052B000F0210090FA200AF0E9F90D4809F0E9FC24
:1052C00000214FF6FF7009F0C7FC1CA05023D2222A
:1052D0003C2137E0D73E0008E73E0008F73E0008D3
:1052E0003F3F0008C015002084000020E01A040899
:1052F000A8010020444953494E462E0053544F50B4
:10530000000000004241434B00000000C8000020A4
:10531000C4000020873F0008973F0008A73F00080F
:10532000B73F0008C73F00086416002044495349AE
:105330004E46454354494F4E00000000504F4F4CDD
:1053400000000000009014200AF0F8FBFEA050239B
:10535000D2223C210090FA200AF0F0FB4FF6FF71B8
:10536000002009F079FCAFF264001E23D222F02164
:105370000090FA200AF0E2FBAFF2B4401E23D222E2
:10538000F021009014200AF0D9FB4FF6FF710020A5
:1053900009F062FCEE480121C26990470720ED49FF
:1053A0000880EB48EC49086008BD2DE9F843EB485C
:1053B0004FF6FF731E22D2210090012008F06BFEF1
:1053C0000446E7484FF6FF731E22D22100900220C8
:1053D00008F061FE0546E34803233C226421009067
:1053E000184608F058FE0646DF4803233C22642195
:1053F0000090042008F04FFE0746DC4803233C22BF
:10540000D2210090052008F046FE8046D8480123AE
:105410006422D2210090062008F03DFE8146D54846
:1054200007F06BFCD34B2246F021FA2007F019F964
:10543000D04B2A46F021142007F013F9CD4B324609
:10544000AA21142007F00DF9CA4B3A46AA2182205E
:1054500007F007F9C74B4246AA21FA2007F001F9E5
:10546000C44B4A463C21FA2007F0FBF8BDE8F8831C
:1054700008B5FFF79AFF002009F08FFC05221421E0
:10548000BD480AF060F800214FF6FF7009F0E4FB18
:10549000BA4809F0FEFBBAA24FF48C71142009F04F
:1054A00006FE45F2AA206423D2223C21009014205B
:1054B0000AF0ECF845F2AA206423D2223C210090A5
:1054C000FA200AF0E3F845F2AA2009F0DCFBAB4829
:1054D00009F0DFFBAEA21E21462009F0E8FD002006
:1054E00014233C228C2100905F200AF0CFF845F273
:1054F000AA2009F0C8FBA14809F0CBFBA7A2FF2115
:10550000462009F0D4FD4FF6FF701E23D222F02171
:10551000009014200AF0BAF84FF6FF701E23D22232
:10552000F0210090FA200AF0B1F84FF6FF7009F070
:10553000A4FB64233C22AA21142009F001FF642368
:105540003C22AA21822009F0FBFED2233C22AA2180
:10555000FA2009F0F5FE964809F09BFB00214FF672
:10556000FF7009F079FB93A03C236422AA210090EC
:1055700014200AF0E3FA90A03C236422AA210090B0
:1055800082200AF0DBFA7D4809F083FB8BA03C23E4
:10559000D222AA210090FA200AF0D0FA4FF6FF7129
:1055A000002009F059FBAFF2A4201E23D222F021E3
:1055B0000090FA200AF0C2FAAFF2F4601E23D22261
:1055C000F021009014200AF0B9FA4FF6FF71002084
:1055D00009F042FB67480121C269904708205D49F4
:1055E000088064485C49086008BD2DE9F8437448A8
:1055F0004FF6FF731E22D2210090012008F04BFDD0
:10560000044670484FF6FF731E22D22100900220FC
:1056100008F041FD05466C4803233C2264210090BC
:10562000184608F038FD0646684803233C226421EA
:105630000090042008F02FFD0746654803233C2214
:10564000D2210090052008F026FD80466148012304
:105650006422D2210090062008F01DFD81465E489C
:1056600007F04BFB5C4B2246F021FA2006F0F9FFD5
:10567000594B2A46F021142006F0F3FF564B3246D0
:10568000AA21142006F0EDFF534B3A46AA218220AE
:1056900006F0E7FF504B4246AA21FA2006F0E1FF50
:1056A0004D4B4A463C21142006F0DBFFBDE8F88351
:1056B00008B5FFF79AFF002009F06FFB05221421BF
:1056C0002D4809F040FF00214FF6FF7009F0C4FAA1
:1056D0002A4809F0DEFA2AA24FF48C71142009F04E
:1056E000E6FC45F2AA206423D2223C21009014203B
:1056F00009F0CCFF45F2AA206423D2223C2100907D
:10570000FA2009F0C3FF002014233C228C210090D2
:1057100040F2451009F0BAFF45F2AA214FF6FF709A
:1057200009F09AFA154809F0B4FA19A21E21462088
:1057300009F0BDFC45F2AA214FF6FF7009F08CFA82
:105740000E4809F0A6FA49E05741544552000000BE
:1057500064160020C8000020C40000200340000898
:1057600013400008234000083B4000085140000857
:105770005B40000808170020E01A0408A801002078
:10578000504F4F4C20504152414D455445525300CB
:10579000504F4F4C20564F4C554D450046494C54A8
:1057A000524154494F4E20504552494F4400000049
:1057B000A00100202B0000002D0000004F4B000036
:1057C0006B4000087B4000088B400008A3400008A5
:1057D000B9400008C3400008AC170020AFF24402F3
:1057E000FF21462009F063FC4FF6FF701E23D222F2
:1057F000F0210090142009F049FF4FF6FF701E239E
:10580000D222F0210090FA2009F040FF4FF6FF70FD
:1058100009F033FA64233C22AA21142009F090FDF8
:1058200064233C22AA21822009F08AFDD2233C2253
:10583000AA21FA2009F084FDFE4809F02AFA002185
:105840004FF6FF7009F008FAAFF298003C2364228B
:10585000AA21009014200AF071F9AFF2A4003C23B1
:105860006422AA21009082200AF068F9F24809F027
:1058700010FAAFF2B8003C23D222AA210090FA20FD
:105880000AF05CF94FF6FF71002009F0E5F9AFF27C
:105890008C501E23D222F0210090FA200AF04EF9FB
:1058A000AFF6DC101E23D222F021009014200AF063
:1058B00045F94FF6FF71002009F0CEF9DF480121CC
:1058C000C26990470920DE490880DC48DD4908604C
:1058D00008BD2DE9F04F87B0012004F041F90446DE
:1058E000022004F03DF90546032004F039F906468C
:1058F000D5484FF6FF731E22D2210090042008F0F5
:10590000CAFB0746D1484FF6FF731E22D2210090F2
:10591000052008F0C0FB8046CD4AAFF21C6120464E
:10592000E36A98478146CB4AAFF22C612046E36A8E
:1059300098478246C84AAFF238612046E36A9847E2
:105940008346C64AAFF248612846EB6A98470690FC
:10595000C34AAFF254612846EB6A98470590C14AA2
:10596000AFF264612846EB6A98470490BE4AAFF2F2
:1059700070613046F36A98470390BC4AAFF2806189
:105980003046F36A98470290B94AAFF28C613046CC
:10599000F36A98470190B74807F0AFF9B54B3A461C
:1059A000F021FA2006F05DFEB24B4246F0211420B1
:1059B00006F057FEAF4B4A4655214FF4877006F06C
:1059C00050FEAC4B52465521880006F04AFEA94BCA
:1059D0005A4655214FF4CD7006F043FEA54B8C215D
:1059E0004FF48770069A06F03CFEA24B8C214FF4D0
:1059F000AA70059A06F035FE9E4B8C214FF4CD70AF
:105A0000049A06F02EFE9B4BCD214FF48770039A2B
:105A100006F027FE974BCD214FF4AA70029A06F0AC
:105A200020FE944BCD214800019A06F01AFE012178
:105A3000201D914A127850F8220040680176281DF6
:105A40008E4A127850F8220040680176301D8C4A48
:105A5000127850F822004068017607B0BDE8F08F58
:105A600008B5FFF736FF002009F097F90522142149
:105A7000844809F068FD00214FF6FF7009F0ECF84A
:105A80006D4809F006F980A24FF48771142009F0DF
:105A90000EFB824809F0FDF8AFF260721E21412032
:105AA00009F005FB7EA21E21782009F000FBAFF271
:105AB00068321E21872009F0FAFA7BA21E21962067
:105AC00009F0F5FAAFF280321E21B92009F0EFFAA1
:105AD00078A21E21C82009F0EAFA794809F0D9F81D
