:020000040800F2
:1000000010B00020155E01080D0600080F0600085C
:1000100013060008170600081B0600080000000071
:100020000000000000000000000000009D02000829
:100030001F06000800000000F1020008255C01080E
:100040002F5E01082F5E01082F5E01082F5E010858
:100050002F5E01082F5E01082F5E01082F5E010848
:100060002F5E01082F5E01082F5E01082F5E010838
:100070002F5E01082F5E01082F5E01082F5E010828
:100080002F5E01082F5E01082F5E01082F5E010818
:100090002F5E01082F5E01082F5E01082F5E010808
:1000A0002F5E01082F5E01082F5E01082F5E0108F8
:1000B0006306000865060008670600082F5E010851
:1000C0002F5E01082F5E01082F5E01082F5E0108D8
:1000D0002F5E01082F5E01082F5E01082F5E0108C8
:1000E0002F5E01082F5E01082F5E01082F5E0108B8
:1000F0002F5E01082F5E01082F5E01082F5E0108A8
:100100002F5E01082F5E01082F5E01082F5E010897
:100110002F5E01082F5E01082F5E01082F5E010887
:100120002F5E01082F5E01082F5E01082F5E010877
:100130002F5E0108210600082F5E01082F5E0108CE
:100140002F5E01082F5E01082F5E01082F5E010857
:100150002F5E01082F5E01082F5E01082F5E010847
:100160002F5E01082F5E01082F5E01082F5E010837
:100170002F5E01082F5E01082F5E01082F5E010827
:100180002F5E01082F5E010800F002F800F076F8FB
:100190000AA090E8000C82448344AAF10107DA45E2
:1001A00001D100F06BF8AFF2090EBAE80F0013F0BE
:1001B000010F18BFFB1A43F001031847F089030031
:1001C000108A03000A444FF0000C10F8013B13F0B2
:1001D000070408BF10F8014B1D1108BF10F8015BA0
:1001E000641E05D010F8016B641E01F8016BF9D193
:1001F00013F0080F1EBF10F8014BAD1C0C1B09D1EA
:100200006D1E58BF01F801CBFAD505E014F8016B5B
:1002100001F8016B6D1EF9D59142D6D370470000ED
:100220000023002400250026103A28BF78C1FBD8FF
:10023000520728BF30C148BF0B607047662917F0CE
:10024000F086642915F0C086752915F0BD866329EE
:1002500016F0A583002070471FB517F0D8FE9DE863
:10026000030016F0D9F816F0DDFB04000020002191
:1002700017F04AF9E0601FBD10B510BD16F0ECFC98
:100280001146FFF7E9FF00F07DF816F00AFD03B410
:10029000FFF7F2FF03BC16F037FD00002A4B196888
:1002A0000868B0E8F04F80F30988BFF36F8F4FF014
:1002B000000080F3118870470000000006480068C5
:1002C000006880F3088862B661B6BFF34F8FBFF352
:1002D0006F8F00DF00BF00BF08ED00E0DFF80C000B
:1002E000016841F470010160704700BF88ED00E0D3
:1002F000EFF30980BFF36F8F134B1A681EF0100FD6
:1003000008BF20ED108A20E9F04F106008B44FF0CC
:10031000500080F31188BFF34F8FBFF36F8F14F03D
:1003200072FB4FF0000080F3118808BC1968086860
:10033000B0E8F04F1EF0100F08BFB0EC108A80F349
:100340000988BFF36F8F704720020020EFF305800C
:100350007047000000BF0DF0B8FF0BF07CFF0CF001
:10036000AFF800F07FFCF6E710B500200FF028FC96
:1003700001200FF025FC02200FF022FC03200FF0DB
:100380001FFC10BD1CB54FF4E13119480CF09CF96D
:10039000FFF7EAFF0CF0C0FD0DF0E9FD01F00AF8EF
:1003A00000F096FF0FF0A8FB00F073F901F0FBFEE0
:1003B0000020012103464FF42062CDE900100DA179
:1003C000AFF26F0013F0E9FF14F0E7FC00BFFEE7A7
:1003D00000BF502080F31188BFF34F8FBFF36F8FA2
:1003E00000BF00BFFEE7704710B50CF086F810BDE7
:1003F000001001404C43445461736B000CB5002065
:10040000019000907648006840F48030744908609C
:1004100000BF7348006800F4003000900198401C51
:100420000190009818B90198B0F5A06FF1D16C480F
:10043000006800F4003010B10120009001E00020BD
:1004400000900098012846D165484030006840F08F
:1004500080506349403108606248006840F4804041
:10046000604908605E48083000685D4908310860EE
:100470000846006840F4004008600846006840F400
:10048000A05008605848091F0860081F006840F025
:100490008070091F086000BF5148006800F00070BC
:1004A0000028F9D040F20520504908604C48083037
:1004B000006820F003004A490831086008460068D7
:1004C00040F00200086000BF45480830006800F0B6
:1004D0000C000828F8D10CBD10B54548006840F460
:1004E0007000434908603E48006840F001003C4904
:1004F000086000203A4908310860394800683D49E1
:100500000840374908603C48091D0860081F00681A
:1005100020F48020091F0860002031490C31086058
:10052000FFF76CFF4FF0006031498039086010BD63
:1005300070B500200022022300240221284D083536
:100540002D6805F00C0020B1042806D0082834D10D
:1005500007E02A4D2A4E356033E02A4D284E35609B
:100560002FE01F4D2D1D2D68C5F380541C4D2D1DF2
:100570002D6805F03F0154B1224DB5FBF1F5184E41
:10058000361D3668C6F3881605FB06F209E01B4DDA
:10059000B5FBF1F5124E361D3668C6F3881605FB1D
:1005A00006F20F4D2D1D2D68C5F301456D1C6B0026
:1005B000B2FBF3F5124E356003E0104D104E35607E
:1005C00000BF00BF064D08352D68C5F303150E4E5C
:1005D000705D0B4D2D68C540094E356070BD000043
:1005E000003802400070004019544007003C0240AF
:1005F00088ED00E0FFFFF6FE103000240024F40038
:100600000000002040787D0104000020704700BFFA
:10061000FEE700BFFEE700BFFEE700BFFEE7704752
:1006200008B500200090402012F051FE012804D1AE
:1006300069460D48006813F0F2FB402012F06BFE93
:100640004FF4803012F067FE009848B1009838B13E
:100650004FF0805005490860BFF34F8FBFF36F8F95
:1006600008BD7047704770471802002004ED00E095
:10067000014600200A6890B27047014600200868D1
:100680007047014600200A6890B20A2800DD002069
:10069000704700B5CC48FFF7F4FFCC490870CA4852
:1006A0005C38FFF7EEFFCA490870C7485A38FFF7B1
:1006B000E8FFC8490870C4485638FFF7E2FFC6494A
:1006C0000870C1485838FFF7DCFFC4490870BE48BD
:1006D0000E38FFF7CDFFC2490870BB480C38FFF752
:1006E000C7FFC0490870B8485438FFF7C1FFBE497A
:1006F0000880B5485238FFF7BBFFBC490880B248B4
:100700001038FFF7B5FFBA490880AF485038FFF7F7
:10071000B4FFB849086008460068401C28B99FED3E
:10072000B60AB64880ED000A05E0B24890ED000A2E
:10073000B24880ED000AA4484038FFF79EFFAD495B
:10074000086008460068401C28B9B6EE000AAC48AC
:1007500080ED000A05E0A74890ED000AA84880ED6A
:10076000000A99483038FFF788FFA2490860084618
:100770000068401C28B99FEDA00AA24880ED000A3D
:1007800005E09C4890ED000A9E4880ED000A8E48E6
:100790002038FFF772FF9749086008460068401C40
:1007A00028B9B6EE000A984880ED000A05E09148A5
:1007B00090ED000A944880ED000A83486038FFF706
:1007C00057FF9249088080485E38FFF751FF9049F3
:1007D0000880834800788F490870824800788E49E5
:1007E00008708A4800888D490880894800888C49AB
:1007F00008807D4800888B4908807C4800888A49A9
:1008000008807B480088894908807C4890ED000A70
:10081000874880ED000A7A4890ED000A854880ED0F
:10082000000A784890ED000A834880ED000A764877
:1008300090ED000A814880ED000A00BD10B511F06E
:1008400079FDF32011F08FFF0221402011F0BEFD51
:10085000082801D0012010BD6C4801885A48603832
:1008600011F086FE082801D00120F4E768480188CD
:1008700055485E3811F07CFE082801D00120EAE7D7
:100880005348017850485C3811F072FE082801D0B6
:100890000120E0E74F4801784B485A3811F068FED4
:1008A000082801D00120D6E74C480178464858383E
:1008B00011F05EFE082801D00120CCE746480178FF
:1008C0004148563811F054FE082801D00120C2E7F3
:1008D000454801883C48543811F04AFE082801D0A8
:1008E0000120B8E7414801883748523811F040FEEE
:1008F000082801D00120AEE7404890ED000A3D48AD
:1009000080ED000A01683048503811F008FE0828D0
:1009100001D001209FE73A4890ED000A354880ED6C
:10092000000A01682848403811F0F9FD082801D074
:10093000012090E7334890ED000A2E4880ED000A30
:1009400001682148303811F0EAFD082801D0012063
:1009500081E72D4890ED000A264880ED000A0168E5
:100960001948203811F0DBFD082801D0012072E77A
:100970001F4801881448103811F0FAFD082801D0EA
:10098000012068E7164801780F480E3811F0F0FD95
:10099000082801D001205EE7124801780A480C3887
:1009A00011F0E6FD082801D0012054E7074801783E
:1009B000054811F0DDFD082801D001204BE711F0BA
:1009C000C6FC002047E70000600008082100002066
:1009D0002200002023000020250000202400002009
:1009E00026000020270000202C0000202E000020E0
:1009F00030000020140000206666C640340000204D
:100A0000380000203C00002040000020280000208A
:100A10002A0000204400002045000020460000205D
:100A2000480000204A0000204C0000204E0000201A
:100A30005000002054000020580000205C000020DE
:100A400010B50246012341B1002004E003FB02F48B
:100A5000A3B2441C20B28842F8DB184610BD2DE931
:100A6000FF5F91461C46DDF83880B8F10A0F12D2BC
:100A7000DFE808F00F111105060D0A0B080700BF8B
:100A800000BF00BF042507E000BF062504E00325E2
:100A900002E0012500E000BF00BF04EB050A50465C
:100AA00015F0D8F9064600226119491E7254B8F1B2
:100AB0000A0F6FD2DFE808F06C6E6E051263394ED4
:100AC0002C1F6C216019801E31546D216019C01ECD
:100AD000315420216019001F31545CE0332160192A
:100AE000801E31546D216019C01E315420216019BF
:100AF000001F31544FE043216019801E31546F2193
:100B00006019C01E315420216019001F315442E089
:100B100056216019801E31546D216019C01E315458
:100B200020216019001F315435E06C216019801EAE
:100B300031542F216019C01E315467216019001FE4
:100B400031546D216019401F315420216019801FDC
:100B5000315420E068216019801E31542F21601922
:100B6000C01E315467216019001F31546D21601976
:100B7000401F315420216019801F31540BE068213F
:100B80006019801E315420216019C01E315402E0CA
:100B900001E0FFE700BF00BF002713E0E01B81B2C8
:100BA0000A20FFF74DFF99FBF0F100FB119BE01BC2
:100BB000401E81B20A20FFF743FF9BFBF0F030306C
:100BC000F0557F1CA742E9DB3246DDE900010CF05D
:100BD00044FC304615F06DF9BDE8FF9F2DE9F05F4C
:100BE0002DED028B82468B46B0EE408AF0EE608A95
:100BF00016461F46DDF83080B8F1000F04D0B8F17A
:100C0000020F03D1042502E0012500E000BF00BF70
:100C1000F019401C00EB0509484615F01BF9044685
:100C2000B8F1000F09D0B8F1020F0DD153EC182B19
:100C3000FEA1204615F064F907E053EC182BFEA145
:100C4000204615F05DF900E000BF00BF224659467E
:100C500050460CF002FC204615F02BF9BDEC028B3F
:100C6000BDE8F09F00B52DED028B81B0F4480088FF
:100C7000232878D2DFE800F07712F1F2F3F4F5ECF4
:100C8000EBEAE9E8E7E6E5E4E3E2E1E0DFDEDDDC2C
:100C9000DBDAD9D8D7D6D5D4D3D2D10000214FF6BC
:100CA000FF700CF0AFF9E7480CF0C9F9E6A2822119
:100CB00014200CF0D2FBE748007830B1012834D082
:100CC000022851D0032874D160E04FF668610020FB
:100CD0000CF098F9E0480CF0B2F9E048006817F021
:100CE00025F941EC180B002001231A46B0EE480A02
:100CF000F0EE680A642100908220FFF76FFFD14870
:100D00000CF09DF9D548006817F010F941EC180B6C
:100D1000002001231A46B0EE480AF0EE680AAA2124
:100D200000905020FFF75AFF44E04FF66861002022
:100D30000CF068F9C8480CF082F9002003230090F9
:100D4000C748028864218220FFF789FEBD480CF065
:100D500076F9082003230090C1480288872150209B
:100D6000FFF77DFE26E09BE24FF6686100200CF065
:100D700049F9B9480CF063F9002002230090B94802
:100D8000027864218220FFF76AFE13E045F2AA216F
:100D900000200CF037F9B0480CF051F90020022384
:100DA0000090B148027864218220FFF758FE01E0EC
:100DB000FFE700BF00BF40F2FC4100200CF022F929
:100DC000A5480CF03CF9A948006817F0AFF841ECD1
:100DD000180B002001231A46B0EE480AF0EE680A0C
:100DE0004FF4A57100908220FFF7F8FE95480CF0B3
:100DF00026F99E48006817F099F841EC180B00207E
:100E000001231A46B0EE480AF0EE680A4FF4C871A2
:100E100000905020FFF7E2FE43E235E21FE20AE2D3
:100E2000D3E1D1E19AE198E163E161E13BE1E5E001
:100E300029E29CE09AE02FE22DE22BE229E227E270
:100E400025E222E222E27FE06CE028E244E042E098
:100E500024E206E004E002E000E01EE200BF00BF82
:100E600000BF4FF6686100200CF0CCF87A480CF017
:100E7000E6F8032003469622552100907820FFF7DC
:100E8000EEFD70480CF0DBF8032003464FF4C87207
:100E90009B2100904620FFF7E2FD40F2FC4100203C
:100EA0000CF0B0F86C480CF0CAF803200346962208
:100EB00040F23B1100907820FFF7D1FD61480CF023
:100EC000BEF803200346C82240F28111009046205C
:100ED000FFF7C5FDE5E100BF45F2AA214FF6FF701F
:100EE0000CF090F85C480CF0AAF804200223009063
:100EF0005F48028869216420FFF7B1FD45F2AA210D
:100F00004FF6FF700CF07EF853480CF098F805206F
:100F1000022300905748028840F23B116420FFF7FB
:100F20009EFDBEE147F2C5514FF6FF700CF06AF826
:100F300049480CF084F8002002230F22C3210090BE
:100F40009620FFF78CFDACE14EF2E3014FF6FF7007
:100F50000CF058F840480CF072F8002002231422DC
:100F6000C32100909620FFF77AFD9AE100BF4FF66B
:100F7000686100200CF046F837480CF060F83748FC
:100F8000006816F0D3FF41EC180B002001231A462D
:100F9000B0EE480AF0EE680A642100900846FFF7B8
:100FA0001DFE28480CF04BF833A2A5216E200CF052
:100FB00054FA40F2FC4100200CF024F826480CF0D2
:100FC0003EF82A48006816F0B1FF41EC180B0020EB
:100FD00001231A46B0EE480AF0EE680A4FF4A571F4
:100FE00000906420FFF7FAFD16480CF028F824A2C0
:100FF00040F28B116E200CF030FA52E140F2FC41CD
:1010000000200BF0FFFF14480CF019F81D48006891
:1010100016F08CFF41EC180B002001231A46B0EEAD
:10102000480AF0EE680A4FF4A5712DE025312E3103
:10103000662070480000000025312E316600000057
:10104000640000204401002030303A30303A303122
:1010500000000000250000203C0100205C00002072
:101060004E000020440000204500002058000020D1
:1010700046000020480000206D672F6C0000000033
:10108000704800005000002000906420FFF7A6FD8B
:1010900086480BF0D4FFAFF2180240F28B116E209D
:1010A0000CF0DBF9FDE04FF6686100200BF0AAFFC1
:1010B0007F480BF0C4FF7F48006816F037FF41EC13
:1010C000180B002001231A46B0EE480AF0EE680A19
:1010D0004FF4A57100906420FFF780FD73480BF07A
:1010E000AEFF75A240F28B116E200CF0B6F9D8E07D
:1010F00000BF4FF6686100200BF084FF6C480BF0D6
:101100009EFF0820032300906D4802886421084652
:10111000FFF7A5FC40F2FC4100200BF073FF644890
:101120000BF08DFF6748006816F000FF41EC180BCC
:10113000002001231A46B0EE480AF0EE680A4FF488
:10114000A57100906420FFF749FDAFF2CC0240F298
:101150008B1164200CF081F9A3E000BF4FF66861A9
:1011600000200BF04FFF52480BF069FF00200223D4
:101170000522642100900846FFF771FC40F2FC4113
:1011800000200BF03FFF4A480BF059FF4D48006824
:1011900016F0CCFE41EC180B002001231A46B0EEED
:1011A000480AF0EE680A4FF4A57100906420FFF73A
:1011B00015FD3E480BF043FFAFF23C1240F28B119D
:1011C0006E200CF04AF96CE000BF45F2AA21002025
:1011D0000BF018FF36480BF032FF002002230522E7
:1011E000642100900846FFF73AFC40F2FC410020E1
:1011F0000BF008FF2E480BF022FF3248006816F073
:1012000095FE41EC180B002001231A46B0EE480A67
:10121000F0EE680A4FF4A57100906420FFF7DEFC41
:1012200022480BF00CFFAFF2A81240F28B116E2097
:101230000CF013F935E045F2AA214FF6FF700BF0E0
:10124000E1FE1B480BF0FBFE0920022300901E4824
:1012500002884FF4A5716420FFF701FC21E045F2FC
:10126000AA214FF6FF700BF0CDFE11480BF0E7FE00
:10127000092002230090154802884FF4A5716420CC
:10128000FFF7EDFB0DE000BF00BF00BF00BF00BFD8
:1012900000BF00BF00BF00BF00BF00BF00BF00E035
:1012A00000BF00BF01B0BDEC028B00BD44010020B7
:1012B0003C010020540000206D672F6800000000F2
:1012C0004E000020580000204C0000204A00002062
:1012D00000B58DB00121032010F080FB0121080230
:1012E00010F0C0FB032001908DF8080000208DF85D
:1012F0000B0001A92A4810F02FF94120019003208A
:101300008DF8080000208DF80B0001A9254810F089
:1013100023F90020039004900590069003A80FF095
:101320004FF90FF013F9002007908DF820008DF889
:10133000210009900A900B9001208DF8300007A938
:1013400019480FF00EF9012117480FF050F90DB0B0
:1013500000BD10B5044604230122214612480FF0B7
:1013600086F911480FF0DFF900BF02210E480FF097
:10137000FBFA0028F9D00C480FF011FA40F6E441CE
:10138000484340F6FF7190FBF1F0084908600846B9
:10139000016807A00BF045FA0448006810BD000082
:1013A0000004024000000240002001401C00002018
:1013B000256400001CB50121084610F00FFB302009
:1013C000009001208DF8040000208DF80600032015
:1013D0008DF8050000208DF807006946074810F0D9
:1013E000BBF81CBD10B1012804D101E00A8302E062
:1013F0004A8300E000BF00BF7047000000000240C9
:1014000010B5F84800680AF073F901F02BF810BD28
:1014100010B5F44800680AF06BF905F083FB10BDC5
:1014200010B5F04800680AF063F900F0BCFE10BD8A
:1014300010B5EC4800680AF05BF901F0EBFD10BD57
:1014400010B5E84800680AF053F903F005FC10BD38
:1014500010B5E548007830B101280BD0022810D033
:1014600003281CD114E0DF4800680AF041F901F0BC
:1014700065F914E0DB4800680AF03AF901F099FCDC
:101480000DE0D84800680AF033F901F054FA06E09C
:10149000D44800680AF02CF901F089FB00BF00BFB6
:1014A00010BD10B5CF4800680AF022F905F089FA9E
:1014B00010BD10B5FFF7C2F910BD10B5C9480068DE
:1014C0000AF016F900F0CEFF0020C749087010BDE1
:1014D00010B5C44800680AF00BF900F064FE002063
:1014E000C149087010BD10B5BE4800680AF000F987
:1014F00001F021FA10BD10B5BA4800680AF0F8F8FA
:1015000001F057FC10BD10B5B64800680AF0F0F8BD
:1015100000F0A8FF0220B449087010BD10B5B14812
:1015200000680AF0E5F800F03EFE0020AE490870C1
:1015300010BD10B5AB4800680AF0DAF801F0FEF80B
:1015400010BD10B5A74800680AF0D2F801F02FFBD3
:1015500010BD10B5A34800680AF0CAF800F082FF79
:101560000320A149087010BD10B59E4800680AF01C
:10157000BFF800F018FE00209B49087010BD10B5A0
:10158000984800680AF0B4F801F013FC10BD10B5DB
:10159000944800680AF0ACF801F0CDF910BD10B520
:1015A000904800680AF0A4F800F05CFF01208E4922
:1015B000087010BD10B58B4800680AF099F800F06B
:1015C000F2FD00208849087010BD10B585480068FC
:1015D0000AF08EF801F0AFF910BD10B5814800682F
:1015E0000AF086F801F0AAF810BD10B57D48006831
:1015F0000AF07EF800F036FF10BD10B5794800689B
:101600000AF076F800F0CFFD10BD10B575480068FF
:101610000AF06EF801F01CFE10BD10B571480068AC
:101620000AF066F802F068F910BD10B56D48006860
:101630000AF05EF86D48007830B1012807D0022822
:1016400008D003280CD108E003F007F809E003F004
:1016500007FF06E004F0C0F903E004F08AFC00E0B4
:1016600000BF00BF10BD10B55E4800680AF040F82A
:1016700001F0D0FC10BD10B55A4800680AF038F8E7
:1016800000F091FD10BD5A480088401C5849088060
:1016900008460088632801DD6320088070475448AD
:1016A000008818B900205249088004E0504800889A
:1016B000401E4F49088070474D4800884D490880BA
:1016C000704710B5474800680AF012F801F03FFF74
:1016D00010BD10B5434800680AF00AF801F09AFC02
:1016E00010BD10B53F4800680AF002F800F05BFD3D
:1016F00010BD41480088401C3F49088008460088CA
:10170000182801DD1820088070473B48008806280B
:1017100002D13949088004E037480088401E364924
:10172000088070473448008834490880704710B5F5
:101730002C48006809F0DCFF01F08AFD10BD10B5EF
:101740002848006809F0D4FF01F064FC10BD10B512
:101750002448006809F0CCFF00F025FD10BD0020F2
:10176000274908707047012025490870704710B557
:101770000220234908701B48006809F0B9FF02F0F5
:101780000AFA10BD00201F490870704701201D494A
:101790000870704702201B490870704710B5002080
:1017A000194908700F48006809F0A2FF02F0F4FA26
:1017B00010BD0120144908707047022012490870BA
:1017C000704710B50748006809F092FF02F094F8DE
:1017D00010BD10B50348006809F08AFF02F08CF8CC
:1017E00010BD000060000020200000202500002027
:1017F0004600002028000020480000202A00002089
:1018000022000020230000202400002010B5F7480B
:10181000006809F06DFF02F06FF810BD10B5F348D5
:10182000006809F065FF03F069FB10BD10B5EF48D3
:10183000006809F05DFF03F061FB10BD10B5EB48D7
:10184000006809F055FF03F059FB10BD10B5E748DB
:10185000006809F04DFF03F0CCFC10BD10B5E34863
:10186000006809F045FF03F0C4FC10BD10B5DF4867
:10187000006809F03DFF02F03FF810BD10B5DB48ED
:10188000006809F035FF02F037F810BD10B5D748F1
:10189000006809F02DFF01F0BDFB10BD10B5D34865
:1018A000006809F025FF00F07EFC10BD10B52DED9D
:1018B000028BCF4890ED000ADFEDCE0A30EE200A11
:1018C00080ED000A006816F031FB41EC180B9FED2B
:1018D000CA0B53EC102B16F0FDF904D29FEDC80A89
:1018E000C34880ED000ABDEC028B10BD10B52DED94
:1018F000028BBF48006816F019FB41EC180B9FEDF6
:10190000C10B53EC102B16F0ABF805D29FEDBF0ABC
:10191000B74880ED000A08E0B54890ED000ADFED19
:10192000B50A30EE600A80ED000ABDEC028B10BDF6
:10193000AF4890ED000AB64880ED000A704710B538
:10194000AA48006809F0D4FE03F055F810BD10B5A0
:10195000A648006809F0CCFE01F05CFB10BD10B594
:10196000A248006809F0C4FE00F01DFC10BD10B5CF
:101970002DED028BA74890ED000ADFED9E0A30EEB8
:10198000200A80ED000A006816F0D0FA41EC180B2E
:101990009FEDA10B53EC102B16F09CF904D29FED98
:1019A000A00A9C4880ED000ABDEC028B10BD10B56A
:1019B0002DED028B9748006816F0B8FA41EC180B31
:1019C0009FED980B53EC102B16F04AF805D2B6EEAB
:1019D000000A904880ED000A08E08E4890ED000A69
:1019E000DFED840A30EE600A80ED000ABDEC028B68
:1019F00010BD884890ED000A8C4880ED000A7047C1
:101A000010B57A48006809F073FE02F026FE10BD9A
:101A100010B57648006809F06BFE00F023FD10BD9C
:101A200010B57248006809F063FE00F0BCFB10BD01
:101A300010B56E48006809F05BFE03F0DAFB6B48F6
:101A4000006809F055FE02F03AFB10BD10B567487A
:101A5000006809F04DFE03F051FA6448006809F08F
:101A600047FE02F0CBFA10BD10B56048006809F0DF
:101A70003FFE04F002FD10BD10B55C48006809F09F
:101A800037FE04F022FE10BD10B55848006809F07A
:101A90002FFE03F0E1F810BD10B55448006809F0BE
:101AA00027FE00F080FB10BD10B52DED048B6048C3
:101AB000006816F03BFA41EC190B9FED5E0B53ECFE
:101AC000102B15F069FD41EC180B15F033FD58494A
:101AD00008600846006816F029FA41EC180B9FEDE3
:101AE000460B53EC102B16F0F5F80AD23F4800686D
:101AF00009F0FEFD02F0B6F99FED410A4C4880ED79
:101B0000000ABDEC048B10BD10B52DED028B4848CA
:101B100090ED000ADFED370A30EE600A80ED000A32
:101B2000006816F003FA41EC180B9FED360B53ECEE
:101B3000102B15F095FF0AD22C48006809F0D8FD4B
:101B400002F090F99FED310A394880ED000ABDECB2
:101B5000028B10BD364890ED000A384880ED000A2F
:101B6000704710B52148006809F0C2FD03F074F811
:101B700010BD10B51D48006809F0BAFD00F013FB58
:101B800010BD10B52DED028B2D4890ED000ADFED54
:101B9000190A30EE200A80ED000A006816F0C6F936
:101BA00041EC180B9FED1C0B53EC102B16F092F828
:101BB00004D29FED1B0A224880ED000ABDEC028B87
:101BC00010BD10B52DED028B1D4890ED000A174891
:101BD000D0ED000AB4EE600AF1EE10FA32D10348FB
:101BE000006809F085FD02F0B3FB47E060000020CB
:101BF00058000020CDCCCC3D3333333333331F403A
:101C00009A99F940CDCCCCCCCCCC18406666C64075
:101C10003C0000205C000020333333333333F33F88
:101C20009A99993F000000000000E03F400000202A
:101C3000500000209A9999999999B93F3400002051
:101C400054000020F948006816F070F941EC180BB8
:101C50001FED0C0B53EC102B15F002FF05D2B6EE66
:101C6000000AF24880ED000A08E0F04890ED000A12
:101C70005FED200A30EE600A80ED000ABDEC028BB9
:101C800010BDEA4890ED000AE94880ED000A70476F
:101C900010B5E848006809F02BFD01F0BBF910BD54
:101CA00010B5E448006809F023FD00F07CFA10BD8F
:101CB000E14800880A30E04908800846008840F280
:101CC000DE31884202DD0846DB4908807047DA4889
:101CD00000880A38D8490880084600880A2801DAAE
:101CE0000A2008807047D4480088D449088070478B
:101CF00010B5D048006809F0FBFC03F038FD10BDBA
:101D000010B5CC48006809F0F3FC01F083F910BD70
:101D100010B5C848006809F0EBFC00F044FA10BDAB
:101D200010B52DED028BC64890ED000A5FED4F0A0D
:101D300030EE200A80ED000A006816F0F7F841EC5A
:101D4000180B1FED530B53EC102B15F0C3FF04D2EF
:101D50001FED550ABA4880ED000ABDEC028B10BD9C
:101D600010B52DED028BB648006816F0DFF841EC97
:101D7000180B1FED5C0B53EC102B15F071FE05D208
:101D80001FED5E0AAE4880ED000A08E0AC4890ED19
:101D9000000A5FED680A30EE600A80ED000ABDECD3
:101DA000028B10BDA64890ED000AA64880ED000AFF
:101DB000704710B59F48006809F09AFC03F050FB8B
:101DC00010BD10B59B48006809F092FC01F022F9A3
:101DD00010BD10B59748006809F08AFC00F0E3F9DF
:101DE00010BD99480078401C974908700846007853
:101DF000142801DD1420087070479348007818B942
:101E000000209149087004E08F480078401E8E49F8
:101E1000087070478C4800788C490870704710B57E
:101E20008448006809F064FC03F03AFF10BD10B567
:101E30008048006809F05CFC01F0ECF810BD10B5BA
:101E40007C48006809F054FC00F0ADF910BD10B5F5
:101E50002DED028B7A4890ED000A5FED9A0A30EE84
:101E6000200A80ED000A006816F060F841EC180BBB
:101E70001FED9F0B53EC102B15F02CFF04D21FED20
:101E8000A00A6F4880ED000ABDEC028B10BD10B5B2
:101E90002DED028B6A48006816F048F841EC180BEB
:101EA0001FEDA80B53EC102B15F0DAFD05D21FED3A
:101EB000A90A634880ED000A08E0614890ED000A35
:101EC0005FEDB40A30EE600A80ED000ABDEC028BD3
:101ED00010BD5B4890ED000A5A4880ED000A70473B
:101EE00010B55448006809F003FC03F075FD10BDFF
:101EF00010B55048006809F0FBFB01F08BF810BDED
:101F000010B54C48006809F0F3FB00F04CF910BD27
:101F10004F480078401C4E490870084600781E283B
:101F200001DD1E20087070474948007818B900206C
:101F30004749087004E046480078401E444908704C
:101F400070474348007843490870704710B53948D6
:101F5000006809F0CDFB04F045F910BD10B5354817
:101F6000006809F0C5FB01F055F810BD10B5314807
:101F7000006809F0BDFB00F016F910BD10B52DED9D
:101F8000028B2F4890ED000A5FEDE60A30EE200A42
:101F900080ED000A006815F0C9FF41EC180B1FED39
:101FA000EA0B53EC102B15F095FE04D21FEDEC0A52
:101FB000234880ED000ABDEC028B10BD10B52DED5D
:101FC000028B1F4890ED000A5FEDF60A30EE600AC2
:101FD00080ED000A006815F0A9FF41EC180B1FED19
:101FE000F70B53EC102B15F03BFD04D21FEDF90A53
:101FF000134880ED000ABDEC028B10BD104890ED37
:10200000000A104880ED000A704710B509480068C2
:1020100009F06EFB03F0ADFF10BD10B50548006878
:1020200009F066FB02F018FE10BD0000540000200D
:1020300038000020600000204E000020300000200A
:10204000580000203C000020440000202600002012
:10205000450000202700002010B54148006809F025
:1020600047FB00F0A0F810BD3E480088401C3D49E9
:10207000088008460088282801DA28200880704750
:102080003848008818B900203649088004E03548EF
:102090000088401E33490880704732480088324922
:1020A0000880704710B52E48006809F021FB02F047
:1020B000D3FD10BD10B52A48006809F019FB00F0E7
:1020C00072F810BD29480088401C2849088008463D
:1020D0000088282801DD28200880704723480088D0
:1020E00018B900202149088004E020480088401EDB
:1020F0001E49088070471D4800881D4908807047A8
:1021000010B51748006809F0F3FA00F0ABF910BDFC
:1021100010B51348006809F0EBFA00F044F810BD60
:102120000020144908707047012012490870704758
:10213000022010490870704703200E49087070474C
:1021400010B50748006809F0D3FA00F02CF810BD6C
:10215000012009490870704700200749087070473E
:10216000600000204C0000202E0000204A000020CB
:102170002C000020250000202100002038B5FE485A
:102180004FF6FF732022D221009001200AF01CF9A3
:102190000446FA4808F0E2FEF84B2246F021FA2005
:1021A00008F069FB38BD08B5FFF7E8FF00200AF02A
:1021B000CAFF4FF6FF702023D222F0210090FA20B0
:1021C0000BF097FBEE480AF03AFFEEA02023D22254
:1021D000F0210090FA200BF0E0FD4FF6FF701C2379
:1021E0005A220C21009014200BF083FBE8480AF0DF
:1021F00026FF4FF6FF7100200AF004FFE5A214212C
:102200000E200BF02AF900214FF6FF700AF0FAFEBB
:10221000DB480AF014FFE1A24FF4917114200BF097
:102220001CF9E2A21421FA200BF017F940F2FC404D
:10223000A023D2223C210090FA200BF05AFBDE486A
:10224000007830B1012820D002283AD0032872D17A
:1022500054E04FF66860A023D2223C210090142065
:102260000BF047FB4FF6686100200AF0CBFEC44834
:102270000AF0E5FED1A21E2150200BF0EEF8D2A20A
:10228000AF21A0200BF0E9F856E04FF66860A023DC
:10229000D2223C21009014200BF02BFB4FF66861FA
:1022A00000200AF0AFFEB6480AF0C9FEC8A21E21FF
:1022B00050200BF0D2F8C8A2AF21A0200BF0CDF82F
:1022C0003AE04FF66860A023D2223C21009014200F
:1022D0000BF00FFB4FF6686100200AF093FEA84850
:1022E0000AF0ADFEBDA21E2150200BF0B6F800236F
:1022F000BCA2822150200BF0D2F81DE045F2AA20AA
:10230000A023D2223C21009014200BF0F2FA45F2D7
:10231000AA2100200AF076FE99480AF090FEAFA2AA
:102320001E2150200BF099F8B1A2822150200BF011
:1023300094F801E0FFE700BF00BF40F2FC4100203D
:102340000AF060FE8E480AF07AFEACA24FF4827169
:1023500050200BF082F8ABA24FF4C871A0200BF014
:102360007CF886480121C26990470120A64908806F
:102370008248A649086008BD10B5FFF714FF10BDDC
:102380002DE9F84FA24803231E228221009001204C
:102390000AF01AF804469F484FF6FF731E22A02148
:1023A000009002200AF010F805469B4800235022B6
:1023B000D221009003200AF007F806469748002330
:1023C0005022D2210090042009F0FEFF07469448D5
:1023D00000235022D2210090052009F0F5FF80460D
:1023E000904800235022D2210090062009F0ECFFF3
:1023F00081468D4803231E2282210090072009F088
:10240000E3FF8246894808F0A9FD884B2246F02167
:102410004FF4A57008F02FFA844B2A46F0211420BF
:1024200008F029FA814B32463C21142008F023FAA7
:102430007E4B3A463C21FA2008F01DFA7B4B42467F
:102440009621142008F017FA784B4A469621FA2074
:1024500008F011FA754B5246F021BE2008F00BFA35
:10246000BDE8F88F08B5FFF78BFF00200AF06BFE80
:102470004FF6FF701C235A220C21009014200BF001
:1024800038FA43480AF0DBFD4FF6FF7100200AF0EE
:10249000B9FD40A214210E200AF0DFFF00214FF603
:1024A000FF700AF0AFFD36480AF0C9FD35A24FF4BF
:1024B000BE7114200AF0D1FFD22350223C211420F7
:1024C0000BF014F9D22350223C21FA200BF00EF924
:1024D000D2235022962114200BF008F9D223502247
:1024E0009621FA200BF002F94FF6FF701E23A0226E
:1024F000F021009014200BF0FCF982231E22F02121
:10250000BE200BF0F3F882231E22F0214FF4A570B9
:102510000BF0ECF800214FF6FF700AF073FD18483D
:102520000AF08DFD42A05023D2223C2100901420BD
:102530000BF033FC41A05023D2223C210090FA2022
:102540000BF02BFC40A05023D222962100901420A7
:102550000BF023FC3FA05023D22296210090FA20BA
:102560000BF01BFC3FA01E238222F0210090BE2016
:102570000BF013FC7CE00000011400088002002036
:102580004401002053455454494E47530000000075
:102590003C0100205449544C45000000434841553B
:1025A000205048554F4320565500000042414348B3
:1025B000204B484F410000002500002043484C4F6D
:1025C00052494E45000000006D672F6C000000006E
:1025D0005245444F580000006D560000444F53458B
:1025E000000000006D6C2F6D33686F757200000085
:1025F0006D6C2F6D336461790000000050482D2D03
:10260000000000007048000064000020600000200E
:1026100011140008211400083114000841140008A6
:1026200051140008A3140008B31400082403002068
:10263000504152414D4554455253000043414C498D
:1026400042524154494F4E00444F53494E47205443
:102650004553540054595045204F462050524F4244
:1026600045000000534156452044415441000000BC
:10267000FEA01E238222F02100904FF4A5700BF0E3
:102680008CFB4FF6FF7100200AF0BCFCFAA01E2361
:10269000A022F021009014200BF07FFBFA480121CA
:1026A000C26990470220F9490880F748F849086054
:1026B00008BDF8B5F7484FF6FF731E22D2210090EF
:1026C000012009F081FE0446F3484FF6FF731E22F5
:1026D000D2210090022009F077FE0546EF4840F233
:1026E000FC433C22D2210090032009F06DFE0646F7
:1026F000EB484FF668633C22D2210090042009F099
:1027000063FE0746E74808F029FCE64B2246F02125
:10271000FA2008F0B0F8E34B2A46F021142008F024
:10272000AAF8E04B3246AA21142008F0A4F8DD4BA9
:102730003A46AA21FA2008F09EF8F8BD08B5FFF73E
:10274000B8FF00200AF0FFFC4FF6FF701C235A224E
:102750000C21009014200BF0CCF8D3480AF06FFC49
:102760004FF6FF7100200AF04DFCAFF2D812142191
:102770000E200AF072FE00214FF6FF700AF042FCB4
:10278000CA480AF05CFCAFF240124FF4AA71142060
:102790000AF063FE4FF668606423D2223C21009069
:1027A00014200BF0A6F840F2FC406423D2223C2116
:1027B0000090FA200BF09DF84FF6686100200AF0B7
:1027C00021FCBA480AF03BFCB9A21E2146200AF0BF
:1027D00044FE40F2FC4100200AF014FCB3480AF029
:1027E0002EFCAFF2E0124FF4827146200AF035FE63
:1027F0004FF6FF701E23D222F021009014200BF020
:1028000078F84FF6FF701E23D222F0210090FA20B4
:102810000BF06FF84FF668600AF005FCD2233C22FB
:10282000AA2114200AF062FF40F2FC400AF0FBFBF0
:10283000D2233C22AA21FA200AF058FF9B480AF032
:10284000FEFB00214FF6FF700AF0DCFB8CA03C235E
:10285000D222AA21009014200BF09FFA88A03C23DA
:10286000D222AA210090FA200BF097FA4FF6FF71BE
:1028700000200AF0C7FB90A01E23D222F021009076
:10288000FA200BF08AFA7CA01E23D222F0210090BD
:1028900014200BF082FA83480121C269904703207B
:1028A0007A4908807F487A49086008BDF8B58448AD
:1028B0004FF6FF731E22D2210090012009F084FD03
:1028C000044680484FF6FF731E22D221009002205A
:1028D00009F07AFD05467C4840F2FC433C22D221B7
:1028E0000090032009F070FD064678484FF66863B3
:1028F0003C22D2210090042009F066FD074674486E
:1029000008F02CFB724B2246F021FA2007F0B3FFAF
:102910006F4B2A46F021142007F0ADFF6C4B324676
:10292000AA21142007F0A7FF694B3A46AA21FA20F2
:1029300007F0A1FFF8BD08B5FFF7B8FF00200AF0C7
:1029400002FC4FF6FF701C235A220C210090142029
:102950000AF0CFFF54480AF072FB4FF6FF710020D7
:102960000AF050FBAFF2D43214210E200AF075FDAC
:1029700000214FF6FF700AF045FB4C480AF05FFB60
:10298000AFF23C324FF4AA7114200AF066FD4FF604
:1029900068606423D2223C21009014200AF0A9FF31
:1029A00040F2FC406423D2223C210090FA200AF03D
:1029B000A0FF4FF6686100200AF024FB3B480AF0B4
:1029C0003EFB3BA21E2146200AF047FD40F2FC419F
:1029D00000200AF017FB34480AF031FB33480AF0B4
:1029E0002EFBAFF2E0324FF4827146200AF035FD43
:1029F0004FF6FF701E23D222F021009014200AF01F
:102A000078FF4FF6FF701E23D222F0210090FA20AB
:102A10000AF06FFF4FF668600AF005FBD2233C22F4
:102A2000AA2114200AF062FE40F2FC400AF0FBFAF0
:102A3000D2233C22AA21FA200AF058FE1B480AF0B1
:102A4000FEFA00214FF6FF700AF0DCFA21A03C23C9
:102A5000D222AA21009014200BF09FF908A03C2359
:102A6000D222AA210090FA2038E000004C414E47C3
:102A700055414745530000004241434B20544F20ED
:102A800053544152540000002403002064000020ED
:102A900060000020BB140008D1140008E7140008EF
:102AA000F7140008C80300203C0100204401002066
:102AB000444953494E462E004241434B000000001A
:102AC000071500081D1500083315000843150008F8
:102AD0006C04002053544F50000000000BF05DF9CF
:102AE0004FF6FF7100200AF08DFAAFF234001E237A
:102AF000D222F0210090FA200BF04FF9AFF28800BB
:102B00001E23D222F021009014200BF046F9FE483B
:102B10000121C26990470420FC490880FA48FC4919
:102B2000086008BDF8B5FB484FF6FF731E22D2219E
:102B30000090012009F048FC0446F7484FF6FF7367
:102B40001E22D2210090022009F03EFC0546F348E7
:102B500040F2FC433C22D2210090032009F034FCD7
:102B60000646EF484FF668633C22D22100900420CD
:102B700009F02AFC0746EB4808F0F0F9E94B224639
:102B8000F021FA2007F077FEE64B2A46F0211420C8
:102B900007F071FEE34B3246AA21142007F06BFECA
:102BA000E04B3A46AA21FA2007F065FEF8BD08B5C9
:102BB000FFF7B8FF00200AF0C6FA4FF6FF701C239B
:102BC0005A220C21009014200AF093FED6480AF0F5
:102BD00036FA4FF6FF7100200AF014FAAFF24C6299
:102BE00014210E200AF039FC00214FF6FF700AF084
:102BF00009FACE480AF023FAAFF2B4524FF4AA71A0
:102C000014200AF02AFC4FF668606423D2223C218B
:102C1000009014200AF06DFE40F2FC406423D222A2
:102C20003C210090FA200AF064FE4FF66861002013
:102C30000AF0E8F9BD480AF002FAAFF28C121E2140
:102C400046200AF00AFC40F2FC4100200AF0DAF9C2
:102C5000B6480AF0F4F9AFF254624FF4827146209C
:102C60000AF0FBFB4FF6FF701E23D222F0210090EA
:102C700014200AF03EFE4FF6FF701E23D222F021F0
:102C80000090FA200AF035FE4FF668600AF0CBF9A2
:102C9000D2233C22AA2114200AF028FD40F2FC4055
:102CA0000AF0C1F9D2233C22AA21FA200AF01EFD23
:102CB0009E480AF0C4F900214FF6FF700AF0A2F90D
:102CC000AFF2F0103C23D222AA21009014200BF086
:102CD00064F8AFF200203C23D222AA210090FA200F
:102CE0000BF05BF84FF6FF7100200AF08BF9AFF2A2
:102CF00038201E23D222F0210090FA200BF04DF84C
:102D0000AFF28C201E23D222F021009014200BF071
:102D100044F884480121C269904705207B49088016
:102D200080487B49086008BDF8B581484FF6FF73BD
:102D30001E22D2210090012009F046FB04467D4866
:102D40004FF6FF731E22D2210090022009F03CFBB7
:102D50000546794840F2FC433C22D22100900320F2
:102D600009F032FB064675484FF668633C22D221D3
:102D70000090042009F028FB0746714808F0EEF89F
:102D80006F4B2246F021FA2007F075FD6C4B2A4666
:102D9000F021142007F06FFD694B3246AA21142060
:102DA00007F069FD664B3A46AA21FA2007F063FD59
:102DB000F8BD08B5FFF7B8FF00200AF0C4F94FF6D8
:102DC000FF701C235A220C21009014200AF091FD60
:102DD00055480AF034F94FF6FF7100200AF012F955
:102DE000AFF6500214210E200AF037FB00214FF6F7
:102DF000FF700AF007F94D480AF021F9AFF2B872F6
:102E00004FF4AA7114200AF028FB4FF6686064237F
:102E1000D2223C21009014200AF06BFD40F2FC40CD
:102E20006423D2223C210090FA200AF062FD4FF682
:102E3000686100200AF0E6F83C480AF000F9AFF2B9
:102E400090321E2146200AF008FB40F2FC4100208F
:102E50000AF0D8F835480AF0F2F8AFF658024FF405
:102E6000827146200AF0F9FA4FF6FF701E23D22233
:102E7000F021009014200AF03CFD4FF6FF701E2355
:102E8000D222F0210090FA200AF033FD4FF668605C
:102E90000AF0C9F8D2233C22AA2114200AF026FC09
:102EA00040F2FC400AF0BFF8D2233C22AA21FA20CB
:102EB0000AF01CFC1D480AF0C2F800214FF6FF7012
:102EC0000AF0A0F8AFF248403C23D222AA21009099
:102ED00014200AF062FFAFF204403C23D222AA2160
:102EE0000090FA200AF059FF4FF6FF7100200AF017
:102EF00089F8AFF23C401E23D222F0210090FA2044
:102F00000AF04BFF1EE000006C040020640000206B
:102F10006000002053150008691500087F1500089F
:102F20008F150008100500203C01002044010020FE
:102F30009F150008B5150008CB150008DB15000823
:102F4000B4050020AFF2D0401E23D222F021009021
:102F500014200AF022FFFE480121C2699047062092
:102F6000FC490880FA48FC49086008BD2DE9F8438F
:102F7000FA484FF6FF731E22D2210090012009F07B
:102F800023FA0446F6484FF6FF731E22D221009022
:102F9000022009F019FA0546F24800235022D221F6
:102FA0000090032009F010FA0646EF480023502253
:102FB000D2210090042009F007FA0746EB480123CC
:102FC0005022D2210090052009F0FEF98046E84801
:102FD00007F0C4FFE64B2246F021FA2007F04BFC35
:102FE000E34B2A46F021142007F045FCE04B324623
:102FF0003C21142007F03FFCDD4B3A463C21FA20EF
:1030000007F039FCDA4B42469621FA2007F033FCF0
:10301000BDE8F88308B5FFF7A9FF00200AF093F890
:103020004FF6FF701C235A220C21009014200AF046
:1030300060FCD0480AF003F84FF6FF71002009F059
:10304000E1FFAFF6B02214210E200AF006FA0021AB
:103050004FF6FF7009F0D6FFC74809F0F0FFAFF652
:10306000302240F2631114200AF0F7F9D2235022E3
:103070003C2114200AF03AFBD22350223C21FA20B2
:103080000AF034FB4FF668605023D222962100905C
:1030900014200AF02EFC40F2FC405023D22296214C
:1030A0000090FA200AF025FC00214FF6FF7009F08D
:1030B000A9FF4FF66861002009F0A4FFAFA05023DC
:1030C000D2229621009014200AF067FE40F2FC41C3
:1030D000002009F097FFAFF6D4205023D22296218A
:1030E0000090FA200AF059FE4FF6FF701E23D222FC
:1030F000F021009014200AF0FCFB4FF6FF701E2315
:10310000D222F0210090FA200AF0F3FB9A4809F04D
:1031100096FF00214FF6FF7009F074FF9BA050232B
:10312000D2223C21009014200AF037FE99A05023AF
:10313000D2223C210090FA200AF02FFE4FF6FF71B8
:10314000002009F05FFFAFF290601E23D222F02131
:103150000090FA200AF021FEAFF2E4601E23D22292
:10316000F021009014200AF018FE4FF6FF710020A5
:1031700009F048FF7E480121C26990470720754940
:1031800008807B487449086008BD2DE9F8438348EE
:103190004FF6FF731E22D2210090012009F014F98E
:1031A00004467F484FF6FF731E22D2210090022072
:1031B00009F00AF905467B4803233C22642100906C
:1031C000184609F001F90646774803233C2264219A
:1031D0000090042009F0F8F80746744803233C22C5
:1031E000D2210090052009F0EFF8804670480123B5
:1031F0006422D2210090062009F0E6F881466D484D
:1032000007F0ACFE6B4B2246F021FA2007F033FBAF
:10321000684B2A46F021142007F02DFB654B3246FF
:10322000AA21142007F027FB624B3A46AA218220EC
:1032300007F021FB5F4B4246AA21FA2007F01BFB57
:103240005C4B4A463C21FA2007F015FBBDE8F883A9
:1032500008B5FFF79AFF002009F075FF4FF6FF70E1
:103260001C235A220C21009014200AF042FB4148F2
:1032700009F0E5FE4FF6FF71002009F0C3FEAFF63E
:10328000EC4214210E200AF0E8F800214FF6FF70FE
:1032900009F0B8FE384809F0D2FE47A24FF4917108
:1032A00014200AF0DAF845F2AA206423D2223C2145
:1032B000009014200AF01DFB45F2AA206423D222BC
:1032C0003C210090FA200AF014FB45F2AA2009F0F4
:1032D000B0FE294809F0B3FE3BA21E2146200AF0A9
:1032E000BCF8002014233C228C2100905F200AF0BF
:1032F00000FB45F2AA2009F09CFE1F4809F09FFE42
:1033000034A2FF2146200AF0A8F84FF6FF701E23D2
:10331000D222F021009014200AF0EBFA4FF6FF7051
:103320001E23D222F0210090FA200AF0E2FA4FF692
:10333000FF7009F078FE64233C22AA2114200AF0D1
:10334000D5F964233C22AA2182200AF0CFF94BE070
:10335000B40500206400002060000020EB15000888
:10336000FB1500080B1600081B1600082B1600089A
:10337000580600203C0100204401002044495349E4
:103380004E46454354494F4E00000000504F4F4CAD
:103390000000000057415445520000006716000825
:1033A00077160008871600089F160008B91600084F
:1033B000C3160008FC060020504F4F4C20504152CD
:1033C000414D455445525300504F4F4C20564F4CA1
:1033D000554D450046494C54524154494F4E20509A
:1033E0004552494F44000000D2233C22AA21FA2032
:1033F0000AF07CF9FE4809F022FE00214FF6FF702A
:1034000009F000FEFBA03C236422AA2100901420B6
:103410000AF0C3FCF8A03C236422AA210090822079
:103420000AF0BBFCF54809F00AFEF5A03C23D222C5
:10343000AA210090FA200AF0B0FC4FF6FF7100209C
:1034400009F0E0FDAFF690101E23D222F02100908B
:10345000FA200AF0A2FCAFF6E0101E23D222F021DF
:10346000009014200AF099FC4FF6FF71002009F03B
:10347000C9FDE4480121C26990470820E24908805B
:10348000E048E249086008BD2DE9F843E0484FF6FE
:10349000FF731E22D2210090012008F095FF044600
:1034A000DC484FF6FF731E22D2210090022008F064
:1034B0008BFF0546D84803233C2264210090184620
:1034C00008F082FF0646D54803233C226421009081
:1034D000042008F079FF0746D14803233C22D2217B
:1034E0000090052008F070FF8046CE48012364223A
:1034F000D2210090062008F067FF8146CA4807F0F5
:103500002DFDC94B2246F021FA2007F0B4F9C64B35
:103510002A46F021142007F0AEF9C34B3246AA2107
:10352000142007F0A8F9C04B3A46AA21822007F0E0
:10353000A2F9BD4B4246AA21FA2007F09CF9BA4BEA
:103540004A463C21142007F096F9BDE8F88308B5F7
:10355000FFF79AFF002009F0F6FD4FF6FF701C23DD
:103560005A220C21009014200AF0C3F9A04809F057
:1035700066FD4FF6FF71002009F044FDAFF6EC72D6
:1035800014210E2009F069FF00214FF6FF7009F0A9
:1035900039FD9A4809F053FDAFF2E4124FF49171EE
:1035A000142009F05AFF45F2AA206423D2223C21BC
:1035B000009014200AF09DF945F2AA206423D2223B
:1035C0003C210090FA200AF094F9002014233C22B8
:1035D0008C21009040F245100AF08BF945F2AA21A7
:1035E0004FF6FF7009F00EFD844809F028FDAFF298
:1035F00028221E21462009F030FF45F2AA214FF66D
:10360000FF7009F0FFFC7D4809F019FDAFF23C2284
:10361000FF21462009F021FF4FF6FF701E23D22222
:10362000F021009014200AF064F94FF6FF701E2379
:10363000D222F0210090FA200AF05BF94FF6FF70D9
:1036400009F0F1FC64233C22AA2114200AF04EF870
:1036500064233C22AA2182200AF048F8D2233C228B
:10366000AA21FA200AF042F8614809F0E8FC00219A
:103670004FF6FF7009F0C6FC5EA03C236422AA212D
:10368000009014200AF089FB5BA03C236422AA214D
:10369000009082200AF081FB584809F0D0FC58A025
:1036A0003C23D222AA210090FA200AF076FB4FF6A2
:1036B000FF71002009F0A6FCAFF604401E23D222C1
:1036C000F0210090FA200AF068FBAFF654401E2368
:1036D000D222F021009014200AF05FFB4FF6FF7118
:1036E000002009F08FFC50480121C2699047092051
:1036F000454908804C484549086008BD2DE9F04F10
:1037000087B0012004F072FA0446022004F06EFA39
:103710000546032004F06AFA064644484FF6FF7354
:103720001E22D2210090042008F04EFE0746404899
:103730004FF6FF731E22D2210090052008F044FEB0
:1037400080463C4AAFF2C0312046E36A9847814642
:10375000394AAFF2CC312046E36A98478246374A6D
:10376000AFF2DC312046E36A98478346344AAFF231
:10377000E8312846EB6A98470690324AAFF2F831B2
:103780002846EB6A984705902F4AAFF20441284635
:10379000EB6A984704902D4AAFF214413046F36A21
:1037A000984703902A4AAFF220413046F36A98477F
:1037B0000290284AAFF230413046F36A98470190B0
:1037C000254807F0CBFB244B3A46F021FA2007F0BE
:1037D00052F8214B4246F021142007F04CF81E4BC2
:1037E0004A4655214FF4877007F045F81A4B35E0EB
:1037F0003C0100202B0000002D00000044010020AF
:103800004F4B0000FC0600206400002060000020F8
:10381000D3160008E3160008F31600080B1700087B
:10382000251700082F170008A00700203F170008E1
:103830004F1700085F170008671700086F17000888
:10384000851700088D170008951700089D170008B8
:10385000B3170008BB170008440800205246552142
:10386000880007F008F8F94B5A4655214FF4CD70FF
:1038700007F001F8F54B8C214FF48770069A06F09B
:10388000FAFFF24B8C214FF4AA70059A06F0F3FF71
:10389000EE4B8C214FF4CD70049A06F0ECFFEB4B0D
:1038A000CD214FF48770039A06F0E5FFE74BCD2159
:1038B0004FF4AA70029A06F0DEFFE44BCD214800D7
:1038C000019A06F0D8FF0121201DE14A127850F834
:1038D000220040680176281DDE4A127850F8220046
:1038E00040680176301DDC4A127850F822004068AA
:1038F000017607B0BDE8F08F08B5FFF7FFFE0020A6
:1039000009F021FC4FF6FF701C235A220C21009075
:10391000142009F0EEFFD14809F091FB4FF6FF713A
:10392000002009F06FFBCE4A14210E2009F095FD0E
:1039300000214FF6FF7009F065FBCA4809F07FFBD4
:10394000C9A24FF48C71142009F087FDCB4809F00F
:1039500076FBAFF2C8521E21412009F07EFDC8A2BD
:103960001E21782009F079FDAFF2D8521E21872060
:1039700009F073FDC4A21E21962009F06EFDAFF27E
:10398000EC521E21B92009F068FDC2A21E21C820F8
:1039900009F063FDC24809F052FBC2A2FF213720A3
:1039A00009F05BFDC1A24FF4A071372009F055FD6D
:1039B000C0A2FF21782009F050FDC0A24FF4A071F1
:1039C000782009F04AFDBFA240F28B11782009F05F
:1039D00044FDBEA240F20911B92009F03EFDBDA28E
:1039E00040F24F11B92009F038FDBCA240F281111C
:1039F000B92009F032FD4FF4784009F014FBBAA267
:103A00004FF4C371372009F028FDB9A240F28111AB
:103A1000462009F022FD4FF6FF701E23D222F0212E
:103A20000090142009F065FF4FF6FF701E23D2228C
:103A3000F0210090FA2009F05CFF4FF6FF710020A2
:103A400009F0E0FAAFF690701E23D222F021009028
:103A5000FA200AF0A2F9AFF6E0701E23D222F0217C
:103A6000009014200AF099F94FF6FF71002009F038
:103A7000C9FA76480121C26990470A209F49088007
:103A800072489F49086008BD38B59E4847F2C55343
:103A90001E223C210090012008F096FC04469A4822
:103AA00007F05CFA984B2246AA214FF4967006F074
:103AB000E2FE38BD08B5FFF7E7FF47F2C550AC237B
:103AC0004FF48C7232210090642009F012FF47F20B
:103AD000C5514FF6FF7009F095FA684809F0AFFA42
:103AE0008AA278213C2009F0B8FC8CA278215020D1
:103AF00009F0B3FC8CA27821642009F0AEFC684880
:103B000009F09DFA8AA2E621962009F0A6FC8AA275
:103B1000E621A02009F0A1FC4FF6FF7009F083FA1E
:103B20003C231E22AA214FF4967009F0DFFD47F2D4
:103B3000C5514FF6FF7009F065FA504809F07FFA59
:103B4000AFF244301E233C22AA2100904FF496701D
:103B50000AF023F96C480121C26990476A48684914
:103B600008600B206549088008BD38B5744847F2E5
:103B7000C5531E223C210090012008F025FC04467C
:103B8000704807F0EBF96F4B2246AA214FF496706C
:103B900006F071FE38BD08B5FFF7E7FF4EF2E3000F
:103BA000AC234FF48C7232210090642009F0A1FE06
:103BB0004EF2E3014FF6FF7009F024FA2F4809F0A6
:103BC0003EFA61A278213C2009F047FC63A27821EB
:103BD000502009F042FC54A27821642009F03DFCF9
:103BE0002F4809F02CFA52A2E621962009F035FC64
:103BF00051A2E621A02009F030FC4FF6FF7009F039
:103C000012FA3C231E22AA214FF4967009F06EFD91
:103C10004EF2E3014FF6FF7009F0F4F9174809F08E
:103C20000EFAAFF224401E233C22AA2100904FF44A
:103C300096700AF0B2F843480121C26990474148A2
:103C40002F4908600C202D49088008BD4408002039
:103C50002200002023000020240000203C0100203E
:103C600094250008440100205741544552205041FA
:103C700052414D455445525300000000640100205C
:103C8000415645524147450054454D5045524154D7
:103C900055524500484152444E45535300000000E0
:103CA00054010020696E646F6F7200006F75746458
:103CB0006F6F72003C2032306F43000032302D3382
:103CC000306F43003E2033306F430000736F6674E3
:103CD000000000006861726400000000766572797F
:103CE000206861726400000065787472656D65001B
:103CF000636F6E646974696F6E0000006400002079
:103D000060000020C3170008E80800204D617869B2
:103D10006D616C2073616665747900006469736617
:103D2000656374696F6E0000646F736167653A0064
:103D30006D6C2F6D33000000686F7572000000001D
:103D4000D31700088C09002045787472656D6520D2
:103D5000636F6E646974696F6E0000006D617869ED
:103D60006D616C20736166657479000038B5FC483C
:103D700047F2C5531E223C210090012008F024FB8D
:103D80000446F84807F0EAF8F64B2246AA214FF419
:103D9000967006F070FD38BD08B5FFF7E7FF47F2F3
:103DA000C550AC234FF48C7232210090642009F08E
:103DB000A0FD47F2C5514FF6FF7009F023F9EA481C
:103DC00009F03DF9E9A278213C2009F046FBEBA27D
:103DD00078215A2009F041FBF0A278216E2009F0E9
:103DE0003CFBF5A27821822009F037FB4FF6FF70EB
:103DF00009F019F93C231E22AA214FF4967009F00C
:103E000075FC47F2C5514FF6FF7009F0FBF8AFF2B1
:103E100010601E233C22AA2100904FF4967009F0F6
:103E2000BCFFD0480121C2699047CE48EA490860EA
:103E30000E20EA49088008BD38B5E9484EF2E30390
:103E40001E223C210090012008F0BEFA0446E548FD
:103E500007F084F8E34B2246AA214FF4967006F04F
:103E60000AFD38BD08B5FFF7E7FF4EF2E300AC23CB
:103E70004FF48C7232210090642009F03AFD4EF22A
:103E8000E3014FF6FF7009F0BDF8B74809F0D7F825
:103E9000D5A278213C2009F0E0FAD8A278215A2056
:103EA00009F0DBFADCA27821084609F0D6FAE2A292
:103EB00078218C2009F0D1FA4FF6FF7009F0B3F8A1
:103EC0003C231E22AA214FF4967009F00FFC4EF2FB
:103ED000E3014FF6FF7009F095F8AFF2DC601E23A6
:103EE0003C22AA2100904FF4967009F056FFBD487D
:103EF0000121C2699047BB48B74908600D20B74906
:103F0000088008BD38B5D1484EF2E3031E223C219B
:103F10000090012008F058FA0446CD4807F01EF83A
:103F2000CB4B2246AA214FF4967006F0A4FC38BD74
:103F300008B5FFF7E7FF4EF2E300AC234FF48C72B5
:103F400032210090642009F0D4FC4EF2E3014FF6D8
:103F5000FF7009F057F8844809F071F8A2A278219F
:103F60003C2009F07AFAA5A278215A2009F075FAC6
:103F7000B8A27821084609F070FABEA278218C20F8
:103F800009F06BFA4FF6FF7009F04DF83C231E2242
:103F9000AA214FF4967009F0A9FB4EF2E3014FF607
:103FA000FF7009F02FF8AFF2A8701E233C22AA215F
:103FB00000904FF4967009F0F0FEA5480121C26907
:103FC0009047A348844908600F208449088008BDB1
:103FD00038B5AF4847F2C5531E223C21009001205E
:103FE00008F0F2F90446AB4806F0B8FFA94B2246A8
:103FF000AA214FF4967006F03EFC38BD08B5FFF7D5
:10400000E7FF47F2C550AC234FF48C723221009089
:10401000642009F06EFC47F2C5514FF6FF7008F0BE
:10402000F1FF514809F00BF86FA278213C2009F00C
:1040300014FA99A278215A2009F00FFA9DA278214A
:104040006E2009F00AFA4FF6FF7008F0ECFF3C23EF
:104050001E22AA214FF4967009F048FB47F2C55181
:104060004FF6FF7008F0CEFFAFF66C001E233C2227
:10407000AA2100904FF4967009F08FFE8548012127
:10408000C26990478348544908601020534908800A
:1040900008BD38B58D4847F2C5531E223C2100901B
:1040A000012008F091F90446894806F057FF884B33
:1040B0002246AA214FF4967006F0DDFB38BD08B504
:1040C000FFF7E7FF47F2C550AC234FF48C72322163
:1040D0000090642009F00DFC47F2C5514FF6FF70C7
:1040E00008F090FF204808F0AAFF3FA278213C206A
:1040F00009F0B3F977A278215A2009F0AEF97DA230
:1041000078216E2009F0A9F981A27821822009F096
:10411000A4F94FF6FF7008F086FF3C231E22AA2167
:104120004FF4967009F0E2FA47F2C5514FF6FF706E
:1041300008F068FFAFF638101E233C22AA21009039
:104140004FF4967009F029FE61480121C269904739
:104150005F482149086011202049088008BD0000FF
:10416000D3170008300A00206401002057617465ED
:104170007220686172646E6573730000536F6674B9
:1041800020746F206D6F6465726174656C7920684E
:10419000617264203C39206F6448000049662070D9
:1041A000482076616C756520646F6573206E6F744E
:1041B000206368616E67650042616368204B686FC9
:1041C000612073746F707320616674657220313082
:1041D00020646F7365732E0060000020640000206F
:1041E0001D180008D40A002050524F424520434178
:1041F0004C4942524154494F4E00000050726F6288
:10420000652063616E6E6F742062652063616C6906
:104210006272617465210000596F752061726520BA
:1042200063616C6962726174696E67206F75747323
:10423000696465207468650072616E6765206F66E9
:1042400020362E32202D20372E3821002D18000840
:10425000780B0020576520617265207265636F6D71
:104260006D656E646564207265706C6163696E670C
:10427000000000007468652070726F6265207769C5
:1042800074682061206E6577206F6E652E000000D7
:104290003D1800081C0C002043616C696272617457
:1042A000696F6E207265636F6D6D656E6465642005
:1042B000627900007573696E672062756666657263
:1042C00020704820372C302E000000004D180008C8
:1042D000C00C00205468652063686C6F72696E655D
:1042E00020636F6E74656E7420696E20706F6F6CE2
:1042F000000000007761746572206D757374206230
:10430000652067726561746572207468616E000073
:104310002272657175697265642076616C756522BB
:104320002E00000038B5FE484EF2E3031E223C2169
:104330000090012008F048F80446FA4806F00EFE06
:10434000F84B2246AA214FF4967006F094FA38BD35
:1043500008B5FFF7E7FF4EF2E300AC234FF48C7291
:1043600032210090642009F0C4FA4EF2E3014FF6C6
:10437000FF7008F047FEEC4808F061FEAFF29812BB
:1043800078213C2009F069F8AFF2B80278215A2070
:1043900009F063F8AFF2A40278216E2009F05DF80D
:1043A000AFF294027821822009F057F84FF6FF709F
:1043B00008F039FE3C231E22AA214FF4967009F022
:1043C00095F94EF2E3014FF6FF7008F01BFEAFF6D1
:1043D000D0301E233C22AA2100904FF4967009F0A1
:1043E000DCFCD0480121C2699047CE48CF49086023
:1043F0001220CF49088008BD38B5CE484EF2E303FD
:104400001E223C210090012007F0DEFF0446CA482E
:1044100006F0A4FDC84B2246AA214FF4967006F080
:104420002AFA38BD08B5FFF7E7FF4EF2E300AC23E8
:104430004FF48C7232210090642009F05AFA4EF247
:10444000E3014FF6FF7008F0DDFDB74808F0F7FD17
:10445000AFF26C2278213C2008F0FFFFB7A2782150
:104460005A2008F0FAFFBCA278216E2008F0F5FF70
:10447000C0A27821822008F0F0FFC0A27821962007
:1044800008F0EBFF4FF6FF7008F0CDFD3C231E2235
:10449000AA214FF4967009F029F94EF2E3014FF684
:1044A000FF7008F0AFFDAFF6A8401E233C22AA2102
:1044B00000904FF4967009F070FC9F480121C2698A
:1044C00090479D489949086013209949088008BD84
:1044D00038B5B1484EF2E3031E22C82100900120F6
:1044E00007F072FF0446AD4806F038FDAB4B22469C
:1044F000AA21A02006F0BFF938BD08B5FFF7E8FFF4
:104500004EF2E300AC234FF48C7232210090642011
:1045100009F0EFF94EF2E3014FF6FF7008F072FD7B
:10452000814808F08CFD9EA278213C2008F095FF80
:10453000A3A278215A2008F090FFA9A278216E202A
:1045400008F08BFFADA27821822008F086FF4FF69D
:10455000FF7008F068FDC8231E22AA21A02009F0E0
:10456000C5F84EF2E3014FF6FF7008F04BFDA6A030
:104570001E23C822AA210090A02009F00EFC874823
:104580000121C2699047854868490860142068493C
:10459000088008BD2DE9F843A0484FF6FF731E229E
:1045A000D2210090012007F00FFF04469C484FF6EF
:1045B000FF731E22D2210090022007F005FF05465E
:1045C000984805233C2264210090032007F0FCFE5C
:1045D0000646954805233C2264210090042007F0FC
:1045E000F3FE0746914805233C22D221009018464D
:1045F00007F0EAFE80468E4801236422D221009013
:10460000062007F0E1FE81468A4806F0A7FC894BA8
:104610002246F021FA2006F02EF9864B2A46F02198
:10462000142006F028F9834B3246AA21142006F004
:1046300022F9804B3A46AA21822006F01CF97D4BD4
:104640004246AA21FA2006F016F97A4B4A463C2146
:10465000142006F010F9BDE8F88308B5FFF79AFFBB
:10466000002008F070FD4FF6FF701C235A220C2129
:104670000090142009F03DF96F4808F0E0FC4FF677
:10468000FF71002008F0BEFC6C4A14210E2008F0D7
:10469000E4FE00214FF6FF7008F0B4FC684808F013
:1046A000CEFC68A24FF49171142008F0D6FE4FF6AC
:1046B00068606423D2223C210090142009F019F98B
:1046C00040F2FC406423D2223C210090FA2009F001
:1046D00010F94FF6686008F0ACFC002008F0A3FC6D
:1046E0005CA21E21462008F0B8FE40F2FC4008F013
:1046F000A0FC59A24FF48271462008F0AEFE0020C3
:1047000014233C228C21009040F2451009F0F1F86E
:104710004FF6FF701E23D222F021009014209DE05E
:104720005D180008640D0020640100206000002076
:10473000640000206D180008080E002043616C69B9
:1047400062726174696F6E20697320696D706F7336
:104750007369626C6521000050726F626520736539
:104760006E736974697669747920746F6F206C6FE9
:10477000772E00004368616E67653A00656C65637B
:1047800074726F6C7974652F6D656D6272616E65A0
:104790002F70726F62652E007D180008AC0E00202D
:1047A000546F6F207261706964206368616E676521
:1047B000206F662070482076616C75652E000000C1
:1047C00042414348204B484F412073746F70207220
:1047D0006567756C6174696F6E73206F66000000A9
:1047E000704820666F72203220686F757273206681
:1047F0006F72207361666574790000007265617381
:104800006F6E732E0000000043414E43454C205212
:1048100045535452494354494F4E53008D18000894
:104820009D180008AD180008ED180008311900089F
:104830003F190008500F00203C010020942500087B
:104840004401002052455155495245442056414C9F
:1048500055455300434C46007048000009F049F8A4
:104860004FF6FF701E23D222F0210090FA2009F0AB
:1048700040F840F2FC4008F0D6FB64233C22AA2119
:10488000142008F033FF64233C22AA21822008F080
:104890002DFFD2233C22AA21FA2008F027FFFE4850
:1048A00008F0CDFB00214FF6FF7008F0ABFBFBA03A
:1048B0003C236422AA210090142009F06EFAF8A08B
:1048C0003C236422AA210090822009F066FAF54870
:1048D00008F0B5FBF4A03C23D222AA210090FA20D4
:1048E00009F05BFA4FF6FF71002008F08BFBEF48F0
:1048F0001E23D222F0210090FA2009F04EFAEB4854
:1049000040381E23D222F0210090142009F045FAED
:104910004FF6FF71002008F075FBE5480121C269E0
:1049200090471520E3490880E148E349086008BD45
:104930002DE9F843E1484FF6FF731E22D221009083
:10494000012007F041FD0446DD484FF6FF731E22AB
:10495000D2210090022007F037FD0546D9480423F4
:104960003C2264210090032007F02EFD0646D64825
:1049700004233C2264210090184607F025FD0746D9
:10498000D24804233C22D2210090052007F01CFDD0
:104990008046CF4801236422D2210090062007F0F0
:1049A00013FD8146CB4806F0D9FACA4B2246F021C6
:1049B000FA2005F060FFC74B2A46F021142005F0CD
:1049C0005AFFC44B3246AA21142005F054FFC14BB4
:1049D0003A46AA21822005F04EFFBE4B4246AA214C
:1049E000FA2005F048FFBB4B4A463C21FA2005F06F
:1049F00042FFBDE8F88308B5FFF79AFF002008F0F2
:104A0000A2FB4FF6FF701C235A220C2100901420A9
:104A100008F06FFFA04808F012FB4FF6FF7100206E
:104A200008F0F0FAAC4A14210E2008F016FD00211F
:104A30004FF6FF7008F0E6FA9A4808F000FBAFF274
:104A4000FC124FF49171142008F007FD4FF66860D6
:104A50006423D2223C210090142008F04AFF40F247
:104A6000FC406423D2223C210090FA2008F041FF50
:104A70004FF6686008F0DDFA002008F0D4FAAFF2D3
:104A80002C221E21462008F0E8FC002014233C22A2
:104A90008C2100905F2008F02CFF40F2FC4008F0D1
:104AA000C8FAAFF24C224FF48271462008F0D5FCD0
:104AB0004FF6FF701E23D222F0210090142008F040
:104AC00018FF4FF6FF701E23D222F0210090FA202B
:104AD00008F00FFF4FF6686008F0A5FA64233C2247
:104AE000AA21142008F002FE64233C22AA2182207D
:104AF00008F0FCFDD2233C22AA21FA2008F0F6FDA2
:104B0000654808F09CFA00214FF6FF7008F07AFA29
:104B100062A03C236422AA210090142009F03DF9F0
:104B20005FA03C236422AA210090822009F035F97D
:104B30005C4808F084FA5CA03C23D222AA210090B1
:104B4000FA2009F02AF94FF6FF71002008F05AFA0E
:104B500056481E23D222F0210090FA2009F01DF9B8
:104B6000524840381E23D222F0210090142009F030
:104B700014F94FF6FF71002008F044FA554801215E
:104B8000C269904716204B49088052484A4908603C
:104B900008BD2DE9F84351484FF6FF731E22D2217C
:104BA0000090012007F010FC04464D484FF6FF73BB
:104BB0001E22D2210090022007F006FC054649483B
:104BC00001235022D2210090032007F0FDFB06466E
:104BD000454801235022D2210090042007F0F4FB25
:104BE0000746424800235022D2210090052007F0BA
:104BF000EBFB80463E4800235022D2210090062045
:104C000007F0E2FB81463B4806F0A8F9394B224603
:104C1000F021FA2005F02FFE364B2A46F021142011
:104C200005F029FE334B32463C21142005F023FECB
:104C3000304B3A463C21FA2005F01DFE2D4B4246F2
:104C40009621142005F017FE2A4B4A469621FA2099
:104C500005F011FEBDE8F88308B5FFF79AFF0020C4
:104C600008F071FA4FF6FF701C235A220C210090B5
:104C7000142008F03EFE084808F0E1F94FF6FF71F5
:104C8000002008F0BFF9144A14210E2008F0E5FBBB
:104C900000214FF6FF702FE03C0100202B000000A8
:104CA0002D000000440100204F4B0000B82A0008EE
:104CB000500F002064000020600000204F19000801
:104CC0005F1900086F190008AF190008F3190008F0
:104CD000011A0008F40F002094250008111A00089A
:104CE000211A0008311A00084D1A0008691A000834
:104CF000791A00089810002008F084F9FE4808F09E
:104D00009EF9FE4A40F25911142008F0A6FB4FF616
:104D100068605023D2223C210090142008F0E9FD65
:104D200040F2FC405023D2223C210090FA2008F0AF
:104D3000E0FDD22350229621142008F0D7FCD22384
:104D400050229621FA2008F0D1FC4FF6FF701E2366
:104D5000D222F0210090142008F0CBFD4FF6FF7016
:104D60001E23D222F0210090FA2008F0C2FDE24872
:104D700008F065F94FF66861002008F043F9E0A0FB
:104D80003223D2223C210090142009F006F8DB489F
:104D90003223D22255210090142008F0FEFF40F269
:104DA000FC41002008F02EF9D8A03223D2223C2169
:104DB0000090FA2008F0F1FFD0483223D22255218A
:104DC0000090FA2008F0E9FF00214FF6FF7008F08C
:104DD00019F9D1483223D22296210090142008F0EC
:104DE000DCFFCEA03223D222AF210090142008F0A5
:104DF000D4FFCDA03223D22296210090FA2008F0D1
:104E0000CCFFC6A03223D222AF210090FA2008F0B6
:104E1000C4FF4FF6FF71002008F0F4F8C3481E23CA
:104E2000D222F0210090FA2008F0B7FFBF484038A6
:104E30001E23D222F0210090142008F0AEFFBC48BF
:104E40000121C26990471720BA490880B848BA4979
:104E5000086008BD2DE9F843B8484FF6FF731E22DD
:104E6000D2210090012007F0AFFA0446B4484FF673
:104E7000FF731E22D2210090022007F0A5FA0546FA
:104E8000B04805233C2264210090032007F09CFADF
:104E90000646AD4805233C2264210090042007F01B
:104EA00093FA0746A94805233C22D22100901846D0
:104EB00007F08AFA8046A64806F050F8A44B22462E
:104EC000F021FA2005F0D7FCA14B2A46F02114204E
:104ED00005F0D1FC9E4B3246AA21142005F0CBFCF4
:104EE0009B4B3A46AA21822005F0C5FC984B4246CE
:104EF000AA21FA2005F0BFFCBDE8F88308B5FFF74A
:104F0000A9FF002008F01FF94FF6FF701C235A225A
:104F10000C210090142008F0ECFC8E4808F08FF86B
:104F20004FF6FF71002008F06DF8744AA83A14217A
:104F30000E2008F092FA00214FF6FF7008F062F898
:104F40006D4808F07CF884A2E621142008F085FA68
:104F500040F2FC406423D2223C210090FA2008F069
:104F6000C8FC00214FF6FF7008F04CF8804808F0AC
:104F700066F880A21E21462008F06FFAAFF6DC42E8
:104F80001E215A2008F069FAAFF6D8421E216E2081
:104F900008F063FA40F2FC4008F04BF8002008F0FB
:104FA00042F8554808F04BF8AFF254724FF4827152
:104FB000462008F052FA002014233C228C21009055
:104FC00040F2451008F095FC4FF6FF701E23D222E8
:104FD000F0210090142008F08CFC4FF6FF701E2387
:104FE000D222F0210090FA2008F083FC40F2FC402D
:104FF00008F019F864233C22AA21142008F076FB5B
:1050000064233C22AA21822008F070FBD2233C2298
:10501000AA21FA2008F06AFB4E4808F010F8002197
:105020004FF6FF7007F0EEFFAFF290303C236422A2
:10503000AA210090142008F0B0FEAFF29C303C236F
:105040006422AA210090822008F0A7FE2A4807F0D7
:10505000F6FFAFF2AC303C23D222AA210090FA2016
:1050600008F09BFE4FF6FF71002007F0CBFF2F48A2
:105070001E23D222F0210090FA2008F08EFE2B4849
:1050800040381E23D222F0210090142008F085FE23
:105090004FF6FF71002007F0B5FF2D480121C269CE
:1050A000904718202349088029482349086008BDF3
:1050B0002DE9F84332484FF6FF731E22D2210090AB
:1050C000012007F081F904462E484FF6FF731E2297
:1050D000D2210090022007F077F905462A480423E0
:1050E0003C2264210090032007F06EF90646274811
:1050F00004233C2264214BE0440100203C260008AC
:10510000434C462050524F4245000000704820500A
:10511000524F424500000000943300085448455265
:105120004D4F4D455445520041495200B82A0008A0
:10513000981000206400002060000020891A0008F8
:10514000991A0008A91A0008091B0008551B000835
:105150003C1100203C01002070482043414C494252
:10516000524154494F4E2050524F424500000000DA
:105170006401002043616C6962726174696F6E0042
:10518000631B0008731B0008831B0008C31B000877
:105190000090184607F018F90746FE4804233C2201
:1051A000D2210090052007F00FF98046FA4805F05B
:1051B000D5FEF94B2246F021FA2005F05CFBF64BB8
:1051C0002A46F021142005F056FBF34B3246AA2163
:1051D000142005F050FBF04B3A46AA21822005F03E
:1051E0004AFBED4B4246AA21FA2005F044FBBDE8FC
:1051F000F88308B5FFF75CFF002007F0A4FF4FF627
:10520000FF701C235A220C210090142008F071FB1F
:10521000E24807F014FF4FF6FF71002007F0F2FE9E
:10522000DF4A14210E2008F018F900214FF6FF7014
:1052300007F0E8FEDB4807F002FFDBA2D7211420CD
:1052400008F00BF94FF668606423D2223C210090ED
:10525000FA2008F04EFB00214FF6FF7007F0D2FE57
:10526000D74807F0ECFED7A21E21462008F0F5F83B
:10527000DAA21E215A2008F0F0F8DFA21E216E20CB
:1052800008F0EBF84FF6686007F0D3FE002007F057
:10529000CAFEAFF640224FF48271462008F0DDF8D6
:1052A000002014233C228C21009040F2451008F08D
:1052B00020FB4FF6FF701E23D222F0210090142015
:1052C00008F017FB4FF6FF701E23D222F02100904A
:1052D000FA2008F00EFB4FF6686007F0A4FE642386
:1052E0003C22AA21142008F001FA64233C22AA21BE
:1052F000822008F0FBF9D2233C22AA21FA2008F0F0
:10530000F5F9A64807F09BFE00214FF6FF7007F065
:1053100079FEAFF278603C236422AA210090142029
:1053200008F03BFDAFF288603C236422AA21009084
:10533000822008F032FD9B4807F081FEAFF29860B2
:105340003C23D222AA210090FA2008F026FD4FF635
:10535000FF71002007F056FEAD481E23D222F02137
:105360000090FA2008F019FDA94840381E23D222E7
:10537000F0210090142008F010FD4FF6FF7100207E
:1053800007F040FE84480121C26990471920A149D5
:1053900008808148A049086008BD2DE9F8439F486E
:1053A0004FF6FF731E22D2210090012007F00CF867
:1053B00004469B484FF6FF731E22D2210090022024
:1053C00007F002F80546974804233C226421009028
:1053D000032006F0F9FF0646934804233C2264218B
:1053E0000090184606F0F0FF0746904804233C2240
:1053F000D2210090052006F0E7FF80468C4801236B
:105400006422D2210090062006F0DEFF8146894802
:1054100005F0A4FD874B2246F021FA2005F02BFA77
:10542000844B2A46F021142005F025FA814B3246A0
:10543000AA21142005F01FFA7E4B3A46AA218220A9
:1054400005F019FA7B4B4246AA21FA2005F013FA1F
:10545000784B4A463C21FA2005F00DFABDE8F88366
:1054600008B5FFF79AFF002007F06DFE4FF6FF70BA
:105470001C235A220C210090142008F03AFA4748C5
:1054800007F0DDFD4FF6FF71002007F0BBFD444A39
:1054900014210E2007F0E1FF00214FF6FF7007F006
:1054A000B1FD404807F0CBFDAFF668424FF4917173
:1054B000142007F0D2FF4FF668606423D2223C210B
:1054C0000090142008F015FA40F2FC406423D22228
:1054D0003C210090FA2008F00CFA4FF6686007F0C3
:1054E000A8FD002007F09FFD2D4A3C321E214620DA
:1054F00007F0B3FF002014233C228C2100905F2092
:1055000008F0F7F940F2FC4007F093FDAFF6B8421F
:105510004FF48271462007F0A0FF4FF6FF701E2364
:10552000D222F0210090142008F0E3F94FF6FF702A
:105530001E23D222F0210090FA2008F0DAF94FF66B
:10554000686007F070FD64233C22AA21142008F053
:10555000CDF864233C22AA21822008F0C7F8D22388
:105560003C22AA21FA2008F0C1F80C4807F067FD98
:1055700000214FF6FF7007F045FDAFF6E0003C2339
:105580006422AA210090142008F007FCAFF6F00076
:105590003C2351E0831C0008E01100203C01002066
:1055A0009425000844010020434C462043414C49C7
:1055B00042524154494F4E2050524F424500000044
:1055C000640100205468652063686C6F72696E65C1
:1055D00020636F6E74656E7420696E00706F6F6CFF
:1055E000207761746572206D757374206265206721
:1055F00072656174657200007468616E2022726564
:105600007175697265642076616C7565222E000083
:10561000B82A00086400002060000020911C0008E7
:10562000A11C0008B11C0008CF1C0008E71C0008E2
:10563000F11C0008841200206422AA21009082201C
:1056400008F0ABFBFE4807F0FAFCAFF6A4103C23D1
:10565000D222AA210090FA2008F09FFB4FF6FF719A
:10566000002007F0CFFCF7481E23D222F021009043
:10567000FA2008F092FBF34840381E23D222F02192
:105680000090142008F089FB4FF6FF71002007F00E
:10569000B9FCED480121C26990471A20EB49088006
:1056A000E948EB49086008BD2DE9F843E9484FF6A1
:1056B000FF731E22D2210090012006F085FE0446D1
:1056C000E5484FF6FF731E22D2210090022006F01B
:1056D0007BFE0546E14805233C226421009003201F
:1056E00006F072FE0646DE4805233C226421009047
:1056F000042006F069FE0746DA4805233C22D22141
:105700000090184606F060FE8046D74801236422C8
:10571000D2210090062006F057FE8146D34805F0BE
:105720001DFCD24B2246F021FA2005F0A4F8CF4B05
:105730002A46F021142005F09EF8CC4B3246AA21CF
:10574000142005F098F8C94B3A46AA21822005F0AA
:1057500092F8C64B4246AA21FA2005F08CF8C34BBA
:105760004A463C21142005F086F8BDE8F88308B5C8
:10577000FFF79AFF002007F0E6FC4FF6FF701C23AE
:105780005A220C210090142008F0B3F8B84807F012
:1057900056FC4FF6FF71002007F034FCB54A142187
:1057A0000E2007F05AFE00214FF6FF7007F02AFC8A
:1057B000A34807F044FCAFF674724FF491711420C3
:1057C00007F04BFE4FF668606423D2223C21009024
:1057D000142008F08EF840F2FC406423D2223C21D1
:1057E0000090FA2008F085F84FF6686007F021FC79
:1057F000002007F018FC9F4A3C321E21462007F08B
:105800002CFE40F2FC4007F014FCAFF6B4724FF4EB
:105810008271462007F021FE002014233C228C21B7
:10582000009040F2451008F064F84FF6FF701E2318
:10583000D222F0210090142008F05BF84FF6FF70A0
:105840001E23D222F0210090FA2008F052F840F2F4
:10585000FC4007F0E8FB64233C22AA21142007F057
:1058600045FF64233C22AA21822007F03FFFD22378
:105870003C22AA21FA2007F039FF7D4807F0DFFB20
:1058800000214FF6FF7007F0BDFBAFF6F0303C2370
:105890006422AA210090142008F07FFAAFF600409D
:1058A0003C236422AA210090822008F076FA644802
:1058B00007F0C5FBAFF610403C23D222AA2100908E
:1058C000FA2008F06AFA4FF6FF71002007F09AFB01
:1058D0005C481E23D222F0210090FA2008F05DFAE5
:1058E000584840381E23D222F0210090142008F09E
:1058F00054FA4FF6FF71002007F084FB5B4801214A
:10590000C26990471B205149088058485049086097
:1059100008BD2DE9F84358484FF6FF731E22D221E7
:105920000090012006F050FD044654484FF6FF73E6
:105930001E22D2210090022006F046FD0546504866
:1059400004233C2264210090032006F03DFD06461E
:105950004C4804233C2264210090184606F034FD94
:105960000746494804233C22D2210090052006F036
:105970002BFD8046454801236422D2210090062059
:1059800006F022FD8146424805F0E8FA404B2246E7
:10599000F021FA2004F06FFF3D4B2A46F02114203D
:1059A00004F069FF3A4B3246AA21142004F063FF49
:1059B000374B3A46AA21822004F05DFF344B424621
:1059C000AA21FA2004F057FF314B4A463C21FA2025
:1059D00004F051FFBDE8F88308B5FFF79AFF0020F7
:1059E00007F0B1FB4FF6FF701C235A220C210090E8
:1059F000142007F07EFF1E4807F021FB4FF6FF71D1
:105A0000002007F0FFFA1B4A14210E2007F025FDA5
:105A100000214FF6FF7007F0F5FA094807F00FFB79
:105A20001C4A4FF49171142007F017FD4FF668607F
:105A30006423D2223C210090142007F05AFF2BE06F
:105A400044010020B82A00088412002064000020CD
:105A500060000020011D0008111D0008211D000824
:105A6000611D0008A51D0008B31D000828130020B3
:105A70003C01002094250008C31D0008D31D000828
:105A8000E31D0008FB1D0008151E00081F1E00086E
:105A9000CC1300204448000840F2FC406423D2228A
:105AA0003C210090FA2007F024FF4FF6686007F0D1
:105AB000C0FA002007F0B7FAFE4A1E21462007F080
:105AC000CCFCFC4A08327821462007F0C6FC0020B6
:105AD00014233C228C2100905F2007F00AFF40F243
