:020000040800F2
:10000000809F00206D12010835080008370800089D
:100010003B0800083F0800084308000800000000F3
:100020000000000000000000000000009D02000829
:100030004708000800000000F10200087D100108D8
:100040008712010887120108871201088712010828
:100050008712010887120108871201088712010818
:100060008712010887120108871201088712010808
:1000700087120108871201088712010887120108F8
:1000800087120108871201088712010887120108E8
:1000900087120108871201088712010887120108D8
:1000A00087120108871201088712010887120108C8
:1000B0008B0800088D0800088F08000887120108C7
:1000C00087120108871201088712010887120108A8
:1000D0008712010887120108871201088712010898
:1000E0008712010887120108871201088712010888
:1000F0008712010887120108871201088712010878
:100100008712010887120108871201088712010867
:100110008712010887120108871201088712010857
:100120008712010887120108871201088712010847
:100130008712010849080008871201088712010880
:100140008712010887120108871201088712010827
:100150008712010887120108871201088712010817
:100160008712010887120108871201088712010807
:1001700087120108871201088712010887120108F7
:10018000871201088712010800F002F800F076F8E3
:100190000AA090E8000C82448344AAF10107DA45E2
:1001A00001D100F06BF8AFF2090EBAE80F0013F0BE
:1001B000010F18BFFB1A43F001031847244A02003D
:1001C000444A02000A444FF0000C10F8013B13F0BF
:1001D000070408BF10F8014B1D1108BF10F8015BA0
:1001E000641E05D010F8016B641E01F8016BF9D193
:1001F00013F0080F1EBF10F8014BAD1C0C1B09D1EA
:100200006D1E58BF01F801CBFAD505E014F8016B5B
:1002100001F8016B6D1EF9D59142D6D370470000ED
:100220000023002400250026103A28BF78C1FBD8FF
:10023000520728BF30C148BF0B607047662913F0D2
:10024000C380642911F0EC80752911F0E9806329DD
:1002500011F0D385002070471FB513F0ABF89DE86F
:10026000030011F005FB11F00BFE0400002000213B
:1002700012F08EFBE0601FBD10B510BD11F01EFF27
:100280001146FFF7E9FF00F040F911F03CFF03B41D
:10029000FFF7F2FF03BC11F06DFF00002A4B196855
:1002A0000868B0E8F04F80F30988BFF36F8F4FF014
:1002B000000080F3118870470000000006480068C5
:1002C000006880F3088862B661B6BFF34F8FBFF352
:1002D0006F8F00DF00BF00BF08ED00E0DFF80C000B
:1002E000016841F470010160704700BF88ED00E0D3
:1002F000EFF30980BFF36F8F134B1A681EF0100FD6
:1003000008BF20ED108A20E9F04F106008B44FF0CC
:10031000500080F31188BFF34F8FBFF36F8F0FF042
:100320009EFD4FF0000080F3118808BC1968086832
:10033000B0E8F04F1EF0100F08BFB0EC108A80F349
:100340000988BFF36F8F704798010020EFF3058095
:100350007047000010B59A4800880B2840D2DFE8AB
:1003600000F0BA0640414243447C7D9BB900002125
:100370004FF6FF7008F022FA924808F03CFA92A279
:100380008221142008F045FC4FF66861002008F037
:1003900015FA904808F02FFA8FA26421822008F005
:1003A00038FC884808F027FA8BA2AA21502008F0D0
:1003B00030FC40F2FC41002008F000FA854808F0CB
:1003C0001AFA85A24FF4A571822008F022FC7D481C
:1003D00008F011FA80A24FF4C871502008F019FCFF
:1003E00079E078E000BF00BF00BF4FF668610020F1
:1003F00008F0E4F9774808F0FEF978A26421782043
:1004000008F007FC6F4808F0F6F975A2A521462010
:1004100008F0FFFB73A29B217F2008F0FAFB40F25B
:10042000FC41002008F0CAF96A4808F0E4F96BA220
:100430004FF4A571782008F0ECFB624808F0DBF976
:1004400069A24FF4C871462008F0E3FB65A240F2B0
:1004500081117F2008F0DDFB3DE03CE04FF243419D
:100460004FF6FF7008F0AAF95A4808F0C4F960A2E4
:100470006421782008F0CDFB45F2AA214FF6FF70E9
:1004800008F09CF9534808F0B6F95BA24FF4A57147
:10049000782008F0BEFB1EE045F2AA214FF6FF705F
:1004A00008F08CF94B4808F0A6F951A26421782095
:1004B00008F0AFFB4FF243414FF6FF7008F07EF9B2
:1004C000444808F098F94CA24FF4A571782008F040
:1004D000A0FB00E000BF00BF10BD00BF09F0D1FAD3
:1004E00007F09BFA07F07BFBFFF734FFF6E710B548
:1004F00000200AF0C3FF01200AF0C0FF02200AF02A
:10050000BDFF03200AF0BAFF10BD1CB54FF4E13166
:100510003B4807F0B5FCFFF7EAFF08F0D9F80020E8
:1005200002F0C5FA09F0FFF80AF0F5FE102002F01B
:1005300017F948F2100002F01DF9324800F0C5F931
:10054000314908802F48801C00F0BFF92F490880EE
:100550002C48001D00F0B9F92D4908802948001FDA
:1005600000F0B3F92B4908802648801E00F0ADF951
:100570002949088000F01DFC0020012103464FF4AA
:100580002062CDE9001025A1AFF2B1000FF031F9E2
:100590000FF02FFE00BFFEE700BFFEE700BF5020B8
:1005A00080F31188BFF34F8FBFF36F8F00BF00BF81
:1005B000FEE7704710B507F081FB02F07CF810BD34
:1005C0002C000020E400002030303A30303A303146
:1005D00000000000DC000020302E350031353000F6
:1005E000343030206D6C0000323030206D6C0000F3
:1005F0003135206D330000003036206800000000E7
:100600000010014004000808180000201A00002013
:100610001C0000201E000020200000204D795461A5
:10062000736B00000CB500200190009076480068C4
:1006300040F480307449086000BF7348006800F4DB
:10064000003000900198401C0190009818B9019862
:10065000B0F5A06FF1D16C48006800F4003010B123
:100660000120009001E0002000900098012846D170
:1006700065484030006840F0805063494031086070
:100680006248006840F48040604908605E48083075
:1006900000685D49083108600846006840F4004081
:1006A00008600846006840F4A05008605848091FD8
:1006B0000860081F006840F08070091F086000BFD4
:1006C0005148006800F000700028F9D040F2052081
:1006D000504908604C480830006820F003004A493F
:1006E000083108600846006840F00200086000BF5A
:1006F00045480830006800F00C000828F8D10CBD0F
:1007000010B54548006840F47000434908603E4811
:10071000006840F001003C49086000203A49083177
:100720000860394800683D490840374908603C483E
:10073000091D0860081F006820F48020091F086058
:10074000002031490C310860FFF76CFF4FF000606A
:1007500031498039086010BD70B5002000220223A5
:1007600000240221284D08352D6805F00C0020B129
:10077000042806D0082834D107E02A4D2A4E3560D7
:1007800033E02A4D284E35602FE01F4D2D1D2D687A
:10079000C5F380541C4D2D1D2D6805F03F0154B14B
:1007A000224DB5FBF1F5184E361D3668C6F3881696
:1007B00005FB06F209E01B4DB5FBF1F5124E361DA7
:1007C0003668C6F3881605FB06F20F4D2D1D2D6801
:1007D000C5F301456D1C6B00B2FBF3F5124E35609D
:1007E00003E0104D104E356000BF00BF064D0835C8
:1007F0002D68C5F303150E4E705D0B4D2D68C54079
:10080000094E356070BD00000038024000700040A5
:1008100019544007003C024088ED00E0FFFFF6FE5F
:10082000103000240024F4000000002040787D01F6
:1008300004000020704700BFFEE700BFFEE700BFD6
:10084000FEE700BFFEE7704708B50020009040209B
:100850000DF069FF012804D169460D4800680EF0CB
:100860000AFD40200DF083FF4FF480300DF07FFF34
:10087000009848B1009838B14FF0805005490860A1
:10088000BFF34F8FBFF36F8F08BD7047704770473E
:100890009001002004ED00E070B504460D460CF018
:1008A00075FFF3200DF08BF9294620460DF08CF8EA
:1008B000082801D0012070BD0CF075FF0020FAE778
:1008C000014600200A6890B27047014600200A687D
:1008D00090B2022800DD00207047000010B5D54816
:1008E000006806F0EFFA00F053FB10BD704710B53A
:1008F000D048006806F0E6FA00F05BFA10BD10B5CB
:10090000CC48006806F0DEFA01F015F910BD70471A
:1009100010B5C948007830B101280BD0022810D09A
:1009200003281CD114E0C348006806F0CBFA00F09D
:100930000EFC14E0BF48006806F0C4FA00F0F8FFAF
:100940000DE0BC48006806F0BDFA00F0A0FD06E02E
:10095000B848006806F0B6FA00F097FE00BF00BF86
:1009600010BD704710B5B348006806F0ABFA00F050
:100970000FFB0020B049087010BD10B5AD480068ED
:1009800006F0A0FA00F015FA0020AB49087010BD7F
:1009900010B5A848006806F095FA00F078FD10BD83
:1009A00010B5A448006806F08DFA00F0C1FF10BD34
:1009B00010B5A048006806F085FA00F0E9FA0220B8
:1009C0009D49087010BD10B59A48006806F07AFA83
:1009D00000F0EFF900209849087010BD10B5954857
:1009E000006806F06FFA00F0B2FB10BD10B5914838
:1009F000006806F067FA00F048FE10BD10B58D489B
:100A0000006806F05FFA00F0C3FA03208A49087014
:100A100010BD10B58748006806F054FA00F0C9F917
:100A200000208549087010BD10B58248006806F0A6
:100A300049FA00F07DFF10BD10B57E48006806F051
:100A400041FA00F024FD10BD10B57A48006806F0A8
:100A500039FA00F09DFA01207749087010BD10B5F1
:100A60007448006806F02EFA00F0A3F900207249DD
:100A7000087010BD10B56F48006806F023FA00F04A
:100A800006FD10BD10B56B48006806F01BFA00F0BB
:100A90005EFB10BD10B56748006806F013FA00F061
:100AA00077FA10BD10B56348006806F00BFA00F045
:100AB00080F910BD10B55F48006806F003FA01F038
:100AC0009AF910BD10B55B48006806F0FBF901F01B
:100AD000BEFC10BD10B55748006806F0F3F901F0F0
:100AE0002AF810BD10B55348006806F0EBF900F085
:100AF00060F910BD70477047704710B54D480068E9
:100B000006F0E0F901F001FB10BD10B5494800689E
:100B100006F0D8F901F00FF810BD10B5454800688F
:100B200006F0D0F900F045F910BD704770477047E6
:100B300010B54048006806F0C5F901F05CF910BD39
:100B400010B53C48006806F0BDF93C4801883C48B7
:100B5000FFF7A2FE3B4801883948801CFFF79CFE46
:100B6000394801883648001DFFF796FE00F0E3FF84
:100B700010BD10B52F48006806F0A4F92F48018871
:100B80002F48FFF789FE2F4801882D48801CFFF76A
:100B900083FE2D4801882A48001DFFF77DFE00F0E6
:100BA00008F910BD10B529A007F017FA0020234955
:100BB000088010BD10B52DA007F00FFA01201F49C5
:100BC000088010BD10B531A007F007FA02201B49BC
:100BD000088010BD10B538A007F0FFF900201949B2
:100BE000088010BD10B53DA007F0F7F901201549A8
:100BF000088010BD10B542A007F0EFF9022011499E
:100C0000088010BD10B547A007F0E7F900200E4995
:100C1000088010BD10B54BA007F0DFF901200A498C
:100C2000088010BD10B54FA007F0D7F90220064983
:100C3000088010BD280000201600002018000020A9
:100C4000040008081A0000201C0000205061726196
:100C50006D6574657273576174657253637265650F
:100C60006E5F496E646F6F720D0A000050617261B1
:100C70006D657465727357617465725363726565EF
:100C80006E5F4F7574646F6F720D0A005061726110
:100C90006D657465727357617465725363726565CF
:100CA0006E5F45787472656D65436F6E64697469D3
:100CB0006F6E0D0A00000000506172616D65746511
:100CC0007273576174657253637265656E5F4C65CC
:100CD000737332306F430D0A00000000506172617F
:100CE0006D6574657273576174657253637265657F
:100CF0006E5F32306F435F33306F430D0A00000088
:100D0000506172616D657465727357617465725379
:100D1000637265656E5F4D6F726533306F430D0AA8
:100D200000000000506172616D65746572735761F7
:100D300074657253637265656E5F536F66740D0AF6
:100D400000000000506172616D65746572735761D7
:100D500074657253637265656E5F486172640D0AF3
:100D600000000000506172616D65746572735761B7
:100D700074657253637265656E5F5665727948611A
:100D800072640D0A0000000038B5FE484FF6FF738C
:100D90002022D2210090012006F0F4FE0446FA48F9
:100DA00005F0C5FCF84B2246F021FA2005F04BF97E
:100DB00038BD08B5F5A007F010F9FFF7E5FF0020F2
:100DC00007F09DFD4FF6FF702023D222F021009006
:100DD000FA2008F06AF9F34807F00DFDF2A020238D
:100DE000D222F0210090FA2008F0B3FB4FF6FF70FA
:100DF0001C235A220C210090142008F056F9ED48CB
:100E000007F0F9FC4FF6FF71002007F0D7FCEAA2CB
:100E100014210E2007F0FDFE00214FF6FF7007F0B1
:100E2000CDFCE04807F0E7FCE5A24FF491711420F7
:100E300007F0EFFEE6A21421FA2007F0EAFE4FF6D3
:100E40006860A023D2223C210090142008F02DF9E4
:100E500040F2FC40A023D2223C210090FA2008F06E
:100E600024F94FF66861002007F0A8FCCD4807F090
:100E7000C2FCDAA21E21502007F0CBFEDAA2AF217D
:100E8000A02007F0C6FE40F2FC41002007F096FCCF
:100E9000C44807F0B0FCD6A24FF48271502007F08E
:100EA000B8FED5A24FF4C871A02007F0B2FEB64834
:100EB0000121C26990470120D0490880B248D04939
:100EC000086008BD10B5FFF774FF10BD2DE9F843A9
:100ED000CC4800231E22D2210090012006F052FEB1
:100EE0000446C9484FF6FF731E22D221009002200B
:100EF00006F048FE0546C54800235022D221009046
:100F0000032006F03FFE0646C14800235022D221AE
:100F10000090042006F036FE0746BE48002350220B
:100F2000D2210090052006F02DFE8046BA4800230D
:100F30005022D2210090062006F024FE8146B748B8
:100F400005F0F5FBB54B2246F021FA2005F07BF8C1
:100F5000B24B2A46F021142005F075F8AF4B32460B
:100F60003C21142005F06FF8AC4B3A463C21FA20A6
:100F700005F069F8A94B42469621142005F063F864
:100F8000A64B4A469621FA2005F05DF8BDE8F883A5
:100F900008B5A3A007F021F8FFF798FF002007F09D
:100FA000AEFC4FF6FF701C235A220C210090142037
:100FB00008F07BF87F4807F01EFC4FF6FF71002019
:100FC00007F0FCFB7CA214210E2007F022FE00217A
:100FD0004FF6FF7007F0F2FB724807F00CFC72A2AC
:100FE0004FF4BE71142007F014FED22350223C218E
:100FF000142007F057FFD22350223C21FA2007F09B
:1010000051FFD22350229621142007F04BFFD22308
:1010100050229621FA2007F045FF4FF6FF701E235D
:10102000D222F0210090142008F03FF8D2231E2293
:10103000F021FA2007F036FF00214FF6FF7007F08D
:10104000BDFB584807F0D7FB7BA05023D2223C21A0
:101050000090142008F07DFA7AA05023D2223C217F
:101060000090FA2008F075FA79A05023D222962138
:101070000090142008F06DFA78A05023D222962117
:101080000090FA2008F065FA78A01E23D222F02101
:101090000090FA2008F05DFA4FF6FF71002007F08B
:1010A0008DFB75A01E23D222F0210090142008F0A1
:1010B00050FA5A480121C269904702204F490880DE
:1010C00056484F49086008BDF8B56F484FF6FF73A2
:1010D0001E22D2210090012006F054FD04466B48E8
:1010E0004FF6FF731E22D2210090022006F04AFD27
:1010F0000546674800234622D2210090032006F0CF
:1011000041FD0646634800234622D2210090042078
:1011100006F038FD0746604805F009FB5E4B2246A5
:10112000F021FA2004F08FFF5B4B2A46F0211420B7
:1011300004F089FF584B3246AA21142004F083FFA3
:10114000554B3A46AA21FA2004F07DFFF8BD08B5B8
:1011500052A006F042FFFFF7B7FF002007F0CFFBD9
:101160004FF6FF701C235A220C210090142007F028
:101170009CFF104807F03FFB4FF6FF71002007F07F
:101180001DFB9DE0DD080008F80100204372656149
:1011900074655F537461727453637265656E0D0A92
:1011A00000000000E400002053455454494E4753CA
:1011B00000000000DC0000205449544C45000000B1
:1011C00043484155205048554F4320565500000094
:1011D00042414348204B484F4100000043484C4F98
:1011E00052494E45000000006D672F6C0000000062
:1011F00050482D2D00000000704800002C000020F9
:1012000028000020ED080008EF080008FF0800088B
:101210000F09000811090008630900089C0200205A
:101220004372656174655F53657474696E67735367
:10123000637265656E0D0A00504152414D4554453B
:101240005253000043414C4942524154494F4E00D1
:10125000444F53494E472054455354005459504528
:10126000204F462050524F42450000004C414E470F
:1012700055414745530000004241434B20544F2005
:101280005354415254000000650900087B090008CE
:1012900091090008A109000840030020437265611C
:1012A00074655F446F73696E6754657374537461DA
:1012B0007274537461727453637265656E0D0A00C3
:1012C000AFF20C1214210E2007F0A3FC00214FF600
:1012D000FF7007F073FAFE4807F08DFAAFF2900244
:1012E0004FF4AA71142007F094FC4FF66860642351
:1012F000D2223C210090142007F0D7FE40F2FC409F
:101300006423D2223C210090FA2007F0CEFE4FF653
:101310006861002007F052FAED4807F06CFAEDA280
:101320001E21462007F075FC40F2FC41002007F02A
:1013300045FAE74807F05FFAAFF244124FF48271C2
:10134000462007F066FC4FF6FF701E23D222F021E4
:101350000090142007F0A9FE4FF6FF701E23D22242
:10136000F0210090FA2007F0A0FE4FF6686007F029
:1013700036FAD2233C22AA21142007F093FD40F232
:10138000FC4007F02CFAD2233C22AA21FA2007F0D5
:1013900089FDCF4807F02FFA00214FF6FF7007F0C4
:1013A0000DFAAFF224103C23D222AA21009014207F
:1013B00008F0CFF8AFF238103C23D222AA210090D7
:1013C000FA2008F0C6F84FF6FF71002007F0F6F992
:1013D000C2A01E23D222F0210090FA2008F0B9F812
:1013E000AFF26C101E23D222F0210090142008F0DE
:1013F000B0F8BC480121C26990470320BA4908806F
:10140000B848BA49086008BDF8B5B9484FF6FF7347
:101410001E22D2210090012006F0B4FB0446B548FC
:101420004FF6FF731E22D2210090022006F0AAFB85
:101430000546B14800233C22D2210090032006F04B
:10144000A1FB0646AD4800233C22D2210090042097
:1014500006F098FB0746AA4805F069F9A84B224612
:10146000F021FA2004F0EFFDA54B2A46F0211420CC
:1014700004F0E9FDA24B3246AA21142004F0E3FD5A
:101480009F4B3A46AA21FA2004F0DDFDF8BD08B5CD
:101490009CA006F0A2FDFFF7B7FF002007F02FFA8F
:1014A0004FF6FF701C235A220C210090142007F0E5
:1014B000FCFD9D4807F09FF94FF6FF71002007F0F3
:1014C0007DF9AFF20C3214210E2007F0A2FB0021AF
:1014D0004FF6FF7007F072F97D4807F08CF9AFF214
:1014E00090224FF4AA71142007F093FB4FF6686026
:1014F0006423D2223C210090142007F0D6FD40F254
:10150000FC406423D2223C210090FA2007F0CDFD5C
:101510006F4807F070F96FA21E21462007F079FB93
:1015200040F2FC41002007F049F97F4807F063F9D9
:10153000674807F060F9AFF240324FF482714620FD
:1015400007F067FB4FF6FF701E23D222F0210090B8
:10155000142007F0AAFD4FF6FF701E23D222F021BF
:101560000090FA2007F0A1FD4FF6686007F037F908
:10157000D2233C22AA21142007F094FC40F2FC4024
:1015800007F02DF9D2233C22AA21FA2007F08AFC89
:101590004F4807F030F900214FF6FF7007F00EF9C1
:1015A00062A03C23D222AA210090142007F0D1FF90
:1015B000AFF234303C23D222AA210090FA2007F067
:1015C000C8FF4FF6FF71002007F0F8F843A01E2374
:1015D000D222F0210090FA2007F0BBFFAFF2683072
:1015E0001E23D222F0210090142007F0B2FF4448BD
:1015F0000121C269904704203B49088040483B498B
:10160000086008BDF8B54B484FF6FF731E22D22183
:101610000090012006F0B6FA044647484FF6FF73E3
:101620001E22D2210090022006F0ACFA0546434863
:1016300000233C22D2210090032006F0A3FA0646A4
:101640003F4800233C22D2210090042006F09AFA61
:1016500007463C4805F06BF83A4B2246F021FA2049
:1016600004F0F1FC374B2A46F021142004F0EBFC87
:10167000344B3246AA21142004F0E5FC314B3A46A3
:10168000AA21FA2004F0DFFCF8BD08B52EA006F070
:10169000A4FCFFF7B7FF002007F031F94FF6FF7009
:1016A0001C235A220C210090142007F0FEFC1E4837
:1016B00007F0A1F84FF6FF71002007F07FF8AFF2B6
:1016C000085214210E2007F0A4FA00214EE0000079
:1016D000E4000020444953494E462E004241434B0A
:1016E00000000000400300202C0000202800002003
:1016F000B1090008C7090008DD090008ED09000864
:10170000E40300204372656174655F446F73696E22
:10171000675465737453746F705374617274536358
:101720007265656E0D0A0000DC00002053544F50B6
:1017300000000000FD090008130A0008290A00083B
:10174000390A0008880400204372656174655F44AB
:101750006F73696E675465737453746F7053746FED
:101760007053637265656E0D0A0000004FF6FF70DE
:1017700007F024F8FE4807F03EF8AFF22C524FF481
:10178000AA71142007F045FA4FF668606423D2224C
:101790003C210090142007F088FC40F2FC406423B8
:1017A000D2223C210090FA2007F07FFC4FF66861BE
:1017B000002007F003F8EE4807F01DF8AFF2EC0246
:1017C0001E21462007F025FA40F2FC41002006F0D9
:1017D000F5FFE74807F00FF8AFF2E4524FF48271DB
:1017E000462007F016FA4FF6FF701E23D222F02192
:1017F0000090142007F059FC4FF6FF701E23D222F0
:10180000F0210090FA2007F050FC4FF6686006F0D7
:10181000E6FFD2233C22AA21142007F043FB40F22A
:10182000FC4006F0DCFFD2233C22AA21FA2007F07C
:1018300039FBCF4806F0DFFF00214FF6FF7006F0BE
:10184000BDFFAFF218103C23D222AA210090142031
:1018500007F07FFEAFF22C103C23D222AA21009089
:10186000FA2007F076FE4FF6FF71002006F0A6FF83
:10187000AFF298101E23D222F0210090FA2007F038
:1018800068FEAFF20C601E23D222F02100901420DB
:1018900007F05FFEB7480121C26990470520B649AD
:1018A0000880B448B549086008BDF8B5B4484FF69B
:1018B000FF731E22D2210090012006F063F9044636
:1018C000B0484FF6FF731E22D2210090022006F08E
:1018D00059F90546AC4800233C22D2210090032050
:1018E00006F050F90646A94800233C22D221009078
:1018F000042006F047F90746A54804F018FFA44B5A
:101900002246F021FA2004F09EFBA14B2A46F0214A
:10191000142004F098FB9E4B3246AA21142004F0B8
:1019200092FB9B4B3A46AA21FA2004F08CFBF8BDAF
:1019300008B598A006F051FBFFF7B7FF002006F0AE
:10194000DEFF4FF6FF701C235A220C21009014205A
:1019500007F0ABFB984806F04EFF4FF6FF710020F2
:1019600006F02CFFAFF2B07214210E2007F051F9EF
:1019700000214FF6FF7006F021FF7D4806F03BFF87
:10198000AFF234724FF4AA71142007F042F94FF607
:1019900068606423D2223C210090142007F085FB6C
:1019A00040F2FC406423D2223C210090FA2007F050
:1019B0007CFB4FF66861002006F000FF6C4806F0E3
:1019C0001AFFAFF2F0221E21462007F022F940F262
:1019D000FC41002006F0F2FE654806F00CFFAFF275
:1019E000E8724FF48271462007F013F94FF6FF704A
:1019F0001E23D222F0210090142007F056FB4FF650
:101A0000FF701E23D222F0210090FA2007F04DFB38
:101A10004FF6686006F0E3FED2233C22AA21142090
:101A200007F040FA40F2FC4006F0D9FED2233C22F7
:101A3000AA21FA2007F036FA4D4806F0DCFE002114
:101A40004FF6FF7006F0BAFEAFF2CC703C23D22204
:101A5000AA210090142007F07CFDAFF230303C2327
:101A6000D222AA210090FA2007F073FD4FF6FF71F1
:101A7000002006F0A3FEAFF29C301E23D222F021FC
:101A80000090FA2007F065FDAFF614001E23D22265
:101A9000F0210090142007F05CFD3D480121C2694F
:101AA000904706203449088039483449086008BD09
:101AB000F8B542484FF6FF731E22D2210090012054
:101AC00006F060F804463E484FF6FF731E22D2210E
:101AD0000090022006F056F805463A4800235022AE
:101AE000D2210090032006F04DF806463648002328
:101AF0005022D2210090042006F044F807463348D3
:101B000004F015FE314B2246F021FA2004F09BFA36
:101B10002E4B2A46F021142004F095FA2B4B324626
:101B20003C21142004F08FFA284B3A463C21FA203D
:101B300004F089FAF8BD08B525A006F04EFAFFF7C3
:101B4000B7FF002006F0DBFE4FF6FF701C235A2281
:101B50000C210090142007F0A8FA174806F04BFE5D
:101B60004FF6FF71002006F029FEAFF6B4123DE0FB
:101B7000E4000020880400202C0000202800002021
:101B8000490A00085F0A0008750A0008850A00086B
:101B90002C0500204372656174655F446F73696E44
:101BA0006754657374537461727453746F705363C4
:101BB0007265656E0D0A0000DC000020950A0008C1
:101BC000A50A0008B50A0008C50A0008D0050020CB
:101BD0004372656174655F506172616D65746572B1
:101BE0007353637265656E0D0A00000014210E20A8
:101BF00007F00FF800214FF6FF7006F0DFFDFE48FA
:101C000006F0F9FDAFF6D01240F26311142007F090
:101C100000F8D22350223C21142007F043F9D223AC
:101C200050223C21FA2007F03DF94FF6686050231E
:101C3000D22296210090142007F037FA40F2FC409F
:101C40005023D22296210090FA2007F02EFA00218C
:101C50004FF6FF7006F0B2FD4FF66861002006F007
:101C6000ADFDE6A05023D22296210090142007F06B
:101C700070FC40F2FC41002006F0A0FDAFF6882089
:101C80005023D22296210090FA2007F062FC4FF6F2
:101C9000FF701E23D222F0210090142007F005FAD5
:101CA0004FF6FF701E23D222F0210090FA2007F099
:101CB000FCF9D14806F09FFD00214FF6FF7006F0B9
:101CC0007DFDD2A05023D2223C210090142007F0A9
:101CD00040FCD0A05023D2223C210090FA2007F0F3
:101CE00038FC4FF6FF71002006F068FDAFF214607B
:101CF0001E23D222F0210090FA2007F02AFCAFF632
:101D000088201E23D222F0210090142007F021FC0D
:101D10004FF6FF71002006F051FDC0480121C26955
:101D200090470720BE490880BC48BE49086008BDEE
:101D30002DE9F843BC484FF6FF731E22D2210090D4
:101D4000012005F01FFF0446B8484FF6FF731E221E
:101D5000D2210090022005F015FF0546B44800236B
:101D60003C2264210090032005F00CFF0646B14898
:101D700000233C2264210090042005F003FF074665
:101D8000AD4800233C22D2210090052005F0FAFE48
:101D90008046AA4801236422D2210090062005F043
:101DA000F1FE8146A64804F0C2FCA54B2246F02174
:101DB000FA2004F048F9A24B2A46F021142004F03E
:101DC00042F99F4B3246AA21142004F03CF99C4B67
:101DD0003A46AA21822004F036F9994B4246AA21BC
:101DE000FA2004F030F9964B4A463C21FA2004F0E0
:101DF0002AF9BDE8F88308B592A006F0EEF8FFF7DF
:101E000097FF002006F07BFD4FF6FF701C235A223F
:101E10000C210090142007F048F9924806F0EBFCE2
:101E20004FF6FF71002006F0C9FCAFF67442142192
:101E30000E2006F0EEFE00214FF6FF7006F0BEFC0D
:101E40006D4806F0D8FC88A24FF49171142006F07A
:101E5000E0FE4FF243406423D2223C210090142044
:101E600007F023F945F2AA206423D2223C210090F6
:101E7000FA2007F01AF9604806F0BDFC7EA21E2188
:101E8000462006F0C6FE5C4806F0B5FC7DA2FF21A8
:101E9000462006F0BEFE4FF6FF701E23D222F02130
:101EA0000090142007F001F94FF6FF701E23D22294
:101EB000F0210090FA2007F0F8F84FF6FF7006F0D6
:101EC0008EFC64233C22AA21142006F0EBFF64233D
:101ED0003C22AA21822006F0E5FFD2233C22AA213F
:101EE000FA2006F0DFFF5F4806F085FC00214FF680
:101EF000FF7006F063FC68A03C236422AA210090D6
:101F0000142007F026FB65A03C236422AA21009040
:101F1000822007F01EFB384806F06DFC60A03C23D1
:101F2000D222AA210090FA2007F013FB4FF6FF718E
:101F3000002006F043FCAFF65C001E23D222F02105
:101F40000090FA2007F005FBAFF6D4401E23D22202
:101F5000F0210090142007F0FCFA4FF6FF710020EA
:101F600006F02CFC36480121C269904708202C4914
:101F7000088033482B49086008BD2DE9F8434948DB
:101F80004FF6FF731E22D2210090012005F0FAFDCA
:101F9000044645484FF6FF731E22D22100900220CE
:101FA00005F0F0FD0546414800233C2264210090E5
:101FB000032005F0E7FD06463D4800233C2264214E
:101FC0000090042005F0DEFD07463A4800233C223D
:101FD000D2210090052005F0D5FD8046364801232A
:101FE0006422D2210090062005F0CCFD81463348C2
:101FF00004F09DFB314B63E0E40000204449534969
:102000004E46454354494F4E00000000504F4F4C40
:10201000000000005741544552000000D005002048
:102020002C00002028000020D50A0008E50A00083E
:10203000F50A0008F70A0008F90A0008FB0A000878
:10204000740600204372656174655F506172616D52
:102050006574657273566F6C756D655363726565F3
:102060006E0D0A00DC000020504F4F4C20504152B2
:10207000414D455445525300504F4F4C20564F4C04
:10208000554D450046494C54524154494F4E2050FD
:102090004552494F440000002B0000002D00000075
:1020A0004F4B00000B0B00081B0B00082B0B00080C
:1020B0002D0B00082F0B0008310B0008180700201B
:1020C0002246F021FA2003F0BEFFFE4B2A46F02103
:1020D000142003F0B8FFFB4B3246AA21142003F072
:1020E000B2FFF84B3A46AA21822003F0ACFFF54B31
:1020F0004246AA21FA2003F0A6FFF24B4A463C21B1
:10210000142003F0A0FFBDE8F88308B5EEA005F0A9
:1021100064FFFFF732FF002006F0F1FB4FF6FF707F
:102120001C235A220C210090142006F0BEFFF14817
:1021300006F061FB4FF6FF71002006F03FFBAFF6A3
:10214000887214210E2006F064FD00214FF6FF7006
:1021500006F034FBE84806F04EFBAFF2F4024FF411
:102160009171142006F055FD45F2AA206423D22275
:102170003C210090142006F098FF4FF24340642366
:10218000D2223C210090FA2006F08FFF45F2AA21CE
:102190004FF6FF7006F012FBD64806F02CFBD7A2D4
:1021A0006421782006F035FDD34806F024FBAFF219
:1021B00038121E21462006F02CFD4FF243414FF607
:1021C000FF7006F0FBFACB4806F015FBCDA24FF4EA
:1021D000A571782006F01DFDC74806F00CFBAFF294
:1021E0005C12FF21462006F014FD4FF6FF701E23FF
:1021F000D222F0210090142006F057FF4FF6FF7016
:102200001E23D222F0210090FA2006F04EFF4FF656
:10221000FF7006F0E4FA64233C22AA21142006F0A1
:1022200041FE64233C22AA21822006F03BFED223F9
:102230003C22AA21FA2006F035FEAE4806F0DBFA71
:1022400000214FF6FF7006F0B9FAAFF2B4103C234C
:102250006422AA210090142007F07BF9AFF2C41089
:102260003C236422AA210090822007F072F9A24840
:1022700006F0C1FAAFF2D8103C23D222AA21009076
:10228000FA2007F066F94FF6FF71002006F096FA83
:10229000AFF6B8301E23D222F0210090FA2007F0CA
:1022A00058F99A481E23D222F0210090142007F0FA
:1022B00050F94FF6FF71002006F080FA81480121A5
:1022C000C26990470920924908807E489149086078
:1022D00008BD2DE9F04F87B0012001F0C5F9044693
:1022E000022001F0C1F90546032001F0BDF90646C0
:1022F00089484FF6FF731E22D2210090042005F07A
:1023000041FC074685484FF6FF731E22D2210090FC
:10231000052005F037FC8046814A75A120462369D7
:10232000984781467F4A72A1204623699847824692
:102330007D4A6FA120462369984783467B4A6CA15A
:1023400028462B6998470690794A69A128462B6947
:1023500098470590774A66A128462B6998470490CC
:10236000754A63A13046336998470390734A60A168
:102370003046336998470290714A5DA1304633690F
:10238000984701906F4804F0D2F96E4B3A46F0211D
:10239000FA2003F058FE6B4B4246F021142003F064
:1023A00052FE684B4A4655214FF4877003F04BFEAE
:1023B000644B52465521880003F045FE614B5A4656
:1023C00055214FF4CD7003F03EFE5E4B8C214FF44F
:1023D0008770069A03F037FE5A4B8C214FF4AA708F
:1023E000059A03F030FE574B8C214FF4CD70049AC0
:1023F00003F029FE534BCD214FF48770039A03F06D
:1024000022FE504BCD214FF4AA70029A03F01BFE1E
:102410004C4BCD214800019A03F015FE0121201DEF
:10242000494A128850F8220040680176281D474A20
:10243000128850F8220040680176301D444A128804
:1024400050F822004068017607B0BDE8F08F08B56B
:1024500040A005F0C2FDFFF73CFF002006F04FFA58
:102460004FF6FF701C235A220C210090142006F016
:102470001CFE204806F0BFF94FF6FF71002006F061
:102480009DF9224AC03A14210E2006F0C2FB002119
:102490004FF6FF7006F092F9174806F0ACF935A236
:1024A0004FF48C71142006F0B4FB374806F0A3F902
:1024B000AFF2A8421E21372006F0ABFB33A21E214B
:1024C000782067E0180700204372656174655F50EB
:1024D0006172616D65746572734669747261746965
:1024E0006F6E506572696F6453637265656E0D0A35
:1024F00000000000DC000020E40000203135206DE9
:102500003300000030362068000000007812000818
:102510002C00002028000020410B0008730B00084D
:10252000A50B0008B50B0008C50B0008D50B00086B
:10253000E50B0008F50B0008050C0008150C000859
:10254000250C0008BC070020180000201A000020FD
:102550001C0000204372656174655F506172616D9B
:102560006574657273576174657253637265656EE5
:102570000D0A0000574154455220504152414D45EB
:1025800054455253000000000401002041564552BA
:102590004147450006F03DFBAFF288521E218720DF
:1025A00006F037FB4CA21E21962006F032FBAFF25C
:1025B0009C521E21B92006F02CFB4AA21E21C820E5
:1025C00006F027FB4A4806F016F94AA2FF213720F9
:1025D00006F01FFB49A24FF4A071372006F019FB4B
:1025E00048A2FF21782006F014FB48A24FF4A07106
:1025F000782006F00EFB47A240F28B11782006F0FF
:1026000008FB46A240F20911B92006F002FB45A2E0
:1026100040F24F11B92006F0FCFA44A240F28111B9
:10262000B92006F0F6FA4FF4784006F0D8F842A246
:102630004FF4C371372006F0ECFA41A240F2811149
:10264000462006F0E6FA4FF6FF701E23D222F02154
:102650000090142006F029FD4FF6FF701E23D222B1
:10266000F0210090FA2006F020FD4FF6FF710020C7
:1026700006F0A4F8AFF69C701E23D222F021009041
:10268000FA2006F066FF31481E23D222F021009086
:10269000142006F05EFF4FF6FF71002006F08EF862
:1026A0002B480121C26990470A202A4908802848FE
:1026B0002949086008BD2948008820B127480088BA
:1026C000401E2649088070472449088000BF2349DE
:1026D00009880029FBD1704754454D50455241545B
:1026E00055524500484152444E45535300000000A6
:1026F000F4000020696E646F6F7200006F7574647F
:102700006F6F72003C2032306F43000032302D3347
:10271000306F43003E2033306F430000736F6674A8
:102720000000000068617264000000007665727944
:10273000206861726400000065787472656D6500E0
:10274000636F6E646974696F6E0000007812000830
:10275000BC0700202C0000202800002024000020BE
:1027600001B5BDF80000F64908800846008806F06B
:1027700036F808BD01B5BDF80000F24908800846EA
:10278000008806F032F808BD10B50446204606F071
:10279000B6F810BD2DE9F04105460E4614469846A0
:1027A000E74807882046FFF7DBFF3146284605F05B
:1027B000B7FF3846FFF7D4FFBDE8F0812DE9F047B9
:1027C00006468846174600240025A146A246B14683
:1027D000C24600BF2EE0002522E0DB48007828B981
:1027E00037F814000121A940084048B1D6480078C4
:1027F00001280AD137F8140080212941084020B966
:1028000009F101001FFA80F909E04846421C1FFA4D
:1028100082F90823CA490A885146FFF7BBFF6D1C9D
:10282000CA4800788542D8D30AF101001FFA80FA1D
:10283000B146641CC64800788442CCD3BDE8F0871A
:102840002DE9F84F06468846174600240025A24683
:10285000A14600200090B246C14600BF30E00025EE
:1028600024E0B948007828B937F814000121A940BC
:10287000084048B1B4480078012809D137F814005D
:1028800080212941084018B9AE480088009002E034
:10289000AB48008800905046421C1FFA82FA02237F
:1028A000BDF800204946FFF775FF6D1CA74800786A
:1028B0008542D6D309F101001FFA80F9B246641CA3
:1028C000A34800788442CAD3BDE8F88F2DE9F041CF
:1028D00006460F4614461D46A4F12000C4B29A488D
:1028E000007810B1012834D119E0012D0BD199489D
:1028F000016897480078604301EB40023146384652
:10290000FFF75CFF0AE09348016891480078604354
:1029100001EB400231463846FFF792FF1AE0012DE5
:102920000BD18D4801688A480078604301EB400272
:1029300031463846FFF742FF0AE08748016884487D
:102940000078604301EB400231463846FFF778FFDC
:1029500000E000BF00BFBDE8F0812DE9F047074669
:102960000D461446984600267C480088411B77484F
:102970000078401E91FBF0F90BE02278434629468F
:102980003846FFF7A3FF71480078284485B2641CDD
:10299000761C207808B1012000E000204E4501D2CD
:1029A000012100E0002108400028E6D1BDE8F087C1
:1029B0002DE9F04104460D4616461F46A21B521C47
:1029C00091B2EA1B521C90B223462A4605F08BFEB8
:1029D000BDE8F0812DE9F04104460D4616461F463C
:1029E0003B4632462946204606F025FABDE8F081EE
:1029F0002DE9F04106460F4614461D4623462A4659
:102A00003946304606F04EFABDE8F08170B504460E
:102A10000D46164632462946204606F064FA70BD39
:102A2000002202600A7802604B78026802EB0322FF
:102A300002608B78026802EB03420260CB78026886
:102A400002EB0362026070477CB5044600200190EF
:102A50000090A11C6846FFF7E3FF04F10A0101A8FA
:102A6000FFF7DEFF36200107088088204FF0C241C3
:102A700008802C20C10608800DE00198205C019997
:102A80002144497800EB012085B24FF0C240058017
:102A90000198801C0190DDE900108842EDD33620BA
:102AA0000107088008204FF0C24108807CBD10B5A6
:102AB00004462548047014B1012C14D109E01020FB
:102AC00022490870182022490870254805F093FE15
:102AD0000AE008201D4908700C201D490870214893
:102AE00005F089FE00E000BF00BF10BD10B5044630
:102AF0001CB9032008F0E9FC04E0012C02D10320FA
:102B000008F0DBFC10BD10B505F0E2FD10BD10B5FE
:102B100040F20F1340F2DF120021084605F0E3FDFA
:102B200010BD2DE9F04104460D4600260027B046B1
:102B30002946204605F008FE06463046BDE8F081ED
:102B4000380000203A0000202E0000202F00002036
:102B5000300000205C0000207400002034000020C1
:102B6000DC000020F4000020D1490870097839B950
:102B700036210A07118008214FF0C242118022E05D
:102B8000CB490978012907D136210A07118068212C
:102B90004FF0C242118016E0C5490978022907D1D9
:102BA00036210A071180C8214FF0C24211800AE085
:102BB000BF490978032906D136210A071180A821C7
:102BC0004FF0C242118070472DE9F04704460D4690
:102BD000904600260027B146B246B548007818B1A5
:102BE000B348007802280FD1A146B24800782844A3
:102BF000401E83B2B04800782044401E82B229466D
:102C0000204605F070FD16E0A9480078012803D0A1
:102C1000A748007803280ED1AA46A7480078284480
:102C2000401E83B2A34800782044401E82B2294649
:102C3000204605F058FD2C20C1060880002625E01E
:102C400000271EE09D48007828B938F816000121B9
:102C5000B940084048B19948007801280BD138F8AC
:102C6000161080203841014029B9954800884FF05E
:102C7000C241088004E0934800884FF0C2410880B8
:102C80007F1C8D4800788742DCD3761C8948007809
:102C90008642D5D3BDE8F08770B505460E4614468A
:102CA000A4F12000C4B28548007810B1012818D1E1
:102CB0000BE0854801687F480078604301EB4002E3
:102CC00029463046FFF780FF0CE0804801687948CC
:102CD0000078604301EB400229463046FFF774FF5D
:102CE00000E000BF00BF70BD2DE9F04707460E466B
:102CF00014464FF000080025A946754807806C4827
:102D0000007848B9734800886B49097890FBF1F066
:102D100000F0FF09354632E06548007801280BD104
:102D20006D4800886449097890FBF1F000F0FF09D4
:102D30003D466748068022E05D48007802280CD1B5
:102D4000644800885C49097890FBF1F000F0FF09C5
:102D500059480078301A85B211E0554800780328A8
:102D60000DD15D4800885449097890FBF1F000F0DE
:102D7000FF0951480078381A85B2554806803CE072
:102D80004B48007850B92278294651480088FFF70F
:102D900083FF49480078284485B22BE044480078F6
:102DA00001280AD122784A4801882846FFF774FF93
:102DB00041480078284485B21CE03D48007802284C
:102DC0000AD12278294642480088FFF765FF3A4831
:102DD0000078281A85B20DE035480078032809D11B
:102DE00022783B4801882846FFF756FF3248007892
:102DF000281A85B2641C08F10108207808B1012066
:102E000000E00020C84501D2012100E00021084077
:102E10000028B5D1BDE8F08710B5029C10BD2DE9A2
:102E2000FC4704460D4616461F46DDF82880002064
:102E3000019000908146A11C6846FFF7F1FD04F166
:102E40000A0101A8FFF7ECFDF019401E83B205EB63
:102E50000800401E82B231462846FFF7A9FD362001
:102E60000107088088204FF0C24108802C20C1064D
:102E700008800FE00198205C01992144497800EB1B
:102E800001201FFA80F94FF0C240A0F8009001988D
:102E9000801C0190DDE900108842EBD33620010749
:102EA000088008204FF0C2410880BDE8FC87000080
:102EB00036000020300000202F0000202E000020CF
:102EC0003A000020380000205C0000207400002040
:102ED0003C00002034000020320000202DE9F74F94
:102EE00082B0834691460025002001909E480068EC
:102EF000D0F8008009F00100002830D09A4800681E
:102F00000068C71C98480068D0F80CA000BF22E0F9
:102F10000026002419E01EB9387801907F1C802615
:102F20000198304070B13AF8022B8F4B1B68DB8858
:102F30002B4499B28C4B1B689B88234498B208237E
:102F4000FFF728FC7610601CC4B298F80000A0427D
:102F5000E1DC681CC5B298F80100A842D8DC09F091
:102F6000020000282DD0804800680068C71C7E48F9
:102F70000068D0F80CA000251FE00026002416E011
:102F80001EB9387801907F1C80260198304058B1D6
:102F9000039A2A4491B20BEB040290B2FFF7C1FDF1
:102FA000AAF800000AF1020A7610601CC4B298F870
:102FB0000000A042E4DC681CC5B298F80100A842F9
:102FC000DBDC09F0040010B9B9F1080F29D166481B
:102FD00000680068C71C00251FE00026002416E0DA
:102FE0001EB9387801907F1C80260198304058B176
:102FF0005D4B1B681A8A039B2B4499B20BEB0403AD
:1030000098B20823FFF7C6FB7610601CC4B298F88C
:103010000000A042E4DC681CC5B298F80100A84298
:10302000DBDC51480068A0F804B04F4903980968F8
:10303000C88005B0BDE8F08F70B504460D4601228A
:1030400029462046FFF74AFF062229462046FFF779
:1030500045FF70BD70B5064643480068C4884248C5
:1030600000688588012E06D0022E32D0032E1DD096
:10307000042E36D107E0042C01DB042000E02046BA
:10308000201A84B22EE039480088001B384949785C
:10309000401A042801DB042005E034480088001BA6
:1030A00033494978401A204484B21BE031480088F3
:1030B000401B2F490978401A042801DB042005E051
:1030C0002C480088401B2A490978401A284485B2B8
:1030D00008E0042D01DB042000E02846281A85B210
:1030E00000E000BF00BF21462846FFF7A5FF0320F0
:1030F00004F01BFA70BD10B5044614200EF0D6F88B
:10310000194908600846006808B9002010BD184930
:103110000978174A527811FB02F148000EF0C6F800
:1031200011490968C86010480068C06808B90020E3
:10313000ECE70CB90E4800E020460B49096808602E
:103140000020094909680882202007490968087297
:103150000120DBE770B504460D46062229462046CD
:10316000FFF7BCFE70BD00004000002034000020CE
:1031700044000020320000202DE9F04104460D46B5
:1031800016461F46601B82B2002339462846FFF7C9
:1031900021FC601B82B2002331462846FFF71AFC4F
:1031A000F01B82B2012339462846FFF713FCF11BBE
:1031B0008AB2611E88B201233946FFF70BFCBDE8D5
:1031C000F0812DE9F04707460C4690461D46DDF894
:1031D000209000262B46424621463846FFF7CCFF7A
:1031E0004846FFF7BDFA01260AE03B1B9B1E9AB238
:1031F000AB1999B2631C98B20023FFF7EBFB761C66
:10320000A8EB0500B042F0D8BDE8F0872DE9F04109
:1032100005460E461446984602272A1B91B2321BD9
:1032200090B22246FFF7F2FB631E9AB22B1B99B2B3
:10323000331B98B2FFF7EAFB4046FFF791FA08E02C
:10324000E31B9AB22B1B99B2331B98B2FFF7DEFB3C
:103250007F1CA742F4D3BDE8F0812DE9F04F85B083
:1032600004460D4617461E460020049080468146BF
:1032700082460390029083460190B54208D1BC4239
:1032800006D10823214628460E9AFFF783FAA1E0CB
:10329000BC4221D1B54202DDB0462E46454601234F
:1032A000214628460E9AFFF775FA681C1FFA80F926
:1032B00009E00223214628460E9AFFF76BFA09F12E
:1032C00001001FFA80F9B145F3DB042321463046A3
:1032D0000E9AFFF75FFA7DE0B54219D1BC4202DDDC
:1032E000B846274644460E98A5F1020C1FFA8CF307
:1032F000A6F1010C1FFA8CF2A4F1010C1FFA8CF15B
:10330000A7F1010C00901FFA8CF0FFF75AFF61E063
:10331000BC4201DDE01B00E0381BB54201DDA91B0A
:1033200000E0711B884201DD012000E000200490D4
:10333000049828B1A0462C464546B846374646462E
:10334000B54205DDA0463C464746B0462E464546BA
:10335000701B80B20390BC4201DDE01B00E0381B13
:1033600080B202900399491C484200EBD071491089
:103370000FFA81FBA246BC4202DA0120019002E072
:103380004FF0FF300190A94622E0049830B10823A5
:10339000494650460E9AFFF7FDF905E008235146CD
:1033A00048460E9AFFF7F6F9029858440FFA80FB48
:1033B000BBF1000F08DB019850441FFA80FA039814
:1033C000ABEB00000FFA80FB09F101001FFA80F956
:1033D000B145DADD05B0BDE8F08F70B504460D46A5
:1033E000A4F11E0188B200233C222946FFF7F2FA1D
:1033F000A5F11E0081B201233C222046FFF7EAFA24
:1034000070BD2DE9F04104460E4615461F46DDF815
:103410001880A01B83B2E81B82B221462846FFF722
:10342000C7FA4046FFF710FBFE4A1288521E91B2BF
:10343000FD4A1288521E90B2FA4A1388FA4A12883C
:10344000FFF7B6FABDE8F0812DE9F04104460F46DA
:103450001546002638460EF0CAF8691E884203D287
:1034600038460EF0C4F800E0681E06463EB132460B
:10347000394620460EF070F90020A05501E00020EA
:103480002070BDE8F081014609B900207047012095
:1034900081F8310000BFF9E72DE9FF410646884673
:1034A00017460024002536200DF000FF0446F4B135
:1034B00026802E224146A01CFFF7C6FF9DF80C0077
:1034C00084F83000BDF82800608684F83470204607
:1034D000FFF7D9FF18200DF0E9FE05461DB16C601D
:1034E0000420287403E020460DF00FFF0024284636
:1034F00004B0BDE8F081014609B900207047002002
:1035000008770120487700BFF8E72DE9F04106462B
:10351000884617460025002424200DF0C7FE0446E7
:10352000DCB12680C148A060C148606010224146DD
:1035300004F10C00FFF788FF27622046FFF7DBFF4E
:1035400018200DF0B3FE05461DB16C6001202874F3
:1035500003E020460DF0D9FE00242846BDE8F081A6
:10356000014609B900207047002081F8250001209C
:1035700081F8260000BFF6E72DE9F04106468846AF
:103580001746002400252C200DF090FE0446DCB1E7
:1035900026801922414604F10C00FFF755FFA5488B
:1035A000A060A5486060A7622046FFF7D9FF1820F9
:1035B0000DF07CFE05461DB16C600320287403E00D
:1035C00020460DF0A2FE00242846BDE8F081014609
:1035D00009B900207047012048769848486098480B
:1035E0008860002008760120F4E72DE9F0410446C8
:1035F000884617460025002614B16088032802D1AA
:103600000020BDE8F08120200DF050FE0546F5B108
:103610002C600C22414605F10C00FFF715FFEF610D
:1036200018200DF043FE06466EB17560022030741E
:103630002846FFF7CCFF6188201D40F82160608894
:10364000401C608003E028460DF05FFE00253046F8
:10365000D7E7014609B90020704700204880AFF243
:10366000750008610120F7E770B5054600241420B5
:103670000DF01CFE04461CB125802046FFF7E9FF33
:10368000204670BD014609B9002070474FF6FF7013
:10369000088010204880002008760120F5E72DE9F9
:1036A000F04104460F461646002514B1A08A0A28A8
:1036B00002D10020BDE8F08120200DF0F7FD054685
:1036C000BDB16C601022394605F10800FFF7BCFE61
:1036D000EE612846FFF7D6FFA18A04F1180040F8F2
:1036E0002150A08A401CA082A08A012801D1A16992
:1036F00008760120DEE7014609B9002070475148ED
:10370000486051480860012088740020087288824F
:10371000AFF2750008640120F0E770B5064600249A
:10372000002544200DF0C2FD044684B126822046C7
:10373000FFF7E1FF18200DF0B9FD05461DB16C60E3
:103740000720287403E020460DF0DFFD0024284602
:1037500070BD014609B900207047002081F82C0097
:10376000012081F82D0000BFF6E72DE9F04706465D
:103770008946174698460024002534200DF096FD12
:10378000044614B326803148A0603148606010229E
:10379000494604F10C00FFF757FE1022394604F1A8
:1037A0001C00FFF751FEC4F830802046FFF7D1FF20
:1037B00018200DF07BFD05461DB16C6005202874B6
:1037C00003E020460DF0A1FD00242846BDE8F08767
:1037D000014609B900207047002008730120487392
:1037E00000BFF8E72DE9F04706460F469046994698
:1037F000DDF820A00024002514200DF057FD04461C
:1038000044B326806760A4F80880A4F80A90C4F83E
:1038100010A02046FFF7DCFF18200DF047FD0546FD
:10382000EDB118E03400002032000020D0C40108BF
:1038300076CA010820AA010882AD01085CA301082C
:10384000BEA60108E4B00108EEB401081CD00108CE
:10385000C2D5010807E06C600620287403E020460A
:103860000DF053FD00242846BDE8F08710B504464E
:103870000CB9002010BD012084F82800FE49896899
:1038800048000DF013FD60620120F3E72DE9F047D9
:1038900006468946174698460024002530200DF03C
:1038A00005FD04462CB32680F4486060F448A0600F
:1038B0001022494604F10C00FFF7C6FD04F81C7FF6
:1038C000122060707620A07064202071E0700020CB
:1038D00060716420A071C4F810801C3C2046FFF782
:1038E000C5FF18200DF0E2FC05461DB16C600820F4
:1038F000287403E020460DF008FD00242846BDE8AA
:10390000F087014609B900207047012081F8FA03C9
:1039100000BFF9E72DE9F04707468A4690469946E9
:10392000089E002500244FF47F700DF0BFFC044674
:10393000002C35D00020A4F8F80327800722514638
:10394000A01CFFF781FD0722414604F10900FFF7A3
:103950007BFDB6F5FA7F0BDD4FF47A72494604F130
:1039600010000DF063FE4FF4FA70A4F8F80307E0BE
:103970007200494604F110000DF058FEA4F8F863F7
:103980002046FFF7BEFF18200DF090FC05461DB144
:103990006C600920287403E020460DF0B6FC00247A
:1039A0002846BDE8F087014609B90020704701208C
:1039B00081F8E30700BFF9E72DE9F05F07468A4683
:1039C00090469946DDE90A6B0025002440F2E47038
:1039D0000DF06CFC0446002C37D00020A4F8E00762
:1039E000278007225146A01CFFF72EFD07224146E3
:1039F00004F10900FFF728FDB6F57A7F0BDD4FF4DF
:103A0000FA62494604F110000DF010FE4FF47A708E
:103A1000A4F8E00707E07200494604F110000DF039
:103A200005FEA4F8E06784F8E2B72046FFF7BBFF85
:103A300018200DF03BFC05461DB16C600A2028746F
:103A400003E020460DF061FC00242846BDE8F09F0D
:103A5000F7B5064674680CB90020FEBD89A004F0D5
:103A6000BCFA01206072207AE8B1207A01281AD1CC
:103A7000E088012816D08DA004F0AFFA00250FE0F1
:103A8000BDF80A702F44BBB2BDF808707F1BBAB2F4
:103A9000BDF80610BDF80400FFF76EFB681CC5B248
:103AA000052DEDDB00BF83A004F097FA0020FEF7A0
:103AB000FEFF8CA004F091FA4FF6FF70FEF75AFE5D
:103AC00095A004F08AFA1020FEF74AFE9EA004F0AA
:103AD00084FA0120C1E707B5AAB0002028904FF46E
:103AE00000401F909FEDA40B8DED140B2A984068A9
:103AF0000F900F9810B900202DB000BD01210F9834
:103B000080F8E3179FED9C0B8DED160B9C48008809
:103B100035380E900FF0BDF9CDE9120199480088B3
:103B20003F380E900FF0B5F9CDE91C019FED960BD3
:103B300053EC102B9DED120B51EC100B0EF070FF9F
:103B4000CDE922019DED1C0B8DED200B8C480088EA
:103B500048380E900FF09DF9CDE92401894800887E
:103B600051380E900FF095F9CDE926010F98B0F875
:103B7000E0070B900FF0A4F9CDE90C019DED0C0BC3
:103B800053EC102B9DED240B51EC100B0EF0FCFFB1
:103B9000CDE918019FED7E0B53EC102B9DED260B0C
:103BA00051EC100B0EF0F0FFCDE91A010020FEF7EA
:103BB000D7FD0120FEF77BFF9FED770B53EC102B19
:103BC0009DED240B51EC100B0EF02AFFCDE90A01FC
:103BD0009DED0A0B51EC100B0FF02EF980B20E90F8
:103BE0009DED120B51EC100B0FF026F980B20D90E9
:103BF0009DED1C0B51EC100B0FF01EF980B2002351
:103C00000C90DDE90D12FEF7E5FE9DED260B51EC63
:103C1000100B0FF011F980B20E909DED120B51ECCC
:103C2000100B0FF009F980B20D909DED260B53ECAF
:103C3000102B9DED1C0B51EC100B0FF0D1FACDE9C0
:103C40000A019DED0A0B51EC100B0FF0F5F880B254
:103C500001230C90DDE90D12FEF7BCFE9FED500B29
:103C600053EC102B9DED120B51EC100B0EF0D8FE07
:103C7000CDE90A0198E000008C0000201ADA010862
:103C800048D90108696E205365744E6577526563A3
:103C900074436F6E74726F6C56697369626C6520E1
:103CA0004E6577726563740D0A000000434F4C4FF8
:103CB000520D0A00696E205365744E657752656334
:103CC00074436F6E74726F6C56697369626C6520B1
:103CD000474C5F54525545204E6577726563740DAD
:103CE0000A000000696E205365744E657752656363
:103CF00074436F6E74726F6C56697369626C652081
:103D0000474C5F464F4E545F424947204E6577729D
:103D10006563740D0A000000696E205365744E657A
:103D20007752656374436F6E74726F6C5669736912
:103D3000626C6520474C5F5768697465204E6577F3
:103D4000726563740D0A0000696E205365744E65D8
:103D50007752656374436F6E74726F6C56697369E2
:103D6000626C6520474C5F426C7565204E657772CA
:103D70006563740D0A0000000000000000000000F0
:103D8000340000203200002000000000000010403D
:103D9000000000000000264000000000000000407D
:103DA00000000000000014409DED0A0B51EC100BC8
:103DB0000FF042F880B29FEDFE0B53EC102B0E90EB
:103DC0009DED1C0B51EC100B0EF02AFECDE90A0103
:103DD0009DED0A0B51EC100B0FF02EF880B2012371
:103DE000F5A20D900E99FEF7B8FD9FEDF40B53EC84
:103DF000102B9DED220B51EC100B0EF011FE9FEDE0
:103E0000F10B53EC102BCDE908019DED080B51ECA3
:103E1000100B0FF0E5F9CDE90A019DED0A0B51EC0D
:103E2000100B0FF009F880B21FED230B53EC102B91
:103E30000E909DED200B51EC100B0FF0D1F9CDE958
:103E40000A019DED0A0B51EC100B0EF0F5FF80B24C
:103E50000123D9A20D900E99FEF77FFD0F9890F8DF
:103E6000E207012853D11FED340B53EC102B9DEDCD
:103E7000240B51EC100B0EF0D3FDCDE908019DEDA4
:103E8000080B51EC100B0EF0D7FF80B20E909DED99
:103E9000260B51EC100B0EF0CFFF80B20D909DED74
:103EA000120B51EC100B0EF0C7FF80B29FEDC70B49
:103EB00053EC102B0C909DED1C0B51EC100B0FF0E4
:103EC0008FF9CDE908019DED080B51EC100B0EF0B8
:103ED000B3FF80B20B900CA90EC9FEF769FD00205C
:103EE000FEF752FCBB480088401E80B20E90BA48D4
:103EF0000088401E80B20D90B6480388B6480288FC
:103F0000DDE90D01FEF754FD4FF6F0701F9021E042
:103F10000F981030289930F911000B900EF0B9FF6E
:103F2000CDE90C019DED160B53EC102B9DED0C0B08
:103F300051EC100B0FF012F909D20F98103028999C
:103F400030F911000E900EF0A4FFCDE9160128986B
:103F5000401C28900F98B0F8E01728988142D7D8D5
:103F60009DED1A0B53EC102B9DED260B51EC100B15
:103F70000FF036F9CDE90C019DED0C0B53EC102B35
:103F80009DED160B51EC100B0EF0FEFDCDE914016A
:103F900000202890CDE1289800287CD00020FEF752
:103FA000DFFB9DED220B51EC100B0EF045FF80B2B4
:103FB0000E9028980EF084FFCDE906019DED1A0BB6
:103FC00053EC102B9DED060B51EC100B0EF0C8FFBF
:103FD000CDE908019DED200B53EC102B9DED080B56
:103FE00051EC100B0FF0F0F8CDE90A019DED0A0B32
:103FF00051EC100B0EF020FF80B2002304220D9034
:104000000E99FEF7E7FC44F20820FEF7A9FB1FED2E
:104010009E0B53EC102B9DED240B51EC100B0EF06E
:10402000FFFCCDE90A019DED0A0B51EC100B0EF0DF
:1040300003FF80B21FEDAC0B53EC102B0E909DEDE7
:10404000220B51EC100B0FF0CBF8CDE90A019DEDDE
:104050000A0B51EC100B0EF0EFFE80B20D90289879
:104060000EF02EFFCDE906019DED1A0B53EC102B3F
:104070009DED060B51EC100B0EF072FFCDE908011F
:104080009DED200B53EC102B9DED080B51EC100B0C
:104090000FF09AF800E00EE0CDE90A019DED0A0B61
:1040A00051EC100B0EF0C8FE80B200230C90DDE93D
:1040B0000D12FEF78FFC28980A2877D10020FEF712
:1040C0004FFB9FED460B53EC102B9DED220B51EC5B
:1040D000100B0EF0A5FCCDE90A019DED0A0B51EC89
:1040E000100B0EF0A9FE80B20E9028980EF0E8FE9C
:1040F000CDE902019DED1A0B53EC102B9DED020B47
:1041000051EC100B0EF02CFFCDE904019DED200BBE
:1041100053EC102B9DED040B51EC100B0FF054F8E9
:104120001FEDE30B53EC102BCDE906019DED060BC3
:1041300051EC100B0FF054F89FED2A0B53EC102BA1
:10414000CDE908019DED080B51EC100B0FF048F87C
:10415000CDE90A019DED0A0B51EC100B0EF06CFE3F
:1041600080B201230D900F9A09320E99FEF7F5FBEC
:104170009DED160B53EC102B1CA110A80DF0ECF8C4
:104180009FED1C0B53EC102B9DED160B51EC100BFF
:104190000EF0AAFE74D29FED110B53EC102B9DED87
:1041A000220B51EC100B0EF03BFC27E0BEE00000B0
:1041B0000000000000001840300000000000000077
:1041C000000032400000000000002240000000001B
:1041D0000000F03F3400002032000020000000000A
:1041E00000004240000000000000304025342E3125
:1041F000660000000000000000408F40CDE90A0189
:104200009DED0A0B51EC100B0EF016FE80B20E90D5
:1042100028980EF055FECDE904019DED1A0B53ECE4
:10422000102B9DED040B51EC100B0EF099FECDE917
:1042300006019DED200B53EC102B9DED060B51EC70
:10424000100B0EF0C1FF9FEDFE0B53EC102BCDE9D0
:1042500008019DED080B51EC100B0EF0C1FFCDE9EC
:104260000A019DED0A0B51EC100B0EF0E5FD80B23A
:10427000012310AA0D900E99FEF76FFB56E0FFE7A1
:104280009FEDF10B53EC102B9DED220B51EC100B1D
:104290000EF0C6FB1FED2F0B53EC102BCDE90801E0
:1042A0009DED080B51EC100B0EF0BAFBCDE90A01A5
:1042B0009DED0A0B51EC100B0EF0BEFD80B20E907E
:1042C00028980EF0FDFDCDE904019DED1A0B53EC8D
:1042D000102B9DED040B51EC100B0EF041FECDE9BF
:1042E00006019DED200B53EC102B9DED060B51ECC0
:1042F000100B0EF069FF9FEDD20B53EC102BCDE9A4
:1043000008019DED080B51EC100B0EF069FFCDE993
:104310000A019DED0A0B51EC100B0EF08DFD80B2E1
:10432000012310AA0D900E99FEF717FB2898401C48
:10433000289028980A287FF62EAE00202890FDE3CA
:104340009DED180B53EC102B9DED120B51EC100B47
:104350000EF046FFCDE912010020FEF701FA1FED35
:10436000650B53EC102B9DED120B51EC100B0EF066
:1043700057FBCDE90A019DED0A0B51EC100B0EF035
:104380005BFD80B20E909DED1C0B51EC100B0EF0FE
:1043900053FD80B2012304220D900E99FEF71AFB03
:1043A0000F98B0F8E0070F286CDC289A521CA8A1DF
:1043B00010A80CF0D1FF1FED820B53EC102B9DEDDC
:1043C000120B51EC100B0EF02BFBCDE90A019DED09
:1043D0000A0B51EC100B0EF02FFD80B21FED8C0B71
:1043E00053EC102B0E909DED1C0B51EC100B0EF0AE
:1043F00017FBCDE90A019DED0A0B51EC100B0EF0F5
:104400001BFD80B2012310AA0D900E99FEF7A5FAAC
:1044100044F20820FEF7A4F99DED260B51EC100B99
:104420000EF00AFD80B21FED970B53EC102B0E908F
:104430009DED120B51EC100B0EF0F2FACDE90A01D2
:104440009DED0A0B51EC100B0EF0F6FC80B20D90B6
:104450009DED260B53EC102B9DED1C0B51EC100B1E
:104460000EF0BEFECDE90A019DED0A0B51EC100BDA
:104470000EF0E2FC80B201230C90DDE90D12FEF794
:10448000A9FA87E10F98B0F8E0070F287BDD0F98B5
:10449000B0F8E007282876DC2898401C0321B0FB00
:1044A000F1F201FB12000028EBD1289A521C68A1FE
:1044B00010A80CF051FF1FEDC20B53EC102B9DED1B
:1044C000120B51EC100B0EF0ABFACDE90A019DED89
:1044D0000A0B51EC100B0EF0AFFC80B21FEDCC0BB1
:1044E00053EC102B0E909DED1C0B51EC100B0EF0AD
:1044F00097FACDE90A019DED0A0B51EC100B0EF075
:104500009BFC80B2012310AA0D900E99FEF725FAAC
:1045100044F20820FEF724F99DED260B51EC100B18
:104520000EF08AFC80B21FEDD70B53EC102B0E90CF
:104530009DED120B51EC100B0EF072FACDE90A0151
:104540009DED0A0B51EC100B0EF076FC80B20D9035
:104550009DED260B53EC102B9DED1C0B51EC100B1D
:104560000EF03EFECDE90A019DED0A0B51EC100B59
:104570000EF062FC80B201230C90DDE90D12FEF713
:1045800029FA07E1FFE70F98B0F8E007282856DD81
:104590000F98B0F8E007462851DC2898401C00F03E
:1045A00003000028EDD1289A521C29A110A80CF074
:1045B000D3FE9FED280B53EC102B9DED120B51EC0D
:1045C000100B0EF02DFACDE90A019DED0A0B51EC0E
:1045D000100B0EF031FC80B29FED1E0B53EC102B34
:1045E0000E909DED1C0B51EC100B0EF019FACDE95D
:1045F0000A019DED0A0B51EC100B0EF01DFC80B270
:10460000012310AA0D900E99FEF7A7F944F2082095
:10461000FEF7A6F89DED260B51EC100B0EF00CFCEE
:1046200080B29FED0E0B53EC102B0E909DED120BF4
:1046300051EC100B0EF0F4F9CDE90A0112E033E071
:1046400000000000000014400000000000002040B6
:104650002564000000000000000018400000000079
:104660000000F03F9DED0A0B51EC100B0EF0E4FB47
:1046700080B20D909DED260B53EC102B9DED1C0B85
:1046800051EC100B0EF0ACFDCDE90A019DED0A0BCB
:1046900051EC100B0EF0D0FB80B201230C90DDE941
:1046A0000D12FEF797F975E02898401C0A21B0FB1F
:1046B000F1F201FB120000286CD1289A521CAFF2D3
:1046C000700110A80CF048FE1FED1E0B53EC102BD0
:1046D0009DED120B51EC100B0EF0A2F9CDE90A0181
:1046E0009DED0A0B51EC100B0EF0A6FB80B21FEDF6
:1046F000270B53EC102B0E909DED1C0B51EC100B67
:104700000EF08EF9CDE90A019DED0A0B51EC100B6C
:104710000EF092FB80B2012310AA0D900E99FEF7C5
:104720001CF944F20820FEF71BF89DED260B51EC16
:10473000100B0EF081FB80B21FED380B53EC102BE9
:104740000E909DED120B51EC100B0EF069F9CDE9B6
:104750000A019DED0A0B51EC100B0EF06DFB80B2BF
:104760000D909DED260B53EC102B9DED1C0B51EC89
:10477000100B0EF035FDCDE90A019DED0A0B51EC51
:10478000100B0EF059FB80B201230C90DDE90D12E5
:10479000FEF720F9289800287DD10F98103028992D
:1047A00030F9110003900EF074FBCDE904019DED8A
:1047B000140B53EC102B9DED040B51EC100B0EF071
:1047C000E3F9CDE906019DED1C0B53EC102B9DED9B
:1047D000060B51EC100B0EF0F7FCCDE908019DED36
:1047E000080B51EC100B0EF027FB80B20E909DEDE4
:1047F000120B51EC100B0EF01FFB80B20D909DEDD3
:104800001C0B51EC100B0EF017FB80B20C909DEDC1
:10481000180B53EC102B9DED120B51EC100B0EF0FE
:10482000FFF8CDE908019DED080B51EC100B0EF0DF
:1048300003FB80B20B90BDF87C0000900BA80FC862
:10484000FEF70BFD0F981030289930F911000190F8
:104850000EF01FFBCDE902019DED140B53EC102B64
:104860009DED020B51EC100B0EF08EF9CDE9040119
:104870009DED1C0B53EC102B9DED040B51EC100B1C
:104880000EF0A2FC1FED8B0B53EC102BCDE90601B3
:104890009DED060B00E0B2E051EC100B0EF0A0FC19
:1048A000CDE908019DED080B51EC100B0EF0C4FA98
:1048B00080B20E909DED120B51EC100B0EF0BCFA75
:1048C00080B21FED9A0B53EC102B0D909DED1C0B3D
:1048D00051EC100B0EF084FCCDE908019DED080BA6
:1048E00051EC100B0EF0A8FA80B20C909DED180B55
:1048F00053EC102B9DED120B51EC100B0EF090F8B9
:10490000CDE908019DED080B51EC100B0EF094FA67
:1049100080B20B90BDF87C0000900BA80FC8FEF78A
:104920009CFC0F981030289930F9110003900EF07C
:10493000B0FACDE904019DED140B53EC102B9DED65
:10494000040B51EC100B0EF01FF9CDE906019DEDA3
:104950001C0B53EC102B9DED060B51EC100B0EF0C5
:1049600033FCCDE908019DED080B51EC100B0EF066
:1049700063FA80B21FEDC70B53EC102B0E909DED28
:10498000120B51EC100B0EF02BFCCDE908019DED44
:10499000080B51EC100B0EF04FFA80B20D909DED0C
:1049A0001C0B51EC100B0EF047FA80B20C909DEDF1
:1049B000180B53EC102B9DED120B51EC100B0EF05D
:1049C0002FF81FEDDA0B53EC102BCDE906019DED0E
:1049D000060B51EC100B0EF003FCCDE908019DED28
:1049E000080B51EC100B0EF027FA80B20B90BDF8BB
:1049F0007C0000900BA80FC8FEF72FFCA5E10F98D4
:104A00001030289930F9110003900EF042FACDE9E8
:104A100004019DED140B53EC102B9DED040B51EC98
:104A2000100B0EF0B1F8CDE906019DED1C0B53EC17
:104A3000102B9DED060B51EC100B0EF0C5FBCDE9D4
:104A400008019DED080B51EC100B0EF0F5F980B24A
:104A50000E909DED120B51EC100B0EF0EDF980B2A3
:104A60000D902898411E0F98103030F911000390D6
:104A70000EF00FFACDE904019DED140B53EC102B51
:104A80009DED040B51EC100B0EF07EF8CDE9060104
:104A90009DED1C0B53EC102B9DED060B51EC100BF8
:104AA0000EF092FBCDE908019DED080B51EC100BC7
:104AB0000EF0C2F980B20C909DED180B53EC102B48
:104AC0009DED120B51EC100B0DF0AAFFCDE9080182
:104AD0009DED080B51EC100B0EF0AEF980B20B906F
:104AE000BDF87C0000900BA80FC8FEF7B6FB0F982E
:104AF0001030289930F9110001900EF0CAF9CDE973
:104B000002019DED140B53EC102B9DED020B51ECAB
:104B1000100B0EF039F8CDE904019DED1C0B53ECA0
:104B2000102B9DED040B51EC100B0EF04DFB9FED87
:104B3000FD0B53EC102BCDE9060100E04CE19DED9F
:104B4000060B51EC100B0EF04BFBCDE908019DED6F
:104B5000080B51EC100B0EF06FF980B29FEDF10BCA
:104B600053EC102B0E909DED120B51EC100B0EF030
:104B700037FBCDE908019DED080B51EC100B0EF051
:104B80005BF980B20D902898411E0F98103030F9D3
:104B9000110001900EF07DF9CDE902019DED140B9D
:104BA00053EC102B9DED020B51EC100B0DF0ECFFB4
:104BB000CDE904019DED1C0B53EC102B9DED040B76
:104BC00051EC100B0EF000FB9FEDD60B53EC102BAD
:104BD000CDE906019DED060B51EC100B0EF000FB2C
:104BE000CDE908019DED080B51EC100B0EF024F9F6
:104BF00080B20C909DED180B53EC102B9DED120B19
:104C000051EC100B0DF00CFFCDE908019DED080BE8
:104C100051EC100B0EF010F980B20B90BDF87C0037
:104C200000900BA80FC8FEF718FB0F9810302899BA
:104C300030F9110003900EF02CF9CDE904019DED3F
:104C4000140B53EC102B9DED040B51EC100B0DF0DD
:104C50009BFFCDE906019DED1C0B53EC102B9DED48
:104C6000060B51EC100B0EF0AFFACDE908019DEDEB
:104C7000080B51EC100B0EF0DFF880B29FEDA90B82
:104C800053EC102B0E909DED120B51EC100B0EF00F
:104C9000A7FACDE908019DED080B51EC100B0EF0C1
:104CA000CBF880B20D902898411E0F98103030F943
:104CB000110003900EF0EDF8CDE904019DED140B09
:104CC00053EC102B9DED040B51EC100B0DF05CFF21
:104CD000CDE906019DED1C0B53EC102B9DED060B51
:104CE00051EC100B0EF070FACDE908019DED080BA8
:104CF00051EC100B0EF0A0F880B20C909DED180B4B
:104D000053EC102B9DED120B51EC100B0DF088FEA7
:104D10009FED840B53EC102BCDE906019DED060BA6
:104D200051EC100B0EF05CFACDE908019DED080B7B
:104D300051EC100B0EF080F880B20B90BDF87C00A7
:104D400000900BA80FC8FEF788FA0F98B0F8E0079C
:104D5000401E289988423CD10020FDF701FD9FEDBF
:104D6000730B53EC102B9DED120B51EC100B0DF04F
:104D700057FECDE90A019DED0A0B51EC100B0EF028
:104D80005BF880B29FED6B0B53EC102B0E909DEDFA
:104D90001C0B51EC100B0DF043FE9FED680B53EC18
:104DA000102BCDE908019DED080B51EC100B0DF017
:104DB00037FECDE90A019DED0A0B51EC100B0EF008
:104DC0003BF880B201230D900F9A921C0E99FDF7CB
:104DD000C4FD2898401C28900F98B0F8E017289838
:104DE00081423FF6ADAA0020FDF761FE0120FEF7EB
:104DF00083BE2DE9F04F2DED108B89B08346002442
:104E0000002008909FED4F0BB0EE40AAF0EE60AA94
:104E10009FED4C0B8DED060BDBF8045025B909B066
:104E2000BDEC108BBDE8F08F012085F8FA034748F0
:104E30000088323886B246490988A1F148000EF050
:104E400028F841EC180B301D87B29FED420B53EC54
:104E5000102B51EC180B0EF0C3F941EC1B0B0DF0AD
:104E6000EBFF1FFA80FA394800883C381FFA80F9B6
:104E70003748008850381FFA80F8B5F8F80399FBD6
:104E8000F0F0C0B208900A2098FBF0F003900EF00A
:104E900000F841EC190B0020FDF762FC0120FDF742
:104EA00006FE51EC180B0DF0C7FF80B200234A46F6
:104EB00031460390FDF78EFD40460EF001F841ECBF
:104EC0001C0B53EC182B0EF07FF941EC1B0B0DF073
:104ED000B3FF80B20123424631460390FDF77AFDCD
:104EE0009FED1E0B53EC102B51EC180B0DF098FDA1
:104EF00041EC1B0B0DF0A0FF80B20390701D81B23E
:104F00000123AFF64C520398FDF727FD07F10B0282
:104F100091B2AAF1050290B20123AFF66452FDF7F7
:104F20001CFD35E0000000000000F03F0000000024
:104F300000003840000000000000084000000000B1
:104F4000000030400000000000000000340000209D
:104F500032000020000000000000104000000000AF
:104F60000000184005F1100131F914000DF091FF17
:104F700041EC1B0B53EC1A2B0EF0F0F807D205F1A5
:104F8000100131F914000DF084FF41EC1A0B641C80
:104F9000B5F8F803A042E5D840460DF091FF41EC8A
:104FA0001C0B53EC192B0EF01BF941EC1B0B53ECB3
:104FB0001B2B51EC1A0B0DF0E7FDCDE90601002487
:104FC000C3E00020FDF7CCFB0020FDF7C9FB204625
:104FD0000DF076FF41EC1E0B53EC192B0DF0C0FFCA
:104FE00041EC1C0B50460DF06BFF41EC1D0B53ECDC
:104FF0001C2B0EF0F5F841EC1B0B0DF01DFF80B2E1
:105000000023042239460390FDF7E4FC092C70D1FB
:1050100020460DF055FF53EC192BCDE900019DED15
:10502000000B51EC100B0DF09BFF41EC1E0B50469A
:105030000DF046FF41EC1F0B53EC1E2B0EF0D0F889
:1050400041EC1D0B9FEDFE0B53EC102B0EF0C8F83E
:1050500041EC1C0B1FED470B53EC102B0EF0C0F86E
:1050600041EC1B0B0DF0E8FE80B2039007F1280025
:1050700081B2012305F109020398FDF76EFC53ECA0
:105080001A2BAFF6986104A80CF066F99FEDEE0BB1
:1050900053EC102B51EC1A0B0DF026FF2AD22046B0
:1050A0000DF00EFF41EC1F0B53EC192B0DF058FFC8
:1050B00041EC1D0B50460DF003FF41EC1E0B53EC71
:1050C0001D2B0EF08DF841EC1C0B9FEDE10B53EC0A
:1050D000102B0EF085F841EC1B0B0DF0ADFE80B2ED
:1050E000039007F1280081B2012304AA0398FDF779
:1050F00034FC29E020460DF0E3FE41EC1F0B53EC9D
:10510000192B0DF02DFF41EC1D0B50460DF0D8FE74
:1051100041EC1E0B53EC1D2B0EF062F841EC1C0B06
:105120009FEDCB0B53EC102B0EF05AF841EC1B0B00
:105130000DF082FE80B2039007F1300081B20123AE
:1051400004AA0398FDF709FC641C0A2CFFF439AF8C
:105150000024C4E005F1100131F914000DF099FEAE
:1051600041EC1D0B9DED060B53EC102B0DF00CFDCF
:1051700041EC1C0B53EC182B0EF026F841EC1B0BEA
:105180000DF05AFE80B2039051EC180B0DF054FE56
:1051900080B20290102000900898301A401C81B212
:1051A0003046DDE90223FEF70CF80898301A86B283
:1051B0000020FDF7D5FA51EC180B0DF03DFE80B242
:1051C0000390701C81B2012304220398FDF702FCB6
:1051D000B5F8F8030F2814DC621CAFF68C3104A874
:1051E0000CF0BAF851EC180B0DF026FE801D80B2C1
:1051F0000390B01D81B2012304AA0398FDF7ADFB13
:1052000049E0B5F8F8030F2826DDB5F8F80328289B
:1052100022DC601C0321B0FBF1F201FB1200D0BBC9
:10522000621CAFF6D43104A80CF096F81FEDB50B54
:1052300053EC102B51EC180B0DF0F2FB41EC1B0B57
:105240000DF0FAFD80B20390B01D81B2012304AAD3
:105250000398FDF782FB1EE0601C00F00300D0B94C
:10526000621CAFF6144104A80CF076F81FEDC50BD4
:1052700053EC102B51EC180B0DF0D2FB41EC1B0B37
:105280000DF0DAFD80B20390B01D81B2012304AAB3
:105290000398FDF762FBB5F8F803401EA0421DD14C
:1052A0001FEDDC0B53EC102B51EC180B0DF0B8FB81
:1052B00041EC1C0B1FEDDF0B53EC102B0DF0B0FB82
:1052C00041EC1B0B0DF0B8FD80B2039006F1180005
:1052D00081B20123AA1C0398FDF73FFB641CB5F8BB
:1052E000F803A0423FF636AF0020FDF7E0FB0120B7
:1052F00095E52DE9FC5F04468A46207C082870D19C
:10530000002500264FF0000B0027002001900090A0
:10531000DFF844816068D0F82490606890F820003D
:10532000616891F91F1088420ADA606890F91F00DD
:105330000A3080B20190606890F820000930009037
:10534000606890F82000616891F91F1088420ADDBA
:10535000606890F91F00083080B20190606890F892
:10536000200009300090BAF1000F2DD1002625E071
:10537000002700251BE02FB9D8F800B008F1040879
:105380004FF400270BEA070070B122899319019AA4
:105390009A1A91B2A289123A2A4490B2FDF7C1FB3F
:1053A000A9F8000009F102097F08681CC5B22A4863
:1053B0000C380068A842DED8701CC6B226480C38EB
:1053C0004068B042D4D239E0606890F8200061684B
:1053D00091F91F10884231D06068D0F824900026DF
:1053E00027E02CE0002700251CE02FB9D8F800B0FA
:1053F00008F104084FF400270BEA070078B139F8E8
:10540000022B238903EB060C009BACEB030399B240
:10541000A389123B2B4498B20823FDF7BBF97F0800
:10542000681CC5B20C480C380068A842DDD8701C56
:10543000C6B209480C384068B042D3D800BF0DE06E
:1054400000000000000000400000000000408F400D
:10545000000000000000144098000020BDE8FC9F00
:105460002DE9F04F87B006460027002002908146C4
:1054700082468346012401908046756815B907B0BD
:10548000BDE8F08F95F82800012811D0012085F89B
:105490002800F64A1268D188F44A126890880122DE
:1054A000FDF71CFD287F18B900213046FFF721FFCA
:1054B00095F81EB00120FDF7FAFAED480690A868AD
:1054C0000590EC48049068680390287F68BB378992
:1054D000B6F80C90B6F80EA004980090381F81B270
:1054E00053464A463846FDF78CFF0EE00598621C8D
:1054F000A7EB820291B2A7EB8402009090B25346D0
:105500004A46FDF77EFF601CC4B21B2CEEDB0698FA
:10551000621CA7EB820291B2A7EB8402009090B2CA
:1055200053464A46FDF76DFFACE0287F01284DD178
:10553000D148008801904FF6FF70FDF711F9F3890B
:10554000B6F80CC0ACF1010C1FFA8CF2B6F80AC028
:10555000ACF1020C1FFA8CF13089FDF70DFEBDF89D
:105560000400FDF7FDF8B089001F87B2F089001F25
:1055700080B20290B6F80890B6F80AA00320FDF7B2
:10558000F3FA042012235246394600900698FDF79C
:1055900046FC0BE004200090A7EB840081B21223AC
:1055A00052460598FDF73BFC601CC4B21B2CF1DB96
:1055B00004200090A7EB840081B212235246049885
:1055C000FDF72DFC0020FDF7CFFA5BE0287F0228D5
:1055D00058D1A948008801904FF6FF70FDF7C0F838
:1055E000B6F80EC0ACF1050C1FFA8CF3B6F80CC07F
:1055F000ACF1060C1FFA8CF2B6F80AC0ACF1010C43
:105600001FFA8CF1B6F808C00CF1010C1FFA8CF0EF
:10561000FDF7B2FDBDF80400FDF7A2F8B089001F48
:1056200087B2F089001F80B20290B6F80890B6F8F1
:105630000AA00120FDF798FA042012234A460090A0
:1056400002990698FDF7EBFB0CE00420009002980D
:1056500000EB840081B212234A460598FDF7DFFB78
:10566000601CC4B21B2CF0DB04200090029800EBFD
:10567000840081B212234A460498FDF7D0FB002033
:10568000FDF772FA95F8200095F91F10884209D0AD
:10569000287F38B900213046FFF72BFE0121304624
:1056A000FFF727FE287FE0B90398AAF1010C1FFA43
:1056B0008CF309F1010C1FFA8CF2009095F91FC0D0
:1056C000A7EB0C0CACF10A0C1FFA8CF195F91FC07A
:1056D000A7EB0C0CACF1040C1FFA8CF0FDF791FE5B
:1056E0002FE0287F012814D10320FDF73DFA062082
:1056F0000090AAF1010082B295F91F00381A001F2C
:1057000081B214230398FDF78AFB0020FDF72CFAE1
:1057100017E0287F022814D10120FDF725FA062082
:10572000009009F1010082B295F91F3002981844E7
:10573000001D81B214230398FDF771FB0020FDF7D3
:1057400013FAE87F85F8200005F10C000BF04FFFFD
:105750008046B8F1000F24D00024287F10BB10E051
:10576000ABEBC802A7EB5202D21EA2EBC40291B26D
:1057700009F1020290B2002340A2FDF7EEF8601C8E
:10578000C4B2A8F10100A042EAD8821CA7EBC20271
:1057900091B209F1020290B2012305F10C02FDF76A
:1057A000DCF85EE0287F01282ED10320FDF7DCF92C
:1057B00012E0ABEBC802A7EB5202121DA2EBC4022F
:1057C00091B22F4A1288A2EB0A02921C90B22BA22D
:1057D000FDF78AFA601CC4B2A8F10100A042E8D823
:1057E000ABEBC802A7EB5202121D91B2244A1288F9
:1057F000A2EB0A02921C90B205F10C02FDF774FABA
:105800000020FDF7B1F92CE0287F022829D10120E2
:10581000FDF7AAF90FE0ABEBC802A7EB5203621C3D
:10582000A3EBC20291B209F1020290B213A2FDF7FA
:105830005BFA601CC4B2A8F10100A042EBD8ABEB4C
:10584000C802A7EB5203621CA3EBC20291B209F19A
:10585000020290B205F10C02FDF746FA0020FDF7B6
:1058600083F90020FDF723F9012008E6400000201D
:10587000A4D7010876D801083800002020000000D5
:105880003400002077B581B005466C6814B900205B
:1058900004B070BD0120607360680090BDF80E60B8
:1058A000F3B2BDF80C60F2B2BDF80A10BDF8080002
:1058B000FDF7A7FD0120EBE72DE9F74181B0064692
:1058C0004FF00008002774681CB9002004B0BDE840
:1058D000F081012084F8260094F8250008B9A56815
:1058E00000E065680095BDF80EC00CF0FF03BDF840
:1058F0000CC00CF0FF02BDF80A10BDF80800FDF75F
:1059000080FD0120FDF7D3F804F10C000BF06FFED1
:10591000074607B17F1E0020FCF722FFBDF80A20D2
:10592000193291B2BDF80C20D2B20F3A90B20123D5
:1059300004F10C02FDF711F80020FDF7B8F8012082
:10594000C4E72DE9F74181B007460025A8467C68E9
:105950001CB9002004B0BDE8F08101206076207EF3
:10596000012801D1666800E0A6680096BDF80EC067
:105970000CF0FF03BDF80CC00CF0FF02BDF80A10DC
:10598000BDF80800FDF73DFD0120FDF790F804F19A
:105990000C000BF02CFE804610E0BDF80820163AF3
:1059A000A2EBC50291B2BDF80C20D2B20E3A90B271
:1059B00000232022FCF7D1FF681CC5B24545ECD975
:1059C0000020FCF7CDFEBDF80820521D91B2BDF8B5
:1059D0000C20D2B20E3A90B2012304F10C02FCF773
:1059E000BCFF0020FDF763F80120B3E72DE9F74F76
:1059F00082B007460026B0467C6801254FF00009BA
:105A00004FF0000A0020019014B905B0BDE8F08FF6
:105A1000012084F82D0004F10C000BF0E8FD834612
:105A200004F11C000BF0E3FD834505D904F10C00E3
:105A30000BF0DDFD064604E004F11C000BF0D7FD81
:105A400006460120FDF733F894F82C0088B9FD498B
:105A5000A068884206D1DFF8F093D4F808A0FB488C
:105A600001901FE0DFF8E893D4F808A0F94801900E
:105A700018E094F82C00012814D1F7496068884296
:105A80000AD14DF6FB60FCF775FEDFF8C493D4F83D
:105A900004A0F048019005E0DFF8AC93D4F804A02E
:105AA000EA48019001980090BDF812C00CF0FF0385
:105AB000BDF810C00CF0FF02BDF80CC0ACF1080C32
:105AC0001FFA8CF1BDF80C00FDF79BFC18E0CDF837
:105AD00000A0BDF80CB005F1010CABEBCC0C1FFA2B
