:020000040800F2
:10000000A0100120091302088D0900088F090008BB
:1000100093090008970900089B09000800000000E8
:10002000000000000000000000000000A90200081D
:100030009F09000800000000FD02000819110208D5
:1000400023130208231302082313020823130208B0
:1000500023130208231302082313020823130208A0
:100060002313020823130208231302082313020890
:100070002313020823130208231302082313020880
:100080002313020823130208231302082313020870
:100090002313020823130208231302082313020860
:1000A0002313020823130208231302082313020850
:1000B000E3090008E5090008E7090008231302081E
:1000C0002313020823130208231302082313020830
:1000D0002313020823130208231302082313020820
:1000E0002313020823130208231302082313020810
:1000F0002313020823130208231302082313020800
:100100002313020823130208E90900082313020835
:1001100023130208231302082313020823130208DF
:1001200023130208231302082313020823130208CF
:1001300023130208A109000823130208231302084D
:1001400023130208231302082313020823130208AF
:10015000231302082313020823130208231302089F
:10016000231302082313020823130208231302088F
:10017000231302082313020823130208231302087F
:10018000231302082313020800F002F800F07CF8A1
:100190000AA090E8000C82448344AAF10107DA45E2
:1001A00001D100F071F8AFF2090EBAE80F0013F0B8
:1001B000010F18BFFB1A43F001031847C4420500A2
:1001C000E44205000A444FF0000C10F8013B13F024
:1001D000070408BF10F8014B1D1108BF10F8015BA0
:1001E000641E05D010F8016B641E01F8016BF9D193
:1001F00013F0080F1EBF10F8014BAD1C0C1B09D1EA
:100200006D1E58BF01F801CBFAD505E014F8016B5B
:1002100001F8016B6D1EF9D59142D6D370470000ED
:100220000023002400250026103A28BF78C1FBD8FF
:10023000520728BF30C148BF0B607047662923F0C2
:10024000C482642921F03A81752921F0378163291C
:1002500021F0C586002070471FB523F0ACFA9DE859
:10026000030021F0F9FB21F03DFF040000200021F4
:1002700022F01EFD401C60600020002122F002FDE3
:10028000E0601FBD10B510BD22F096F81146FFF7D3
:10029000E3FF00F034F922F0C2F803B4FFF7F2FFF5
:1002A00003BC22F0EFF800002A4B19680868B0E898
:1002B000F04F80F30988BFF36F8F4FF0000080F399
:1002C000118870470000000006480068006880F34D
:1002D000088862B661B6BFF34F8FBFF36F8F00DF40
:1002E00000BF00BF08ED00E0DFF80C00016841F43A
:1002F00070010160704700BF88ED00E0EFF30980F6
:10030000BFF36F8F134B1A681EF0100F08BF20ED5C
:10031000108A20E9F04F106008B44FF0500080F3CD
:100320001188BFF34F8FBFF36F8F1FF0E6FD4FF0C3
:10033000000080F3118808BC19680868B0E8F04F25
:100340001EF0100F08BFB0EC108A80F30988BFF3CD
:100350006F8F70474C030020EFF30580704700005B
:1003600000BFE0480078401CDE490870084600786D
:100370003B2807DDDC480078401CDB490870002082
:10038000D8490870D84800783B2807DDD74800785E
:10039000401CD64908700020D3490870D348007823
:1003A000172806DD0020D1490870CF490870CD49D3
:1003B00008704FF47A701FF08FFCD2E700BFCC4872
:1003C0000078002876D0012852D0022830D00328A7
:1003D0007BD1C8480068B0F57A6F09D21022C649AF
:1003E000012003F03DF8C3480068401CC149086083
:1003F000C2480068B0F5FA6F09D22022BE49012038
:1004000003F02EF8BD480068401CBC49086001207C
:100410001FF062FC1022B849002003F021F82022CE
:10042000B549002003F01CF803201FF055FC4DE0F7
:10043000B0480068B0F57A6F09D21022AE490120A9
:1004400003F00EF8AB480068401CAA490860012080
:100450001FF042FC1022A849002003F001F80320FD
:100460001FF03AFC2022A449002002F0F9FF2DE001
:100470001022A149002002F0F3FFA0480068B0F567
:10048000FA6F09D220229C49012002F0E9FF9B4823
:100490000068401C9949086001201FF01DFC2022C3
:1004A0009549002002F0DCFF03201FF015FC0DE051
:1004B00000E00AE010229049002002F0D1FF202243
:1004C0008D49002002F0CCFF00E000BF77E700BFBD
:1004D0000FF03FF90DF0A0F80DF079F902F0CAFB2A
:1004E000F6E710B5002010F007FE012010F004FE22
:1004F000022010F001FE032010F0FEFD10BD1CB51F
:100500004FF4E1317E480DF07BFAFFF7EAFF0DF082
:100510009FFE002008F0B9F80EF06DFF02F088FF92
:1005200002F016FF10F040FD02F093F803F0D9FD41
:1005300000F06EFB00F066FA4FF4407011F032FAF2
:1005400001F0B1FE0020012103460A02CDE90010AE
:100550006CA1AFF285001FF09AF90020012103463B
:100560000A02CDE9001069A1AFF2AF101FF08FF9B8
:100570000020012103468022CDE9001067A1AFF2DF
:100580001F201FF084F91FF082FE00BFFEE72DED53
:10059000068B00BF002002F01CFFDFED620A80EE38
:1005A000201A11EE104A204623F094F841EC1A0B61
:1005B0009FED5D0B53EC102B22F0A2FF41EC190BC9
:1005C0009FED5B0B53EC102B22F06EFC41EC180BF3
:1005D00022F084FB58490860B3EE090A02F04CFF90
:1005E0005548D0ED000A554890ED001A30EEC11A7A
:1005F000C1EE000A524890ED000A30EE600A514800
:1006000080ED000A9FED500A504880ED000A5048E6
:100610000078012805D14B4890ED000A4D4880ED47
:10062000000A4D480078012805D1484890ED000A9D
:100630004A4880ED000AC8201FF04EFBAAE700BF21
:10064000502080F31188BFF34F8FBFF36F8F00BF2F
:1006500020F04BFE0446214641A00DF07EFA00BF7B
:10066000FEE7704710B50DF0CFF810BD0EB50121B3
:10067000082012F082FC502001900020ADF800000C
:10068000ADF80800ADF8020069463A4812F061FF83
:100690000021384812F0BCFF0121364813F022FC3B
:1006A00001221146334813F0F5FB0021314812F0C6
:1006B000D9FF0EBD10B504462F480480FFF7D6FFC2
:1006C00000212C4812F08EFF01212A4812F0CAFFA7
:1006D00000BF294800880028FBD10021254812F0DE
:1006E000C1FF10BD7A0000207900002078000020B2
:1006F000880000202400002000000240200000208C
:10070000001001404C43445461736B0041637475A5
:1007100061746F725461736B00000000436C6F630F
:100720006B00000000007A442DB29DEFA7C6F93F90
:10073000DF7A2949920416C00C000020280000200E
:100740009C000020040000204992CC3E10000020B4
:10075000C8000020B8000020C9000020BC00002014
:10076000667265654865617073697A65203D20250C
:10077000640A0000000C0040300000200CB500208E
:10078000019000907648006840F480307449086019
:1007900000BF7348006800F4003000900198401CCE
:1007A0000190009818B90198B0F5A06FF1D16C488C
:1007B000006800F4003010B10120009001E000203A
:1007C00000900098012846D165484030006840F00C
:1007D00080506349403108606248006840F48040BE
:1007E000604908605E48083000685D49083108606B
:1007F0000846006840F4004008600846006840F47D
:10080000A05008605848091F0860081F006840F0A1
:100810008070091F086000BF5148006800F0007038
:100820000028F9D040F20520504908604C480830B3
:10083000006820F003004A49083108600846006853
:1008400040F00200086000BF45480830006800F032
:100850000C000828F8D10CBD10B54548006840F4DC
:100860007000434908603E48006840F001003C4980
:10087000086000203A4908310860394800683D495D
:100880000840374908603C48091D0860081F006897
:1008900020F48020091F0860002031490C310860D5
:1008A000FFF76CFF4FF0006031498039086010BDE0
:1008B00070B500200022022300240221284D0835B3
:1008C0002D6805F00C0020B1042806D0082834D18A
:1008D00007E02A4D2A4E356033E02A4D284E356018
:1008E0002FE01F4D2D1D2D68C5F380541C4D2D1D6F
:1008F0002D6805F03F0154B1224DB5FBF1F5184EBE
:10090000361D3668C6F3881605FB06F209E01B4D56
:10091000B5FBF1F5124E361D3668C6F3881605FB99
:1009200006F20F4D2D1D2D68C5F301456D1C6B00A2
:10093000B2FBF3F5124E356003E0104D104E3560FA
:1009400000BF00BF064D08352D68C5F303150E4ED8
:10095000705D0B4D2D68C540094E356070BD0000BF
:10096000003802400070004019544007003C02402B
:1009700088ED00E0FFFFF6FE103000240024F400B4
:100980003400002000127A0038000020704700BFB9
:10099000FEE700BFFEE700BFFEE700BFFEE77047CF
:1009A00008B500200090402014F07FFD012804D1FC
:1009B0006946114800681EF0ACFC402014F099FD17
:1009C0004FF4803014F095FD009848B1009838B18C
:1009D0004FF0805009490860BFF34F8FBFF36F8F0E
:1009E00008BD70477047704710B50121044813F0E7
:1009F00079FA01F0DBFD10BD4003002004ED00E0BA
:100A0000000C004000B58DB00021084617F00CFA2C
:100A10001D481CF063FE0C906FF0FF001CF05EFEA2
:100A20000B90194815381CF059FE0A9016208DF8C5
:100A3000240001208DF82500A8208DF82600C02074
:100A40008DF827009DF824009DF82510CDE90010B1
:100A50009DF826309DF827200CA104A820F0CAFCA0
:100A60000E480F4900220AABCDE9002102900BAAE3
:100A70000CA90C4818F091FD0A4818F0CEFD094861
:100A800018F01BFE0DB000BD1601A8C02020256483
:100A90002E25642E25642E2564000000D97C0108D3
:100AA0000DE80108AC03002000B5AFB001214FF004
:100AB000606012F02FFA13F059FF14F0E5FC00BF4C
:100AC00014F0E9FC0128FBD0684613F05AFF01201E
:100AD0000090002007904FF400700A9000200B90C7
:100AE0000E90119013901490159020904FF000707C
:100AF000219000112390002025902690042028901A
:100B0000C005299040122A9080012B9040122C9011
:100B100040002E900121684613F0EDFF4349086024
:100B20000121434814F0CEFC2FB000BD08B54FF4AE
:100B3000A06010F037FF3D208DF8000002208DF8F6
:100B4000010000208DF8020001208DF803006846A6
:100B500010F02DFF08BD1CB50121472012F0DAF975
:100B60000121880312F01AFA012012F040FB8E20B6
:100B7000009003208DF8050002208DF8040000206D
:100B80008DF806008DF8070069462A4811F080FFAD
:100B90000B220121274812F006F80B2202212548DA
:100BA00012F001F80B220321224811F0FCFF0B2266
:100BB0000721204811F0F7FF4FF46050009069467C
:100BC0001D4811F065FF0B2211461B4811F0EBFF89
:100BD0000B220C21184811F0E6FF0B220D211648BC
:100BE00011F0E1FF322000906946144811F050FFE7
:100BF0000B220121114811F0D6FF0B2204210F48CE
:100C000011F0D1FF0B2205210C4811F0CCFF1CBDC7
:100C100010B5FFF7A0FFFFF789FFFFF745FF034877
:100C2000006808B900BFFEE710BD000048000020C2
:100C300040000100000002400004024000080240A1
:100C4000002114E001EB41003D4A02EBC000007DB1
:100C500060B9012001EB4102394B03EBC202107570
:100C600001EB41001A4602EBC0007047491C0A29FB
:100C7000E8DB0020F9E710B5014600200FE000EBAB
:100C800040022F4B03EBC2028A4207D1002200EB45
:100C900040032B4C04EBC3031A7502E0401C0A28E6
:100CA000EDDB00BF10BD70B50646FFF7C9FF054676
:100CB0000DB9002070BD234C11E03046616820F072
:100CC00067FE58B9A0682860E0686860E068A860BE
:100CD0000020E860207C28742846EBE72468002C7C
:100CE000EBD12846FFF7C7FF0020E3E710B5044625
:100CF0002046FFF7C0FF10BD2DE9F04104460F4626
:100D00001646D4E90110884203D14FF0FF30BDE808
:100D1000F081D4E90101451AB54200DD3546A268EB
:100D2000206881182A46384620F070FDA0682844C3
:100D3000A0602846EBE70146D1E90102801A70471E
:100D4000E403002080E0020870B504467F4820F0EC
:100D5000E7FC05462A467D49204616F042FA70BD5A
:100D60002DE9F041064640F6AC51794820F09BFD54
:100D700078A1774820F03EFD78A1754820F03AFD33
:100D800078A1734820F036FD7DA1714820F032FD36
:100D900087A16F4820F02EFD90A16D4820F02AFD1C
:100DA00095A16B4820F026FD9EA1694820F022FD08
:100DB0009FA1674820F01EFD9EA1654820F01AFD06
:100DC000A2A1634820F016FDA8A1614820F012FD01
:100DD000AEA15F4820F00EFDADA15D4820F00AFDF8
:100DE000ADA15B4820F006FDBBA1594820F002FDF3
:100DF000BEA1574820F0FEFCC0A1554820F0FAFCE7
:100E0000C3A1534820F0F6FCC4A1514820F0F2FCE5
:100E10009EA14F4820F0EEFCC3A14D4820F0EAFC13
:100E2000C2A14B4820F0E6FCC6A1494820F0E2FCF4
:100E3000C8A1474820F0DEFCCCA1454820F0DAFCF0
:100E4000D1A1434820F0D6FC90A1414820F0D2FC2B
:100E5000D5A13F4820F0CEFCD9A13D4820F0CAFCE6
:100E60008AA13B4820F0C6FCD9A1394820F0C2FC39
:100E7000DBA1374820F0BEFCDFA1354820F0BAFCEA
:100E8000E2A1334820F0B6FCE3A1314820F0B2FCE7
:100E90007EA12F4820F0AEFCE3A12D4820F0AAFC53
:100EA000E3A12B4820F0A6FCE6A1294820F0A2FCF3
:100EB000E8A1274820F09EFCEDA1254820F09AFCEF
:100EC000D2A1234820F096FC70A1214820F092FC8A
:100ED000EBA11F4820F08EFCECA11D4820F08AFCFD
:100EE000EDA11B4820F086FC8CA1194820F082FC63
:100EF00087A1174820F07EFC64A1154820F07AFCF9
:100F0000EBA1134820F076FCEDA1114820F072FC13
:100F1000F0A10F4820F06EFCF2A10D4820F06AFC11
:100F2000F5A10B4820F066FCFAA1094820F062FC0C
:100F3000B1A1074820F05EFC54A1054820F05AFCFE
:100F4000FBA1034820F056FCFAE1000081E602080C
:100F5000D40600203C68746D6C3E0000203C68653F
:100F600061643E00203C7469746C653E5765622084
:100F70007365727665723C2F7469746C653E00000F
:100F8000203C6D657461206E616D653D2264657302
:100F90006372697074696F6E2220636F6E74656E20
:100FA000743D22576562736572766572222F3E002A
:100FB000203C6D657461206E616D653D226B6579C5
:100FC000776F72642220636F6E74656E743D227554
:100FD00062756E7475222F3E00000000203C6D6526
:100FE000746120636861727365743D227574662D47
:100FF00038222F3E00000000203C6D65746120689F
:101000007474702D65717569763D227265667265BE
:1010100073682220636F6E74656E743D2233223EC6
:1010200000000000203C7374796C653E00000000F5
:101030002A207B00626F782D73697A696E673A2087
:10104000626F726465722D626F783B002D6D6F7AEE
:101050002D626F782D73697A696E673A20626F72BC
:101060006465722D626F783B000000002D77656229
:101070006B69742D626F782D73697A696E673A2097
:10108000626F726465722D626F783B007D000000B4
:10109000626F6479207B0000666F6E742D66616DEF
:1010A000696C793A202248656C7665746961636180
:1010B000204E657565222C2048656C7665746961E3
:1010C00063612C20417269616C2C2073616E732DF9
:1010D00073657269663B0000666F6E742D77656993
:1010E0006768743A2033303070783B00636F6C6F00
:1010F000723A20233333333B000000006C696E6585
:101100002D6865696768743A20312E3235343B00AA
:101110006D617267696E3A20303B000070616464F3
:10112000696E673A20303B0061207B0074657874FB
:101130002D6465636F726174696F6E3A206E6F6EB5
:10114000653B0000636F6C6F723A20233362386234
:1011500062613B007472616E73666F726D3A2061FA
:101160006C6C20302E35733B000000002D6D6F7AC3
:101170002D7472616E73666F726D3A20616C6C20B3
:10118000302E35733B0000002D7765626B69742D3E
:101190007472616E73666F726D3A20616C6C203090
:1011A0002E35733B00000000613A686F7665722C43
:1011B00020613A76697369746564207B00000000E1
:1011C000636F6C6F723A20233236353737383B0005
:1011D00023636F6E7461696E6572207B000000008E
:1011E00070616464696E672D6C6566743A20313590
:1011F0003070783B00000000706F736974696F6E27
:101200003A2072656C61746976653B006C65667442
:101210003A20303B0000000077696474683A20315E
:101220003030253B00000000236D656E75207B008B
:10123000706F736974696F6E3A2066697865643B94
:10124000000000006865696768743A203130302515
:101250003B0000006261636B67726F756E642D63A3
:101260006F6C6F723A20233139313831383B0000CE
:1012700077696474683A2031353070783B0000003B
:10128000236D656E75207B7D00000000236D656E0B
:101290007520756C7B0000006C6973742D73747914
:1012A0006C652D747970653A206E6F6E653B000039
:1012B000236D656E7520756C206C69207B000000C5
:1012C0006C696E652D6865696768743A20322E39DD
:1012D000656D3B006865696768743A20322E396530
:1012E0006D3B20007472616E736974696F6E3A2091
:1012F000616C6C2031733B002D6D6F7A2D747261BF
:101300006E736974696F6E3A20616C6C2031733B47
:10131000000000002D7765626B69742D7472616E38
:10132000736974696F6E3A20616C6C2031733B0095
:10133000236D656E7520756C206C692061207B00C3
:1013400094A1984820F056FA97A1964820F052FAB6
:1013500099A1944820F04EFA9BA1924820F04AFAB5
:10136000AFF2D8218F4820F045FA9FA18D4820F098
:1013700041FAA2A18B4820F03DFAAFF2F021894852
:1013800020F038FAA4A1874820F034FAA7A18548B4
:1013900020F030FAA9A1834820F02CFAACA18148B2
:1013A00020F028FAAFF2C0117E4820F023FAAFF205
:1013B0005C117C4820F01EFAAFF23031794820F001
:1013C00019FAA5A1774820F015FA72A1754820F006
:1013D00011FAAFF24831734820F00CFAA6A1714817
:1013E00020F008FAA7A16F4820F004FAAFF26431A8
:1013F0006C4820F0FFF9A8A16A4820F0FBF9ADA1E4
:10140000684820F0F7F9AFF27C31664820F0F2F935
:10141000AEA1644820F0EEF9AFA1624820F0EAF9ED
:10142000B5A1604820F0E6F9B8A15E4820F0E2F9E5
:10143000BAA15C4820F0DEF9AFF2B031594820F093
:10144000D9F9BBA1574820F0D5F9BEA1554820F0E5
:10145000D1F9C1A1534820F0CDF9C6A1514820F0DF
:10146000C9F9AFF2D8314F4820F0C4F9C8A14D48AE
:1014700020F0C0F9C8A14B4820F0BCF9CBA14948E5
:1014800020F0B8F9AFF2FC31464820F0B3F9CCA116
:10149000444820F0AFF9CDA1424820F0ABF9CFA1EC
:1014A000404820F0A7F9D0A13E4820F0A3F9AFF2C0
:1014B00024413C4820F09EF9CFA13A4820F09AF907
:1014C000D3A1384820F096F9D5A1364820F092F9FA
:1014D000AFF24841334820F08DF9D6A1314820F0D1
:1014E00089F9BAA12F4820F085F9AFF260412D4863
:1014F00020F080F9D3A12B4820F07CF9D4A1294811
:1015000020F078F9D6A1274820F074F9DCA125480D
:1015100020F070F9DEA1234820F06CF9AFF294417D
:10152000204820F067F9DF491E4820F063F9DE49C2
:101530001C4820F05FF9DDA11A4820F05BF9DEA11C
:10154000184820F057F9DFA1164820F053F9DFA121
:10155000144820F04FF9E3A1124820F04BF9E6A11E
:10156000104820F047F9E6A10E4820F043F9EEA11B
:101570000C4820F03FF9F7A10A4820F03BF9FDA103
:10158000084820F037F9FDA1064820F033F9FDA105
:1015900002E20000646973706C61793A20626C6FDA
:1015A000636B3B00D4060020636F6C6F723A20239C
:1015B0006666663B0000000070616464696E673AAD
:1015C00020302031656D3B00626F726465722D6260
:1015D0006F74746F6D3A2031707820736F6C69642A
:1015E00020233333333B0000236D656E7520756C0B
:1015F000206C693A686F766572207B006261636B6C
:1016000067726F756E642D636F6C6F723A2023344E
:1016100035343534353B0000236D656E75202E73EF
:1016200075622D6D656E75207B00000064697370B6
:101630006C61793A206E6F6E653B0000706F736964
:1016400074696F6E3A206162736F6C7574653B00EC
:10165000746F703A20303B00236D656E7520756C99
:10166000206C693A686F766572202E7375622D6DF5
:10167000656E757B0000000023636F6E74656E7489
:10168000207B000070616464696E673A2031656D8B
:101690002038656D3B000000236865616465722C2D
:1016A000202E63616C6C2D746F2D616374696F6E95
:1016B000207B0000746578742D616C69676E3A2038
:1016C0002063656E7465723B0000000023686561ED
:1016D000646572207B7D000023686561646572200B
:1016E000236C6F676F207B666F6E742D73697A65EC
:1016F0003A343070783B7D00236865616465722000
:1017000023736C6F67616E207B000000636F6C6FEA
:10171000723A203839393761303B0000666F6E7499
:101720002D73697A653A20302E38656D3B000000D4
:101730002E63616C6C2D746F2D616374696F6E2004
:101740007B00000070616464696E673A20312E3559
:10175000656D203230253B006261636B67726F7587
:101760006E642D636F6C6F723A2023663066666616
:10177000663B0000626F726465723A2031707820B7
:10178000736F6C696420236538653865383B0000E9
:101790002E726F77207B00006F766572666C6F77B4
:1017A0003A2068696464656E3B0000006D61726791
:1017B000696E3A20312E35656D206175746F3B007E
:1017C0002E726F77202E636F6C207B00666C6F61CA
:1017D000743A206C6566743B00000000776964749D
:1017E000683A203430253B006D617267696E3A209B
:1017F00032656D3B000000002E726F77202E636F04
:101800006C3A6C6173742D6368696C64207B0000B2
:10181000666C6F61743A2072696768743B000000FF
:101820006D617267696E2D72696768743A20303B2A
:10183000000000002E726F77202E636F6C20696DA0
:1018400067207B0023666F6F746572207B00000049
:10185000666F6E742D73697A653A203835253B00C2
:10186000626F726465722D746F703A2031707820E7
:10187000736F6C696420236536653665363B0000FE
:10188000636F6C6F723A20233833383338333B0040
:1018900070616464696E673A2031656D2033656DEF
:1018A0003B000000F8420508504305083C2F7374C4
:1018B000796C653E00000000203C2F686561643E45
:1018C00000000000203C626F64793E00203C6469A7
:1018D000762069643D22636F6E7461696E65722261
:1018E0003E000000203C6469762069643D226D65FD
:1018F0006E75223E00000000203C756C3E0000002A
:10190000203C6C693E3C6120687265663D222F6810
:101910006F6D65223E486F6D65706167653C2F6134
:101920003E3C2F6C693E0000203C6C693E3C6120CF
:10193000687265663D222F73657474696E67223E16
:1019400053657474696E67733C2F613E3C2F6C69FC
:101950003E000000203C6C693E3C61206872656678
:101960003D2223223E41626F75743C2F613E3C2F25
:101970006C693E00203C2F756C3E0000203C2F64BB
:1019800069763E00203C6469762069643D22636F7D
:101990006E74656E74223E0089481FF02BFF89A18A
:1019A00087481FF027FF8CA185481FF023FF97A1D0
:1019B00083481FF01FFF9AA181481FF01BFFAFF261
:1019C00044017F481FF016FF9FA17D481FF012FFC2
:1019D000A2A17B481FF00EFFA8A179481FF00AFFC3
:1019E000B0A177481FF006FFB6A175481FF002FFAF
:1019F000BBA173481FF0FEFEC1A171481FF0FAFEA3
:101A0000C7496F481FF0F6FEC6A16D481FF0F2FEF1
:101A1000CEA16B481FF0EEFECEA169481FF0EAFE92
:101A2000D8A4214666481FF0E5FED7A164481FF000
:101A3000E1FED94962481FF0DDFEAFF2C001604807
:101A40001FF0D8FED5A15E481FF0D4FEB4495C4813
:101A50001FF0D0FED9A15A481FF0CCFEBBA15848B8
:101A60001FF0C8FEE0A5E1A155481FF0C3FE2946BE
:101A700053481FF0BFFEC4A151481FF0BBFEE74909
:101A80004F481FF0B7FEAFF20C114D481FF0B2FEE9
:101A9000E3A14B481FF0AEFEE5A149481FF0AAFEA6
:101AA000E8A147481FF0A6FEAFF2301144481FF0EE
:101AB000A1FEAFF2381142481FF09CFEAFF2441174
:101AC0003F481FF097FEE8A13D481FF093FEE9A1B3
:101AD0003B481FF08FFE3A481FF022FE07463A4669
:101AE0003749304615F07DFBBDE8F08170B50446FE
:101AF000E3481FF015FE05462A46E149204615F049
:101B000070FB70BD70B50446DE481FF009FE054647
:101B10002A46DC49204615F064FB70BD3EB50446FC
:101B20004FF40071D8481FF0BEFED8480068401C32
:101B3000D64908600846D6A1026868461FF05AFCDC
:101B40006946D1481FF056FED2A1CF481FF052FE81
:101B5000DDA1CD481FF04EFECB481FF0E1FDCA4984
:101B6000451828461EF004FFE5A1C7481FF042FEB5
:101B7000F1A1C5481FF03EFEFE481FF0D1FD05460D
:101B80002A46FC49204615F02CFBBF481FF0C8FD33
:101B900005462A46BC49204615F023FB3EBD2DE9EB
:101BA000F047ADF5BF6D074640F6B838002642460F
:101BB00007A9384615F0F7F98146B9F1000FDBE1C6
:101BC000D4060020203C6469762069643D22686563
:101BD00061646572223E0000203C6469762069647D
:101BE0003D226C6F676F223E486F6D65706167655F
:101BF0002057656253657276657220666F72207336
:101C0000797374656D3C2F6469763E00203C64698D
:101C1000762069643D22736C6F67616E223E00001E
:101C2000203C703E57656220636F6E74726F6C204B
:101C300064656D6F20666F722053544D33324634A5
:101C400078783C2F703E0000203C2F6469763E3C43
:101C5000216865616465723E00000000203C646993
:101C60007620636C6173733D2263616C6C2D746FBD
:101C70002D616374696F6E223E000000203C683362
:101C80003E4C434420776174657220636F6E7472BA
:101C90006F6C2076696120776562736974653C2F8B
:101CA00068333E00203C703E704820616E642052D4
:101CB00065646F7820636F6E74726F6C3C2F703E3A
:101CC00000000000203C2F6469763E3C2163616C7B
:101CD0006C2D746F2D616374696F6E3E000000009F
:101CE000203C64697620636C6173733D22726F7768
:101CF000222069643D22696E74726F223E000000EA
:101D0000203C6469762069643D22626F783122202C
:101D1000636C6173733D22636F6C223E00000000B0
:101D2000C04105083C6833207374796C653D2274AA
:101D30006578742D616C69676E3A63656E7465725F
:101D40003B223E70483C2F68333E00003C2F6469C4
:101D5000763E00003C68312069643D227048223E96
:101D600070483A203C7370616E207374796C653DE5
:101D700022636F6C6F723A23303039454532223E10
:101D800000000000372E30003C2F7370616E3E3C27
:101D90002F68313E0000000018420508203C6469AD
:101DA000762069643D22626F78322220636C617311
:101DB000733D22636F6C223E000000003C683320BC
:101DC0007374796C653D22746578742D616C6967F4
:101DD0006E3A63656E7465723B223E5265646F783D
:101DE0003C2F68333E000000353030003C68312025
:101DF00069643D227048223E5265646F783A203C07
:101E00007370616E207374796C653D22636F6C6FC3
:101E1000723A23303039454532223E008842050867
:101E2000203C2F6469763E3C21726F773E000000B3
:101E3000203C6469762069643D22666F6F74657228
:101E4000223E0000203C703E436F707972696768E3
:101E5000743A2043686175205068756F6320567529
:101E60003C2F703E00000000203C2F626F64793EE2
:101E700000000000203C2F68746D6C3E00000000E4
:101E80008BF0020843ED0208D40400204C0000202F
:101E9000256400003C7072653E3C62723E4E616D8E
:101EA000652020202020202020202053746174658C
:101EB00020205072696F72697479202053746163B5
:101EC0006B2020204E756D003C62723E2D2D2D2D15
:101ED0002D2D2D2D2D2D2D2D2D2D2D2D2D2D2D2D32
:101EE0002D2D2D2D2D2D2D2D2D2D2D2D2D2D2D2D22
:101EF0002D2D2D2D2D2D2D2D2D3C62723E000000FF
:101F00003C62723E3C62723E2D2D2D2D2D2D2D2DCD
:101F10002D2D2D2D2D2D2D2D2D2D2D2D2D2D2D2DF1
:101F20002D2D2D2D2D2D2D2D2D2D2D2D2D2D2D2DE1
:101F30002D2D2D2D2D0000003C62723E42203A20B6
:101F4000426C6F636B65642C2052203A20526561AD
:101F500064792C2044203A2044656C657465642CB7
:101F60002053203A2053757370656E6465643C623B
:101F7000723E000094E0020803DA0DF5BF6DBDE883
:101F8000F0871B22CDA107A81FF0E9FB88B9CCA0E0
:101F9000FEF789FE044607A80BF0DFFD3846D4E9BA
:101FA000001215F01EF9002C02D02046FEF79EFE0E
:101FB0003CE11E22C8A107A81FF0D1FB88B9C7A029
:101FC000FEF771FE044607A80BF0C7FD3846D4E9BA
:101FD000001215F006F9002CEAD02046FEF786FE26
:101FE00024E11D22C4A107A81FF0B9FB88B9C3A032
:101FF000FEF759FE044607A80BF0AFFD3846D4E9BA
:10200000001215F0EEF8002CD2D02046FEF76EFE3E
:102010000CE11822C0A107A81FF0A1FB30B907A846
:102020000BF09BFD3846FFF779FDFFE01322C1A1BD
:1020300007A81FF094FB88B9BFA0FEF734FE044642
:1020400007A80BF08AFD3846D4E9001215F0C9F84C
:10205000002CADD02046FEF749FEE7E00622BAA1EB
:1020600007A81FF07CFB18B93846FFF74BFDDDE0F1
:10207000B7A107A81FF0F2FA002844D0B6A107A81C
:102080001FF0ECFA00283ED0B1A107A81FF0E6FA35
:10209000851D0020049005900690B1A107A81FF0AF
:1020A000DDFAA0EB050A5246294604A81FF044FCBD
:1020B000A9A107A81FF0D2FA451D002001900290A7
:1020C0000390294601A81FF007FBA748016804A850
:1020D0001FF05EFC28B9A548016801A81FF058FC54
:1020E00008B1012000E0002030B93846FEF738FE84
:1020F00000209F49087005E03846FEF725FE0120C4
:102100009B49087092E00C229AA107A81FF027FBB8
:1021100018B93846FFF7EAFC88E0092299A107A818
:102120001FF01DFB28B10A2299A107A81FF017FB79
:1021300018B93846FEF714FE78E098A107A81FF0FA
:102140008DFA18B13846FEF7FFFD6FE094A107A89D
:102150001FF084FA002859D093A107A81FF07EFA37
:10216000002853D093A107A81FF078FA00284DD07B
:1021700093480078002845D1069089A107A81FF050
:102180006DFA451D88A107A81FF068FAA0EB050AA3
:102190005246294606A81FF0CFFB06A81FF051FAA9
:1021A0008849087080A107A81FF058FA00F10805B7
:1021B00080A107A81FF052FAA0EB050A5246294653
:1021C00006A81FF0B9FB06A81FF03BFA7E4908706D
:1021D00078A107A81FF042FA00F108057BA107A823
:1021E0001FF03CFAA0EB050A5246294606A81FF04C
:1021F000A3FB06A81FF025FA754908700120704955
:10220000087000BF3846FEF79FFD0FE071A0FEF793
:102210004AFD044607A80BF0A0FC3846D4E900129A
:1022200014F0DFFF14B12046FEF760FD03E000204C
:1022300007A98855761C40F2DC508642F7DB384609
:1022400014F002FD00BF98E670B58AB00646002281
:102250000121022014F07CFF041E01DA0AB070BDD7
:1022600002208DF8150050201BF031FBADF8160050
:1022700000200690102205A9204614F08DFC0028AD
:1022800000DAEBE70521204614F058FD10200990F4
:1022900008E009AA01A9204614F0C7FB0546284614
:1022A000FFF77DFCF5E708B504204FF47A730022B0
:1022B0004B4900904BA01CF0CCFB08BD4745542077
:1022C0002F53544D3332463478375F66696C6573EB
:1022D0002F53542E67696600474554202F53544DA1
:1022E0003332463478375F66696C65732F73746D6B
:1022F00033322E6A70670000474554202F53544DE7
:102300003332463478375F66696C65732F6C6F675C
:102310006F2E6A7067000000474554202F53544DBC
:102320003332463478375441534B532E68746D6CB6
:1023300000000000474554202F53544D333246349B
:1023400078372E68746D6C00474554202F200000AC
:10235000756E616D653D0000267073773D0000006D
:1023600026707377000000006400002068000020E1
:102370006C000020474554202F73657474696E67A4
:1023800000000000474554202F686F6D6500000075
:10239000474554202F6C6F67696E000070483D0000
:1023A000686F75723D000000266D696E7574653D3D
:1023B00000000000267365636F6E643D000000003E
:1023C0006000002078000020790000202F300000FD
:1023D0007A0000202F3430342E68746D6C000000B9
:1023E0004922000848545450534552564552000063
:1023F0007047704710B50121084610F08BFD10BDE5
:1024000010B50FF045FFFFF7F5FFFFF7F2FFFFF7FD
:10241000EFFF10BD0EB54FF49670019041F26800C9
:10242000ADF800000020ADF808001020ADF8020063
:1024300069467A4811F08DF80021784811F0E8F8E3
:102440000121764811F04EFD01221146734811F02A
:1024500021FD4FF47A7001902A20ADF80000002091
:10246000ADF80800ADF8020069466D4811F071F84A
:1024700000216B4811F0CCF80121694811F032FDC0
:1024800001221146664811F005FD0021634811F054
:10249000E9F80021624811F0E5F800214FF0804092
:1024A00011F0E0F80EBD10B50121022010F065FD1D
:1024B0000121042010F061FD10BD10B5FFF7F3FFFE
:1024C000FFF7A8FF10BD08B51D208DF80000002003
:1024D0008DF801008DF8020001208DF80300684698
:1024E0000FF065FA1E208DF8000002208DF8010023
:1024F0008DF8020001208DF8030068460FF057FAAE
:1025000008BD10B50446474804800021444811F036
:1025100069F80121424811F0A5F800BF4148008840
:102520000028FBD100213E4811F09CF810BD38B5C1
:1025300004463C4804801E208DF8000000208DF8E1
:1025400001008DF8020001208DF8030068460FF0AD
:102550002EFA0121324811F0C5FC0021304811F05B
:1025600041F801212E4811F07DF800BF2D48008868
:102570000028FBD100212A4811F074F81E208DF8A4
:10258000000002208DF801008DF8020001208DF876
:10259000030068460FF00BFA38BD2248008820B1CE
:1025A00020480088401E1F49088070471E48008848
:1025B00020B11D480088401E1B49088070471CB58B
:1025C0000121042010F0EAFC00208DF804008DF8B1
:1025D0000700802000906946144810F059FA1CBD8D
:1025E00010B5044601210D4811F07CFC21460B4832
:1025F00010F0F8FF0121094811F034F810BD10B5B2
:102600000021064811F02EF810BD4FF0E0200069BF
:1026100020F003004FF0E021086170470004004003
:102620000008004070000020300000200008024038
:10263000014600200A6890B27047014600200868F1
:102640007047014600200A6890B20A2800DD002089
:10265000704700B5DF48FFF7F4FFDF490870DD4839
:102660005C38FFF7EEFFDD490870DA485A38FFF7AB
:10267000E8FFDB490870D7485638FFF7E2FFD94931
:102680000870D4485838FFF7DCFFD7490870D148A4
:102690000E38FFF7CDFFD5490870CE480C38FFF74C
:1026A000C7FFD3490870CB485438FFF7C1FFD14961
:1026B0000880C8485238FFF7BBFFCF490880C5489B
:1026C0001038FFF7B5FFCD490880C248001DFFF75D
:1026D000AFFFCB490870BF48801DFFF7A9FFC9496C
:1026E0000870BC480830FFF7A3FFC7490870B94815
:1026F0005038FFF7A2FFC549086008460068401C33
:1027000028B99FEDC30AC34880ED000A05E0BF4821
:1027100090ED000ABF4880ED000AAE484038FFF750
:102720008CFFBA49086008460068401C28B9B6EE1C
:10273000000AB94880ED000A05E0B44890ED000AAF
:10274000B54880ED000AA3483038FFF776FFAF495F
:10275000086008460068401C28B99FEDAD0AAF48E4
:1027600080ED000A05E0A94890ED000AAB4880ED35
:10277000000A98482038FFF760FFA449086008461F
:102780000068401C28B9B6EE000AA54880ED000A92
:1027900005E09E4890ED000AA14880ED000A8D48B2
:1027A0006038FFF745FF9F4908808A485E38FFF789
:1027B0003FFF9D4908808D48007840B29B490870D2
:1027C0008B48007840B29A49087096480088994929
:1027D000088095480088984908808648008897496D
:1027E0000880854800889649088084480088954973
:1027F00008808A4890ED000A934880ED000A8848D6
:1028000090ED000A914880ED000A00BD10B511F06E
:102810007FFEF32012F095F80221402011F0C4FE53
:10282000082801D0012010BD7E4801886948603821
:1028300011F08CFF082801D00120F4E77A480188C4
:1028400064485E3811F082FF082801D00120EAE7D1
:10285000624801785F485C3811F078FF082801D0A1
:102860000120E0E75E4801785A485A3811F06EFFBF
:10287000082801D00120D6E75B4801785548583830
:1028800011F064FF082801D00120CCE755480178F9
:102890005048563811F05AFF082801D00120C2E7ED
:1028A000544801884B48543811F050FF082801D093
:1028B0000120B8E7504801884648523811F046FFD9
:1028C000082801D00120AEE7524890ED000A4F4899
:1028D00080ED000A01683F48503811F00EFF0828CB
:1028E00001D001209FE74C4890ED000A474880ED59
:1028F000000A01683748403811F0FFFE082801D06F
:10290000012090E7454890ED000A404880ED000A1C
:1029100001683048303811F0F0FE082801D001205D
:1029200081E73F4890ED000A384880ED000A0168D1
:102930002848203811F0E1FE082801D0012072E774
:102940002E4801882348103811F000FF082801D0D4
:10295000012068E7254801781E480E3811F0F6FE80
:10296000082801D001205EE72148017819480C3879
:1029700011F0ECFE082801D0012054E71648017838
:10298000144811F0E3FE082801D001204BE71C4851
:1029900001781048001D11F0D9FE082801D001204F
:1029A00041E7184801780B48801D11F0CFFE082838
:1029B00001D0012037E7144801780648083011F0AB
:1029C000C5FE082801D001202DE711F0AEFD002042
:1029D00029E7000060000808890000208A00002024
:1029E0008B0000208D0000208C0000208E00002035
:1029F0008F00002094000020960000209800002006
:102A000078000020790000207A0000207400002067
:102A10006666C6409C000020A0000020A4000020A4
:102A2000A80000209000002092000020AC000020B0
:102A3000AD000020AE000020B0000020B200002059
:102A4000B4000020B6000020C0000020C400002018
:102A500010B50246012341B1002004E003FB02F45B
:102A6000A3B2441C20B28842F8DB184610BD2DE901
:102A7000FF5F91461C46DDF83880B8F10A0F12D28C
:102A8000DFE808F00F111105060D0A0B080700BF5B
:102A900000BF00BF042507E000BF062504E00325B2
:102AA00002E0012500E000BF00BF04EB050A50462C
:102AB0001EF04AFC064600226119491E7254B8F104
:102AC0000A0F6FD2DFE808F06C6E6E051263394EA4
:102AD0002C1F6C216019801E31546D216019C01E9D
:102AE000315420216019001F31545CE033216019FA
:102AF000801E31546D216019C01E3154202160198F
:102B0000001F31544FE043216019801E31546F2162
:102B10006019C01E315420216019001F315442E059
:102B200056216019801E31546D216019C01E315428
:102B300020216019001F315435E06C216019801E7E
:102B400031542F216019C01E315467216019001FB4
:102B500031546D216019401F315420216019801FAC
:102B6000315420E068216019801E31542F216019F2
:102B7000C01E315467216019001F31546D21601946
:102B8000401F315420216019801F31540BE068210F
:102B90006019801E315420216019C01E315402E09A
:102BA00001E0FFE700BF00BF002713E0E01B81B298
:102BB0000A20FFF74DFF99FBF0F100FB119BE01B92
:102BC000401E81B20A20FFF743FF9BFBF0F030303C
:102BD000F0557F1CA742E9DB3246DDE900010BF02E
:102BE000D8FD30461EF0DFFBBDE8FF9F2DE9F05F0A
:102BF0002DED028B82468B46B0EE408AF0EE608A65
:102C000016461F46DDF83080B8F1000F04D0B8F149
:102C1000020F03D1042502E0012500E000BF00BF40
:102C2000F019401C00EB050948461EF08DFB0446D8
:102C3000B8F1000F09D0B8F1020F0DD153EC182BE9
:102C4000FEA120461EF0D6FB07E053EC182BFEA198
:102C500020461EF0CFFB00E000BF00BF22465946D1
:102C600050460BF096FD20461EF09DFBBDEC028BFE
:102C7000BDE8F09F00B52DED028B83B0F4480088CD
:102C800021287DD2DFE800F07C11FDFEFBFA7CF903
:102C9000F8F7F6F5F4F3F2F1F0EFEEEDECEBEAE92C
:102CA000E8E7E6E5E4E3E2E1E00000214FF6FF704B
:102CB0000BF044FBE7480BF05EFBE7480078009020
:102CC000E6480378E6480278E6A101A81EF092FBE8
:102CD00001AA822114200BF05CFDE548007830B198
:102CE000012834D0022852D0032879D163E04FF66E
:102CF000686100200BF022FBDE480BF03CFBDE4855
:102D0000006820F0E7FC41EC180B002001231A4674
:102D1000B0EE480AF0EE680A642100908220FFF7C6
:102D200065FFCC480BF027FBD348006820F0D2FCAD
:102D300041EC180B002001231A46B0EE480AF0EED1
:102D4000680AAA2100905020FFF750FF49E04FF693
:102D5000686100200BF0F2FAC6480BF00CFB002073
:102D600003230090C548028864218220FFF77FFE7C
:102D7000B8480BF000FB082003230090BF4800E098
:102D8000C5E2028887215020FFF771FE29E04FF647
:102D9000686100200BF0D2FAB6480BF0ECFA002084
:102DA0000090B74890F9000082B20223642182208B
:102DB000FFF75DFE15E045F2AA2100200BF0BEFAF8
:102DC000AC480BF0D8FA00200090AE4890F9000013
:102DD00082B2022364218220FFF749FE01E0FFE76F
:102DE00000BF00BF40F2FC4100200BF0A7FAA14851
:102DF0000BF0C1FAA448006820F06CFC41EC180B01
:102E0000002001231A46B0EE480AF0EE680A4FF49B
:102E1000A57100908220FFF7E9FE8E480BF0ABFA17
:102E20009948006820F056FC41EC180B0020012363
:102E30001A46B0EE480AF0EE680A4FF4C8710090E6
:102E40005020FFF7D3FE63E22CE2F3E1F1E1B8E1B9
:102E5000B6E182E180E15AE134E14BE2B4E0B2E074
:102E600051E24FE24DE24BE249E247E244E244E202
:102E700097E084E04AE25CE05AE046E23BE225E289
:102E800000E041E24FF6686100200BF057FA794804
:102E90000BF071FA032000907C48D0ED000A7C48CA
:102EA00090ED000AB8EE400A20EE800ABCEEC00A9F
:102EB00010EE100A82B2032355217820FFF7D7FDC8
:102EC00064480BF058FA032003464FF4C8729B2164
:102ED00000904620FFF7CBFD40F2FC4100200BF0B4
:102EE0002DFA64480BF047FA032000906748D0EDB4
:102EF000000A684890ED000AB8EE400A20EE800A09
:102F0000BCEEC00A10EE100A82B2032340F23B115D
:102F10007820FFF7ACFD4F480BF02DFA0320034655
:102F2000C82240F2811100904620FFF7A0FDEFE19A
:102F300000BF45F2AA214FF6FF700BF0FFF94D4894
:102F40000BF019FA042002230090534802886921EB
:102F50006420FFF78CFD45F2AA214FF6FF700BF0BD
:102F6000EDF944480BF007FA0520022300904B4886
:102F7000028840F23B116420FFF779FDC8E147F277
:102F8000C5514FF6FF700BF0D9F93A480BF0F3F941
:102F9000002002230F22C32100909620FFF767FD37
:102FA000B6E14EF2E3014FF6FF700BF0C7F931487E
:102FB0000BF0E1F9002002231422C3210090962097
:102FC000FFF755FDA4E100BF4FF6686100200BF04C
:102FD000B5F928480BF0CFF92748006820F07AFBB4
:102FE00041EC180B002001231A46B0EE480AF0EE1F
:102FF000680A642100900846FFF7F8FD15480BF0B9
:10300000BAF927A2A5216E200BF0C3FB40F2FC41C8
:1030100000200BF093F917480BF0ADF91A4800683F
:1030200020F058FB41EC180B002001231A46B0EEAB
:10303000480AF0EE680A4FF4A57135E025312E31CB
:10304000662070480000000025312E316600000027
:10305000D0000020B00100207A000020790000207C
:10306000780000202532643A2532643A2532640023
:103070008D000020A8010020C4000020B600002020
:10308000AC000020AD000020C00000201C0000208B
:103090002400002020000020AE000020B00000200E
:1030A0006D672F6C0000000000906420FFF79EFD0C
:1030B0009A480BF060F99AA240F28B116E200BF047
:1030C00068FB25E140F2FC4100200BF037F9954800
:1030D0000BF051F99448006820F0FCFA41EC180B11
:1030E000002001231A46B0EE480AF0EE680A4FF4B9
:1030F000A57100906420FFF779FD88480BF03BF93B
:1031000087A240F28B116E200BF043FB00E14FF6DB
:10311000686100200BF012F982480BF02CF983480B
:10312000006820F0D7FA41EC180B002001231A4662
:10313000B0EE480AF0EE680A4FF4A57100906420E2
:10314000FFF754FD75480BF016F979A240F28B1188
:103150006E200BF01EFBDBE000BF4FF66861002025
:103160000BF0ECF86F480BF006F9082003230090F1
:103170007148028864210846FFF779FC40F2FC415F
:1031800000200BF0DBF867480BF0F5F86B4800689F
:1031900020F0A0FA41EC180B002001231A46B0EEF3
:1031A000480AF0EE680A4FF4A57100906420FFF71A
:1031B0001DFD5BA240F28B1164200BF0EAFAA7E040
:1031C00000BF4FF6686100200BF0B8F855480BF0CF
:1031D000D2F8002000905A4890F9000082B20223F1
:1031E00064210846FFF743FC40F2FC4100200BF04D
:1031F000A5F84C480BF0BFF85048006820F06AFA78
:1032000041EC180B002001231A46B0EE480AF0EEFC
:10321000680A4FF4A57100906420FFF7E7FC3F486F
:103220000BF0A9F83EA240F28B116E200BF0B1FA20
:103230006EE000BF45F2AA2100200BF07FF839486C
:103240000BF099F8002000903E4890F9000082B2FF
:10325000022364210846FFF70AFC40F2FC410020EB
:103260000BF06CF82F480BF086F83448006820F01B
:1032700031FA41EC180B002001231A46B0EE480A3F
:10328000F0EE680A4FF4A57100906420FFF7AEFCE1
:1032900022480BF070F822A240F28B116E200BF046
:1032A00078FA35E045F2AA214FF6FF700BF046F8A8
:1032B0001C480BF060F80920022300902248028885
:1032C0004FF4A5716420FFF7D2FB21E045F2AA215B
:1032D0004FF6FF700BF032F812480BF04CF8092053
:1032E00002230090194802884FF4A5716420FFF76B
:1032F000BEFB0DE000BF00BF00BF00BF00BF00BFAE
:1033000000BF00BF00BF00BF00BF00BF00E000BFA4
:1033100000BF03B0BDEC028B00BD0000B001002077
:1033200070480000A8010020B8000020BC00002068
:103330006D672F6800000000B6000020C00000206C
:10334000AC000020AD000020B4000020B20000203E
:1033500000B58DB0012103200FF0DCFD0121080232
:103360000FF01CFE032001908DF8080000208DF85E
:103370000B0001A92A480FF08BFB4120019003208C
:103380008DF8080000208DF80B0001A925480FF0EA
:103390007FFB0020039004900590069003A80EF098
:1033A000ABFB0EF06FFB002007908DF820008DF82E
:1033B000210009900A900B9001208DF8300007A998
:1033C00019480EF06AFB012117480EF0ACFB0DB056
:1033D00000BD10B5044604230122214612480EF018
:1033E000E2FB11480EF03BFC00BF02210E480EF03C
:1033F00057FD0028F9D00C480EF06DFC40F6E44172
:10340000484340F6FF7190FBF1F000EE100AB8EE71
:10341000C00A064880ED000A90ED000A10BD0000C9
:103420000004024000000240002001408000002013
:103430001CB5012108460FF06DFD302000900120E1
:103440008DF8040000208DF8060003208DF805009B
:1034500000208DF80700694606480FF019FB1CBDD7
:1034600018B1012803D10A8302E04A8300E000BFBB
:1034700000BF70470000024010B52DED0C8BB0EE80
:10348000408A18EE100A20F025F941EC1D0B9FED43
:10349000110B53EC102B1FF053FC41EC1B0B0F488E
:1034A000006820F017F941EC1C0B53EC1B2B1FF0AC
:1034B000E7FE41EC1A0B9FED0A0B53EC102B1FF0AB
:1034C000F3FC41EC190B1FF009FC00EE100ABDECF7
:1034D0000C8B10BD66666666661271408400002023
:1034E000666666666692724010B5F748006809F035
:1034F0003EFB00F044FF10BD10B5F348006809F032
:1035000036FB04F053FE10BD10B5EF48006809F01B
:103510002EFB00F0E6FD10BD10B5EB48006809F089
:1035200026FB01F0D2F910BD10B5E748006809F09C
:103530001EFB02F0B7FF10BD10B5E348006809F0AC
:1035400016FBE248007808B101F038F801F07BF88A
:1035500010BD10B5DC48006809F009FB04F087FDD8
:1035600010BD10B5FFF752F910BD10B50020D749B6
:103570000870D7490860D7490860D348006809F047
:10358000F6FA00F0FCFE10BD10B50020CF4908701F
:10359000CF490860CF490860CB48006809F0E7FAD6
:1035A00000F09FFD10BD10B5C848007830B101286B
:1035B00008D002280AD0032814D10FE00220C34902
:1035C000087010E00320C14908700CE0BE48006894
:1035D00009F0CDFA0020BD49087004E00120BB4984
:1035E000087000E000BF00BF01F02DF810BD10B55D
:1035F000B648007830B1012808D002280ED0032840
:1036000014D10FE00120B149087010E0AE48006805
:1036100009F0ADFA0020AD49087008E00320AB497D
:10362000087004E00220A949087000E000BF00BF54
:1036300001F009F810BD10B5A348006809F097FA29
:1036400000F09DFE10BD10B59F48006809F08FFA8C
:1036500000F047FD10BD10B59B48006809F087FADF
:1036600001F078FA10BD10B59748006809F07FFAAC
:1036700001F068FD10BD10B59348006809F077FAB5
:103680009548007830B1012807D0022808D00328D7
:103690000CD108E002F098FC09E003F0A8FA06E07B
:1036A00003F049FD03E003F0F6FF00E000BF00BFB8
:1036B00010BD10B58448006809F059FA01F005F909
:1036C00010BD10B58048006809F051FA00F009FDFE
:1036D00010BD82480088401C804908800846008848
:1036E000322801DD3220088070477C480088401E67
:1036F0007A4908800846008808B900200880704789
:103700007648008876490880704710B56E48006892
:1037100009F02DFA01F03EFB10BD10B56A480068B3
:1037200009F025FA01F0D1F810BD10B5664800681F
:1037300009F01DFA00F0D5FC10BD6A480088401C55
:103740006849088008460088182801DD182008808C
:10375000704764480088401E624908800846008817
:10376000062800D1088070475E4800885E490880BE
:10377000704710B55448006809F0F9F901F0EAF90A
:1037800010BD10B55048006809F0F1F901F09DF83E
:1037900010BD10B54C48006809F0E9F900F0A1FC33
:1037A00010BD002051490870704701204F49087032
:1037B000704710B502204D4908704348006809F071
:1037C000D6F901F084FE10BD002049490870704709
:1037D000012047490870704702204549087070472A
:1037E00010B50020434908703748006809F0BFF958
:1037F00001F0DEFE10BD01203E4908707047022036
:103800003C490870704710B52F48006809F0AFF9BF
:1038100001F098FC10BD10B52B48006809F0A7F91D
:1038200001F090FC10BD10B52748006809F09FF921
:1038300001F088FC10BD10B52348006809F097F925
:1038400002F040FF10BD10B51F48006809F08FF965
:1038500002F038FF10BD10B51B48006809F087F969
:1038600002F030FF10BD10B51748006809F07FF96D
:1038700003F098F810BD10B51348006809F077F907
:1038800003F090F810BD10B50F48006809F06FF90B
:1038900001F058FC10BD10B50B48006809F067F93D
:1038A00001F050FC10BD10B50748006809F05FF941
:1038B00001F00BF810BD10B50348006809F057F986
:1038C00000F00FFC10BD0000CC000020880000209C
:1038D00020000020240000208D000020AE000020E9
:1038E00090000020B0000020920000208A000020FC
:1038F0008B0000208C000020FD4890ED000ADFEDD9
:10390000FD0A30EE200A80ED000A90ED000ADFED9E
:10391000FA0AB4EEE00AF1EE10FA03DD9FEDF60AC2
:1039200080ED000A7047F24890ED000ADFEDF10AE1
:1039300030EE600A80ED000A90ED000AF1EE0A0A0E
:10394000B4EEE00AF1EE10FA03D2B1EE0A0A80ED0D
:10395000000A7047E64890ED000AE84880ED000A4A
:10396000704710B5E648006809F001F902F049FC1B
:1039700010BD10B5E248006809F0F9F800F0A5FFA5
:1039800010BD10B5DE48006809F0F1F800F0A9FBA1
:1039900010BDDC4890ED000ADFEDD60A30EE200ABB
:1039A00080ED000A90ED000ADFEDD70AB4EEE00AE0
:1039B000F1EE10FA03DD9FEDD40A80ED000A7047A6
:1039C000D04890ED000ADFEDCB0A30EE600A80EDC2
:1039D000000A90ED000AF6EE000AB4EEE00AF1EEFD
:1039E00010FA03D2B6EE000A80ED000A7047C5480F
:1039F00090ED000AC54880ED000A704710B5C04838
:103A0000006809F0B4F802F0DFFA10BD10B5BC4848
:103A1000006809F0ACF800F0B2FC10BD10B5B84871
:103A2000006809F0A4F800F05CFB10BD10B5B448C4
:103A3000006809F09CF802F0B5FFB148006809F091
:103A400096F802F009F810BD10B5AD48006809F00D
:103A50008EF802F037FEAA48006809F088F801F0F5
:103A600099FF10BD10B5A648006809F080F804F071
:103A700073F810BD10B5A248006809F078F804F09A
:103A800081F910BD10B59E48006809F070F801205A
:103A90009F49087002F006FD10BD10B598480068F7
:103AA00009F065F801209A49087000F01AFB10BD72
:103AB00010B5002096490870964890ED000ADFED99
:103AC0008D0A30EE200A80ED000A90ED000ADFED4D
:103AD000920AB4EEE00AF1EE10FA0ADD88480068B6
:103AE00009F045F801F0CAFD9FED8B0A894880ED89
:103AF000000A10BD10B5002085490870854890ED7A
:103B0000000ADFED7C0A30EE600A80ED000A90EDDD
:103B1000000ADFED820AB4EEE00AF1EE10FA0AD2F2
:103B20007748006809F023F801F0A8FD9FED7B0AB3
:103B3000784880ED000A10BD764890ED000A78487C
:103B400080ED000A774890ED000A774880ED000A82
:103B5000704710B56A48006809F009F802F0A2FC45
:103B600010BD10B56648006809F001F800F0B9FA18
:103B700010BD6E4890ED000ADFED5E0A30EE200ABF
:103B800080ED000A90ED000ADFED5F0AB4EEE00A76
:103B9000F1EE10FA03DD9FED5C0A80ED000A70473C
:103BA00010B5624890ED000ADFED520A30EE600A6F
:103BB00080ED000A90ED000A5448D0ED000AB4EE02
:103BC000600AF1EE10FA06D14D48006808F0CFFF08
:103BD00001F0A9FF0DE0554890ED000AF6EE000A4D
:103BE000B4EEE00AF1EE10FA03D2B6EE000A80ED70
:103BF000000A10BD4D4890ED000A4D4880ED000AC6
:103C0000704710B53E48006808F0B1FF00F05DFE57
:103C100010BD10B53A48006808F0A9FF00F061FA3D
:103C200010BD444800880A30424908800846008890
:103C300040F2DE31884202DD08463E490880704786
:103C40003C4800880A383B490880084600880A2812
:103C500001DA0A2008807047364800883649088013
:103C6000704710B52648006808F081FF03F040F95E
:103C700010BD10B52248006808F079FF00F025FE5D
:103C800010BD10B51E48006808F071FF00F029FA59
:103C900010BD174890ED000ADFED160A30EE200A3D
:103CA00080ED000A90ED000ADFED1B0AB4EEE00A99
:103CB000F1EE10FA03DD9FED180A80ED000A70475F
:103CC0000B4890ED000ADFED0B0A30EE600A80ED44
:103CD000000A90ED000ADFED110AB4EEE00AF1EE01
:103CE00010FA03D29FED0D0A80ED000A7047000024
:103CF000C0000020CDCCCC3D3333F340A4000020E5
:103D0000CC000020C40000209A99993FA800002010
:103D1000C8000020B80000209A99F9406666C640A5
:103D20009C0000200C00002028000020BC00002087
:103D3000A0000020B600002098000020D14890ED9F
:103D4000000AD14880ED000A704710B5CF480068DE
:103D500008F00DFF02F04BFF10BD10B5CB48006816
:103D600008F005FF00F0B1FD10BD10B5C7480068B0
:103D700008F0FDFE00F0B5F910BDC5480078401C04
:103D800040B2C3490870084690F90000142801DDCC
:103D9000142008707047BE480078401E40B2BC49ED
:103DA0000870084690F90000002801DA0020087029
:103DB0007047B7480078B7490870704710B5B348E6
:103DC000006808F0D4FE03F00BFB10BD10B5AF483F
:103DD000006808F0CCFE00F078FD10BD10B5AB48CF
:103DE000006808F0C4FE00F07CF910BDA54890ED15
:103DF000000A5FED400A30EE200A80ED000A90EDE7
:103E0000000A5FED3B0AB4EEE00AF1EE10FA03DDC2
:103E10001FED3F0A80ED000A70479A4890ED000AB6
:103E20005FED4C0A30EE600A80ED000A90ED000A6A
:103E30005FED460AB4EEE00AF1EE10FA03D21FED90
:103E4000490A80ED000A70478E4890ED000A8E48BE
:103E500080ED000A704710B58C48006808F087FEB6
:103E600003F069F910BD10B58848006808F07FFEBE
:103E700000F02BFD10BD10B58448006808F077FEF7
:103E800000F02FF910BD84480078401C40B28249F0
:103E90000870084690F900001E2801DD1E200870F9
:103EA00070477D480078401E40B27B490870084644
:103EB00090F90000002801DA002008707047764869
:103EC000007876490870704710B57048006808F0AF
:103ED0004EFE03F007FD10BD10B56C48006808F0F9
:103EE00046FE00F0F2FC10BD10B56848006808F00E
:103EF0003EFE00F0F6F810BD624890ED000A5FED5E
:103F0000830A30EE200A80ED000A90ED000A5FED92
:103F10007E0AB4EEE00AF1EE10FA03DD1FED820A2C
:103F200080ED000A7047574890ED000A5FED8F0A58
:103F300030EE600A80ED000A90ED000A5FED890A1C
:103F4000B4EEE00AF1EE10FA03D21FED8C0A80ED18
:103F5000000A70474B4890ED000A4B4880ED000A7C
:103F6000704710B54948006808F001FE03F093FB64
:103F700010BD10B54548006808F0F9FD02F092FA4E
:103F800010BD10B54148006808F0F1FD00F0A9F837
:103F900010BD43480088401C4149088008460088FD
:103FA000282801DA2820088070473D480088401EF4
:103FB0003B4908800846008808B9002008807047FF
:103FC0003748008837490880704710B52F48006887
:103FD00008F0CDFD02F066FA10BD10B52B48006860
:103FE00008F0C5FD00F07DF810BD2F480088401C8A
:103FF0002D49088008460088282801DD28200880EF
:10400000704729480088401E2749088008460088D4
:1040100008B9002008807047234800882349088099
:10402000704710B51948006808F0A1FD00F0A7F925
:1040300010BD10B51548006808F099FD00F051F862
:1040400010BD00201A4908707047012018490870F7
:104050007047022016490870704703201449087001
:10406000704710B50948006808F081FD00F039F884
:1040700010BD01200F490870704700200D490870DD
:1040800070470000C0000020A4000020CC000020E9
:10409000AC0000208E000020AD0000208F0000202A
:1040A000B400002096000020B20000209400002000
:1040B0008D0000208900002038B5FD484FF6FF73C1
:1040C0002022D2210090012009F057FB0446F94834
:1040D00008F085F9F74B2246F021FA2007F033FE6D
:1040E00038BD08B5FFF7E8FF00200AF0C8F94FF621
:1040F000FF702023D222F0210090FA200AF038FE2F
:10410000ED480AF038F9EDA02023D222F0210090EA
:10411000FA200BF085F805221421EB480AF085FD02
:1041200000214FF6FF700AF009F9E3480AF023F97D
:10413000E6A24FF4967114200AF02BFBE7A214219B
:10414000FA200AF026FB40F2FC40A023D2223C21B8
:104150000090FA200AF00CFEE348007830B1012804
:1041600020D002283AD0032872D154E04FF668607C
:10417000A023D2223C21009014200AF0F9FD4FF632
:10418000686100200AF0DAF8CB480AF0F4F8D7A208
:104190001E2150200AF0FDFAD7A2AF21A0200AF07C
:1041A000F8FA56E04FF66860A023D2223C21009036
:1041B00014200AF0DDFD4FF6686100200AF0BEF819
:1041C000BD480AF0D8F8CEA21E2150200AF0E1FA2C
:1041D000CDA2AF21A0200AF0DCFA3AE04FF66860E9
:1041E000A023D2223C21009014200AF0C1FD4FF6FA
:1041F000686100200AF0A2F8AF480AF0BCF8C3A238
:104200001E2150200AF0C5FA0023C2A282215020AC
:104210000AF0E1FA1DE045F2AA20A023D2223C21B7
:10422000009014200AF0A4FD45F2AA2100200AF013
:1042300085F8A1480AF09FF8B4A21E2150200AF088
:10424000A8FAB7A2822150200AF0A3FA01E0FFE702
:1042500000BF00BF40F2FC4100200AF06FF8964812
:104260000AF089F8B1A24FF4827150200AF091FA55
:10427000B0A24FF4C871A0200AF08BFA8D4801213A
:10428000C26990470120AC4908808A48AB49086060
:1042900008BD10B5FFF725FF10BD2DE9F84FA84860
:1042A00003231E2282210090012009F066FA0446B1
:1042B000A4484FF6FF731E22A0210090022009F0AF
:1042C0005CFA0546A04800235022D221009003202A
:1042D00009F053FA06469D4800235022D22100904F
:1042E000042009F04AFA0746994800235022D221B7
:1042F0000090052009F041FA80469648002350229C
:10430000D2210090062009F038FA81469248032312
:104310001E2282210090072009F02FFA82468F4842
:1043200008F05DF88D4B2246F0214FF4A57007F0A0
:104330000AFD8A4B2A46F021142007F004FD874B22
:1043400032463C21142007F0FEFC844B3A463C21C7
:10435000FA2007F0F8FC814B42469621142007F022
:10436000F2FC7E4B4A469621FA2007F0ECFC7B4B90
:104370005246F021BE2007F0E6FCBDE8F88F08B5F4
:10438000FFF78BFF00200AF07AF8052214214E482F
:104390000AF04BFC00214FF6FF7009F0CFFF4648B2
:1043A00009F0E9FF45A24FF4B97114200AF0F1F9C0
:1043B000D22350223C2114200AF034FBD223502275
:1043C0003C21FA200AF02EFBD22350229621142001
:1043D0000AF028FBD22350229621FA200AF022FB71
:1043E0004FF6FF701E23A022F021009014200AF047
:1043F000BFFC82231E22F021BE200AF013FB822381
:104400001E22F0214FF4A5700AF00CFB00214FF69C
:10441000FF7009F093FF284809F0ADFF50A050232A
:10442000D2223C21009014200AF0FAFE4FA0502323
:10443000D2223C210090FA200AF0F2FE4EA0502336
:10444000D2229621009014200AF0EAFE4DA05023BB
:10445000D22296210090FA200AF0E2FE4DA01E23FF
:104460008222F0210090BE200AF0DAFE4CA01E232A
:104470008222F02100904FF4A5700AF0D1FE4FF691
:10448000FF71002009F05AFF48A01E23A022F0214E
:10449000009014200AF0C4FE30480121C269904700
:1044A0000220254908802D482449086008BD0000E5
:1044B000E934000880140020B00100205345545412
:1044C000494E475300000000EC1F04084348415583
:1044D000205048554F432056550000004241434864
:1044E000204B484F410000008D00002043484C4FB6
:1044F00052494E45000000006D672F6C000000001F
:104500005245444F580000006D560000444F53453B
:10451000000000006D6C2F6D33686F757200000035
:104520006D6C2F6D336461790000000050482D2DB3
:104530000000000070480000D0000020CC000020E7
:10454000F934000809350008193500082935000834
:10455000393500085335000863350008241500205C
:10456000504152414D4554455253000043414C493E
:1045700042524154494F4E00444F53494E472054F4
:104580004553540054595045204F462050524F42F5
:10459000450000005341564520444154410000006D
:1045A0004C414E4755414745530000004241434B63
:1045B00020544F205354415254000000F8B5FE4897
:1045C0004FF6FF731E22D2210090012009F0D5F88A
:1045D0000446FA484FF6FF731E22D22100900220B3
:1045E00009F0CBF80546F64840F2FC433C22D221C4
:1045F0000090032009F0C1F80646F2484FF66863C0
:104600003C22D2210090042009F0B7F80746EE487A
:1046100007F0E5FEEC4B2246F021FA2007F093FB71
:10462000E94B2A46F021142007F08DFBE64B324679
:10463000AA21142007F087FBE34B3A46AA21FA206F
:1046400007F081FBF8BD08B5E048007808B9FFF72E
:10465000B5FF002009F013FF05221421DC480AF001
:10466000E4FA00214FF6FF7009F068FED94809F01E
:1046700082FEAFF2FC024FF4A57114200AF089F813
:104680004FF668606423D2223C21009014200AF087
:104690006FFB40F2FC406423D2223C210090FA20C0
:1046A0000AF066FB4FF66861002009F047FEC94832
:1046B00009F061FEC8A21E2146200AF06AF840F205
:1046C000FC41002009F03AFEC24809F054FEAFF266
:1046D0009C124FF4827146200AF05BF84FF6FF708F
:1046E0001E23D222F021009014200AF041FB4FF645
:1046F000FF701E23D222F0210090FA200AF038FB2E
:104700004FF6686009F02BFED2233C22AA21142028
:104710000AF088F940F2FC4009F021FED2233C2245
:10472000AA21FA200AF07EF9AA4809F024FE002105
:104730004FF6FF7009F002FEA448007830B101285E
:1047400017D0022838D0032848D124E0AFF29C10BB
:104750003C23D222AA21009014200AF061FDAFF27E
:10476000AC103C23D222AA210090FA200AF058FD76
:1047700035E0AFF2C0103C23D222AA2100901420D1
:104780000AF04EFD96A03C23D222AA210090FA20E6
:104790000AF046FD23E092A03C23D222AA210090F9
:1047A00014200AF03DFD8EA03C23D222AA210090C5
:1047B000FA200AF035FD12E089A03C23D222AA217A
:1047C000009014200AF02CFDAFF218203C23D222D6
:1047D000AA210090FA200AF023FD00E000BF00BFEC
:1047E0004FF6FF71002009F0A9FD7FA01E23D22201
:1047F000F0210090FA200AF013FDAFF250201E23A2
:10480000D222F021009014200AF00AFD6E48012106
:10481000C26990470320764908806B487549086053
:1048200008BD2DE9F84374484FF6FF731E22D221CC
:104830000090012008F0A1FF044670484FF6FF7376
:104840001E22D2210090022008F097FF05466C48F6
:1048500000235022D2210090032008F08EFF06464C
:10486000684800235022D2210090042008F085FFE0
:104870000746654801235022D2210090052008F008
:104880007CFF8046614807F0AAFD604B2246F0217C
:10489000FA2007F058FA5D4B2A46F021142007F061
:1048A00052FA5A4B32463C21142007F04CFA574B2F
:1048B0003A463C21FA2007F046FA544B42469621EC
:1048C000FA2007F040FABDE8F88308B5FFF7A9FF22
:1048D000002009F0D4FD052214213D480AF0A5F975
:1048E00000214FF6FF7009F029FD3A4809F043FD19
:1048F000AFF294324FF4AA71142009F04AFFD22388
:1049000050223C2114200AF08DF8D22350223C2161
:10491000FA200AF087F84FF668605023D2229621D9
:10492000009014200AF024FA40F2FC405023D222D6
:1049300096210090FA200AF01BFA00214FF6FF7032
:1049400009F0FCFC4FF66861002009F0F7FC30A08C
:104950005023D2229621009014200AF061FC40F2EC
:10496000FC41002009F0EAFCAFF238405023D2228B
:1049700096210090FA200AF053FC4FF6FF701E2398
:10498000D222F021009014200AF0F2F94FF6FF70C5
:104990001E23D222F0210090FA200AF0E9F90D48F6
:1049A00009F0E9FC00214FF6FF7009F0C7FC1CA0DC
:1049B0005023D2223C2137E06B35000889350008AE
:1049C000A7350008EF350008C81500208800002032
:1049D000EC1F0408B0010020444953494E462E0004
:1049E00053544F50000000004241434B0000000070
:1049F000D0000020CC0000203736000847360008E1
:104A00005736000867360008773600086C16002015
:104A1000444953494E46454354494F4E0000000017
:104A2000504F4F4C00000000009014200AF0F8FB9B
:104A3000FEA05023D2223C210090FA200AF0F0FB85
:104A40004FF6FF71002009F079FCAFF264001E23DD
:104A5000D222F0210090FA200AF0E2FBAFF2B4403B
:104A60001E23D222F021009014200AF0D9FB4FF629
:104A7000FF71002009F062FCEE480121C2699047F5
:104A80000720ED490880EB48EC49086008BD2DE996
:104A9000F843EB484FF6FF731E22D221009001200D
:104AA00008F06BFE0446E7484FF6FF731E22D22142
:104AB0000090022008F061FE0546E34803233C22F3
:104AC00064210090184608F058FE0646DF4803238C
:104AD0003C2264210090042008F04FFE0746DC4889
:104AE00003233C22D2210090052008F046FE804698
:104AF000D84801236422D2210090062008F03DFE10
:104B00008146D54807F06BFCD34B2246F021FA20B2
:104B100007F019F9D04B2A46F021142007F013F9B9
:104B2000CD4B3246AA21142007F00DF9CA4B3A4664
:104B3000AA21822007F007F9C74B4246AA21FA2092
:104B400007F001F9C44B4A463C21FA2007F0FBF874
:104B5000BDE8F88308B5FFF79AFF002009F08FFC45
:104B600005221421BD480AF060F800214FF6FF70BD
:104B700009F0E4FBBA4809F0FEFBBAA24FF48C71CD
:104B8000142009F006FE45F2AA206423D2223C211B
:104B9000009014200AF0ECF845F2AA206423D222F7
:104BA0003C210090FA200AF0E3F845F2AA2009F02F
:104BB000DCFBAB4809F0DFFBAEA21E21462009F06A
:104BC000E8FD002014233C228C2100905F200AF095
:104BD000CFF845F2AA2009F0C8FBA14809F0CBFBA9
:104BE000A7A2FF21462009F0D4FD4FF6FF701E2337
:104BF000D222F021009014200AF0BAF84FF6FF708C
:104C00001E23D222F0210090FA200AF0B1F84FF6CC
:104C1000FF7009F0A4FB64233C22AA21142009F0B0
:104C200001FF64233C22AA21822009F0FBFED2234B
:104C30003C22AA21FA2009F0F5FE964809F09BFBD8
:104C400000214FF6FF7009F079FB93A03C2364220A
:104C5000AA21009014200AF0E3FA90A03C236422D9
:104C6000AA21009082200AF0DBFA7D4809F083FB3C
:104C70008BA03C23D222AA210090FA200AF0D0FA7D
:104C80004FF6FF71002009F059FBAFF2A4201E235C
:104C9000D222F0210090FA200AF0C2FAAFF2F460BA
:104CA0001E23D222F021009014200AF0B9FA4FF608
:104CB000FF71002009F042FB67480121C26990475B
:104CC00008205D49088064485C49086008BD2DE9FA
:104CD000F84374484FF6FF731E22D2210090012042
:104CE00008F04BFD044670484FF6FF731E22D22198
:104CF0000090022008F041FD05466C4803233C2249
:104D000064210090184608F038FD064668480323E1
:104D10003C2264210090042008F02FFD07466548DE
:104D200003233C22D2210090052008F026FD804676
:104D3000614801236422D2210090062008F01DFD65
:104D400081465E4807F04BFB5C4B2246F021FA207F
:104D500006F0F9FF594B2A46F021142006F0F3FF24
:104D6000564B3246AA21142006F0EDFF534B3A462B
:104D7000AA21822006F0E7FF504B4246AA21FA20E2
:104D800006F0E1FF4D4B4A463C21142006F0DBFFC4
:104D9000BDE8F88308B5FFF79AFF002009F06FFB24
:104DA000052214212D4809F040FF00214FF6FF7025
:104DB00009F0C4FA2A4809F0DEFA2AA24FF48C71ED
:104DC000142009F0E6FC45F2AA206423D2223C21FB
:104DD0000090142009F0CCFF45F2AA206423D222CF
:104DE0003C210090FA2009F0C3FF002014233C224C
:104DF0008C21009040F2451009F0BAFF45F2AA213B
:104E00004FF6FF7009F09AFA154809F0B4FA19A2A2
:104E10001E21462009F0BDFC45F2AA214FF6FF7085
:104E200009F08CFA0E4809F0A6FA49E057415445BA
:104E3000520000006C160020D0000020CC000020A2
:104E4000B3360008C3360008D3360008EB36000836
:104E5000013700080B37000810170020EC1F04086A
:104E6000B0010020504F4F4C20504152414D45540D
:104E700045525300504F4F4C20564F4C554D450016
:104E800046494C54524154494F4E20504552494F87
:104E900044000000A80100202B0000002D000000AD
:104EA0004F4B00001B3700082B3700083B3700082A
:104EB000533700086937000873370008B41700201B
:104EC000AFF24402FF21462009F063FC4FF6FF7069
:104ED0001E23D222F0210090142009F049FF4FF642
:104EE000FF701E23D222F0210090FA2009F040FF2B
:104EF0004FF6FF7009F033FA64233C22AA211420F4
:104F000009F090FD64233C22AA21822009F08AFD49
:104F1000D2233C22AA21FA2009F084FDFE4809F0A0
:104F20002AFA00214FF6FF7009F008FAAFF2980054
:104F30003C236422AA21009014200AF071F9AFF2F8
:104F4000A4003C236422AA21009082200AF068F980
:104F5000F24809F010FAAFF2B8003C23D222AA219D
:104F60000090FA200AF05CF94FF6FF71002009F07A
:104F7000E5F9AFF28C501E23D222F0210090FA20E6
:104F80000AF04EF9AFF6DC101E23D222F021009079
:104F900014200AF045F94FF6FF71002009F0CEF910
:104FA000DF480121C26990470920DE490880DC48BA
:104FB000DD49086008BD2DE9F04F87B0012004F0FD
:104FC00041F90446022004F03DF90546032004F0AF
:104FD00039F90646D5484FF6FF731E22D2210090BC
:104FE000042008F0CAFB0746D1484FF6FF731E2283
:104FF000D2210090052008F0C0FB8046CD4AAFF2D8
:105000001C612046E36A98478146CB4AAFF22C6187
:105010002046E36A98478246C84AAFF23861204684
:10502000E36A98478346C64AAFF248612846EB6A6E
:1050300098470690C34AAFF254612846EB6A9847F6
:105040000590C14AAFF264612846EB6A9847049024
:10505000BE4AAFF270613046F36A98470390BC4A8B
:10506000AFF280613046F36A98470290B94AAFF2D6
:105070008C613046F36A98470190B74807F0AFF962
:10508000B54B3A46F021FA2006F05DFEB24B42469F
:10509000F021142006F057FEAF4B4A4655214FF43D
:1050A000877006F050FEAC4B52465521880006F042
:1050B0004AFEA94B5A4655214FF4CD7006F043FEE7
:1050C000A54B8C214FF48770069A06F03CFEA24B4C
:1050D0008C214FF4AA70059A06F035FE9E4B8C2168
:1050E0004FF4CD70049A06F02EFE9B4BCD214FF469
:1050F0008770039A06F027FE974BCD214FF4AA70D4
:10510000029A06F020FE944BCD214800019A06F049
:105110001AFE0121201D914A127850F822004068A1
:105120000176281D8E4A127850F8220040680176D8
:10513000301D8C4A127850F822004068017607B082
:10514000BDE8F08F08B5FFF736FF002009F097F9AA
:1051500005221421844809F068FD00214FF6FF70F4
:1051600009F0ECF86D4809F006F980A24FF4877158
:10517000142009F00EFB824809F0FDF8AFF26072CE
:105180001E21412009F005FB7EA21E21782009F096
:1051900000FBAFF268321E21872009F0FAFA7BA2E9
:1051A0001E21962009F0F5FAAFF280321E21B920B7
:1051B00009F0EFFA78A21E21C82009F0EAFA79482E
:1051C00009F0D9F878A2FF21372009F0E2FA78A295
:1051D0004FF4A071372009F0DCFA77A2FF21782084
:1051E00009F0D7FA76A24FF4A071782009F0D1FA2D
:1051F00075A240F28B11782009F0CBFA74A240F22C
:105200000911B92009F0C5FA73A240F24F11B92073
:1052100009F0BFFA72A240F28111B92009F0B9FA7F
:105220004FF4784009F09BF870A24FF4C371372017
:1052300009F0AFFA6FA240F28111462009F0A9FAF5
:105240004FF6FF701E23D222F0210090142009F0A7
:105250008FFD4FF6FF701E23D222F0210090FA201E
:1052600009F086FD4FF6FF71002009F067F8AFF6F0
:1052700088001E23D222F0210090FA2009F0D0FFEE
:10528000AFF6D8401E23D222F0210090142009F05E
:10529000C7FF4FF6FF71002009F050F82E4801219A
:1052A000C26990470A201F4908802B481E490860A0
:1052B00008BD38B5524847F2C5531E223C21009024
:1052C000012008F05AFA04464E4807F088F84D4B82
:1052D0002246AA214FF4967006F035FD38BD08B578
:1052E000FFF7E7FF47F2C550AC234FF48C72322131
:1052F0000090642009F03CFD47F2C5514FF6FF7065
:1053000009F01CF81E4809F036F83FA278213C202D
:1053100009F03FFA40A285E0A8010020B00100207A
:10532000B4170020D0000020CC00002083370008F4
:1053300093370008A3370008AB370008B3370008DD
:10534000C9370008D1370008D9370008E13700080D
:10535000F7370008FF370008581800208A0000209F
:105360008B0000208C000020EC1F0408574154459E
:105370005220504152414D455445525300000000C7
:10538000D0010020415645524147450054454D50FB
:105390004552415455524500484152444E4553539D
:1053A00000000000C0010020696E646F6F72000091
:1053B0006F7574646F6F72003C2032306F43000071
:1053C00032302D33306F43003E2033306F430000C6
:1053D000736F667400000000686172640000000072
:1053E0007665727920686172640000006578747275
:1053F000656D6500636F6E646974696F6E000000AF
:1054000007380008FC1800204D6178696D616C2038
:1054100073616665747900006469736665637469B5
:105420006F6E00007821502009F0B3F9F9A27821BD
:10543000642009F0AEF9F94808F09DFFF8A2E621D2
:10544000962009F0A6F9F8A2E621A02009F0A1F91A
:105450004FF6FF7008F083FF3C231E22AA214FF471
:10546000967009F0DFFA47F2C5514FF6FF7008F069
:1054700065FFEF4808F07FFFAFF2DC501E233C22AF
:10548000AA2100904FF4967009F0CAFEE948012164
:10549000C2699047E748E84908600B20E74908805F
:1054A00008BD38B5E64847F2C5531E223C2100909E
:1054B000012008F062F90446E24806F090FFE14B53
:1054C0002246AA214FF4967006F03DFC38BD08B57F
:1054D000FFF7E7FF4EF2E300AC234FF48C7232216A
:1054E0000090642009F044FC4EF2E3014FF6FF7097
:1054F00008F024FFCE4808F03EFFD3A278213C20DC
:1055000009F047F9D5A27821502009F042F9C1A24B
:105510007821642009F03DF9C04808F02CFFC0A2B2
:10552000E621962009F035F9BFA2E621A02009F076
:1055300030F94FF6FF7008F012FF3C231E22AA211B
:105540004FF4967009F06EFA4EF2E3014FF6FF70D9
:1055500008F0F4FEB64808F00EFFAFF2BC601E2360
:105560003C22AA2100904FF4967009F059FEB548EC
:105570000121C2699047B348AF4908600C20AF4988
:10558000088008BD38B5AE4847F2C5531E223C21FD
:105590000090012008F0F1F80446B44806F01FFF1F
:1055A000B24B2246AA214FF4967006F0CCFB38BDD0
:1055B00008B5FFF7E7FF47F2C550AC234FF48C72F4
:1055C00032210090642009F0D3FB47F2C5514FF619
:1055D000FF7008F0B3FE964808F0CDFEA4A2782133
:1055E0003C2009F0D6F8A6A278215A2009F0D1F87B
:1055F000ABA278216E2009F0CCF8B0A278218220ED
:1056000009F0C7F84FF6FF7008F0A9FE3C231E22F0
:10561000AA214FF4967009F005FA47F2C5514FF6EA
:10562000FF7008F08BFEAFF288701E233C22AA2187
:1056300000904FF4967009F0F3FD8C480121C26987
:1056400090478A487C4908600E207C49088008BD44
:1056500038B5A2484EF2E3031E223C2100900120FF
:1056600008F08BF804469E4806F0B9FE9C4B224693
:10567000AA214FF4967006F066FB38BD08B5FFF717
:10568000E7FF4EF2E300AC234FF48C72322100901E
:10569000642009F06DFB4EF2E3014FF6FF7008F055
:1056A0004DFE634808F067FE8EA278213C2009F089
:1056B00070F891A278215A2009F06BF895A2782110
:1056C000084609F066F89BA278218C2009F061F861
:1056D0004FF6FF7008F043FE3C231E22AA214FF430
:1056E000967009F09FF94EF2E3014FF6FF7008F053
:1056F00025FEAFF654001E233C22AA2100904FF451
:10570000967009F08DFD76480121C2699047744872
:10571000494908600D204949088008BD38B58A48C4
:105720004EF2E3031E223C210090012008F025F8F0
:105730000446864806F053FE844B2246AA214FF4C5
:10574000967006F000FB38BD08B5FFF7E7FF4EF294
:10575000E300AC234FF48C7232210090642009F0F6
:1057600007FB4EF2E3014FF6FF7008F0E7FD30480B
:1057700008F001FE5BA278213C2009F00AF85EA245
:1057800078215A2009F005F871A27821084609F01D
:1057900000F877A278218C2008F0FBFF4FF6FF700D
:1057A00008F0DDFD3C231E22AA214FF4967009F07B
:1057B00039F94EF2E3014FF6FF7008F0BFFDAFF686
:1057C00020101E233C22AA2100904FF4967009F06D
:1057D00027FD5E480121C26990475C481649086070
:1057E0000F201649088008BD38B5684847F2C553F0
:1057F0001E223C210090012007F0BFFF04466448B0
:1058000006F0EDFD624B2246AA214FF4967006F099
:105810009AFA38BD646F736167653A00C001002071
:105820006D6C2F6D33000000686F75720000000012
:10583000D0010020FC180020CC000020D000002067
:1058400017380008A019002045787472656D65202E
:10585000636F6E646974696F6E0000006D617869D2
:105860006D616C207361666574790000441A0020D4
:10587000576174657220686172646E6573730000AD
:10588000536F667420746F206D6F64657261746508
:105890006C792068617264203C39206F6448000094
:1058A00049662070482076616C756520646F657369
:1058B000206E6F74206368616E6765004261636883
:1058C000204B686F612073746F707320616674651C
:1058D0007220313020646F7365732E0037380008F2
:1058E000E81A002050524F42452043414C49425251
:1058F0004154494F4E00000050726F626520636151
:105900006E6E6F742062652063616C69627261748F
:1059100065210000596F75206172652063616C69B3
:1059200062726174696E67206F7574736964652053
:105930007468650072616E6765206F6620362E326E
:10594000202D20372E382100473800088C1B0020DE
:10595000576520617265207265636F6D6D656E6459
:105960006564207265706C6163696E670000000099
:105970007468652070726F62652077697468206151
:10598000206E6577206F6E652E0000005738000886
:10599000301C002008B5FFF727FF47F2C550AC23A5
:1059A0004FF48C7232210090642009F0E1F947F243
:1059B000C5514FF6FF7008F0C1FCFD4808F0DBFC54
:1059C000AFF2E00278213C2008F0E3FEF9A2782152
:1059D0005A2008F0DEFEFEA278216E2008F0D9FEE3
:1059E0004FF6FF7008F0BBFC3C231E22AA214FF4A7
:1059F000967009F017F847F2C5514FF6FF7008F09E
:105A00009DFCAFF664301E233C22AA2100904FF487
:105A1000967009F005FCF4480121C2699047F248EC
:105A2000F24908601020F249088008BD38B5F148F5
:105A300047F2C5531E223C210090012007F09DFE35
:105A40000446ED4806F0CBFCEB4B2246AA214FF46E
:105A5000967006F078F938BD08B5FFF7E7FF47F212
:105A6000C550AC234FF48C7232210090642009F0B1
:105A70007FF947F2C5514FF6FF7008F05FFCCC4844
:105A800008F079FCAFF2A41278213C2008F081FEE6
:105A9000DAA278215A2008F07CFEE0A278216E205C
:105AA00008F077FEE4A27821822008F072FE4FF61B
:105AB000FF7008F054FC3C231E22AA214FF496707C
:105AC00008F0B0FF47F2C5514FF6FF7008F036FC02
:105AD000AFF634401E233C22AA2100904FF496706A
