:020000040800F2
:1000000020AE002035550108AD060008AF060008F7
:10001000B3060008B7060008BB0600080000000091
:100020000000000000000000000000009D02000829
:10003000BF06000800000000F10200084553010857
:100040004F5501084F5501084F5501084F550108FC
:100050004F5501084F5501084F5501084F550108EC
:100060004F5501084F5501084F5501084F550108DC
:100070004F5501084F5501084F5501084F550108CC
:100080004F5501084F5501084F5501084F550108BC
:100090004F5501084F5501084F5501084F550108AC
:1000A0004F5501084F5501084F5501084F5501089C
:1000B0000307000805070008070700084F55010857
:1000C0004F5501084F5501084F5501084F5501087C
:1000D0004F5501084F5501084F5501084F5501086C
:1000E0004F5501084F5501084F5501084F5501085C
:1000F0004F5501084F5501084F5501084F5501084C
:100100004F5501084F5501084F5501084F5501083B
:100110004F5501084F5501084F5501084F5501082B
:100120004F5501084F5501084F5501084F5501081B
:100130004F550108C10600084F5501084F550108E9
:100140004F5501084F5501084F5501084F550108FB
:100150004F5501084F5501084F5501084F550108EB
:100160004F5501084F5501084F5501084F550108DB
:100170004F5501084F5501084F5501084F550108CB
:100180004F5501084F55010800F002F800F076F8CD
:100190000AA090E8000C82448344AAF10107DA45E2
:1001A00001D100F06BF8AFF2090EBAE80F0013F0BE
:1001B000010F18BFFB1A43F00103184714B80300DE
:1001C00034B803000A444FF0000C10F8013B13F060
:1001D000070408BF10F8014B1D1108BF10F8015BA0
:1001E000641E05D010F8016B641E01F8016BF9D193
:1001F00013F0080F1EBF10F8014BAD1C0C1B09D1EA
:100200006D1E58BF01F801CBFAD505E014F8016B5B
:1002100001F8016B6D1EF9D59142D6D370470000ED
:100220000023002400250026103A28BF78C1FBD8FF
:10023000520728BF30C148BF0B607047662917F0CE
:100240008082642915F05082752915F04D8263294A
:1002500015F03587002070471FB517F068FA9DE844
:10026000030015F069FC15F06DFF0400002000216B
:1002700016F0DAFCE0601FBD10B510BD16F07CF87A
:100280001146FFF7E9FF00F0B6F816F09AF803B44C
:10029000FFF7F2FF03BC16F0C7F800002A4B1968FD
:1002A0000868B0E8F04F80F30988BFF36F8F4FF014
:1002B000000080F3118870470000000006480068C5
:1002C000006880F3088862B661B6BFF34F8FBFF352
:1002D0006F8F00DF00BF00BF08ED00E0DFF80C000B
:1002E000016841F470010160704700BF88ED00E0D3
:1002F000EFF30980BFF36F8F134B1A681EF0100FD6
:1003000008BF20ED108A20E9F04F106008B44FF0CC
:10031000500080F31188BFF34F8FBFF36F8F13F03E
:1003200002FF4FF0000080F3118808BC19680868CC
:10033000B0E8F04F1EF0100F08BFB0EC108A80F349
:100340000988BFF36F8F704720020020EFF305800C
:100350007047000000BF4848007830B101280FD036
:10036000022818D003282CD120E020224349002065
:1003700001F084F810224149002001F07FF821E0CB
:1003800020223E49002001F079F810223B4901204B
:1003900001F074F816E020223849012001F06EF8CF
:1003A00010223649002001F069F80BE02022334981
:1003B000012001F063F810223049012001F05EF8BD
:1003C00000E000BFC7E700BF0DF00FFB0BF02BFAFA
:1003D0000BF05EFB00F096FCF6E710B500200EF087
:1003E0007FFF01200EF07CFF02200EF079FF03203A
:1003F0000EF076FF10BD1CB54FF4E13120480BF034
:100400004BFCFFF7EAFF0CF06FF80DF040F901F03C
:100410001DF800F0A7FF0EF0FFFE00F08AF901F0D2
:100420001CFE0020012103460A02CDE9001015A19F
:10043000AFF26D0013F041FB0020012103460A02D8
:10044000CDE9001011A1AFF2F30013F036FB14F068
:1004500034F800BFFEE700BF502080F31188BFF3DF
:100460004F8FBFF36F8F00BF00BFFEE7704710B51F
:100470000BF02BFB10BD000020000020000002400C
:10048000001001404C43445461736B004163747528
:1004900061746F725461736B000000000CB5002032
:1004A000019000907648006840F4803074490860FC
:1004B00000BF7348006800F4003000900198401CB1
:1004C0000190009818B90198B0F5A06FF1D16C486F
:1004D000006800F4003010B10120009001E000201D
:1004E00000900098012846D165484030006840F0EF
:1004F00080506349403108606248006840F48040A1
:10050000604908605E48083000685D49083108604D
:100510000846006840F4004008600846006840F45F
:10052000A05008605848091F0860081F006840F084
:100530008070091F086000BF5148006800F000701B
:100540000028F9D040F20520504908604C48083096
:10055000006820F003004A49083108600846006836
:1005600040F00200086000BF45480830006800F015
:100570000C000828F8D10CBD10B54548006840F4BF
:100580007000434908603E48006840F001003C4963
:10059000086000203A4908310860394800683D4940
:1005A0000840374908603C48091D0860081F00687A
:1005B00020F48020091F0860002031490C310860B8
:1005C000FFF76CFF4FF0006031498039086010BDC3
:1005D00070B500200022022300240221284D083596
:1005E0002D6805F00C0020B1042806D0082834D16D
:1005F00007E02A4D2A4E356033E02A4D284E3560FB
:100600002FE01F4D2D1D2D68C5F380541C4D2D1D51
:100610002D6805F03F0154B1224DB5FBF1F5184EA0
:10062000361D3668C6F3881605FB06F209E01B4D39
:10063000B5FBF1F5124E361D3668C6F3881605FB7C
:1006400006F20F4D2D1D2D68C5F301456D1C6B0085
:10065000B2FBF3F5124E356003E0104D104E3560DD
:1006600000BF00BF064D08352D68C5F303150E4EBB
:10067000705D0B4D2D68C540094E356070BD0000A2
:10068000003802400070004019544007003C02400E
:1006900088ED00E0FFFFF6FE103000240024F40097
:1006A0000000002040787D0104000020704700BF5A
:1006B000FEE700BFFEE700BFFEE700BFFEE77047B2
:1006C00008B500200090402012F091F9012804D1D3
:1006D00069460D48006812F032FF402012F0ABF975
:1006E0004FF4803012F0A7F9009848B1009838B163
:1006F0004FF0805005490860BFF34F8FBFF36F8FF5
:1007000008BD7047704770471802002004ED00E0F4
:10071000014600200A6890B2704701460020086830
:100720007047014600200A6890B20A2800DD0020C8
:10073000704700B5CC48FFF7F4FFCC490870CA48B1
:100740005C38FFF7EEFFCA490870C7485A38FFF710
:10075000E8FFC8490870C4485638FFF7E2FFC649A9
:100760000870C1485838FFF7DCFFC4490870BE481C
:100770000E38FFF7CDFFC2490870BB480C38FFF7B1
:10078000C7FFC0490870B8485438FFF7C1FFBE49D9
:100790000880B5485238FFF7BBFFBC490880B24813
:1007A0001038FFF7B5FFBA490880AF485038FFF757
:1007B000B4FFB849086008460068401C28B99FED9E
:1007C000B60AB64880ED000A05E0B24890ED000A8E
:1007D000B24880ED000AA4484038FFF79EFFAD49BB
:1007E000086008460068401C28B9B6EE000AAC480C
:1007F00080ED000A05E0A74890ED000AA84880EDCA
:10080000000A99483038FFF788FFA2490860084677
:100810000068401C28B99FEDA00AA24880ED000A9C
:1008200005E09C4890ED000A9E4880ED000A8E4845
:100830002038FFF772FF9749086008460068401C9F
:1008400028B9B6EE000A984880ED000A05E0914804
:1008500090ED000A944880ED000A83486038FFF765
:1008600057FF9249088080485E38FFF751FF904952
:100870000880834800788F490870824800788E4944
:1008800008708A4800888D490880894800888C490A
:1008900008807D4800888B4908807C4800888A4908
:1008A00008807B480088894908807C4890ED000AD0
:1008B000874880ED000A7A4890ED000A854880ED6F
:1008C000000A784890ED000A834880ED000A7648D7
:1008D00090ED000A814880ED000A00BD10B511F0CE
:1008E000B9F8F32011F0CFFA0221402011F0FEF800
:1008F000082801D0012010BD6C4801885A48603892
:1009000011F0C6F9082801D00120F4E768480188F1
:1009100055485E3811F0BCF9082801D00120EAE7FB
:100920005348017850485C3811F0B2F9082801D0DA
:100930000120E0E74F4801784B485A3811F0A8F9F8
:10094000082801D00120D6E74C480178464858389D
:1009500011F09EF9082801D00120CCE74648017823
:100960004148563811F094F9082801D00120C2E717
:10097000454801883C48543811F08AF9082801D0CC
:100980000120B8E7414801883748523811F080F912
:10099000082801D00120AEE7404890ED000A3D480C
:1009A00080ED000A01683048503811F048F90828F5
:1009B00001D001209FE73A4890ED000A354880EDCC
:1009C000000A01682848403811F039F9082801D098
:1009D000012090E7334890ED000A2E4880ED000A90
:1009E00001682148303811F02AF9082801D0012087
:1009F00081E72D4890ED000A264880ED000A016845
:100A00001948203811F01BF9082801D0012072E79D
:100A10001F4801881448103811F03AF9082801D00D
:100A2000012068E7164801780F480E3811F030F9B8
:100A3000082801D001205EE7124801780A480C38E6
:100A400011F026F9082801D0012054E70748017861
:100A5000054811F01DF9082801D001204BE711F0DD
:100A600006F8002047E70000600008082100002089
:100A70002200002023000020250000202400002068
:100A800026000020270000202C0000202E0000203F
:100A900030000020140000206666C64034000020AC
:100AA000380000203C0000204000002028000020EA
:100AB0002A000020440000204500002046000020BD
:100AC000480000204A0000204C0000204E0000207A
:100AD0005000002054000020580000205C0000203E
:100AE00010B50246012341B1002004E003FB02F4EB
:100AF000A3B2441C20B28842F8DB184610BD2DE991
:100B0000FF5F91461C46DDF83880B8F10A0F12D21B
:100B1000DFE808F00F111105060D0A0B080700BFEA
:100B200000BF00BF042507E000BF062504E0032541
:100B300002E0012500E000BF00BF04EB050A5046BB
:100B400014F018FD064600226119491E7254B8F1CE
:100B50000A0F6FD2DFE808F06C6E6E051263394E33
:100B60002C1F6C216019801E31546D216019C01E2C
:100B7000315420216019001F31545CE03321601989
:100B8000801E31546D216019C01E3154202160191E
:100B9000001F31544FE043216019801E31546F21F2
:100BA0006019C01E315420216019001F315442E0E9
:100BB00056216019801E31546D216019C01E3154B8
:100BC00020216019001F315435E06C216019801E0E
:100BD00031542F216019C01E315467216019001F44
:100BE00031546D216019401F315420216019801F3C
:100BF000315420E068216019801E31542F21601982
:100C0000C01E315467216019001F31546D216019D5
:100C1000401F315420216019801F31540BE068219E
:100C20006019801E315420216019C01E315402E029
:100C300001E0FFE700BF00BF002713E0E01B81B227
:100C40000A20FFF74DFF99FBF0F100FB119BE01B21
:100C5000401E81B20A20FFF743FF9BFBF0F03030CB
:100C6000F0557F1CA742E9DB3246DDE900010BF0BD
:100C7000DCFE304614F0ADFCBDE8FF9F2DE9F05FCF
:100C80002DED028B82468B46B0EE408AF0EE608AF4
:100C900016461F46DDF83080B8F1000F04D0B8F1D9
:100CA000020F03D1042502E0012500E000BF00BFD0
:100CB000F019401C00EB0509484614F05BFC0446A3
:100CC000B8F1000F09D0B8F1020F0DD153EC182B79
:100CD000FEA1204614F0A4FC07E053EC182BFEA163
:100CE000204614F09DFC00E000BF00BF224659469C
:100CF00050460BF09AFE204614F06BFCBDEC028BC4
:100D0000BDE8F09F00B52DED028B81B0F44800885E
:100D1000212877D2DFE800F07611FED0FDFC76FBCB
:100D2000FAF9F8F7F6F5F4F3F2F1F0EFEEEDECEB9B
:100D3000EAE9E8E7E6E5E4E3E20000214FF6FF70C8
:100D40000BF048FCE7480BF062FCE7A2822114207C
:100D50000BF06BFEE748007830B1012834D0022850
:100D600051D0032874D160E04FF6686100200BF089
:100D700031FCE1480BF04BFCE048006816F066FCE3
:100D800041EC180B002001231A46B0EE480AF0EEA1
:100D9000680A642100908220FFF770FFD1480BF0B1
:100DA00036FCD648006816F051FC41EC180B0020C8
:100DB00001231A46B0EE480AF0EE680AAA21009014
:100DC0005020FFF75BFF44E04FF6686100200BF016
:100DD00001FCC9480BF01BFC002003230090C8480D
:100DE000028864218220FFF78AFEBE480BF00FFCC8
:100DF000082003230090C248028887215020FFF773
:100E00007EFE26E095E24FF6686100200BF0E2FBE3
:100E1000B9480BF0FCFB002002230090B94802788F
:100E200064218220FFF76BFE13E045F2AA21002027
:100E30000BF0D0FBB0480BF0EAFB0020022300903F
:100E4000B148027864218220FFF759FE01E0FFE7F4
:100E500000BF00BF40F2FC4100200BF0BBFBA648E6
:100E60000BF0D5FBA948006816F0F0FB41EC180B1D
:100E7000002001231A46B0EE480AF0EE680A4FF44B
:100E8000A57100908220FFF7F9FE96480BF0BFFB9A
:100E90009E48006816F0DAFB41EC180B0020012395
:100EA0001A46B0EE480AF0EE680A4FF4C871009096
:100EB0005020FFF7E3FE3DE24FF6686100200BF0A3
:100EC00089FB8D480BF0A3FB032003469622552196
:100ED00000907820FFF713FE82481CE0F4E1BDE1AA
:100EE000BBE184E182E14DE14BE125E1CFE013E29A
:100EF00086E084E019E217E215E213E211E20FE264
:100F00000CE20CE269E056E012E22EE02CE00EE288
:100F100003E2EDE10AE20BF07AFB032003464FF413
:100F2000C8729B2100904620FFF7E9FD40F2FC418A
:100F300000200BF04FFB70480BF069FB03200346C9
:100F4000962240F23B1100907820FFF7D8FD6548CB
:100F50000BF05DFB03200346C82240F28111009094
:100F60004620FFF7CCFDE5E100BF45F2AA214FF690
:100F7000FF700BF02FFB60480BF049FB04200223AD
:100F800000906348028869216420FFF7B8FD45F2AC
:100F9000AA214FF6FF700BF01DFB57480BF037FBF3
:100FA0000520022300905B48028840F23B11642038
:100FB000FFF7A5FDBEE147F2C5514FF6FF700BF0FC
:100FC00009FB4D480BF023FB002002230F22C32115
:100FD00000909620FFF793FDACE14EF2E3014FF64F
:100FE000FF700BF0F7FA44480BF011FB00200223CE
:100FF0001422C32100909620FFF781FD9AE100BFE3
:101000004FF6686100200BF0E5FA3B480BF0FFFA61
:101010003A48006816F01AFB41EC180B0020012337
:101020001A46B0EE480AF0EE680A642100900846BD
:10103000FFF724FE2B480BF0EAFA37A2A5216E2019
:101040000BF0F3FC40F2FC4100200BF0C3FA2A48FD
:101050000BF0DDFA2D48006816F0F8FA41EC180B99
:10106000002001231A46B0EE480AF0EE680A4FF459
:10107000A57100906420FFF701FE1A480BF0C7FA33
:1010800027A240F28B116E200BF0CFFC52E140F210
:10109000FC4100200BF09EFA17480BF0B8FA2148EB
:1010A000006816F0D3FA41EC180B002001231A4611
:1010B000B0EE480AF0EE680A4FF4A5710090642083
:1010C000FFF7DCFD07480BF0A2FA2DE025312E31A9
:1010D000662070480000000025312E3166000000B7
:1010E000640000204401002030303A30303A303182
:1010F00000000000250000203C0100205C000020D2
:101100004E00002044000020450000205800002030
:1011100046000020480000206D672F6C0000000092
:101120007048000050000020AFF20C0240F28B111A
:101130006E200BF07AFCFDE04FF6686100200BF0AA
:1011400049FA7F480BF063FA7E48006816F07EFA91
:1011500041EC180B002001231A46B0EE480AF0EECD
:10116000680A4FF4A57100906420FFF787FD764868
:101170000BF04DFA75A240F28B116E200BF055FC6E
:10118000D8E000BF4FF6686100200BF023FA6C48EE
:101190000BF03DFA0820032300906E48028864217A
:1011A0000846FFF7ACFC40F2FC4100200BF012FABD
:1011B00063480BF02CFA6848006816F047FA41ECD7
:1011C000180B002001231A46B0EE480AF0EE680A18
:1011D0004FF4A57100906420FFF750FDAFF2C002FC
:1011E00040F28B1164200BF020FCA3E000BF4FF60F
:1011F000686100200BF0EEF951480BF008FA00206E
:1012000002230522642100900846FFF778FC40F293
:10121000FC4100200BF0DEF949480BF0F8F94E488C
:10122000006816F013FA41EC180B002001231A464F
:10123000B0EE480AF0EE680A4FF4A5710090642001
:10124000FFF71CFD40480BF0E2F9AFF22C1240F220
:101250008B116E200BF0E9FB6CE000BF45F2AA2178
:1012600000200BF0B7F936480BF0D1F9002002232B
:101270000522642100900846FFF741FC40F2FC4142
:1012800000200BF0A7F92E480BF0C1F93248006896
:1012900016F0DCF941EC180B002001231A46B0EEE1
:1012A000480AF0EE680A4FF4A57100906420FFF739
:1012B000E5FC25480BF0ABF9AFF29C1240F28B1124
:1012C0006E200BF0B2FB35E045F2AA214FF6FF701D
:1012D0000BF080F91A480BF09AF9092002230090CC
:1012E0001E4802884FF4A5716420FFF708FC21E036
:1012F00045F2AA214FF6FF700BF06CF910480BF085
:1013000086F9092002230090154802884FF4A57140
:101310006420FFF7F4FB0DE000BF00BF00BF00BF7B
:1013200000BF00BF00BF00BF00BF00BF00BF00BFC5
:1013300000E000BF00BF01B0BDEC028B00BD0000AB
:101340003C01002054000020440100206D672F68FC
:10135000000000004E000020580000204C0000203B
:101360004A00002000B58DB0012103200FF0C6FE19
:10137000012108020FF006FF032001908DF80800FC
:1013800000208DF80B0001A92A480FF075FC4120C0
:10139000019003208DF8080000208DF80B0001A9B2
:1013A00025480FF069FC00200390049005900690FA
:1013B00003A80EF095FC0EF059FC002007908DF864
:1013C00020008DF8210009900A900B9001208DF8E3
:1013D000300007A919480EF054FC012117480EF0FF
:1013E00096FC0DB000BD10B5044604230122214631
:1013F00012480EF0CCFC11480EF025FD00BF022172
:101400000E480EF041FE0028F9D00C480EF057FDB2
:1014100040F6E441484340F6FF7190FBF1F0084983
:1014200008600846016807A00AF0E3FC0448006869
:1014300010BD0000000402400000024000200140F6
:101440001C00002025640D0A000000001CB50121CD
:1014500008460FF053FE3020009001208DF8040064
:1014600000208DF8060003208DF8050000208DF87F
:101470000700694607480FF0FFFB1CBD10B10128AB
:1014800004D101E00A8302E04A8300E000BF00BF0C
:10149000704700000000024010B5FD48006809F0E8
:1014A0000FFC00F028FF10BD10B5F948006809F0E6
:1014B00007FC04F037FE10BD10B5F548006809F0D0
:1014C000FFFB00F0CAFD10BD10B5F148006809F03F
:1014D000F7FB01F0B6F910BD10B5ED48006809F052
:1014E000EFFB02F09BFF10BD10B5E948006809F062
:1014F000E7FBE848007808B101F01CF801F05FF85C
:1015000010BD10B5E248006809F0DAFB04F06BFD8D
:1015100010BD10B5FFF7E2F910BD10B5DC4800684A
:1015200009F0CEFB00F0E7FE10BD10B5D84800680A
:1015300009F0C6FB00F091FD10BD10B5D54800784C
:1015400030B1012808D002280AD0032814D10FE0B6
:101550000220D049087010E00320CE4908700CE04A
:10156000CB48006809F0ACFB0020CA49087004E0D1
:101570000120C849087000E000BF00BF01F01FF85B
:1015800010BD10B5C348007830B1012808D002283A
:101590000ED0032814D10FE00120BE49087010E0DE
:1015A000BB48006809F08CFB0020BA49087008E0CD
:1015B0000320B849087004E00220B649087000E032
:1015C00000BF00BF00F0FBFF10BD10B5B0480068C1
:1015D00009F076FB00F08FFE10BD10B5AC48006836
:1015E00009F06EFB00F039FD10BD10B5A848006889
:1015F00009F066FB01F06AFA10BD10B5A448006856
:1016000009F05EFB01F05AFD10BD10B5A04800685E
:1016100009F056FBA048007830B1012807D0022815
:1016200008D003280CD108E002F08AFC09E003F09E
:101630009AFA06E003F03BFD03E003F0E8FF00E068
:1016400000BF00BF10BD10B59148006809F038FB1D
:1016500001F0F7F810BD10B58D48006809F030FBB7
:1016600000F0FBFC10BD8D480088401C8B490880B1
:1016700008460088632801DD63200880704787489A
:10168000008818B900208549088004E08348008854
:10169000401E824908807047804800888049088041
:1016A000704710B57A48006809F00AFB01F02EFB7C
:1016B00010BD10B57648006809F002FB01F0C1F8D2
:1016C00010BD10B57248006809F0FAFA00F0C5FCC8
:1016D00010BD74480088401C724908800846008884
:1016E000182801DD1820088070476E4800880628F9
:1016F00002D16C49088004E06A480088401E6949AC
:10170000088070476748008867490880704710B5AF
:101710005F48006809F0D4FA01F0D8F910BD10B59F
:101720005B48006809F0CCFA01F08BF810BD10B5E9
:101730005748006809F0C4FA00F08FFC10BD002083
:101740005A4908707047012058490870704710B511
:101750000220564908704E48006809F0B1FA01F0BD
:1017600072FE10BD00205249087070470120504998
:101770000870704702204E490870704710B500206D
:101780004C4908704248006809F09AFA01F0CCFE12
:1017900010BD012047490870704702204549087074
:1017A000704710B53A48006809F08AFA01F086FCE3
:1017B00010BD10B53648006809F082FA01F07EFCD1
:1017C00010BD10B53248006809F07AFA01F076FCD5
:1017D00010BD10B52E48006809F072FA02F02EFF15
:1017E00010BD10B52A48006809F06AFA02F026FF19
:1017F00010BD10B52648006809F062FA02F01EFF1D
:1018000010BD10B52248006809F05AFA03F086F8B6
:1018100010BD10B51E48006809F052FA03F07EF8BA
:1018200010BD10B51A48006809F04AFA01F046FCEC
:1018300010BD10B51648006809F042FA01F03EFCF0
:1018400010BD10B51248006809F03AFA00F0F9FF2F
:1018500010BD10B50E48006809F032FA00F0FDFB2B
:1018600010BD154890ED000ADFED140A30EE200A95
:1018700080ED000A90ED000ADFED110AB4EEE00AF7
:10188000F1EE10FA03DD9FED0E0A80ED000A7047BD
:1018900060000020200000202500002046000020DD
:1018A00028000020480000202A00002022000020FC
:1018B000230000202400002058000020CDCCCC3D87
:1018C0003333F340F84890ED000AF1EE0A0AB4EE23
:1018D000E00AF1EE10FA04D2B1EE0A0A80ED000A35
:1018E00008E0F14890ED000A5FED0C0A30EE600A66
:1018F00080ED000A7047EC4890ED000AEB4880ED5F
:10190000000A704710B5EA48006809F0D9F902F0FA
:1019100034FC10BD10B5E648006809F0D1F900F0BC
:1019200090FF10BD10B5E248006809F0C9F900F059
:1019300094FB10BDDF4890ED000A5FED200A30EE09
:10194000200A80ED000A90ED000ADFEDDB0AB4EE1C
:10195000E00AF1EE10FA03DD9FEDD70A80ED000AF0
:101960007047D44890ED000AF6EE000AB4EEE00AA3
:10197000F1EE10FA04D2B6EE000A80ED000A08E09B
:10198000CC4890ED000A5FED330A30EE600A80ED3E
:10199000000A7047C74890ED000AC84880ED000A69
:1019A000704710B5C248006809F08AF902F0C8FA19
:1019B00010BD10B5BE48006809F082F900F09BFC2C
:1019C00010BD10B5BA48006809F07AF900F045FB7F
:1019D00010BD10B5B648006809F072F902F09EFF1C
:1019E000B348006809F06CF901F0F2FF10BD10B5C2
:1019F000AF48006809F064F902F020FEAC480068C6
:101A000009F05EF901F082FF10BD10B5A84800682A
:101A100009F056F904F05CF810BD10B5A448006850
:101A200009F04EF904F06AF910BD10B5A04800683D
:101A300009F046F902F0F2FC10BD10B59C480068B0
:101A400009F03EF900F009FB10BD10B59C4890ED7F
:101A5000000A5FED660A30EE200A80ED000A90ED84
:101A6000000ADFED980AB4EEE00AF1EE10FA0ADDA2
:101A70008F48006809F024F901F0BCFD9FED910A40
:101A80008F4880ED000A10BD10B58D4890ED000A1A
:101A90005FED760A30EE600A80ED000A90ED000AF4
:101AA000DFED890AB4EEE00AF1EE10FA0AD28048BE
:101AB000006809F005F901F09DFD9FED830A80485B
:101AC00080ED000A10BD7E4890ED000A7F4880ED51
:101AD000000A704710B57648006809F0F1F802F086
:101AE0009DFC10BD10B57248006809F0E9F800F0DF
:101AF000B4FA10BD764890ED000A5FED900A30EE22
:101B0000200A80ED000A90ED000ADFED6B0AB4EECA
:101B1000E00AF1EE10FA03DD9FED670A80ED000A9E
:101B2000704710B56A4890ED000A6448D0ED000A8D
:101B3000B4EE600AF1EE10FA06D15D48006809F0D3
:101B4000BFF801F0ACFF17E0614890ED000AF6EE37
:101B5000000AB4EEE00AF1EE10FA04D2B6EE000A82
:101B600080ED000A08E05A4890ED000A5FEDAD0AEA
:101B700030EE600A80ED000A10BD554890ED000A75
:101B8000544880ED000A704710B54948006809F0D4
:101B900097F800F056FE10BD10B54548006809F0F2
:101BA0008FF800F05AFA10BD4B4800880A304A49B5
:101BB00008800846008840F2DE31884202DD08468F
:101BC000454908807047444800880A3842490880DF
:101BD000084600880A2801DA0A20088070473E4833
:101BE00000883E490880704710B53148006809F008
:101BF00067F803F039F910BD10B52D48006809F0F9
:101C00005FF800F01EFE10BD10B52948006809F00D
:101C100057F800F022FA10BD234890ED000A5FED5E
:101C2000D90A30EE200A80ED000A90ED000ADFEDBF
:101C3000250AB4EEE00AF1EE10FA03DD9FED210A69
:101C400080ED000A7047184890ED000ADFED1E0A8B
:101C5000B4EEE00AF1EE10FA04D29FED1B0A80ED1B
:101C6000000A08E0104890ED000A5FEDEC0A30EE43
:101C7000600A80ED000A70470B4890ED000A0B489F
:101C800080ED000A704710B50948006809F018F89F
:101C900002F069FF10BD10B50548006809F010F8A2
:101CA00000F0CFFD10BD0000580000203C000020D7
:101CB000600000205C0000209A99993F40000020BD
:101CC000500000209A99F9406666C6403400002012
:101CD00054000020380000204E000020300000207A
:101CE00010B5C548006808F0EBFF00F0B6F910BD6C
:101CF000C2480078401CC149087008460078142882
:101D000001DD142008707047BC48007818B9002025
:101D1000BA49087004E0B9480078401EB749087015
:101D20007047B6480078B6490870704710B5B24899
:101D3000006808F0C5FF03F00FFB10BD10B5AE48FA
:101D4000006808F0BDFF00F07CFD10BD10B5AA488A
:101D5000006808F0B5FF00F080F910BDA94890EDCB
:101D6000000ADFEDA90A30EE200A80ED000A90EDAE
:101D7000000A5FED2C0AB4EEE00AF1EE10FA03DD82
:101D80001FED300A80ED000A70479E4890ED000A72
:101D90005FED330AB4EEE00AF1EE10FA04D21FED63
:101DA000360A80ED000A08E0964890ED000ADFED63
:101DB000960A30EE600A80ED000A7047914890ED77
:101DC000000A924880ED000A704710B58A48006802
:101DD00008F076FF03F06BF910BD10B58648006877
:101DE00008F06EFF00F02DFD10BD10B582480068B0
:101DF00008F066FF00F031F910BD85480078401CFE
:101E000083490870084600781E2801DD1E200870EE
:101E100070477F48007818B900207D49087004E0B9
:101E20007B480078401E7A490870704778480078EF
:101E300078490870704710B56F48006808F040FF97
:101E400003F00CFD10BD10B56B48006808F038FFBA
:101E500000F0F7FC10BD10B56748006808F030FFCF
:101E600000F0FBF810BD674890ED000ADFED660A50
:101E700030EE200A80ED000A90ED000A5FED6F0A57
:101E8000B4EEE00AF1EE10FA03DD1FED720A80ED08
:101E9000000A70475B4890ED000ADFED5B0A30EE08
:101EA000600A80ED000A90ED000A5FED790AB4EE59
:101EB000E00AF1EE10FA03D21FED7D0A80ED000A70
:101EC0007047504890ED000A504880ED000A704776
:101ED00010B54948006808F0F3FE03F098FB10BD08
:101EE00010B54548006808F0EBFE02F097FA10BD07
:101EF00010B54148006808F0E3FE00F0AEF810BDF0
:101F000045480088401C4449088008460088282825
:101F100001DA2820088070473F48008818B900205F
:101F20003D49088004E03C480088401E3A4908804A
:101F300070473948008839490880704710B52E48E5
:101F4000006808F0BDFE02F069FA10BD10B52A481D
:101F5000006808F0B5FE00F080F810BD3048008839
:101F6000401C2F49088008460088282801DD2820C9
:101F7000088070472A48008818B90020284908803E
:101F800004E027480088401E2549088070472448FF
:101F9000008824490880704710B51748006808F089
:101FA0008FFE00F0A8F910BD10B51348006808F0C6
:101FB00087FE00F052F810BD00201B4908707047E2
:101FC00001201949087070470220174908707047AE
:101FD000032015490870704710B50748006808F0DD
:101FE0006FFE00F03AF810BD0120104908707047EC
:101FF00000200E4908707047600000204400002057
:102000002600002058000020CDCCCC3D3C00002014
:1020100045000020270000204C0000202E0000205A
:102020004A0000202C000020250000202100002074
:1020300038B5FD484FF6FF732022D22100900120D1
:1020400009F0AAFC0446F94808F070FAF74B22465A
:10205000F021FA2007F0F7FE38BD08B5FFF7E8FFDA
:1020600000200AF058FB4FF6FF702023D222F02107
:102070000090FA200AF0C8FFED480AF0C8FAEDA077
:102080002023D222F0210090FA200BF015FA05222D
:102090001421EB480AF015FF00214FF6FF700AF0FB
:1020A00099FAE3480AF0B3FAE6A24FF496711420C5
:1020B0000AF0BBFCE7A21421FA200AF0B6FC40F2B9
:1020C000FC40A023D2223C210090FA200AF09CFF81
:1020D000E348007830B1012820D002283AD0032804
:1020E00072D154E04FF66860A023D2223C210090C8
:1020F00014200AF089FF4FF6686100200AF06AFA9E
:10210000CB480AF084FAD7A21E2150200AF08DFC99
:10211000D7A2AF21A0200AF088FC56E04FF66860F5
:10212000A023D2223C21009014200AF06DFF4FF62C
:10213000686100200AF04EFABD480AF068FACEA2A3
:102140001E2150200AF071FCCDA2AF21A0200AF080
:102150006CFC3AE04FF66860A023D2223C2100904C
:1021600014200AF051FF4FF6686100200AF032FA9D
:10217000AF480AF04CFAC3A21E2150200AF055FCC9
:102180000023C2A2822150200AF071FC1DE045F21A
:10219000AA20A023D2223C21009014200AF034FF70
:1021A00045F2AA2100200AF015FAA1480AF02FFAF8
:1021B000B4A21E2150200AF038FCB7A28221502080
:1021C0000AF033FC01E0FFE700BF00BF40F2FC4132
:1021D00000200AF0FFF996480AF019FAB1A24FF46C
:1021E000827150200AF021FCB0A24FF4C871A020E7
:1021F0000AF01BFC8D480121C26990470120AC49BF
:1022000008808A48AB49086008BD10B5FFF725FF74
:1022100010BD2DE9F84FA84803231E22822100900B
:10222000012009F0B9FB0446A4484FF6FF731E22B3
:10223000A0210090022009F0AFFB0546A048002332
:102240005022D2210090032009F0A6FB06469D48AB
:1022500000235022D2210090042009F09DFB074664
:10226000994800235022D2210090052009F094FBC8
:102270008046964800235022D2210090062009F083
:102280008BFB8146924803231E2282210090072067
:1022900009F082FB82468F4808F048F98D4B2246B0
:1022A000F0214FF4A57007F0CEFD8A4B2A46F021AD
:1022B000142007F0C8FD874B32463C21142007F05C
:1022C000C2FD844B3A463C21FA2007F0BCFD814B0D
:1022D00042469621142007F0B6FD7E4B4A469621D1
:1022E000FA2007F0B0FD7B4B5246F021BE2007F0EC
:1022F000AAFDBDE8F88F08B5FFF78BFF00200AF0B4
:102300000AFA052214214E480AF0DBFD00214FF69F
:10231000FF700AF05FF946480AF079F945A24FF4D8
:10232000B97114200AF081FBD22350223C211420E1
:102330000AF0C4FCD22350223C21FA200AF0BEFC51
:10234000D2235022962114200AF0B8FCD223502226
:102350009621FA200AF0B2FC4FF6FF701E23A0224D
:10236000F021009014200AF04FFE82231E22F0215B
:10237000BE200AF0A3FC82231E22F0214FF4A57098
:102380000AF09CFC00214FF6FF700AF023F9284860
:102390000AF03DF950A05023D2223C210090142095
:1023A0000BF08AF84FA05023D2223C210090FA2053
:1023B0000BF082F84EA05023D222962100901420D8
:1023C0000BF07AF84DA05023D22296210090FA20EB
:1023D0000BF072F84DA01E238222F0210090BE2047
:1023E0000BF06AF84CA01E238222F02100904FF4DB
:1023F000A5700BF061F84FF6FF7100200AF0EAF8C3
:1024000048A01E23A022F021009014200BF054F8C5
:1024100030480121C26990470220254908802D4893
:102420002449086008BD00009914000880020020BB
:102430004401002053455454494E475300000000C6
:102440007E98020843484155205048554F43205636
:102450005500000042414348204B484F41000000D6
:102460002500002043484C4F52494E4500000000D3
:102470006D672F6C000000005245444F580000006B
:102480006D560000444F5345000000006D6C2F6DE9
:1024900033686F75720000006D6C2F6D3364617965
:1024A0000000000050482D2D000000007048000082
:1024B0006400002060000020A9140008B91400087E
:1024C000C9140008D9140008E9140008031500080D
:1024D0001315000824030020504152414D45544536
:1024E0005253000043414C4942524154494F4E001F
:1024F000444F53494E472054455354005459504576
:10250000204F462050524F4245000000534156454F
:1025100020444154410000004C414E47554147453D
:10252000530000004241434B20544F20535441522A
:1025300054000000F8B5FE484FF6FF731E22D2216A
:102540000090012009F028FA0446FA484FF6FF737C
:102550001E22D2210090022009F01EFA0546F648FC
:1025600040F2FC433C22D2210090032009F014FAEF
:102570000646F2484FF668633C22D22100900420C0
:1025800009F00AFA0746EE4807F0D0FFEC4B224666
:10259000F021FA2007F057FCE94B2A46F0211420DD
:1025A00007F051FCE64B3246AA21142007F04BFC01
:1025B000E34B3A46AA21FA2007F045FCF8BD08B5DE
:1025C000E048007808B9FFF7B5FF00200AF0A3F84B
:1025D00005221421DC480AF074FC00214FF6FF703C
:1025E00009F0F8FFD9480AF012F8AFF2FC024FF4F4
:1025F000A57114200AF019FA4FF668606423D222FC
:102600003C21009014200AF0FFFC40F2FC406423BF
:10261000D2223C210090FA200AF0F6FC4FF66861C5
:10262000002009F0D7FFC94809F0F1FFC8A21E2118
:1026300046200AF0FAF940F2FC41002009F0CAFFF6
:10264000C24809F0E4FFAFF29C124FF482714620B9
:102650000AF0EBF94FF6FF701E23D222F021009012
:1026600014200AF0D1FC4FF6FF701E23D222F02175
:102670000090FA200AF0C8FC4FF6686009F0BBFF32
:10268000D2233C22AA2114200AF018FB40F2FC407D
:1026900009F0B1FFD2233C22AA21FA200AF00EFB56
:1026A000AA4809F0B4FF00214FF6FF7009F092FF2D
:1026B000A448007830B1012817D0022838D0032868
:1026C00048D124E0AFF29C103C23D222AA210090F2
:1026D00014200AF0F1FEAFF2AC103C23D222AA2162
:1026E0000090FA200AF0E8FE35E0AFF2C0103C237B
:1026F000D222AA21009014200AF0DEFE96A03C23EC
:10270000D222AA210090FA200AF0D6FE23E092A05D
:102710003C23D222AA21009014200AF0CDFE8EA0E4
:102720003C23D222AA210090FA200AF0C5FE12E032
:1027300089A03C23D222AA21009014200AF0BCFEDA
:10274000AFF218203C23D222AA210090FA200AF0EE
:10275000B3FE00E000BF00BF4FF6FF71002009F09C
:1027600039FF7FA01E23D222F0210090FA200AF028
:10277000A3FEAFF250201E23D222F021009014209D
:102780000AF09AFE6E480121C269904703207649FB
:1027900008806B487549086008BD2DE9F843744806
:1027A0004FF6FF731E22D2210090012009F0F4F8A9
:1027B000044670484FF6FF731E22D221009002207B
:1027C00009F0EAF805466C4800235022D221009017
:1027D000032009F0E1F80646684800235022D22180
:1027E0000090042009F0D8F80746654801235022DC
:1027F000D2210090052009F0CFF88046614807F00B
:1028000095FE604B2246F021FA2007F01CFB5D4B41
:102810002A46F021142007F016FB5A4B32463C2181
:10282000142007F010FB574B3A463C21FA2007F0E2
:102830000AFB544B42469621FA2007F004FBBDE800
:10284000F88308B5FFF7A9FF002009F064FF05220F
:1028500014213D480AF035FB00214FF6FF7009F0C6
:10286000B9FE3A4809F0D3FEAFF294324FF4AA71A0
:1028700014200AF0DAF8D22350223C2114200AF066
:102880001DFAD22350223C21FA200AF017FA4FF603
:1028900068605023D2229621009014200AF0B4FBE5
:1028A00040F2FC405023D22296210090FA200AF0F8
:1028B000ABFB00214FF6FF7009F08CFE4FF668610C
:1028C000002009F087FE30A05023D22296210090EC
:1028D00014200AF0F1FD40F2FC41002009F07AFEDC
:1028E000AFF238405023D22296210090FA200AF00D
:1028F000E3FD4FF6FF701E23D222F021009014203A
:102900000AF082FB4FF6FF701E23D222F0210090C6
:10291000FA200AF079FB0D4809F079FE00214FF604
:10292000FF7009F057FE1CA05023D2223C2137E053
:102930001B1500082B1500083B150008831500081F
:10294000C8030020200000207E98020844010020D7
:10295000444953494E462E0053544F500000000046
:102960004241434B00000000640000206000002052
:10297000CB150008DB150008EB150008FB15000857
:102980000B1600086C040020444953494E46454349
:1029900054494F4E00000000504F4F4C00000000C3
:1029A000009014200AF088FDFEA05023D2223C2182
:1029B0000090FA200AF080FD4FF6FF71002009F028
:1029C00009FEAFF264001E23D222F0210090FA200B
:1029D0000AF072FDAFF2B4401E23D222F021009023
:1029E00014200AF069FD4FF6FF71002009F0F2FD96
:1029F000EE480121C26990470720ED490880EB4865
:102A0000EC49086008BD2DE9F843EB484FF6FF7329
:102A10001E22D2210090012008F0BEFF0446E748A4
:102A20004FF6FF731E22D2210090022008F0B4FF5F
:102A30000546E34803233C2264210090184608F031
:102A4000ABFF0646DF4803233C22642100900420AC
:102A500008F0A2FF0746DC4803233C22D221009065
:102A6000052008F099FF8046D84801236422D2212E
:102A70000090062008F090FF8146D54807F056FDEB
:102A8000D34B2246F021FA2007F0DDF9D04B2A463D
:102A9000F021142007F0D7F9CD4B3246AA2114209B
:102AA00007F0D1F9CA4B3A46AA21822007F0CBF9A8
:102AB000C74B4246AA21FA2007F0C5F9C44B4A4643
:102AC0003C21FA2007F0BFF9BDE8F88308B5FFF70D
:102AD0009AFF002009F01FFE05221421BD480AF0CC
:102AE000F0F900214FF6FF7009F074FDBA4809F0C3
:102AF0008EFDBAA24FF48C71142009F096FF45F2B6
:102B0000AA206423D2223C21009014200AF07CFAEF
:102B100045F2AA206423D2223C210090FA200AF038
:102B200073FA45F2AA2009F06CFDAB4809F06FFD7D
:102B3000AEA21E21462009F078FF002014233C227B
:102B40008C2100905F200AF05FFA45F2AA2009F07C
:102B500058FDA14809F05BFDA7A2FF21462009F01E
:102B600064FF4FF6FF701E23D222F0210090142044
:102B70000AF04AFA4FF6FF701E23D222F02100908D
:102B8000FA200AF041FA4FF6FF7009F034FD642391
:102B90003C22AA2114200AF091F864233C22AA21A5
:102BA00082200AF08BF8D2233C22AA21FA200AF0D4
:102BB00085F8964809F02BFD00214FF6FF7009F0CB
:102BC00009FD93A03C236422AA21009014200AF05E
:102BD00073FC90A03C236422AA21009082200AF07A
:102BE0006BFC7D4809F013FD8BA03C23D222AA2167
:102BF0000090FA200AF060FC4FF6FF71002009F007
:102C0000E9FCAFF2A4201E23D222F0210090FA208A
:102C10000AF052FCAFF2F4601E23D222F0210090A1
:102C200014200AF049FC4FF6FF71002009F0D2FC95
:102C300067480121C269904708205D4908806448BF
:102C40005C49086008BD2DE9F84374484FF6FF73EE
:102C50001E22D2210090012008F09EFE04467048FA
:102C60004FF6FF731E22D2210090022008F094FE3E
:102C700005466C4803233C2264210090184608F066
:102C80008BFE0646684803233C2264210090042002
:102C900008F082FE0746654803233C22D2210090BB
:102CA000052008F079FE8046614801236422D22184
:102CB0000090062008F070FE81465E4807F036FC62
:102CC0005C4B2246F021FA2007F0BDF8594B2A460A
:102CD000F021142007F0B7F8564B3246AA211420F1
:102CE00007F0B1F8534B3A46AA21822007F0ABF81F
:102CF000504B4246AA21FA2007F0A5F84D4B4A4610
:102D00003C21142007F09FF8BDE8F88308B5FFF7D1
:102D10009AFF002009F0FFFC052214212D480AF03B
:102D2000D0F800214FF6FF7009F054FC2A4809F052
:102D30006EFC2AA24FF48C71142009F076FE45F245
:102D4000AA206423D2223C21009014200AF05CF9CE
:102D500045F2AA206423D2223C210090FA200AF0F6
:102D600053F9002014233C228C21009040F245109E
:102D70000AF04AF945F2AA214FF6FF7009F02AFC41
:102D8000154809F044FC19A21E21462009F04DFE09
:102D900045F2AA214FF6FF7009F01CFC0E4809F01D
:102DA00036FC49E057415445520000006C040020B5
:102DB0006400002060000020471600085716000835
:102DC000671600087F16000899160008A316000869
:102DD000100500207E98020844010020504F4F4CFF
:102DE00020504152414D455445525300504F4F4C95
:102DF00020564F4C554D450046494C54524154497C
:102E00004F4E20504552494F440000003C010020E5
:102E10002B0000002D0000004F4B0000B3160008EF
:102E2000C3160008D3160008EB16000805170008A3
:102E30000F170008B4050020AFF24402FF2146201E
:102E400009F0F3FD4FF6FF701E23D222F02100900F
:102E500014200AF0D9F84FF6FF701E23D222F02179
:102E60000090FA200AF0D0F84FF6FF7009F0C3FB8B
:102E700064233C22AA21142009F020FF64233C2271
:102E8000AA21822009F01AFFD2233C22AA21FA208B
:102E900009F014FFFE4809F0BAFB00214FF6FF705D
:102EA00009F098FBAFF298003C236422AA2100901D
:102EB00014200AF001FBAFF2A4003C236422AA21F3
:102EC000009082200AF0F8FAF24809F0A0FBAFF275
:102ED000B8003C23D222AA210090FA200AF0ECFA92
:102EE0004FF6FF71002009F075FBAFF28C501E23E6
:102EF000D222F0210090FA200AF0DEFAAFF6DC10C0
:102F00001E23D222F021009014200AF0D5FA4FF6A9
:102F1000FF71002009F05EFBDF480121C269904784
:102F20000920DE490880DC48DD49086008BD2DE93C
:102F3000F04F87B0012004F041F90446022004F06C
:102F40003DF90546032004F039F90646D5484FF609
:102F5000FF731E22D2210090042008F01DFD0746B9
:102F6000D1484FF6FF731E22D2210090052008F0B1
:102F700013FD8046CD4AAFF21C612046E36A9847B4
:102F80008146CB4AAFF22C612046E36A98478246DD
:102F9000C84AAFF238612046E36A98478346C64A7A
:102FA000AFF248612846EB6A98470690C34AAFF2F1
:102FB00054612846EB6A98470590C14AAFF26461B4
:102FC0002846EB6A98470490BE4AAFF270613046DB
:102FD000F36A98470390BC4AAFF280613046F36AC7
:102FE00098470290B94AAFF28C613046F36A98472D
:102FF0000190B74807F09AFAB54B3A46F021FA200B
:1030000006F021FFB24B4246F021142006F01BFFD0
:10301000AF4B4A4655214FF4877006F014FFAC4B76
:1030200052465521880006F00EFFA94B5A465521FD
:103030004FF4CD7006F007FFA54B8C214FF487703D
:10304000069A06F000FFA24B8C214FF4AA70059A55
:1030500006F0F9FE9E4B8C214FF4CD70049A06F0D9
:10306000F2FE9B4BCD214FF48770039A06F0EBFEE6
:10307000974BCD214FF4AA70029A06F0E4FE944BD0
:10308000CD214800019A06F0DEFE0121201D914A63
:10309000127850F8220040680176281D8E4A127876
:1030A00050F8220040680176301D8C4A127850F8A2
:1030B00022004068017607B0BDE8F08F08B5FFF741
:1030C00036FF002009F027FB05221421844809F06F
:1030D000F8FE00214FF6FF7009F07CFA6D4809F008
:1030E00096FA80A24FF48771142009F09EFC824862
:1030F00009F08DFAAFF260721E21412009F095FCB3
:103100007EA21E21782009F090FCAFF268321E21C9
:10311000872009F08AFC7BA21E21962009F085FCFD
:10312000AFF280321E21B92009F07FFC78A21E2167
:10313000C82009F07AFC794809F069FA78A2FF21E1
:10314000372009F072FC78A24FF4A071372009F003
:103150006CFC77A2FF21782009F067FC76A24FF47F
:10316000A071782009F061FC75A240F28B117820E3
:1031700009F05BFC74A240F20911B92009F055FC7A
:1031800073A240F24F11B92009F04FFC72A240F235
:103190008111B92009F049FC4FF4784009F02BFA6D
:1031A00070A24FF4C371372009F03FFC6FA240F2C8
:1031B0008111462009F039FC4FF6FF701E23D22200
:1031C000F0210090142009F01FFF4FF6FF701E231E
:1031D000D222F0210090FA2009F016FF4FF6FF717D
:1031E000002009F0F7F9AFF688001E23D222F02163
:1031F0000090FA200AF060F9AFF6D8401E23D222E0
:10320000F021009014200AF057F94FF6FF710020CA
:1032100009F0E0F92E480121C26990470A201F49B0
:1032200008802B481E49086008BD38B5524847F24F
:10323000C5531E223C210090012008F0ADFB04463E
:103240004E4807F073F94D4B2246AA214FF4967071
:1032500006F0F9FD38BD08B5FFF7E7FF47F2C550A6
:10326000AC234FF48C7232210090642009F0CCFE24
:1032700047F2C5514FF6FF7009F0ACF91E4809F04E
:10328000C6F93FA278213C2009F0CFFB40A285E09F
:103290003C01002044010020B4050020640000200F
:1032A000600000201F1700082F1700083F170008B4
:1032B000471700084F170008651700086D1700082A
:1032C000751700087D170008931700089B17000862
:1032D00058060020220000202300002024000020A7
:1032E0007E980208574154455220504152414D4565
:1032F00054455253000000006401002041564552DD
:103300004147450054454D504552415455524500A2
:10331000484152444E4553530000000054010020E0
:10332000696E646F6F7200006F7574646F6F720006
:103330003C2032306F43000032302D33306F430079
:103340003E2033306F430000736F6674000000004E
:1033500068617264000000007665727920686172AD
:103360006400000065787472656D6500636F6E645B
:103370006974696F6E000000A3170008FC06002046
:103380004D6178696D616C207361666574790000C8
:1033900064697366656374696F6E000078215020FC
:1033A00009F043FBF9A27821642009F03EFBF948BB
:1033B00009F02DF9F8A2E621962009F036FBF8A2D3
:1033C000E621A02009F031FB4FF6FF7009F013F958
:1033D0003C231E22AA214FF4967009F06FFC47F29D
:1033E000C5514FF6FF7009F0F5F8EF4809F00FF9F5
:1033F000AFF2DC501E233C22AA2100904FF49670BD
:103400000AF05AF8E9480121C2699047E748E849BB
:1034100008600B20E749088008BD38B5E64847F248
:10342000C5531E223C210090012008F0B5FA044645
:10343000E24807F07BF8E14B2246AA214FF4967050
:1034400006F001FD38BD08B5FFF7E7FF4EF2E300D7
:10345000AC234FF48C7232210090642009F0D4FD2B
:103460004EF2E3014FF6FF7009F0B4F8CE4809F0D0
:10347000CEF8D3A278213C2009F0D7FAD5A2782142
:10348000502009F0D2FAC1A27821642009F0CDFAC7
:10349000C04809F0BCF8C0A2E621962009F0C5FAA0
:1034A000BFA2E621A02009F0C0FA4FF6FF7009F094
:1034B000A2F83C231E22AA214FF4967009F0FEFBCD
:1034C0004EF2E3014FF6FF7009F084F8B64809F0B8
:1034D0009EF8AFF2BC601E233C22AA2100904FF45C
:1034E000967009F0E9FFB5480121C2699047B348D9
:1034F000AF4908600C20AF49088008BD38B5AE4818
:1035000047F2C5531E223C210090012008F044FAE6
:103510000446B44807F00AF8B24B2246AA214FF4F9
:10352000967006F090FC38BD08B5FFF7E7FF47F24C
:10353000C550AC234FF48C7232210090642009F006
:1035400063FD47F2C5514FF6FF7009F043F8964806
:1035500009F05DF8A4A278213C2009F066FAA6A241
:1035600078215A2009F061FAABA278216E2009F087
:103570005CFAB0A27821822009F057FA4FF6FF706A
:1035800009F039F83C231E22AA214FF4967009F065
:1035900095FB47F2C5514FF6FF7009F01BF8AFF2EB
:1035A00088701E233C22AA2100904FF4967009F0E7
:1035B00083FF8C480121C26990478A487C49086092
:1035C0000E207C49088008BD38B5A2484EF2E303BE
:1035D0001E223C210090012008F0DEF904469E489E
:1035E00006F0A4FF9C4B2246AA214FF4967006F0E9
:1035F0002AFC38BD08B5FFF7E7FF4EF2E300AC2325
:103600004FF48C7232210090642009F0FDFC4EF2E0
:10361000E3014FF6FF7008F0DDFF634808F0F7FFA5
:103620008EA278213C2009F000FA91A278215A203C
:1036300009F0FBF995A27821084609F0F6F99BA25A
:1036400078218C2009F0F1F94FF6FF7008F0D3FFD4
:103650003C231E22AA214FF4967009F02FFB4EF254
:10366000E3014FF6FF7008F0B5FFAFF654001E23DC
:103670003C22AA2100904FF4967009F01DFF764875
:103680000121C26990477448494908600D204949A1
:10369000088008BD38B58A484EF2E3031E223C215B
:1036A0000090012008F078F90446864806F03EFFB5
:1036B000844B2246AA214FF4967006F0C4FB38BD15
:1036C00008B5FFF7E7FF4EF2E300AC234FF48C722E
:1036D00032210090642009F097FC4EF2E3014FF68E
:1036E000FF7008F077FF304808F091FF5BA2782167
:1036F0003C2009F09AF95EA278215A2009F095F948
:1037000071A27821084609F090F977A278218C20DF
:1037100009F08BF94FF6FF7008F06DFF3C231E2275
:10372000AA214FF4967009F0C9FA4EF2E3014FF660
:10373000FF7008F04FFFAFF620101E233C22AA2195
:1037400000904FF4967009F0B7FE5E480121C269FF
:1037500090475C48164908600F201649088008BD4C
:1037600038B5684847F2C5531E223C21009001201D
:1037700008F012F90446644806F0D8FE624B22466F
:10378000AA214FF4967006F05EFB38BD646F73613A
:1037900067653A00540100206D6C2F6D3300000006
:1037A000686F75720000000064010020FC060020B4
:1037B0006000002064000020B3170008A00700206C
:1037C00045787472656D6520636F6E646974696FA6
:1037D0006E0000006D6178696D616C2073616665D3
:1037E0007479000044080020576174657220686194
:1037F00072646E6573730000536F667420746F207B
:103800006D6F6465726174656C79206861726420A3
:103810003C39206F6448000049662070482076617A
:103820006C756520646F6573206E6F7420636861CA
:103830006E67650042616368204B686F6120737436
:103840006F707320616674657220313020646F730D
:1038500065732E00D3170008E808002050524F422D
:10386000452043414C4942524154494F4E000000CB
:1038700050726F62652063616E6E6F7420626520A6
:1038800063616C696272617465210000596F752013
:103890006172652063616C6962726174696E672030
:1038A0006F757473696465207468650072616E6712
:1038B00065206F6620362E32202D20372E382100CD
:1038C000E31700088C09002057652061726520729B
:1038D00065636F6D6D656E646564207265706C61A3
:1038E00063696E67000000007468652070726F6223
:1038F0006520776974682061206E6577206F6E653A
:103900002E000000F3170008300A002008B5FFF76A
:1039100027FF47F2C550AC234FF48C723221009040
:10392000642009F071FB47F2C5514FF6FF7008F0B3
:1039300051FEFD4808F06BFEAFF2E00278213C201A
:1039400009F073F8F9A278215A2009F06EF8FEA266
:1039500078216E2009F069F84FF6FF7008F04BFEF1
:103960003C231E22AA214FF4967009F0A7F947F2D2
:10397000C5514FF6FF7008F02DFEAFF664301E23E0
:103980003C22AA2100904FF4967009F095FDF4486E
:103990000121C2699047F248F24908601020F249BB
:1039A000088008BD38B5F14847F2C5531E223C21B6
:1039B0000090012007F0F0FF0446ED4806F0B6FD48
:1039C000EB4B2246AA214FF4967006F03CFA38BD24
:1039D00008B5FFF7E7FF47F2C550AC234FF48C72F0
:1039E00032210090642009F00FFB47F2C5514FF6D9
:1039F000FF7008F0EFFDCC4808F009FEAFF2A4120A
:103A000078213C2009F011F8DAA278215A2009F037
:103A10000CF8E0A278216E2009F007F8E4A27821E2
:103A2000822009F002F84FF6FF7008F0E4FD3C2315
:103A30001E22AA214FF4967009F040F947F2C551B1
:103A40004FF6FF7008F0C6FDAFF634401E233C224F
:103A5000AA2100904FF4967009F02EFDC448012170
:103A6000C2699047C248BF4908601120BE4908801A
:103A700008BD38B5D3484EF2E3031E223C21009026
:103A8000012007F089FF0446CF4806F04FFDCE4BDA
:103A90002246AA214FF4967006F0D5F938BD08B534
:103AA000FFF7E7FF4EF2E300AC234FF48C723221B4
:103AB0000090642009F0A8FA4EF2E3014FF6FF707F
:103AC00008F088FD984808F0A2FDAFF27022782136
:103AD0003C2008F0AAFFA7A278215A2008F0A5FFF1
:103AE000ACA278216E2008F0A0FFB1A2782182203C
:103AF00008F09BFF4FF6FF7008F07DFD3C231E226F
:103B0000AA214FF4967009F0D9F84EF2E3014FF66E
:103B1000FF7008F05FFDAFF600501E233C22AA2183
:103B200000904FF4967009F0C7FCA7480121C269C4
:103B30009047A5488B49086012208B49088008BD32
:103B400038B5A2484EF2E3031E223C21009001202A
:103B500007F022FF04469E4806F0E8FC9C4B2246F4
:103B6000AA214FF4967006F06EF938BD08B5FFF73C
:103B7000E7FF4EF2E300AC234FF48C723221009049
:103B8000642009F041FA4EF2E3014FF6FF7008F0AD
:103B900021FD654808F03BFDAFF2403278213C2022
:103BA00008F043FF8BA278215A2008F03EFF90A234
:103BB00078216E2008F039FF94A27821822008F045
:103BC00034FF94A27821962008F02FFF4FF6FF7063
:103BD00008F011FD3C231E22AA214FF4967009F033
:103BE0006DF84EF2E3014FF6FF7008F0F3FCAFF60C
:103BF000D8501E233C22AA2100904FF4967009F061
:103C00005BFC73480121C2699047714855490860BF
:103C100013205549088008BD38B585484EF2E303A6
:103C20001E22C8210090012007F0B6FE04468148FC
:103C300006F07CFC7F4B2246AA21A02006F003F967
:103C400038BD08B5FFF7E8FF4EF2E300AC234FF4B0
:103C50008C7232210090642009F0D6F94EF2E30113
:103C60004FF6FF7008F0B6FC2F4808F0D0FC72A2A7
:103C700078213C2008F0D9FE77A278215A2008F05C
:103C8000D4FE7DA278216E2008F0CFFE81A278219B
:103C9000822008F0CAFE4FF6FF7008F0ACFCC82383
:103CA0001E22AA21A02009F009F84EF2E3014FF6E6
:103CB000FF7008F08FFC7AA01E23C822AA21009072
:103CC000A02009F0F9FB5B480121C26990475948DF
:103CD0002449086014202449088008BD2DE9F843D0
:103CE00074484FF6FF731E22D2210090012007F086
:103CF00053FE044670484FF6FF731E22D2210090F7
:103D0000022007F049FE05466C4805233C22642149
:103D10000090032007F040FE0646694805233C2238
:103D2000642100900420CDE06401002043616C69AF
:103D300062726174696F6E207265636F6D6D656E1E
:103D400064656420627900007573696E672062752E
:103D50006666657220704820372C302E0000000007
:103D6000300A0020600000206400002003180008D2
:103D7000D40A00205468652063686C6F72696E65B0
:103D800020636F6E74656E7420696E20706F6F6C47
:103D9000000000007761746572206D757374206295
:103DA000652067726561746572207468616E0000D9
:103DB0002272657175697265642076616C75652221
:103DC0002E00000013180008780B002023180008AC
:103DD0001C0C002043616C6962726174696F6E2013
:103DE000697320696D706F737369626C652100007F
:103DF00050726F62652073656E7369746976697459
:103E00007920746F6F206C6F772E00004368616EAD
:103E100067653A00656C656374726F6C7974652FC1
:103E20006D656D6272616E652F70726F62652E00D6
:103E300033180008C00C0020546F6F207261706945
:103E400064206368616E6765206F66207048207625
:103E5000616C75652E00000042414348204B484F7D
:103E6000412073746F7020726567756C6174696F3F
:103E70006E73206F66000000704820666F722032FB
:103E800020686F75727320666F7220736166657447
:103E900079000000726561736F6E732E0000000080
:103EA00043414E43454C2052455354524943544993
:103EB0004F4E5300431800085318000863180008B9
:103EC000C518000807F068FD0746FE4805233C2298
:103ED000D2210090184607F05FFD8046FA48012382
:103EE0006422D2210090062007F056FD8146F74853
:103EF00006F01CFBF54B2246F021FA2005F0A3FF4B
:103F0000F24B2A46F021142005F09DFFEF4B32467C
:103F1000AA21142005F097FFEC4B3A46AA218220F3
:103F200005F091FFE94B4246AA21FA2005F08BFFEC
:103F3000E64B4A463C21142005F085FFBDE8F88396
:103F400008B5FFF7CBFE002008F0E5FB05221421A1
:103F5000DF4808F0B6FF00214FF6FF7008F03AFB8B
:103F6000DC4808F054FBDCA24FF48C71142008F0FC
:103F70005CFD4FF668606423D2223C21009014203F
:103F800009F042F840F2FC406423D2223C21009028
:103F9000FA2009F039F84FF6686008F032FB00208B
:103FA00008F029FBD0A21E21462008F03EFD40F279
:103FB000FC4008F026FBCDA24FF48271462008F0A9
:103FC00034FD002014233C228C21009040F2451047
:103FD00009F01AF84FF6FF701E23D222F02100904C
:103FE000142009F011F84FF6FF701E23D222F021A1
:103FF0000090FA2009F008F840F2FC4008F0FBFAC3
:1040000064233C22AA21142008F058FE64233C2299
:10401000AA21822008F052FED2233C22AA21FA20B3
:1040200008F04CFEB24808F0F2FA00214FF6FF709B
:1040300008F0D0FAAFA03C236422AA2100901420FB
:1040400009F03AFAACA03C236422AA210090822015
:1040500009F032FA9F4808F0DAFAA8A03C23D222ED
:10406000AA210090FA2009F027FA4FF6FF710020EC
:1040700008F0B0FAA2481E23D222F0210090FA20C4
:1040800009F01AFA9F481E23D222F0210090142032
:1040900009F012FA4FF6FF71002008F09BFA8B48E6
:1040A0000121C269904715209749088087489749A0
:1040B000086008BD2DE9F84395484FF6FF731E22AE
:1040C000D2210090012007F067FC044691484FF68A
:1040D000FF731E22D2210090022007F05DFC0546EE
:1040E0008D4804233C2264210090032007F054FCF7
:1040F00006468A4804233C2264210090184607F0B3
:104100004BFC0746864804233C22D2210090052020
:1041100007F042FC8046834801236422D2210090AC
:10412000062007F039FC81467F4806F0FFF97E4BF8
:104130002246F021FA2005F086FE7B4B2A46F0212C
:10414000142005F080FE784B3246AA21142005F099
:104150007AFE754B3A46AA21822005F074FE724B16
:104160004246AA21FA2005F06EFE6F4B4A463C21DA
:10417000FA2005F068FEBDE8F88308B5FFF79AFF5E
:10418000002008F0C8FA05221421514808F099FED1
:1041900000214FF6FF7008F01DFA4E4808F037FA7C
:1041A0004DA24FF48C71142008F03FFC4FF668606C
:1041B0006423D2223C210090142008F025FF40F215
:1041C000FC406423D2223C210090FA2008F01CFF1E
:1041D0004FF6686008F015FA002008F00CFA42A2C9
:1041E0001E21462008F021FC002014233C228C21B3
:1041F00000905F2008F008FF40F2FC4008F001FA50
:104200003AA24FF48271462008F00FFC4FF6FF707F
:104210001E23D222F0210090142008F0F5FE4FF664
:10422000FF701E23D222F0210090FA2008F0ECFE4D
:104230004FF6686008F0DFF964233C22AA211420BD
:1042400008F03CFD64233C22AA21822008F036FDC0
:10425000D2233C22AA21FA2008F030FD244808F09D
:10426000D6F900214FF6FF7008F0B4F921A03C23E5
:104270006422AA210090142009F01EF91EA03C23FC
:104280006422AA210090822009F016F9114808F052
:10429000BEF91AA03C23D222AA210090FA2009F0EC
:1042A0000BF94FF6FF71002008F094F914481E2313
:1042B000D222F0210090FA2009F0FEF811481E23C6
:1042C000D22233E0F718000805190008640D002019
:1042D0007E980208440100205245515549524544F8
:1042E0002056414C55455300434C46007048000051
:1042F0003C0100202B0000002D0000004F4B00006F
:1043000060290008242500086400002060000020C7
:104310001519000825190008351900086319000847
:1043200095190008A3190008080E0020F02100903C
:10433000142009F0C1F84FF6FF71002008F04AF987
:10434000FE480121C26990471620FD490880FB48BC
:10435000FC49086008BD2DE9F843FB484FF6FF73A0
:104360001E22D2210090012007F016FB0446F748D8
:104370004FF6FF731E22D2210090022007F00CFBA3
:104380000546F34801235022D2210090032007F074
:1043900003FB0646EF4801235022D221009004205F
:1043A00007F0FAFA0746EC4800235022D221009089
:1043B000052007F0F1FA8046E84800235022D22178
:1043C0000090062007F0E8FA8146E54806F0AEF8CE
:1043D000E34B2246F021FA2005F035FDE04B2A465A
:1043E000F021142005F02FFDDD4B32463C21142036
:1043F00005F029FDDA4B3A463C21FA2005F023FD71
:10440000D74B42469621142005F01DFDD44B4A4659
:104410009621FA2005F017FDBDE8F88308B5FFF7EF
:104420009AFF002008F077F905221421CD4808F002
:1044300048FD00214FF6FF7008F0CCF8CA4808F09C
:10444000E6F8CA4A4FF4A571142008F0EEFA4FF6C8
:1044500068605023D2223C210090142008F0D4FD43
:1044600040F2FC405023D2223C210090FA2008F078
:10447000CBFDD22350229621142008F01FFCD2231A
:1044800050229621FA2008F019FC4FF6FF701E23E7
:10449000D222F0210090142008F0B6FD4FF6FF70F4
:1044A0001E23D222F0210090FA2008F0ADFDAE4884
:1044B00008F0ADF84FF66861002008F08BF8ACA06A
:1044C0003223D2223C210090142008F0F5FFA748A7
:1044D0003223D22255210090142008F0EDFF40F243
:1044E000FC41002008F076F8A4A03223D2223C211F
:1044F0000090FA2008F0E0FF9C483223D222552198
:104500000090FA2008F0D8FF00214FF6FF7008F065
:1045100061F89D483223D22296210090142008F0A1
:10452000CBFF9AA03223D222AF210090142008F0B2
:10453000C3FF99A03223D22296210090FA2008F0DE
:10454000BBFF92A03223D222AF210090FA2008F0C4
:10455000B3FF4FF6FF71002008F03CF88F481E2390
:10456000D222F0210090FA2008F0A6FF7F484030C8
:104570001E23D222F0210090142008F09DFF7848DD
:104580000121C269904717206D49088074486D4920
:10459000086008BD2DE9F84381484FF6FF731E22DD
:1045A000D2210090012007F0F7F904467D484FF62C
:1045B000FF731E22D2210090022007F0EDF905467C
:1045C000794805233C2264210090032007F0E4F998
:1045D0000646764805233C2264210090042007F01B
:1045E000DBF90746724805233C22D2210090184689
:1045F00007F0D2F980466F4805F098FF6D4B2246D0
:10460000F021FA2005F01FFC6A4B2A46F021142005
:1046100005F019FC674B3246AA21142005F013FC63
:10462000644B3A46AA21822005F00DFC614B4246BC
:10463000AA21FA2005F007FCBDE8F88308B5FFF7CA
:10464000A9FF002008F067F805221421454808F06A
:1046500038FC00214FF6FF7007F0BCFF424807F01E
:10466000D6FF55A2DC21142008F0DFF940F2FC400F
:104670006423D2223C210090FA2008F0C5FC0021DE
:104680004FF6FF7007F0A6FF514807F0C0FF51A298
:104690001E21462008F0C9F9AFF664121E215A20E7
:1046A00008F0C3F9AFF660121E216E2008F0BDF9C4
:1046B00040F2FC4007F0A5FF002007F09CFF2A48CD
:1046C00007F0A5FFAFF2DC324FF48271462008F00C
:1046D000ACF9002014233C228C21009040F24510BC
:1046E00008F092FC4FF6FF701E23D222F0210090BA
:1046F000142008F089FC4FF6FF701E23D222F0210F
:104700000090FA2008F080FC40F2FC4007F073FFB4
:1047100064233C22AA21142008F0D0FA64233C220E
:10472000AA21822008F0CAFAD2233C22AA21FA2028
:1047300008F0C4FA2A4807F06AFF53E0080E002088
:104740006400002060000020B3190008C3190008AD
:10475000D3190008EF1900080B1A00081B1A0008EB
:10476000AC0E00207E98020844010020E4240008DA
:10477000434C462050524F424500000070482050A4
:10478000524F424500000000A42D000854484552F5
:104790004D4F4D4554455200414952006029000893
:1047A0002B1A00083B1A00084B1A0008891A000847
:1047B000C71A0008500F002070482043414C49425E
:1047C000524154494F4E2050524F42450000000084
:1047D0006401002043616C6962726174696F6E00EC
:1047E0003C01002000214FF6FF7007F0F3FEAFF20E
:1047F000FC403C236422AA210090142008F05CFEB7
:10480000AFF20C503C236422AA210090822008F0D1
:1048100053FEFE4807F0FBFEAFF220503C23D222AD
:10482000AA210090FA2008F047FE4FF6FF71002001
:1048300007F0D0FEF6481E23D222F0210090FA2085
:1048400008F03AFEF3481E23D222F02100901420F3
:1048500008F032FE4FF6FF71002007F0BBFEEE4875
:104860000121C26990471820EC490880EA48EC49C8
:10487000086008BD2DE9F843EA484FF6FF731E2291
:10488000D2210090012007F087F80446E6484FF651
:10489000FF731E22D2210090022007F07DF805460A
:1048A000E24804233C2264210090032007F074F8BE
:1048B0000646DF4804233C2264210090184607F096
:1048C0006BF80746DB4804233C22D22100900520E8
:1048D00007F062F88046D84805F028FED64B2246FD
:1048E000F021FA2005F0AFFAD34B2A46F02114202C
:1048F00005F0A9FAD04B3246AA21142005F0A3FAFC
:10490000CD4B3A46AA21822005F09DFACA4B424679
:10491000AA21FA2005F097FABDE8F88308B5FFF759
:10492000A9FF002007F0F7FE05221421C34808F074
:10493000C8FA00214FF6FF7007F04CFEB34807F0AD
:1049400066FEBFA2D221142008F06FF84FF668600F
:104950006423D2223C210090FA2008F055FB00216C
:104960004FF6FF7007F036FEBB4807F050FEBBA2C3
:104970001E21462008F059F8BEA21E215A2008F038
:1049800054F8C3A21E216E2008F04FF84FF668605D
:1049900007F037FE002007F02EFEAFF2B4624FF4AE
:1049A0008271462008F041F8002014233C228C211B
:1049B000009040F2451008F027FB4FF6FF701E23D1
:1049C000D222F0210090142008F01EFB4FF6FF7059
:1049D0001E23D222F0210090FA2008F015FB4FF69A
:1049E000686007F008FE64233C22AA21142008F026
:1049F00065F964233C22AA21822008F05FF9D223C2
:104A00003C22AA21FA2008F059F9A74807F0FFFD37
:104A100000214FF6FF7007F0DDFDAFF228703C2358
:104A20006422AA210090142008F046FDAFF23870ED
:104A30003C236422AA210090822008F03DFD7348A7
:104A400007F0E5FDAFF24C703C23D222AA21009082
:104A5000FA2008F031FD4FF6FF71002007F0BAFD93
:104A60006B481E23D222F0210090FA2008F024FD8A
:104A700068481E23D222F0210090142008F01CFD6B
:104A80004FF6FF71002007F0A5FD6B480121C269B8
:104A9000904719206149088067486149086008BD4E
:104AA0002DE9F84381484FF6FF731E22D221009072
:104AB000012006F071FF04467D484FF6FF731E2269
:104AC000D2210090022006F067FF054679480423B2
:104AD0003C2264210090032006F05EFF06467648E3
:104AE00004233C2264210090184606F055FF074637
:104AF000724804233C22D2210090052006F04CFF8E
:104B000080466F4801236422D2210090062006F0DF
:104B100043FF81466B4805F009FD6A4B2246F021B0
:104B2000FA2005F090F9674B2A46F021142005F091
:104B30008AF9644B3246AA21142005F084F9614BAE
:104B40003A46AA21822005F07EF95E4B4246AA2110
:104B5000FA2005F078F95B4B4A463C21FA2005F033
:104B600072F9BDE8F88308B5FFF79AFF002007F057
:104B7000D2FD05221421314808F0A3F900214FF697
:104B8000FF7007F027FD214807F041FDAFF6B8029E
:104B90004FF48C71142007F048FF4FF668606423CF
:104BA000D2223C210090142008F02EFA40F2FC4062
:104BB0006423D2223C210090FA2008F025FA4FF617
:104BC000686007F01EFD002007F015FD114AAC3AA1
:104BD0001E21462007F029FF002014233C228C21AF
:104BE00000905F2008F010FA40F2FC4007F009FD49
:104BF000AFF608124FF48271462007F016FF4FF609
:104C0000FF701E23D222F02100905DE044010020BD
:104C10006029000824250008500F002064000020AF
:104C200060000020D51A0008E51A0008F51A0008EF
:104C3000231B00087B1B0008F40F00207E9802084D
:104C4000434C462043414C4942524154494F4E2027
:104C500050524F4245000000640100205468652016
:104C600063686C6F72696E6520636F6E74656E74D5
:104C700020696E00706F6F6C207761746572206DB3
:104C800075737420626520677265617465720000D7
:104C90007468616E20227265717569726564207630
:104CA000616C7565222E00003C010020891B000804
:104CB000991B0008A91B0008C71B0008DF1B000880
:104CC000E91B000898100020142008F09DF94FF609
:104CD000FF701E23D222F0210090FA2008F094F9F0
:104CE0004FF6686007F087FC64233C22AA21142059
:104CF00007F0E4FF64233C22AA21822007F0DEFFB4
:104D0000D2233C22AA21FA2007F0D8FFFE4807F060
:104D10007EFC00214FF6FF7007F05CFCAFF62C2004
:104D20003C236422AA210090142008F0C5FBAFF6B2
:104D300038203C236422AA210090822008F0BCFB8A
:104D4000F24807F064FCAFF64C203C23D222AA21A3
:104D50000090FA2008F0B0FB4FF6FF71002007F03A
:104D600039FCEB481E23D222F0210090FA2008F0F3
:104D7000A3FBE8481E23D222F0210090142008F063
:104D80009BFB4FF6FF71002007F024FCE248012155
:104D9000C26990471A20E1490880DF48E04908606D
:104DA00008BD2DE9F843DF484FF6FF731E22D221DC
:104DB0000090012006F0F0FD0446DB484FF6FF733B
:104DC0001E22D2210090022006F0E6FD0546D748BB
:104DD00005233C2264210090032006F0DDFD0646F9
:104DE000D34805233C2264210090042006F0D4FD22
:104DF0000746D04805233C22D2210090184606F0F1
:104E0000CBFD8046CC4801236422D22100900620AD
:104E100006F0C2FD8146C94805F088FBC74B224613
:104E2000F021FA2005F00FF8C44B2A46F021142097
:104E300005F009F8C14B3246AA21142005F003F809
:104E4000BE4B3A46AA21822004F0FDFFBB4B4246EE
:104E5000AA21FA2004F0F7FFB84B4A463C2114205F
:104E600004F0F1FFBDE8F88308B5FFF79AFF0020D2
:104E700007F051FC05221421B14808F022F8002166
:104E80004FF6FF7007F0A6FBA04807F0C0FBAFF697
:104E9000B8324FF48C71142007F0C7FD4FF66860EC
:104EA0006423D2223C210090142008F0ADF840F297
:104EB000FC406423D2223C210090FA2008F0A4F8A0
:104EC0004FF6686007F09DFB002007F094FB914AC5
:104ED000AC3A1E21462007F0A8FD40F2FC4007F046
:104EE00090FBAFF6F8324FF48271462007F09DFD3B
:104EF000002014233C228C21009040F2451008F041
:104F000083F84FF6FF701E23D222F0210090142068
:104F100008F07AF84FF6FF701E23D222F02100909D
:104F2000FA2008F071F840F2FC4007F064FB6423BB
:104F30003C22AA21142007F0C1FE64233C22AA21AE
:104F4000822007F0BBFED2233C22AA21FA2007F0E0
:104F5000B5FE6D4807F05BFB00214FF6FF7007F0D0
:104F600039FBAFF670403C236422AA210090142044
:104F700008F0A2FAAFF680403C236422AA210090F8
:104F8000822008F099FA614807F041FBAFF694409F
:104F90003C23D222AA210090FA2008F08DFA4FF685
:104FA000FF71002007F016FB59481E23D222F02182
:104FB0000090FA2008F080FA56481E23D222F021F1
:104FC0000090142008F078FA4FF6FF71002007F0E7
:104FD00001FB5A480121C26990471B204F490880B4
:104FE00056484F49086008BD2DE9F84355484FF62B
:104FF000FF731E22D2210090012006F0CDFC044652
:1050000051484FF6FF731E22D2210090022006F075
:10501000C3FC05464D4804233C2264210090032034
:1050200006F0BAFC06464A4804233C22642100905C
:10503000184606F0B1FC0746464804233C22D2211C
:105040000090052006F0A8FC804643480123642216
:10505000D2210090062006F09FFC81463F4805F0D3
:1050600065FA3E4B2246F021FA2004F0ECFE3B4B61
:105070002A46F021142004F0E6FE384B3246AA21DD
:10508000142004F0E0FE354B3A46AA21822004F0B9
:10509000DAFE324B4246AA21FA2004F0D4FE2F4B0E
:1050A0004A463C21FA2004F0CEFEBDE8F88308B55C
:1050B000FFF79AFF002007F02EFB0522142120485D
:1050C00007F0FFFE00214FF6FF7007F083FA0F484C
:1050D00007F09DFAAFF600624FF48C71142007F0D0
:1050E000A4FC4FF668606423D2223C210090142077
:1050F00007F08AFF40F2FC406423D2223C2100905A
:10510000FA2007F081FF2BE03C0100204401002041
:105110006029000824250008981000206400002061
:1051200060000020F91B0008091C0008191C000879
:10513000471C0008791C0008871C00083C1100204F
:105140007E980208971C0008E11C0008F11C00086A
:10515000091D0008231D00082D1D0008E011002076
:105160004FF6686007F04DFA002007F044FAFE4A57
:105170001E21462007F059FCFB4A083278214620C0
:1051800007F053FC002014233C228C2100905F2068
:1051900007F03AFF40F2FC4007F033FAAFF6B46292
:1051A0004FF48271462007F040FC4FF6FF701E233B
:1051B000D222F0210090142007F026FF4FF6FF7056
:1051C0001E23D222F0210090FA2007F01DFF4FF697
:1051D000686007F010FA64233C22AA21142007F02B
:1051E0006DFD64233C22AA21822007F067FDD223B3
:1051F0003C22AA21FA2007F061FDDC4807F007FAFB
:1052000000214FF6FF7007F0E5F9AFF618703C2368
:105210006422AA210090142008F04EF9AFF62870FD
:105220003C236422AA210090822008F045F9D0484E
:1052300007F0EDF9AFF63C703C23D222AA21009092
:10524000FA2008F039F94FF6FF71002007F0C2F993
:10525000C8481E23D222F0210090FA2008F02CF931
:10526000C148A0301E23D222F0210090142008F063
:1052700023F94FF6FF71002007F0ACF9BE48012179
:10528000C26990471C20BD490880BB48BC490860E2
:1052900008BD2DE9F843BB484FF6FF731E22D2210B
:1052A0000090012006F078FB0446B7484FF6FF73E4
:1052B0001E22D2210090022006F06EFB0546B34864
:1052C00005233C2264210090032006F065FB06467E
:1052D000AF4805233C2264210090042006F05CFBCB
:1052E0000746AC4805233C22D2210090184606F020
:1052F00053FB8046A84801236422D2210090062057
:1053000006F04AFB8146A54805F010F9A34B22465A
:10531000F021FA2004F097FDA04B2A46F02114203A
:1053200004F091FD9D4B3246AA21142004F08BFD20
:105330009A4B3A46AA21822004F085FD974B4246BB
:10534000AA21FA2004F07FFD944B4A463C21142008
:1053500004F079FDBDE8F88308B5FFF79AFF002057
:1053600007F0D9F9052214218D4807F0AAFD002184
:105370004FF6FF7007F02EF97D4807F048F9894A8B
:105380004FF48C71142007F050FB4FF668606423D3
:10539000D2223C210090142007F036FE40F2FC405F
:1053A0006423D2223C210090FA2007F02DFE4FF614
:1053B000686007F026F9002007F01DF96A4A1E21EF
:1053C000462007F032FB684A08327821462007F071
:1053D0002CFB40F2FC4007F014F973A24FF48271E9
:1053E000462007F022FB002014233C228C21009051
:1053F00040F2451007F008FE4FF6FF701E23D22240
:10540000F0210090142007F0FFFD4FF6FF701E23DF
:10541000D222F0210090FA2007F0F6FD40F2FC4085
:1054200007F0E9F864233C22AA21142007F046FC87
:1054300064233C22AA21822007F040FCD2233C2294
:10544000AA21FA2007F03AFC484807F0E0F80021CA
:105450004FF6FF7007F0BEF854A03C236422AA2147
:105460000090142008F028F851A03C236422AA21BF
:105470000090822008F020F83D4807F0C8F84DA0C1
:105480003C23D222AA210090FA2008F015F84FF60A
:10549000FF71002007F09EF836481E23D222F0212B
:1054A0000090FA2008F008F82F48A0301E23D222DE
:1054B000F0210090142007F0FFFF4FF6FF7100204D
:1054C00007F088F835480121C26990471D202B4913
:1054D000088032482A49086008BD2DE9F84336485B
:1054E0004FF6FF731E22D2210090012006F054FADD
:1054F000044632484FF6FF731E22D221009002204C
:1055000006F04AFA05462E4808233C226421009002
:10551000032006F041FA06462A4808233C2264216B
:105520000090042006F038FA0746274808233C225A
:10553000D2210090052006F02FFA8046234801234F
:105540006422D2210090062006F026FA81462048E7
:1055500004F0ECFF1E4B2246F021FA2004F073FC0D
:105560001B4B2A46F02135E0842400083C01002032
:105570004401002060290008E011002064000020A0
:10558000600000203D1D00084D1D00085D1D000845
:105590008B1D0008BD1D0008CB1D000884120020D3
:1055A0007E980208D8420008704800002B000000D6
:1055B0002D0000004F4B0000DB1D0008EB1D000814
:1055C000FB1D0008131E00082D1E0008371E0008D2
:1055D00028130020142004F036FCFE4B3246AA218A
:1055E000142004F030FCFB4B3A46AA21822004F040
:1055F0002AFCF84B4246AA21FA2004F024FCF54B81
:105600004A463C21FA2004F01EFCBDE8F88308B5A8
:10561000FFF763FF002007F07EF805221421EE4813
:1056200007F04FFC00214FF6FF7006F0D3FFEB4868
:1056300006F0EDFFEA4A4FF48C71142007F0F5F9FB
:1056400045F2AA206423D2223C210090142007F0C6
:10565000DBFC40F2FC406423D2223C210090FA2083
:1056600007F0D2FC45F2AA2006F0CBFF002006F09E
:10567000C2FFDC4A1E21462007F0D7F9D94A14326E
:105680008221462007F0D1F9002014233C228C21EE
:1056900000905F2007F0B8FC40F2FC4006F0B1FF3C
:1056A000AFF2FC024FF48271462007F0BEF94FF6CC
:1056B000FF701E23D222F0210090142007F0A4FCDA
:1056C0004FF6FF701E23D222F0210090FA2007F03F
:1056D0009BFC45F2AA2006F08EFF64233C22AA21FF
:1056E000142007F0EBFA64233C22AA21822007F061
:1056F000E5FAD2233C22AA21FA2007F0DFFABA48C1
:1057000006F085FF00214FF6FF7006F063FFAFF251
:1057100064103C236422AA210090142007F0CCFEE0
:10572000AFF274103C236422AA210090822007F07B
:10573000C3FEAA4806F06BFFAFF288103C23D222CA
:10574000AA210090FA2007F0B7FE4FF6FF71002063
:1057500006F040FFA5481E23D222F0210090FA2037
:1057600007F0AAFE9F48A0301E23D222F02100900D
:10577000142007F0A1FE4FF6FF71002006F02AFF6B
:1057800094480121C26990471E2099490880914898
:105790009849086008BD2DE9F84397484FF6FF7314
:1057A0001E22D2210090012006F0F6F8044693480C
:1057B0004FF6FF731E22D2210090022006F0ECF873
:1057C00005468F4805233C2264210090032006F003
:1057D000E3F806468B4805233C2264210090042010
:1057E00006F0DAF80746884805233C22D2210090CB
:1057F000184606F0D1F88046844801236422D2215D
:105800000090062006F0C8F88146814804F08EFE1C
:105810007F4B2246F021FA2004F015FB7C4B2A46F0
:10582000F021142004F00FFB794B3246AA211420FA
:1058300004F009FB764B3A46AA21822004F003FBD0
:10584000734B4246AA21FA2004F0FDFA704B4A46F7
:105850003C21142004F0F7FABDE8F88308B5FFF7FF
:105860009AFF002006F057FF052214215A4807F03E
:1058700028FB00214FF6FF7006F0ACFE574806F0FB
:10588000C6FE574A4FF48C71142007F0CEF845F24B
:10589000AA206423D2223C210090142007F0B4FBFC
:1058A00040F2FC406423D2223C210090FA2007F011
:1058B000ABFB45F2AA2006F0A4FE002006F09BFEFA
:1058C000484A1E21462007F0B0F8464A1432822189
:1058D000462007F0AAF840F2FC4006F092FEAFF234
:1058E00038324FF48271462007F09FF800201423CD
:1058F0003C228C21009040F2451007F085FB4FF6CA
:10590000FF701E23D222F0210090142007F07CFBB0
:105910004FF6FF701E23D222F0210090FA2007F0EC
:1059200073FB40F2FC4006F066FE64233C22AA2191
:10593000142007F0C3F964233C22AA21822007F037
:10594000BDF9D2233C22AA21FA2007F0B7F9264854
:1059500006F05DFE00214FF6FF7006F03BFEAFF251
:10596000B4303C236422AA210090142007F0A4FD47
:10597000AFF2C4303C236422AA210090822007F0B9
:105980009BFD164806F043FEAFF2D8303C23D222EE
:10599000AA210090FA2007F08FFD4FF6FF7100203A
:1059A00006F018FE11481E23D222F0210090FA20A2
:1059B00007F082FD0B48A0301E23D222F021009078
:1059C000142007F079FD4FF6FF71002006F002FE6B
:1059D0000F481FE0281300207E9802084401002091
:1059E000D8420008842400083C01002060290008F7
:1059F0006400002060000020471E0008571E0008B9
:105A0000671E0008951E0008C31E0008D11E00086E
:105A1000CC1300200121C26990471F20FD49088056
:105A2000FD48FE49086008BD2DE9F843FC484FF6E3
:105A3000FF731E22D2210090012005F0ADFF044625
:105A4000F8484FF6FF731E22D2210090022005F085
:105A5000A3FF0546F44808233C226421009003205C
:105A600005F09AFF0646F14808233C226421009085
:105A7000042005F091FF0746ED4808233C22D2217F
:105A80000090052005F088FF8046EA4804F04EFDAE
:105A9000E84B2246F021FA2004F0D5F9E54B2A46DE
:105AA000F021142004F0CFF9E24B3246AA21142051
:105AB00004F0C9F9DF4B3A46AA21822004F0C3F969
:105AC000DC4B4246AA21FA2004F0BDF9BDE8F88378
:105AD00008B5FFF7A9FF002006F01DFE05221421DE
