:020000040800F2
:10000000A81101207D200208E50D0008E70D000879
:10001000EB0D0008EF0D0008F30D000800000000D4
:10002000000000000000000000000000A90200081D
:10003000F70D000800000000FD0200088D1E0208F8
:1000400097200208972002089720020897200208AC
:10005000972002089720020897200208972002089C
:10006000972002089720020897200208972002088C
:10007000972002089720020897200208972002087C
:10008000972002089720020897200208972002086C
:10009000972002089720020897200208972002085C
:1000A000972002089720020897200208972002084C
:1000B0003B0E00083D0E00083F0E00089720020886
:1000C000972002089720020897200208972002082C
:1000D000972002089720020897200208972002081C
:1000E000972002089720020897200208972002080C
:1000F00097200208972002089720020897200208FC
:100100009720020897200208410E00089720020855
:1001100097200208972002089720020897200208DB
:1001200097200208972002089720020897200208CB
:1001300097200208F90D000897200208972002086E
:1001400097200208972002089720020897200208AB
:10015000972002089720020897200208972002089B
:10016000972002089720020897200208972002088B
:10017000972002089720020897200208972002087B
:10018000972002089720020800F002F800F07CF89F
:100190000AA090E8000C82448344AAF10107DA45E2
:1001A00001D100F071F8AFF2090EBAE80F0013F0B8
:1001B000010F18BFFB1A43F00103184754770500DD
:1001C000747705000A444FF0000C10F8013B13F05F
:1001D000070408BF10F8014B1D1108BF10F8015BA0
:1001E000641E05D010F8016B641E01F8016BF9D193
:1001F00013F0080F1EBF10F8014BAD1C0C1B09D1EA
:100200006D1E58BF01F801CBFAD505E014F8016B5B
:1002100001F8016B6D1EF9D59142D6D370470000ED
:100220000023002400250026103A28BF78C1FBD8FF
:10023000520728BF30C148BF0B607047662926F0BF
:10024000A483642921F0F487752921F0F1876329BB
:1002500022F08B85002070471FB526F08CFB9DE8AF
:10026000030022F0B3FA22F053FE04000020002124
:1002700025F0E2FC401C60600020002125F0C6FC57
:10028000E0601FBD10B510BD22F0D4FF1146FFF78E
:10029000E3FF00F0EFFB23F053FA03B4FFF7F2FFA4
:1002A00003BC23F081FA00002A4B19680868B0E803
:1002B000F04F80F30988BFF36F8F4FF0000080F399
:1002C000118870470000000006480068006880F34D
:1002D000088862B661B6BFF34F8FBFF36F8F00DF40
:1002E00000BF00BF08ED00E0DFF80C00016841F43A
:1002F00070010160704700BF88ED00E0EFF30980F6
:10030000BFF36F8F134B1A681EF0100F08BF20ED5C
:10031000108A20E9F04F106008B44FF0500080F3CD
:100320001188BFF34F8FBFF36F8F20F0A0FC4FF009
:10033000000080F3118808BC19680868B0E8F04F25
:100340001EF0100F08BFB0EC108A80F30988BFF3CD
:100350006F8F7047E0030020EFF3058070470000C7
:100360000EB50121082013F0C2FC5020019000209E
:10037000ADF80000ADF80800ADF802006946FB4892
:1003800013F0A1FF0021F94813F0FCFF0121F74809
:1003900014F062FC01221146F44814F035FC0021EF
:1003A000F24814F019F80EBD10B50446F048048068
:1003B000FFF7D6FF0021ED4813F0CEFF0121EB48F7
:1003C00014F00AF800BFEA4800880028FBD1002199
:1003D000E64814F001F810BD2DED108B84B0002418
:1003E000002500BF002003F091FBDFEDE20A80EE64
:1003F000201A11EE106A304626F04CFA41EC190B27
:100400009FEDDD0B53EC102B26F05AF941EC180B45
:100410009FEDDB0B53EC102B25F01EFDDA4A02EBAF
:10042000C40203C2062003F071FB10EE106A3046CE
:1004300026F030FA41EC190B9FEDD40B53EC102B46
:1004400026F03EF941EC180B9FEDD20B53EC102B2C
:1004500025F002FDD14A02EBC40203C2042C02DAE9
:10046000601CC4B2B7E00024002529E0C64800EBB8
:10047000C50090ED001BB0EE410AF0EE610A53ECAE
:10048000102BC74890ED001B51EC110B25F028FCF8
:10049000C34A03C2C14800EBC50090ED001BB0EE9B
:1004A000410AF0EE610A53EC102BBE4890ED001BA0
:1004B00051EC110B25F014FCBA4A03C2681CC5B2FA
:1004C000052DD3DB03F0ACFBCC2003F060FC442013
:1004D00003F04EFC6420FFF767FF03F0A1FBCC2084
:1004E00003F055FCBE2003F043FC03F056FC10EE75
:1004F000106A304626F0CEF9AB4A03C29FEDAB0B33
:1005000053EC102BA64890ED000B51EC100B25F08E
:10051000A3FCA84A03C29FEDA50B53EC102BA148E6
:1005200090ED000B51EC100B25F096FCA24A03C293
:100530009FEDA20B9B4880ED000B994880ED000BCE
:10054000994890ED000B03F031FBB0EE409AF0EECD
:10055000609A9C4890ED000B53EC102B954890ED61
:10056000000B51EC100B26F0ABF841EC1A0B53ECDE
:10057000192B25F071FC41EC180B934890ED000B02
:1005800053EC102B51EC180B25F0AAFB8F4A03C239
:10059000894890ED000B53EC102B8DA18D4821F074
:1005A000E3FD00208B49C870884890ED000B53ECA8
:1005B000102B89A18A4821F0D7FD00208849C870F6
:1005C000794890ED000B51EC100B25F057FB854955
:1005D0000860854908608548007800287DD18448F6
:1005E0000068002879D18348006826F053F941EC6F
:1005F000180B814890ED000AFAEE0C0A30EE200A42
:1006000010EE101A084626F045F941EC1D0BB0EE2D
:100610004D1AF0EE6D1A9FED790B23F0E1FFB0EE6D
:1006200040BAF0EE60BA774890ED000B51EC100B39
:1006300025F018FB41EC1D0BB0EE4D1AF0EE6D1AD3
:100640009FED6E0B23F0CCFFB0EE40CAF0EE60CA17
:1006500053EC1B2B51EC1C0B25F042FB41EC190B0E
:10066000684890ED000B51EC100B25F0FBFA41ECC3
:100670001F0BB0EE4F1AF0EE6F1A9FED600B23F0D8
:10068000AFFFB0EE40DAF0EE60DA504890ED000BCC
:1006900051EC100B25F0E6FA41EC1F0BB0EE4F1AAF
:1006A000F0EE6F1A9FED550B23F09AFFB0EE40EA83
:1006B000F0EE60EA53EC1D2B51EC1E0B26F000F817
:1006C00041EC1B0B5048007825F09EFD41EC1C0BC3
:1006D00053EC1B2B25F0E8FD00E019E041EC1A0B70
:1006E00053EC192B25F0B8FB53EC182BCDE9000186
:1006F0009DED000B51EC100B25F0AEFBCDE9020196
:100700009DED020B51EC100B25F03AFD38490860C5
:10071000322020F09BF965E600BF3C480078401C81
:100720003A4908703A480078002805DD38480078D2
:10073000401E3749087002E00120364908703348EE
:1007400000783B286EDD34480078401C3249087040
:1007500000202E4908702548007800285EDD2348D7
:100760000078401E214908705CE00000000C004049
:100770004800002000007A442DB29DEFA7C6F93F43
:10078000DF7A2949920416C08804002066666666EE
:10079000668652403C448A9EE789024060040020FD
:1007A0005800002050000020400000200000000001
:1007B000000014401800002020000020000000006D
:1007C0000000000038000020D800002010000020A9
:1007D000253366009900002025312E316600000087
:1007E0009D000020080100200401002002000020DC
:1007F00030000020280000202C0000200000000015
:1008000000002440F0000020D1000020B6000020AD
:10081000A100002098000020B5000020CC480078FE
:10082000CC490870CC4800783B2807DDCB480078DD
:10083000401CCA4908700020C7490870C7480078A2
:10084000172806DD0020C5490870C3490870C4494F
:1008500008704FF47A7020F0F9F85EE700BFC148E5
:10086000008803287CD1C0480078002879D001286E
:100870007AD0022848D0032875D1BC4890ED000AF0
:10088000B8EE400ABA48D0ED000A20EE200ADFEDAB
:10089000B90AB4EEE00AF1EE10FA09D21022B64914
:1008A000012003F077F9B1480068401CAF490860A7
:1008B000B24890ED000AB8EE400AAD48D0ED000A0B
:1008C00020EE200ADFEDAE0AB4EEE00AF1EE10FAF7
:1008D00009D22022A849012003F05CF9A74800684A
:1008E000401CA6490860012020F0B0F81022A2495F
:1008F000002003F04FF920229F49002003F04AF91D
:10090000032020F0A3F867E0984890ED000AB8EEC5
:10091000400A9748D0ED000A20EE200ADFED950A44
:10092000B4EEE00AF1EE10FA09D210229249012049
:1009300003F030F98D480068401C8C4908600120A4
:1009400020F084F810228C49002003F023F90320C2
:1009500020F07CF820228849002003F01BF93BE0BE
:100960003CE02DE000E036E010228349002003F057
:1009700011F9824890ED000AB8EE400A7C48D0EDAB
:10098000000A20EE200ADFED7E0AB4EEE00AF1EE66
:1009900010FA09D220227849012003F0FBF87748A9
:1009A0000068401C75490860012020F04FF82022A3
:1009B0007149002003F0EEF8032020F047F80BE027
:1009C00010226D49002003F0E5F820226A4900203A
:1009D00003F0E0F800E000BF00BF1DE069480068D8
:1009E00048B120226449012003F0D4F8654800682A
:1009F000401E64490860012020F028F810225E495A
:100A0000002003F0C7F820225B49002003F0C2F861
:100A1000032020F01BF800BF21E700BF0FF053FDBB
:100A20000DF0B4FC0DF08DFD02F008FDF6E71CB5ED
:100A3000002011F01BFA012011F018FA022011F029
:100A400015FA032011F012FA0121022013F01CF90B
:100A5000012000908DF8040000208DF8060003208E
:100A60008DF8050001208DF807006946464812F010
:100A7000C9FE1CBD1CB54FF4E13144480DF07AFEAF
:100A8000FFF7D5FF0EF09EFA002008F0B8FC0FF03B
:100A90006CFB03F067F803F003F811F03FF901F085
:100AA000D2FFFFF75DFC02F0DAF804F082F900F003
:100AB000DBFA00F0D3F94FF4407011F02DFE01F095
:100AC00043FF0020012103460A02CDE9001030A1B6
:100AD000AFF2B9001FF095FD0020012103468022EE
:100AE000CDE900102CA1AFF28B201FF08AFD002071
:100AF000012103468022CDE900102BA1AFF2E7309F
:100B00001FF07FFD0020022103468022CDE9001066
:100B100027A1AFF23B701FF074FD20F072FA00BF06
:100B2000FEE700BF502080F31188BFF34F8FBFF363
:100B30006F8F00BF21F093FA0446214620A00DF0EC
:100B4000C6FE00BFFEE7704710B50DF017FD10BDE3
:100B5000D200002002000020B5000020B4000020D8
:100B6000B600002064010020C90000200800002019
:100B7000280000200000C8430000024004000020BC
:100B800000004843300000200004024000100140F3
:100B90004C43445461736B004163747561746F72AC
:100BA0005461736B00000000436C6F636B000000C6
:100BB000526561645F70485F5265646F7800000041
:100BC000667265654865617073697A65203D2025A8
:100BD000640A00000CB5002001900090764800687F
:100BE00040F480307449086000BF7348006800F426
:100BF000003000900198401C0190009818B90198AD
:100C0000B0F5A06FF1D16C48006800F4003010B16D
:100C10000120009001E0002000900098012846D1BA
:100C200065484030006840F08050634940310860BA
:100C30006248006840F48040604908605E480830BF
:100C400000685D49083108600846006840F40040CB
:100C500008600846006840F4A05008605848091F22
:100C60000860081F006840F08070091F086000BF1E
:100C70005148006800F000700028F9D040F20520CB
:100C8000504908604C480830006820F003004A4989
:100C9000083108600846006840F00200086000BFA4
:100CA00045480830006800F00C000828F8D10CBD59
:100CB00010B54548006840F47000434908603E485C
:100CC000006840F001003C49086000203A490831C2
:100CD0000860394800683D490840374908603C4889
:100CE000091D0860081F006820F48020091F0860A3
:100CF000002031490C310860FFF76CFF4FF00060B5
:100D000031498039086010BD70B5002000220223EF
:100D100000240221284D08352D6805F00C0020B173
:100D2000042806D0082834D107E02A4D2A4E356021
:100D300033E02A4D284E35602FE01F4D2D1D2D68C4
:100D4000C5F380541C4D2D1D2D6805F03F0154B195
:100D5000224DB5FBF1F5184E361D3668C6F38816E0
:100D600005FB06F209E01B4DB5FBF1F5124E361DF1
:100D70003668C6F3881605FB06F20F4D2D1D2D684B
:100D8000C5F301456D1C6B00B2FBF3F5124E3560E7
:100D900003E0104D104E356000BF00BF064D083512
:100DA0002D68C5F303150E4E705D0B4D2D68C540C3
:100DB000094E356070BD00000038024000700040F0
:100DC00019544007003C024088ED00E0FFFFF6FEAA
:100DD000103000240024F4006000002040787D01E1
:100DE00064000020704700BFFEE700BFFEE700BFC1
:100DF000FEE700BFFEE7704708B5002000904020E6
:100E000015F00DFA012804D16946114800681FF059
:100E10003AF9402015F027FA4FF4803015F023FA04
:100E2000009848B1009838B14FF0805009490860E7
:100E3000BFF34F8FBFF36F8F08BD70477047704788
:100E400010B50121044813F007FF01F07EFE10BD2C
:100E5000D403002004ED00E0000C004000B58DB08C
:100E60000021084617F09AFE1D481DF0F1FA0C907B
:100E70006FF0FF001DF0ECFA0B90194815381DF0CB
:100E8000E7FA0A9016208DF8240001208DF825003D
:100E9000A8208DF82600C0208DF827009DF824009A
:100EA0009DF82510CDE900109DF826309DF82720EB
:100EB0000CA104A821F058F90E480F4900220AABF2
:100EC000CDE9002102900BAA0CA90C4819F01FFAD9
:100ED0000A4819F05CFA094819F0A9FA0DB000BDEA
:100EE0001601A8C0202025642E25642E25642E25F9
:100EF000640000004D8A010881F50108B00400205B
:100F000000B5AFB001214FF0606012F0BDFE14F0EB
:100F1000E7FB15F073F900BF15F077F90128FBD056
:100F2000684614F0E8FB01200090002007904FF481
:100F300000700A9000200B900E9011901390149066
:100F4000159020904FF00070219000112390002008
:100F50002590269004202890C005299040122A90C0
:100F600080012B9040122C9040002E900121684669
:100F700014F07BFC434908600121434815F05CF9FB
:100F80002FB000BD08B54FF4A06011F0C5FB3D20A7
:100F90008DF8000002208DF8010000208DF802007D
:100FA00001208DF80300684611F0BBFB08BD1CB59D
:100FB0000121472012F068FE0121880312F0A8FEEB
:100FC000012012F0CEFF8E20009003208DF8050046
:100FD00002208DF8040000208DF806008DF807002F
:100FE00069462A4812F00EFC0B220121274812F014
:100FF00094FC0B220221254812F08FFC0B220321C6
:10100000224812F08AFC0B220721204812F085FCAE
:101010004FF46050009069461D4812F0F3FB0B221C
:1010200011461B4812F079FC0B220C21184812F0D3
:1010300074FC0B220D21164812F06FFC3220009038
:101040006946144812F0DEFB0B220121114812F010
:1010500064FC0B2204210F4812F05FFC0B220521D7
:101060000C4812F05AFC1CBD10B5FFF7A0FFFFF7AB
:1010700089FFFFF745FF0348006808B900BFFEE796
:1010800010BD00007400002040000100000002407C
:101090000004024000080240002114E001EB41007E
:1010A0003D4A02EBC000007D60B9012001EB410226
:1010B000394B03EBC202107501EB41001A4602EBFB
:1010C000C0007047491C0A29E8DB0020F9E710B589
:1010D000014600200FE000EB40022F4B03EBC20261
:1010E0008A4207D1002200EB40032B4C04EBC303E0
:1010F0001A7502E0401C0A28EDDB00BF10BD70B578
:101100000646FFF7C9FF05460DB9002070BD234C08
:1011100011E03046616821F0F5FA58B9A0682860FE
:10112000E0686860E068A8600020E860207C2874BF
:101130002846EBE72468002CEBD12846FFF7C7FFD1
:101140000020E3E710B504462046FFF7C0FF10BDBE
:101150002DE9F04104460F461646D4E901108842B5
:1011600003D14FF0FF30BDE8F081D4E90101451A09
:10117000B54200DD3546A268206881182A46384607
:1011800021F0FEF9A0682844A0602846EBE701465C
:10119000D1E90102801A7047E80400203C130308DB
:1011A00070B504467E4821F075F905462A467C490B
:1011B000204616F0D0FE70BD70B5044640F6AC5126
:1011C000784821F02AFA78A1764821F0CDF978A163
:1011D000744821F0C9F978A1724821F0C5F97DA1C0
:1011E000704821F0C1F987A16E4821F0BDF990A1A6
:1011F0006C4821F0B9F995A16A4821F0B5F99EA192
:10120000684821F0B1F99FA1664821F0ADF99EA18F
:10121000644821F0A9F9A2A1624821F0A5F9A8A18A
:10122000604821F0A1F9AEA15E4821F09DF9ADA181
:101230005C4821F099F9ADA15A4821F095F9BBA17C
:10124000584821F091F9BEA1564821F08DF9C0A16E
:10125000544821F089F9C3A1524821F085F9C4A16D
:10126000504821F081F99EA14E4821F07DF9C3A19B
:101270004C4821F079F9C2A14A4821F075F9C6A17C
:10128000484821F071F9C8A1464821F06DF9CCA178
:10129000444821F069F9D1A1424821F065F990A1B3
:1012A000404821F061F9D5A13E4821F05DF9D9A16E
:1012B0003C4821F059F98AA13A4821F055F9D9A1C1
:1012C000384821F051F9DBA1364821F04DF9DFA172
:1012D000344821F049F9E2A1324821F045F9E3A16F
:1012E000304821F041F97EA12E4821F03DF9E3A1DB
:1012F0002C4821F039F9E3A12A4821F035F9E6A17B
:10130000284821F031F9E8A1264821F02DF9EDA176
:10131000244821F029F9D2A1224821F025F970A111
:10132000204821F021F9EBA11E4821F01DF9ECA184
:101330001C4821F019F9EDA11A4821F015F98CA1EA
:10134000184821F011F987A1164821F00DF964A180
:10135000144821F009F9EBA1124821F005F9EDA19B
:10136000104821F001F9F0A10E4821F0FDF8F2A19A
:101370000C4821F0F9F8F5A10A4821F0F5F8FAA196
:10138000084821F0F1F8B1A1064821F0EDF854A188
:10139000044821F0E9F8FBA1024821F0E5F8F9E161
:1013A0003D190308D80700203C68746D6C3E0000AE
:1013B000203C686561643E00203C7469746C653E45
:1013C000576562207365727665723C2F7469746C20
:1013D000653E0000203C6D657461206E616D653D69
:1013E000226465736372697074696F6E2220636F23
:1013F0006E74656E743D22576562736572766572B0
:10140000222F3E00203C6D657461206E616D653D4C
:10141000226B6579776F72642220636F6E74656EDC
:10142000743D227562756E7475222F3E00000000B7
:10143000203C6D65746120636861727365743D2240
:101440007574662D38222F3E00000000203C6D652B
:10145000746120687474702D65717569763D2272AF
:101460006566726573682220636F6E74656E743D85
:101470002233223E00000000203C7374796C653EEC
:10148000000000002A207B00626F782D73697A6962
:101490006E673A20626F726465722D626F783B00EE
:1014A0002D6D6F7A2D626F782D73697A696E673A48
:1014B00020626F726465722D626F783B00000000DD
:1014C0002D7765626B69742D626F782D73697A6907
:1014D0006E673A20626F726465722D626F783B00AE
:1014E0007D000000626F6479207B0000666F6E747F
:1014F0002D66616D696C793A202248656C76657459
:1015000069616361204E657565222C2048656C76A3
:101510006574696163612C20417269616C2C207370
:10152000616E732D73657269663B0000666F6E7441
:101530002D7765696768743A2033303070783B00E6
:10154000636F6C6F723A20233333333B000000002B
:101550006C696E652D6865696768743A20312E3252
:1015600035343B006D617267696E3A20303B000094
:1015700070616464696E673A20303B0061207B00D3
:10158000746578742D6465636F726174696F6E3A07
:10159000206E6F6E653B0000636F6C6F723A2023A4
:1015A0003362386262613B007472616E73666F729F
:1015B0006D3A20616C6C20302E35733B00000000CA
:1015C0002D6D6F7A2D7472616E73666F726D3A2035
:1015D000616C6C20302E35733B0000002D77656206
:1015E0006B69742D7472616E73666F726D3A2061EF
:1015F0006C6C20302E35733B00000000613A686F40
:101600007665722C20613A76697369746564207B13
:1016100000000000636F6C6F723A2023323635375A
:1016200037383B0023636F6E7461696E6572207B8F
:101630000000000070616464696E672D6C656674FB
:101640003A2031353070783B00000000706F7369CC
:1016500074696F6E3A2072656C61746976653B00DF
:101660006C6566743A20303B000000007769647452
:10167000683A20313030253B00000000236D656E54
:1016800075207B00706F736974696F6E3A206669AC
:101690007865643B000000006865696768743A20FB
:1016A000313030253B0000006261636B67726F75FB
:1016B0006E642D636F6C6F723A202331393138318B
:1016C000383B000077696474683A203135307078AF
:1016D0003B000000236D656E75207B7D00000000DF
:1016E000236D656E7520756C7B0000006C697374EA
:1016F0002D7374796C652D747970653A206E6F6EF8
:10170000653B0000236D656E7520756C206C69204B
:101710007B0000006C696E652D6865696768743AC6
:1017200020322E39656D3B006865696768743A2020
:10173000322E39656D3B20007472616E7369746975
:101740006F6E3A20616C6C2031733B002D6D6F7AA7
:101750002D7472616E736974696F6E3A20616C6C7E
:101760002031733B000000002D7765626B69742D9A
:101770007472616E736974696F6E3A20616C6C206B
:1017800031733B00236D656E7520756C206C69208C
:1017900061207B0095A1994820F0E6FE98A197482A
:1017A00020F0E2FE9AA1954820F0DEFE9CA193482D
:1017B00020F0DAFEAFF2D821904820F0D5FEA0A1AB
:1017C0008E4820F0D1FEA3A18C4820F0CDFEAFF2D0
:1017D000F0218A4820F0C8FEA5A1884820F0C4FE68
:1017E000A8A1864820F0C0FEAAA1844820F0BCFE33
:1017F000ADA1824820F0B8FEAFF2C0117F4820F0C2
:10180000B3FEAFF25C117D4820F0AEFEAFF2303196
:101810007A4820F0A9FEA6A1784820F0A5FE73A181
:10182000764820F0A1FEAFF24831744820F09CFECB
:10183000A7A1724820F098FEA8A1704820F094FE5D
:10184000AFF264316D4820F08FFEA9A16B4820F003
:101850008BFEAEA1694820F087FEAFF27C3167486D
:1018600020F082FEAFA1654820F07EFEB0A1634863
:1018700020F07AFEB6A1614820F076FEB9A15F485B
:1018800020F072FEBBA15D4820F06EFEAFF2B031D9
:101890005A4820F069FEBCA1584820F065FEBFA15F
:1018A000564820F061FEC2A1544820F05DFEC7A159
:1018B000524820F059FEAFF2D831504820F054FE83
:1018C000C9A14E4820F050FEC9A14C4820F04CFE62
:1018D000CCA14A4820F048FEAFF2FC31474820F046
:1018E00043FECDA1454820F03FFECEA1434820F065
:1018F0003BFED0A1414820F037FED1A13F4820F067
:1019000033FEAFF224413D4820F02EFED0A13B48EB
:1019100020F02AFED4A1394820F026FED6A137486F
:1019200020F022FEAFF24841344820F01DFED7A13E
:10193000324820F019FEBBA1304820F015FEAFF26E
:1019400060412E4820F010FED4A12C4820F00CFE5F
:10195000D5A12A4820F008FED7A1284820F004FE8F
:10196000DDA1264820F000FEDFA1244820F0FCFD88
:10197000AFF29441214820F0F7FDE0491F4820F0E4
:10198000F3FDDF491D4820F0EFFDDEA11B4820F0EC
:10199000EBFDDFA1194820F0E7FDE0A1174820F09A
:1019A000E3FDE0A1154820F0DFFDE4A1134820F09D
:1019B000DBFDE7A1114820F0D7FDE7A10F4820F09B
:1019C000D3FDEFA10D4820F0CFFDF8A10B4820F08A
:1019D000CBFDF8A1094820F0C7FDF8A1074820F089
:1019E000C3FDFBA1054820F0BFFDFBE164697370F6
:1019F0006C61793A20626C6F636B3B00D807002002
:101A0000636F6C6F723A20236666663B00000000CD
:101A100070616464696E673A20302031656D3B0007
:101A2000626F726465722D626F74746F6D3A2031EB
:101A3000707820736F6C696420233333333B00006C
:101A4000236D656E7520756C206C693A686F7665DC
:101A500072207B006261636B67726F756E642D63C9
:101A60006F6C6F723A20233435343534353B0000C7
:101A7000236D656E75202E7375622D6D656E7520F4
:101A80007B000000646973706C61793A206E6F6E40
:101A9000653B0000706F736974696F6E3A20616214
:101AA000736F6C7574653B00746F703A20303B0047
:101AB000236D656E7520756C206C693A686F76656C
:101AC00072202E7375622D6D656E757B00000000AF
:101AD00023636F6E74656E74207B000070616464B4
:101AE000696E673A2031656D2038656D3B000000F6
:101AF000236865616465722C202E63616C6C2D74A3
:101B00006F2D616374696F6E207B0000746578745B
:101B10002D616C69676E3A202063656E7465723B57
:101B20000000000023686561646572207B7D000011
:101B30002368656164657220236C6F676F207B6624
:101B40006F6E742D73697A653A343070783B7D001E
:101B5000236865616465722023736C6F67616E2012
:101B60007B000000636F6C6F723A2038393937613F
:101B7000303B0000666F6E742D73697A653A2030D1
:101B80002E38656D3B0000002E63616C6C2D746F08
:101B90002D616374696F6E207B0000007061646466
:101BA000696E673A20312E35656D203230253B0055
:101BB0006261636B67726F756E642D636F6C6F72B9
:101BC0003A20236630666666663B0000626F726488
:101BD00065723A2031707820736F6C6964202365D8
:101BE00038653865383B00002E726F77207B000027
:101BF0006F766572666C6F773A2068696464656EAB
:101C00003B0000006D617267696E3A20312E3565C8
:101C10006D206175746F3B002E726F77202E636F9D
:101C20006C207B00666C6F61743A206C6566743B57
:101C30000000000077696474683A203430253B0066
:101C40006D617267696E3A2032656D3B000000007D
:101C50002E726F77202E636F6C3A6C6173742D63F4
:101C600068696C64207B0000666C6F61743A207256
:101C7000696768743B0000006D617267696E2D7260
:101C8000696768743A20303B000000002E726F775D
:101C9000202E636F6C20696D67207B0023666F6F59
:101CA000746572207B000000666F6E742D73697A14
:101CB000653A203835253B00626F726465722D7479
:101CC0006F703A2031707820736F6C6964202365DF
:101CD00036653665363B0000636F6C6F723A2023C1
:101CE0003833383338333B0070616464696E673A67
:101CF0002031656D2033656D3B0000008877050855
:101D0000E07705083C2F7374796C653E0000000095
:101D1000203C2F686561643E00000000203C626F3B
:101D200064793E00203C6469762069643D22636FDB
:101D30006E7461696E6572223E000000203C646929
:101D4000762069643D226D656E75223E00000000BC
:101D5000203C756C3E000000203C6C693E3C6120DC
:101D6000687265663D222F686F6D65223E486F6D13
:101D700065706167653C2F613E3C2F6C693E0000D9
:101D8000203C6C693E3C6120687265663D222F7381
:101D9000657474696E67223E53657474696E677307
:101DA0003C2F613E3C2F6C693E000000203C2F75AB
:101DB0006C3E0000203C2F6469763E00203C646944
:101DC000762069643D22636F6E74656E74223E00F6
:101DD000203C6469762069643D22686561646572AF
:101DE000223E000089A1964820F0BEFB95A19448B0
:101DF00020F0BAFB98A1924820F0B6FBAFF24C015C
:101E00008F4820F0B1FB9EA18D4820F0ADFBA1A131
:101E10008B4820F0A9FBA7A1894820F0A5FBAFA122
:101E2000874820F0A1FBB5A1854820F09DFBBAA111
:101E3000834820F099FBC0A1814820F095FBC6495A
:101E40007F4820F091FBC5A17D4820F08DFBCDA1FE
:101E50007B4820F089FBCDA1794820F085FBD7494C
:101E6000774820F081FBD6A1754820F07DFBD8494A
:101E7000734820F079FBAFF2C401714820F074FB85
:101E8000D4A16F4820F070FBB3496D4820F06CFB83
:101E9000D8A16B4820F068FBBAA1694820F064FB28
:101EA000DFA1674820F060FBE949654820F05CFB52
:101EB000C3A1634820F058FBE649614820F054FB79
:101EC000AFF210115E4820F04FFBE3A15C4820F018
:101ED0004BFBE5A15A4820F047FBE8A1584820F009
:101EE00043FBAFF23011564820F03EFBAFF23C11FD
:101EF000534820F039FBAFF24411514820F034FB35
:101F0000E7A14F4820F030FBE8A14D4820F02CFB22
:101F10004B4820F0BFFA05462A464949204616F0AC
:101F20001AF870BD70B50446E34820F0B3FA0546D0
:101F30002A46E149204616F00EF870BD70B50446F9
:101F4000DE4820F0A7FA05462A46DC49204616F06E
:101F500002F870BD3EB504464FF40071D84820F039
:101F60005CFBD8480068401CD64908600846D6A1EA
:101F70000268684620F0F8F86946D14820F0F4FA83
:101F8000D2A1CF4820F0F0FADDA1CD4820F0ECFA44
:101F9000CB4820F07FFACA49451828461FF0A2FB1B
:101FA000E5A1C74820F0E0FAF1A1C54820F0DCFA2D
:101FB000FE4820F06FFA05462A46FC49204615F0F7
:101FC000CAFFBF4820F066FA05462A46BC492046AB
:101FD00015F0C1FF3EBD2DE9F0472DED048BADF5A9
:101FE000BF6D074640F2DC5A0026524607A9384624
:101FF00015F093FE8046B8F1000F05DA0DF5BF6DC0
:10200000BDEC048BBDE8F087D2E10000203C6469A0
:10201000762069643D226C6F676F223E486F6D6564
:1020200070616765205765625365727665722066D8
:102030006F722073797374656D3C2F6469763E000E
:10204000D8070020203C6469762069643D22736CC7
:102050006F67616E223E0000203C703E5765622033
:10206000636F6E74726F6C2064656D6F20666F7243
:102070002053544D3332463478783C2F703E000064
:10208000203C2F6469763E3C216865616465723E40
:1020900000000000203C64697620636C6173733D2E
:1020A0002263616C6C2D746F2D616374696F6E2295
:1020B0003E000000203C68333E4C4344207761746E
:1020C000657220636F6E74726F6C20766961207721
:1020D0006562736974653C2F68333E00203C703E36
:1020E000704820616E64205265646F7820636F6E63
:1020F00074726F6C3C2F703E00000000203C2F6417
:1021000069763E3C2163616C6C2D746F2D61637444
:10211000696F6E3E00000000203C64697620636CAD
:102120006173733D22726F77222069643D22696E6C
:1021300074726F223E000000203C6469762069645E
:102140003D22626F78312220636C6173733D22639C
:102150006F6C223E00000000507605083C6833207A
:102160007374796C653D22746578742D616C696750
:102170006E3A63656E7465723B223E70483C2F6810
:10218000333E00003C2F6469763E00003C683120FD
:1021900069643D227048223E70483A203C73706169
:1021A0006E207374796C653D22636F6C6F723A2395
:1021B000303039454532223E000000009D000020AD
:1021C0003C2F7370616E3E3C2F68313E0000000072
:1021D000A8760508203C6469762069643D22626F18
:1021E00078322220636C6173733D22636F6C223EF0
:1021F000000000003C6833207374796C653D2274E4
:102200006578742D616C69676E3A63656E7465728A
:102210003B223E5265646F783C2F68333E000000DD
:102220003C68312069643D227048223E5265646FEB
:10223000783A203C7370616E207374796C653D222E
:10224000636F6C6F723A23303039454532223E005D
:102250009900002018770508203C2F6469763E3CE1
:1022600021726F773E000000203C6469762069642B
:102270003D22666F6F746572223E0000203C703E06
:10228000436F707972696768743A2043686175209A
:102290005068756F632056753C2F703E000000003B
:1022A000203C2F626F64793E00000000203C2F68C4
:1022B000746D6C3E0000000047230308FF1F0308F5
:1022C000D805002078000020256400003C7072656D
:1022D0003E3C62723E4E616D652020202020202011
:1022E000202020537461746520205072696F7269D8
:1022F00074792020537461636B2020204E756D002B
:102300003C62723E2D2D2D2D2D2D2D2D2D2D2D2D63
:102310002D2D2D2D2D2D2D2D2D2D2D2D2D2D2D2DED
:102320002D2D2D2D2D2D2D2D2D2D2D2D2D2D2D2DDD
:102330002D3C62723E0000003C62723E3C62723E86
:102340002D2D2D2D2D2D2D2D2D2D2D2D2D2D2D2DBD
:102350002D2D2D2D2D2D2D2D2D2D2D2D2D2D2D2DAD
:102360002D2D2D2D2D2D2D2D2D2D2D2D2D00000024
:102370003C62723E42203A20426C6F636B65642C73
:102380002052203A2052656164792C2044203A2062
:1023900044656C657465642C2053203A2053757332
:1023A00070656E6465643C62723E00005013030801
:1023B0001B22F7A107A820F08CF870B9F5A0FEF752
:1023C0009EFE04463846D4E9001215F0C4FD002CE8
:1023D00002D02046FEF7B6FEB9E11E22F3A107A8FF
:1023E00020F077F870B9F2A0FEF789FE044638466F
:1023F000D4E9001215F0AFFD002CEDD02046FEF719
:10240000A1FEA4E11D22F1A107A820F062F870B995
:10241000EFA0FEF774FE04463846D4E9001215F02A
:102420009AFD002CD8D02046FEF78CFE8FE11822B2
:10243000EEA107A820F04DF818B93846FFF78AFD3D
:1024400085E11322F0A107A820F043F870B9EFA0AE
:10245000FEF755FE04463846D4E9001215F07BFD20
:10246000002CB9D02046FEF76DFE70E10622EBA1EC
:1024700007A820F02EF818B93846FFF75FFD66E18F
:10248000E8A107A81FF0A4FF002847D0E7A107A8EC
:102490001FF09EFF002841D0E2A107A81FF098FF7F
:1024A000851D0020049005900690E2A107A81FF06A
:1024B0008FFFA0EB05094A46294604A820F0F6F84C
:1024C000DAA107A81FF084FF451D002001900290AB
:1024D0000390294601A81FF0B9FFD848016804A855
:1024E00020F010F928B9D648016801A820F00AF9AF
:1024F00008B1012000E0002048B93846FEF75CFE34
:102500000020D04908700520CF49087005E0384602
:10251000FEF746FE0120CB49087018E10C22CBA142
:1025200007A81FF0D6FF48B9C648007830B938462A
:10253000FFF7F8FC0F20C449087008E10922C7A181
:1025400007A81FF0C6FF58B10D22C7A107A81FF0AA
:10255000C0FF28B10A22C8A107A81FF0BAFF48B9D6
:10256000B848007830B93846FEF726FE0520B6494F
:102570000870ECE0C3A107A81FF02AFF00287AD05A
:10258000C1A107A81FF024FF002874D0BDA107A88F
:102590001FF01EFFC51C00200690BDA107A81FF05C
:1025A00017FFA0EB05094A46294606A820F07EF849
:1025B00006A821F091FFB0EE408AF0EE608A53EC5D
:1025C000182B9FEDB50B51EC100B23F031FE01D809
:1025D000012000E00020814623F0FFFD41EC190BB3
:1025E0009FEDAF0B53EC102B23F022FE06D8AE4824
:1025F00080ED008BAD4880ED008B02E03846FEF7A1
:10260000CFFDA1A107A81FF0E3FEC51D0020069085
:10261000294606A81FF01AFF06A81FF0CCFE814627
:1026200023F0DBFD41EC180B53EC182B9FEDA00BB6
:1026300051EC100B23F0FCFD01D8012000E000203C
:10264000B0F52F7F10DC51EC180B23F099FD80B210
:1026500099490880994908803846FEF7ADFD052064
:102660007949087003E006E03846FEF799FD052039
:10267000754908706BE092A107A81FF0A9FE002819
:1026800058D091A107A81FF0A3FE002852D091A115
:1026900007A81FF09DFE00284CD03846FEF780FDAD
:1026A0008F480078002852D1069085A107A81FF016
:1026B0008FFE451D84A107A81FF08AFEA0EB050927
:1026C0004A46294606A81FF0F1FF06A81FF073FE30
:1026D000844908707CA107A81FF07AFE00F1080564
:1026E0007CA107A81FF074FEA0EB05094A46294605
:1026F00006A81FF0DBFF06A81FF05DFE7A490870F0
:1027000074A107A81FF064FE00F1080577A107A8CF
:102710001FF05EFEA0EB05094A46294606A81FF0F9
:10272000C5FF06A81FF047FE7149087001206C49DB
:1027300008700CE06FA0FEF7E2FC04463846D4E9CE
:10274000001215F008FC14B12046FEF7FBFC03E074
:10275000002007A98855761C40F2DC508642F7DB42
:10276000384615F02BF900BF0DF5BF6DBDEC048B9D
:10277000BDE8F08770B58AB006460022012102202C
:1027800015F0A0FB041E01DA0AB070BDB8E000002D
:10279000474554202F53544D3332463478375F66C3
:1027A000696C65732F53542E676966004745542042
:1027B0002F53544D3332463478375F66696C6573F6
:1027C0002F73746D33322E6A7067000047455420B2
:1027D0002F53544D3332463478375F66696C6573D6
:1027E0002F6C6F676F2E6A7067000000474554209A
:1027F0002F53544D3332463478375441534B532E74
:1028000068746D6C00000000474554202F53544DF0
:102810003332463478372E68746D6C004745542047
:102820002F200000756E616D653D00002670737786
:102830003D0000002670737700000000900000202B
:102840009400002098000020A1000020474554205B
:102850002F73657474696E6700000000474554204B
:102860002F686F6D65000000474554202F76616C1E
:102870007565736574000000474554202F6C6F67C1
:10288000696E000070483D00265245444F583D0097
:10289000265245444F580000000000000000184038
:1028A000000000000000204020010020F000002077
:1028B0000000000000407F400C010020D4000020F8
:1028C000686F75723D000000266D696E7574653D18
:1028D00000000000267365636F6E643D0000000019
:1028E0008C000020B4000020B50000202F30000034
:1028F000B60000202F3430342E68746D6C00000058
:1029000002208DF8150050201BF09BFEADF816003C
:1029100000200690102205A9204614F0F7FF002899
:1029200001DA0AB070BD0521204615F0C1F810206B
:10293000099008E009AA01A9204614F030FF0546D5
:102940002846FFF748FBF5E708B504204FF47A73F3
:1029500000220349009003A01CF035FF08BD0000D1
:1029600075270008485454505345525645520000AC
:102970007047704710B50121084611F085F910BD68
:1029800010B510F03FFBFFF7F5FFFFF7F2FFFFF781
:10299000EFFF10BD0EB54FF49670019041F2680044
:1029A000ADF800000020ADF808001020ADF80200DE
:1029B0006946824811F087FC0021804811F0E2FC52
:1029C00001217E4812F048F9012211467B4812F09D
:1029D0001BF94FF47A7001902A20ADF80000002016
:1029E000ADF80800ADF802006946754811F06BFCBF
:1029F0000021734811F0C6FC0121714812F02CF936
:102A0000012211466E4812F0FFF800216B4811F0C8
:102A1000E3FC00216A4811F0DFFC00214FF0804008
:102A200011F0DAFC0EBD10B50121022011F05FF9A2
:102A30000121042011F05BF910BD10B5FFF7F3FF81
:102A4000FFF7A8FF10BD1CB51D208DF80400002065
:102A50008DF805008DF8060001208DF8070001A80B
:102A60000FF05FFE1E208DF8040002208DF8050097
:102A70008DF8060001208DF8070001A80FF051FE27
:102A800032208DF8000007208DF8010000208DF81D
:102A9000020001208DF8030068460FF042FE1CBDC5
:102AA00010B50446474804800021454811F054FC05
:102AB0000121434811F090FC00BF424800880028E3
:102AC000FBD100213E4811F087FC10BD38B504460B
:102AD0003C4804801E208DF8000000208DF8010085
:102AE0008DF8020001208DF8030068460FF019FEF2
:102AF0000121334812F0B0F80021314811F02CFCCC
:102B000001212F4811F068FC00BF2E4800880028E2
:102B1000FBD100212A4811F05FFC1E208DF8000037
:102B200002208DF801008DF8020001208DF80300CD
:102B300068460FF0F6FD38BD2248008820B12148D4
:102B40000088401E1F49088070471F48008820B138
:102B50001D480088401E1C49088070471CB5012193
:102B6000042011F0D5F800208DF804008DF807003E
:102B7000802000906946154810F044FE1CBD10B539
:102B8000044601210D4812F067F821460B4811F068
:102B9000E3FB0121094811F01FFC10BD10B5002115
:102BA000064811F019FC10BD4FF0E020006920F03C
:102BB00003004FF0E021086170470000000400406E
:102BC00000080040A4000020480000200008024047
:102BD000014600200A68D0B27047014600200A680A
:102BE00090B270470146002008687047F0B505466E
:102BF0000E4600BF00222A6813461A4600231446D8
:102C00003268134344EAE27418462146F0BD014697
:102C100000200A68D0B20A2800DD0020704710B5F5
:102C20002DED028B0446B0EE408AF0EE608AF94842
:102C300080ED008B0168204612F019FC082803D0B3
:102C40000120BDEC028B10BDF2484168201D12F03E
:102C50000EFC082801D00120F3E70120F1E700B5C0
:102C6000ED48FFF7B5FFED49087008460078FF28EA
:102C700001D105200870E848401CFFF7A9FFE8498A
:102C8000087008460078FF2801D10A200870E24841
:102C9000801CFFF79DFFE349087008460078FF2875
:102CA00001D105200870DC48C01CFFF791FFDE4908
:102CB000087008460078FF2801D105200870D64822
:102CC000001DFFF7A4FFD9490870D348401DFFF746
:102CD0009EFFD7490870D048801DFFF798FFD5495F
:102CE0000870CD48C01DFFF792FFD3490870CA484D
:102CF0000830FFF78CFFD1490870C7480930FFF74B
:102D000067FFCF49087008460078182801DD0020C9
:102D10000870C1480A30FFF75BFFCA4908700846CF
:102D200000783B2801DD00200870BB480B30FFF71E
:102D30004FFFC5490870084600783B2801DD002098
:102D40000870B5491031081FFFF750FFB14A03C2A0
:102D5000B04903C94FF0FF3358405940084305D1EB
:102D60009FEDBA0BBB4880ED000B05E0A94890ED44
:102D7000000BB84880ED000BA7491831081FFFF77A
:102D800035FFA44A03C2A348D0E900104FF0FF3337
:102D900059405840014305D19FEDAF0BB04880ED3D
:102DA000000B05E09B4890ED000BAD4880ED000B5B
:102DB00099492031081FFFF719FF964A03C2954829
:102DC000D0E900104FF0FF3251405040014305D18F
:102DD0009FEDA40BA54880ED000B05E08D4890ED1C
:102DE000000BA24880ED000B8B492831081FFFF72C
:102DF000FDFE884A03C28748D0E900104FF0FF3338
:102E000059405840014305D19FED930B984880ED00
:102E1000000B05E07F4890ED000B954880ED000B1E
:102E20007D482C30FFF7D9FE92490880084600887B
:102E30004FF6FF71884202D100208E490880764902
:102E40003831081FFFF7D2FE724A03C27148D0E939
:102E500000104FF0FF3251405040014305D19FED2B
:102E6000860B874880ED000B05E06A4890ED000B6B
:102E7000834880ED000B68494031081FFFF7B6FE1C
:102E8000644A03C26348D0E900104FF0FF3251405A
:102E90005040014305D19FED7B0B7C4880ED000B3A
:102EA00005E05C4890ED000B784880ED000B5A4936
:102EB0004831081FFFF79AFE564A03C25548D0E929
:102EC00000104FF0FF3359405840014305D19FEDAA
:102ED000700B714880ED000B05E04E4890ED000B43
:102EE0006D4880ED000B4E4800786C4908704D48E5
:102EF00000786B4908704C4800786A490870474868
:102F0000007869490870464800786849087059484F
:102F1000008867490880554890ED000B654880EDB2
:102F2000000B534890ED000B634880ED000B00BD93
:102F300010B512F0A7F9F32012F0BDFB02214020DA
:102F400012F0ECF9082801D0012010BD33480178B7
:102F5000314812F0DEFA082801D00120F5E73048A8
:102F600001782D48401C12F0D4FA082801D0012025
:102F7000EBE72C4801782848801C12F0CAFA082890
:102F800001D00120E1E7284801782348C01C12F055
:102F9000C0FA082801D00120D7E7244801781E484C
:102FA000001D12F0B6FA082801D00120CDE7204814
:102FB00001781948401D12F0ACFA082801D0012010
:102FC000C3E71C4801781448801D12F0A2FA0828B3
:102FD00001D00120B9E7184801780F48C01D12F050
:102FE00098FA082801D00120AFE7144801780A4870
:102FF000083012F08EFA082801D00120A5E7104809
:1030000001780548093012F084FA082856D00120CA
:103010009BE70000A800002000000808D100002065
:10302000D2000020CF000020D0000020CB000020E4
:10303000CC000020CD000020CE000020CA000020DF
:10304000B4000020B5000020B60000200000000001
:1030500000001040D8000020000000000000E03F09
:10306000E8000020CDCCCCCCCCCC1840F000002027
:10307000F8000020D40000200000000000003940CB
:10308000E0000020D15790662C9ABE3F3800002007
:103090000FB9196EC0E7A73FC00000200200002052
:1030A0000001002001010020020100200301002096
:1030B0000C01002020010020280100204B4801784D
:1030C0004B4812F026FA082801D001203DE7494874
:1030D00001784748401C12F01CFA082801D0012052
:1030E00033E7454890ED000B444880ED000B424823
:1030F00090ED000B3E48801CFFF791FD082801D0A1
:10310000012022E73E4890ED000B3C4880ED000B8B
:103110003B4890ED000B36480A30FFF780FD082849
:1031200001D0012011E7374890ED000B334880EDC6
:10313000000B344890ED000B2D481230FFF76FFD67
:10314000082801D0012000E72F4890ED000B2B4804
:1031500080ED000B2C4890ED000B25481A30FFF74E
:103160005EFD082801D00120EFE6284801882048AC
:10317000223012F0A5F9082801D00120E5E6244804
:1031800090ED000B1D4880ED000B214890ED000BE9
:1031900017482A30FFF743FD082801D00120D4E664
:1031A0001C4890ED000B154880ED000B194890ED80
:1031B000000B0F483230FFF732FD082801D0012004
:1031C000C3E6154890ED000B0C4880ED000B12484B
:1031D00090ED000B06483A30FFF721FD082801D09A
:1031E0000120B2E612F05BF80020AEE6B500002048
:1031F0000A000808B6000020D8000020A80000201F
:10320000E8000020F0000020F8000020D40000209A
:10321000E000002038000020C00000202DE9F05F11
:103220002DED028B82468B46B0EE408AF0EE608A2E
:1032300016461F46DDF83080B8F1000F0AD0B8F10D
:10324000020F03D0B8F1090F06D101E0042404E015
:10325000052402E0012400E000BF00BFF019401C7B
:1032600000EB040948461EF029FF0546B8F1000F9F
:103270000DD0B8F1020F03D0B8F1090F15D10DE050
:1032800053EC182BF1A128461EF06EFF0EE053EC14
:10329000182BF1A128461EF067FF07E053EC182B0E
:1032A000EFA128461EF060FF00E000BF00BF2A46E5
:1032B000594650460CF027F928461EF02EFFBDEC6B
:1032C000028BBDE8F09F10B50246012341B10020FA
:1032D00004E003FB02F4A3B2441C20B28842F8DBF2
:1032E000184610BD2DE9FF5F91461C46DDF8388079
:1032F000B8F1090F11D2DFE808F00E1010050C0B21
:103300000809060000BF042508E000BF062505E007
:1033100000BF032502E0012500E000BF00BF04EB71
:10332000050A50461EF0CAFE064600226119491ED3
:103330007254B8F1090F5DD2DFE808F05B5C5C0500
:103340001252283D1B006C216019801E31546D21E2
:103350006019C01E315420216019001F31544AE009
:103360004C216019801E315420216019C01E315437
:1033700041E056216019801E31546D216019C01E34
:10338000315420216019001F315434E06C21601940
:10339000801E31542F216019C01E315467216019DD
:1033A000001F31546D216019401F315420216019D4
:1033B000801F31541FE068216019801E31542F2175
:1033C0006019C01E315467216019001F31546D21EE
:1033D0006019401F315420216019801F31540AE0C8
:1033E0006D216019801E315420216019C01E315496
:1033F00001E000E000BF00BF002713E0E01B81B246
:103400000A20FFF760FF99FBF0F100FB119BE01B26
:10341000401E81B20A20FFF756FF9BFBF0F03030D0
:10342000F0557F1CA742E9DB3246DDE900010CF0D4
:103430006AF830461EF071FEBDE8FF9F00B52DED25
:10344000028B83B088480088222870D2DFE800F021
:103450006F11FDBAFCFB6FFAF9F8F7F6F5F4F3F229
:10346000F1F0EFEEEDECEBEAE9E8E7E6E5E4E3E2C4
:10347000E1E000214FF6FF700BF01AFE7B480BF0E5
:1034800034FE7B48007800907A4803787A480278C6
:103490007AA101A81EF068FE01AA822114200CF076
:1034A00032F87948007830B1012826D002283FD080
:1034B000032861D14EE04FF6686100200BF0F8FD63
:1034C00072480BF012FE002001231A46009070484B
:1034D00090ED000B64218220FFF7A0FE63480BF003
:1034E00004FE002001231A460090694890ED000B6D
:1034F000AA215020FFF792FE3FE04FF668610020BE
:103500000BF0D6FD61480BF0F0FD624A6421822089
:103510000BF0F9FF55480BF0E8FD0820032300905D
:103520005D48028887215020FFF7DCFE25E088E215
:103530004FF6686100200BF0BBFD54480BF0D5FD41
:103540000020022300905548027864218220FFF772
:10355000C9FE12E045F2AA2100200BF0A9FD4B485C
:103560000BF0C3FD0020022300904D480278642137
:103570008220FFF7B7FE00E000BF00BF40F2FC4131
:1035800000200BF095FD41480BF0AFFD002001231A
:103590001A460090434890ED000B4FF4A57182202D
:1035A000FFF73CFE31480BF0A0FD002001231A4636
:1035B00000903D4890ED000B4FF4C8715020FFF78C
:1035C0002DFE3FE24FF6686100200BF071FD2F48A1
:1035D0000BF08BFD032000903448D0ED000A3448F6
:1035E00090ED000AB8EE400A20EE800ABCEEC00A58
:1035F00010EE100A82B2032355217820FFF772FEE5
:103600001A480BF072FD032003464FF4C87251E0D4
:1036100016E2CEE19EE19CE16CE16AE13DE13BE135
:103620001CE1FDE0FFE1C2E0C0E005E203E201E2EF
:10363000FFE1FDE1FBE1F8E1F8E1A5E092E0FEE168
:103640006AE068E0FAE1EFE1D0E1F6E125312E3100
:10365000662070480000000025312E316600000011
:1036600025312E31666F43006401002044020020A2
:10367000B6000020B5000020B40000202532643AD6
:103680002532643A25326400CE0000203C0200203E
:1036900028010020990000200C01002000010020DA
:1036A000010100201000002020010020280000203F
:1036B000080000209B2100904620FFF713FE40F2F7
:1036C000FC4100200BF0F4FCE1480BF00EFD032060
:1036D0000090E048D0ED000ADF4890ED000AB8EE17
:1036E000400A20EE800ABCEEC00A10EE100A82B238
:1036F000032340F23B117820FFF7F4FDD7480BF08D
:10370000F4FC03200346C82240F2811100904620B9
:10371000FFF7E8FD96E100BF45F2AA214FF6FF70E2
:103720000BF0C6FCCA480BF0E0FC0420022300901A
:10373000CB48027869216420FFF7D4FD45F2AA2125
:103740004FF6FF700BF0B4FCC1480BF0CEFC052027
:1037500002230090C348027840F23B116420FFF737
:10376000C1FD6FE147F2C5514FF6FF700BF0A0FCB1
:10377000B7480BF0BAFC002002230F22C3210090AF
:103780009620FFF7AFFD5DE14EF2E3014FF6FF70CB
:103790000BF08EFCAE480BF0A8FC00200223142294
:1037A000C32100909620FFF79DFD4BE100BF4FF62F
:1037B000686100200BF07CFCA5480BF096FC002013
:1037C00001231A460090A84890ED000B642108469A
:1037D000FFF724FDA1480BF088FCA4A2A5216E20D0
:1037E0000BF091FE40F2FC4100200BF061FC984888
:1037F0000BF07BFC002001231A4600909D4890EDC1
:10380000000B4FF4A5716420FFF708FD93480BF0FF
:103810006CFC99A240F28B116E200BF074FE11E14A
:1038200040F2FC4100200BF043FC89480BF05DFCAA
:10383000002001231A460090904890ED000B4FF4B1
:10384000A5716420FFF7EAFC84480BF04EFC8AA2C5
:1038500040F28B116E200BF056FEF3E04FF66861DC
:1038600000200BF025FC7A480BF03FFC00200123E0
:103870001A460090824890ED000B4FF4A571642029
:10388000FFF7CCFC75480BF030FC7EA240F28B11A8
:103890006E200BF038FED5E000BF4FF668610020C7
:1038A0000BF006FC6A480BF020FC08200323009074
:1038B0007648028864210846FFF714FD40F2FC4177
:1038C00000200BF0F5FB62480BF00FFC00200123F9
:1038D0001A460090674890ED000B4FF4A5716420E4
:1038E000FFF79CFC64A240F28B1164200BF00BFEEE
:1038F000A8E000BF4FF6686100200BF0D9FB5448E8
:103900000BF0F3FB00200223009061480278642151
:103910000846FFF7E7FC40F2FC4100200BF0C8FB33
:103920004B480BF0E2FB002001231A46009051485F
:1039300090ED000B4FF4A5716420FFF76FFC474832
:103940000BF0D3FB4CA240F28B116E200BF0DBFD91
:1039500078E000BF45F2AA2100200BF0A9FB3C480B
:103960000BF0C3FB0020022300904A480278642138
:103970000846FFF7B7FC40F2FC4100200BF098FB33
:1039800033480BF0B2FB002001231A46009039485F
:1039900090ED000B4FF4A5716420FFF73FFC2F481A
:1039A0000BF0A3FB34A240F28B116E200BF0ABFDA9
:1039B00048E045F2AA214FF6FF700BF079FB24484E
:1039C0000BF093FB3448006822F064FF41EC180BC5
:1039D000092001230222B0EE480AF0EE680A4FF4F3
:1039E000A57100906420FFF719FC2BE045F2AA2195
:1039F0004FF6FF700BF05CFB15480BF076FB274889
:103A0000006822F047FF41EC180B09200123022235
:103A1000B0EE480AF0EE680A4FF4A57100906420F9
:103A2000FFF7FCFB0EE000BF00BF00BF00BF00BF00
:103A300000BF00BF00BF00BF00BF00BF00BF00BF8E
:103A400000E000BF00BF03B0BDEC028B00BD000072
:103A50003C02002028000020040000204402002036
:103A60000201002003010020280100206D672F6C57
:103A7000000000002001002070480000100100201C
:103A8000180100206D672F68000000000C01002065
:103A90000001002001010020080100200401002095
:103AA00000B58DB00121084610F0EEF801210802A2
:103AB00010F02EF94120019003208DF8080000201D
:103AC0008DF80B0001A924480FF09CFE0020039004
:103AD00004900590069003A80EF0C8FE0EF08CFE30
:103AE000002007908DF820008DF8210009900A90A1
:103AF0000B9001208DF8300007A918480EF087FEC2
:103B0000012116480EF0C9FE0DB000BD10B50446E7
:103B100004230122214611480EF0FFFE0F480EF04B
:103B200058FF00BF02210D480FF074F80028F9D0AB
:103B30000A480EF08AFF40F6E441484340F6FF7120
:103B400090FBF1F000EE100AB8EEC00A044880EDD8
:103B5000000A90ED000A10BD000002400020014064
:103B6000BC0000201CB50121084610F08DF8302063
:103B7000009001208DF8040000208DF8060003203D
:103B80008DF8050000208DF80700694606480FF003
:103B900039FE1CBD18B1012803D10A8302E04A8313
:103BA00000E000BF00BF70470000024010B52DEDDF
:103BB000088BB0EE408AF0EE608A9FED150B53EC57
:103BC000102B154890ED000B51EC100B22F088F8EB
:103BD00041EC190B9FED0E0B53EC102B51EC180B15
:103BE00022F07EF841EC1B0B0C4890ED000B53ECDF
:103BF000102B51EC1B0B22F057FB41EC1A0B53EC32
:103C0000192B22F029F941EC100BBDEC088B10BDEB
:103C10006666666666127140E0000020C000002003
:103C200010B5012175480FF06BFE4FF41670FCF7CC
:103C3000BBFB012171480FF061FE6420FCF7B4FB6F
:103C400001216E480FF040FE28B94FF4FA70FCF7DE
:103C5000ABFB012010BD4FF4FA70FCF7A5FB002070
:103C6000F8E710B5012165480FF04AFE0220FCF785
:103C70009BFB012161480FF041FE0A20FCF794FBF9
:103C800001215E480FF020FE20B93A20FCF78CFBA2
:103C9000002010BD3A20FCF787FB0120F9E770B542
:103CA0000025002406E0FFF7DCFFA0402843C5B252
:103CB000601CC4B2082CF6DB284670BD2DE9F0412B
:103CC0000446012504EA0507002623E077B1012117
:103CD0004A480FF015FE0320FCF766FB0121474818
:103CE0000FF00CFE5A20FCF75FFB0DE0012143486A
:103CF0000FF006FE5A20FCF757FB01213F480FF05A
:103D0000FDFD0320FCF750FB6806050E04EA0507DD
:103D1000701CC6B2082ED9DBBDE8F0812DE9F04752
:103D20003320FFF7CBFFFFF7BAFF0446FFF7B7FFDB
:103D300000260546FFF7B3FF0002054346EAE0769A
:103D4000FFF7ADFF0004054346EAE076FFF7A7FF63
:103D500081464FEA0960310241EA156C40EA0521CB
:103D60004CEAE07841EA040738464146BDE8F0876E
:103D700010B504462046FFF7A1FF442C06D100BF32
:103D800001211E480FF0A0FD0028F9D010BD10B58C
:103D900004462046FFF792FF10BD2DE9F0412DEDBE
:103DA000028B01259FED160AB0EE408AFFF777FFE0
:103DB0000646FFF774FF074646EA07286C1F14E023
:103DC00008EA050058B100EE104AF8EEC00AB0EE5D
:103DD000000A21F021FA30EE080AB0EE408A4FF6D0
:103DE000FF7000EA4505601C44B2072CE8DBB0EE2A
:103DF000480ABDEC028BBDE8F081000000040240DF
:103E00000000000010B5FB48006809F06AFD01F0F1
:103E10001EF910BD10B5F748006809F062FD04F006
:103E2000E0FF10BD10B5F348006809F05AFD00F03E
:103E3000C0FF10BD10B5EF48006809F052FD01F059
:103E4000ACFB10BD10B5EB48006809F04AFD03F06B
:103E500023F910BD10B5E748006809F042FDE648B7
:103E6000007808B101F012FA01F055FA10BD10B552
:103E7000E048006809F035FD04F014FF10BD10B5EE
:103E8000FFF756F810BD10B50020DB490870DB497C
:103E90000860DB490860D748006809F022FD01F09E
:103EA000D6F810BD10B50020D3490870D34908607A
:103EB000D3490860CF48006809F013FD00F079FF8E
:103EC00010BD10B5CC48007830B1012808D00228C8
:103ED0000AD0032814D10FE00220C749087010E06F
:103EE0000320C54908700CE0C248006809F0F9FCDD
:103EF0000020C149087004E00120BF49087000E0BB
:103F000000BF00BF01F007FA10BD10B5BA48007835
:103F100030B1012808D002280ED0032814D10FE0B8
:103F20000120B549087010E0B248006809F0D9FCDA
:103F30000020B149087008E00320AF49087004E090
:103F40000220AD49087000E000BF00BF01F0E3F9B6
:103F500010BD10B5A748006809F0C3FC01F077F860
:103F600010BD10B5A348006809F0BBFC00F021FFAC
:103F700010BD10B59F48006809F0B3FC01F052FC79
:103F800010BD10B59B48006809F0ABFC01F042FF82
:103F900010BD10B59748006809F0A3FC9948007857
:103FA00030B1012807D0022808D003280CD108E03E
:103FB00002F03DFD09E003F036FC06E003F0CFFE21
:103FC00003E004F046F900E000BF00BF10BD10B5EB
:103FD0008848006809F085FC01F0DFFA10BD10B5D3
:103FE0008448006809F07DFC00F0E3FE10BD8648BF
:103FF0000078401C8449087008460078322801DDAA
:1040000032200870704780480078401E7E49087052
:104010000846007808B90020087070477A48007890
:104020007A490870704710B57248006809F059FC69
:10403000764800787449087001F014FD10BD10B581
:104040006C48006809F04DFC01F0A7FA10BD10B5EE
:104050006848006809F045FC00F0ABFE10BD6C48F4
:104060000078401C6A49087008460078182801DD6D
:1040700018200870704766480078401E6449087030
:1040800008460078062800D108707047604800781C
:1040900060490870704710B55648006809F021FC67
:1040A0005C4800785A49087001F0BCFB10BD10B59F
:1040B0005048006809F015FC01F06FFA10BD10B50A
:1040C0004C48006809F00DFC00F073FE10BD0020A4
:1040D00051490870704701204F490870704710B56A
:1040E00002204D4908704348006809F0FAFB02F0CD
:1040F00056F810BD00204949087070470120474913
:1041000008707047022045490870704710B50020BC
:10411000434908703748006809F0E3FB02F0B0F843
:1041200010BD01203E490870704702203C490870CC
:10413000704710B52F48006809F0D3FB01F06AFE04
:1041400010BD10B52B48006809F0CBFB01F062FEF2
:1041500010BD10B52748006809F0C3FB01F05AFEF6
:1041600010BD10B52348006809F0BBFB03F0A4F8AC
:1041700010BD10B51F48006809F0B3FB03F09CF8B0
:1041800010BD10B51B48006809F0ABFB9FED250B77
:10419000264880ED000B9FED260B274880ED000B95
:1041A0009FED230B254880ED000B9FED210B24484C
:1041B00080ED000B9FED1E0B224880ED000B9FED64
:1041C0001C0B214880ED000B9FED190B1F4880ED63
:1041D000000B03F071F810BD10B50648006809F037
:1041E00080FB1B4890ED000B1A4880ED000B03F09C
:1041F000F5F910BD60010020C90000200400002076
:1042000008000020CE00002002010020D100002084
:1042100003010020D2000020CB000020CC000020B1
:10422000CD00002000000000000010401001002020
:1042300000000000000000003001002038010020D4
:1042400040010020480100205001002058010020BA
:10425000F80000201801002010B5FA48006809F0A5
:1042600040FB03F0BBF910BD10B5F648006809F03B
:1042700038FB01F0CFFD10BD10B5F248006809F021
:1042800030FB01F0C7FD10BD10B5EE48006809F025
:1042900028FB01F082F910BD10B5EA48006809F06A
:1042A00020FB00F086FD10BD10B59FEDE70B53EC31
:1042B000102BE74890ED000B51EC100B21F010FD96
:1042C000E34A03C29FEDE30B53EC102BE04890ED63
:1042D000000B51EC100B22F0E5F804D29FEDDD0B42
:1042E000DB4880ED000B10BD10B59FEDD70B53ECF4
:1042F000102BD74890ED000B51EC100B22F0E0F999
:10430000D34A03C29FEDD50B53EC102BD04890ED50
:10431000000B51EC100B21F08BFF04D29FEDCF0B63
:10432000CB4880ED000B10BDC94890ED000BCD4887
:1043300080ED000B704710B5C248006809F0D1FA53
:1043400002F056FD10BD10B5BE48006809F0C9FA6C
:1043500001F023F910BD10B5BA48006809F0C1FAA0
:1043600000F027FD10BD10B59FEDB70B53EC102BDF
:10437000BD4890ED000B51EC100B21F0B1FCBA4A96
:1043800003C29FEDBA0B53EC102BB74890ED000B16
:1043900051EC100B22F086F804D29FEDB40BB2481A
:1043A00080ED000B10BD10B59FEDA70B53EC102B4B
:1043B000AD4890ED000B51EC100B22F081F9AA4AA8
:1043C00003C29FEDAC0B53EC102BA74890ED000BF4
:1043D00051EC100B21F02CFF04D29FEDA60BA2484C
:1043E00080ED000B10BDA04890ED000BA34880EDC0
:1043F000000B704710B59348006809F072FA02F09C
:1044000016FB10BD10B58F48006809F06AFA00F07D
:104410001EFE10BD10B58B48006809F062FA00F06E
:10442000C8FC10BD10B58748006809F05AFA03F0BF
:10443000D5F88448006809F054FA02F00FF910BD6D
:1044400010B58048006809F04CFA02F035FF7D484D
:10445000006809F046FA01F0DFFF10BD10B5794899
:10446000006809F03EFA04F099F910BD10B57548DE
:10447000006809F036FA04F0A7FA10BD10B52DED6A
:10448000048B7048006809F02CFA1FED970B53EC71
:10449000102B7B4890ED000B51EC100B21F034FEFB
:1044A0000BD01FED9D0B53EC102B764890ED000BBD
:1044B00051EC100B21F028FE05D104F004FD002082
:1044C0007149087035E0714890ED000B704880ED3F
:1044D000000B6C4890ED000B6E4880ED000B6E48B1
:1044E00090ED000B53EC102B684890ED000B51EC55
:1044F000100B22F0E5F841EC190B614890ED000B30
:1045000053EC102B5F4890ED000B51EC100B22F098
:10451000D7F841EC180B53EC192B21F09DFC5F4AA6
:1045200003C25F4890ED000B5E4880ED000B02F087
:10453000B3FDBDEC048B10BD10B52DED048B4148CF
:10454000006809F0CEF91FEDC60B53EC102B4C4858
:1045500090ED000B51EC100B21F0D6FD0BD01FEDB0
:10456000CC0B53EC102B474890ED000B51EC100B8B
:1045700021F0CAFD05D104F0A6FC012042490870D3
:1045800035E0424890ED000B414880ED000B3D487E
:1045900090ED000B3F4880ED000B3F4890ED000B85
:1045A00053EC102B394890ED000B51EC100B22F01E
:1045B00087F841EC190B324890ED000B53EC102BAF
:1045C000304890ED000B51EC100B22F079F841ECE3
:1045D000180B53EC192B21F03FFC304A03C2304832
:1045E00090ED000B2F4880ED000B00F0E2FBBDECDE
:1045F000048B10BD10B59FED2C0B53EC102B2C48E9
:1046000090ED000B51EC100B21F04CFF0BD20D483C
:10461000006809F066F99FED240B254880ED000B3A
:1046200001F094FE0CE09FED080B53EC102B20489A
:1046300090ED000B51EC100B21F052FB1C4A03C211
:1046400010BD0000600100209A9999999999B93F8D
:10465000200100206666666666661E400000000057
:1046600000001A40F00000202801002033333333CB
:104670003333F33F000000000000E03FF80000206B
:104680004001002048010020C8000020380100201F
:10469000D80000203800002030010020C000002099
:1046A00058010020E00000203333333333331F4000
:1046B0001001002010B59FEDF90B53EC102BF948B9
:1046C00090ED000B51EC100B21F0B2FD0BD2F6482F
:1046D000006809F006F99FEDF10BF24880ED000B40
:1046E00001F034FE0CE01FED280B53EC102BED48CD
:1046F00090ED000B51EC100B21F0E2FFE94A03C2F0
:1047000010BD10B59FEDE90B53EC102BE54890ED73
:10471000000B51EC100B21F08BFD12D2E14890ED13
:10472000000BE44880ED000BE34890ED000BE348FC
:1047300080ED000BE24890ED000BE24880ED000BAD
:1047400011E0D84890ED000BDF4880ED000BDA480F
:1047500090ED000BDD4880ED000BD94890ED000B8B
:10476000DB4880ED000B10BD10B5CF48006809F0A4
:10477000B8F802F091FC10BD10B5CB48006809F004
:10478000B0F800F016FB10BD10B51FED510B53EC47
:10479000102BD04890ED000B51EC100B21F0A0FA3B
:1047A000CC4A03C21FED4F0B53EC102BC94890EDC0
:1047B000000B51EC100B21F075FE04D21FED550BD0
:1047C000C44880ED000B10BD10B5C34890ED000B40
:1047D00053EC102BBF4890ED000B51EC100B21F067
:1047E00027FD0CD2B048006809F07BF8BA4890ED7C
:1047F000000BB84880ED000B01F097FF0CE01FEDB7
:104800006E0B53EC102BB34890ED000B51EC100BDA
:1048100021F056FFAF4A03C210BDAE4890ED000B29
:10482000AE4880ED000B704710B59F48006809F056
:1048300058F800F0B2FE10BD10B59B48006809F0B2
:1048400050F800F0B6FA10BDA54800880A30A44917
:1048500008800846008840F2DE31884202DD0846C2
:104860009F49088070479E4800880A389C49088004
:10487000084600880A2801DA0A200880704798480C
:10488000008898490880704710B58748006809F08B
:1048900028F803F041F910BD10B58348006809F00D
:1048A00020F800F07AFE10BD10B57F48006809F0CE
:1048B00018F800F07EFA10BD10B51FED9D0B53ECFB
:1048C000102B894890ED000B51EC100B21F008FAE9
:1048D000854A03C21FED8C0B53EC102B824890EDE0
:1048E000000B51EC100B21F0DDFD04D21FED920BFB
:1048F0007D4880ED000B10BD10B51FEDAD0B53ECE6
:10490000102B794890ED000B51EC100B21F0D8FEE4
:10491000754A03C29FED750B53EC102B724890ED56
:10492000000B51EC100B21F083FC04D29FED6F0BB8
:104930006D4880ED000B10BD6B4890ED000B6D488D
:1049400080ED000B704710B55748006808F0C9FFAC
:1049500002F069FF10BD10B55348006808F0C1FFB0
:1049600000F01BFE10BD10B54F48006808F0B9FFFD
:1049700000F01FFA10BD60480078401C5E490870C6
:1049800008460078142801DD1420087070475A4842
:104990000078002804DD58480078401E5649087009
:1049A00070475548007855490870704710B53E4823
:1049B000006808F096FF03F028FB10BD10B53A48D8
:1049C000006808F08EFF00F0E8FD10BD10B5364815
:1049D000006808F086FF00F0ECF910BD10B51FED7F
:1049E000E60B53EC102B404890ED000B51EC100BF4
:1049F00021F076F93C4A03C21FEDD50B53EC102B86
:104A0000394890ED000B51EC100B21F04BFD04D216
:104A10001FEDDB0B344880ED000B10BD10B51FED12
:104A2000F60B53EC102B304890ED000B51EC100BB3
:104A300021F046FE2C4A03C29FED2C0B53EC102BA9
:104A4000294890ED000B51EC100B21F0F1FB04D242
:104A50009FED260B244880ED000B10BD224890ED01
:104A6000000B244880ED000B704710B50E4800681D
:104A700008F037FF03F073F910BD10B50A4800685D
:104A800008F02FFF00F089FD10BD10B50648006842
:104A900008F027FF00F08DF910BD000000000000B5
:104AA000000008401001002060010020000000000C
:104AB00000001440300100201800002040010020B8
:104AC0004000002050010020380100204801002053
:104AD0005801002018010020F8000020E800002004
:104AE0000C010020D400002020010020CDCCCCCC33
:104AF000CCCC1840F000002000010020CF000020A6
:104B00008A480078401C89490870084600781E28A9
:104B100001DD1E200870704784480078002804DDFD
:104B200082480078401E8149087070477F480078AD
:104B30007F490870704710B57E48006808F0D1FEC4
:104B400003F0E6FC10BD10B57A48006808F0C9FE15
:104B500000F023FD10BD10B57648006808F0C1FED6
:104B600000F027F910BD10B59FED730B53EC102B1F
:104B7000734890ED000B51EC100B21F0B1F8704A26
:104B800003C29FED700B53EC102B6D4890ED000BA2
:104B900051EC100B21F086FC04D29FED6A0B6848A3
:104BA00080ED000B10BD10B59FED630B53EC102B87
:104BB000634890ED000B51EC100B21F081FD604A31
:104BC00003C21FED360B53EC102B5D4890ED000B2C
:104BD00051EC100B21F02CFB04D21FED3C0B58487C
:104BE00080ED000B10BD564890ED000B574880ED4E
:104BF000000B704710B54F48006808F072FE03F0D4
:104C000028FB10BD10B54B48006808F06AFE02F0A2
:104C100043FA10BD10B54748006808F062FE00F086
:104C2000C8F810BD70477047704710B5414800681C
:104C300008F057FE02F030FA10BD10B53D4800688C
:104C400008F04FFE00F0B5F810BD70477047704790
:104C500010B53848006808F044FE00F0F8F910BDBF
:104C600010B53448006808F03CFE00F0A2F810BD12
:104C70000020374908707047012035490870704797
:104C8000022033490870704703203149087070478B
:104C900010B52848006808F024FE00F08AF810BD1E
:104CA00001202C490870704700202A49087070477D
:104CB00010B52048006808F014FE2748007810B9A5
:104CC00002F0EAF905E024480078012801D100F05B
:104CD00070F810BD10B51748006808F002FE9FED8F
:104CE0001F0B204880ED000B9FED1F0B204880ED2F
:104CF000000B9FED1D0B1F4880ED000B9FED1A0B65
:104D00001D4880ED000B9FED180B1C4880ED000B3B
:104D10009FED150B1A4880ED000B9FED130B194802
:104D200080ED000B02F0C8FA10BD00000101002068
:104D3000D0000020600100209A9999999999B93F73
:104D4000200100203333333333331F40F000002081
:104D5000CE000020CA000020C80000200000000093
:104D600000001040100100200000000000000000C2
:104D700030010020380100204001002048010020BF
:104D8000500100205801002038B5FD484FF6FF7350
:104D90001E22D2210090012009F0A9FB0446F94807
:104DA00008F0D7F9F74B2246F021FA2007F085FEEC
:104DB00038BD08B5FFF7E8FF00200AF01AFA4FF6F1
:104DC000FF702023D222F0210090FA200AF08AFE00
:104DD000ED480AF08AF9EDA01E23D222F0210090BE
:104DE000FA200BF0D7F805221421EB480AF0D7FD82
:104DF00000214FF6FF700AF05BF9E3480AF075F9FD
:104E0000E6A24FF4967114200AF07DFBE7A214216C
:104E1000FA200AF078FB40F2FC40A023D2223C2189
:104E20000090FA200AF05EFEE348007830B10128D5
:104E300020D002283AD0032872D154E04FF668609F
:104E4000A023D2223C21009014200AF04BFE4FF602
:104E5000686100200AF02CF9CB480AF046F9D7A285
:104E60001E2150200AF04FFBD7A2AF21A0200AF04C
:104E70004AFB56E04FF66860A023D2223C21009006
:104E800014200AF02FFE4FF6686100200AF010F996
:104E9000BD480AF02AF9CEA21E2150200AF033FBA9
:104EA000CDA2AF21A0200AF02EFB3AE04FF66860B9
:104EB000A023D2223C21009014200AF013FE4FF6CA
:104EC000686100200AF0F4F8AF480AF00EF9C3A2B6
:104ED0001E2150200AF017FB0023C2A2822150207D
:104EE0000AF033FB1DE045F2AA20A023D2223C2188
:104EF000009014200AF0F6FD45F2AA2100200AF0E5
:104F0000D7F8A1480AF0F1F8B4A21E2150200AF007
:104F1000FAFAB7A2822150200AF0F5FA01E0FFE781
:104F200000BF00BF40F2FC4100200AF0C1F89648E3
:104F30000AF0DBF8B1A24FF4827150200AF0E3FAD4
:104F4000B0A24FF4C871A0200AF0DDFA8D4801210B
:104F5000C26990470120AC4908808A48AB49086083
:104F600008BD10B5FFF725FF10BD2DE9F84FA84883
:104F700003231E2282210090012009F0B8FA044682
:104F8000A4484FF6FF731E22A0210090022009F0D2
:104F9000AEFA0546A04800235022D22100900320FB
:104FA00009F0A5FA06469D4800235022D221009020
:104FB000042009F09CFA0746994800235022D22188
:104FC0000090052009F093FA80469648002350226D
:104FD000D2210090062009F08AFA814692480323E4
:104FE0001E2282210090072009F081FA82468F4814
:104FF00008F0AFF88D4B2246F0214FF4A57007F072
:105000005CFD8A4B2A46F021142007F056FD874BA1
:1050100032463C21142007F050FD844B3A463C2197
:10502000FA2007F04AFD814B42469621142007F0F2
:1050300044FD7E4B4A469621FA2007F03EFD7B4B0D
:105040005246F021BE2007F038FDBDE8F88F08B5C4
:10505000FFF78BFF00200AF0CCF8052214214E4800
:105060000AF09DFC00214FF6FF700AF021F8464837
:105070000AF03BF845A24FF4B97114200AF043FA44
:10508000D22350223C2114200AF086FBD223502246
:105090003C21FA200AF080FBD223502296211420D2
:1050A0000AF07AFBD22350229621FA200AF074FBF0
:1050B0004FF6FF701E23A022F021009014200AF06A
:1050C00011FD82231E22F021BE200AF065FB8223FF
:1050D0001E22F0214FF4A5700AF05EFB00214FF66E
:1050E000FF7009F0E5FF284809F0FFFF50A05023AA
:1050F000D2223C21009014200AF04CFF4FA05023F4
:10510000D2223C210090FA200AF044FF4EA0502306
:10511000D2229621009014200AF03CFF4DA050238B
:10512000D22296210090FA200AF034FF4DA01E23CF
:105130008222F0210090BE200AF02CFF4CA01E23FA
:105140008222F02100904FF4A5700AF023FF4FF661
:10515000FF71002009F0ACFF48A01E23A022F0211F
:10516000009014200AF016FF30480121C2699047D0
:105170000220254908802D482449086008BD000008
:10518000053E000884150020440200205345545475
:10519000494E475300000000A852040843484155B7
:1051A000205048554F432056550000004241434887
:1051B000204B484F41000000CE00002043484C4F98
:1051C00052494E45000000006D672F6C0000000042
:1051D0005245444F580000006D560000444F53455F
:1051E000000000006D6C2F6D33686F757200000059
:1051F0006D6C2F6D336461790000000050482D2DD7
:1052000000000000704800006401002060010020E0
:10521000153E0008253E0008353E0008453E0008C2
:10522000553E00086F3E00087F3E0008281600200B
:10523000504152414D4554455253000043414C4961
:1052400042524154494F4E00444F53494E47205417
:105250004553540054595045204F462050524F4218
:105260004500000053415645204441544100000090
:105270004C414E4755414745530000004241434B86
:1052800020544F205354415254000000F8B5FE48BA
:105290004FF6FF731E22D2210090012009F027F95A
:1052A0000446FA484FF6FF731E22D22100900220D6
:1052B00009F01DF90546F64840F2FC433C22D22194
:1052C0000090032009F013F90646F2484FF6686390
:1052D0003C22D2210090042009F009F90746EE484B
:1052E00007F037FFEC4B2246F021FA2007F0E5FBF0
:1052F000E94B2A46F021142007F0DFFBE64B32464B
:10530000AA21142007F0D9FBE34B3A46AA21FA2040
:1053100007F0D3FBF8BD08B5E048007808B9FFF7FF
:10532000B5FF002009F065FF05221421DC480AF0D2
:1053300036FB00214FF6FF7009F0BAFED94809F09C
:10534000D4FEAFF2FC024FF4A57114200AF0DBF892
:105350004FF668606423D2223C21009014200AF0AA
:10536000C1FB40F2FC406423D2223C210090FA2091
:105370000AF0B8FB4FF66861002009F099FEC948B1
:1053800009F0B3FEC8A21E2146200AF0BCF840F284
:10539000FC41002009F08CFEC24809F0A6FEAFF2E5
:1053A0009C124FF4827146200AF0ADF84FF6FF7060
:1053B0001E23D222F021009014200AF093FB4FF616
:1053C000FF701E23D222F0210090FA200AF08AFBFF
:1053D0004FF6686009F07DFED2233C22AA211420FA
:1053E0000AF0DAF940F2FC4009F073FED2233C22C5
:1053F000AA21FA200AF0D0F9AA4809F076FE002185
:105400004FF6FF7009F054FEA448007830B101282F
:1054100017D0022838D0032848D124E0AFF29C10DE
:105420003C23D222AA21009014200AF0B3FDAFF24F
:10543000AC103C23D222AA210090FA200AF0AAFD47
:1054400035E0AFF2C0103C23D222AA2100901420F4
:105450000AF0A0FD96A03C23D222AA210090FA20B7
:105460000AF098FD23E092A03C23D222AA210090CA
:1054700014200AF08FFD8EA03C23D222AA21009096
:10548000FA200AF087FD12E089A03C23D222AA214B
:10549000009014200AF07EFDAFF218203C23D222A7
:1054A000AA210090FA200AF075FD00E000BF00BFBD
:1054B0004FF6FF71002009F0FBFD7FA01E23D222D2
:1054C000F0210090FA200AF065FDAFF250201E2373
:1054D000D222F021009014200AF05CFD6E480121D8
:1054E000C26990470320764908806B487549086077
:1054F00008BD2DE9F84374484FF6FF731E22D221F0
:105500000090012008F0F3FF044670484FF6FF7347
:105510001E22D2210090022008F0E9FF05466C48C7
:1055200000235022D2210090032008F0E0FF06461D
:10553000684800235022D2210090042008F0D7FFB1
:105540000746654801235022D2210090052008F02B
:10555000CEFF8046614807F0FCFD604B2246F021FB
:10556000FA2007F0AAFA5D4B2A46F021142007F032
:10557000A4FA5A4B32463C21142007F09EFA574BAE
:105580003A463C21FA2007F098FA544B42469621BD
:10559000FA2007F092FABDE8F88308B5FFF7A9FFF3
:1055A000002009F026FE052214213D480AF0F7F9F3
:1055B00000214FF6FF7009F07BFD3A4809F095FD98
:1055C000AFF294324FF4AA71142009F09CFFD22359
:1055D00050223C2114200AF0DFF8D22350223C2133
:1055E000FA200AF0D9F84FF668605023D2229621AB
:1055F000009014200AF076FA40F2FC405023D222A8
:1056000096210090FA200AF06DFA00214FF6FF7003
:1056100009F04EFD4FF66861002009F049FD30A009
:105620005023D2229621009014200AF0B3FC40F2BD
:10563000FC41002009F03CFDAFF238405023D2225B
:1056400096210090FA200AF0A5FC4FF6FF701E2369
:10565000D222F021009014200AF044FA4FF6FF7095
:105660001E23D222F0210090FA200AF03BFA0D48C6
:1056700009F03BFD00214FF6FF7009F019FD1CA059
:105680005023D2223C2137E0873E0008A53E000887
:10569000C33E00080B3F0008CC160020C9000020C4
:1056A000A852040844020020444953494E462E00A3
:1056B00053544F50000000004241434B0000000093
:1056C0006401002060010020533F0008633F000890
:1056D000733F0008833F0008933F000870170020C5
:1056E000444953494E46454354494F4E000000003B
:1056F000504F4F4C00000000009014200AF04AFC6C
:10570000FEA05023D2223C210090FA200AF042FC55
:105710004FF6FF71002009F0CBFCAFF264001E23AE
:10572000D222F0210090FA200AF034FCAFF2B4400B
:105730001E23D222F021009014200AF02BFC4FF6F9
:10574000FF71002009F0B4FCEE480121C2699047C6
:105750000720ED490880EB48EC49086008BD2DE9B9
:10576000F843EB484FF6FF731E22D2210090012030
:1057700008F0BDFE0446E7484FF6FF731E22D22113
:105780000090022008F0B3FE0546E34803233C22C4
:1057900064210090184608F0AAFE0646DF4803235D
:1057A0003C2264210090042008F0A1FE0746DC485A
:1057B00003233C22D2210090052008F098FE804669
:1057C000D84801236422D2210090062008F08FFEE1
:1057D0008146D54807F0BDFCD34B2246F021FA2084
:1057E00007F06BF9D04B2A46F021142007F065F939
:1057F000CD4B3246AA21142007F05FF9CA4B3A4636
:10580000AA21822007F059F9C74B4246AA21FA2063
:1058100007F053F9C44B4A463C21FA2007F04DF9F2
:10582000BDE8F88308B5FFF79AFF002009F0E1FC16
:1058300005221421BD480AF0B2F800214FF6FF708E
:1058400009F036FCBA4809F050FCBAA24FF48C714A
:10585000142009F058FE45F2AA206423D2223C21EC
:10586000009014200AF03EF945F2AA206423D222C7
:105870003C210090FA200AF035F945F2AA2009F0FF
:105880002EFCAB4809F031FCAEA21E21462009F0E7
:105890003AFE002014233C228C2100905F200AF065
:1058A00021F945F2AA2009F01AFCA14809F01DFCD3
:1058B000A7A2FF21462009F026FE4FF6FF701E2307
:1058C000D222F021009014200AF00CF94FF6FF705C
:1058D0001E23D222F0210090FA200AF003F94FF69D
:1058E000FF7009F0F6FB64233C22AA21142009F082
:1058F00053FF64233C22AA21822009F04DFFD223CA
:105900003C22AA21FA2009F047FF964809F0EDFB56
:1059100000214FF6FF7009F0CBFB93A03C236422DB
:10592000AA21009014200AF035FB90A03C236422A9
:10593000AA21009082200AF02DFB7D4809F0D5FBBA
:105940008BA03C23D222AA210090FA200AF022FB4D
:105950004FF6FF71002009F0ABFBAFF2A4201E232D
:10596000D222F0210090FA200AF014FBAFF2F4608A
:105970001E23D222F021009014200AF00BFB4FF6D8
:10598000FF71002009F094FB67480121C26990472C
:1059900008205D49088064485C49086008BD2DE91D
:1059A000F84374484FF6FF731E22D2210090012065
:1059B00008F09DFD044670484FF6FF731E22D22169
:1059C0000090022008F093FD05466C4803233C221A
:1059D00064210090184608F08AFD064668480323B3
:1059E0003C2264210090042008F081FD07466548B0
:1059F00003233C22D2210090052008F078FD804648
:105A0000614801236422D2210090062008F06FFD36
:105A100081465E4807F09DFB5C4B2246F021FA2050
:105A200007F04BF8594B2A46F021142007F045F8AF
:105A3000564B3246AA21142007F03FF8534B3A4602
:105A4000AA21822007F039F8504B4246AA21FA20B9
:105A500007F033F84D4B4A463C21142007F02DF84F
:105A6000BDE8F88308B5FFF79AFF002009F0C1FBF5
:105A7000052214212D4809F092FF00214FF6FF70F6
:105A800009F016FB2A4809F030FB2AA24FF48C716A
:105A9000142009F038FD45F2AA206423D2223C21CB
:105AA000009014200AF01EF845F2AA206423D222A6
:105AB0003C210090FA200AF015F8002014233C2223
:105AC0008C21009040F245100AF00CF845F2AA2112
:105AD0004FF6FF7009F0ECFA154809F006FB19A221
