:020000040800F2
:10000000A8110120F12102082D0F00082F0F000870
:10001000330F0008370F00083B0F000800000000F6
:10002000000000000000000000000000A90200081D
:100030003F0F000800000000FD0200080120020838
:100040000B2202080B2202080B2202080B220208D4
:100050000B2202080B2202080B2202080B220208C4
:100060000B2202080B2202080B2202080B220208B4
:100070000B2202080B2202080B2202080B220208A4
:100080000B2202080B2202080B2202080B22020894
:100090000B2202080B2202080B2202080B22020884
:1000A0000B2202080B2202080B2202080B22020874
:1000B000830F0008850F0008870F00080B22020835
:1000C0000B2202080B2202080B2202080B22020854
:1000D0000B2202080B2202080B2202080B22020844
:1000E0000B2202080B2202080B2202080B22020834
:1000F0000B2202080B2202080B2202080B22020824
:100100000B2202080B220208890F00080B220208AA
:100110000B2202080B2202080B2202080B22020803
:100120000B2202080B2202080B2202080B220208F3
:100130000B220208410F00080B2202080B220208C2
:100140000B2202080B2202080B2202080B220208D3
:100150000B2202080B2202080B2202080B220208C3
:100160000B2202080B2202080B2202080B220208B3
:100170000B2202080B2202080B2202080B220208A3
:100180000B2202080B22020800F002F800F07CF8B3
:100190000AA090E8000C82448344AAF10107DA45E2
:1001A00001D100F071F8AFF2090EBAE80F0013F0B8
:1001B000010F18BFFB1A43F001031847CC78050064
:1001C000EC7805000A444FF0000C10F8013B13F0E6
:1001D000070408BF10F8014B1D1108BF10F8015BA0
:1001E000641E05D010F8016B641E01F8016BF9D193
:1001F00013F0080F1EBF10F8014BAD1C0C1B09D1EA
:100200006D1E58BF01F801CBFAD505E014F8016B5B
:1002100001F8016B6D1EF9D59142D6D370470000ED
:100220000023002400250026103A28BF78C1FBD8FF
:10023000520728BF30C148BF0B607047662926F0BF
:100240006084642922F0AE80752922F0AB80632996
:1002500022F04586002070471FB526F048FC9DE837
:10026000030022F06DFB22F00DFF040000200021AE
:1002700025F09EFD401C60600020002125F082FDDD
:10028000E0601FBD10B510BD23F08EF81146FFF7DA
:10029000E3FF00F088FC23F00DFB03B4FFF7F2FF4F
:1002A00003BC23F03BFB00002A4B19680868B0E848
:1002B000F04F80F30988BFF36F8F4FF0000080F399
:1002C000118870470000000006480068006880F34D
:1002D000088862B661B6BFF34F8FBFF36F8F00DF40
:1002E00000BF00BF08ED00E0DFF80C00016841F43A
:1002F00070010160704700BF88ED00E0EFF30980F6
:10030000BFF36F8F134B1A681EF0100F08BF20ED5C
:10031000108A20E9F04F106008B44FF0500080F3CD
:100320001188BFF34F8FBFF36F8F20F05AFD4FF04E
:10033000000080F3118808BC19680868B0E8F04F25
:100340001EF0100F08BFB0EC108A80F30988BFF3CD
:100350006F8F7047E0030020EFF3058070470000C7
:100360000EB50121082013F07CFD502001900020E3
:10037000ADF80000ADF80800ADF802006946FD4890
:1003800014F05BF80021FB4814F0B6F80121F9489D
:1003900014F01CFD01221146F64814F0EFFC002178
:1003A000F44814F0D3F80EBD10B50446F2480480AA
:1003B000FFF7D6FF0021EF4814F088F80121ED483F
:1003C00014F0C4F800BFEC4800880028FBD10021DD
:1003D000E84814F0BBF810BD2DED108B86B000245A
:1003E000002500BF002003F049FCDFEDE40A80EEA9
:1003F000201A11EE106A304626F008FB41EC190B6A
:100400009FEDDF0B53EC102B26F016FA41EC180B86
:100410009FEDDD0B53EC102B25F0DAFDDC4A02EBEF
:10042000C40203C2062003F029FC10EE106A304615
:1004300026F0ECFA41EC190B9FEDD60B53EC102B88
:1004400026F0FAF941EC180B9FEDD40B53EC102B6E
:1004500025F0BEFDD34A02EBC40203C2042C02DA2B
:10046000601CC4B2B7E00024002529E0C84800EBB6
:10047000C50090ED001BB0EE410AF0EE610A53ECAE
:10048000102BC94890ED001B51EC110B25F0E4FC3A
:10049000C54A03C2C34800EBC50090ED001BB0EE97
:1004A000410AF0EE610A53EC102BC04890ED001B9E
:1004B00051EC110B25F0D0FCBC4A03C2681CC5B23C
:1004C000052DD3DB03F064FCCC2003F018FD4420A1
:1004D00003F006FD6420FFF767FF03F059FCCC2012
:1004E00003F00DFDBE2003F0FBFC03F00EFD10EE4B
:1004F000106A304626F08AFAAD4A03C29FEDAD0B72
:1005000053EC102BA84890ED000B51EC100B25F08C
:100510005FFDAA4A03C29FEDA70B53EC102BA34823
:1005200090ED000B51EC100B25F052FDA44A03C2D4
:100530009FEDA40B9D4880ED000B9B4880ED000BC8
:100540009B4890ED000B03F0E9FBB0EE409AF0EE13
:10055000609A9E4890ED000B53EC102B974890ED5D
:10056000000B51EC100B26F067F941EC1A0B53EC21
:10057000192B25F02DFD41EC180B954890ED000B43
:1005800053EC102B51EC180B25F066FC914A03C27A
:100590008B4890ED000B53EC102B8FA18F4821F06E
:1005A0009DFE00208D49C8708A4890ED000B53ECE9
:1005B000102B8BA18C4821F091FE00208A49C87035
:1005C0007B4890ED000B51EC100B25F013FC874994
:1005D0000860874908608748007800287DD18648F0
:1005E00000680028FAD18548006826F00FFA41EC2F
:1005F0001A0B834890ED000AFAEE0C0A30EE200A3E
:1006000010EE101A084626F001FA41EC1F0BB0EE6E
:100610004F1AF0EE6F1A9FED7B0B24F09DF8B0EEB1
:1006200040DAF0EE60DA794890ED000B51EC100BF7
:1006300025F0D4FB41EC1F0BB0EE4F1AF0EE6F1A11
:100640009FED700B24F088F8B0EE40EAF0EE60EA1F
:1006500053EC1D2B51EC1E0B25F0FEFB41EC1B0B4C
:100660006A4890ED000B51EC100B25F0B7FB41EC04
:100670001F0BB0EE4F1AF0EE6F1A9FED620B24F0D5
:100680006BF8B0EE40DAF0EE60DA524890ED000B15
:1006900051EC100B25F0A2FB41EC1F0BB0EE4F1AF2
:1006A000F0EE6F1A9FED570B24F056F8B0EE40EACB
:1006B000F0EE60EA53EC1D2B51EC1E0B26F0BCF85B
:1006C00041EC1C0B53EC1B2B25F082FC53EC1A2B3A
:1006D000CDE904019DED040B00E00BE151EC100BA2
:1006E00025F076FC41EC190B9FED490B53EC102BD8
:1006F00025F096FE41EC180B9FED320B53EC102BBE
:1007000025F08CFF35D23D48006826F07FF941EC9A
:10071000180B3B4890ED000AFAEE0C0A30EE200A66
:1007200010EE101A084626F071F941EC1E0BB0EEDF
:100730004E1AF0EE6E1A9FED330B24F00DF8B0EE6A
:1007400040CAF0EE60CA314890ED000B51EC100B3E
:1007500025F044FB41EC1E0BB0EE4E1AF0EE6E1A83
:100760009FED280B23F0F8FFB0EE40DAF0EE60DAF0
:1007700052E0BCE0000C00404800002000007A4439
:100780002DB29DEFA7C6F93FDF7A2949920416C022
:100790008804002066666666668652403C448A9EEF
:1007A000E78902406004002058000020500000202B
:1007B000400000200000000000001440180000204D
:1007C0002000002000000000000000003800002091
:1007D000D80000201000002025336600990000207A
:1007E00025312E31660000009D0000200801002008
:1007F000040100200200002030000020280000201A
:100800002C0000200000000000002440F000002028
:100810000000000000408F4053EC1C2B51EC1D0BDE
:1008200025F01AFB41EC1A0BFE4890ED000B51EC41
:10083000100B25F0D3FA41EC1F0BB0EE4F1AF0EE7F
:100840006F1A1FED100B23F087FFB0EE40DAF0EEC9
:1008500060DAF54890ED000B51EC100B25F0BEFA74
:1008600041EC1F0BB0EE4F1AF0EE6F1A1FED1B0B91
:1008700023F072FFB0EE40EAF0EE60EA53EC1D2B7D
:1008800051EC1E0B25F0D8FF41EC1C0BE74800781B
:1008900025F076FD53EC1C2BCDE900019DED000BFE
:1008A00051EC100B25F0BCFD41EC1B0B53EC1A2B4B
:1008B00025F08EFB41EC190B53EC182B25F088FB2F
:1008C0001FED2D0B53EC102BCDE902019DED020B1A
:1008D00051EC100B25F0A4FDCDE904019DED040BB6
:1008E00051EC100B25F008FDD149086002E0002012
:1008F000CF490860322020F063F973E500BFCD488E
:100900000078401CCB490870CB480078002805DDF2
:10091000C9480078401EC849087002E00120C74954
:100920000870C44800783B2815DDC5480078401C95
:10093000C34908700020BF490870C24800780028E9
:1009400005DDC0480078401EBE49087003E0BE487F
:100950000078BC490870BA4800783B2807DDBB48DE
:100960000078401CB94908700020B5490870B748A4
:100970000078172806DD0020B4490870B0490870D7
:10098000AC4908704FF47A7020F01AF9B7E700BF4D
:10099000AF48008803287CD1AE480078002879D081
:1009A00001287AD0022848D0032875D1AA4890EDB2
:1009B000000AB8EE400AA948D0ED000A20EE200A4D
:1009C000DFEDA70AB4EEE00AF1EE10FA09D2102228
:1009D000A449012003F096F99F480068401C9E49F5
:1009E0000860A14890ED000AB8EE400A9B48D0ED9F
:1009F000000A20EE200ADFED9D0AB4EEE00AF1EED7
:100A000010FA09D220229749012003F07BF9964879
:100A10000068401C94490860012020F0D1F81022A1
:100A20009049002003F06EF920228E49002003F047
:100A300069F9032020F0C4F867E0874890ED000AC8
:100A4000B8EE400A8548D0ED000A20EE200ADFED1E
:100A5000840AB4EEE00AF1EE10FA09D210228149BC
:100A6000012003F04FF97C480068401C7A49086077
:100A7000012020F0A5F810227A49002003F042F965
:100A8000032020F09DF820227649002003F03AF957
:100A90003BE03CE02DE000E036E010227149002010
:100AA00003F030F9704890ED000AB8EE400A6B4848
:100AB000D0ED000A20EE200ADFED6C0AB4EEE00A69
:100AC000F1EE10FA09D220226649012003F01AF94A
:100AD00065480068401C64490860012020F070F8F7
:100AE00020226049002003F00DF9032020F068F86F
:100AF0000BE010225B49002003F004F92022594941
:100B0000002003F0FFF800E000BF00BF1DE04848F0
:100B1000006848B120225349012003F0F3F844480B
:100B20000068401E42490860012020F049F8102268
:100B30004C49002003F0E6F820224A49002003F047
:100B4000E1F8032020F03CF800BF21E700BF0FF0E0
:100B500074FD0DF0D5FC0DF0AEFD02F027FDF6E7BB
:100B60001CB5002011F03CFA012011F039FA0220E6
:100B700011F036FA032011F033FA0121022013F0AC
:100B80003DF9012000908DF8040000208DF806004A
:100B900003208DF8050001208DF8070069463448D0
:100BA00012F0EAFE1CBD1CB54FF4E13131480DF0E6
:100BB0009BFEFFF7D5FF0EF0BFFA002008F0D9FC2E
:100BC0000FF08DFB03F086F803F022F811F060F9C6
:100BD00001F0DDFFFFF7C4FB02F0F0F804F0A3F929
:100BE00000F0E6FA00F0DEF94FF4407011F04EFE2E
:100BF00001F04EFF0020012103460A02CDE900105A
:100C00001DA1AFF2B7001FF0B6FD00200121034681
:100C10008022CDE900101AA1AFF28D201FF0ABFDAC
:100C2000002035E0F000002010000020D10000205E
:100C300030000020B6000020A10000209800002015
:100C4000B500002002000020D2000020B4000020E7
:100C500064010020C90000200800002028000020B6
:100C60000000C84300000240040000200000484388
:100C700000040240001001404C43445461736B0077
:100C80004163747561746F725461736B000000008E
:100C9000012103468022CDE9001015A1AFF2A33057
:100CA0001FF069FD0020022103468022CDE90010DB
:100CB00011A1AFF6DB001FF05EFD20F05CFA00BF73
:100CC000FEE700BF502080F31188BFF34F8FBFF3C2
:100CD0006F8F00BF21F07DFA044621460AA00DF077
:100CE000B0FE00BFFEE7704710B50DF001FD10BD6E
:100CF000436C6F636B000000526561645F70485F16
:100D00005265646F780000006672656548656170C1
:100D100073697A65203D2025640A00000CB5002027
:100D2000019000907648006840F480307449086073
:100D300000BF7348006800F4003000900198401C28
:100D40000190009818B90198B0F5A06FF1D16C48E6
:100D5000006800F4003010B10120009001E0002094
:100D600000900098012846D165484030006840F066
:100D700080506349403108606248006840F4804018
:100D8000604908605E48083000685D4908310860C5
:100D90000846006840F4004008600846006840F4D7
:100DA000A05008605848091F0860081F006840F0FC
:100DB0008070091F086000BF5148006800F0007093
:100DC0000028F9D040F20520504908604C4808300E
:100DD000006820F003004A490831086008460068AE
:100DE00040F00200086000BF45480830006800F08D
:100DF0000C000828F8D10CBD10B54548006840F437
:100E00007000434908603E48006840F001003C49DA
:100E1000086000203A4908310860394800683D49B7
:100E20000840374908603C48091D0860081F0068F1
:100E300020F48020091F0860002031490C3108602F
:100E4000FFF76CFF4FF0006031498039086010BD3A
:100E500070B500200022022300240221284D08350D
:100E60002D6805F00C0020B1042806D0082834D1E4
:100E700007E02A4D2A4E356033E02A4D284E356072
:100E80002FE01F4D2D1D2D68C5F380541C4D2D1DC9
:100E90002D6805F03F0154B1224DB5FBF1F5184E18
:100EA000361D3668C6F3881605FB06F209E01B4DB1
:100EB000B5FBF1F5124E361D3668C6F3881605FBF4
:100EC00006F20F4D2D1D2D68C5F301456D1C6B00FD
:100ED000B2FBF3F5124E356003E0104D104E356055
:100EE00000BF00BF064D08352D68C5F303150E4E33
:100EF000705D0B4D2D68C540094E356070BD00001A
:100F0000003802400070004019544007003C024085
:100F100088ED00E0FFFFF6FE103000240024F4000E
:100F20006000002040787D0164000020704700BF11
:100F3000FEE700BFFEE700BFFEE700BFFEE7704729
:100F400008B500200090402015F023FA012804D1B4
:100F50006946114800681FF050F9402015F03DFA2D
:100F60004FF4803015F039FA009848B1009838B144
:100F70004FF0805009490860BFF34F8FBFF36F8F68
:100F800008BD70477047704710B50121044813F041
:100F90001DFF01F07EFE10BDD403002004ED00E033
:100FA000000C004000B58DB00021084617F0B0FEDF
:100FB0001D481DF007FB0C906FF0FF001DF002FBB9
:100FC0000B90194815381DF0FDFA0A9016208DF87F
:100FD000240001208DF82500A8208DF82600C020CF
:100FE0008DF827009DF824009DF82510CDE900100C
:100FF0009DF826309DF827200CA104A821F06EF959
:101000000E480F4900220AABCDE9002102900BAA3D
:101010000CA90C4819F035FA0A4819F072FA094877
:1010200019F0BFFA0DB000BD1601A8C0202025643C
:101030002E25642E25642E2564000000C18B010836
:10104000F5F60108B004002000B5AFB001214FF063
:10105000606012F0D3FE14F0FDFB15F089F900BFBB
:1010600015F08DF90128FBD0684614F0FEFB012035
:101070000090002007904FF400700A9000200B9021
:101080000E90119013901490159020904FF00070D6
:101090002190001123900020259026900420289074
:1010A000C005299040122A9080012B9040122C906C
:1010B00040002E900121684614F091FC43490860DD
:1010C0000121434815F072F92FB000BD08B54FF467
:1010D000A06011F0DBFB3D208DF8000002208DF8B0
:1010E000010000208DF8020001208DF80300684601
:1010F00011F0D1FB08BD1CB50121472012F07EFE86
:101100000121880312F0BEFE012012F0E4FF8E20C0
:10111000009003208DF8050002208DF804000020C7
:101120008DF806008DF8070069462A4812F024FC65
:101130000B220121274812F0AAFC0B22022125488C
:1011400012F0A5FC0B220321224812F0A0FC0B2276
:101150000721204812F09BFC4FF460500090694634
:101160001D4812F009FC0B2211461B4812F08FFC9F
:101170000B220C21184812F08AFC0B220D21164874
:1011800012F085FC322000906946144812F0F4FBFE
:101190000B220121114812F07AFC0B2204210F4886
:1011A00012F075FC0B2205210C4812F070FC1CBDDE
:1011B00010B5FFF7A0FFFFF789FFFFF745FF0348D2
:1011C000006808B900BFFEE710BD000074000020F1
:1011D00040000100000002400004024000080240FC
:1011E000002114E001EB41003D4A02EBC000007D0C
:1011F00060B9012001EB4102394B03EBC2021075CB
:1012000001EB41001A4602EBC0007047491C0A2955
:10121000E8DB0020F9E710B5014600200FE000EB05
:1012200040022F4B03EBC2028A4207D1002200EB9F
:1012300040032B4C04EBC3031A7502E0401C0A2840
:10124000EDDB00BF10BD70B50646FFF7C9FF0546D0
:101250000DB9002070BD234C11E03046616821F0CB
:101260000BFB58B9A0682860E0686860E068A86077
:101270000020E860207C28742846EBE72468002CD6
:10128000EBD12846FFF7C7FF0020E3E710B504467F
:101290002046FFF7C0FF10BD2DE9F04104460F4680
:1012A0001646D4E90110884203D14FF0FF30BDE863
:1012B000F081D4E90101451AB54200DD3546A26846
:1012C000206881182A46384621F014FAA06828447C
:1012D000A0602846EBE70146D1E90102801A704779
:1012E000E8040020B414030870B504467E4821F0D9
:1012F0008BF905462A467C49204616F0E6FE70BD6D
:1013000070B5044640F6AC51784821F040FA78A117
:10131000764821F0E3F978A1744821F0DFF978A14B
:10132000724821F0DBF97DA1704821F0D7F987A13F
:101330006E4821F0D3F990A16C4821F0CFF995A126
:101340006A4821F0CBF99EA1684821F0C7F99FA116
:10135000664821F0C3F99EA1644821F0BFF9A2A11B
:10136000624821F0BBF9A8A1604821F0B7F9AEA10D
:101370005E4821F0B3F9ADA15C4821F0AFF9ADA111
:101380005A4821F0ABF9BBA1584821F0A7F9BEA1FA
:10139000564821F0A3F9C0A1544821F09FF9C3A1F8
:1013A000524821F09BF9C4A1504821F097F99EA121
:1013B0004E4821F093F9C3A14C4821F08FF9C2A106
:1013C0004A4821F08BF9C6A1484821F087F9C8A105
:1013D000464821F083F9CCA1444821F07FF9D1A1FE
:1013E000424821F07BF990A1404821F077F9D5A13E
:1013F0003E4821F073F9D9A13C4821F06FF98AA148
:101400003A4821F06BF9D9A1384821F067F9DBA1FE
:10141000364821F063F9DFA1344821F05FF9E2A1F9
:10142000324821F05BF9E3A1304821F057F97EA161
:101430002E4821F053F9E3A12C4821F04FF9E3A104
:101440002A4821F04BF9E6A1284821F047F9E8A104
:10145000264821F043F9EDA1244821F03FF9D2A11B
:10146000224821F03BF970A1204821F037F9EBA187
:101470001E4821F033F9ECA11C4821F02FF9EDA111
:101480001A4821F02BF98CA1184821F027F987A1DF
:10149000164821F023F964A1144821F01FF9EBA1AB
:1014A000124821F01BF9EDA1104821F017F9F0A125
:1014B0000E4821F013F9F2A10C4821F00FF9F5A123
:1014C0000A4821F00BF9FAA1084821F007F9B1A167
:1014D000064821F003F954A1044821F0FFF8FBA1CC
:1014E000024821F0FBF8F9E1B51A0308D8070020FB
:1014F0003C68746D6C3E0000203C686561643E0091
:10150000203C7469746C653E576562207365727621
:1015100065723C2F7469746C653E0000203C6D65FB
:101520007461206E616D653D2264657363726970DC
:1015300074696F6E2220636F6E74656E743D2257FE
:101540006562736572766572222F3E00203C6D6580
:101550007461206E616D653D226B6579776F726491
:101560002220636F6E74656E743D227562756E74B1
:1015700075222F3E00000000203C6D6574612063E1
:101580006861727365743D227574662D38222F3E32
:1015900000000000203C6D65746120687474702D3B
:1015A00065717569763D2272656672657368222081
:1015B000636F6E74656E743D2233223E000000003E
:1015C000203C7374796C653E000000002A207B008B
:1015D000626F782D73697A696E673A20626F726400
:1015E00065722D626F783B002D6D6F7A2D626F787A
:1015F0002D73697A696E673A20626F726465722D25
:10160000626F783B000000002D7765626B69742D76
:10161000626F782D73697A696E673A20626F7264BF
:1016200065722D626F783B007D000000626F647907
:10163000207B0000666F6E742D66616D696C793A6F
:10164000202248656C76657469616361204E65751A
:1016500065222C2048656C766574696163612C2075
:10166000417269616C2C2073616E732D73657269B0
:10167000663B0000666F6E742D7765696768743A23
:101680002033303070783B00636F6C6F723A2023E8
:101690003333333B000000006C696E652D6865696B
:1016A0006768743A20312E3235343B006D617267C1
:1016B000696E3A20303B000070616464696E673A7D
:1016C00020303B0061207B00746578742D64656375
:1016D0006F726174696F6E3A206E6F6E653B0000C9
:1016E000636F6C6F723A20233362386262613B0031
:1016F0007472616E73666F726D3A20616C6C20302B
:101700002E35733B000000002D6D6F7A2D747261D1
:101710006E73666F726D3A20616C6C20302E35737B
:101720003B0000002D7765626B69742D7472616EE9
:1017300073666F726D3A20616C6C20302E35733B8E
:1017400000000000613A686F7665722C20613A767D
:10175000697369746564207B00000000636F6C6FBF
:10176000723A20233236353737383B0023636F6EA9
:101770007461696E6572207B0000000070616464B2
:10178000696E672D6C6566743A2031353070783B30
:1017900000000000706F736974696F6E3A207265A3
:1017A0006C61746976653B006C6566743A20303B09
:1017B0000000000077696474683A20313030253BBE
:1017C00000000000236D656E75207B00706F7369EB
:1017D00074696F6E3A2066697865643B00000000AA
:1017E0006865696768743A20313030253B00000035
:1017F0006261636B67726F756E642D636F6C6F727D
:101800003A20233139313831383B0000776964742C
:10181000683A2031353070783B000000236D656EEA
:1018200075207B7D00000000236D656E7520756C52
:101830007B0000006C6973742D7374796C652D7472
:101840007970653A206E6F6E653B0000236D656EA2
:101850007520756C206C69207B0000006C696E65DA
:101860002D6865696768743A20322E39656D3B00D2
:101870006865696768743A20322E39656D3B2000CF
:101880007472616E736974696F6E3A20616C6C205A
:1018900031733B002D6D6F7A2D7472616E736974B4
:1018A000696F6E3A20616C6C2031733B0000000060
:1018B0002D7765626B69742D7472616E73697469DA
:1018C0006F6E3A20616C6C2031733B00236D656E46
:1018D0007520756C206C692061207B0095A199486A
:1018E00020F0FCFE98A1974820F0F8FE9AA19548B8
:1018F00020F0F4FE9CA1934820F0F0FEAFF2D82136
:10190000904820F0EBFEA0A18E4820F0E7FEA3A1B6
:101910008C4820F0E3FEAFF2F0218A4820F0DEFE92
:10192000A5A1884820F0DAFEA8A1864820F0D6FEBE
:10193000AAA1844820F0D2FEADA1824820F0CEFEBC
:10194000AFF2C0117F4820F0C9FEAFF25C117D48B4
:1019500020F0C4FEAFF230317A4820F0BFFEA6A1DD
:10196000784820F0BBFE73A1764820F0B7FEAFF2B6
:101970004831744820F0B2FEA7A1724820F0AEFEB4
:10198000A8A1704820F0AAFEAFF264316D4820F0A3
:10199000A5FEA9A16B4820F0A1FEAEA1694820F0E8
:1019A0009DFEAFF27C31674820F098FEAFA16548FC
:1019B00020F094FEB0A1634820F090FEB6A16148EB
:1019C00020F08CFEB9A15F4820F088FEBBA15D48E5
:1019D00020F084FEAFF2B0315A4820F07FFEBCA167
:1019E000584820F07BFEBFA1564820F077FEC2A1E8
:1019F000544820F073FEC7A1524820F06FFEAFF2AA
:101A0000D831504820F06AFEC9A14E4820F066FE49
:101A1000C9A14C4820F062FECCA14A4820F05EFEED
:101A2000AFF2FC31474820F059FECDA1454820F0E7
:101A300055FECEA1434820F051FED0A1414820F0F0
:101A40004DFED1A13F4820F049FEAFF224413D4870
:101A500020F044FED0A13B4820F040FED4A13948FC
:101A600020F03CFED6A1374820F038FEAFF24841C6
:101A7000344820F033FED7A1324820F02FFEBBA11E
:101A8000304820F02BFEAFF260412E4820F026FEB9
:101A9000D4A12C4820F022FED5A12A4820F01EFE19
:101AA000D7A1284820F01AFEDDA1264820F016FE16
:101AB000DFA1244820F012FEAFF29441214820F02B
:101AC0000DFEE0491F4820F009FEDF491D4820F0C7
:101AD00005FEDEA11B4820F001FEDFA1194820F021
:101AE000FDFDE0A1174820F0F9FDE0A1154820F028
:101AF000F5FDE4A1134820F0F1FDE7A1114820F025
:101B0000EDFDE7A10F4820F0E9FDEFA10D4820F021
:101B1000E5FDF8A10B4820F0E1FDF8A1094820F00F
:101B2000DDFDF8A1074820F0D9FDFBA1054820F014
:101B3000D5FDFBE1646973706C61793A20626C6F6A
:101B4000636B3B00D8070020636F6C6F723A2023F1
:101B50006666663B0000000070616464696E673A07
:101B600020302031656D3B00626F726465722D62BA
:101B70006F74746F6D3A2031707820736F6C696484
:101B800020233333333B0000236D656E7520756C65
:101B9000206C693A686F766572207B006261636BC6
:101BA00067726F756E642D636F6C6F723A202334A9
:101BB00035343534353B0000236D656E75202E734A
:101BC00075622D6D656E75207B0000006469737011
:101BD0006C61793A206E6F6E653B0000706F7369BF
:101BE00074696F6E3A206162736F6C7574653B0047
:101BF000746F703A20303B00236D656E7520756CF4
:101C0000206C693A686F766572202E7375622D6D4F
:101C1000656E757B0000000023636F6E74656E74E3
:101C2000207B000070616464696E673A2031656DE5
:101C30002038656D3B000000236865616465722C87
:101C4000202E63616C6C2D746F2D616374696F6EEF
:101C5000207B0000746578742D616C69676E3A2092
:101C60002063656E7465723B000000002368656147
:101C7000646572207B7D0000236865616465722065
:101C8000236C6F676F207B666F6E742D73697A6546
:101C90003A343070783B7D0023686561646572205A
:101CA00023736C6F67616E207B000000636F6C6F45
:101CB000723A203839393761303B0000666F6E74F4
:101CC0002D73697A653A20302E38656D3B0000002F
:101CD0002E63616C6C2D746F2D616374696F6E205F
:101CE0007B00000070616464696E673A20312E35B4
:101CF000656D203230253B006261636B67726F75E2
:101D00006E642D636F6C6F723A2023663066666670
:101D1000663B0000626F726465723A203170782011
:101D2000736F6C696420236538653865383B000043
:101D30002E726F77207B00006F766572666C6F770E
:101D40003A2068696464656E3B0000006D617267EB
:101D5000696E3A20312E35656D206175746F3B00D8
:101D60002E726F77202E636F6C207B00666C6F6124
:101D7000743A206C6566743B0000000077696474F7
:101D8000683A203430253B006D617267696E3A20F5
:101D900032656D3B000000002E726F77202E636F5E
:101DA0006C3A6C6173742D6368696C64207B00000D
:101DB000666C6F61743A2072696768743B0000005A
:101DC0006D617267696E2D72696768743A20303B85
:101DD000000000002E726F77202E636F6C20696DFB
:101DE00067207B0023666F6F746572207B000000A4
:101DF000666F6E742D73697A653A203835253B001D
:101E0000626F726465722D746F703A203170782041
:101E1000736F6C696420236536653665363B000058
:101E2000636F6C6F723A20233833383338333B009A
:101E300070616464696E673A2031656D2033656D49
:101E40003B00000000790508587905083C2F7374A1
:101E5000796C653E00000000203C2F686561643E9F
:101E600000000000203C626F64793E00203C646901
:101E7000762069643D22636F6E7461696E657222BB
:101E80003E000000203C6469762069643D226D6557
:101E90006E75223E00000000203C756C3E00000084
:101EA000203C6C693E3C6120687265663D222F686B
:101EB0006F6D65223E486F6D65706167653C2F618F
:101EC0003E3C2F6C693E0000203C6C693E3C61202A
:101ED000687265663D222F73657474696E67223E71
:101EE00053657474696E67733C2F613E3C2F6C6957
:101EF0003E000000203C2F756C3E0000203C2F640B
:101F000069763E00203C6469762069643D22636FF7
:101F10006E74656E74223E00203C646976206964AC
:101F20003D22686561646572223E000089A1964881
:101F300020F0D4FB95A1944820F0D0FB98A19248C2
:101F400020F0CCFBAFF24C018F4820F0C7FB9EA1E4
:101F50008D4820F0C3FBA1A18B4820F0BFFBA7A1B7
:101F6000894820F0BBFBAFA1874820F0B7FBB5A1A3
:101F7000854820F0B3FBBAA1834820F0AFFBC0A195
:101F8000814820F0ABFBC6497F4820F0A7FBC5A1E4
:101F90007D4820F0A3FBCDA17B4820F09FFBCDA185
:101FA000794820F09BFBD749774820F097FBD6A1D2
:101FB000754820F093FBD849734820F08FFBAFF2AF
:101FC000C401714820F08AFBD4A16F4820F086FB41
:101FD000B3496D4820F082FBD8A16B4820F07EFB0E
:101FE000BAA1694820F07AFBDFA1674820F076FBB0
:101FF000E949654820F072FBC3A1634820F06EFBFD
:10200000E649614820F06AFBAFF210115E4820F00B
:1020100065FBE3A15C4820F061FBE5A15A4820F094
:102020005DFBE8A1584820F059FBAFF2301156484B
:1020300020F054FBAFF23C11534820F04FFBAFF2BD
:102040004411514820F04AFBE7A14F4820F046FBDD
:10205000E8A14D4820F042FB4B4820F0D5FA054658
:102060002A464949204616F030F870BD70B504463E
:10207000E34820F0C9FA05462A46E149204616F011
:1020800024F870BD70B50446DE4820F0BDFA054660
:102090002A46DC49204616F018F870BD3EB50446C5
:1020A0004FF40071D84820F072FBD8480068401CFB
:1020B000D64908600846D6A10268684620F00EF9A5
:1020C0006946D14820F00AFBD2A1CF4820F006FB98
:1020D000DDA1CD4820F002FBCB4820F095FACA499B
:1020E000451828461FF0B8FBE5A1C74820F0F6FACE
:1020F000F1A1C54820F0F2FAFE4820F085FA054625
:102100002A46FC49204615F0E0FFBF4820F07CFA43
:1021100005462A46BC49204615F0D7FF3EBD2DE9AD
:10212000F0472DED048BADF5BF6D074640F2DC5A4C
:102130000026524607A9384615F0A9FE8046B8F198
:10214000000F05DA0DF5BF6DBDEC048BBDE8F0871F
:10215000D2E10000203C6469762069643D226C6F06
:10216000676F223E486F6D657061676520576562D5
:1021700053657276657220666F7220737973746529
:102180006D3C2F6469763E00D8070020203C6469CE
:10219000762069643D22736C6F67616E223E000099
:1021A000203C703E57656220636F6E74726F6C20C6
:1021B00064656D6F20666F722053544D3332463420
:1021C00078783C2F703E0000203C2F6469763E3CBE
:1021D000216865616465723E00000000203C64690E
:1021E0007620636C6173733D2263616C6C2D746F38
:1021F0002D616374696F6E223E000000203C6833DD
:102200003E4C434420776174657220636F6E747234
:102210006F6C2076696120776562736974653C2F05
:1022200068333E00203C703E704820616E6420524E
:1022300065646F7820636F6E74726F6C3C2F703EB4
:1022400000000000203C2F6469763E3C2163616CF5
:102250006C2D746F2D616374696F6E3E0000000019
:10226000203C64697620636C6173733D22726F77E2
:10227000222069643D22696E74726F223E00000064
:10228000203C6469762069643D22626F78312220A7
:10229000636C6173733D22636F6C223E000000002B
:1022A000C87705083C6833207374796C653D2274E7
:1022B0006578742D616C69676E3A63656E746572DA
:1022C0003B223E70483C2F68333E00003C2F64693F
:1022D000763E00003C68312069643D227048223E11
:1022E00070483A203C7370616E207374796C653D60
:1022F00022636F6C6F723A23303039454532223E8B
:10230000000000009D0000203C2F7370616E3E3C79
:102310002F68313E0000000020780508203C6469E9
:10232000762069643D22626F78322220636C61738B
:10233000733D22636F6C223E000000003C68332036
:102340007374796C653D22746578742D616C69676E
:102350006E3A63656E7465723B223E5265646F78B7
:102360003C2F68333E0000003C68312069643D2208
:102370007048223E5265646F783A203C7370616EFB
:10238000207374796C653D22636F6C6F723A2330F1
:102390003039454532223E009900002090780508EA
:1023A000203C2F6469763E3C21726F773E0000002E
:1023B000203C6469762069643D22666F6F746572A3
:1023C000223E0000203C703E436F7079726967685E
:1023D000743A2043686175205068756F63205675A4
:1023E0003C2F703E00000000203C2F626F64793E5D
:1023F00000000000203C2F68746D6C3E000000005F
:10240000BF24030877210308D805002078000020A6
:10241000256400003C7072653E3C62723E4E616D08
:102420006520202020202020202020537461746506
:1024300020205072696F726974792020537461632F
:102440006B2020204E756D003C62723E2D2D2D2D8F
:102450002D2D2D2D2D2D2D2D2D2D2D2D2D2D2D2DAC
:102460002D2D2D2D2D2D2D2D2D2D2D2D2D2D2D2D9C
:102470002D2D2D2D2D2D2D2D2D3C62723E00000079
:102480003C62723E3C62723E2D2D2D2D2D2D2D2D48
:102490002D2D2D2D2D2D2D2D2D2D2D2D2D2D2D2D6C
:1024A0002D2D2D2D2D2D2D2D2D2D2D2D2D2D2D2D5C
:1024B0002D2D2D2D2D0000003C62723E42203A2031
:1024C000426C6F636B65642C2052203A2052656128
:1024D00064792C2044203A2044656C657465642C32
:1024E0002053203A2053757370656E6465643C62B6
:1024F000723E0000C81403081B22F7A107A820F0B1
:10250000A2F870B9F5A0FEF79EFE04463846D4E95D
:10251000001215F0DAFD002C02D02046FEF7B6FEC0
:10252000B9E11E22F3A107A820F08DF870B9F2A03E
:10253000FEF789FE04463846D4E9001215F0C5FDC1
:10254000002CEDD02046FEF7A1FEA4E11D22F1A152
:1025500007A820F078F870B9EFA0FEF774FE0446E3
:102560003846D4E9001215F0B0FD002CD8D0204632
:10257000FEF78CFE8FE11822EEA107A820F063F889
:1025800018B93846FFF78AFD85E11322F0A107A8A4
:1025900020F059F870B9EFA0FEF755FE0446384612
:1025A000D4E9001215F091FD002CB9D02046FEF7B9
:1025B0006DFE70E10622EBA107A820F044F818B9DF
:1025C0003846FFF75FFD66E1E8A107A81FF0BAFFF4
:1025D000002847D0E7A107A81FF0B4FF002841D08A
:1025E000E2A107A81FF0AEFF851D00200490059012
:1025F0000690E2A107A81FF0A5FFA0EB05094A4637
:10260000294604A820F00CF9DAA107A81FF09AFFC8
:10261000451D0020019002900390294601A81FF05B
:10262000CFFFD848016804A820F026F928B9D64879
:10263000016801A820F020F908B1012000E0002085
:1026400048B93846FEF75CFE0020D04908700520E6
:10265000CF49087005E03846FEF746FE0120CB4919
:10266000087018E10C22CBA107A81FF0ECFF48B9B5
:10267000C648007830B93846FFF7F8FC0F20C44947
:10268000087008E10922C7A107A81FF0DCFF58B1B4
:102690000D22C7A107A81FF0D6FF28B10A22C8A1A2
:1026A00007A81FF0D0FF48B9B848007830B93846BD
:1026B000FEF726FE0520B6490870ECE0C3A107A886
:1026C0001FF040FF00287AD0C1A107A81FF03AFFF1
:1026D000002874D0BDA107A81FF034FFC51C00203E
:1026E0000690BDA107A81FF02DFFA0EB05094A46E3
:1026F000294606A820F094F806A821F0A9FFB0EE1C
:10270000408AF0EE608A53EC182B9FEDB50B51EC2C
:10271000100B23F049FE01D8012000E00020814683
:1027200023F017FE41EC190B9FEDAF0B53EC102B70
:1027300023F03AFE06D8AE4880ED008BAD4880ED20
:10274000008B02E03846FEF7CFFDA1A107A81FF0DD
:10275000F9FEC51D00200690294606A81FF030FF8F
:1027600006A81FF0E2FE814623F0F3FD41EC180BB2
:1027700053EC182B9FEDA00B51EC100B23F014FE23
:1027800001D8012000E00020B0F52F7F10DC51ECD3
:10279000180B23F0B1FD80B299490880994908804F
:1027A0003846FEF7ADFD05207949087003E006E0E4
:1027B0003846FEF799FD0520754908706BE092A137
:1027C00007A81FF0BFFE002858D091A107A81FF04E
:1027D000B9FE002852D091A107A81FF0B3FE00282F
:1027E0004CD03846FEF780FD8F480078002852D143
:1027F000069085A107A81FF0A5FE451D84A107A886
:102800001FF0A0FEA0EB05094A46294606A820F0C5
:1028100007F806A81FF089FE844908707CA107A864
:102820001FF090FE00F108057CA107A81FF08AFEAA
:10283000A0EB05094A46294606A81FF0F1FF06A8A5
:102840001FF073FE7A49087074A107A81FF07AFE82
:1028500000F1080577A107A81FF074FEA0EB050999
:102860004A46294606A81FF0DBFF06A81FF05DFEBA
:102870007149087001206C4908700CE06FA0FEF7E8
:10288000E2FC04463846D4E9001215F01EFC14B1EF
:102890002046FEF7FBFC03E0002007A98855761CC4
:1028A00040F2DC508642F7DB384615F041F900BFB4
:1028B0000DF5BF6DBDEC048BBDE8F08770B58AB037
:1028C000064600220121022015F0B6FB041E01DAA3
:1028D0000AB070BDB8E00000474554202F53544D56
:1028E0003332463478375F66696C65732F53542EE4
:1028F00067696600474554202F53544D33324634A0
:1029000078375F66696C65732F73746D33322E6A26
:1029100070670000474554202F53544D33324634DE
:1029200078375F66696C65732F6C6F676F2E6A709E
:1029300067000000474554202F53544D333246342E
:1029400078375441534B532E68746D6C000000006F
:10295000474554202F53544D3332463478372E6830
:10296000746D6C00474554202F200000756E616D1A
:10297000653D0000267073773D0000002670737778
:10298000000000009000002094000020980000202B
:10299000A1000020474554202F73657474696E6749
:1029A00000000000474554202F686F6D650000004F
:1029B000474554202F76616C75657365740000007F
:1029C000474554202F6C6F67696E000070483D00CA
:1029D000265245444F583D00265245444F5800006A
:1029E000000000000000184000000000000020402F
:1029F00020010020F00000200000000000407F4087
:102A00000C010020D4000020686F75723D000000AA
:102A1000266D696E7574653D000000002673656360
:102A20006F6E643D000000008C000020B4000020A8
:102A3000B50000202F300000B60000202F343034C5
:102A40002E68746D6C00000002208DF81500502077
:102A50001BF0B1FEADF8160000200690102205A96B
:102A6000204615F00DF8002801DA0AB070BD0521E6
:102A7000204615F0D7F81020099008E009AA01A90E
:102A8000204614F046FF05462846FFF748FBF5E7C9
:102A900008B504204FF47A7300220349009003A084
:102AA0001CF04BFF08BD0000BD28000848545450DE
:102AB00053455256455200007047704710B50121EA
:102AC000084611F09BF910BD10B510F055FBFFF74B
:102AD000F5FFFFF7F2FFFFF7EFFF10BD0EB54FF464
:102AE0009670019041F26800ADF800000020ADF84A
:102AF00008001020ADF802006946824811F09DFCE4
:102B00000021804811F0F8FC01217E4812F05EF9A6
:102B1000012211467B4812F031F94FF47A7001908E
:102B20002A20ADF800000020ADF80800ADF8020042
:102B30006946754811F081FC0021734811F0DCFCF6
:102B40000121714812F042F9012211466E4812F03B
:102B500015F900216B4811F0F9FC00216A4811F0C9
:102B6000F5FC00214FF0804011F0F0FC0EBD10B5D7
:102B70000121022011F075F90121042011F071F9F1
:102B800010BD10B5FFF7F3FFFFF7A8FF10BD1CB590
:102B90001D208DF8040000208DF805008DF806003A
:102BA00001208DF8070001A80FF075FE1E208DF89A
:102BB000040002208DF805008DF8060001208DF834
:102BC000070001A80FF067FE32208DF800000720F3
:102BD0008DF8010000208DF8020001208DF803001F
:102BE00068460FF058FE1CBD10B5044647480480E7
:102BF0000021454811F06AFC0121434811F0A6FC70
:102C000000BF424800880028FBD100213E4811F057
:102C10009DFC10BD38B504463C4804801E208DF84C
:102C2000000000208DF801008DF8020001208DF8D1
:102C3000030068460FF02FFE0121334812F0C6F85A
:102C40000021314811F042FC01212F4811F07EFC97
:102C500000BF2E4800880028FBD100212A4811F02F
:102C600075FC1E208DF8000002208DF801008DF803
:102C7000020001208DF8030068460FF00CFE38BDFD
:102C80002248008820B121480088401E1F49088042
:102C900070471F48008820B11D480088401E1C490D
:102CA000088070471CB50121042011F0EBF80020CA
:102CB0008DF804008DF807008020009069461548C3
:102CC00010F05AFE1CBD10B5044601210D4812F04B
:102CD0007DF821460B4811F0F9FB0121094811F05C
:102CE00035FC10BD10B50021064811F02FFC10BDB9
:102CF0004FF0E020006920F003004FF0E021086170
:102D0000704700000004004000080040A4000020BC
:102D10004800002000080240014600200A68D0B2A6
:102D20007047014600200A6890B2704701460020B3
:102D3000086870477EB502460B460021019102915A
:102D400000200090186800900098CDE901010198DA
:102D5000CDE9011010680090DDE9004020430299A0
:102D6000CDE90101DDE9010103B070BD014600209C
:102D70000A68D0B20A2800DD0020704710B52DED9A
:102D8000028B0446B0EE408AF0EE608AF74880ED90
:102D9000008B0168204612F024FC082803D0012093
:102DA000BDEC028B10BDF1484168201D12F019FCEA
:102DB000082801D00120F3E700BFF1E710B5EC4887
:102DC000FFF7AAFFEB49087008460078FF2801D1F9
:102DD00005200870E648401CFFF79EFFE649087092
:102DE00008460078FF2801D10A200870E048801CBE
:102DF000FFF792FFE149087008460078FF2801D1EB
:102E000005200870DA48C01CFFF786FFDC4908700F
:102E100008460078FF2801D105200870D448001D1D
:102E2000FFF7A4FFD7490870D148401DFFF79EFF68
:102E3000D5490870CE48801DFFF798FFD349087028
:102E4000CB48C01DFFF792FFD1490870C848083031
:102E5000FFF78CFFCF490870C5480930FFF75CFFCA
:102E6000CD49087008460078182801DD0020087058
:102E7000BF480A30FFF750FFC8490870084600787D
:102E80003B2801DD00200870B9480B30FFF744FFF4
:102E9000C3490870084600783B2801DD002008700F
:102EA000B3491031081FFFF745FFB04A1060516069
:102EB0001146086849684FF0FF33584059400843AD
:102EC00005D19FEDB80BB94880ED000B05E0A74890
:102ED00090ED000BB54880ED000BA5491831081F97
:102EE000FFF728FFA14A1060516010460168406852
:102EF0004FF0FF3359405840014305D19FEDAC0BD3
:102F0000AD4880ED000B05E0984890ED000BAA4815
:102F100080ED000B96492031081FFFF70BFF934A05
:102F2000106051601046016840684FF0FF32514018
:102F30005040014305D19FEDA10BA24880ED000B4D
:102F400005E08A4890ED000B9E4880ED000B884913
:102F50002831081FFFF7EEFE844A106051601046CA
:102F6000016840684FF0FF3359405840014305D194
:102F70009FED8F0B944880ED000B05E07B4890EDB2
:102F8000000B914880ED000B79482C30FFF7C9FE0B
:102F90008E490880084600884FF6FF71884202D1AA
:102FA00000208A49088072493831081FFFF7C2FEA5
:102FB0006E4A106051601046016840684FF0FF3261
:102FC00051405040014305D19FED810B824880ED77
:102FD000000B05E0654890ED000B7F4880ED000B8D
:102FE00063494031081FFFF7A5FE604A1060516039
:102FF0001046016840684FF0FF3251405040014395
:1030000005D19FED760B774880ED000B05E0574822
:1030100090ED000B734880ED000B55494831081FB7
:10302000FFF788FE514A1060516010460168406801
:103030004FF0FF3359405840014305D19FED6A0BD3
:103040006B4880ED000B05E0484890ED000B6848A8
:1030500080ED000B484800786649087047480078C2
:10306000654908704648007864490870414800780E
:1030700063490870404800786249087053480088E6
:10308000614908804F4890ED000B604880ED000BCF
:103090004D4890ED000B5E4880ED000B10BD10B563
:1030A00012F0AAF9F32012F0C0FB0221402012F026
:1030B000EFF9082801D0012010BD2E4801782C48D6
:1030C00012F0E1FA082801D00120F5E72A4801783A
:1030D0002748401C12F0D7FA082801D00120EBE75E
:1030E000264801782248801C12F0CDFA082801D029
:1030F0000120E1E7224801781D48C01C12F0C3FA04
:10310000082801D00120D7E71E4801781848001D83
:1031100012F0B9FA082801D00120CDE71A48017849
:103120001348401D12F0AFFA082801D00120C3E770
:10313000164801780E48801D12F0A5FA082801D023
:103140000120B9E7124801780948C01D12F09BFA26
:10315000082801D00120AFE70E4801780448083064
:1031600012F091FA082855D00120A5E7A800002008
:1031700000000808D1000020D2000020CF0000206D
:10318000D0000020CB000020CC000020CD0000208B
:10319000CE000020CA000020B4000020B5000020AE
:1031A000B60000200000000000001040D800002001
:1031B000000000000000E03FE8000020CDCCCCCCB7
:1031C000CCCC1840F0000020F8000020D4000020F3
:1031D0000000000000003940E0000020D157906658
:1031E0002C9ABE3F380000200FB9196EC0E7A73FE8
:1031F000C00000200200002000010020010100208A
:1032000002010020030100200C0100202001002009
:103210002801002050480178504812F034FA08285C
:1032200001D0012048E74E4801784C48401C12F07C
:103230002AFA082801D001203EE74A480178474889
:10324000801C12F020FA082801D0012034E74648FB
:1032500090ED000B454880ED000B434890ED000BCE
:103260003E48C01CFFF78AFD082801D0012023E753
:103270003F4890ED000B3D4880ED000B3C4890ED41
:10328000000B36480B30FFF779FD082801D00120EC
:1032900012E7384890ED000B344880ED000B3548BC
:1032A00090ED000B2D481330FFF768FD082801D082
:1032B000012001E7304890ED000B2C4880ED000B19
:1032C0002D4890ED000B25481B30FFF757FD0828CF
:1032D00001D00120F0E6294801882048233012F06F
:1032E000A9F9082801D00120E6E6254890ED000B59
:1032F0001E4880ED000B224890ED000B17482B3044
:10330000FFF73CFD082801D00120D5E61D4890EDCF
:10331000000B164880ED000B1A4890ED000B0F488B
:103320003330FFF72BFD082801D00120C4E61648F2
:1033300090ED000B0D4880ED000B134890ED000B55
:1033400006483B30FFF71AFD082801D00120B3E6FC
:1033500012F05FF80020AFE6B40000200900080872
:10336000B5000020B6000020D8000020A8000020F2
:10337000E8000020F0000020F8000020D400002029
:10338000E000002038000020C00000202DE9F05FA0
:103390002DED028B82468B46B0EE408AF0EE608ABD
:1033A00016461F46DDF83080B8F1000F0AD0B8F19C
:1033B000020F03D0B8F1090F06D101E0042404E0A4
:1033C000052402E0012400E000BF00BFF019401C0A
:1033D00000EB040948461EF02BFF0546B8F1000F2C
:1033E0000DD0B8F1020F03D0B8F1090F15D10DE0DF
:1033F00053EC182BF1A128461EF070FF0EE053ECA1
:10340000182BF1A128461EF069FF07E053EC182B9A
:10341000EFA128461EF062FF00E000BF00BF2A4671
:10342000594650460CF029F928461EF030FFBDECF5
:10343000028BBDE8F09F10B50246012341B1002088
:1034400004E003FB02F4A3B2441C20B28842F8DB80
:10345000184610BD2DE9FF5F91461C46DDF8388007
:10346000B8F1090F11D2DFE808F00E1010050C0BAF
:103470000809060000BF042508E000BF062505E096
:1034800000BF032502E0012500E000BF00BF04EB00
:10349000050A50461EF0CCFE064600226119491E60
:1034A0007254B8F1090F5DD2DFE808F05B5C5C058F
:1034B0001252283D1B006C216019801E31546D2171
:1034C0006019C01E315420216019001F31544AE098
:1034D0004C216019801E315420216019C01E3154C6
:1034E00041E056216019801E31546D216019C01EC3
:1034F000315420216019001F315434E06C216019CF
:10350000801E31542F216019C01E3154672160196B
:10351000001F31546D216019401F31542021601962
:10352000801F31541FE068216019801E31542F2103
:103530006019C01E315467216019001F31546D217C
:103540006019401F315420216019801F31540AE056
:103550006D216019801E315420216019C01E315424
:1035600001E000E000BF00BF002713E0E01B81B2D4
:103570000A20FFF760FF99FBF0F100FB119BE01BB5
:10358000401E81B20A20FFF756FF9BFBF0F030305F
:10359000F0557F1CA742E9DB3246DDE900010CF063
:1035A0006CF830461EF073FEBDE8FF9F00B52DEDB0
:1035B000028B83B088480088222870D2DFE800F0B0
:1035C0006F11FDBAFCFB6FFAF9F8F7F6F5F4F3F2B8
:1035D000F1F0EFEEEDECEBEAE9E8E7E6E5E4E3E253
:1035E000E1E000214FF6FF700BF01CFE7B480BF072
:1035F00036FE7B48007800907A4803787A48027853
:103600007AA101A81EF06AFE01AA822114200CF002
:1036100034F87948007830B1012826D002283FD00C
:10362000032861D14EE04FF6686100200BF0FAFDEF
:1036300072480BF014FE002001231A4600907048D7
:1036400090ED000B64218220FFF7A0FE63480BF091
:1036500006FE002001231A460090694890ED000BF9
:10366000AA215020FFF792FE3FE04FF6686100204C
:103670000BF0D8FD61480BF0F2FD624A6421822014
:103680000BF0FBFF55480BF0EAFD082003230090E8
:103690005D48028887215020FFF7DCFE25E088E2A4
:1036A0004FF6686100200BF0BDFD54480BF0D7FDCC
:1036B0000020022300905548027864218220FFF701
:1036C000C9FE12E045F2AA2100200BF0ABFD4B48E9
:1036D0000BF0C5FD0020022300904D4802786421C4
:1036E0008220FFF7B7FE00E000BF00BF40F2FC41C0
:1036F00000200BF097FD41480BF0B1FD00200123A5
:103700001A460090434890ED000B4FF4A5718220BB
:10371000FFF73CFE31480BF0A2FD002001231A46C2
:1037200000903D4890ED000B4FF4C8715020FFF71A
:103730002DFE3FE24FF6686100200BF073FD2F482D
:103740000BF08DFD032000903448D0ED000A344882
:1037500090ED000AB8EE400A20EE800ABCEEC00AE6
:1037600010EE100A82B2032355217820FFF772FE73
:103770001A480BF074FD032003464FF4C87251E061
:1037800016E2CEE19EE19CE16CE16AE13DE13BE1C4
:103790001CE1FDE0FFE1C2E0C0E005E203E201E27E
:1037A000FFE1FDE1FBE1F8E1F8E1A5E092E0FEE1F7
:1037B0006AE068E0FAE1EFE1D0E1F6E125312E318F
:1037C000662070480000000025312E3166000000A0
:1037D00025312E31666F4300640100204402002031
:1037E000B6000020B5000020B40000202532643A65
:1037F0002532643A25326400CE0000203C020020CD
:1038000028010020990000200C0100200001002068
:1038100001010020100000202001002028000020CD
:10382000080000209B2100904620FFF713FE40F285
:10383000FC4100200BF0F6FCE1480BF010FD0320EA
:103840000090E048D0ED000ADF4890ED000AB8EEA5
:10385000400A20EE800ABCEEC00A10EE100A82B2C6
:10386000032340F23B117820FFF7F4FDD7480BF01B
:10387000F6FC03200346C82240F281110090462046
:10388000FFF7E8FD96E100BF45F2AA214FF6FF7071
:103890000BF0C8FCCA480BF0E2FC042002230090A5
:1038A000CB48027869216420FFF7D4FD45F2AA21B4
:1038B0004FF6FF700BF0B6FCC1480BF0D0FC0520B2
:1038C00002230090C348027840F23B116420FFF7C6
:1038D000C1FD6FE147F2C5514FF6FF700BF0A2FC3E
:1038E000B7480BF0BCFC002002230F22C32100903C
:1038F0009620FFF7AFFD5DE14EF2E3014FF6FF705A
:103900000BF090FCAE480BF0AAFC0020022314221E
:10391000C32100909620FFF79DFD4BE100BF4FF6BD
:10392000686100200BF07EFCA5480BF098FC00209D
:1039300001231A460090A84890ED000B6421084628
:10394000FFF724FDA1480BF08AFCA4A2A5216E205C
:103950000BF093FE40F2FC4100200BF063FC984812
:103960000BF07DFC002001231A4600909D4890ED4D
:10397000000B4FF4A5716420FFF708FD93480BF08E
:103980006EFC99A240F28B116E200BF076FE11E1D5
:1039900040F2FC4100200BF045FC89480BF05FFC35
:1039A000002001231A460090904890ED000B4FF440
:1039B000A5716420FFF7EAFC84480BF050FC8AA252
:1039C00040F28B116E200BF058FEF3E04FF6686169
:1039D00000200BF027FC7A480BF041FC002001236B
:1039E0001A460090824890ED000B4FF4A5716420B8
:1039F000FFF7CCFC75480BF032FC7EA240F28B1135
:103A00006E200BF03AFED5E000BF4FF66861002053
:103A10000BF008FC6A480BF022FC082003230090FE
:103A20007648028864210846FFF714FD40F2FC4105
:103A300000200BF0F7FB62480BF011FC0020012383
:103A40001A460090674890ED000B4FF4A571642072
:103A5000FFF79CFC64A240F28B1164200BF00DFE7A
:103A6000A8E000BF4FF6686100200BF0DBFB544874
:103A70000BF0F5FB002002230090614802786421DE
:103A80000846FFF7E7FC40F2FC4100200BF0CAFBC0
:103A90004B480BF0E4FB002001231A4600905148EC
:103AA00090ED000B4FF4A5716420FFF76FFC4748C1
:103AB0000BF0D5FB4CA240F28B116E200BF0DDFD1C
:103AC00078E000BF45F2AA2100200BF0ABFB3C4898
:103AD0000BF0C5FB0020022300904A4802786421C5
:103AE0000846FFF7B7FC40F2FC4100200BF09AFBC0
:103AF00033480BF0B4FB002001231A4600903948EC
:103B000090ED000B4FF4A5716420FFF73FFC2F48A8
:103B10000BF0A5FB34A240F28B116E200BF0ADFD33
:103B200048E045F2AA214FF6FF700BF07BFB2448DA
:103B30000BF095FB3448006822F068FF41EC180B4D
:103B4000092001230222B0EE480AF0EE680A4FF481
:103B5000A57100906420FFF719FC2BE045F2AA2123
:103B60004FF6FF700BF05EFB15480BF078FB274813
:103B7000006822F04BFF41EC180B092001230222C0
:103B8000B0EE480AF0EE680A4FF4A5710090642088
:103B9000FFF7FCFB0EE000BF00BF00BF00BF00BF8F
:103BA00000BF00BF00BF00BF00BF00BF00BF00BF1D
:103BB00000E000BF00BF03B0BDEC028B00BD000001
:103BC0003C020020280000200400002044020020C5
:103BD0000201002003010020280100206D672F6CE6
:103BE00000000000200100207048000010010020AB
:103BF000180100206D672F68000000000C010020F4
:103C00000001002001010020080100200401002023
:103C100000B58DB00121084610F0F0F8012108022E
:103C200010F030F94120019003208DF808000020A9
:103C30008DF80B0001A924480FF09EFE0020039090
:103C400004900590069003A80EF0CAFE0EF08EFEBA
:103C5000002007908DF820008DF8210009900A902F
:103C60000B9001208DF8300007A918480EF089FE4E
:103C7000012116480EF0CBFE0DB000BD10B5044674
:103C800004230122214611480EF001FF0F480EF0D7
:103C90005AFF00BF02210D480FF076F80028F9D036
:103CA0000A480EF08CFF40F6E441484340F6FF71AD
:103CB00090FBF1F000EE100AB8EEC00A044880ED67
:103CC000000A90ED000A10BD0000024000200140F3
:103CD000BC0000201CB50121084610F08FF83020F0
:103CE000009001208DF8040000208DF806000320CC
:103CF0008DF8050000208DF80700694606480FF092
:103D00003BFE1CBD18B1012803D10A8302E04A839F
:103D100000E000BF00BF70470000024010B52DED6D
:103D2000088BB0EE408AF0EE608A9FED150B53ECE5
:103D3000102B154890ED000B51EC100B22F08CF875
:103D400041EC190B9FED0E0B53EC102B51EC180BA3
:103D500022F082F841EC1B0B0C4890ED000B53EC69
:103D6000102B51EC1B0B22F05BFB41EC1A0B53ECBC
:103D7000192B22F02DF941EC100BBDEC088B10BD76
:103D80006666666666127140E0000020C000002092
:103D900010B5012175480FF06DFE4FF41670FCF759
:103DA00003FB012171480FF063FE6420FCF7FCFA6D
:103DB00001216E480FF042FE28B94FF4FA70FCF76B
:103DC000F3FA012010BD4FF4FA70FCF7EDFA002071
:103DD000F8E710B5012165480FF04CFE0220FCF712
:103DE000E3FA012161480FF043FE0A20FCF7DCFAF8
:103DF00001215E480FF022FE20B93A20FCF7D4FAE8
:103E0000002010BD3A20FCF7CFFA0120F9E770B589
:103E10000025002406E0FFF7DCFFA0402843C5B2E0
:103E2000601CC4B2082CF6DB284670BD2DE9F041B9
:103E30000446012504EA0507002623E077B10121A5
:103E40004A480FF017FE0320FCF7AEFA012147485D
:103E50000FF00EFE5A20FCF7A7FA0DE001214348AF
:103E60000FF008FE5A20FCF79FFA01213F480FF09F
:103E7000FFFD0320FCF798FA6806050E04EA050723
:103E8000701CC6B2082ED9DBBDE8F0812DE9F047E1
:103E90003320FFF7CBFFFFF7BAFF0446FFF7B7FF6A
:103EA00000260546FFF7B3FF0002054346EAE07629
:103EB000FFF7ADFF0004054346EAE076FFF7A7FFF2
:103EC00081464FEA0960310241EA156C40EA05215A
:103ED0004CEAE07841EA040738464146BDE8F087FD
:103EE00010B504462046FFF7A1FF442C06D100BFC1
:103EF00001211E480FF0A2FD0028F9D010BD10B519
:103F000004462046FFF792FF10BD2DE9F0412DED4C
:103F1000028B01259FED160AB0EE408AFFF777FF6E
:103F20000646FFF774FF074646EA07286C1F14E0B1
:103F300008EA050058B100EE104AF8EEC00AB0EEEB
:103F4000000A21F025FA30EE080AB0EE408A4FF65A
:103F5000FF7000EA4505601C44B2072CE8DBB0EEB8
:103F6000480ABDEC028BBDE8F0810000000402406D
:103F70000000000010B5FC48006809F06CFD01F07D
:103F800020F910BD10B5F848006809F064FD04F090
:103F9000E2FF10BD10B5F448006809F05CFD00F0C8
:103FA000C2FF10BD10B5F048006809F054FD01F0E3
:103FB000AEFB10BD10B5EC48006809F04CFD03F0F5
:103FC00025F910BD10B5E848006809F044FDE74840
:103FD000007808B101F014FA01F057FA10BD10B5DD
:103FE000E148006809F037FD04F016FF10BD10B578
:103FF000FFF755F810BD10B50020DC490870DC490A
:104000000860DC490860D848006809F024FD01F028
:10401000D8F810BD10B50020D4490870D449086004
:10402000D4490860D048006809F015FD00F07BFF16
:1040300010BD10B5CD48007830B1012808D0022855
:104040000AD0032814D10FE00220C849087010E0FC
:104050000320C64908700CE0C348006809F0FBFC67
:104060000020C249087004E00120C049087000E047
:1040700000BF00BF01F009FA10BD10B5BB480078C1
:1040800030B1012808D002280ED0032814D10FE047
:104090000120B649087010E0B348006809F0DBFC65
:1040A0000020B249087008E00320B049087004E01D
:1040B0000220AE49087000E000BF00BF01F0E5F942
:1040C00010BD10B5A848006809F0C5FC01F079F8EA
:1040D00010BD10B5A448006809F0BDFC00F023FF36
:1040E00010BD10B5A048006809F0B5FC01F054FC03
:1040F00010BD10B59C48006809F0ADFC01F044FF0C
:1041000010BD10B59848006809F0A5FC9A480078E1
:1041100030B1012807D0022808D003280CD108E0CC
:1041200002F03FFD09E003F038FC06E003F0D1FEA9
:1041300003E004F048F900E000BF00BF10BD10B577
:104140008948006809F087FC01F0E1FA10BD10B55C
:104150008548006809F07FFC00F0E5FE10BD874847
:104160000078401C8549087008460078322801DD37
:1041700032200870704781480078401E7F490870DF
:104180000846007808B90020087070477B4800781E
:104190007B490870704710B57348006809F05BFCF4
:1041A000774800787549087001F016FD10BD10B50C
:1041B0006D48006809F04FFC01F0A9FA10BD10B578
:1041C0006948006809F047FC00F0ADFE10BD6D487D
:1041D0000078401C6B49087008460078182801DDFB
:1041E00018200870704767480078401E65490870BD
:1041F00008460078062801DA0620087070476148F2
:10420000007861490870704710B55748006809F098
:1042100022FC5D4800785B49087001F0BDFB10BDD1
:1042200010B55148006809F016FC01F070FA10BD95
:1042300010B54D48006809F00EFC00F074FE10BD8A
:10424000002052490870704701205049087070479B
:1042500010B502204D4908704348006809F0FBFB87
:1042600002F057F810BD002049490870704701203E
:10427000474908707047022045490870704710B5DB
:104280000020444908703848006809F0E4FB02F057
:10429000B1F810BD01203F490870704702203D4928
:1042A0000870704710B53048006809F0D4FB01F081
:1042B0006BFE10BD10B52C48006809F0CCFB01F076
:1042C00063FE10BD10B52848006809F0C4FB01F07A
:1042D0005BFE10BD10B52448006809F0BCFB03F07C
:1042E000A5F810BD10B52048006809F0B4FB03F034
:1042F0009DF810BD10B51C48006809F0ACFB9FED9F
:10430000260B274880ED000B9FED260B274880EDFC
:10431000000B9FED240B264880ED000B9FED210B39
:10432000244880ED000B9FED1F0B234880ED000B10
:104330009FED1C0B214880ED000B9FED1A0B2048D0
:1043400080ED000B03F072F810BD10B50648006850
:1043500009F081FB1B4890ED000B1B4880ED000B22
:1043600003F0F6F910BD000060010020C900002034
:104370000400002008000020CE00002002010020E0
:10438000D100002003010020D2000020CB0000203B
:10439000CC000020CD0000200000000000001040F4
:1043A000100100200000000000000000300100208B
:1043B0003801002040010020480100205001002069
:1043C00058010020F80000201801002010B5FA481C
:1043D000006809F040FB03F0BBF910BD10B5F648CA
:1043E000006809F038FB01F0CFFD10BD10B5F248B0
:1043F000006809F030FB01F0C7FD10BD10B5EE48B4
:10440000006809F028FB01F082F910BD10B5EA48F8
:10441000006809F020FB00F086FD10BD10B59FED8F
:10442000E70B53EC102BE74890ED000B51EC100B11
:1044300021F012FDE34A03C29FEDE30B53EC102B76
:10444000E04890ED000B51EC100B22F0E7F804D29D
:104450009FEDDD0BDB4880ED000B10BD10B59FED2F
:10446000D70B53EC102BD74890ED000B51EC100BF1
:1044700022F0E2F9D34A03C29FEDD50B53EC102B87
:10448000D04890ED000B51EC100B21F08DFF04D2C1
:104490009FEDCF0BCB4880ED000B10BDC94890EDD0
:1044A000000BCD4880ED000B704710B5C248006886
:1044B00009F0D1FA02F056FD10BD10B5BE480068F3
:1044C00009F0C9FA01F023F910BD10B5BA48006827
:1044D00009F0C1FA00F027FD10BD10B59FEDB70B34
:1044E00053EC102BBD4890ED000B51EC100B21F05C
:1044F000B3FCBA4A03C29FEDBA0B53EC102BB7487A
:1045000090ED000B51EC100B22F088F804D29FEDD7
:10451000B40BB24880ED000B10BD10B59FEDA70B9A
:1045200053EC102BAD4890ED000B51EC100B22F02A
:1045300083F9AA4A03C29FEDAC0B53EC102BA7489A
:1045400090ED000B51EC100B21F02EFF04D29FEDEB
:10455000A60BA24880ED000B10BDA04890ED000B0B
:10456000A34880ED000B704710B59348006809F030
:1045700072FA02F016FB10BD10B58F48006809F002
:104580006AFA00F01EFE10BD10B58B48006809F0F5
:1045900062FA00F0C8FC10BD10B58748006809F049
:1045A0005AFA03F0D5F88448006809F054FA02F08A
:1045B0000FF910BD10B58048006809F04CFA02F000
:1045C00035FF7D48006809F046FA01F0DFFF10BDB5
:1045D00010B57948006809F03EFA04F099F910BD69
:1045E00010B57548006809F036FA04F0A7FA10BD56
:1045F00010B52DED048B7048006809F02CFA1FED02
:10460000970B53EC102B7B4890ED000B51EC100BEB
:1046100021F036FE0BD01FED9D0B53EC102B76488E
:1046200090ED000B51EC100B21F02AFE05D104F0A7
:1046300004FD00207149087035E0714890ED000BD1
:10464000704880ED000B6C4890ED000B6E4880EDDB
:10465000000B6E4890ED000B53EC102B684890ED6A
:10466000000B51EC100B22F0E7F841EC190B6148FC
:1046700090ED000B53EC102B5F4890ED000B51ECCC
:10468000100B22F0D9F841EC180B53EC192B21F048
:104690009FFC5F4A03C25F4890ED000B5E4880EDCF
:1046A000000B02F0B3FDBDEC048B10BD10B52DED79
:1046B000048B4148006809F0CEF91FEDC60B53EC9E
:1046C000102B4C4890ED000B51EC100B21F0D8FD55
:1046D0000BD01FEDCC0B53EC102B474890ED000B8B
:1046E00051EC100B21F0CCFD05D104F0A6FC01200B
:1046F0004249087035E0424890ED000B414880ED9A
:10470000000B3D4890ED000B3F4880ED000B3F480B
:1047100090ED000B53EC102B394890ED000B51EC51
:10472000100B22F089F841EC190B324890ED000B88
:1047300053EC102B304890ED000B51EC100B22F095
:104740007BF841EC180B53EC192B21F041FC304A5B
:1047500003C2304890ED000B2F4880ED000B00F0B5
:10476000E2FBBDEC048B10BD10B59FED2C0B53ECA0
:10477000102B2C4890ED000B51EC100B21F04EFF4C
:104780000BD20D48006809F066F99FED240B25480F
:1047900080ED000B01F094FE0CE09FED080B53EC54
:1047A000102B204890ED000B51EC100B21F054FB26
:1047B0001C4A03C210BD0000600100209A9999991B
:1047C0009999B93F200100206666666666661E40BC
:1047D0000000000000001A40F00000202801002026
:1047E000333333333333F33F000000000000E03F46
:1047F000F80000204001002048010020C8000020EF
:1048000038010020D80000203800002030010020AE
:10481000C000002058010020E00000203333333373
:1048200033331F401001002010B59FEDF90B53ECFE
:10483000102BF94890ED000B51EC100B21F0B4FD5A
:104840000BD2F648006809F006F99FEDF10BF2482B
:1048500080ED000B01F034FE0CE01FED280B53EC53
:10486000102BED4890ED000B51EC100B21F0E4FF04
:10487000E94A03C210BD10B59FEDE90B53EC102BB4
:10488000E54890ED000B51EC100B21F08DFD12D29C
:10489000E14890ED000BE44880ED000BE34890ED1B
:1048A000000BE34880ED000BE24890ED000BE2487E
:1048B00080ED000B11E0D84890ED000BDF4880ED53
:1048C000000BDA4890ED000BDD4880ED000BD94875
:1048D00090ED000BDB4880ED000B10BD10B5CF480C
:1048E000006809F0B8F802F091FC10BD10B5CB4893
:1048F000006809F0B0F800F016FB10BD10B51FED10
:10490000510B53EC102BD04890ED000B51EC100BD9
:1049100021F0A2FACC4A03C21FED4F0B53EC102B2F
:10492000C94890ED000B51EC100B21F077FE04D23A
:104930001FED550BC44880ED000B10BD10B5C348EA
:1049400090ED000B53EC102BBF4890ED000B51EC99
:10495000100B21F029FD0CD2B048006809F07BF85B
:10496000BA4890ED000BB84880ED000B01F097FFBE
:104970000CE01FED6E0B53EC102BB34890ED000BC9
:1049800051EC100B21F058FFAF4A03C210BDAE48E6
:1049900090ED000BAE4880ED000B704710B59F48BE
:1049A000006809F058F800F0B2FE10BD10B59B4841
:1049B000006809F050F800F0B6FA10BDA54800886C
:1049C0000A30A44908800846008840F2DE31884257
:1049D00002DD08469F49088070479E4800880A38D3
:1049E0009C490880084600880A2801DA0A200880C5
:1049F00070479848008898490880704710B58748E4
:104A0000006809F028F803F041F910BD10B583489B
:104A1000006809F020F800F07AFE10BD10B57F485C
:104A2000006809F018F800F07EFA10BD10B51FED0F
:104A30009D0B53EC102B894890ED000B51EC100BA3
:104A400021F00AFA854A03C21FED8C0B53EC102BA0
:104A5000824890ED000B51EC100B21F0DFFD04D2E9
:104A60001FED920B7D4880ED000B10BD10B51FEDC2
:104A7000AD0B53EC102B794890ED000B51EC100B63
:104A800021F0DAFE754A03C29FED750B53EC102B33
:104A9000724890ED000B51EC100B21F085FC04D214
:104AA0009FED6F0B6D4880ED000B10BD6B4890EDD6
:104AB000000B6D4880ED000B704710B5574800683B
:104AC00008F0C9FF02F069FF10BD10B55348006837
:104AD00008F0C1FF00F01BFE10BD10B54F48006884
:104AE00008F0B9FF00F01FFA10BD60480078401CC4
:104AF0005E49087008460078142801DD142008700B
:104B000070475A480078002804DD58480078401E55
:104B100056490870704755480078554908707047E5
:104B200010B53E48006808F096FF03F028FB10BD62
:104B300010B53A48006808F08EFF00F0E8FD10BD9F
:104B400010B53648006808F086FF00F0ECF910BD9B
:104B500010B51FEDE60B53EC102B404890ED000B09
:104B600051EC100B21F078F93C4A03C21FEDD50B34
:104B700053EC102B394890ED000B51EC100B21F049
:104B80004DFD04D21FEDDB0B344880ED000B10BD52
:104B900010B51FEDF60B53EC102B304890ED000BC9
:104BA00051EC100B21F048FE2C4A03C29FED2C0B58
:104BB00053EC102B294890ED000B51EC100B21F019
:104BC000F3FB04D29FED260B244880ED000B10BDB3
:104BD000224890ED000B244880ED000B704710B583
:104BE0000E48006808F037FF03F073F910BD10B5E8
:104BF0000A48006808F02FFF00F089FD10BD10B5CD
:104C00000648006808F027FF00F08DF910BD00008D
:104C1000000000000000084010010020600100209A
:104C200000000000000014403001002018000020A7
:104C300040010020400000205001002038010020E9
:104C4000480100205801002018010020F800002031
:104C5000E80000200C010020D400002020010020EA
:104C6000CDCCCCCCCCCC1840F000002000010020F2
:104C7000CF0000208A480078401C89490870084607
:104C800000781E2801DD1E200870704784480078D7
:104C9000002804DD82480078401E81490870704772
:104CA0007F4800787F490870704710B57E480068DB
:104CB00008F0D1FE03F0E6FC10BD10B57A4800689C
:104CC00008F0C9FE00F023FD10BD10B5764800685D
:104CD00008F0C1FE00F027F910BD10B59FED730B71
:104CE00053EC102B734890ED000B51EC100B21F09E
:104CF000B3F8704A03C29FED700B53EC102B6D4854
:104D000090ED000B51EC100B21F088FC04D29FEDCC
:104D10006A0B684880ED000B10BD10B59FED630B6A
:104D200053EC102B634890ED000B51EC100B21F06D
:104D300083FD604A03C21FED360B53EC102B5D4818
:104D400090ED000B51EC100B21F02EFB04D21FED67
:104D50003C0B584880ED000B10BD564890ED000B01
:104D6000574880ED000B704710B54F48006808F0B9
:104D700072FE03F028FB10BD10B54B48006808F028
:104D80006AFE02F043FA10BD10B54748006808F00B
:104D900062FE00F0C8F810BD70477047704710B54C
:104DA0004148006808F057FE02F030FA10BD10B517
:104DB0003D48006808F04FFE00F0B5F810BD7047A0
:104DC0007047704710B53848006808F044FE00F09E
:104DD000F8F910BD10B53448006808F03CFE00F04A
:104DE000A2F810BD002037490870704701203549EE
:104DF000087070470220334908707047032031491A
:104E00000870704710B52848006808F024FE00F0CC
:104E10008AF810BD01202C490870704700202A49EB
:104E20000870704710B52048006808F014FE274845
:104E3000007810B902F0EAF905E02448007801286A
:104E400001D100F070F810BD10B51748006808F0E7
:104E500002FE9FED1F0B204880ED000B9FED1F0B06
:104E6000204880ED000B9FED1D0B1F4880ED000BCF
:104E70009FED1A0B1D4880ED000B9FED180B1C4891
:104E800080ED000B9FED150B1A4880ED000B9FED98
:104E9000130B194880ED000B02F0C8FA10BD00009A
:104EA00001010020D0000020600100209A9999990A
:104EB0009999B93F200100203333333333331F40F6
:104EC000F0000020CE000020CA000020C800002012
:104ED0000000000000001040100100200000000051
:104EE00000000000300100203801002040010020B7
:104EF00048010020500100205801002038B5FD482D
:104F00004FF6FF731E22D2210090012009F0A9FB69
:104F10000446F94808F0D7F9F74B2246F021FA2069
:104F200007F085FE38BD08B5FFF7E8FF00200AF05E
:104F30001AFA4FF6FF702023D222F0210090FA20B7
:104F40000AF08AFEED480AF08AF9EDA01E23D2226B
:104F5000F0210090FA200BF0D7F805221421EB483D
:104F60000AF0D7FD00214FF6FF700AF05BF9E34825
:104F70000AF075F9E6A24FF4967114200AF07DFB51
:104F8000E7A21421FA200AF078FB40F2FC40A023AB
:104F9000D2223C210090FA200AF05EFEE34800781D
:104FA00030B1012820D002283AD0032872D154E031
:104FB0004FF66860A023D2223C21009014200AF012
:104FC0004BFE4FF6686100200AF02CF9CB480AF03E
:104FD00046F9D7A21E2150200AF04FFBD7A2AF21DD
:104FE000A0200AF04AFB56E04FF66860A023D222C8
:104FF0003C21009014200AF02FFE4FF6686100203B
:105000000AF010F9BD480AF02AF9CEA21E2150205C
:105010000AF033FBCDA2AF21A0200AF02EFB3AE02C
:105020004FF66860A023D2223C21009014200AF0A1
:1050300013FE4FF6686100200AF0F4F8AF480AF05A
:105040000EF9C3A21E2150200AF017FB0023C2A2B2
:10505000822150200AF033FB1DE045F2AA20A02354
:10506000D2223C21009014200AF0F6FD45F2AA213C
:1050700000200AF0D7F8A1480AF0F1F8B4A21E21E6
:1050800050200AF0FAFAB7A2822150200AF0F5FA6D
:1050900001E0FFE700BF00BF40F2FC4100200AF042
:1050A000C1F896480AF0DBF8B1A24FF482715020A3
:1050B0000AF0E3FAB0A24FF4C871A0200AF0DDFABA
:1050C0008D480121C26990470120AC4908808A4877
:1050D000AB49086008BD10B5FFF725FF10BD2DE9ED
:1050E000F84FA84803231E2282210090012009F0D6
:1050F000B8FA0446A4484FF6FF731E22A021009080
:10510000022009F0AEFA0546A04800235022D22121
:105110000090032009F0A5FA06469D48002350227E
:10512000D2210090042009F09CFA074699480023F8
:105130005022D2210090052009F093FA804696482B
:1051400000235022D2210090062009F08AFA8146DD
:10515000924803231E2282210090072009F081FA41
:1051600082468F4808F0AFF88D4B2246F0214FF46D
:10517000A57007F05CFD8A4B2A46F021142007F049
:1051800056FD874B32463C21142007F050FD844BDE
:105190003A463C21FA2007F04AFD814B42469621CF
:1051A000142007F044FD7E4B4A469621FA2007F072
:1051B0003EFD7B4B5246F021BE2007F038FDBDE896
:1051C000F88F08B5FFF78BFF00200AF0CCF8052216
:1051D00014214E480AF09DFC00214FF6FF700AF0A2
:1051E00021F846480AF03BF845A24FF4B971142063
:1051F0000AF043FAD22350223C2114200AF086FB05
:10520000D22350223C21FA200AF080FBD2235022E4
:10521000962114200AF07AFBD22350229621FA20FC
:105220000AF074FB4FF6FF701E23A022F0210090BD
:1052300014200AF011FD82231E22F021BE200AF064
:1052400065FB82231E22F0214FF4A5700AF05EFB5D
:1052500000214FF6FF7009F0E5FF284809F0FFFF35
:1052600050A05023D2223C21009014200AF04CFF81
:105270004FA05023D2223C210090FA200AF044FF94
:105280004EA05023D2229621009014200AF03CFF19
:105290004DA05023D22296210090FA200AF034FF2C
:1052A0004DA01E238222F0210090BE200AF02CFF88
:1052B0004CA01E238222F02100904FF4A5700AF02A
:1052C00023FF4FF6FF71002009F0ACFF48A01E231A
:1052D000A022F021009014200AF016FF304801218E
:1052E000C26990470220254908802D48244908605A
:1052F00008BD0000753F000884150020440200200E
:1053000053455454494E47530000000020540408AC
:1053100043484155205048554F4320565500000002
:1053200042414348204B484F41000000CE0000203E
:1053300043484C4F52494E45000000006D672F6CAA
:10534000000000005245444F580000006D56000018
:10535000444F5345000000006D6C2F6D33686F752E
:10536000720000006D6C2F6D3364617900000000E5
:1053700050482D2D000000007048000064010020FE
:1053800060010020853F0008953F0008A53F000808
:10539000B53F0008C53F0008DF3F0008EF3F0008A9
:1053A00028160020504152414D45544552530000AB
:1053B00043414C4942524154494F4E00444F534996
:1053C0004E4720544553540054595045204F4620D1
:1053D00050524F424500000053415645204441542D
:1053E000410000004C414E475541474553000000E5
:1053F0004241434B20544F2053544152540000002B
:10540000F8B5FE484FF6FF731E22D221009001200E
:1054100009F027F90446FA484FF6FF731E22D221FD
:105420000090022009F01DF90546F64840F2FC43C1
:105430003C22D2210090032009F013F90646F248DD
:105440004FF668633C22D2210090042009F009F94C
:105450000746EE4807F037FFEC4B2246F021FA20D2
:1054600007F0E5FBE94B2A46F021142007F0DFFBAB
:10547000E64B3246AA21142007F0D9FBE34B3A460B
:10548000AA21FA2007F0D3FBF8BD08B5E048007860
:1054900008B9FFF7B5FF002009F065FF05221421C8
:1054A000DC480AF036FB00214FF6FF7009F0BAFE27
:1054B000D94809F0D4FEAFF2FC024FF4A5711420D4
:1054C0000AF0DBF84FF668606423D2223C2100909A
:1054D00014200AF0C1FB40F2FC406423D2223C219C
:1054E0000090FA200AF0B8FB4FF66861002009F03E
:1054F00099FEC94809F0B3FEC8A21E2146200AF051
:10550000BCF840F2FC41002009F08CFEC24809F0D2
:10551000A6FEAFF29C124FF4827146200AF0ADF85D
:105520004FF6FF701E23D222F021009014200AF0C3
:1055300093FB4FF6FF701E23D222F0210090FA2039
:105540000AF08AFB4FF6686009F07DFED2233C2208
:10555000AA2114200AF0DAF940F2FC4009F073FEA7
:10556000D2233C22AA21FA200AF0D0F9AA4809F055
:1055700076FE00214FF6FF7009F054FEA448007833
:1055800030B1012817D0022838D0032848D124E0B0
:10559000AFF29C103C23D222AA21009014200AF0E2
:1055A000B3FDAFF2AC103C23D222AA210090FA2026
:1055B0000AF0AAFD35E0AFF2C0103C23D222AA21A6
:1055C000009014200AF0A0FD96A03C23D222AA212C
:1055D0000090FA200AF098FD23E092A03C23D2220A
:1055E000AA21009014200AF08FFD8EA03C23D22225
:1055F000AA210090FA200AF087FD12E089A03C233E
:10560000D222AA21009014200AF07EFDAFF21820C9
:105610003C23D222AA210090FA200AF075FD00E076
:1056200000BF00BF4FF6FF71002009F0FBFD7FA017
:105630001E23D222F0210090FA200AF065FDAFF27D
:1056400050201E23D222F021009014200AF05CFD8D
:105650006E480121C26990470320764908806B4853
:105660007549086008BD2DE9F84374484FF6FF738B
:105670001E22D2210090012008F0F3FF044670485A
:105680004FF6FF731E22D2210090022008F0E9FF9E
:1056900005466C4800235022D2210090032008F0D8
:1056A000E0FF0646684800235022D22100900420E3
:1056B00008F0D7FF0746654801235022D221009009
:1056C000052008F0CEFF8046614807F0FCFD604BE6
:1056D0002246F021FA2007F0AAFA5D4B2A46F02173
:1056E000142007F0A4FA5A4B32463C21142007F04C
:1056F0009EFA574B3A463C21FA2007F098FA544B51
:1057000042469621FA2007F092FABDE8F88308B5E0
:10571000FFF7A9FF002009F026FE052214213D48CD
:105720000AF0F7F900214FF6FF7009F07BFD3A48C7
:1057300009F095FDAFF294324FF4AA71142009F0EC
:105740009CFFD22350223C2114200AF0DFF8D22300
:1057500050223C21FA200AF0D9F84FF66860502315
:10576000D2229621009014200AF076FA40F2FC40F2
:105770005023D22296210090FA200AF06DFA0021DF
:105780004FF6FF7009F04EFD4FF66861002009F0FA
:1057900049FD30A05023D2229621009014200AF017
:1057A000B3FC40F2FC41002009F03CFDAFF2384070
:1057B0005023D22296210090FA200AF0A5FC4FF641
:1057C000FF701E23D222F021009014200AF044FA28
:1057D0004FF6FF701E23D222F0210090FA200AF02B
:1057E0003BFA0D4809F03BFD00214FF6FF7009F030
:1057F00019FD1CA05023D2223C2137E0F73F0008BE
:1058000015400008334000087B400008CC160020FB
:10581000C900002020540408440200204449534990
:105820004E462E0053544F50000000004241434B5F
:10583000000000006401002060010020C340000857
:10584000D3400008E3400008F3400008034100088B
:1058500070170020444953494E46454354494F4E22
:1058600000000000504F4F4C00000000009014203A
:105870000AF04AFCFEA05023D2223C210090FA20DC
:105880000AF042FC4FF6FF71002009F0CBFCAFF2AA
:1058900064001E23D222F0210090FA200AF034FC8A
:1058A000AFF2B4401E23D222F021009014200AF05F
:1058B0002BFC4FF6FF71002009F0B4FCEE480121EB
:1058C000C26990470720ED490880EB48EC49086021
:1058D00008BD2DE9F843EB484FF6FF731E22D22195
:1058E0000090012008F0BDFE0446E7484FF6FF7324
:1058F0001E22D2210090022008F0B3FE0546E348A4
:1059000003233C2264210090184608F0AAFE0646B4
:10591000DF4803233C2264210090042008F0A1FE0C
:105920000746DC4803233C22D2210090052008F0E2
:1059300098FE8046D84801236422D2210090062098
:1059400008F08FFE8146D54807F0BDFCD34B2246B8
:10595000F021FA2007F06BF9D04B2A46F0211420F1
:1059600007F065F9CD4B3246AA21142007F05FF904
:10597000CA4B3A46AA21822007F059F9C74B424642
:10598000AA21FA2007F053F9C44B4A463C21FA20D9
:1059900007F04DF9BDE8F88308B5FFF79AFF00203E
:1059A00009F0E1FC05221421BD480AF0B2F80021FB
:1059B0004FF6FF7009F036FCBA4809F050FCBAA265
:1059C0004FF48C71142009F058FE45F2AA2064238C
:1059D000D2223C21009014200AF03EF945F2AA2080
:1059E0006423D2223C210090FA200AF035F945F2D6
:1059F000AA2009F02EFCAB4809F031FCAEA21E2112
:105A0000462009F03AFE002014233C228C2100900D
:105A10005F200AF021F945F2AA2009F01AFCA148FA
:105A200009F01DFCA7A2FF21462009F026FE4FF633
:105A3000FF701E23D222F021009014200AF00CF9EE
:105A40004FF6FF701E23D222F0210090FA200AF0B8
:105A500003F94FF6FF7009F0F6FB64233C22AA21FC
:105A6000142009F053FF64233C22AA21822009F06C
:105A70004DFFD2233C22AA21FA2009F047FF964885
:105A800009F0EDFB00214FF6FF7009F0CBFB93A06E
:105A90003C236422AA21009014200AF035FB90A038
:105AA0003C236422AA21009082200AF02DFB7D482D
:105AB00009F0D5FB8BA03C23D222AA210090FA202A
:105AC0000AF022FB4FF6FF71002009F0ABFBAFF2AA
:105AD000A4201E23D222F0210090FA200AF014FB09
