:020000040800F2
:1000000038AF00204D510108C90A0008CB0A00088A
:10001000CF0A0008D30A0008D70A00080000000031
:100020000000000000000000000000009D02000829
:10003000DB0A000800000000F10200085D4F010823
:1000400067510108675101086751010867510108AC
:10005000675101086751010867510108675101089C
:10006000675101086751010867510108675101088C
:10007000675101086751010867510108675101087C
:10008000675101086751010867510108675101086C
:10009000675101086751010867510108675101085C
:1000A000675101086751010867510108675101084C
:1000B0001F0B0008210B0008230B000867510108E3
:1000C000675101086751010867510108675101082C
:1000D000675101086751010867510108675101081C
:1000E000675101086751010867510108675101080C
:1000F00067510108675101086751010867510108FC
:1001000067510108675101086751010867510108EB
:1001100067510108675101086751010867510108DB
:1001200067510108675101086751010867510108CB
:1001300067510108DD0A000867510108675101088D
:1001400067510108675101086751010867510108AB
:10015000675101086751010867510108675101089B
:10016000675101086751010867510108675101088B
:10017000675101086751010867510108675101087B
:10018000675101086751010800F002F800F076F8A5
:100190000AA090E8000C82448344AAF10107DA45E2
:1001A00001D100F06BF8AFF2090EBAE80F0013F0BE
:1001B000010F18BFFB1A43F001031847587D0300D5
:1001C000787D03000A444FF0000C10F8013B13F057
:1001D000070408BF10F8014B1D1108BF10F8015BA0
:1001E000641E05D010F8016B641E01F8016BF9D193
:1001F00013F0080F1EBF10F8014BAD1C0C1B09D1EA
:100200006D1E58BF01F801CBFAD505E014F8016B5B
:1002100001F8016B6D1EF9D59142D6D370470000ED
:100220000023002400250026103A28BF78C1FBD8FF
:10023000520728BF30C148BF0B607047662917F0CE
:10024000A480642915F05C80752915F05980632914
:1002500015F04385002070471FB517F08CF89DE816
:10026000030015F075FA15F07BFD04000020002155
:1002700016F0FEFAE0601FBD10B510BD15F08EFE41
:100280001146FFF7E9FF00F0B1FA15F0ACFE03B438
:10029000FFF7F2FF03BC15F0DDFE00002A4B1968E2
:1002A0000868B0E8F04F80F30988BFF36F8F4FF014
:1002B000000080F3118870470000000006480068C5
:1002C000006880F3088862B661B6BFF34F8FBFF352
:1002D0006F8F00DF00BF00BF08ED00E0DFF80C000B
:1002E000016841F470010160704700BF88ED00E0D3
:1002F000EFF30980BFF36F8F134B1A681EF0100FD6
:1003000008BF20ED108A20E9F04F106008B44FF0CC
:10031000500080F31188BFF34F8FBFF36F8F13F03E
:100320000EFD4FF0000080F3118808BC19680868C2
:10033000B0E8F04F1EF0100F08BFB0EC108A80F349
:100340000988BFF36F8F7047F0010020EFF305803D
:100350007047000010B5F748008823287ED2DFE8F8
:1003600000F07D124C4D4E4F508A8B8CAAABBACA0E
:10037000C9CBCCCDCECFD0D1D2FEFDFCFBFAF9F863
:10038000F7F6F5F4F30000214FF6FF700CF086F954
:10039000E9480CF0A0F9E9A2822114200CF0A9FB95
:1003A0004FF6686100200CF079F9E7480CF093F9FA
:1003B000E6A2642182200CF09CFBDF480CF08BF954
:1003C000E2A2AA2150200CF094FB40F2FC41002054
:1003D0000CF064F9DC480CF07EF9DCA24FF4A57156
:1003E00082200CF086FBD4480CF075F9D7A24FF4AC
:1003F000C87150200CF07DFBDEE1DDE100BF00BFE5
:1004000000BF4FF6686100200CF048F9CE480CF0B0
:1004100062F9CFA2642178200CF06BFBC6480CF087
:100420005AF9CCA2AA2146200CF063FBCBA29B2157
:100430007F200CF05EFB40F2FC4100200CF02EF916
:10044000C1480CF048F9C2A24FF4A57178200CF015
:1004500050FBB9480CF03FF9C1A200E0ABE14FF40A
:10046000C87146200CF045FBBCA240F281117F20F0
:100470000CF03FFBA0E19FE100BF45F2AA214FF63F
:10048000FF700CF00BF9B0480CF025F9B6A264210E
:1004900008460CF02EFB45F2AA214FF6FF700CF037
:1004A000FDF8A9480CF017F9B1A24FF4A57164202A
:1004B0000CF01FFB80E17FE147F2C5514FF6FF7062
:1004C0000CF0ECF8A0480CF006F9ABA2C321962082
:1004D0000CF00FFB70E14EF2E3014FF6FF700CF0F1
:1004E000DDF899480CF0F7F8A3A2C32196200CF090
:1004F00000FB61E160E15FE15EE15DE15CE15BE148
:100500005AE159E100BF4FF6686100200CF0C6F8CF
:100510008D480CF0E0F899A2642108460CF0E9FA45
:1005200085480CF0D8F896A2A5216E200CF0E1FACF
:1005300040F2FC4100200CF0B1F883480CF0CBF8FD
:1005400091A24FF4A5710BE034E1DAE0C0E09AE04B
:1005500098E072E070E042E040E027E00EE00CE05E
:1005600064200CF0C6FA74480CF0B5F887A240F28B
:100570008B116E200CF0BDFA1EE11DE140F2FC4132
:1005800000200CF08BF870480CF0A5F87EA24FF418
:10059000A57164200CF0ADFA67480CF09CF87BA2C2
:1005A00040F28B116E200CF0A4FA05E14FF6686161
:1005B00000200CF073F864480CF08DF872A24FF430
:1005C000A57164200CF095FA5B480CF084F870A2D9
:1005D00040F28B116E200CF08CFAEDE000BF4FF66C
:1005E000686100200CF05AF857480CF074F86AA2C1
:1005F000642108460CF07DFA4F480CF06CF867A2B5
:10060000A5216E200CF075FA40F2FC4100200CF0A0
:1006100045F84D480CF05FF85BA24FF4A5716420DB
:100620000CF067FA44480CF056F858A240F28B11CF
:100630006E200CF05EFABFE000BF4FF6686100204C
:100640000CF02CF840480CF046F855A278216420B4
:100650000CF04FFA40F2FC4100200CF01FF83A4831
:100660000CF039F84FA24FF4A57164200CF041FA58
:1006700031480CF030F845A240F28B116E200CF09E
:1006800038FA99E000BF45F2AA2100200CF006F8E4
:100690002D480CF020F842A2782164200CF029FAB1
:1006A00040F2FC4100200BF0F9FF27480CF013F852
:1006B0003CA24FF4A57164200CF01BFA1E480CF00C
:1006C0000AF832A240F28B116E200CF012FA73E09D
:1006D00045F2AA214FF6FF700BF0E0FF1A480BF02D
:1006E000FAFF31A24FF4A57164200CF002FA12480F
:1006F0000BF0F1FF2DA240F28B116E200CF0F9F9F6
:100700005AE045F2AA214FF6FF700BF0C7FF0E48E2
:100710000BF0E1FF26A24FF4A57164200CF0E9F97B
:1007200005480BF0D8FF21A240F28B116E200CF08F
:10073000E0F941E0340000201401002030303A306C
:10074000303A3031000000000C010020302E35001E
:10075000313530003430306D6C0000006D6C0000BD
:100760003230306D6C0000003135206D33000000F8
:10077000303620680000000031350000302C320097
:100780006D672F6C00000000372C300070480000AF
:100790006D672F6800000000363530006D56000090
:1007A00035000000362C3800323800006F4300005E
:1007B0003330000000E000BF00BF10BD00BF0DF0EF
:1007C000D0F80BF094F80BF074F9FFF7C3FDF6E7DF
:1007D00010B500200EF0C2FD01200EF0BFFD02207A
:1007E0000EF0BCFD03200EF0B9FD10BD1CB54FF49A
:1007F000E13128480BF0B4FAFFF7EAFF0BF0D8FE1E
:10080000002005F05CFF0CF0FEFE0EF0F4FC224828
:1008100000F0D2F9214908801F48801C00F0CCF973
:100820001F4908801C48001D00F0C6F91D490880BA
:100830001948001F00F0C0F91B4908801648801EA7
:1008400000F0BAF91949088005F0CAFC002001211E
:1008500003464FF42062CDE9001015A1AFF2A300CA
:1008600012F037FF13F035FC00BFFEE700BFFEE7D4
:1008700000BF502080F31188BFF34F8FBFF36F8FFD
:1008800000BF00BFFEE7704710B50BF083F905F01D
:1008900022FD10BD001001400400080818000020CF
:1008A0001A0000201C0000201E0000202000002054
:1008B0004D795461736B00000CB5002001900090DD
:1008C0007648006840F480307449086000BF73487F
:1008D000006800F4003000900198401C01900098DE
:1008E00018B90198B0F5A06FF1D16C48006800F418
:1008F000003010B10120009001E00020009000982D
:10090000012846D165484030006840F08050634976
:10091000403108606248006840F4804060490860E7
:100920005E48083000685D49083108600846006884
:1009300040F4004008600846006840F4A050086099
:100940005848091F0860081F006840F08070091FA0
:10095000086000BF5148006800F000700028F9D01E
:1009600040F20520504908604C480830006820F0EB
:1009700003004A49083108600846006840F0020058
:10098000086000BF45480830006800F00C000828E7
:10099000F8D10CBD10B54548006840F470004349DB
:1009A00008603E48006840F001003C4908600020B3
:1009B0003A4908310860394800683D4908403749DC
:1009C00008603C48091D0860081F006820F480206A
:1009D000091F0860002031490C310860FFF76CFFE7
:1009E0004FF0006031498039086010BD70B50020BB
:1009F0000022022300240221284D08352D6805F02D
:100A00000C0020B1042806D0082834D107E02A4D74
:100A10002A4E356033E02A4D284E35602FE01F4DB9
:100A20002D1D2D68C5F380541C4D2D1D2D6805F01E
:100A30003F0154B1224DB5FBF1F5184E361D366815
:100A4000C6F3881605FB06F209E01B4DB5FBF1F570
:100A5000124E361D3668C6F3881605FB06F20F4D9A
:100A60002D1D2D68C5F301456D1C6B00B2FBF3F520
:100A7000124E356003E0104D104E356000BF00BFD0
:100A8000064D08352D68C5F303150E4E705D0B4DF0
:100A90002D68C540094E356070BD00000038024029
:100AA0000070004019544007003C024088ED00E00F
:100AB000FFFFF6FE103000240024F40000000020A8
:100AC00040787D0104000020704700BFFEE700BFB2
:100AD000FEE700BFFEE700BFFEE7704708B5002055
:100AE0000090402011F08FFD012804D169460D4887
:100AF000006812F030FB402011F0A9FD4FF4803067
:100B000011F0A5FD009848B1009838B14FF0805021
:100B100005490860BFF34F8FBFF36F8F08BD704763
:100B200070477047E801002004ED00E010B510F0B8
:100B30009DFDF32010F0B3FF0221402010F0E2FDF4
:100B4000082801D0012010BD1F4801881F4810F05F
:100B5000ABFE082801D00120F5E71D4801881B489D
:100B6000801C10F0A1FE082801D00120EBE71948F5
:100B700001881648001D10F097FE082801D00120BA
:100B8000E1E70F211148001F10F08EFE082801D068
:100B90000120D8E706210D48801E10F085FE0828A8
:100BA00001D00120CFE710F06EFD0020CBE7014619
:100BB00000200A6890B27047014600200A6890B28F
:100BC000022800DD002070471800002004000808FB
:100BD0001A0000201C00002010B5F94800680AF037
:100BE000D3F800F074FD10BD704710B5F4480068EC
:100BF0000AF0CAF800F07BFC10BD10B5F0480068A0
:100C00000AF0C2F801F086FB10BD10B5EC48006890
:100C10000AF0BAF803F0F9FA10BD10B5E948007807
:100C200030B101280BD0022810D003281CD114E0C9
:100C3000E34800680AF0A8F800F02AFE14E0E04853
:100C400000680AF0A1F801F01EFA0DE0DC48006827
:100C50000AF09AF800F0BEFF06E0D94800680AF0F2
:100C600093F801F0BCF800BF00BF10BD10B5D44828
:100C700000680AF089F805F0B3FA10BD10B5D04845
:100C800000680AF081F800F022FD0020CD490870CC
:100C900010BD10B5CA4800680AF076F800F027FCCD
:100CA0000020C849087010BD10B5C54800680AF09A
:100CB0006BF800F08FFF10BD10B5C14800680AF056
:100CC00063F801F0E0F910BD10B5BD4800680AF006
:100CD0005BF800F0FCFC0220BA49087010BD10B5AA
:100CE000B74800680AF050F800F001FC0020B54950
:100CF000087010BD10B5B24800680AF045F800F061
:100D0000C7FD10BD10B5AE4800680AF03DF801F00F
:100D100066F810BD10B5AA4800680AF035F800F072
:100D2000D6FC0320A749087010BD10B5A448006880
:100D30000AF02AF800F0DBFB0020A249087010BD81
:100D400010B59F4800680AF01FF801F09CF910BD2B
:100D500010B59B4800680AF017F800F03BFF10BD83
:100D600010B5974800680AF00FF800F0B0FC0120B9
:100D70009449087010BD10B5914800680AF004F855
:100D800000F0B5FB00208F49087010BD10B58C48ED
:100D9000006809F0F9FF00F01DFF10BD10B588488C
:100DA000006809F0F1FF00F073FD10BD10B5844834
:100DB000006809F0E9FF00F08AFC10BD10B580481A
:100DC000006809F0E1FF00F092FB10BD10B57C480F
:100DD000006809F0D9FF01F0BEFB10BD10B57848DE
:100DE000006809F0D1FF01F037FF10BD10B574485D
:100DF000006809F0C9FF02F0B7FE10BD10B57048D9
:100E0000006809F0C1FF01F085FA10BD10B56C480B
:100E1000006809F0B9FF00F06AFB10BD7047704729
:100E2000704710B56648006809F0AEFF01F02DFD6F
:100E300010BD10B56248006809F0A6FF01F06AFA1B
:100E400010BD10B55E48006809F09EFF00F04FFB32
:100E500010BD70477047704710B55948006809F0D9
:100E600093FF01F078FB10BD10B55548006809F0FC
:100E70008BFFFFF75BFE01F04DFA10BD10B5504837
:100E8000006809F081FFFFF751FE00F030FB10BD54
:100E900010B54DA00BF011F800205349088010BD8B
:100EA00010B552A00BF009F801204F49088010BD81
:100EB00010B556A00BF001F802204B49088010BD78
:100EC00010B55DA00AF0F9FF00206449088010BD4C
:100ED00010B563A00AF0F1FF01206049088010BD41
:100EE00010B568A00AF0E9FF02205C49088010BD37
:100EF00010B56DA00AF0E1FF00207349088010BD15
:100F000010B572A00AF0D9FF01206F49088010BD0A
:100F100010B576A00AF0D1FF02206B49088010BD01
:100F200010B52748006809F02FFF01F095FE10BDAD
:100F300010B52348006809F027FF01F08DFE10BDB1
:100F400010B51F48006809F01FFF01F085FE10BDB5
:100F500010B51B48006809F017FF03F0C9FA10BD6F
:100F600010B51748006809F00FFF03F0C1FA10BD73
:100F700010B51348006809F007FF03F0B9FA10BD77
:100F800010B50F48006809F0FFFE03F043FC10BDE8
:100F900010B50B48006809F0F7FE01F05DFE10BDCA
:100FA00010B50748006809F0EFFE01F055FE10BDCE
:100FB00010B50348006809F0E7FE01F04DFE10BDD2
:100FC0003000002016000020506172616D6574656C
:100FD0007273576174657253637265656E5F496EB3
:100FE000646F6F720D0A000018000020506172617A
:100FF0006D6574657273576174657253637265656C
:101000006E5F4F7574646F6F720D0A00506172618C
:101010006D6574657273576174657253637265654B
:101020006E5F45787472656D65436F6E646974694F
:101030006F6E0D0A00000000506172616D6574658D
:101040007273576174657253637265656E5F4C6548
:10105000737332306F430D0A000000001A00002045
:10106000506172616D657465727357617465725316
:10107000637265656E5F32306F435F33306F430D6F
:101080000A000000506172616D657465727357618A
:1010900074657253637265656E5F4D6F7265333050
:1010A0006F430D0A00000000506172616D65746548
:1010B0007273576174657253637265656E5F536FC7
:1010C00066740D0A000000001C000020506172616F
:1010D0006D6574657273576174657253637265658B
:1010E0006E5F486172640D0A000000005061726119
:1010F0006D6574657273576174657253637265656B
:101100006E5F56657279486172640D0A00000000D6
:1011100010B5E748006809F037FE01F0FBF810BD94
:1011200010B5E348006809F02FFE00F0E0F910BDAB
:1011300070477047704710B5DD48006809F024FE1D
:1011400002F02CFF10BD10B5D948006809F01CFE54
:1011500001F0E0F810BD10B5D548006809F014FEA4
:1011600000F0C5F910BD70477047704710B5D04802
:10117000006809F009FE02F0F7FC10BD10B5CC487C
:10118000006809F001FE00F0A2FA10BD10B5C848D1
:10119000006809F0F9FD00F0AAF910BD10B5C448C7
:1011A000006809F0F1FD03F035FBC148006809F063
:1011B000EBFD02F0C4F910BD10B5BD48006809F0A0
:1011C000E3FD03F095F9BA48006809F0DDFD02F08F
:1011D00052F910BD10B5B648006809F0D5FD04F00D
:1011E00032FD10BD10B5B248006809F0CDFD04F025
:1011F00055FE10BD10B5AE48006809F0C5FD03F0FE
:1012000004F810BD10B5AA48006809F0BDFD00F053
:101210006EF910BD10B52DED048BA648006816F0D0
:1012200039F841EC190B9FEDA40B53EC102B15F082
:1012300067FB41EC180B15F031FB9E490860BDECD3
:10124000048B10BD10B52DED048B9A48006816F084
:1012500021F841EC190B9FED980B53EC102B15F076
:101260002FFF41EC180B15F019FB92490860BDECFB
:10127000048B10BD704710B58D48006809F084FDDF
:1012800002F0C3FF10BD10B58948006809F07CFD6D
:1012900000F02DF910BD10B52DED048B88480068C5
:1012A00015F0F8FF41EC190B9FED830B53EC102B5D
:1012B00015F026FB41EC180B15F0F0FA8049086098
:1012C000BDEC048B10BD10B52DED048B7C4800687F
:1012D00015F0E0FF41EC190B9FED770B53EC102B51
:1012E00015F0EEFE41EC180B15F0D8FA74490860C1
:1012F000BDEC048B10BD704710B56D48006809F057
:1013000043FD01F007F810BD10B56948006809F009
:101310003BFD00F0ECF810BD70477047704710B50A
:101320006348006809F030FD03F065FD10BD10B59D
:101330005F48006809F028FD00F0ECFF10BD10B513
:101340005B48006809F020FD00F0D1F810BD70473F
:101350007047704710B55648006809F015FD03F056
:1013600093FB10BD10B55248006809F00DFD00F068
:10137000D1FF10BD10B54E48006809F005FD00F022
:10138000B6F810BD70477047704710B54848006800
:1013900009F0FAFC04F00DF810BD10B544480068DF
:1013A00009F0F2FC00F0B6FF10BD10B5404800682F
:1013B00009F0EAFC00F09BF810BD704770477047D9
:1013C00010B53B48006809F0DFFC03F048FE10BD93
:1013D00010B53748006809F0D7FC00F09BFF10BD3E
:1013E00010B53348006809F0CFFC00F080F810BD5C
:1013F00070477047704710B52D48006809F0C4FC6D
:1014000004F0B3FA10BD10B52948006809F0BCFC1F
:1014100000F080FF10BD10B52548006809F0B4FC4D
:1014200000F065F810BD70477047704710B5204850
:10143000006809F0A9FC04F0F9F810BD10B51C48CB
:10144000006809F0A1FC02F0E0FE10BD10B51848DC
:10145000006809F099FC00F04AF810BD7047704729
:10146000704710B51248006809F08EFC02F0CDFEFE
:1014700010BD10B50E48006809F086FC00F037F882
:1014800010BD70477047704710B50948006809F0F3
:101490007BFC00F01CF910BD10B50548006809F090
:1014A00073FC00F024F810BD704770477047704718
:1014B00030000020240000209A9999999999B93F09
:1014C0002800002038B5FE484FF6FF732022D221B5
:1014D000009001200AF0C0FA0446FA4809F08AF8A0
:1014E000F84B2246F021FA2008F011FD38BD08B56E
:1014F000F5A00AF0E2FCFFF7E5FF00200BF06FF922
:101500004FF6FF702023D222F0210090FA200BF03A
:101510003CFDF3480BF0DFF8F2A02023D222F021AB
:101520000090FA200BF085FF4FF6FF701C235A2223
:101530000C21009014200BF028FDED480BF0CBF8A7
:101540004FF6FF7100200BF0A9F8EAA214210E203B
:101550000BF0CFFA00214FF6FF700BF09FF8E04838
:101560000BF0B9F8E5A24FF4917114200BF0C1FA19
:10157000E6A21421FA200BF0BCFA4FF66860A02313
:10158000D2223C21009014200BF0FFFC40F2FC40E2
:10159000A023D2223C210090FA200BF0F6FC4FF65B
:1015A000686100200BF07AF8CD480BF094F8DAA2CD
:1015B0001E2150200BF09DFADAA2AF21A0200BF0E3
:1015C00098FA40F2FC4100200BF068F8C4480BF098
:1015D00082F8D6A24FF4827150200BF08AFAD5A27D
:1015E0004FF4C871A0200BF084FAB6480121C269FB
:1015F00090470120D0490880B248D049086008BD12
:1016000010B5FFF774FF10BD2DE9F843CC484FF635
:10161000FF731E22D221009001200AF01DFA044619
:10162000C8484FF6FF731E22D221009002200AF014
:1016300013FA0546C44800235022D221009003200B
:101640000AF00AFA0646C14800235022D22100902F
:1016500004200AF001FA0746BD4800235022D22197
:10166000009005200AF0F8F98046BA48002350227D
:10167000D221009006200AF0EFF98146B64808F022
:10168000B9FFB54B2246F021FA2008F040FCB24BDE
:101690002A46F021142008F03AFCAF4B32463C2198
:1016A000142008F034FCAC4B3A463C21FA2008F0F8
:1016B0002EFCA94B42469621142008F028FCA64B8C
:1016C0004A469621FA2008F022FCBDE8F88308B5C6
:1016D000A2A00AF0F2FBFFF797FF00200BF07FF8C3
:1016E0004FF6FF701C235A220C21009014200BF09F
:1016F0004CFC7F480AF0EFFF4FF6FF7100200AF024
:10170000CDFF7CA214210E200BF0F3F900214FF63F
:10171000FF700AF0C3FF72480AF0DDFF71A24FF4B8
:10172000BE7114200BF0E5F9D22350223C21142085
:101730000BF028FBD22350223C21FA200BF022FB95
:10174000D2235022962114200BF01CFBD2235022CE
:101750009621FA200BF016FB4FF6FF701E23D222C3
:10176000F021009014200BF010FCD2231E22F02157
:10177000FA200BF007FB00214FF6FF700AF08EFFF6
:1017800057480AF0A8FF7BA05023D2223C210090AA
:1017900014200BF04EFE7AA05023D2223C21009060
:1017A000FA200BF046FE79A05023D2229621009019
:1017B00014200BF03EFE78A05023D22296210090F8
:1017C000FA200BF036FE78A01E23D222F0210090E2
:1017D000FA200BF02EFE4FF6FF7100200AF05EFF9C
:1017E00074A01E23D222F021009014200BF021FEC1
:1017F00059480121C269904702204F490880564844
:101800004E49086008BDF8B56E484FF6FF731E22BA
:10181000D221009001200AF01FF904466A484FF6D1
:10182000FF731E22D221009002200AF015F905460E
:10183000664840F2FC433C22D221009003200AF08B
:101840000BF9064662484FF668633C22D2210090AD
:1018500004200AF001F907465E4808F0CBFE5D4B14
:101860002246F021FA2008F052FB5A4B2A46F0217A
:10187000142008F04CFB574B3246AA21142008F0E4
:1018800046FB544B3A46AA21FA2008F040FBF8BD2B
:1018900008B551A00AF011FBFFF7B5FF00200AF0D0
:1018A0009EFF4FF6FF701C235A220C21009014203B
:1018B0000BF06BFB0E480AF00EFF4FF6FF719DE038
:1018C000D90B0008500200204372656174655F53B4
:1018D0007461727453637265656E0D0A00000000D6
:1018E0001401002053455454494E47530000000052
:1018F0000C0100205449544C450000004348415518
:10190000205048554F43205655000000424143485F
:10191000204B484F4100000043484C4F52494E4530
:10192000000000006D672F6C0000000050482D2D56
:10193000000000007048000034000020300000204B
:10194000E90B0008EB0B0008FB0B00080B0C000870
:101950001B0C00086D0C0008F40200204372656146
:1019600074655F53657474696E67735363726565FC
:101970006E0D0A00504152414D45544552530000EE
:1019800043414C4942524154494F4E00444F534900
:101990004E4720544553540054595045204F46203B
:1019A00050524F42450000004C414E47554147457B
:1019B000530000004241434B20544F2053544152A6
:1019C000540000007D0C0008930C0008A90C0008CE
:1019D000B90C0008980300204372656174655F4488
:1019E0006F73696E67546573745374617274537462
:1019F00061727453637265656E0D0A0000200AF00F
:101A00004DFEAFF2101214210E200BF072F80021DF
:101A10004FF6FF700AF042FEFE480AF05CFEAFF29D
:101A200094024FF4AA7114200BF063F84FF668602B
:101A30006423D2223C21009014200BF0A6FA40F23D
:101A4000FC406423D2223C210090FA200BF09DFA46
:101A50004FF6686100200AF021FEEE480AF03BFED6
:101A6000EDA21E2146200BF044F840F2FC4100207C
:101A70000AF014FEE7480AF02EFEAFF248124FF4C7
:101A8000827146200BF035F84FF6FF701E23D222EC
:101A9000F021009014200BF078FA4FF6FF701E230F
:101AA000D222F0210090FA200BF06FFA4FF6686016
:101AB0000AF005FED2233C22AA2114200BF062F981
:101AC00040F2FC400AF0FBFDD2233C22AA21FA207E
:101AD0000BF058F9CF480AF0FEFD00214FF6FF70D9
:101AE0000AF0DCFDAFF22C103C23D222AA21009098
:101AF00014200BF09EFCAFF23C103C23D222AA2112
:101B00000090FA200BF095FC4FF6FF7100200AF0D0
:101B1000C5FDC3A01E23D222F0210090FA200BF0B5
:101B200088FCAFF270101E23D222F0210090142006
:101B30000BF07FFCBC480121C26990470320BB49E0
:101B40000880B948BA49086008BDF8B5B9484FF6E9
:101B5000FF731E22D2210090012009F07DFF044670
:101B6000B5484FF6FF731E22D2210090022009F0E3
:101B700073FF0546B14840F2FC433C22D22100905D
:101B8000032009F069FF0646AD484FF668633C2222
:101B9000D2210090042009F05FFF0746A94808F011
:101BA00029FDA84B2246F021FA2008F0B0F9A54BF8
:101BB0002A46F021142008F0AAF9A24B3246AA21A5
:101BC000142008F0A4F99F4B3A46AA21FA2008F005
:101BD0009EF9F8BD08B59CA00AF06FF9FFF7B5FFB4
:101BE00000200AF0FCFD4FF6FF701C235A220C2146
:101BF000009014200BF0C9F99C480AF06CFD4FF6D8
:101C0000FF7100200AF04AFDAFF2183214210E20B5
:101C10000AF06FFF00214FF6FF700AF03FFD7D488C
:101C20000AF059FDAFF29C224FF4AA7114200AF079
:101C300060FF4FF668606423D2223C21009014209C
:101C40000BF0A3F940F2FC406423D2223C21009027
:101C5000FA200BF09AF94FF6686100200AF01EFD99
:101C60006C480AF038FD6CA21E2146200AF041FFA4
:101C700040F2FC4100200AF011FD7C480AF02BFDE7
:101C800064480AF028FDAFF254324FF482714620C6
:101C90000AF02FFF4FF6FF701E23D222F021009092
:101CA00014200BF072F94FF6FF701E23D222F021A0
:101CB0000090FA200BF069F94FF668600AF0FFFC1B
:101CC000D2233C22AA2114200BF05CF840F2FC4005
:101CD0000AF0F5FCD2233C22AA21FA200BF052F89C
:101CE0004C480AF0F8FC00214FF6FF700AF0D6FCD1
:101CF0005FA03C23D222AA21009014200BF099FB74
:101D0000AFF248303C23D222AA210090FA200BF0F7
:101D100090FB4FF6FF7100200AF0C0FC40A01E238C
:101D2000D222F0210090FA200BF083FBAFF27C303E
:101D30001E23D222F021009014200BF07AFB4148A0
:101D40000121C26990470420384908803D4838493C
:101D5000086008BDF8B548484FF6FF731E22D2212F
:101D60000090012009F078FE044644484FF6FF73C6
:101D70001E22D2210090022009F06EFE0546404846
:101D800040F2FC433C22D2210090032009F064FE83
:101D900006463C484FF668633C22D221009004205E
:101DA00009F05AFE0746384808F024FC364B224614
:101DB000F021FA2008F0ABF8334B2A46F02114202A
:101DC00008F0A5F8304B3246AA21142008F09FF8FD
:101DD0002D4B3A46AA21FA2008F099F8F8BD08B52B
:101DE0002AA00AF06AF8FFF7B5FF00200AF0F7FC16
:101DF0004FF6FF701C235A220C21009014200BF088
:101E0000C4F81A480AF067FC4FF6FF7100200AF088
:101E100045FC4DE014010020444953494E462E0034
:101E20004241434B00000000980300203400002092
:101E300030000020C90C0008DF0C0008F50C000879
:101E4000050D00083C0400204372656174655F4421
:101E50006F73696E675465737453746F70537461F4
:101E6000727453637265656E0D0A00000C010020E8
:101E700053544F5000000000150D00082B0D0008B2
:101E8000410D0008510D0008E00400204372656117
:101E900074655F446F73696E675465737453746FD0
:101EA0007053746F7053637265656E0D0A000000A5
:101EB000AFF2C05214210E200AF01BFE00214FF693
:101EC000FF700AF0EBFBFA480AF005FCAFF244524F
:101ED0004FF4AA7114200AF00CFE4FF668606423D8
:101EE000D2223C21009014200BF04FF840F2FC402D
:101EF0006423D2223C210090FA200BF046F84FF6E2
:101F0000686100200AF0CAFBE9480AF0E4FBAFF27E
:101F1000F8021E2146200AF0ECFD40F2FC410020B0
:101F20000AF0BCFBE2480AF0D6FBAFF2F8524FF4DD
:101F3000827146200AF0DDFD4FF6FF701E23D2228B
:101F4000F021009014200BF020F84FF6FF701E23B4
:101F5000D222F0210090FA200BF017F84FF66860BB
:101F60000AF0ADFBD2233C22AA2114200AF00AFF7A
:101F700040F2FC400AF0A3FBD2233C22AA21FA2023
:101F80000AF000FFCA480AF0A6FB00214FF6FF70D6
:101F90000AF084FBAFF228103C23D222AA21009041
:101FA00014200BF046FAAFF238103C23D222AA21BB
:101FB0000090FA200BF03DFA4FF6FF7100200AF076
:101FC0006DFBAFF2A4101E23D222F0210090FA2064
:101FD0000BF02FFAAFF224601E23D222F0210090E2
:101FE00014200BF026FAB3480121C269904705205E
:101FF000B1490880AF48B149086008BDF8B5B0489C
:102000004FF6FF731E22D2210090012009F024FD1B
:102010000446AC484FF6FF731E22D22100900220E6
:1020200009F01AFD0546A84840F2FC433C22D221A3
:102030000090032009F010FD0646A4484FF668639F
:102040003C22D2210090042009F006FD0746A0485A
:1020500008F0D0FA9E4B2246F021FA2007F057FFF5
:102060009B4B2A46F021142007F051FF984B324633
:10207000AA21142007F04BFF954B3A46AA21FA20DB
:1020800007F045FFF8BD08B592A009F016FFFFF76D
:10209000B5FF00200AF0A3FB4FF6FF701C235A2265
:1020A0000C21009014200AF070FF93480AF013FBF3
:1020B0004FF6FF7100200AF0F1FAAFF2C872142156
:1020C0000E200AF016FD00214FF6FF700AF0E6FA26
:1020D00077480AF000FBAFF24C724FF4AA7114205B
:1020E0000AF007FD4FF668606423D2223C2100907D
:1020F00014200AF04AFF40F2FC406423D2223C2123
:102100000090FA200AF041FF4FF6686100200AF0C3
:10211000C5FA67480AF0DFFAAFF204321E21462002
:102120000AF0E7FC40F2FC4100200AF0B7FA6048F0
:102130000AF0D1FAAFF604024FF4827146200AF099
:10214000D8FC4FF6FF701E23D222F02100901420FD
:102150000AF01BFF4FF6FF701E23D222F0210090E1
:10216000FA200AF012FF4FF668600AF0A8FAD223AC
:102170003C22AA2114200AF005FE40F2FC400AF09D
:102180009EFAD2233C22AA21FA200AF0FBFD4848FD
:102190000AF0A1FA00214FF6FF700AF07FFAAFF2C1
:1021A000E4703C23D222AA21009014200BF041F9C4
:1021B000AFF244303C23D222AA210090FA200BF047
:1021C00038F94FF6FF7100200AF068FAAFF2B0302C
:1021D0001E23D222F0210090FA200BF02AF9AFF64C
:1021E0002C001E23D222F021009014200BF021F9A4
:1021F00037480121C269904706202F49088034489A
:102200002E49086008BD2DE9F8433C484FF6FF739E
:102210001E22D2210090012009F01EFC04463848FD
:102220004FF6FF731E22D2210090022009F014FC09
:102230000546344800235022D2210090032009F0A3
:102240000BFC0646304800235022D2210090042087
:1022500009F002FC07462D4801235022D2210090AC
:10226000052009F0F9FB8046294808F0C3F9284BFE
:102270002246F021FA2007F04AFE254B2A46F0219B
:10228000142007F044FE224B32463C21142007F074
:102290003EFE1F4B3A463C21FA2007F038FE1C4B0D
:1022A00042469621FA2007F032FEBDE8F88300008E
:1022B00014010020E0040020340000203000002041
:1022C000610D0008770D00088D0D00089D0D0008B8
:1022D000840500204372656174655F446F73696EA5
:1022E0006754657374537461727453746F7053637D
:1022F0007265656E0D0A00000C010020AD0D00082E
:10230000BD0D0008CD0D0008DD0D0008ED0D000825
:102310002806002008B5F9A009F0CFFDFFF773FFEC
:1023200000200AF05CFA4FF6FF701C235A220C21A1
:10233000009014200AF029FEF7480AF0CCF94FF675
:10234000FF7100200AF0AAF9AFF6582214210E20DE
:102350000AF0CFFB00214FF6FF700AF09FF9EF481B
:102360000AF0B9F9AFF6F41240F2631114200AF042
:10237000C0FBD22350223C2114200AF003FDD223BB
:1023800050223C21FA200AF0FDFC4FF668605023F1
:10239000D2229621009014200AF0F7FD40F2FC4072
:1023A0005023D22296210090FA200AF0EEFD00215F
:1023B0004FF6FF700AF072F94FF6686100200AF0DC
:1023C0006DF9D7A05023D2229621009014200BF053
:1023D00030F840F2FC4100200AF060F9AFF6AC2082
:1023E0005023D22296210090FA200BF022F84FF6CB
:1023F000FF701E23D222F021009014200AF0C5FDA8
:102400004FF6FF701E23D222F0210090FA200AF02E
:10241000BCFDC2480AF05FF900214FF6FF700AF0D8
:102420003DF9C3A05023D2223C21009014200BF090
:1024300000F8C1A05023D2223C210090FA200AF0DB
:10244000F8FF4FF6FF7100200AF028F9AFF2306074
:102450001E23D222F0210090FA200AF0EAFFAFF604
:10246000AC201E23D222F021009014200AF0E1FFBC
:102470004FF6FF7100200AF011F9B1480121C2693D
:1024800090470720AF490880AD48AF49086008BDB4
:102490002DE9F843AD484FF6FF731E22D22100907C
:1024A000012009F0D9FA0446A9484FF6FF731E220D
:1024B000D2210090022009F0CFFA0546A548032357
:1024C0003C2264210090184609F0C6FA0646A2484C
:1024D00003233C2264210090042009F0BDFA074642
:1024E0009E4803233C22D2210090052009F0B4FA33
:1024F00080469B4801236422D2210090062009F0E7
:10250000ABFA8146974808F075F8964B2246F021C1
:10251000FA2007F0FCFC934B2A46F021142007F028
:10252000F6FC904B3246AA21142007F0F0FC8D4BAC
:102530003A46AA21822007F0EAFC8A4B4246AA21A9
:10254000FA2007F0E4FC874B4A463C21FA2007F0CA
:10255000DEFCBDE8F88308B583A009F0AEFCFFF708
:1025600097FF00200AF03BF94FF6FF701C235A2218
:102570000C21009014200AF008FD67480AF0ABF81F
:102580004FF6FF7100200AF089F8AFF69842142147
:102590000E200AF0AEFA00214FF6FF700AF07EF826
:1025A0005E480AF098F878A24FF4917114200AF06E
:1025B000A0FA45F2AA206423D2223C2100901420E4
:1025C0000AF0E3FC45F2AA206423D2223C210090C9
:1025D000FA200AF0DAFC45F2AA200AF076F84F4811
:1025E0000AF079F86CA21E2146200AF082FA002037
:1025F00014233C228C2100905F200AF0C6FC45F297
:10260000AA200AF062F845480AF065F865A2FF21A1
:1026100046200AF06EFA4FF6FF701E23D222F021F8
:10262000009014200AF0B1FC4FF6FF701E23D22256
:10263000F0210090FA200AF0A8FC4FF6FF700AF093
:102640003EF864233C22AA2114200AF09BFB642359
:102650003C22AA2182200AF095FBD2233C22AA2107
:10266000FA200AF08FFB2C480AF035F800214FF6CB
:10267000FF700AF013F850A03C236422AA210090B6
:1026800014200AF0D6FE4DA03C236422AA2100901B
:1026900082200AF0CEFE21480AF01DF848A03C2313
:1026A000D222AA210090FA200AF0C3FE4FF6FF7151
:1026B000002009F0F3FFAFF698001E23D222F0218C
:1026C0000090FA200AF0B5FEAFF618501E23D22271
:1026D000F021009014200AF0ACFE4FF6FF710020AC
:1026E00009F0DCFF1F480121C26990470820154905
:1026F00008801C481449086008BD000043726561E9
:1027000074655F506172616D657465727353637255
:1027100065656E0D0A0000000C0100201401002008
:10272000444953494E46454354494F4E000000002A
:10273000504F4F4C000000005741544552000000DC
:10274000280600203400002030000020FD0D000885
:102750000D0E00081D0E00081F0E0008210E0008B7
:10276000230E0008CC0600204372656174655F503B
:102770006172616D6574657273566F6C756D6553CA
:10278000637265656E0D0A00504F4F4C20504152E8
:10279000414D455445525300504F4F4C20564F4CDD
:1027A000554D450046494C54524154494F4E2050D6
:1027B0004552494F440000002B0000002D0000004E
:1027C0004F4B00002DE9F843FD484FF6FF731E22E2
:1027D000D2210090012009F03FF90446F9484FF654
:1027E000FF731E22D2210090022009F035F9054620
:1027F000F54803233C2264210090184609F02CF987
:102800000646F24803233C2264210090042009F08C
:1028100023F90746EE4803233C22D22100900520ED
:1028200009F01AF98046EB4801236422D221009076
:10283000062009F011F98146E74807F0DBFEE64B78
:102840002246F021FA2007F062FBE34B2A46F021F2
:10285000142007F05CFBE04B3246AA21142007F05D
:1028600056FBDD4B3A46AA21822007F050FBDA4B9B
:102870004246AA21FA2007F04AFBD74B4A463C21A0
:10288000142007F044FBBDE8F88308B5D3A009F095
:1028900014FBFFF797FF002009F0A1FF4FF6FF7030
:1028A0001C235A220C21009014200AF06EFBD648FB
:1028B00009F011FF4FF6FF71002009F0EFFEAFF6AF
:1028C000CC7214210E200AF014F900214FF6FF708B
:1028D00009F0E4FECD4809F0FEFEAFF254124FF4C9
:1028E000917114200AF005F945F2AA206423D2223E
:1028F0003C21009014200AF048FB45F2AA206423F2
:10290000D2223C210090FA200AF03FFB0020142341
:102910003C228C21009040F245100AF036FB45F233
:10292000AA214FF6FF7009F0B9FEB84809F0D3FEAE
:10293000AFF29C121E2146200AF0DBF845F2AA21D4
:102940004FF6FF7009F0AAFEB04809F0C4FEAFF2DE
:10295000AC12FF2146200AF0CCF84FF6FF701E2380
:10296000D222F021009014200AF00FFB4FF6FF70E6
:102970001E23D222F0210090FA200AF006FB4FF627
:10298000FF7009F09CFE64233C22AA2114200AF067
:10299000F9F964233C22AA2182200AF0F3F9D22318
:1029A0003C22AA21FA200AF0EDF9974809F093FE9B
:1029B00000214FF6FF7009F071FEAFF204203C23B6
:1029C0006422AA21009014200AF033FDAFF21420F3
:1029D0003C236422AA21009082200AF02AFD8B4821
:1029E00009F079FEAFF228203C23D222AA210090E0
:1029F000FA200AF01EFD4FF6FF71002009F04EFE8E
:102A0000AFF6E4301E23D222F0210090FA200AF023
:102A100010FD7F481E23D222F021009014200AF0DE
:102A200008FD4FF6FF71002009F038FE6A480121C9
:102A3000C26990470920774908806748764908604D
:102A400008BD2DE9F04F87B0012004F015FC0446C5
:102A5000022004F011FC0546032004F00DFC06469C
:102A60006E484FF6FF731E22D2210090042008F01A
:102A7000F3FF07466A484FF6FF731E22D2210090EB
:102A8000052008F0E9FF8046664A5EA12046E36A19
:102A900098478146644A5BA12046E36A984782468C
:102AA000624A58A12046E36A98478346604A55A186
:102AB0002846EB6A984706905E4A52A12846EB6A80
:102AC000984705905C4A4FA12846EB6A98470490C6
:102AD0005A4A4CA13046F36A98470390584A49A194
:102AE0003046F36A98470290564A46A13046F36A48
:102AF00098470190544807F07DFD534B3A46F0212A
:102B0000FA2007F004FA504B4246F021142007F057
:102B1000FEF94D4B4A4655214FF4877007F0F7F9FF
:102B2000494B52465521880007F0F1F9464B5A4669
:102B300055214FF4CD7007F0EAF9434B8C214FF447
:102B40008770069A07F0E3F93F4B8C214FF4AA7087
:102B5000059A07F0DCF93C4B8C214FF4CD70049AB8
:102B600007F0D5F9384BCD214FF48770039A07F061
:102B7000CEF9354BCD214FF4AA70029A07F0C7F970
:102B8000314BCD214800019A07F0C1F90121201DE8
:102B90002E4A128850F8220040680176281D2C4ADF
:102BA000128850F8220040680176301D294A1288A8
:102BB00050F822004068017607B0BDE8F08F0000B1
:102BC000330E0008430E0008530E0008550E00088F
:102BD000570E0008590E0008700700204372656107
:102BE00074655F506172616D657465727346697476
:102BF000726174696F6E506572696F645363726558
:102C0000656E0D0A000000000C0100201401002078
:102C1000B41900083400002030000020690E0008BC
:102C20007D0E0008910E0008A10E0008B10E0008EC
:102C3000C10E0008D10E0008E10E0008F10E0008D8
:102C4000010F0008110F00081408002018000020D0
:102C50001A0000201C00002008B5FEA009F02DF984
:102C6000FFF7EFFE002009F0BAFD4FF6FF701C23BE
:102C70005A220C21009014200AF087F9FD4809F02F
:102C80002AFD4FF6FF71002009F008FDFA4A1421D1
:102C90000E2009F02EFF00214FF6FF7009F0FEFC18
:102CA000F64809F018FDF6A24FF48C71142009F0D3
:102CB00020FFF84809F00FFDAFF28C521E2137209B
:102CC00009F017FFF4A21E21782009F012FFAFF2DD
:102CD00098521E21872009F00CFFF1A21E21962098
:102CE00009F007FFAFF2B0521E21B92009F001FF31
:102CF000EEA21E21C82009F0FCFEEF4809F0EBFC13
:102D0000EEA2FF21372009F0F4FEEEA24FF4A071ED
:102D1000372009F0EEFEEDA2FF21782009F0E9FE50
:102D2000ECA24FF4A071782009F0E3FEEBA240F290
:102D30008B11782009F0DDFEEAA240F20911B920DA
:102D400009F0D7FEE9A240F24F11B92009F0D1FEF7
:102D5000E8A240F28111B92009F0CBFE4FF478408F
:102D600009F0ADFCE6A24FF4C371372009F0C1FEB3
:102D7000E5A240F28111462009F0BBFE4FF6FF703C
:102D80001E23D222F021009014200AF0FEF84FF604
:102D9000FF701E23D222F0210090FA200AF0F5F8ED
:102DA0004FF6FF71002009F079FCAFF68C701E23FE
:102DB000D222F0210090FA200AF03BFBAE48C0304E
:102DC0001E23D222F021009014200AF032FB4FF68D
:102DD000FF71002009F062FCCE480121C2699047D2
:102DE0000A20CD490880CB48CC49086008BD38B5D9
:102DF000CB4847F2C5531E223C210090012008F029
:102E00002BFE0446C74807F0F5FBC64B2246AA2115
:102E10004FF4967007F07BF838BD08B5C2A009F0F2
:102E20004CF8FFF7E4FF47F2C550AC234FF48C7227
:102E30003221009064200AF0A8F847F2C5514FF6FD
:102E4000FF7009F02BFC934809F045FCBFA27821E4
:102E50003C2009F04EFEC1A27821502009F049FE25
:102E6000C1A27821642009F044FE934809F033FCA4
:102E7000BFA2E621962009F03CFEBFA2E621A020D9
:102E800009F037FE4FF6FF7009F019FC3C231E22B3
:102E9000AA214FF4967009F075FF47F2C5514FF61D
:102EA000FF7009F0FBFB7B4809F015FCAFF2F06006
:102EB0001E233C22AA2100904FF496700AF0B9FA22
:102EC00098480121C26990470B2093490880954892
:102ED0009249086008BD38B5A94847F2C5531E227B
:102EE0003C210090012008F0B7FD0446A54807F0FA
:102EF00081FBA44B2246AA214FF4967007F007F8F5
:102F000038BD08B5A0A008F0D8FFFFF7E4FF4EF2E7
:102F1000E300AC234FF48C723221009064200AF05D
:102F200034F84EF2E3014FF6FF7009F0B7FB594851
:102F300009F0D1FB9EA278213C2009F0DAFDA1A284
:102F40007821502009F0D5FD87A27821642009F06E
:102F5000D0FD594809F0BFFB85A2E621962009F073
:102F6000C8FD85A2E621A02009F0C3FD4FF6FF7041
:102F700009F0A5FB3C231E22AA214FF4967009F00C
:102F800001FF4EF2E3014FF6FF7009F087FB414865
:102F900009F0A1FBAFF2D8701E233C22AA210090B9
:102FA0004FF496700AF045FA76480121C2699047BD
:102FB0000C205949088073485849086008BD38B545
:102FC0006F4847F2C5531E223C210090012008F0B3
:102FD00043FD04467F4807F00DFB7E4B2246AA21A5
:102FE0004FF4967006F093FF38BD08B57AA008F04C
:102FF00064FFFFF7E4FF47F2C550AC234FF48C7237
:1030000032210090642009F0C0FF47F2C5514FF60D
:10301000FF7009F043FB1F4809F05DFB77A27821A0
:103020003C2009F066FD79A278215A2009F061FD63
:103030007EA278216E2009F05CFD83A27821822097
:1030400009F057FD4FF6FF7009F039FB3C231E22B3
:10305000AA2109E14372656174655F506172616D17
:103060006574657273576174657253637265656EDA
:103070000D0A00000C010020F418000814010020C3
:10308000574154455220504152414D4554455253A9
:1030900000000000340100204156455241474500E0
:1030A00054454D50455241545552450048415244B3
:1030B0004E4553530000000024010020696E646FE8
:1030C0006F7200006F7574646F6F72003C20323055
:1030D0006F43000032302D33306F43003E203330D9
:1030E0006F430000736F66740000000068617264D3
:1030F000000000007665727920686172640000004B
:1031000065787472656D6500636F6E646974696F6C
:103110006E00000014080020340000203000002061
:10312000210F0008B808002053686F775F5761725D
:103130006E696E674D6178696D616C536166657427
:103140007953637265656E0D0A0000004D61786900
:103150006D616C20736166657479000064697366E3
:10316000656374696F6E0000646F736167653A0030
:103170006D6C2F6D33000000686F757200000000E9
:10318000310F00085C09002053686F775F57617248
:103190006E696E6745787472656D65436F6E6469BC
:1031A00074696F6E53637265656E0D0A00000000EE
:1031B00045787472656D6520636F6E646974696FBC
:1031C0006E0000006D6178696D616C2073616665E9
:1031D00074790000000A002053686F775F576172AE
:1031E0006E696E675761746572486172646E65736B
:1031F0007353637265656E0D0A0000005761746554
:103200007220686172646E6573730000536F667438
:1032100020746F206D6F6465726174656C792068CD
:10322000617264203C39206F644800004966207058
:10323000482076616C756520646F6573206E6F74CD
:10324000206368616E67650042616368204B686F48
:10325000612073746F707320616674657220313001
:1032600020646F7365732E004FF4967009F08AFD29
:1032700047F2C5514FF6FF7009F010FAAFF6C020C3
:103280001E233C22AA2100904FF496700AF0D1F838
:10329000FD480121C26990470E20FC490880FA4888
:1032A000FB49086008BD38B5FA484EF2E3031E2218
:1032B0003C210090012008F0CFFB0446F64807F0BF
:1032C00099F9F54B2246AA214FF4967006F01FFE9D
:1032D00038BD08B5F1A008F0F0FDFFF7E4FF4EF2AD
:1032E000E300AC234FF48C7232210090642009F08B
:1032F0004CFE4EF2E3014FF6FF7009F0CFF9F248B1
:1033000009F0E9F9F1A278213C2009F0F2FBF4A2DE
:1033100078215A2009F0EDFBF8A27821084609F03F
:10332000E8FBFEA278218C2009F0E3FB4FF6FF704A
:1033300009F0C5F93C231E22AA214FF4967009F02A
:1033400021FD4EF2E3014FF6FF7009F0A7F9AFF649
:1033500090301E233C22AA2100904FF496700AF070
:1033600068F8CD480121C26990470D20C7490880FF
:10337000C948C749086008BD38B5ED484EF2E303B7
:103380001E223C210090012008F066FB0446E9481B
:1033900007F030F9E74B2246AA214FF4967006F069
:1033A000B6FD38BD08B5E4A008F087FDFFF7E4FFDF
:1033B0004EF2E300AC234FF48C7232210090642073
:1033C00009F0E3FD4EF2E3014FF6FF7009F066F9F4
:1033D000BD4809F080F9BDA278213C2009F089FBA5
:1033E000BFA278215A2009F084FBDDA2782108468B
:1033F00009F07FFBE2A278218C2009F07AFB4FF6DE
:10340000FF7009F05CF93C231E22AA214FF496704C
:1034100009F0B8FC4EF2E3014FF6FF7009F03EF9F7
:10342000AFF664401E233C22AA2100904FF4967010
:1034300009F0FFFFBF480121C26990470F2093495F
:103440000880BC489249086008BD38B5D34847F2A7
:10345000C5531E223C210090012008F0FDFA0446CD
:10346000CF4807F0C7F8CE4B2246AA214FF49670FA
:1034700006F04DFD38BD08B5CAA008F01EFDFFF7E7
:10348000E4FF47F2C550AC234FF48C723221009018
:10349000642009F07AFD47F2C5514FF6FF7009F03C
:1034A000FDF8894809F017F988A278213C2009F035
:1034B00020FBC6A278215A2009F01BFBCAA2782162
:1034C0006E2009F016FB4FF6FF7009F0F8F83C2368
:1034D0001E22AA214FF4967009F054FC47F2C55100
:1034E0004FF6FF7009F0DAF8AFF62C501E233C229D
:1034F000AA2100904FF4967009F09BFFA848012183
:10350000C2699047102061490880A5486049086059
:1035100008BD38B5BA4847F2C5531E223C21009079
:10352000012008F099FA0446B64807F063F8B54B55
:103530002246AA214FF4967006F0E9FC38BD08B582
:10354000B1A008F0BAFCFFF7E4FF47F2C550AC2386
:103550004FF48C7232210090642009F016FD47F27E
:10356000C5514FF6FF7009F099F8574809F0B3F8C4
:1035700056A278213C2009F0BCFAB0A278215A204A
:1035800009F0B7FAB5A278216E2009F0B2FABAA212
:103590007821822009F0ADFA4FF6FF7009F08FF81C
:1035A0003C231E22AA214FF4967009F0EBFB47F250
:1035B000C5514FF6FF7009F071F8AFF6FC501E23AD
:1035C0003C22AA2100904FF4967009F032FF8D48FA
:1035D0000121C269904711202C49088089482C4953
:1035E000086008BD38B5A9484EF2E3031E223C210D
:1035F0000090012008F030FA0446A54806F0FAFFD2
:10360000A34B2246AA214FF4967006F080FC38BDE9
:1036100008B5A0A008F051FCFFF7E4FF4EF2E3006C
:10362000AC234FF48C7232210090642009F0ADFC81
:103630004EF2E3014FF6FF7009F030F8224809F02E
:103640004AF822A278213C2009F053FA7BA2782183
:103650005A2009F04EFA81A278216E2009F049FA29
:1036600085A27821822009F044FA4FF6FF7009F014
:1036700026F83C231E22AA214FF4967009F082FB03
:103680004EF2E30122E10000000A00203400002095
:1036900030000020510F0008A40A002053686F7703
:1036A0005F5761726E696E6750726F626543616CDD
:1036B0006962726174696F6E36325F373853637254
:1036C00065656E0D0A0000003401002050524F4223
:1036D000452043414C4942524154494F4E0000005D
:1036E00050726F62652063616E6E6F742062652038
:1036F00063616C696272617465210000596F7520A5
:103700006172652063616C6962726174696E6720C1
:103710006F757473696465207468650072616E67A3
:1037200065206F6620362E32202D20372E3821005E
:10373000610F0008480B002053686F775F57617274
:103740006E696E6750726F626543616C6962726127
:1037500074696F6E53637265656E0D0A0000000038
:10376000576520617265207265636F6D6D656E646B
:103770006564207265706C6163696E6700000000AB
:103780007468652070726F62652077697468206163
:10379000206E6577206F6E652E000000710F0008A7
:1037A000EC0B002053686F775F5761726E696E672C
:1037B00050726F626543616C6962726174696F6EA9
:1037C000373053637265656E0D0A000043616C69A2
:1037D00062726174696F6E207265636F6D6D656E84
:1037E00064656420627900007573696E6720627594
:1037F0006666657220704820372C302E000000006D
:10380000810F0008900C002053686F775F5761723A
:103810006E696E6750726F626543616C6962726156
:1038200074696F6E526571756972656456616C7505
:103830006553637265656E0D0A000000546865206B
:1038400063686C6F72696E6520636F6E74656E7409
:1038500020696E20706F6F6C0000000077617465E6
:1038600072206D757374206265206772656174657E
:1038700072207468616E00002272657175697265EC
:10388000642076616C7565222E000000910F00089F
:10389000340D002053686F775F5761726E696E67F1
:1038A00050726F626543616C6962726174696F6EB8
:1038B000526571756972656456616C7565526564AF
:1038C00053637265656E0D0A000000004FF6FF70CD
:1038D00008F0E4FEFEA01E233C22AA2100904FF433
:1038E000967009F0A6FDFB480121C269904712209D
:1038F000F9490880F748F949086008BD38B5F84823
:103900004EF2E3031E223C210090012008F0A4F8AF
:103910000446F44806F06EFEF24B2246AA214FF40C
:10392000967006F0F4FA38BD08B5EFA008F0C5FAB5
:10393000FFF7E4FF4EF2E300AC234FF48C72322128
:103940000090642009F021FB4EF2E3014FF6FF7076
:1039500008F0A4FEF34808F0BEFEAFF290227821F2
:103960003C2009F0C6F8F0A278215A2009F0C1F8ED
:10397000F4A278216E2009F0BCF8F9A27821822007
:1039800009F0B7F8F8A27821962009F0B2F84FF6BE
:10399000FF7008F094FE3C231E22AA214FF496707B
:1039A00009F0F0F94EF2E3014FF6FF7008F076FEF1
:1039B000C7A01E233C22AA2100904FF4967009F064
:1039C00038FDC8480121C26990471320C2490880C8
:1039D000C448C249086008BD38B5EA484EF2E3035E
:1039E0001E22C8210090012008F036F80446E6485F
:1039F00006F000FEE44B2246AA21A02006F087FA3A
:103A000038BD08B5E1A008F058FAFFF7E5FF4EF21F
:103A1000E300AC234FF48C7232210090642009F053
:103A2000B4FA4EF2E3014FF6FF7008F037FEBD48DE
:103A300008F051FEDEA278213C2009F05AF8E4A2F9
:103A400078215A2009F055F8E9A278216E2009F072
:103A500050F8EEA27821822009F04BF84FF6FF7063
:103A600008F02DFEC8231E22AA21A02009F08AF901
:103A70004EF2E3014FF6FF7008F010FEE6A01E23A1
:103A8000C822AA210090A02009F0D3FCBE48012141
:103A9000C2699047142090490880BB488F4908604C
:103AA00008BD2DE9F843E1484FF6FF731E22D221ED
:103AB0000090012007F0D0FF0446DD484FF6FF7369
:103AC0001E22D2210090022007F0C6FF0546D948E9
:103AD00005233C2264210090032007F0BDFF064629
:103AE000D54805233C2264210090042007F0B4FF50
:103AF0000746D24805233C22D2210090184607F001
:103B0000ABFF8046CE4801236422D22100900620DC
:103B100007F0A2FF8146CB4806F06CFDC94B224658
:103B2000F021FA2006F0F3F9C64B2A46F0211420C2
:103B300006F0EDF9C34B3246AA21142006F0E7F94E
:103B4000C04B3A46AA21822006F0E1F9BD4B42461D
:103B5000AA21FA2006F0DBF9BA4B4A463C21142090
:103B600006F0D5F9BDE8F88308B5B7A008F0A5F9C7
:103B7000FFF797FF002008F032FE4FF6FF701C237E
:103B80005A220C210090142009F0FFF9B84808F0DF
:103B9000A2FD4FF6FF71002008F080FDB54A142108
:103BA0000E2008F0A6FF00214FF6FF7008F076FD0A
:103BB000B14808F090FDB1A24FF49171142008F0C3
:103BC00098FF4FF668606423D2223C2100901420B5
:103BD00009F0DBF940F2FC406423D2223C21009042
:103BE000FA2009F0D2F94FF6686008F06EFD002067
:103BF00008F065FDA5A21E21462008F07AFF40F2DC
:103C0000FC4008F062FDA2A24FF48271462008F049
:103C100070FF002014233C228C21009040F24510BC
:103C200009F0B3F94FF6FF701E23D222F021009065
:103C3000142009F0AAF94FF6FF701E23D222F021BA
:103C40000090FA2009F0A1F940F2FC4008F037FD9D
:103C500064233C22AA21142009F094F864233C2216
:103C6000AA21822009F08EF8D2233C22AA21FA2030
:103C700009F088F87E4808F02EFD00214FF6FF700D
:103C800008F00CFD83A03C236422AA21009014209C
:103C900009F0CFFB80A03C236422AA21009082205F
:103CA00009F0C7FB744808F016FD09A03C23D22296
:103CB000AA210090FA2009F0BCFB4FF6FF7100200A
:103CC00008F0ECFC75481E23D222F0210090E7E0BA
:103CD0004F4B0000340D0020340000203000002045
:103CE000A10F0008D80D002053686F775F576172ED
:103CF0006E696E6750726F626543616C6962726172
:103D000074696F6E526571756972656456616C7520
:103D100065496D706F737369626C65536372656535
:103D20006E0D0A003401002043616C696272617497
:103D3000696F6E20697320696D706F737369626C4F
:103D40006521000050726F62652073656E7369743F
:103D5000697669747920746F6F206C6F772E00001C
:103D60004368616E67653A00656C656374726F6C79
:103D70007974652F6D656D6272616E652F70726FFB
:103D800062652E00B10F00087C0E002053686F772B
:103D90005F5761726E696E67546F6F5261706964CC
:103DA0004368616E676553637265656E0D0A000056
:103DB000546F6F207261706964206368616E67651B
:103DC000206F662070482076616C75652E000000BB
:103DD00042414348204B484F412073746F7020721A
:103DE0006567756C6174696F6E73206F66000000A3
:103DF000704820666F72203220686F75727320667B
:103E00006F7220736166657479000000726561737A
:103E10006F6E732E0000000043414E43454C20520C
:103E200045535452494354494F4E53001111000811
:103E30002111000831110008331100083511000864
:103E400037110008200F002053686F775F506172B0
:103E5000616D6574657273526571756972655661DD
:103E60006C7565704853637265656E0D0A000000DD
:103E70000C010020F418000814010020524551558F
:103E8000495245442056414C55455300434C460049
:103E9000704800002B0000002D000000201E0008CC
:103EA000FA2009F0C6FAFE481E23D222F021009023
:103EB000142009F0BEFA4FF6FF71002008F0EEFB67
:103EC000F8480121C26990471520F7490880F54854
:103ED000F649086008BD2DE9F843F5484FF6FF7331
:103EE0001E22D2210090012007F0B6FD0446F148C1
:103EF0004FF6FF731E22D2210090022007F0ACFD86
:103F00000546ED4804233C2264210090032007F07D
:103F1000A3FD0646E94804233C226421009018468C
:103F200007F09AFD0746E64804233C22D221009080
:103F3000052007F091FD8046E24801236422D2214A
:103F40000090062007F088FD8146DF4806F052FB0E
:103F5000DD4B2246F021FA2005F0D9FFDA4B2A4644
:103F6000F021142005F0D3FFD74B3246AA211420AC
:103F700005F0CDFFD44B3A46AA21822005F0C7FFB9
:103F8000D14B4246AA21FA2005F0C1FFCE4B4A464A
:103F90003C21FA2005F0BBFFBDE8F88308B5CBA0B3
:103FA00007F08BFFFFF797FF002008F018FC4FF693
:103FB000FF701C235A220C210090142008F0E5FF0A
:103FC000CC4808F088FB4FF6FF71002008F066FB34
:103FD000B34AC03A14210E2008F08BFD00214FF6A1
:103FE000FF7008F05BFBC44808F075FBAFF2741279
:103FF0004FF49171142008F07CFD4FF66860642343
:10400000D2223C210090142008F0BFFF40F2FC4077
:104010006423D2223C210090FA2008F0B6FF4FF62C
:10402000686008F052FB002008F049FBAFF2A412D0
:104030001E21462008F05DFD002014233C228C2127
:1040400000905F2008F0A1FF40F2FC4008F03DFB2B
:10405000AFF2C4124FF48271462008F04AFD4FF6C9
:10406000FF701E23D222F0210090142008F08DFF53
:104070004FF6FF701E23D222F0210090FA2008F0A4
:1040800084FF4FF6686008F01AFB64233C22AA21E3
:10409000142008F077FE64233C22AA21822008F035
:1040A00071FED2233C22AA21FA2008F06BFE91482F
:1040B00008F011FB00214FF6FF7008F0EFFAAFF2A5
:1040C0002C203C236422AA210090142009F0B1F98D
:1040D000AFF23C203C236422AA210090822009F008
:1040E000A8F9854808F0F7FAAFF21C403C23D22229
:1040F000AA210090FA2009F09CF94FF6FF710020E8
:1041000008F0CCFA7D481E23D222F0210090FA203C
:1041100009F08FF962481E23D222F021009014206A
:1041200009F087F94FF6FF71002008F0B7FA6648EA
:104130000121C269904716205B49088062485B49AB
:10414000086008BD2DE9F8436D484FF6FF731E2245
:10415000D2210090012007F07FFC044669484FF609
:10416000FF731E22D2210090022007F075FC054645
:10417000654801235022D2210090032007F06CFCF7
:104180000646624801235022D2210090042007F005
:1041900063FC07465E4800235022D2210090052090
:1041A00007F05AFC80465B4800235022D221009041
:1041B000062007F051FC8146574806F01BFA564B83
:1041C0002246F021FA2005F0A2FE534B2A46F021A8
:1041D000142005F09CFE504B32463C21142005F083
:1041E00096FE4D4B3A463C21FA2005F090FE4A4B94
:1041F00042469621142005F08AFE474B4A469621F6
:10420000FA2005F084FEBDE8F88308B543A007F066
:1042100054FEFFF797FF002008F0E1FA4FF6FF7019
:104220001C235A220C210090142008F0AEFE3148C5
:1042300008F051FA4FF6FF71002008F02FFA184AE3
:10424000C03A14210E2008F054FC00214FF6FF70F4
:1042500008F024FA284808F03EFA114A343A40F2AD
:104260005911142008F045FC4FF668605023D22203
:104270003C210090142008F088FE40F2FC405023BE
:10428000D2223C210090FA2008F07FFED223502257
:104290009621142008F076FDD223502296214BE07F
:1042A000B4190008200F0020340000203000002046
:1042B000471100085711000867110008691100082C
:1042C0006B1100086D110008C40F002053686F7750
:1042D0005F506172616D6574657273526571756965
:1042E000726556616C7565434C4653637265656EC5
:1042F0000D0A00000C01002014010020201E0008FF
:104300007D1100088D1100089D110008B9110008E9
:10431000D5110008E511000868100020437265619E
:1043200074655F43616C6962726174696F6E536337
:104330007265656E0D0A0000FA2008F023FD4FF645
:10434000FF701E23D222F0210090142008F01DFEE1
:104350004FF6FF701E23D222F0210090FA2008F0C1
:1043600014FEFC4808F0B7F94FF66861002008F029
:1043700095F9F9A03223D2223C210090142009F0B3
:1043800058F8F8483223D22255210090142009F021
:1043900050F840F2FC41002008F080F9F2A03223EE
:1043A000D2223C210090FA2009F043F8ED48322354
:1043B000D22255210090FA2009F03BF800214FF657
:1043C000FF7008F06BF9EB483223D222962100905F
:1043D000142009F02EF8E8A03223D222AF21009059
:1043E000142009F026F8E7A03223D222962100906B
:1043F000FA2009F01EF8E0A03223D222AF2100906B
:10440000FA2009F016F84FF6FF71002008F046F97F
:10441000DD481E23D222F0210090FA2009F009F88D
:10442000D04834301E23D222F0210090142009F00D
:1044300000F8D6480121C26990471720D449088066
:10444000D248D449086008BD2DE9F843D2484FF658
:10445000FF731E22D2210090012007F0FDFA0446CE
:10446000CE484FF6FF731E22D2210090022007F0A3
:10447000F3FA0546CA4805233C2264210090032034
:1044800007F0EAFA0646C74805233C22642100905B
:10449000042007F0E1FA0746C34805233C22D22155
:1044A0000090184607F0D8FA8046C04806F0A2F8F7
:1044B000BE4B2246F021FA2005F029FDBB4B2A46CF
:1044C000F021142005F023FDB84B3246AA21142018
:1044D00005F01DFDB54B3A46AA21822005F017FDD7
:1044E000B24B4246AA21FA2005F011FDBDE8F8833F
:1044F00008B5AFA007F0E1FCFFF7A6FF002008F029
:104500006EF94FF6FF701C235A220C2100901420E4
:1045100008F03BFDAE4808F0DEF84FF6FF710020D2
:1045200008F0BCF88F4A8C3A14210E2008F0E1FA0A
:1045300000214FF6FF7008F0B1F8864808F0CBF87C
:10454000A4A2E621142008F0D4FA40F2FC4064232F
:10455000D2223C210090FA2008F017FD00214FF6EE
:10456000FF7008F09BF8A14808F0B5F8A0A21E2142
:10457000462008F0BEFAAFF6A0521E215A2008F0DD
:10458000B8FAAFF69C521E216E2008F0B2FA40F243
:10459000FC4008F09AF8002008F091F86D4808F007
:1045A0009AF8AFF214724FF48271462008F0A1FA23
:1045B000002014233C228C21009040F2451008F08A
:1045C000E4FC4FF6FF701E23D222F021009014204D
:1045D00008F0DBFC4FF6FF701E23D222F021009082
:1045E000FA2008F0D2FC40F2FC4008F068F864239E
:1045F0003C22AA21142008F0C5FB64233C22AA21F6
:10460000822008F0BFFBD2233C22AA21FA2008F026
:10461000B9FB6F4808F05FF800214FF6FF7008F013
:104620003DF8AFF290703C236422AA210090142040
:1046300008F0FFFEAFF2A0703C236422AA21009094
:10464000822008F0F6FE434808F045F8AFF68010E7
:104650003C23D222AA210090FA2008F0EAFE4FF66D
:10466000FF71002008F01AF847481E23D222F021DB
:104670000090FA2008F0DDFE3A4834301E23D222A2
:10468000F0210090142008F0D4FE4FF6FF710020B6
:1046900008F004F845480121C269904718203C49B8
:1046A000088042483B49086008BD2DE9F84353485B
:1046B0004FF6FF731E22D2210090012007F0CCF9A3
:1046C00004464F484FF6FF731E22D221009002206D
:1046D00007F0C2F905464B4804233C2264210090B0
:1046E000032007F0B9F90646474804233C22642119
:1046F0000090184607F0B0F90746444804233C22CE
:10470000D2210090052007F0A7F98046404805F027
:1047100071FF3F4B2246F021FA2005F0F8FB3C4B9D
:104720002A46F021142005F0F2FB394B3246AA212B
:10473000142005F0ECFB364B3A46AA21822005F006
:10474000E6FB334B4246AA21FA2005F0E0FBBDE828
:10475000F883000014010020434C462050524F4281
:10476000450000008019000870482050524F424513
:104770000000000038270008544845524D4F4D4571
:104780005445520041495200201E00086810002084
:104790003400002030000020F51100080512000848
:1047A0001512000845120008751200080C110020AF
:1047B00053686F775F43616C6962726174696F6E91
:1047C000704850726F626553637265656E0D0A00C2
:1047D0000C01002070482043414C49425241544949
:1047E0004F4E2050524F424500000000340100203F
:1047F00043616C6962726174696F6E0077120008C0
:104800008712000897120008C7120008F712000864
:10481000B011002008B5FEA007F04FFBFFF745FFE1
:10482000002007F0DCFF4FF6FF701C235A220C21FA
:104830000090142008F0A9FBFE4807F04CFF4FF64B
:10484000FF71002007F02AFFFB4A14210E2008F018
:1048500050F900214FF6FF7007F020FFF74807F0EE
:104860003AFFF7A2D721142008F043F94FF6686009
:104870006423D2223C210090FA2008F086FB00211C
:104880004FF6FF7007F00AFFF34807F024FFF3A28A
:104890001E21462008F02DF9F6A21E215A2008F00C
:1048A00028F9FBA21E216E2008F023F94FF668605C
:1048B00007F00BFF002007F002FFAFF630224FF4A5
:1048C0008271462008F015F9002014233C228C2127
:1048D000009040F2451008F058FB4FF6FF701E2381
:1048E000D222F0210090142008F04FFB4FF6FF7009
:1048F0001E23D222F0210090FA2008F046FB4FF64A
:10490000686007F0DCFE64233C22AA21142008F032
:1049100039FA64233C22AA21822008F033FAD223F8
:104920003C22AA21FA2008F02DFAC24807F0D3FE53
:1049300000214FF6FF7007F0B1FEAFF6A8203C2330
:104940006422AA210090142008F073FDAFF6B8206D
:104950003C236422AA210090822008F06AFDB74817
:1049600007F0B9FEAFF698403C23D222AA2100906E
:10497000FA2008F05EFD4FF6FF71002007F08EFE72
:10498000C9481E23D222F0210090FA2008F051FDE0
:10499000A948C0301E23D222F0210090142008F034
:1049A00048FD4FF6FF71002007F078FEBF48012157
:1049B000C26990471920BE490880BC48BD490860BB
:1049C00008BD2DE9F843BC484FF6FF731E22D221E3
:1049D0000090012007F040F80446B8484FF6FF73F6
:1049E0001E22D2210090022007F036F80546B44876
:1049F00004233C2264210090032007F02DF8064692
:104A0000B04804233C2264210090184607F024F8A3
:104A10000746AD4804233C22D2210090052007F030
:104A20001BF88046A94801236422D2210090062069
:104A300007F012F88146A64805F0DCFDA44B22469B
:104A4000F021FA2005F063FAA14B2A46F021142048
:104A500005F05DFA9E4B3246AA21142005F057FA64
:104A60009B4B3A46AA21822005F051FA984B4246C8
:104A7000AA21FA2005F04BFA954B4A463C21FA2030
:104A800005F045FABDE8F88308B592A007F015FADD
:104A9000FFF797FF002007F0A2FE4FF6FF701C23E0
:104AA0005A220C210090142008F06FFA614807F098
:104AB00012FE4FF6FF71002007F0F0FD5E4A142150
:104AC0000E2008F016F800214FF6FF7007F0E6FD03
:104AD0005A4807F000FEAFF65C424FF49171142083
:104AE00008F007F84FF668606423D2223C2100905A
:104AF000142008F04AFA40F2FC406423D2223C2100
:104B00000090FA2008F041FA4FF6686007F0DDFDEA
:104B1000002007F0D4FD7CA21E21462007F0E9FF0B
:104B2000002014233C228C2100905F2008F02DFAF5
:104B300040F2FC4007F0C9FDAFF6AC424FF4827181
:104B4000462007F0D6FF4FF6FF701E23D222F02139
:104B50000090142008F019FA4FF6FF701E23D2229D
:104B6000F0210090FA2008F010FA4FF6686007F084
:104B7000A6FD64233C22AA21142008F003F9642333
:104B80003C22AA21822008F0FDF8D2233C22AA214F
:104B9000FA2008F0F7F8274807F09DFD00214FF6AE
:104BA000FF7007F07BFDAFF614503C236422AA216E
:104BB0000090142008F03DFCAFF624503C23642202
:104BC000AA210090822008F034FC1C4807F083FDE5
:104BD000AFF604703C23D222AA210090FA2008F0FC
:104BE00028FC4FF6FF71002007F058FD2E481E23C9
:104BF000D222F0210090FA2008F01BFC0E48C030B1
:104C00001E23D222F0210090142008F012FC7FE035
:104C100053686F775F43616C6962726174696F6E2C
:104C2000434C4650726F626553637265656E0D0A40
:104C3000000000000C010020F418000814010020FE
:104C4000434C462043414C4942524154494F4E2027
:104C500050524F4245000000340100205468652046
:104C600063686C6F72696E6520636F6E74656E74D5
:104C700020696E00706F6F6C207761746572206DB3
:104C800075737420626520677265617465720000D7
:104C90007468616E20227265717569726564207630
:104CA000616C7565222E0000201E0008B0110020E6
:104CB0003400002030000020F91200080913000819
:104CC000191300081B1300081D1300081F13000808
:104CD0005412002053686F775F506172616D657484
:104CE0006572735265717569726556616C7565524E
:104CF00065646F7870485F526F646578536372655E
:104D0000656E0D0A000000005245444F5800000037
:104D10004FF6FF71002007F0C1FCFE480121C26977
:104D200090471A20FC490880FA48FC49086008BDF1
:104D30002DE9F843FA484FF6FF731E22D221009066
:104D4000012006F089FE0446F6484FF6FF731E2246
:104D5000D2210090022006F07FFE0546F24805238E
:104D60003C2264210090032006F076FE0646EF48C0
:104D700005233C2264210090042006F06DFE0746C6
:104D8000EB4805233C22D2210090184606F064FE31
:104D90008046E84801236422D2210090062006F0D4
:104DA0005BFE8146E44805F025FCE34B2246F021FA
:104DB000FA2005F0ACF8E04B2A46F021142005F06B
:104DC000A6F8DD4B3246AA21142005F0A0F8DA4BF4
:104DD0003A46AA21822005F09AF8D74B4246AA21EA
:104DE000FA2005F094F8D44B4A463C21142005F0F3
:104DF0008EF8BDE8F88308B5D0A007F05EF8FFF79D
:104E000097FF002007F0EBFC4FF6FF701C235A229F
:104E10000C210090142008F0B8F8D44807F05BFC8F
:104E20004FF6FF71002007F039FCD14A14210E2003
:104E300007F05FFE00214FF6FF7007F02FFCCD4812
:104E400007F049FCAFF6CC724FF49171142007F0D3
:104E500050FE4FF668606423D2223C21009014205B
:104E600008F093F840F2FC406423D2223C210090E9
:104E7000FA2008F08AF84FF6686007F026FC002058
:104E800007F01DFCAFF280121E21462007F031FE14
:104E900040F2FC4007F019FCB7A24FF482714620A3
:104EA00007F027FE002014233C228C21009040F2C2
:104EB000451008F06AF84FF6FF701E23D222F02149
:104EC0000090142008F061F84FF6FF701E23D222E4
:104ED000F0210090FA2008F058F840F2FC4007F06A
:104EE000EEFB64233C22AA21142007F04BFF64232D
:104EF0003C22AA21822007F045FFD2233C22AA218E
:104F0000FA2007F03FFF994807F0E5FB00214FF634
:104F1000FF7007F0C3FB99A03C236422AA210090F4
:104F2000142008F086FA96A03C236422AA2100905F
:104F3000822008F07EFA8F4807F0CDFB91A03C2339
:104F4000D222AA210090FA2008F073FA4FF6FF71DE
:104F5000002007F0A3FB8C481E23D222F0210090F2
:104F6000FA2008F066FA8248C0301E23D222F021CF
:104F70000090142008F05DFA4FF6FF71002007F052
:104F80008DFB6D480121C26990471B206249088052
:104F900069486249086008BD2DE9F8437B484FF62F
:104FA000FF731E22D2210090012006F055FD044619
:104FB00077484FF6FF731E22D2210090022006F0A0
:104FC0004BFD0546734804233C22642100900320D6
:104FD00006F042FD0646704804233C2264210090FE
:104FE000184606F039FD07466C4804233C22D221BE
:104FF0000090052006F030FD8046694801236422B8
:10500000D2210090062006F027FD8146654805F074
:10501000F1FA644B2246F021FA2004F078FF614B4C
:105020002A46F021142004F072FF5E4B3246AA217A
:10503000142004F06CFF5B4B3A46AA21822004F056
:1050400066FF584B4246AA21FA2004F060FF554BF8
:105050004A463C21FA2004F05AFFBDE8F88308B51F
:1050600051A006F02AFFFFF797FF002007F0B7FBDB
:105070004FF6FF701C235A220C210090142007F0D9
:1050800084FF3A4807F027FB4FF6FF71002007F036
:1050900005FB374A14210E2007F02BFD00214FF6A7
:1050A000FF7007F0FBFA334807F015FB4B4A4FF44B
:1050B0009171142007F01DFD4FF668606423D22221
:1050C0003C210090142007F060FF40F2FC40642374
:1050D000D2223C210090FA2007F057FF4FF668607B
:1050E00007F0F3FA002007F0EAFA3DA21E2146205D
:1050F00007F0FFFC3CA27821462007F0FAFC0020D4
:1051000014233C228C2100905F2007F03EFF40F2E8
:10511000FC406FE0541200203400002030000020DA
:105120002F1300083F1300084F1300085113000805
:105130005313000855130008F812002053686F77C6
:105140005F506172616D65746572735265717569E6
:10515000726556616C75655265646F7870485F70F2
:105160004853637265656E0D0A0000000C01002053
:10517000F418000814010020704800002B00000003
:105180002D0000004F4B0000201E00086513000892
:105190007513000885130008871300088913000899
:1051A0008B1300089C13002053686F775F50617267
:1051B000616D65746572735265717569726556616A
:1051C0006C7565446F736570485F446F7365486FB5
:1051D000757253637265656E0D0A00007C3E0008AF
:1051E000444F5345000000006D6C2F6D33686F75A0
:1051F0007200000007F069FAAFF284024FF4827186
:10520000462007F076FC4FF6FF701E23D222F021D5
:105210000090142007F0B9FE4FF6FF701E23D22233
:10522000F0210090FA2007F0B0FE4FF6686007F01A
:1052300046FA64233C22AA21142007F0A3FD64232C
:105240003C22AA21822007F09DFDD2233C22AA21E4
:10525000FA2007F097FDFE4807F03DFA00214FF6CF
:10526000FF7007F01BFAAFF2EC003C236422AA2186
:105270000090142008F0DDF8AFF2FC003C2364221B
:10528000AA210090822008F0D4F8F24807F023FA0F
:10529000AFF210103C23D222AA210090FA2008F08D
:1052A000C8F84FF6FF71002007F0F8F9EA481E230E
:1052B000D222F0210090FA2008F0BBF8E7481E2324
:1052C000D222F0210090142008F0B3F84FF6FF71BD
:1052D000002007F0E3F9E2480121C26990471C2051
:1052E000E0490880DE48E049086008BD2DE9F84340
:1052F000DE484FF6FF731E22D2210090012006F0F7
:10530000ABFB0446DA484FF6FF731E22D221009011
:10531000022006F0A1FB0546D64805233C22642165
:105320000090032006F098FB0646D34805233C2254
:1053300064210090042006F08FFB0746CF48052328
:105340003C22D2210090184606F086FB8046CC48CD
:1053500001236422D2210090062006F07DFB8146C5
:10536000C84805F047F9C74B2246F021FA2004F05F
:10537000CEFDC44B2A46F021142004F0C8FDC14BD9
:105380003246AA21142004F0C2FDBE4B3A46AA219F
:10539000822004F0BCFDBB4B4246AA21FA2004F057
:1053A000B6FDB84B4A463C21142004F0B0FDBDE8E0
:1053B000F88308B5B4A006F080FDFFF797FF002042
:1053C00007F00DFA4FF6FF701C235A220C210090B3
:1053D000142007F0DAFD9E4807F07DF94FF6FF71C3
:1053E000002007F05BF99D4AC03A14210E2007F017
:1053F00080FB00214FF6FF7007F050F9954807F049
:105400006AF9AF4A4FF49171142007F072FB4FF61E
:1054100068606423D2223C210090142007F0B5FD7F
:1054200040F2FC406423D2223C210090FA2007F095
:10543000ACFD4FF6686007F048F9002007F03FF92F
:10544000AFF264221E21462007F053FBAFF2682220
:105450007821462007F04DFB40F2FC4007F035F97B
:10546000AFF2EC224FF48271462007F042FB00209D
:1054700014233C228C21009040F2451007F085FD5A
:105480004FF6FF701E23D222F0210090142007F067
:105490007CFD4FF6FF701E23D222F0210090FA20EF
:1054A00007F073FD40F2FC4007F009F964233C2249
:1054B000AA21142007F066FC64233C22AA21822042
:1054C00007F060FCD2233C22AA21FA2007F05AFC04
:1054D0005F4807F000F900214FF6FF7007F0DEF893
:1054E000AFF268303C236422AA210090142007F018
:1054F000A0FFAFF274303C236422AA2100908220E6
:1055000007F097FF534807F0E6F8AFF288303C23E6
:10551000D222AA210090FA2007F08BFF4FF6FF71EC
:10552000002007F0BBF84C481E23D222F021009047
:10553000FA2007F07EFF49481E23D222F021009076
:10554000142007F076FF4FF6FF71002007F0A6F851
:105550004C480121C26990471D20424908804948B2
:105560004149086008BD2DE9F84356484FF6FF73DE
:105570001E22D2210090012006F06EFA0446524805
:105580004FF6FF731E22D2210090022006F064FA2B
:1055900005464E4808233C2264210090032006F073
:1055A0005BFA06464A4808233C2264210090042006
:1055B00006F052FA0746474808233C22D2210090C1
:1055C000052006F049FA8046434801236422D2218F
:1055D0000090062006F040FA8146404805F00AF89F
:1055E0003E4B2246F021FA2004F091FC3B4B2A4628
:1055F000F021142004F08BFC384B3246AA211420F1
:1056000004F085FC354B3A46AA21822004F07FFC49
:10561000324B4246AA21FA2004F079FC2F4B4A462D
:105620003C21FA2004F073FCBDE8F88308B52CA0F7
:1056300006F043FCFFF797FF002007F0D0F84FF685
:10564000FF701C235A220C210090142062E00000FD
:105650000C01002014010020201E0008B4190008CD
:105660009C13002034000020300000209B13000811
:10567000AB130008BB130008BD130008BF130008DC
:10568000C11300084014002053686F775F506172A7
:10569000616D657465727352657175697265566185
:1056A0006C7565446F736570485F446F7365486FD0
:1056B00075725F704853637265656E0D0A00000075
:1056C0007C3E0008D1130008E1130008F113000824
:1056D000F3130008F5130008F7130008E414002082
:1056E00053686F775F506172616D65746572735254
:1056F00065717569726556616C7565446F73657027
:10570000485F446F736544617953637265656E0DDC
:105710000A00000007F039FCFE4806F0DCFF4FF6F7
:10572000FF71002006F0BAFFFB4A14210E2007F09B
:10573000E0F900214FF6FF7006F0B0FFF74806F0E1
:10574000CAFFF74A4FF49171142007F0D2F945F2DD
:10575000AA206423D2223C210090142007F015FCDB
:1057600040F2FC406423D2223C210090FA2007F052
:105770000CFC45F2AA2006F0A8FF002006F09FFFCF
:10578000AFF2A4521E21462007F0B3F9E5A2822110
:10579000462007F0AEF9002014233C228C21009013
:1057A0005F2007F0F2FB40F2FC4006F08EFFAFF204
:1057B00038624FF48271462007F09BF94FF6FF7074
:1057C0001E23D222F0210090142007F0DEFB4FF6BA
:1057D000FF701E23D222F0210090FA2007F0D5FBA3
:1057E00045F2AA2006F06BFF64233C22AA21142074
:1057F00007F0C8FA64233C22AA21822007F0C2FAEB
:10580000D2233C22AA21FA2007F0BCFAC14806F0B4
:1058100062FF00214FF6FF7006F040FFAFF2A46078
:105820003C236422AA210090142007F002FEAFF26C
:10583000B0603C236422AA210090822007F0F9FD89
:10584000B64806F048FFAFF2C4603C23D222AA213A
:105850000090FA2007F0EDFD4FF6FF71002006F0F2
:105860001DFFB3481E23D222F0210090FA2007F03A
:10587000E0FDA948C0301E23D222F0210090142060
:1058800007F0D7FD4FF6FF71002006F007FFA9488B
:105890000121C26990471E20A7490880A548A74951
:1058A000086008BD2DE9F843A5484FF6FF731E2296
:1058B000D2210090012006F0CFF80446A1484FF60F
:1058C000FF731E22D2210090022006F0C5F8054683
:1058D0009D4805233C2264210090032006F0BCF87B
:1058E00006469A4805233C2264210090042006F0D5
:1058F000B3F80746964805233C22D221009018466B
:1059000006F0AAF88046934801236422D221009031
:10591000062006F0A1F881468F4804F06BFE8E4BFE
:105920002246F021FA2004F0F2FA8B4B2A46F021AD
:10593000142004F0ECFA884B3246AA21142004F01B
:10594000E6FA854B3A46AA21822004F0E0FA824B1F
:105950004246AA21FA2004F0DAFA7F4B4A463C215B
:10596000142004F0D4FABDE8F88308B57BA006F053
:10597000A4FAFFF797FF002006F031FF4FF6FF7003
:105980001C235A220C210090142007F0FEFA6148D3
:1059900006F0A1FE4FF6FF71002006F07FFE5E4A82
:1059A00014210E2007F0A5F800214FF6FF7006F035
:1059B00075FE5A4806F08FFE594A4FF49171142033
:1059C00007F097F845F2AA206423D2223C210090E8
:1059D000142007F0DAFA40F2FC406423D2223C2182
:1059E0000090FA2007F0D1FA45F2AA2006F06DFEE9
:1059F000002006F064FEAFF618021E21462007F0D4
:105A000078F848A28221462007F073F840F2FC4063
:105A100006F05BFEAFF6A0024FF48271462007F05D
:105A200068F8002014233C228C21009040F245109D
:105A300007F0ABFA4FF6FF701E23D222F021009040
:105A4000142007F0A2FA4FF6FF701E23D222F02195
:105A50000090FA2007F099FA40F2FC4006F02FFE81
:105A600064233C22AA21142007F08CF964233C22F1
:105A7000AA21822007F086F9D2233C22AA21FA200B
:105A800007F080F9234806F026FE00214FF6FF704C
:105A900006F004FEAFF61C103C236422AA210090FD
:105AA000142007F0C6FCAFF628103C236422AA217C
:105AB0000090822007F0BDFC184806F00CFEAFF6FF
:105AC0003C103C23D222AA210090FA2007F0B1FC1E
:105AD0004FF6FF71002006F0E1FD15481E23D2228B
