:020000040800F2
:1000000008B00020F95E0108050600080706000890
:100010000B0600080F060008130600080000000089
:100020000000000000000000000000009D02000829
:100030001706000800000000F1020008095D010831
:10004000135F0108135F0108135F0108135F0108C4
:10005000135F0108135F0108135F0108135F0108B4
:10006000135F0108135F0108135F0108135F0108A4
:10007000135F0108135F0108135F0108135F010894
:10008000135F0108135F0108135F0108135F010884
:10009000135F0108135F0108135F0108135F010874
:1000A000135F0108135F0108135F0108135F010864
:1000B0005B0600085D0600085F060008135F010884
:1000C000135F0108135F0108135F0108135F010844
:1000D000135F0108135F0108135F0108135F010834
:1000E000135F0108135F0108135F0108135F010824
:1000F000135F0108135F0108135F0108135F010814
:10010000135F0108135F0108135F0108135F010803
:10011000135F0108135F0108135F0108135F0108F3
:10012000135F0108135F0108135F0108135F0108E3
:10013000135F010819060008135F0108135F010827
:10014000135F0108135F0108135F0108135F0108C3
:10015000135F0108135F0108135F0108135F0108B3
:10016000135F0108135F0108135F0108135F0108A3
:10017000135F0108135F0108135F0108135F010893
:10018000135F0108135F010800F002F800F076F831
:100190000AA090E8000C82448344AAF10107DA45E2
:1001A00001D100F06BF8AFF2090EBAE80F0013F0BE
:1001B000010F18BFFB1A43F001031847348B0300EB
:1001C000548B03000A444FF0000C10F8013B13F06D
:1001D000070408BF10F8014B1D1108BF10F8015BA0
:1001E000641E05D010F8016B641E01F8016BF9D193
:1001F00013F0080F1EBF10F8014BAD1C0C1B09D1EA
:100200006D1E58BF01F801CBFAD505E014F8016B5B
:1002100001F8016B6D1EF9D59142D6D370470000ED
:100220000023002400250026103A28BF78C1FBD8FF
:10023000520728BF30C148BF0B607047662917F0CE
:100240009287642915F03287752915F02F87632965
:1002500016F01784002070471FB517F07AFF9DE84D
:10026000030016F04BF916F04FFC040000200021AB
:1002700017F0BCF9E0601FBD10B510BD16F05EFDB3
:100280001146FFF7E9FF00F07DF816F07CFD03B49E
:10029000FFF7F2FF03BC16F0A9FD00002A4B196816
:1002A0000868B0E8F04F80F30988BFF36F8F4FF014
:1002B000000080F3118870470000000006480068C5
:1002C000006880F3088862B661B6BFF34F8FBFF352
:1002D0006F8F00DF00BF00BF08ED00E0DFF80C000B
:1002E000016841F470010160704700BF88ED00E0D3
:1002F000EFF30980BFF36F8F134B1A681EF0100FD6
:1003000008BF20ED108A20E9F04F106008B44FF0CC
:10031000500080F31188BFF34F8FBFF36F8F14F03D
:10032000E4FB4FF0000080F3118808BC19680868EE
:10033000B0E8F04F1EF0100F08BFB0EC108A80F349
:100340000988BFF36F8F704718020020EFF3058014
:100350007047000000BF0EF05CFA0CF020FA0CF0C1
:1003600053FB00F0A1FCF6E710B500200FF0CCFE27
:1003700001200FF0C9FE02200FF0C6FE03200FF08F
:10038000C3FE10BD1CB54FF4E13117480CF040FC22
:10039000FFF7EAFF0DF064F80EF08DF80FF050FE55
:1003A00000F073F901F081FE0020012103464FF4B3
:1003B0002062CDE900100DA1AFF2670014F05FF8E4
:1003C00014F05DFD00BFFEE700BF502080F31188F0
:1003D000BFF34F8FBFF36F8F00BF00BFFEE77047C3
:1003E00010B50CF02EFB10BD001001404D7954618A
:1003F000736B00000CB500200190009076480068F7
:1004000040F480307449086000BF7348006800F40D
:10041000003000900198401C0190009818B9019894
:10042000B0F5A06FF1D16C48006800F4003010B155
:100430000120009001E0002000900098012846D1A2
:1004400065484030006840F08050634940310860A2
:100450006248006840F48040604908605E480830A7
:1004600000685D49083108600846006840F40040B3
:1004700008600846006840F4A05008605848091F0A
:100480000860081F006840F08070091F086000BF06
:100490005148006800F000700028F9D040F20520B3
:1004A000504908604C480830006820F003004A4971
:1004B000083108600846006840F00200086000BF8C
:1004C00045480830006800F00C000828F8D10CBD41
:1004D00010B54548006840F47000434908603E4844
:1004E000006840F001003C49086000203A490831AA
:1004F0000860394800683D490840374908603C4871
:10050000091D0860081F006820F48020091F08608A
:10051000002031490C310860FFF76CFF4FF000609C
:1005200031498039086010BD70B5002000220223D7
:1005300000240221284D08352D6805F00C0020B15B
:10054000042806D0082834D107E02A4D2A4E356009
:1005500033E02A4D284E35602FE01F4D2D1D2D68AC
:10056000C5F380541C4D2D1D2D6805F03F0154B17D
:10057000224DB5FBF1F5184E361D3668C6F38816C8
:1005800005FB06F209E01B4DB5FBF1F5124E361DD9
:100590003668C6F3881605FB06F20F4D2D1D2D6833
:1005A000C5F301456D1C6B00B2FBF3F5124E3560CF
:1005B00003E0104D104E356000BF00BF064D0835FA
:1005C0002D68C5F303150E4E705D0B4D2D68C540AB
:1005D000094E356070BD00000038024000700040D8
:1005E00019544007003C024088ED00E0FFFFF6FE92
:1005F000103000240024F4000000002040787D0129
:1006000004000020704700BFFEE700BFFEE700BF08
:10061000FEE700BFFEE7704708B5002000904020CD
:1006200012F0C7FE012804D169460D48006813F096
:1006300068FC402012F0E1FE4FF4803012F0DDFE45
:10064000009848B1009838B14FF0805005490860D3
:10065000BFF34F8FBFF36F8F08BD70477047704770
:100660001002002004ED00E0014600200A6890B26C
:1006700070470146002008687047014600200A685C
:1006800090B20A2800DD0020704700B5B848FFF797
:10069000F4FFB8490870B6485C38FFF7EEFFB6497A
:1006A0000870B3485A38FFF7E8FFB4490870B048FB
:1006B0005638FFF7E2FFB2490870AD485838FFF7E7
:1006C000DCFFB0490870AA480E38FFF7CDFFAE49ED
:1006D0000870A7480C38FFF7C7FFAC490870A4485A
:1006E0005438FFF7C1FFAA490880A1485238FFF7E4
:1006F000BBFFA84908809E481038FFF7B5FFA64900
:1007000008809B485038FFF7B4FFA44908600846AA
:1007100090ED000AA24880ED000A95484038FFF7A6
:10072000A8FF9E490860084690ED000A9D4880EDAC
:10073000000A8F483038FFF79CFF98490860084648
:1007400090ED000A984880ED000A89482038FFF7AC
:1007500090FF92490860084690ED000A934880EDAA
:10076000000A83486038FFF77FFF9149088080487E
:100770005E38FFF779FF8F490880834800788E49FB
:100780000870824800788D490870894800888C4933
:100790000880884800888B4908807D4800888A49FD
:1007A00008807C480088894908807B4800888849FF
:1007B00008807B4890ED000A864880ED000A794861
:1007C00090ED000A844880ED000A774890ED000A19
:1007D000824880ED000A754890ED000A804880ED5F
:1007E000000A00BD10B511F017FEF32012F02DF82D
:1007F0000221402011F05CFE082801D0012010BD2C
:100800006B4801885A48603811F024FF082801D04D
:100810000120F4E76748018855485E3811F01AFF57
:10082000082801D00120EAE75348017850485C3895
:1008300011F010FF082801D00120E0E74F480178AF
:100840004B485A3811F006FF082801D00120D6E79E
:100850004C4801784648583811F0FCFE082801D071
:100860000120CCE7464801784148563811F0F2FEA5
:10087000082801D00120C2E7454801883C48543887
:1008800011F0E8FE082801D00120B8E741480188AE
:100890003748523811F0DEFE082801D00120AEE7BB
:1008A0003F4890ED000A3D4880ED000A016830485D
:1008B000503811F0A6FE082801D001209FE73948E2
:1008C00090ED000A354880ED000A0168284840385C
:1008D00011F097FE082801D0012090E7324890EDF2
:1008E000000A2E4880ED000A01682148303811F0D6
:1008F00088FE082801D0012081E72C4890ED000AED
:10090000264880ED000A01681948203811F079FE68
:10091000082801D0012072E71F48018814481038C8
:1009200011F098FE082801D0012068E716480178E8
:100930000F480E3811F08EFE082801D001205EE726
:10094000124801780A480C3811F084FE082801D0BA
:10095000012054E707480178054811F07BFE08287C
:1009600001D001204BE711F064FD002047E70000B3
:1009700060000808190000201A0000201B00002059
:100980001D0000201C0000201E0000201F00002071
:100990002400002026000020280000201400002051
:1009A0002C000020300000203400002038000020FF
:1009B00020000020220000203C0000203D000020FC
:1009C0003E000020400000204200002044000020A3
:1009D00046000020480000204C000020500000206D
:1009E0005400002010B50246012341B1002004E06C
:1009F00003FB02F4A3B2441C20B28842F8DB184681
:100A000010BD2DE9FF5F91461C46DDF83880B8F136
:100A10000A0F12D2DFE808F00F111105060D0A0BBC
:100A2000080700BF00BF00BF042507E000BF062580
:100A300004E0032502E0012500E000BF00BF04EB55
:100A4000050A504615F078FA064600226119491E3B
:100A50007254B8F10A0F6FD2DFE808F06C6E6E05C1
:100A60001263394E2C1F6C216019801E31546D2188
:100A70006019C01E315420216019001F31545CE000
:100A800033216019801E31546D216019C01E31540C
:100A900020216019001F31544FE043216019801E4E
:100AA00031546F216019C01E315420216019001F7C
:100AB000315442E056216019801E31546D21601975
:100AC000C01E315420216019001F315435E06C21C3
:100AD0006019801E31542F216019C01E31546721C6
:100AE0006019001F31546D216019401F31542021BD
:100AF0006019801F315420E068216019801E315434
:100B00002F216019C01E315467216019001F315414
:100B10006D216019401F315420216019801F31540C
:100B20000BE068216019801E315420216019C01E1D
:100B3000315402E001E0FFE700BF00BF002713E0EF
:100B4000E01B81B20A20FFF74DFF99FBF0F100FB9B
:100B5000119BE01B401E81B20A20FFF743FF9BFB65
:100B6000F0F03030F0557F1CA742E9DB3246DDE97A
:100B700000010CF016FF304615F00DFABDE8FF9F9E
:100B80002DE9FF5F2DED020B2DED068BB0EE408AB7
:100B9000F0EE608A14461E46DDF85890B9F1000F59
:100BA00004D0B9F1020F03D1042702E0012700E0CD
:100BB00000BF00BFA019401C00EB070A504615F00B
:100BC000BBF905460021A019C219A9542E212955A7
:100BD000B9F1000F12D0B9F1020F10D14821A019BC
:100BE0003844401E29547021A0193844801E2954CD
:100BF0002021A0193844C01E295401E000E000BFA4
:100C000000BF4FF000081CE051EC180B16F042FF3B
:100C10008346A4EB080081B20A20FFF7E3FE9BFBAA
:100C2000F0F100FB11BBA4EB0800401E81B20A20CA
:100C3000FFF7D8FE9BFBF0F0303005F8080008F114
:100C40000108A045E0DB4FF000081EE008F10100BC
:100C500081B20A20FFF7C6FE834616F08FFF41ECF3
:100C60001A0B53EC182B16F0D9FF41EC190B16F0A8
:100C700011FF0A2190FBF1F201FB12003030C1B2EA
:100C8000601C4044295408F10108B045DEDB2A46C7
:100C9000DDE908010CF085FE284615F07CF9BDEC75
:100CA000068B06B0BDE8F09F00B52DED028B81B03C
:100CB000FE480088232878D2DFE800F07712F1F2AE
:100CC000F3F4F5ECEBEAE9E8E7E6E5E4E3E2E1E09A
:100CD000DFDEDDDCDBDAD9D8D7D6D5D4D3D2D1006C
:100CE00000214FF6FF700CF031FCF1480CF04BFC8A
:100CF000F0A2822114200CF054FEF148007830B1AB
:100D0000012834D0022851D0032874D160E04FF676
:100D1000686100200CF01AFCEA480CF034FCEA4848
:100D2000006817F0A5F941EC180B002001231A46C2
:100D3000B0EE480AF0EE680A642100908220FFF7C6
:100D40001FFFDB480CF01FFCDF48006817F090F92C
:100D500041EC180B002001231A46B0EE480AF0EED1
:100D6000680AAA2100905020FFF70AFF44E04FF6DE
:100D7000686100200CF0EAFBD2480CF004FC002073
:100D800003230090D148028864218220FFF739FEB6
:100D9000C7480CF0F8FB082003230090CB480288DA
:100DA00087215020FFF72DFE26E095E24FF668617F
:100DB00000200CF0CBFBC3480CF0E5FB0020022325
:100DC0000090C348027864218220FFF71AFE13E0E6
:100DD00045F2AA2100200CF0B9FBBA480CF0D3FB75
:100DE000002002230090BB48027864218220FFF794
:100DF00008FE01E0FFE700BF00BF40F2FC41002019
:100E00000CF0A4FBAF480CF0BEFBB348006817F031
:100E10002FF941EC180B002001231A46B0EE480AC6
:100E2000F0EE680A4FF4A57100908220FFF7A8FE4B
:100E30009F480CF0A8FBA848006817F019F941EC8E
:100E4000180B002001231A46B0EE480AF0EE680A9B
:100E50004FF4C87100905020FFF792FE3DE22FE260
:100E600019E204E2CDE1CBE194E192E15AE158E1EB
:100E70000BE1E5E023E29CE09AE029E227E225E2AB
:100E800023E221E21FE21CE21CE27FE06CE022E2AE
:100E900044E042E01EE206E004E002E000E018E286
:100EA00000BF00BF00BF4FF6686100200CF04EFB92
:100EB00084480CF068FB03200346962255210090DD
:100EC0007820FFF79EFD7A480CF05DFB0320034677
:100ED0004FF4C8729B2100904620FFF792FD40F22C
:100EE000FC4100200CF032FB76480CF04CFB032058
:100EF0000346962240F23B1100907820FFF781FDD7
:100F00006B480CF040FB03200346C82240F28111DD
:100F100000904620FFF775FDDFE100BF45F2AA21F2
:100F20004FF6FF700CF012FB66480CF02CFB04200F
:100F3000032300906948028855216420FFF761FD72
:100F400045F2AA214FF6FF700CF000FB5D480CF053
:100F50001AFB0520022300906148028840F23B11F1
:100F60006420FFF74EFDB8E147F2C5514FF6FF7020
:100F70000CF0ECFA53480CF006FB002002230F2281
:100F8000C32100909620FFF73CFDA6E14EF2E3015D
:100F90004FF6FF700CF0DAFA4A480CF0F4FA002031
:100FA00002230F22C32100909620FFF72AFD94E12F
:100FB00000BF4FF6686100200CF0C8FA41480CF001
:100FC000E2FA4148006817F053F841EC180B002092
:100FD00001231A46B0EE480AF0EE680A6421009038
:100FE0000846FFF7CDFD32480CF0CDFA3DA2A52111
:100FF0006E200CF0D6FC40F2FC4100200CF0A6FA6A
:1010000030480CF0C0FA3448006817F031F841EC71
:10101000180B002001231A46B0EE480AF0EE680AC9
:101020004FF4A57100906420FFF7AAFD20480CF052
:10103000AAFA2EA240F28B116E200CF0B2FC4CE109
:1010400040F2FC4100200CF081FA1E480CF09BFAA3
:101050002748006817F00CF841EC180B002001231A
:101060001A46B0EE480AF0EE680A4FF4A5710090F7
:101070006420FFF785FD0E480CF085FA1BA240F2B4
:101080008B116E200CF08DFC27E14FF6686100207B
:101090000CF05CFA0B480CF076FA1648006816F073
:1010A000E7FF41EC180B0020012325E05C00002045
:1010B0003C01002030303A30303A3031000000003E
:1010C0001D000020340100205400002046000020B4
:1010D0003C0000203D000020500000203E00002089
:1010E000400000206D672F6C000000007048000079
:1010F000480000204C0000201A46B0EE480AF0EEEE
:10110000680A4FF4A57100906420FFF739FD754817
:101110000CF039FA74A240F28B116E200CF041FCF5
:10112000DBE000BF4FF6686100200CF00FFA70485A
:101130000CF029FA0820032340F28A22642100904F
:101140000846FFF75EFC40F2FC4100200CF0FEF97F
:1011500067480CF018FA6748006816F089FF41EC00
:10116000180B002001231A46B0EE480AF0EE680A78
:101170004FF4A57100906420FFF702FD59480CF070
:1011800002FAAFF2980240F28B116E200CF009FCCB
:10119000A3E000BF4FF6686100200CF0D7F9544877
:1011A0000CF0F1F90020022305226421009008468A
:1011B000FFF727FC40F2FC4100200CF0C7F94C4837
:1011C0000CF0E1F94B48006816F052FF41EC180BA7
:1011D000002001231A46B0EE480AF0EE680A4FF4E8
:1011E000A57100906420FFF7CBFC3E480CF0CBF9D2
:1011F000AFF2081240F28B116E200CF0D2FB6CE0C3
:1012000000BF45F2AA2100200CF0A0F938480CF0EC
:10121000BAF9002002230522642100900846FFF756
:10122000F0FB40F2FC4100200CF090F930480CF04B
:10123000AAF93048006816F01BFF41EC180B00209B
:1012400001231A46B0EE480AF0EE680A4FF4A57181
:1012500000906420FFF794FC22480CF094F9AFF260
:10126000741240F28B116E200CF09BFB35E045F2BE
:10127000AA214FF6FF700CF069F91D480CF083F9B4
:101280000920022300901C4802884FF4A5716420B5
:10129000FFF7B7FB21E045F2AA214FF6FF700CF0F3
:1012A00055F913480CF06FF90920022300901348F8
:1012B00002884FF4A5716420FFF7A3FB0DE000BF87
:1012C00000BF00BF00BF00BF00BF00BF00BF00BF26
:1012D00000BF00BF00BF00E000BF00BF01B0BDEC19
:1012E000028B00BD3C0100206D672F6800000000EC
:1012F0003401002050000020440000204200002063
:1013000010B5F94800680AF097FC01F030F810BDFC
:1013100010B5F54800680AF08FFC05F07BFE10BDA3
:1013200010B5F14800680AF087FC00F0BEFE10BD61
:1013300010B5ED4800680AF07FFC01F05EFE10BDBC
:1013400010B5E94800680AF077FC03F01CFE10BDF8
:1013500010B5E648007830B101280BD0022810D033
:1013600003281CD114E0E04800680AF065FC01F095
:101370007FF914E0DC4800680AF05EFC01F0E6FC4E
:101380000DE0D94800680AF057FC01F071FA06E058
:10139000D54800680AF050FC01F0D3FB00BF00BF45
:1013A00010BD10B5D04800680AF046FC05F07EFD7F
:1013B00010BD10B5FFF716FA10BD10B5CA48006889
:1013C0000AF03AFC00F0D3FF0020C849087010BDB5
:1013D00010B5C54800680AF02FFC00F066FE00203A
:1013E000C249087010BD10B5BF4800680AF024FC5F
:1013F00001F03EFA10BD10B5BB4800680AF01CFCB5
:1014000001F0A4FC10BD10B5B74800680AF014FC48
:1014100000F0ADFF0220B549087010BD10B5B2480C
:1014200000680AF009FC00F040FE0020AF49087097
:1014300010BD10B5AC4800680AF0FEFB01F018F9C9
:1014400010BD10B5A84800680AF0F6FB01F079FB62
:1014500010BD10B5A44800680AF0EEFB00F087FF4D
:101460000320A249087010BD10B59F4800680AF01B
:10147000E3FB00F01AFE00209C49087010BD10B577
:10148000994800680AF0D8FB01F060FC10BD10B567
:10149000954800680AF0D0FB01F0EAF910BD10B5DC
:1014A000914800680AF0C8FB00F061FF01208F49F5
:1014B000087010BD10B58C4800680AF0BDFB00F044
:1014C000F4FD00208949087010BD10B586480068F9
:1014D0000AF0B2FB01F0CCF910BD10B582480068EB
:1014E0000AF0AAFB01F0C4F810BD10B57E480068F0
:1014F0000AF0A2FB00F03BFF10BD10B57A4800686F
:101500000AF09AFB00F0D1FD10BD10B576480068D6
:101510000AF092FB01F092FE10BD10B5724800680F
:101520000AF08AFB02F010FA10BD10B56E48006890
:101530000AF082FB6E48007830B1012807D00228FB
:1015400008D003280CD108E003F071F909E004F099
:101550000DF906E004F001FC03E004F012FF00E0E6
:1015600000BF00BF10BD10B55F4800680AF064FB03
:1015700001F043FD10BD10B55B4800680AF05CFB4C
:1015800000F093FD10BD5B480088401C594908805D
:1015900070475948008820B156480088401E554978
:1015A000088070475348008853490880704710B539
:1015B0004D4800680AF040FB01F0E0FF10BD10B597
:1015C000494800680AF038FB01F017FD10BD10B55E
:1015D000454800680AF030FB00F067FD10BD474841
:1015E0000088401C4549088070474448008820B165
:1015F00042480088401E4149088070473F480088A3
:101600003F490880704710B5374800680AF014FB5E
:1016100001F014FE10BD10B5334800680AF00CFB51
:1016200001F0EBFC10BD10B52F4800680AF004FB78
:1016300000F03BFD10BD10B532A00BF096FB002072
:101640003849087010BD10B537A00BF08EFB012093
:101650003449087010BD10B53BA00BF086FB02208A
:101660003049087010BD10B542A00BF07EFB002081
:101670004949087010BD10B548A00BF076FB012059
:101680004549087010BD10B54DA00BF06EFB02204F
:101690004149087010BD10B552A00BF066FB002048
:1016A0005849087010BD10B557A00BF05EFB012023
:1016B0005449087010BD10B55BA00BF056FB02201A
:1016C0005049087010BD10B5074800680AF0B4FA18
:1016D00002F03AF910BD10B5034800680AF0ACFA00
:1016E00002F032F910BD0000580000201800002060
:1016F0001D0000203E0000202000002040000020AF
:1017000022000020506172616D65746572735761CB
:1017100074657253637265656E5F496E646F6F7254
:101720000D0A00001A000020506172616D65746539
:101730007273576174657253637265656E5F4F753E
:1017400074646F6F720D0A00506172616D6574652B
:101750007273576174657253637265656E5F457825
:101760007472656D65436F6E646974696F6E0D0A9E
:1017700000000000506172616D657465727357619D
:1017800074657253637265656E5F4C657373323056
:101790006F430D0A000000001B00002050617261C1
:1017A0006D657465727357617465725363726565B4
:1017B0006E5F32306F435F33306F430D0A000000BD
:1017C000506172616D6574657273576174657253AF
:1017D000637265656E5F4D6F726533306F430D0ADE
:1017E00000000000506172616D657465727357612D
:1017F00074657253637265656E5F536F66740D0A2C
:10180000000000001C000020506172616D6574656D
:101810007273576174657253637265656E5F486178
:1018200072640D0A00000000506172616D6574659C
:101830007273576174657253637265656E5F566546
:101840007279486172640D0A0000000010B5F74813
:1018500000680AF0F1F902F077F810BD10B5F3480E
:1018600000680AF0E9F903F0B5FC10BD10B5EF48C7
:1018700000680AF0E1F903F0ADFC10BD10B5EB48CB
:1018800000680AF0D9F903F0A5FC10BD10B5E748CF
:1018900000680AF0D1F903F02FFE10BD10B5E3483F
:1018A00000680AF0C9F902F04FF810BD10B5DF4822
:1018B00000680AF0C1F902F047F810BD10B5DB4826
:1018C00000680AF0B9F902F03FF810BD10B5D7482A
:1018D00000680AF0B1F901F090FB10BD10B5D348D3
:1018E00000680AF0A9F900F0E0FB10BD10B52DED7D
:1018F000048BCF48006816F0BBFB41EC190B9FED41
:10190000CD0B53EC102B15F0B9FE41EC180B15F074
:1019100083FEC7490860BDEC048B10BD10B52DEDEA
:10192000048BC34890ED000AB5EEC00AF1EE10FA40
:1019300010D0006816F09CFB41EC190B9FEDBD0B1D
:1019400053EC102B16F0AAFA41EC180B15F064FEBC
:10195000B7490860BDEC048B10BDB54890ED000A96
:10196000B64880ED000A704710B5B04800680AF02C
:1019700063F903F08EF910BD10B5AC4800680AF0A9
:101980005BF901F03AFB10BD10B5A84800680AF0F9
:1019900053F900F08AFB10BD10B52DED048BA8485B
:1019A000006816F065FB41EC190B9FEDA20B53ECA0
:1019B000102B15F063FE41EC180B15F02DFEA0491D
:1019C0000860BDEC048B10BD10B52DED048B9C4858
:1019D00090ED000AB5EEC00AF1EE10FA10D00068E2
:1019E00016F046FB41EC190B9FED920B53EC102BBC
:1019F00016F054FA41EC180B15F00EFE90490860F1
:101A0000BDEC048B10BD8E4890ED000A8D4880ED32
:101A1000000A704710B5854800680AF00DF902F019
:101A200006FF10BD10B5814800680AF005F900F006
:101A30009EFC10BD10B57D4800680AF0FDF800F06E
:101A400034FB10BD10B5794800680AF0F5F803F0D2
:101A500053FD764800680AF0EFF802F0A4FB10BDD1
:101A600010B5724800680AF0E7F803F0B3FB6F485E
:101A700000680AF0E1F802F032FB10BD10B56B48C7
:101A800000680AF0D9F804F047FF10BD10B56748A8
:101A900000680AF0D1F805F06AF810BD10B5634887
:101AA00000680AF0C9F803F06EFA10BD10B55F487F
:101AB00000680AF0C1F800F0F8FA10BD10B52DED7D
:101AC000048B6148006816F0D3FA41EC190B9FEDC6
:101AD000590B53EC102B15F0D1FD41EC180B15F000
:101AE0009BFD59490860BDEC048B10BD10B52DED70
:101AF000048B554890ED000AB5EEC00AF1EE10FADD
:101B000010D0006816F0B4FA41EC190B9FED490BA8
:101B100053EC102B16F0C2F941EC180B15F07CFDBC
:101B200049490860BDEC048B10BD474890ED000AA0
:101B3000464880ED000A704710B53C4800680AF03E
:101B40007BF803F020FA10BD10B5384800680AF0A1
:101B500073F800F0AAFA10BD10B52DED048B3C48C7
:101B6000006816F085FA41EC190B9FED320B53EC2F
:101B7000102B15F083FD41EC180B15F04DFD344989
:101B80000860BDEC048B10BD10B52DED048B304802
:101B900090ED000AB5EEC00AF1EE10FA10D0006820
:101BA00016F066FA41EC190B9FED220B53EC102B4B
:101BB00016F074F941EC180B15F02EFD244908605D
:101BC000BDEC048B10BD224890ED000A214880ED49
:101BD000000A704710B5154800680AF02DF801F0AA
:101BE0000CFA10BD10B5114800680AF025F800F095
:101BF0005CFA10BD184800880A3017490880704701
:101C00001548008820B1144800880A381249088015
:101C100070471148008811490880704710B5034883
:101C200000680AF009F803F061FF10BD58000020B9
:101C3000500000209A9999999999B93F3400002051
:101C40005400002038000020480000202C00002014
:101C50004C0000203000002046000020280000201A
:101C600010B5F648006809F0E7FF01F0C6F910BDAD
:101C700010B5F248006809F0DFFF00F016FA10BD59
:101C800010B52DED048BEE48006816F0F1F941EC2B
:101C9000190B1FED180B53EC102B15F0EFFC41EC5A
:101CA000180B15F0B9FCE6490860BDEC048B10BDBB
:101CB00010B52DED048BE24890ED000AB5EEC00A98
:101CC000F1EE10FA10D0006816F0D2F941EC190BC1
:101CD0001FED280B53EC102B16F0E0F841EC180B1D
:101CE00015F09AFCD6490860BDEC048B10BDD448B1
:101CF00090ED000AD34880ED000A704710B5CF4838
:101D0000006809F099FF03F031FD10BD10B5CB4814
:101D1000006809F091FF01F070F910BD10B5C748D7
:101D2000006809F089FF00F0C0F910BDC6480078CE
:101D3000401CC54908707047C348007820B1C248AC
:101D40000078401EC04908707047BF480078BF49FE
:101D50000870704710B5B948006809F06DFF04F0CD
:101D600094F910BD10B5B548006809F065FF01F0A1
:101D700044F910BD10B5B148006809F05DFF00F0EE
:101D800094F910BD10B52DED048BAD48006816F028
:101D90006FF941EC190B1FED590B53EC102B15F09B
:101DA0006DFC41EC180B15F037FCA5490860BDEC43
:101DB000048B10BD10B52DED048BA14890ED000AE9
:101DC000B5EEC00AF1EE10FA10D0006816F050F926
:101DD00041EC190B1FED690B53EC102B16F05EF85C
:101DE00041EC180B15F018FC95490860BDEC048B0C
:101DF00010BD934890ED000A924880ED000A7047AC
:101E000010B58E48006809F017FF03F0A6FF10BD5B
:101E100010B58A48006809F00FFF01F0EEF810BD18
:101E200010B58648006809F007FF00F03EF910BDC4
:101E300010B52DED048B8648007815F09FFE41EC1F
:101E4000190B1FED840B53EC102B15F017FC41EC14
:101E5000180B15F04FFE7E490870BDEC048B10BDC9
:101E600010B52DED048B7A48007888B17848007859
:101E700015F084FE41EC190B1FED920B53EC102B67
:101E800016F00CF841EC180B15F034FE7049087090
:101E9000BDEC048B10BD6E4800786E490870704729
:101EA00010B56648006809F0C7FE04F0A6FB10BD37
:101EB00010B56248006809F0BFFE01F09EF810BD41
:101EC00010B55E48006809F0B7FE00F0EEF810BDEE
:101ED00010B52DED048B5A48006816F0C9F841EC96
:101EE000190B1FEDAC0B53EC102B15F0C7FB41EC9D
:101EF000180B15F091FB52490860BDEC048B10BD26
:101F000010B52DED048B4E4890ED000AB5EEC00AD9
:101F1000F1EE10FA10D0006816F0AAF841EC190B97
:101F20001FEDBC0B53EC102B15F0B8FF41EC180B58
:101F300015F072FB42490860BDEC048B10BD4048AF
:101F400090ED000A3F4880ED000A704710B53B480D
:101F5000006809F071FE04F014FA10BD10B537489E
:101F6000006809F069FE03F00EF810BD10B53348A3
:101F7000006809F061FE00F098F810BD364800884E
:101F8000401C3549088070473348008820B13248EA
:101F90000088401E3049088070472F4800882F492C
:101FA0000880704710B52548006809F045FE02F02A
:101FB000EAFF10BD10B52148006809F03DFE00F0B1
:101FC00074F810BD26480088401C254908807047D9
:101FD0002348008820B122480088401E20490880FC
:101FE00070471F4800881F490880704710B5134884
:101FF000006809F021FE00F0BAF910BD10B50F48D5
:10200000006809F019FE00F050F810BD00201649D4
:102010000870704701201449087070470220124967
:1020200008707047032010490870704710B50348C6
:10203000006809F001FE00F038F810BD58000020DB
:1020400050000020340000203C0000201E00002032
:102050003D0000201F00002044000020260000203A
:1020600042000020240000201D0000200120034920
:10207000087070470020014908707047190000205F
:1020800038B5FD484FF6FF732022D2210090012081
:102090000AF03EFC0446F94809F004FAF74B2246E0
:1020A000F021FA2008F08BFE38BD08B5F4A00AF044
:1020B0005CFEFFF7E5FF00200BF0E9FA4FF6FF703A
:1020C0002023D222F0210090FA200BF0B6FEF24835
:1020D0000BF059FAF1A02023D222F0210090FA202F
:1020E0000CF0FFF84FF6FF701C235A220C210090D1
:1020F00014200BF0A2FEEC480BF045FA4FF6FF71EE
:1021000000200BF023FAE9A214210E200BF049FC69
:1021100000214FF6FF700BF019FADF480BF033FA8D
:10212000E4A24FF4917114200BF03BFCE5A21421C2
:10213000FA200BF036FC40F2FC40A023D2223C21D6
:102140000090FA200BF079FEE148007830B10128C8
:1021500020D002283AD0032872D154E04FF66860AC
:10216000A023D2223C21009014200BF066FE4FF6F3
:10217000686100200BF0EAF9C7480BF004FAD5A219
:102180001E2150200BF00DFCD5A2AF21A0200BF09A
:1021900008FC56E04FF66860A023D2223C21009054
:1021A00014200BF04AFE4FF6686100200BF0CEF9C8
:1021B000B9480BF0E8F9CCA21E2150200BF0F1FB3E
:1021C000CBA2AF21A0200BF0ECFB3AE04FF6686009
:1021D000A023D2223C21009014200BF02EFE4FF6BB
:1021E000686100200BF0B2F9AB480BF0CCF9C1A24A
:1021F0001E2150200BF0D5FB0023C0A282215020CD
:102200000BF0F1FB1DE045F2AA20A023D2223C21D5
:10221000009014200BF011FE45F2AA2100200BF0D3
:1022200095F99D480BF0AFF9B2A21E2150200BF09A
:10223000B8FBB5A2822150200BF0B3FB01E0FFE711
:1022400000BF00BF40F2FC4100200BF07FF9924834
:102250000BF099F9AFA24FF4827150200BF0A1FB63
:10226000AEA24FF4C871A0200BF09BFB8348012164
:10227000C26990470120AA4908808048A94908609E
:1022800008BD10B5FFF711FF10BD2DE9F84FA648A6
:1022900003231E228221009001200AF039FB04460C
:1022A000A2484FF6FF731E22A021009002200AF0E0
:1022B0002FFB05469E4800235022D2210090032088
:1022C0000AF026FB06469B4800235022D2210090AC
:1022D00004200AF01DFB0746974800235022D22114
:1022E000009005200AF014FB8046944800235022F9
:1022F000D221009006200AF00BFB81469048032370
:102300001E228221009007200AF002FB82468D489F
:1023100009F0C8F88B4B2246F0214FF4A57008F065
:102320004EFD884B2A46F021142008F048FD854BCD
:1023300032463C21142008F042FD824B3A463C21B3
:10234000FA2008F03CFD7F4B42469621142008F00D
:1023500036FD7C4B4A469621FA2008F030FD794B39
:102360005246F021BE2008F02AFDBDE8F88F08B5DE
:1023700075A00AF0FAFCFFF788FF00200BF087F940
:102380004FF6FF701C235A220C21009014200BF0F2
:1023900054FD45480BF0F7F84FF6FF7100200BF0A5
:1023A000D5F842A214210E200BF0FBFA00214FF6C3
:1023B000FF700BF0CBF838480BF0E5F837A24FF47C
:1023C000BE7114200BF0EDFAD22350223C211420D0
:1023D0000BF030FCD22350223C21FA200BF02AFCD7
:1023E000D2235022962114200BF024FCD223502219
:1023F0009621FA200BF01EFC4FF6FF701E23A02240
:10240000F021009014200BF018FD82231E22F021F1
:10241000BE200BF00FFC82231E22F0214FF4A5708A
:102420000BF008FC00214FF6FF700BF08FF81A48F4
:102430000BF0A9F84AA05023D2223C21009014208E
:102440000BF04FFF49A05023D2223C210090FA20EC
:102450000BF047FF48A05023D22296210090142071
:102460000BF03FFF47A05023D22296210090FA2084
:102470000BF037FF8EE00000011300087802002007
:102480004372656174655F537461727453637265FE
:10249000656E0D0A000000003C01002053455454B5
:1024A000494E475300000000340100205449544C69
:1024B0004500000043484155205048554F432056A1
:1024C0005500000042414348204B484F4100000066
:1024D0001D00002043484C4F52494E45000000006B
:1024E0006D672F6C000000005245444F58000000FB
:1024F0006D560000444F5345000000006D6C2F6D79
:1025000033686F75720000006D6C2F6D33646179F4
:102510000000000050482D2D000000007048000011
:102520005C0000205800002011130008211300084F
:10253000311300084113000851130008A3130008C9
:10254000B31300081C0300204372656174655F5378
:10255000657474696E677353637265656E0D0A0006
:10256000504152414D4554455253000043414C495E
:1025700042524154494F4E00444F53494E47205414
:102580004553540054595045204F462050524F4215
:1025900045000000FEA01E238222F0210090BE20F4
:1025A0000BF09FFEFDA01E238222F02100904FF42D
:1025B000A5700BF096FE4FF6FF7100200AF0C6FFE3
:1025C000F9A01E23A022F021009014200BF089FE18
:1025D000F9480121C26990470220F8490880F6486D
:1025E000F749086008BDF8B5F6484FF6FF731E229C
:1025F000D221009001200AF08BF90446F2484FF6F0
:10260000FF731E22D221009002200AF081F90546B4
:10261000EE4840F2FC433C22D221009003200AF015
:1026200077F90646EA484FF668633C22D2210090CB
:1026300004200AF06DF90746E64808F033FFE54B41
:102640002246F021FA2008F0BAFBE24B2A46F0219C
:10265000142008F0B4FBDF4B3246AA21142008F006
:10266000AEFBDC4B3A46AA21FA2008F0A8FBF8BDE5
:1026700008B5D9A00AF079FBFFF7B5FF00200BF0F1
:1026800006F84FF6FF701C235A220C2100901420EC
:102690000BF0D3FBD9480AF076FF4FF6FF7100200C
:1026A0000AF054FFAFF2FC1214210E200BF079F95E
:1026B00000214FF6FF700AF049FFD1480AF063FF8E
:1026C000AFF24C124FF4AA7114200BF06AF94FF6D6
:1026D00068606423D2223C21009014200BF0ADFBF3
:1026E00040F2FC406423D2223C210090FA200BF0FF
:1026F000A4FB4FF6686100200AF028FFC0480AF0EA
:1027000042FFC0A21E2146200BF04BF940F2FC41D3
:1027100000200AF01BFFBA480AF035FFAFF204228E
:102720004FF4827146200BF03CF94FF6FF701E23E8
:10273000D222F021009014200BF07FFB4FF6FF70A7
:102740001E23D222F0210090FA200BF076FB4FF6E8
:1027500068600AF00CFFD2233C22AA2114200BF05F
:1027600069FA40F2FC400AF002FFD2233C22AA217F
:10277000FA200BF05FFAA2480AF005FF00214FF69D
:10278000FF700AF0E3FE8AA03C23D222AA21009027
:1027900014200BF0A6FD86A03C23D222AA21009093
:1027A000FA200BF09EFD4FF6FF7100200AF0CEFEDE
:1027B00096A01E23D222F0210090FA200BF091FD6A
:1027C00079A01E23D222F021009014200BF089FD65
:1027D00080480121C26990470320784908807D48DC
:1027E0007749086008BDF8B58A484FF6FF731E2286
:1027F000D221009001200AF08BF8044686484FF65B
:10280000FF731E22D221009002200AF081F80546B3
:10281000824840F2FC433C22D221009003200AF07F
:1028200077F806467E484FF668633C22D221009036
:1028300004200AF06DF807467A4808F033FE794B19
:102840002246F021FA2008F0BAFA764B2A46F02107
:10285000142008F0B4FA734B3246AA21142008F071
:10286000AEFA704B3A46AA21FA2008F0A8FAF8BD51
:1028700008B56DA00AF079FAFFF7B5FF00200AF05D
:1028800006FF4FF6FF701C235A220C2100901420E3
:102890000BF0D3FA59480AF076FE4FF6FF7100208C
:1028A0000AF054FEAFF2FC3214210E200BF079F83E
:1028B00000214FF6FF700AF049FE51480AF063FE0E
:1028C000AFF24C324FF4AA7114200BF06AF84FF6B5
:1028D00068606423D2223C21009014200BF0ADFAF2
:1028E00040F2FC406423D2223C210090FA200BF0FD
:1028F000A4FA4FF6686100200AF028FE40480AF06A
:1029000042FE40A21E2146200BF04BF840F2FC4153
:1029100000200AF01BFE39480AF035FE38480AF05C
:1029200032FEAFF208424FF4827146200BF039F8C4
:102930004FF6FF701E23D222F021009014200BF0DE
:102940007CFA4FF6FF701E23D222F0210090FA206D
:102950000BF073FA4FF668600AF009FED2233C22AE
:10296000AA2114200BF066F940F2FC400AF0FFFDAA
:10297000D2233C22AA21FA200BF05CF920480AF06D
:1029800002FE00214FF6FF700AF0E0FD2FA061E08B
:102990005341564520444154410000004C414E47AC
:1029A00055414745530000004241434B20544F20BE
:1029B00053544152540000001C0300205C000020CE
:1029C00058000020BB130008D1130008E7130008CB
:1029D000F7130008C00300204372656174655F440B
:1029E0006F73696E67546573745374617274537452
:1029F00061727453637265656E0D0A0034010020C4
:102A00003C010020444953494E462E004241434B6D
:102A100000000000071400081D140008331400080B
:102A200043140008640400204372656174655F44C8
:102A30006F73696E675465737453746F7053746108
:102A4000727453637265656E0D0A000053544F50E3
:102A5000000000003C23D222AA21009014200BF099
:102A600040FCAFF2B4003C23D222AA210090FA200D
:102A70000BF037FC4FF6FF7100200AF067FDAFF254
:102A800074001E23D222F0210090FA200BF029FCC2
:102A9000AFF2EC001E23D222F021009014200BF0A4
:102AA00020FCFE480121C26990470420FC490880AF
:102AB000FA48FC49086008BDF8B5FB484FF6FF73BB
:102AC0001E22D2210090012009F022FF0446F7487F
:102AD0004FF6FF731E22D2210090022009F018FF4A
:102AE0000546F34840F2FC433C22D22100900320EB
:102AF00009F00EFF0646EF484FF668633C22D221EC
:102B00000090042009F004FF0746EB4808F0CAFCD7
:102B1000E94B2246F021FA2008F051F9E64B2A460B
:102B2000F021142008F04BF9E34B3246AA2114207F
:102B300008F045F9E04B3A46AA21FA2008F03FF99F
:102B4000F8BD08B5DDA00AF010F9FFF7B5FF0020C9
:102B50000AF09DFD4FF6FF701C235A220C210090B5
:102B600014200BF06AF9DE480AF00DFD4FF6FF71F4
:102B700000200AF0EBFCAFF2CC6214210E200AF028
:102B800010FF00214FF6FF700AF0E0FCD5480AF074
:102B9000FAFCAFF21C624FF4AA7114200AF001FF94
:102BA0004FF668606423D2223C21009014200BF081
:102BB00044F940F2FC406423D2223C210090FA20E8
:102BC0000BF03BF94FF6686100200AF0BFFCC548E6
:102BD0000AF0D9FCAFF2D4121E2146200AF0E1FE21
:102BE00040F2FC4100200AF0B1FCBE480AF0CBFCE8
:102BF000AFF2D8624FF4827146200AF0D2FE4FF64F
:102C0000FF701E23D222F021009014200BF015F942
:102C10004FF6FF701E23D222F0210090FA200BF015
:102C20000CF94FF668600AF0A2FCD2233C22AA21DC
:102C300014200AF0FFFF40F2FC400AF098FCD22377
:102C40003C22AA21FA200AF0F5FFA6480AF09BFCD4
:102C500000214FF6FF700AF079FCAFF210203C2300
:102C6000D222AA21009014200BF03BFBAFF22420CB
:102C70003C23D222AA210090FA200BF032FB4FF61F
:102C8000FF7100200AF062FCAFF280201E23D222E6
:102C9000F0210090FA200BF024FBAFF2F4201E2369
:102CA000D222F021009014200BF01BFB824801215E
:102CB000C269904705207A4908807F4879490860B1
:102CC00008BDF8B588484FF6FF731E22D221009048
:102CD000012009F01DFE044684484FF6FF731E22B2
:102CE000D2210090022009F013FE0546804840F2F0
:102CF000FC433C22D2210090032009F009FE064645
:102D00007C484FF668633C22D2210090042009F0F1
:102D1000FFFD0746784808F0C5FB774B2246F021B7
:102D2000FA2008F04CF8744B2A46F021142008F0E1
:102D300046F8714B3246AA21142008F040F86E4B39
:102D40003A46AA21FA2008F03AF8F8BD08B56BA077
:102D50000AF00BF8FFF7B5FF00200AF098FC4FF6D9
:102D6000FF701C235A220C21009014200BF065F8F0
:102D70005B480AF008FC4FF6FF7100200AF0E6FB02
:102D8000AFF6D80214210E200AF00BFE00214FF6F8
:102D9000FF700AF0DBFB53480AF0F5FBAFF62802A0
:102DA0004FF4AA7114200AF0FCFD4FF6686064230A
:102DB000D2223C21009014200BF03FF840F2FC405E
:102DC0006423D2223C210090FA200BF036F84FF613
:102DD000686100200AF0BAFB42480AF0D4FBAFF267
:102DE000DC321E2146200AF0DCFD40F2FC410020CE
:102DF0000AF0ACFB3B480AF0C6FBAFF6E0024FF42A
:102E0000827146200AF0CDFD4FF6FF701E23D222BC
:102E1000F021009014200BF010F84FF6FF701E23E5
:102E2000D222F0210090FA200BF007F84FF66860EC
:102E30000AF09DFBD2233C22AA2114200AF0FAFEBC
:102E400040F2FC400AF093FBD2233C22AA21FA2054
:102E50000AF0F0FE23480AF096FB00214FF6FF70BF
:102E60000AF074FBAFF2B8403C23D222AA210090B2
:102E700014200BF036FAAFF22C403C23D222AA21C8
:102E80000090FA200BF02DFA4FF6FF7100200AF0A7
:102E90005DFBAFF288401E23D22241E06404002093
:102EA0005C0000205800002053140008691400083A
:102EB0007F1400088F140008080500204372656124
:102EC00074655F446F73696E675465737453746F90
:102ED0007053746F7053637265656E0D0A00000065
:102EE000340100203C0100209F140008B5140008A4
:102EF000CB140008DB140008AC05002043726561A8
:102F000074655F446F73696E67546573745374615D
:102F1000727453746F7053637265656E0D0A0000AE
:102F2000F0210090FA200BF0DCF9AFF284501E2360
:102F3000D222F021009014200BF0D3F9FE48012199
:102F4000C26990470620FD490880FB48FC4908609B
:102F500008BD2DE9F843FB484FF6FF731E22D2212E
:102F60000090012009F0D4FC0446F7484FF6FF73A7
:102F70001E22D2210090022009F0CAFC0546F34827
:102F800000235022D2210090032009F0C1FC064604
:102F9000EF4800235022D2210090042009F0B8FC11
:102FA0000746EC4801235022D2210090052009F069
:102FB000AFFC8046E84808F075FAE74B2246F0215E
:102FC000FA2007F0FCFEE44B2A46F021142007F01B
:102FD000F6FEE14B32463C21142007F0F0FEDE4BBA
:102FE0003A463C21FA2007F0EAFEDB4B42469621A6
:102FF000FA2007F0E4FEBDE8F88308B5D7A009F091
:10300000B4FEFFF7A6FF00200AF041FB4FF6FF7069
:103010001C235A220C21009014200AF00EFFD648DF
:103020000AF0B1FA4FF6FF7100200AF08FFAAFF6FE
:10303000843214210E200AF0B4FC00214FF6FF70F8
:103040000AF084FACD480AF09EFAAFF6EC2240F27C
:10305000631114200AF0A5FCD22350223C21142035
:103060000AF0E8FDD22350223C21FA200AF0E2FDCA
:103070004FF668605023D2229621009014200AF067
:10308000DCFE40F2FC405023D22296210090FA2030
:103090000AF0D3FE00214FF6FF700AF057FA4FF600
:1030A000686100200AF052FAB5A05023D22296217E
:1030B000009014200BF015F940F2FC4100200AF0BA
:1030C00045FAAFF6A8305023D22296210090FA207C
:1030D0000BF007F94FF6FF701E23D222F02100906B
:1030E00014200AF0AAFE4FF6FF701E23D222F02110
:1030F0000090FA200AF0A1FEA0480AF044FA00214C
:103100004FF6FF700AF022FAA1A05023D2223C21F0
:10311000009014200BF0E5F89FA05023D2223C2110
:103120000090FA200BF0DDF84FF6FF7100200AF056
:103130000DFAAFF228701E23D222F0210090FA205F
:103140000BF0CFF8AFF2A0701E23D222F021009036
:1031500014200BF0C6F84FF6FF7100200AF0F6F9C4
:103160007D480121C26990470720744908807A4848
:103170007349086008BD2DE9F84389484FF6FF738D
:103180001E22D2210090012009F0C2FB044685488E
:103190004FF6FF731E22D2210090022009F0B8FBE7
:1031A0000546814803233C2264210090184609F01B
:1031B000AFFB06467D4803233C2264210090042097
:1031C00009F0A6FB07467A4803233C22D22100904F
:1031D000052009F09DFB8046764801236422D22118
:1031E0000090062009F094FB8146734808F05AF9D4
:1031F000714B2246F021FA2007F0E1FD6E4B2A4682
:10320000F021142007F0DBFD6B4B3246AA2114207D
:1032100007F0D5FD684B3A46AA21822007F0CFFD82
:10322000654B4246AA21FA2007F0C9FD624B4A4687
:103230003C21FA2007F0C3FDBDE8F88308B55FA084
:1032400009F093FDFFF797FF00200AF020FA4FF6F0
:10325000FF701C235A220C21009014200AF0EDFD6F
:1032600045480AF090F94FF6FF7100200AF06EF918
:10327000AFF6C85214210E200AF093FB00214FF63E
:10328000FF700AF063F93D480AF07DF953A24FF44C
:10329000917114200AF085FB45F2AA206423D22202
:1032A0003C21009014200AF0C8FD45F2AA206423B6
:1032B000D2223C210090FA200AF0BFFD45F2AA205C
:1032C0000AF05BF92D480AF05EF948A21E2146205B
:1032D0000AF067FB002014233C228C2100905F2021
:1032E0000AF0ABFD45F2AA200AF047F923480AF09C
:1032F0004AF941A2FF2146200AF053FB4FF6FF7026
:103300001E23D222F021009014200AF096FD4FF6E1
:10331000FF701E23D222F0210090FA200AF08DFDCA
:103320004FF6FF700AF023F964233C22AA211420EF
:103330000AF080FC642369E0AC0500205C000020FA
:1033400058000020EB140008FB1400080B150008BF
:103350001B1500082B1500085006002043726561FC
:1033600074655F506172616D6574657273536372E9
:1033700065656E0D0A000000340100203C0100204C
:10338000444953494E46454354494F4E00000000BE
:10339000504F4F4C00000000574154455200000070
:1033A00067150008771500088715000893150008B1
:1033B000A5150008AF150008F406002043726561EA
:1033C00074655F506172616D6574657273566F6C80
:1033D000756D6553637265656E0D0A00504F4F4CF5
:1033E00020504152414D455445525300504F4F4C8F
:1033F00020564F4C554D450046494C545241544976
:103400004F4E20504552494F440000003C22AA2113
:1034100082200AF00FFCD2233C22AA21FA200AF0D3
:1034200009FCFE480AF0AFF800214FF6FF700AF0E1
:103430008DF8FBA03C236422AA21009014200AF0FE
:1034400050FFF8A03C236422AA21009082200AF0B9
:1034500048FFF5480AF097F8F4A03C23D222AA21AD
:103460000090FA200AF03DFF4FF6FF7100200AF0AD
:103470006DF8AFF668201E23D222F0210090FA20CA
:103480000AF02FFFAFF6E0201E23D222F021009099
:1034900014200AF026FF4FF6FF7100200AF056F8BC
:1034A000E3480121C26990470820E2490880E048CA
:1034B000E149086008BD2DE9F843E0484FF6FF7385
:1034C0001E22D2210090012009F022FA0446DC4895
:1034D0004FF6FF731E22D2210090022009F018FA45
:1034E0000546D84803233C2264210090184609F081
:1034F0000FFA0646D44803233C226421009004209E
:1035000009F006FA0746D14803233C22D221009055
:10351000052009F0FDF98046CD4801236422D2211F
:103520000090062009F0F4F98146CA4807F0BAFF76
:10353000C84B2246F021FA2007F041FCC54B2A4631
:10354000F021142007F03BFCC24B3246AA21142084
:1035500007F035FCBF4B3A46AA21822007F02FFC2A
:10356000BC4B4246AA21FA2007F029FCB94B4A4637
:103570003C21142007F023FCBDE8F88308B5B6A071
:1035800009F0F3FBFFF797FF00200AF080F84FF6F1
:10359000FF701C235A220C21009014200AF04DFCCD
:1035A0009E4809F0F0FF4FF6FF71002009F0CEFFB2
:1035B000B44A14210E200AF0F4F900214FF6FF70EE
:1035C00009F0C4FF984809F0DEFFAFF2F0124FF4A3
:1035D000917114200AF0E5F945F2AA206423D22261
:1035E0003C21009014200AF028FC45F2AA20642314
:1035F000D2223C210090FA200AF01FFC0020142364
:103600003C228C21009040F245100AF016FC45F255
:10361000AA214FF6FF7009F099FF834809F0B3FF24
:10362000AFF238221E2146200AF0BBF945F2AA214A
:103630004FF6FF7009F08AFF7B4809F0A4FFAFF254
:103640004822FF2146200AF0ACF94FF6FF701E23F6
:10365000D222F021009014200AF0EFFB4FF6FF7009
:103660001E23D222F0210090FA200AF0E6FB4FF64A
:10367000FF7009F07CFF64233C22AA2114200AF089
:10368000D9FA64233C22AA2182200AF0D3FAD22359
:103690003C22AA21FA200AF0CDFA604809F073FF13
:1036A00000214FF6FF7009F051FF5DA03C2364221A
:1036B000AA21009014200AF014FE5AA03C23642290
:1036C000AA21009082200AF00CFE574809F05BFF07
:1036D00056A03C23D222AA210090FA200AF001FE33
:1036E0004FF6FF71002009F031FFAFF6E0401E23D6
:1036F000D222F0210090FA200AF0F3FDAFF65850E4
:103700001E23D222F021009014200AF0EAFD4FF689
:10371000FF71002009F01AFF4E480121C26990474D
:103720000920444908804B484349086008BD2DE9F9
:10373000F04F87B0012004F0F7FC0446022004F0AB
:10374000F3FC0546032004F0EFFC06464E484FF616
:10375000FF731E22D2210090042009F0D9F80746F9
:103760004A484FF6FF731E22D2210090052009F02F
:10377000CFF88046464A42A12046E36A98478146F0
:10378000444A3FA12046E36A98478246424A3CA108
:103790002046E36A98478346404A39A12846EB6AA7
:1037A000984706903E4A36A12846EB6A984705900E
:1037B0003C4A33A12846EB6A984704903A4A30A124
:1037C0003046F36A98470390384A2DA13046F36A91
:1037D00098470290364A2AA13046F36A98470190EA
:1037E000344807F05FFE334B3A46F021FA2007F0E9
:1037F000E6FA304B4246F021142007F0E0FA2D4B58
:103800004A4655214FF4877007F0D9FA294B5246A2
:103810005521880007F0D3FA264B4DE034010020F3
:103820002B0000002D0000003C0100204F4B000049
:10383000F40600205C00002058000020BF1500089E
:10384000CF150008DF150008EB150008FD1500086E
:1038500007160008980700204372656174655F5081
:103860006172616D657465727346697472617469C1
:103870006F6E506572696F6453637265656E0D0A91
:1038800000000000AC2400081716000827160008E6
:103890003716000847160008571600086716000874
:1038A000771600088716000897160008A716000864
:1038B000B71600083C0800205A4655214FF4CD7039
:1038C00007F07DFAF94B8C214FF48770069A07F0C8
:1038D00076FAF64B8C214FF4AA70059A07F06FFA2E
:1038E000F24B8C214FF4CD70049A07F068FAEF4B3D
:1038F000CD214FF48770039A07F061FAEB4BCD218D
:103900004FF4AA70029A07F05AFAE84BCD2148000A
:10391000019A07F054FA0121201DE54A127850F867
:10392000220040680176281DE24A127850F82200F1
:1039300040680176301DE04A127850F82200406855
:10394000017607B0BDE8F08F08B5DCA009F00DFAEC
:10395000FFF7EDFE002009F09AFE4FF6FF701C23E2
:103960005A220C21009014200AF067FADB4809F073
:103970000AFE4FF6FF71002009F0E8FDD84A142135
:103980000E200AF00EF800214FF6FF7009F0DEFD60
:10399000D44809F0F8FDD4A24FF48C7114200AF039
:1039A00000F8D64809F0EFFDAFF21C621E2141205D
:1039B00009F0F7FFD2A21E21782009F0F2FFAFF242
:1039C00028621E21872009F0ECFFCFA21E2196203D
:1039D00009F0E7FFAFF240621E21B92009F0E1FFD4
:1039E000CCA21E21C82009F0DCFFCD4809F0CBFD98
:1039F000CCA2FF21372009F0D4FFCCA24FF4A07154
:103A0000372009F0CEFFCBA2FF21782009F0C9FFB3
:103A1000CAA24FF4A071782009F0C3FFC9A240F2F6
:103A20008B11782009F0BDFFC8A240F20911B9201E
:103A300009F0B7FFC7A240F24F11B92009F0B1FF5A
:103A4000C6A240F28111B92009F0ABFF4FF47840D3
:103A500009F08DFDC4A24FF4C371372009F0A1FF16
:103A6000C3A240F28111462009F09BFF4FF6FF7080
:103A70001E23D222F021009014200AF0DEF94FF626
:103A8000FF701E23D222F0210090FA200AF0D5F90F
:103A90004FF6FF71002009F059FDB8481E23D222CD
:103AA000F0210090FA200AF01CFCB44864381E2370
:103AB000D222F021009014200AF013FC4FF6FF717F
:103AC000002009F043FD79480121C26990470A208E
:103AD000AB4908807548AB49086008BD38B5AA48AD
:103AE00047F2C5531E223C210090012008F010FF30
:103AF0000446A64807F0D6FCA44B2246AA214FF460
:103B0000967007F05CF938BD08B5A1A009F02DF951
:103B1000FFF7E4FF47F2C550AC234FF48C7232211B
:103B2000009064200AF089F947F2C5514FF6FF7002
:103B300009F00CFD714809F026FD9EA278213C2079
:103B400009F02FFF9FA27821502009F02AFFA0A2A0
:103B50007821642009F025FF714809F014FD9EA228
:103B6000E621962009F01DFF9DA2E621A02009F084
:103B700018FF4FF6FF7009F0FAFC3C231E22AA2121
:103B80004FF496700AF056F847F2C5514FF6FF70A1
:103B900009F0DCFC594809F0F6FCAFF270301E2346
:103BA0003C22AA2100904FF496700AF09AFB7748C5
:103BB0000121C26990477548724908600B2070491D
:103BC000088008BD38B5884847F2C5531E223C21FD
:103BD0000090012008F09CFE0446844807F062FC37
:103BE000824B2246AA214FF4967007F0E8F838BDC0
:103BF00008B57FA009F0B9F8FFF7E4FF4EF2E30043
:103C0000AC234FF48C723221009064200AF015F935
:103C10004EF2E3014FF6FF7009F098FC374809F0C7
:103C2000B2FC7DA278213C2009F0BBFE7FA2782166
:103C3000502009F0B6FE66A27821642009F0B1FE9A
:103C4000374809F0A0FC64A2E621962009F0A9FEFD
:103C500063A2E621A02009F0A4FE4FF6FF7009F050
:103C600086FC3C231E22AA214FF4967009F0E2FF45
:103C70004EF2E3014FF6FF7009F068FC1F4809F0AF
:103C800082FCAFF258401E233C22AA2100904FF440
:103C900096700AF026FB55480121C26990475348A7
:103CA000384908600C203649088008BD3C080020CF
:103CB0001A0000201B0000201C00002043726561D8
:103CC00074655F506172616D65746572735761747C
:103CD000657253637265656E0D0A00003401002041
:103CE000AC2400083C01002057415445522050416B
:103CF00052414D4554455253000000005C010020E4
:103D0000415645524147450054454D504552415456
:103D100055524500484152444E455353000000005F
:103D20004C010020696E646F6F7200006F757464DF
:103D30006F6F72003C2032306F43000032302D3301
:103D4000306F43003E2033306F430000736F667462
:103D500000000000686172640000000076657279FE
:103D6000206861726400000065787472656D65009A
:103D7000636F6E646974696F6E0000000C2A00083E
:103D80005C00002058000020C7160008E008002052
:103D900053686F775F5761726E696E674D617869BE
:103DA0006D616C53616665747953637265656E0D00
:103DB0000A0000004D6178696D616C207361666571
:103DC0007479000064697366656374696F6E0000DE
:103DD000646F736167653A006D6C2F6D330000008E
:103DE000686F757200000000D71600088409002073
:103DF00053686F775F5761726E696E67457874724A
:103E0000656D65436F6E646974696F6E5363726547
:103E1000656E0D0A0000000045787472656D6520BE
:103E2000636F6E646974696F6E0000006D6178691C
:103E30006D616C20736166657479000038B5FE4869
:103E400047F2C5531E223C210090012008F060FD7E
:103E50000446FA4807F026FBF84B2246AA214FF405
:103E6000967006F0ACFF38BD08B5F5A008F07DFFF0
:103E7000FFF7E4FF47F2C550AC234FF48C723221B8
:103E80000090642009F0D9FF47F2C5514FF6FF704A
:103E900009F05CFBF34809F076FBF3A278213C20A3
:103EA00009F07FFDF4A278215A2009F07AFDFAA2E8
:103EB00078216E2009F075FDFEA27821822009F09C
:103EC00070FD4FF6FF7009F052FB3C231E22AA2121
:103ED0004FF4967009F0AEFE47F2C5514FF6FF70F1
:103EE00009F034FBAFF2BC601E233C22AA210090F3
:103EF0004FF496700AF0F5F9D0480121C269904755
:103F0000CE48F44908600E20F349088008BD38B552
:103F1000F2484EF2E3031E223C210090012008F0FB
:103F2000F7FC0446EE4807F0BDFAED4B2246AA2105
:103F30004FF4967006F043FF38BD08B5E9A008F0CD
:103F400014FFFFF7E4FF4EF2E300AC234FF48C7252
:103F500032210090642009F070FF4EF2E3014FF629
:103F6000FF7009F0F3FABF4809F00DFBE8A27821D1
:103F70003C2009F016FDEBA278215A2009F011FD32
:103F8000EFA27821084609F00CFDF5A278218C20DB
:103F900009F007FD4FF6FF7009F0E9FA3C231E22F5
:103FA000AA214FF4967009F045FE4EF2E3014FF658
:103FB000FF7009F0CBFAAFF28C701E233C22AA21CD
:103FC00000904FF496700AF08CF9C5480121C2693F
:103FD0009047C348BF4908600D20BF49088008BD0D
:103FE00038B5E4484EF2E3031E223C210090012044
:103FF00008F08EFC0446E04807F054FADE4B2246F7
:10400000AA214FF4967006F0DAFE38BD08B5DBA0A1
:1040100008F0ABFEFFF7E4FF4EF2E300AC234FF4F1
:104020008C7232210090642009F007FF4EF2E30108
:104030004FF6FF7009F08AFA8A4809F0A4FAB4A290
:1040400078213C2009F0ADFCB6A278215A2009F075
:10405000A8FCD4A27821084609F0A3FCD9A27821B3
:104060008C2009F09EFC4FF6FF7009F080FA3C238B
:104070001E22AA214FF4967009F0DCFD4EF2E301F6
:104080004FF6FF7009F062FAAFF660001E233C2283
:10409000AA2100904FF496700AF023F9B648012146
:1040A000C2699047B4488B4908600F208A4908804C
:1040B00008BD38B5CA4847F2C5531E223C210090BE
:1040C000012008F025FC0446C64807F0EBF9C54B73
:1040D0002246AA214FF4967006F071FE38BD08B54D
:1040E000C1A008F042FEFFF7E4FF47F2C550AC2341
:1040F0004FF48C7232210090642009F09EFE47F24A
:10410000C5514FF6FF7009F021FA564809F03BFA05
:104110007FA278213C2009F044FCBDA278215A20DE
:1041200009F03FFCC1A278216E2009F03AFC4FF65D
:10413000FF7009F01CFA3C231E22AA214FF496704E
:1041400009F078FD47F2C5514FF6FF7009F0FEF90E
:10415000AFF628101E233C22AA2100904FF496703F
:104160000AF0BFF89F480121C26990479D4859490C
:10417000086010205849088008BD38B5B14847F29A
:10418000C5531E223C210090012008F0C1FB0446CB
:10419000AD4807F087F9AC4B2246AA214FF4967040
:1041A00006F00DFE38BD08B5A8A008F0DEFDFFF74B
:1041B000E4FF47F2C550AC234FF48C7232210090DB
:1041C000642009F03AFE47F2C5514FF6FF7009F03E
:1041D000BDF9244809F0D7F94DA278213C2009F017
:1041E000E0FBA7A278215A2009F0DBFBACA27821E2
:1041F0006E2009F0D6FBB1A27821822009F0D1FB14
:104200004FF6FF7009F0B3F93C231E22AA214FF4A8
:10421000967009F00FFD47F2C5514FF6FF7009F097
:1042200095F9AFF6F8101E233C22AA2100904FF416
:1042300096700AF056F84BE1D7160008280A0020BD
:1042400053686F775F5761726E696E675761746507
:1042500072486172646E65737353637265656E0D47
:104260000A0000005C0100205761746572206861DB
:1042700072646E6573730000536F667420746F20F0
:104280006D6F6465726174656C7920686172642019
:104290003C39206F644800004966207048207661F0
:1042A0006C756520646F6573206E6F742063686140
:1042B0006E67650042616368204B686F61207374AC
:1042C0006F707320616674657220313020646F7383
:1042D00065732E00580000205C0000205D18000867
:1042E000CC0A002053686F775F5761726E696E6702
:1042F00050726F626543616C6962726174696F6E5E
:1043000036325F373853637265656E0D0A00000000
:1043100050524F42452043414C4942524154494F2B
:104320004E00000050726F62652063616E6E6F74A4
:104330002062652063616C696272617465210000AE
:10434000596F75206172652063616C696272617476
:10435000696E67206F7574736964652074686500A1
:1043600072616E6765206F6620362E32202D2037F1
:104370002E3821006D180008700B002053686F77ED
:104380005F5761726E696E6750726F626543616CF0
:104390006962726174696F6E53637265656E0D0A4E
:1043A00000000000576520617265207265636F6DC3
:1043B0006D656E646564207265706C6163696E67BB
:1043C000000000007468652070726F626520776974
:1043D00074682061206E6577206F6E652E00000086
:1043E0007D180008140C002053686F775F576172C6
:1043F0006E696E6750726F626543616C696272616B
:1044000074696F6E373053637265656E0D0A000014
:1044100043616C6962726174696F6E207265636F6B
:104420006D6D656E64656420627900007573696EF8
:10443000672062756666657220704820372C302EC2
:10444000000000008D180008B80C002053686F773A
:104450005F5761726E696E6750726F626543616C1F
:104460006962726174696F6E5265717569726564B3
:1044700056616C756553637265656E0D0A000000C8
:104480005468652063686C6F72696E6520636F6E37
:1044900074656E7420696E20706F6F6C0000000090
:1044A0007761746572206D75737420626520677220
:1044B0006561746572207468616E000022726571B6
:1044C00075697265642076616C7565222E00000046
:1044D000FE480121C2699047FC48FD49086011204F
:1044E000FC49088008BD38B5FB484EF2E3031E22A4
:1044F0003C210090012008F00BFA0446F74806F032
:10450000D1FFF64B2246AA214FF4967006F057FCD5
:1045100038BD08B5F2A008F028FCFFF7E4FF4EF222
:10452000E300AC234FF48C7232210090642009F038
:1045300084FC4EF2E3014FF6FF7009F007F8F648ED
:1045400009F021F8AFF2382278213C2009F029FA4D
:10455000AFF2D40278215A2009F023FAAFF2C00258
:1045600078216E2009F01DFAAFF2B0027821822086
:1045700009F017FA4FF6FF7008F0F9FF3C231E22EE
:10458000AA214FF4967009F055FB4EF2E3014FF665
:10459000FF7008F0DBFFAFF66C501E233C22AA210F
:1045A00000904FF4967009F09CFECC480121C2693E
:1045B0009047CA48C64908601220C649088008BD0D
:1045C00038B5D6484EF2E3031E223C21009001206C
:1045D00008F09EF90446D24806F064FFD04B22460C
:1045E000AA214FF4967006F0EAFB38BD08B5CDA0BD
:1045F00008F0BBFBFFF7E4FF4EF2E300AC234FF4FF
:104600008C7232210090642009F017FC4EF2E30115
:104610004FF6FF7008F09AFFBF4808F0B4FFAFF202
:10462000103278213C2009F0BCF9CDA278215A2023
:1046300009F0B7F9D1A278216E2009F0B2F9D6A21B
:104640007821822009F0ADF9D5A27821962009F0D1
:10465000A8F94FF6FF7008F08AFF3C231E22AA211A
:104660004FF4967009F0E6FA4EF2E3014FF6FF7050
:1046700008F06CFFAFF64C601E233C22AA2100908C
:104680004FF4967009F02DFEA5480121C2699047AC
:10469000A3488F49086013208E49088008BD38B5AB
:1046A000C6484EF2E3031E22C8210090012008F004
:1046B0002FF90446C24806F0F5FEC14B2246AA2156
:1046C000A02006F07CFB38BD08B5BEA008F04DFB6D
:1046D000FFF7E5FF4EF2E300AC234FF48C7232217A
:1046E0000090642009F0A9FB4EF2E3014FF6FF7041
:1046F00008F02CFF884808F046FFBBA278213C2038
:1047000009F04FF9C0A278215A2009F04AF9C6A24F
:1047100078216E2009F045F9CAA27821822009F09B
:1047200040F94FF6FF7008F022FFC8231E22AA218D
:10473000A02009F07FFA4EF2E3014FF6FF7008F077
:1047400005FFC3A01E23C822AA210090A02009F0C3
:10475000C8FD9B480121C269904799485C4908609F
:1047600014205C49088008BD2DE9F843BD484FF688
:10477000FF731E22D2210090012008F0C9F80446E0
:10478000B9484FF6FF731E22D2210090022008F094
:10479000BFF80546B54805233C226421009003205C
:1047A00008F0B6F80646B24805233C226421009082
:1047B000042008F0ADF80746AE4805233C22D2217C
:1047C0000090184608F0A4F88046AB480123642204
:1047D000D2210090062008F09BF88146A74806F0F9
:1047E00061FEA64B2246F021FA2006F0E8FAA34B20
:1047F0002A46F021142006F0E2FAA04B3246AA2104
:10480000142006F0DCFA9D4B3A46AA21822006F0DD
:10481000D6FA9A4B4246AA21FA2006F0D0FA974BD4
:104820004A463C21142006F0CAFABDE8F88308B5D0
:1048300093A008F09AFAFFF797FF002008F027FFEF
:104840004FF6FF701C235A220C210090142009F00F
:10485000F4FA954808F097FE4FF6FF71002008F033
:1048600075FE924A14210E2009F09BF800214FF6A4
:10487000FF7008F06BFE8E4808F085FE8DA24FF4A5
:104880009171142009F08DF84FF668606423D222EC
:104890003C210090142009F0D0FA40F2FC4064233F
:1048A000D2223C210090FA2009F0C7FA4FF6686046
:1048B00008F063FE002008F05AFE82A21E21462066
:1048C00009F06FF840F2FC40FEE00000B80C002058
:1048D000580000205C0000209D1800085C0D00209E
:1048E00053686F775F5761726E696E6750726F625F
:1048F0006543616C6962726174696F6E526571754E
:104900006972656456616C7565526564536372655E
:10491000656E0D0A000000005C010020AD18000863
:10492000000E002053686F775F5761726E696E6783
:1049300050726F626543616C6962726174696F6E17
:10494000526571756972656456616C7565496D7003
:104950006F737369626C6553637265656E0D0A00EF
:1049600043616C6962726174696F6E20697320695A
:104970006D706F737369626C6521000050726F62B5
:10498000652073656E736974697669747920746FD4
:104990006F206C6F772E00004368616E67653A0088
:1049A000656C656374726F6C7974652F6D656D628B
:1049B00072616E652F70726F62652E00BD180008FF
:1049C000A40E002053686F775F5761726E696E673F
:1049D000546F6F52617069644368616E67655363B9
:1049E0007265656E0D0A0000546F6F207261706908
:1049F00064206368616E6765206F6620704820766A
:104A0000616C75652E00000042414348204B484FC1
:104A1000412073746F7020726567756C6174696F83
:104A20006E73206F66000000704820666F7220323F
:104A300020686F75727320666F722073616665748B
:104A400079000000726561736F6E732E00000000C4
:104A500043414E43454C20524553545249435449D7
:104A60004F4E5300CD180008DD180008ED1800085F
:104A70001D1900085B19000869190008480F00207B
:104A800053686F775F506172616D657465727352C0
:104A900065717569726556616C75657048536372AE
:104AA00065656E0D0A00000034010020AC2400088A
:104AB0003C01002052455155495245442056414C35
:104AC00055455300434C460008F057FDFEA24FF4F5
:104AD0008271462008F065FF002014233C228C21BF
:104AE000009040F2451009F0A8F94FF6FF701E2320
:104AF000D222F0210090142009F09FF94FF6FF70A8
:104B00001E23D222F0210090FA2009F096F940F2FB
:104B1000FC4008F02CFD64233C22AA21142009F05B
:104B200089F864233C22AA21822009F083F8D22349
:104B30003C22AA21FA2009F07DF8E44808F023FD80
:104B400000214FF6FF7008F001FDE1A03C23642234
:104B5000AA210090142009F0C4FBDEA03C236422AB
:104B6000AA210090822009F0BCFBDB4808F00BFD75
:104B7000DAA03C23D222AA210090FA2009F0B1FB4E
:104B80004FF6FF71002008F0E1FCD5481E23D22229
:104B9000F0210090FA2009F0A4FBD14864381E23CC
:104BA000D222F0210090142009F09BFB4FF6FF71F8
:104BB000002008F0CBFCCB480121C26990471520AA
:104BC000C9490880C748C949086008BD2DE9F843AC
:104BD000C7484FF6FF731E22D2210090012007F034
:104BE00097FE0446C3484FF6FF731E22D221009061
:104BF000022007F08DFE0546BF4804233C226421B5
:104C00000090032007F084FE0646BC4804233C22A3
:104C100064210090184607F07BFE0746B84804233D
:104C20003C22D2210090052007F072FE8046B54854
:104C300001236422D2210090062007F069FE8146FC
:104C4000B14806F02FFCB04B2246F021FA2006F0C6
:104C5000B6F8AD4B2A46F021142006F0B0F8AA4B66
:104C60003246AA21142006F0AAF8A74B3A46AA21F8
:104C7000822006F0A4F8A44B4246AA21FA2006F0AE
:104C80009EF8A14B4A463C21FA2006F098F8BDE870
:104C9000F88308B59DA008F068F8FFF797FF00209B
:104CA00008F0F5FC4FF6FF701C235A220C210090EF
:104CB000142009F0C2F8854808F065FC4FF6FF7132
:104CC000002008F043FC9B4A14210E2008F069FEE6
:104CD00000214FF6FF7008F039FC7F4808F053FCC4
:104CE000AFF230224FF49171142008F05AFE4FF6C3
:104CF00068606423D2223C210090142009F09DF8C2
:104D000040F2FC406423D2223C210090FA2009F0BA
:104D100094F84FF6686008F030FC002008F027FC9B
:104D2000AFF260221E21462008F03BFE0020142333
:104D30003C228C2100905F2009F07FF840F2FC407B
:104D400008F01BFC60A24FF48271462008F029FE97
:104D50004FF6FF701E23D222F0210090142009F09C
:104D60006CF84FF6FF701E23D222F0210090FA203B
:104D700009F063F84FF6686008F0F9FB64233C2201
:104D8000AA21142008F056FF64233C22AA21822085
:104D900008F050FFD2233C22AA21FA2008F04AFF53
:104DA0004A4808F0F0FB00214FF6FF7008F0CEFBF8
:104DB00047A03C236422AA210090142009F091FA14
:104DC00044A03C236422AA210090822009F089FAA1
:104DD000414808F0D8FB41A03C23D222AA210090F0
:104DE000FA2009F07EFA4FF6FF71002008F0AEFBC2
:104DF0003B481E23D222F0210090FA2009F071FADC
:104E0000374864381E23D222F0210090142009F084
:104E100068FA4FF6FF71002008F098FB3A4801212C
:104E2000C269904716203049088037482F490860EA
:104E300008BD2DE9F84340484FF6FF731E22D221EA
:104E40000090012007F064FD04463C484FF6FF73D4
:104E50001E22D2210090022007F05AFD0546384854
:104E600001235022D2210090032007F051FD064675
:104E7000344801235022D2210090042007F048FD3D
:104E80000746314800235022D2210090052007F028
:104E90003FFD80462D4800235022D221009006205D
:104EA00007F036FD81462A4806F0FCFA284B2246D8
:104EB000F021FA2005F083FF254B2A46F02114202B
:104EC00005F07DFF224B45E07048000034010020D2
:104ED0002B0000002D0000003C0100204F4B000083
:104EE0000C2A0008480F00205C0000205800002019
:104EF000791900088919000899190008C9190008CA
:104F0000071A0008151A0008EC0F002053686F7785
:104F10005F506172616D6574657273526571756918
:104F2000726556616C7565434C4653637265656E78
:104F30000D0A0000AC240008251A0008351A0008E4
:104F4000451A0008611A00087D1A00088D1A000829
:104F50009010002032463C21142005F030FFFE4B1B
:104F60003A463C21FA2005F02AFFFB4B42469621A7
:104F7000142005F024FFF84B4A469621FA2005F04C
:104F80001EFFBDE8F88308B5F4A007F0EEFEFFF7BA
:104F900050FF002008F07BFB4FF6FF701C235A22C5
:104FA0000C210090142008F048FFF34808F0EBFAB9
:104FB0004FF6FF71002008F0C9FAF04A14210E20C4
:104FC00008F0EFFC00214FF6FF7008F0BFFAEC4844
:104FD00008F0D9FAE94AC03240F25911142008F019
:104FE000E0FC4FF668605023D2223C210090142050
:104FF00008F023FF40F2FC405023D2223C210090D5
:10500000FA2008F01AFFD22350229621142008F02B
:1050100011FED22350229621FA2008F00BFE4FF603
:10502000FF701E23D222F0210090142008F005FF0B
:105030004FF6FF701E23D222F0210090FA2008F0D4
:10504000FCFECF4808F09FFA4FF66861002008F098
:105050007DFACCA03223D2223C210090142009F00A
:1050600040F9C648C0303223D22255210090142086
:1050700009F037F940F2FC41002008F067FAC4A0BB
:105080003223D2223C210090FA2009F02AF9BB48B1
:10509000C0303223D22255210090FA2009F021F9A4
:1050A00000214FF6FF7008F051FABC483223D2229B
:1050B00096210090142009F014F9B9A03223D222CD
:1050C000AF210090142009F00CF9B8A03223D222AD
:1050D00096210090FA2009F004F9B1A03223D222DF
:1050E000AF210090FA2009F0FCF84FF6FF71002084
:1050F00008F02CFAAE481E23D222F0210090FA20AC
:1051000009F0EFF8AA4864381E23D222F02100905B
:10511000142009F0E6F890480121C2699047172051
:10512000A44908808C48A449086008BD2DE9F843CB
:10513000A2484FF6FF731E22D2210090012007F0F3
:10514000E7FB04469E484FF6FF731E22D2210090D3
:10515000022007F0DDFB05469A4805233C22642126
:105160000090032007F0D4FB0646974805233C2215
:1051700064210090042007F0CBFB074693480523E9
:105180003C22D2210090184607F0C2FB804690488E
:1051900006F088F98E4B2246F021FA2005F00FFE2A
:1051A0008B4B2A46F021142005F009FE884B32462D
:1051B000AA21142005F003FE854B3A46AA2182203D
:1051C00005F0FDFD824B4246AA21FA2005F0F7FDCD
:1051D000BDE8F88308B57FA007F0C7FDFFF7A6FF7D
:1051E000002008F054FA4FF6FF701C235A220C21BD
:1051F0000090142008F021FE5F4808F0C4F94FF633
:10520000FF71002008F0A2F95C4A14210E2008F07A
:10521000C8FB00214FF6FF7008F098F9584808F0D5
:10522000B2F974A2E621142008F0BBFB40F2FC4066
:105230006423D2223C210090FA2008F0FEFD0021D8
:105240004FF6FF7008F082F9704808F09CF970A2E0
:105250001E21462008F0A5FBAFF640621E215A2011
:1052600008F09FFBAFF63C621E216E2008F099FB10
:1052700040F2FC4008F081F9002008F078F940483D
:1052800008F081F9AFF2C0324FF48271462008F085
:1052900088FB002014233C228C21009040F2451012
:1052A00008F0CBFD4FF6FF701E23D222F0210090B4
:1052B000142008F0C2FD4FF6FF701E23D222F02109
:1052C0000090FA2008F0B9FD40F2FC4008F04FF9D8
:1052D00064233C22AA21142008F0ACFC64233C2265
:1052E000AA21822008F0A6FCD2233C22AA21FA207F
:1052F00008F0A0FC204808F046F900214FF6FF70A6
:1053000008F024F9AFF238403C236422AA2100902F
:10531000142008F0E6FFAFF244403C236422AA21A7
:105320000090822008F0DDFF154808F02CF9AFF25C
:1053300054403C23D222AA210090FA2008F0D1FF49
:105340004FF6FF71002008F001F919481E23D22200
:10535000F0210090FA2061E0901000204372656116
:1053600074655F43616C6962726174696F6E5363E7
:105370007265656E0D0A000034010020AC2400083F
:105380003C010020434C462050524F424500000053
:1053900070482050524F42450000000098330008EA
:1053A000544845524D4F4D455445520041495200D5
:1053B0000C2A00085C000020580000209D1A0008FC
:1053C000AD1A0008BD1A0008ED1A00082B1B0008D2
:1053D0003411002053686F775F43616C69627261BA
:1053E00074696F6E704850726F6265536372656561
:1053F0006E0D0A0070482043414C494252415449C5
:105400004F4E2050524F4245000000005C010020EA
:1054100043616C6962726174696F6E0008F061FFCC
:10542000FE481E23D222F0210090142008F059FFDC
:105430004FF6FF71002008F089F8F9480121C26990
:1054400090471820F7490880F548F749086008BDDB
:105450002DE9F843F5484FF6FF731E22D221009044
:10546000012007F055FA0446F1484FF6FF731E225B
:10547000D2210090022007F04BFA0546ED480423A4
:105480003C2264210090032007F042FA0646EA48D5
:1054900004233C2264210090184607F039FA07469D
:1054A000E64804233C22D2210090052007F030FA80
:1054B0008046E34805F0F6FFE14B2246F021FA2052
:1054C00005F07DFCDE4B2A46F021142005F077FC28
:1054D000DB4B3246AA21142005F071FCD84B3A462A
:1054E000AA21822005F06BFCD54B4246AA21FA2066
:1054F00005F065FCBDE8F88308B5D2A007F035FCDF
:10550000FFF7A6FF002008F0C2F84FF6FF701C233B
:105510005A220C210090142008F08FFCD24808F089
:1055200032F84FF6FF71002008F010F8CF4A14212E
:105530000E2008F036FA00214FF6FF7008F006F84A
:10554000CB4808F020F8CBA2D721142008F029FA84
:105550004FF668606423D2223C210090FA2008F0C4
:105560006CFC00214FF6FF7007F0F0FFC74808F011
:105570000AF8C7A21E21462008F013FACAA21E216B
:105580005A2008F00EFACFA21E216E2008F009FA68
:105590004FF6686007F0F1FF002007F0E8FFAFF674
:1055A000DC224FF48271462008F0FBF9002014231E
:1055B0003C228C21009040F2451008F03EFC4FF652
:1055C000FF701E23D222F0210090142008F035FC39
:1055D0004FF6FF701E23D222F0210090FA2008F02F
:1055E0002CFC4FF6686007F0C2FF64233C22AA211E
:1055F000142008F01FFB64233C22AA21822008F01B
:1056000019FBD2233C22AA21FA2008F013FB96486A
:1056100007F0B9FF00214FF6FF7007F097FFAFF2D8
:1056200050703C236422AA210090142008F059FEF7
:10563000AFF260703C236422AA210090822008F01F
:1056400050FE8B4807F09FFFAFF270703C23D222D0
:10565000AA210090FA2008F044FE4FF6FF710020C6
:1056600007F074FF6D4864301E23D222F0210090B1
:10567000FA2008F036FE69481E23D222F02100905D
:10568000142008F02EFE4FF6FF71002007F05EFF99
:105690006B480121C2699047192062490880684817
:1056A0006149086008BD2DE9F8438C484FF6FF7347
:1056B0001E22D2210090012007F02AF904468848D2
:1056C0004FF6FF731E22D2210090022007F020F92E
:1056D0000546844804233C2264210090032007F0FF
:1056E00017F90646804804233C226421009018469E
:1056F00007F00EF907467D4804233C22D221009092
:10570000052007F005F98046794801236422D2215B
:105710000090062007F0FCF88146764805F0C2FEAE
:10572000744B2246F021FA2005F049FB714B2A46C2
:10573000F021142005F043FB6E4B3246AA211420C1
:1057400005F03DFB6B4B3A46AA21822005F037FB62
:10575000684B4246AA21FA2005F031FB654B4A46C8
:105760003C21FA2005F02BFBBDE8F88308B562A0C8
:1057700007F0FBFAFFF797FF002007F088FF4FF6CE
:10578000FF701C235A220C210090142008F055FBB6
:10579000354807F0F8FE4FF6FF71002007F0D6FEFF
:1057A000324A14210E2008F0FCF800214FF6FF7059
:1057B00007F0CCFE2E4807F0E6FEAFF608524FF495
:1057C0009171142008F0EDF84FF668606423D2223E
:1057D0003C210090142008F030FB40F2FC40642390
:1057E000D2223C210090FA2008F027FB4FF6686097
:1057F00007F0C3FE002007F0BAFE1C4A3C321E210F
:10580000462008F0CEF8002014233C228C21009082
:105810005F2008F012FB40F2FC4087E0A829000856
:10582000341100205C00002058000020391B0008C3
:10583000491B0008591B0008891B0008C71B0008EA
:10584000D811002053686F775F43616C69627261A1
:1058500074696F6E434C4650726F62655363726534
:10586000656E0D0A0000000034010020AC24000821
:105870003C010020434C462043414C494252415494
:10588000494F4E2050524F42450000005C0100201D
:105890005468652063686C6F72696E6520636F6E13
:1058A00074656E7420696E00706F6F6C2077617420
:1058B0006572206D7573742062652067726561740E
:1058C000657200007468616E20227265717569727C
:1058D00065642076616C7565222E0000D51B00087A
:1058E000E51B0008F51B0008011C0008131C00083C
:1058F0001D1C00087C12002053686F775F50617296
:10590000616D657465727352657175697265566112
:105910006C75655265646F7870485F526F64657826
:1059200053637265656E0D0A0000000007F025FEE6
:10593000AFF66C224FF48271462008F032F84FF631
:10594000FF701E23D222F0210090142008F075FA77
:105950004FF6FF701E23D222F0210090FA2008F0AB
:105960006CFA4FF6686007F002FE64233C22AA211D
:10597000142008F05FF964233C22AA21822008F059
:1059800059F9D2233C22AA21FA2008F053F9FE4803
:1059900007F0F9FD00214FF6FF7007F0D7FDAFF6D5
:1059A000D0203C236422AA210090142008F099FC06
:1059B000AFF6E0203C236422AA210090822008F068
:1059C00090FCF24807F0DFFDAFF6F0203C23D22236
:1059D000AA210090FA2008F084FC4FF6FF71002005
:1059E00007F0B4FDEA481E23D222F0210090FA20ED
:1059F00008F077FCE64864381E23D222F02100909C
:105A0000142008F06EFC4FF6FF71002007F09EFD99
:105A1000E0480121C26990471A20DF490880DD482B
:105A2000DE49086008BD2DE9F843DD484FF6FF73F5
:105A30001E22D2210090012006F06AFF0446D948B8
:105A40004FF6FF731E22D2210090022006F060FF65
:105A50000546D54805233C2264210090032006F02A
:105A600057FF0646D14805233C22642100900420BC
:105A700006F04EFF0746CE4805233C22D221009077
:105A8000184606F045FF8046CA4801236422D22109
:105A90000090062006F03CFF8146C74805F002FD55
:105AA000C54B2246F021FA2005F089F9C24B2A465F
:105AB000F021142005F083F9BF4B3246AA211420AF
:105AC00005F07DF9BC4B3A46AA21822005F077F912
:105AD000B94B4246AA21FA2005F071F9B64B4A4665
