:020000040800F2
:1000000030110120051B0208050C0008070C000830
:100010000B0C00080F0C0008130C00080000000077
:10002000000000000000000000000000A90200081D
:10003000170C000800000000FD0200081519020856
:100040001F1B02081F1B02081F1B02081F1B0208A0
:100050001F1B02081F1B02081F1B02081F1B020890
:100060001F1B02081F1B02081F1B02081F1B020880
:100070001F1B02081F1B02081F1B02081F1B020870
:100080001F1B02081F1B02081F1B02081F1B020860
:100090001F1B02081F1B02081F1B02081F1B020850
:1000A0001F1B02081F1B02081F1B02081F1B020840
:1000B0005B0C00085D0C00085F0C00081F1B0208A9
:1000C0001F1B02081F1B02081F1B02081F1B020820
:1000D0001F1B02081F1B02081F1B02081F1B020810
:1000E0001F1B02081F1B02081F1B02081F1B020800
:1000F0001F1B02081F1B02081F1B02081F1B0208F0
:100100001F1B02081F1B0208610C00081F1B0208AE
:100110001F1B02081F1B02081F1B02081F1B0208CF
:100120001F1B02081F1B02081F1B02081F1B0208BF
:100130001F1B0208190C00081F1B02081F1B0208C6
:100140001F1B02081F1B02081F1B02081F1B02089F
:100150001F1B02081F1B02081F1B02081F1B02088F
:100160001F1B02081F1B02081F1B02081F1B02087F
:100170001F1B02081F1B02081F1B02081F1B02086F
:100180001F1B02081F1B020800F002F800F07CF899
:100190000AA090E8000C82448344AAF10107DA45E2
:1001A00001D100F071F8AFF2090EBAE80F0013F0B8
:1001B000010F18BFFB1A43F00103184798520500BE
:1001C000B85205000A444FF0000C10F8013B13F040
:1001D000070408BF10F8014B1D1108BF10F8015BA0
:1001E000641E05D010F8016B641E01F8016BF9D193
:1001F00013F0080F1EBF10F8014BAD1C0C1B09D1EA
:100200006D1E58BF01F801CBFAD505E014F8016B5B
:1002100001F8016B6D1EF9D59142D6D370470000ED
:100220000023002400250026103A28BF78C1FBD8FF
:10023000520728BF30C148BF0B607047662924F0C1
:100240000E82642921F03885752921F035856329CE
:1002500022F0CF82002070471FB524F0F6F99DE808
:10026000030021F0F7FF22F047FB040000200021EB
:1002700023F068FC401C60600020002123F04CFC4F
:10028000E0601FBD10B510BD22F0A0FC1146FFF7C5
:10029000E3FF00F013FB22F0CCFC03B4FFF7F2FF06
:1002A00003BC22F0F9FC00002A4B19680868B0E88A
:1002B000F04F80F30988BFF36F8F4FF0000080F399
:1002C000118870470000000006480068006880F34D
:1002D000088862B661B6BFF34F8FBFF36F8F00DF40
:1002E00000BF00BF08ED00E0DFF80C00016841F43A
:1002F00070010160704700BF88ED00E0EFF30980F6
:10030000BFF36F8F134B1A681EF0100F08BF20ED5C
:10031000108A20E9F04F106008B44FF0500080F3CD
:100320001188BFF34F8FBFF36F8F20F0E4F94FF0C8
:10033000000080F3118808BC19680868B0E8F04F25
:100340001EF0100F08BFB0EC108A80F30988BFF3CD
:100350006F8F704794030020EFF305807047000013
:100360000EB50121082013F006FA5020019000205C
:10037000ADF80000ADF80800ADF802006946F94894
:1003800013F0E5FC0021F74813F040FD0121F5488A
:1003900014F0A6F901221146F24814F079F900216F
:1003A000F04813F05DFD0EBD10B50446EE48048024
:1003B000FFF7D6FF0021EB4813F012FD0121E948B9
:1003C00013F04EFD00BFE84800880028FBD1002153
:1003D000E44813F045FD10BD2DED088B00240025E9
:1003E00000BF002003F0C2F9DFEDE00A80EE201A22
:1003F00011EE106A304624F0B7F841EC1A0B9FED6D
:10040000DC0B53EC102B23F0C5FF41EC190B9FEDD7
:10041000DA0B53EC102B23F091FC41EC180B23F07A
:10042000A7FBD74951F824100860062003F09EF975
:10043000DFEDCE0A80EE201A11EE106A304624F06D
:1004400093F841EC1A0B9FEDCF0B53EC102B23F0DC
:10045000A1FF41EC190B9FEDCD0B53EC102B23F0BA
:100460006DFC41EC180B9FEDCB0B53EC102B23F0E4
:1004700051FECA4A03C2052C02DA601CC4B28AE0EB
:10048000002400250DE0BE4850F8250090ED000A3C
:10049000C348D0ED000A30EE200A80ED000A681C47
:1004A000C5B2052DEFDB03F0CDF9CC2003F081FAC6
:1004B000442003F06FFA6420FFF776FF03F0C2F9DF
:1004C000CC2003F076FABE2003F064FAB3EE090AFA
:1004D000B44880ED000AB24890ED000AF1EE040A3B
:1004E00080EE201A11EE106A304624F03DF8AE4A34
:1004F00003C29FEDAE0AAA4880ED000AA94890ED1C
:10050000000A03F083F910EE106A304624F02CF84C
:1005100041EC1A0BA64890ED000B53EC102BA248AF
:1005200090ED000B51EC100B23F034FF41EC1B0B52
:1005300053EC1A2B23F002FC41EC180B9D48006889
:1005400024F012F841EC190B53EC182B23F022FF86
:10055000994A03C2914890ED000B53EC102B97A1E0
:10056000984821F045FB00209649C870924890EDCC
:10057000000B53EC102B94A1954821F039FB00207F
:100580009349C870874890ED000A924880ED000AB0
:10059000914880ED000A9148008810B901209049E7
:1005A000086090480078012808D1834890ED000B3E
:1005B00051EC100B23F0DCFA8B4908608B48007873
:1005C000012808D1754890ED000B51EC100B23F079
:1005D000CFFA8749086032201FF07CFF01E700BF97
:1005E00084480078401C83490870084600783B28FE
:1005F00010DD81480078401C7F49087000207D494B
:10060000087076480088002804DD74480088401E81
:1006100072490880784800783B2807DD77480078E1
:10062000401C7649087000207349087073480078B0
:10063000172806DD0020714908706F4908706D4960
:1006400008704FF47A701FF045FFC9E700BF6C488F
:100650000088032878D16B480078002877D00128DB
:1006600052D0022830D0032870D167480068B0F516
:100670007A6F09D210226549012003F0BBF8624865
:100680000068401C6049086061480068B0F5FA6F76
:1006900009D220225D49012003F0ACF85C480068D3
:1006A000401C5B49086001201FF014FF10225749CD
:1006B000002003F09FF820225449002003F09AF80C
:1006C00003201FF007FFA6E04F480068B0F57A6FDF
:1006D00009D210224D49012003F08CF84A480068E5
:1006E000401C4949086001201FF0F4FE10224749D0
:1006F000002003F07FF803201FF0ECFE2022434986
:10070000002003F077F886E010224049002003F033
:1007100071F83F480068B0F5FA6F09D220223B49D2
:10072000012003F067F83A480068401C3849086027
:1007300001201FF0CFFE20223449002003F05AF898
:1007400003201FF0C7FE66E067E000E062E01022D1
:100750002E49002003F04EF820222C49002003F0FF
:1007600049F858E0000C00404400002000007A44A2
:100770002DB29DEFA7C6F93FDF7A2949920416C032
:10078000280400209C33A2B437F8B23F3C448A9E30
:10079000E78902400000000000408F401800002060
:1007A0004C0000204000002010000020000000004D
:1007B00038000020C00000200800002025332E3023
:1007C000660000008900002025312E3166000000FF
:1007D0008D000020E0000020DC000020020000204E
:1007E00034000020F8000020E8000020F90000207C
:1007F000EC0000209E0000209D0000209C000020B6
:1008000018010020AD000020300000200000024050
:100810002C00002000BF00BF22E05F48006850B1FC
:1008200020225E49012002F0E5FF5B480068401E7F
:100830005949086003E05A4800885A490880012055
:100840001FF048FE10225549002002F0D3FF20225D
:100850005249002002F0CEFF03201FF03BFE00BFF4
:10086000F5E600BF0FF073FB0DF0D4FA0DF0ADFB11
:1008700002F0B6FBF6E71CB5002011F03BF80120B2
:1008800011F038F8022011F035F8032011F032F899
:100890000121022012F03CFF012000908DF804009D
:1008A00000208DF8060003208DF8050001208DF84A
:1008B000070069463C4812F0E9FC1CBD1CB54FF42A
:1008C000E1313A480DF09AFCFFF7D5FF0EF0BEF883
:1008D000002008F0D8FA0FF08CF902F073FF02F054
:1008E0000FFF10F05FFF01F0FAFF03F0A6FF00F02A
:1008F000CBFA00F0C3F94FF4407011F051FC01F055
:1009000008FE01F016FFFFF72BFD00200121034632
:100910000A02CDE9001026A1AFF2B9001FF0B5FB25
:100920000020012103468022CDE9001022A1AFF270
:10093000E3201FF0AAFB0020012103468022CDE91D
:10094000001021A1AFF269301FF09FFB00200221AF
:1009500003468022CDE900101DA1AFF283501FF0A5
:1009600094FB20F092F800BFFEE700BF502080F318
:100970001188BFF34F8FBFF36F8F00BF21F0B3F823
:100980000446214616A00DF0E6FC00BFFEE77047C6
:1009900010B50DF037FB10BD340000200000024000
:1009A000B8000020020000200004024000100140B6
:1009B0004C43445461736B004163747561746F728E
:1009C0005461736B00000000436C6F636B000000A8
:1009D000526561645F70485F5265646F7800000023
:1009E000667265654865617073697A65203D20258A
:1009F000640A00000CB50020019000907648006861
:100A000040F480307449086000BF7348006800F407
:100A1000003000900198401C0190009818B901988E
:100A2000B0F5A06FF1D16C48006800F4003010B14F
:100A30000120009001E0002000900098012846D19C
:100A400065484030006840F080506349403108609C
:100A50006248006840F48040604908605E480830A1
:100A600000685D49083108600846006840F40040AD
:100A700008600846006840F4A05008605848091F04
:100A80000860081F006840F08070091F086000BF00
:100A90005148006800F000700028F9D040F20520AD
:100AA000504908604C480830006820F003004A496B
:100AB000083108600846006840F00200086000BF86
:100AC00045480830006800F00C000828F8D10CBD3B
:100AD00010B54548006840F47000434908603E483E
:100AE000006840F001003C49086000203A490831A4
:100AF0000860394800683D490840374908603C486B
:100B0000091D0860081F006820F48020091F086084
:100B1000002031490C310860FFF76CFF4FF0006096
:100B200031498039086010BD70B5002000220223D1
:100B300000240221284D08352D6805F00C0020B155
:100B4000042806D0082834D107E02A4D2A4E356003
:100B500033E02A4D284E35602FE01F4D2D1D2D68A6
:100B6000C5F380541C4D2D1D2D6805F03F0154B177
:100B7000224DB5FBF1F5184E361D3668C6F38816C2
:100B800005FB06F209E01B4DB5FBF1F5124E361DD3
:100B90003668C6F3881605FB06F20F4D2D1D2D682D
:100BA000C5F301456D1C6B00B2FBF3F5124E3560C9
:100BB00003E0104D104E356000BF00BF064D0835F4
:100BC0002D68C5F303150E4E705D0B4D2D68C540A5
:100BD000094E356070BD00000038024000700040D2
:100BE00019544007003C024088ED00E0FFFFF6FE8C
:100BF000103000240024F4005000002000127A007D
:100C000054000020704700BFFEE700BFFEE700BFB2
:100C1000FEE700BFFEE7704708B5002000904020C7
:100C200015F041F8012804D16946114800681EF00A
:100C30006EFF402015F05BF84FF4803015F057F848
:100C4000009848B1009838B14FF0805009490860C9
:100C5000BFF34F8FBFF36F8F08BD7047704770476A
:100C600010B50121044813F03BFD01F0E4FD10BD77
:100C70008803002004ED00E0000C004000B58DB0BA
:100C80000021084617F0CEFC1D481DF025F90C90F8
:100C90006FF0FF001DF020F90B90194815381DF07A
:100CA0001BF90A9016208DF8240001208DF82500EC
:100CB000A8208DF82600C0208DF827009DF824007C
:100CC0009DF82510CDE900109DF826309DF82720CD
:100CD0000CA104A820F08CFF0E480F4900220AAB9B
:100CE000CDE9002102900BAA0CA90C4819F053F889
:100CF0000A4819F090F8094819F0DDF80DB000BD68
:100D00001601A8C0202025642E25642E25642E25DA
:100D100064000000D584010809F001083C040020AB
:100D200000B5AFB001214FF0606012F0F1FC14F09B
:100D30001BFA14F0A7FF00BF14F0ABFF0128FBD093
:100D4000684614F01CFA01200090002007904FF430
:100D500000700A9000200B900E9011901390149048
:100D6000159020904FF000702190001123900020EA
:100D70002590269004202890C005299040122A90A2
:100D800080012B9040122C9040002E90012168464B
:100D900014F0AFFA434908600121434814F090FF72
:100DA0002FB000BD08B54FF4A06011F0F9F93D2057
:100DB0008DF8000002208DF8010000208DF802005F
:100DC00001208DF80300684611F0EFF908BD1CB54D
:100DD0000121472012F09CFC0121880312F0DCFC69
:100DE000012012F002FE8E20009003208DF80500F5
:100DF00002208DF8040000208DF806008DF8070011
:100E000069462A4812F042FA0B220121274812F0C3
:100E1000C8FA0B220221254812F0C3FA0B22032143
:100E2000224812F0BEFA0B220721204812F0B9FA2C
:100E30004FF46050009069461D4812F027FA0B22CB
:100E400011461B4812F0ADFA0B220C21184812F083
:100E5000A8FA0B220D21164812F0A3FA32200090B6
:100E60006946144812F012FA0B220121114812F0BF
:100E700098FA0B2204210F4812F093FA0B22052155
:100E80000C4812F08EFA1CBD10B5FFF7A0FFFFF75B
:100E900089FFFFF745FF0348006808B900BFFEE778
:100EA00010BD00006400002040000100000002406E
:100EB0000004024000080240002114E001EB410060
:100EC0003D4A02EBC000007D60B9012001EB410208
:100ED000394B03EBC202107501EB41001A4602EBDD
:100EE000C0007047491C0A29E8DB0020F9E710B56B
:100EF000014600200FE000EB40022F4B03EBC20243
:100F00008A4207D1002200EB40032B4C04EBC303C1
:100F10001A7502E0401C0A28EDDB00BF10BD70B559
:100F20000646FFF7C9FF05460DB9002070BD234CEA
:100F300011E03046616821F029F958B9A0682860AD
:100F4000E0686860E068A8600020E860207C2874A1
:100F50002846EBE72468002CEBD12846FFF7C7FFB3
:100F60000020E3E710B504462046FFF7C0FF10BDA0
:100F70002DE9F04104460F461646D4E90110884297
:100F800003D14FF0FF30BDE8F081D4E90101451AEB
:100F9000B54200DD3546A268206881182A463846E9
:100FA00021F032F8A0682844A0602846EBE701460B
:100FB000D1E90102801A70477404002014EF02087E
:100FC00070B504467E4820F0A9FF05462A467C49B4
:100FD000204616F004FD70BD70B5044640F6AC51D5
:100FE000784821F05EF878A1764821F001F878A1E0
:100FF000744820F0FDFF78A1724820F0F9FF7DA130
:10100000704820F0F5FF87A16E4820F0F1FF90A115
:101010006C4820F0EDFF95A16A4820F0E9FF9EA101
:10102000684820F0E5FF9FA1664820F0E1FF9EA1FF
:10103000644820F0DDFFA2A1624820F0D9FFA8A1FA
:10104000604820F0D5FFAEA15E4820F0D1FFADA1F1
:101050005C4820F0CDFFADA15A4820F0C9FFBBA1EC
:10106000584820F0C5FFBEA1564820F0C1FFC0A1DE
:10107000544820F0BDFFC3A1524820F0B9FFC4A1DD
:10108000504820F0B5FF9EA14E4820F0B1FFC3A10B
:101090004C4820F0ADFFC2A14A4820F0A9FFC6A1EC
:1010A000484820F0A5FFC8A1464820F0A1FFCCA1E8
:1010B000444820F09DFFD1A1424820F099FF90A123
:1010C000404820F095FFD5A13E4820F091FFD9A1DE
:1010D0003C4820F08DFF8AA13A4820F089FFD9A131
:1010E000384820F085FFDBA1364820F081FFDFA1E2
:1010F000344820F07DFFE2A1324820F079FFE3A1DF
:10110000304820F075FF7EA12E4820F071FFE3A14A
:101110002C4820F06DFFE3A12A4820F069FFE6A1EA
:10112000284820F065FFE8A1264820F061FFEDA1E6
:10113000244820F05DFFD2A1224820F059FF70A181
:10114000204820F055FFEBA11E4820F051FFECA1F4
:101150001C4820F04DFFEDA11A4820F049FF8CA15A
:10116000184820F045FF87A1164820F041FF64A1F0
:10117000144820F03DFFEBA1124820F039FFEDA10B
:10118000104820F035FFF0A10E4820F031FFF2A109
:101190000C4820F02DFFF5A10A4820F029FFFAA104
:1011A000084820F025FFB1A1064820F021FF54A1F6
:1011B000044820F01DFFFBA1024820F019FFF9E1CF
:1011C00015F50208640700203C68746D6C3E000051
:1011D000203C686561643E00203C7469746C653E27
:1011E000576562207365727665723C2F7469746C02
:1011F000653E0000203C6D657461206E616D653D4B
:10120000226465736372697074696F6E2220636F04
:101210006E74656E743D2257656273657276657291
:10122000222F3E00203C6D657461206E616D653D2E
:10123000226B6579776F72642220636F6E74656EBE
:10124000743D227562756E7475222F3E0000000099
:10125000203C6D65746120636861727365743D2222
:101260007574662D38222F3E00000000203C6D650D
:10127000746120687474702D65717569763D227291
:101280006566726573682220636F6E74656E743D67
:101290002233223E00000000203C7374796C653ECE
:1012A000000000002A207B00626F782D73697A6944
:1012B0006E673A20626F726465722D626F783B00D0
:1012C0002D6D6F7A2D626F782D73697A696E673A2A
:1012D00020626F726465722D626F783B00000000BF
:1012E0002D7765626B69742D626F782D73697A69E9
:1012F0006E673A20626F726465722D626F783B0090
:101300007D000000626F6479207B0000666F6E7460
:101310002D66616D696C793A202248656C7665743A
:1013200069616361204E657565222C2048656C7685
:101330006574696163612C20417269616C2C207352
:10134000616E732D73657269663B0000666F6E7423
:101350002D7765696768743A2033303070783B00C8
:10136000636F6C6F723A20233333333B000000000D
:101370006C696E652D6865696768743A20312E3234
:1013800035343B006D617267696E3A20303B000076
:1013900070616464696E673A20303B0061207B00B5
:1013A000746578742D6465636F726174696F6E3AE9
:1013B000206E6F6E653B0000636F6C6F723A202386
:1013C0003362386262613B007472616E73666F7281
:1013D0006D3A20616C6C20302E35733B00000000AC
:1013E0002D6D6F7A2D7472616E73666F726D3A2017
:1013F000616C6C20302E35733B0000002D776562E8
:101400006B69742D7472616E73666F726D3A2061D0
:101410006C6C20302E35733B00000000613A686F21
:101420007665722C20613A76697369746564207BF5
:1014300000000000636F6C6F723A2023323635373C
:1014400037383B0023636F6E7461696E6572207B71
:101450000000000070616464696E672D6C656674DD
:101460003A2031353070783B00000000706F7369AE
:1014700074696F6E3A2072656C61746976653B00C1
:101480006C6566743A20303B000000007769647434
:10149000683A20313030253B00000000236D656E36
:1014A00075207B00706F736974696F6E3A2066698E
:1014B0007865643B000000006865696768743A20DD
:1014C000313030253B0000006261636B67726F75DD
:1014D0006E642D636F6C6F723A202331393138316D
:1014E000383B000077696474683A20313530707891
:1014F0003B000000236D656E75207B7D00000000C1
:10150000236D656E7520756C7B0000006C697374CB
:101510002D7374796C652D747970653A206E6F6ED9
:10152000653B0000236D656E7520756C206C69202D
:101530007B0000006C696E652D6865696768743AA8
:1015400020322E39656D3B006865696768743A2002
:10155000322E39656D3B20007472616E7369746957
:101560006F6E3A20616C6C2031733B002D6D6F7A89
:101570002D7472616E736974696F6E3A20616C6C60
:101580002031733B000000002D7765626B69742D7C
:101590007472616E736974696F6E3A20616C6C204D
:1015A00031733B00236D656E7520756C206C69206E
:1015B00061207B0094A1984820F01AFD97A19648DD
:1015C00020F016FD99A1944820F012FD9BA19248AD
:1015D00020F00EFDAFF2D8218F4820F009FD9FA129
:1015E0008D4820F005FDA2A18B4820F001FDAFF24F
:1015F000F021894820F0FCFCA4A1874820F0F8FCE9
:10160000A7A1854820F0F4FCA9A1834820F0F0FCB4
:10161000ACA1814820F0ECFCAFF2C0117E4820F074
:10162000E7FCAFF25C117C4820F0E2FCAFF2303115
:10163000794820F0DDFCA5A1774820F0D9FC72A103
:10164000754820F0D5FCAFF24831734820F0D0FC4B
:10165000A6A1714820F0CCFCA7A16F4820F0C8FCDF
:10166000AFF264316C4820F0C3FCA8A16A4820F0B6
:10167000BFFCADA1684820F0BBFCAFF27C316648EE
:1016800020F0B6FCAEA1644820F0B2FCAFA16248E5
:1016900020F0AEFCB5A1604820F0AAFCB8A15E48DD
:1016A00020F0A6FCBAA15C4820F0A2FCAFF2B03159
:1016B000594820F09DFCBBA1574820F099FCBEA1E1
:1016C000554820F095FCC1A1534820F091FCC6A1DB
:1016D000514820F08DFCAFF2D8314F4820F088FC03
:1016E000C8A14D4820F084FCC8A14B4820F080FCE4
:1016F000CBA1494820F07CFCAFF2FC31464820F0F9
:1017000077FCCCA1444820F073FCCDA1424820F0E6
:101710006FFCCFA1404820F06BFCD0A13E4820F0E8
:1017200067FCAFF224413C4820F062FCCFA13A486C
:1017300020F05EFCD3A1384820F05AFCD5A13648F1
:1017400020F056FCAFF24841334820F051FCD6A1BE
:10175000314820F04DFCBAA12F4820F049FCAFF2EF
:1017600060412D4820F044FCD3A12B4820F040FCE0
:10177000D4A1294820F03CFCD6A1274820F038FC11
:10178000DCA1254820F034FCDEA1234820F030FC09
:10179000AFF29441204820F02BFCDF491E4820F096
:1017A00027FCDE491C4820F023FCDDA11A4820F06C
:1017B0001FFCDEA1184820F01BFCDFA1164820F01A
:1017C00017FCDFA1144820F013FCE3A1124820F01D
:1017D0000FFCE6A1104820F00BFCE6A10E4820F01B
:1017E00007FCEEA10C4820F003FCF7A10A4820F00A
:1017F000FFFBFDA1084820F0FBFBFDA1064820F0FF
:10180000F7FBFDA102E20000646973706C61793A34
:1018100020626C6F636B3B0064070020636F6C6F2A
:10182000723A20236666663B0000000070616464C3
:10183000696E673A20302031656D3B00626F7264DB
:1018400065722D626F74746F6D3A203170782073F9
:101850006F6C696420233333333B0000236D656E66
:101860007520756C206C693A686F766572207B0014
:101870006261636B67726F756E642D636F6C6F72FC
:101880003A20233435343534353B0000236D656E02
:1018900075202E7375622D6D656E75207B000000BE
:1018A000646973706C61793A206E6F6E653B0000FD
:1018B000706F736974696F6E3A206162736F6C75D3
:1018C00074653B00746F703A20303B00236D656E89
:1018D0007520756C206C693A686F766572202E737E
:1018E00075622D6D656E757B0000000023636F6E61
:1018F00074656E74207B000070616464696E673A81
:101900002031656D2038656D3B00000023686561FE
:101910006465722C202E63616C6C2D746F2D616375
:1019200074696F6E207B0000746578742D616C693A
:10193000676E3A202063656E7465723B000000009C
:1019400023686561646572207B7D000023686561A2
:1019500064657220236C6F676F207B666F6E742DD9
:1019600073697A653A343070783B7D00236865612D
:101970006465722023736C6F67616E207B000000CA
:10198000636F6C6F723A203839393761303B000031
:10199000666F6E742D73697A653A20302E38656DE6
:1019A0003B0000002E63616C6C2D746F2D616374BD
:1019B000696F6E207B00000070616464696E673A35
:1019C00020312E35656D203230253B006261636B1E
:1019D00067726F756E642D636F6C6F723A20236649
:1019E00030666666663B0000626F726465723A201C
:1019F00031707820736F6C696420236538653865B1
:101A0000383B00002E726F77207B00006F76657286
:101A1000666C6F773A2068696464656E3B0000000D
:101A20006D617267696E3A20312E35656D20617582
:101A3000746F3B002E726F77202E636F6C207B00DB
:101A4000666C6F61743A206C6566743B0000000040
:101A500077696474683A203430253B006D617267A1
:101A6000696E3A2032656D3B000000002E726F7780
:101A7000202E636F6C3A6C6173742D6368696C64BB
:101A8000207B0000666C6F61743A2072696768742D
:101A90003B0000006D617267696E2D726967687442
:101AA0003A20303B000000002E726F77202E636FCB
:101AB0006C20696D67207B0023666F6F74657220F0
:101AC0007B000000666F6E742D73697A653A20386A
:101AD00035253B00626F726465722D746F703A2019
:101AE00031707820736F6C696420236536653665C4
:101AF000363B0000636F6C6F723A20233833383303
:101B000038333B0070616464696E673A2031656DFB
:101B10002033656D3B000000CC52050824530508B6
:101B20003C2F7374796C653E00000000203C2F68E8
:101B30006561643E00000000203C626F64793E00F5
:101B4000203C6469762069643D22636F6E7461692C
:101B50006E6572223E000000203C64697620696454
:101B60003D226D656E75223E00000000203C756CC4
:101B70003E000000203C6C693E3C61206872656656
:101B80003D222F686F6D65223E486F6D65706167FD
:101B9000653C2F613E3C2F6C693E0000203C6C6927
:101BA0003E3C6120687265663D222F7365747469DE
:101BB0006E67223E53657474696E67733C2F613E95
:101BC0003C2F6C693E000000203C6C693E3C61206B
:101BD000687265663D2223223E41626F75743C2F18
:101BE000613E3C2F6C693E00203C2F756C3E00002E
:101BF000203C2F6469763E00203C6469762069644D
:101C00003D22636F6E74656E74223E007F4820F043
:101C1000EFF97FA17D4820F0EBF982A17B4820F00D
:101C2000E7F98DA1794820F0E3F990A1774820F0F9
:101C3000DFF9AFF24401754820F0DAF995A1734855
:101C400020F0D6F998A1714820F0D2F99EA16F48F2
:101C500020F0CEF9A6A16D4820F0CAF9ACA16B48DE
:101C600020F0C6F9B1A1694820F0C2F9B7A16748D0
:101C700020F0BEF9BD49654820F0BAF9BCA163481F
:101C800020F0B6F9C4A1614820F0B2F9C4A15F48C0
:101C900020F0AEF9CE495D4820F0AAF9CDA15B480D
:101CA00020F0A6F9CF49594820F0A2F9AFF2C001BF
:101CB000564820F09DF9CCA1544820F099F9AB4941
:101CC000524820F095F9D0A1504820F091F9B2A1E6
:101CD0004E4820F08DF9D7A14C4820F089F9E14910
:101CE0004A4820F085F9BBA1484820F081F9DE4937
:101CF000464820F07DF9AFF20811444820F078F909
:101D0000DAA1424820F074F9DCA1404820F070F9D3
:101D1000DFA13E4820F06CF9AFF22C113B4820F0D7
:101D200067F9AFF23411394820F062F9AFF240118F
:101D3000364820F05DF9DFA1344820F059F9E0A1E0
:101D4000324820F055F9314820F0E8F805462A4697
:101D50002E49204615F043FE70BD70B50446DB48A1
:101D600020F0DCF805462A46D849204615F037FE13
:101D700070BD70B50446D64820F0D0F805462A4616
:101D8000D349204615F02BFE70BD3EB504464FF4F6
:101D90000071D04820F085F9CF480068401CCE493A
:101DA00008600846CDA1026868461FF021FF694619
:101DB000C84820F01DF9CAA1C64820F019F9D5A1DC
:101DC000C44820F015F9C34820F0A8F8C1494518C7
:101DD00028461FF0CBF9DDA1BE4820F009F9E9A1A2
:101DE000BC4820F005F9F64820F098F805462A4648
:101DF000F349204615F0F3FDB64820F08FF805466C
:101E00002A46B449204615F0EAFD3EBD640700208D
:101E1000203C6469762069643D226865616465726E
:101E2000223E0000203C6469762069643D226C6F8C
:101E3000676F223E486F6D65706167652057656208
:101E400053657276657220666F722073797374655C
:101E50006D3C2F6469763E00203C6469762069649D
:101E60003D22736C6F67616E223E0000203C703E25
:101E700057656220636F6E74726F6C2064656D6F5E
:101E800020666F722053544D3332463478783C2F9D
:101E9000703E0000203C2F6469763E3C21686561FD
:101EA0006465723E00000000203C64697620636C2B
:101EB0006173733D2263616C6C2D746F2D6163746B
:101EC000696F6E223E000000203C68333E4C434464
:101ED00020776174657220636F6E74726F6C207608
:101EE000696120776562736974653C2F68333E00D1
:101EF000203C703E704820616E64205265646F78AB
:101F000020636F6E74726F6C3C2F703E0000000097
:101F1000203C2F6469763E3C2163616C6C2D746FAC
:101F20002D616374696F6E3E00000000203C64699F
:101F30007620636C6173733D22726F77222069642F
:101F40003D22696E74726F223E000000203C64697D
:101F5000762069643D22626F78312220636C617360
:101F6000733D22636F6C223E00000000945105080F
:101F70003C6833207374796C653D22746578742DE8
:101F8000616C69676E3A63656E7465723B223E7080
:101F9000483C2F68333E00003C2F6469763E0000C9
:101FA0003C68312069643D227048223E70483A20E6
:101FB0003C7370616E207374796C653D22636F6C45
:101FC0006F723A23303039454532223E000000001E
:101FD0008D0000203C2F7370616E3E3C2F68313EB7
:101FE00000000000EC510508203C6469762069641B
:101FF0003D22626F78322220636C6173733D2263ED
:102000006F6C223E000000003C6833207374796CD2
:10201000653D22746578742D616C69676E3A6365FD
:102020006E7465723B223E5265646F783C2F683354
:102030003E0000003C68312069643D227048223E29
:102040005265646F783A203C7370616E20737479C6
:102050006C653D22636F6C6F723A233030394545B1
:1020600032223E00890000205C520508203C2F648B
:1020700069763E3C21726F773E000000203C646927
:10208000762069643D22666F6F746572223E00009F
:10209000203C703E436F707972696768743A2043E0
:1020A000686175205068756F632056753C2F703ECF
:1020B00000000000203C2F626F64793E00000000A9
:1020C000203C2F68746D6C3E000000001FFF02086A
:1020D000D7FB02086405002068000020256400008A
:1020E0003C7072653E3C62723E4E616D6520202000
:1020F00020202020202020537461746520205072FD
:10210000696F726974792020537461636B20202099
:102110004E756D003C62723E2D2D2D2D2D2D2D2DD9
:102120002D2D2D2D2D2D2D2D2D2D2D2D2D2D2D2DDF
:102130002D2D2D2D2D2D2D2D2D2D2D2D2D2D2D2DCF
:102140002D2D2D2D2D3C62723E0000003C62723E12
:102150003C62723E2D2D2D2D2D2D2D2D2D2D2D2D15
:102160002D2D2D2D2D2D2D2D2D2D2D2D2D2D2D2D9F
:102170002D2D2D2D2D2D2D2D2D2D2D2D2D2D2D2D8F
:102180002D0000003C62723E42203A20426C6F6398
:102190006B65642C2052203A2052656164792C20B2
:1021A00044203A2044656C657465642C2053203AC1
:1021B0002053757370656E6465643C62723E000006
:1021C00028EF02082DE9F047ADF5BF6D074640F254
:1021D000DC5A0026524607A9384615F0E2FA804636
:1021E000B8F1000F03DA0DF5BF6DBDE8F0871B22D3
:1021F000CDA107A81FF0B1FE88B9CCA0FEF78FFED5
:10220000044607A80CF0A7F83846D4E9001215F0E8
:10221000E6FB002C02D02046FEF7A4FE3CE11E2285
:10222000C8A107A81FF099FE88B9C7A0FEF777FEDE
:10223000044607A80CF08FF83846D4E9001215F0D0
:10224000CEFB002CEAD02046FEF78CFE24E11D22B6
:10225000C4A107A81FF081FE88B9C3A0FEF75FFEE6
:10226000044607A80CF077F83846D4E9001215F0B8
:10227000B6FB002CD2D02046FEF774FE0CE11822EB
:10228000C0A107A81FF069FE30B907A80CF063F8D9
:102290003846FFF77AFDFFE01322C1A107A81FF01F
:1022A0005CFE88B9BFA0FEF73AFE044607A80CF012
:1022B00052F83846D4E9001215F091FB002CADD04D
:1022C0002046FEF74FFEE7E00622BAA107A81FF05E
:1022D00044FE18B93846FFF74CFDDDE0B7A107A86A
:1022E0001FF0BAFD002844D0B6A107A81FF0B4FD26
:1022F00000283ED0B1A107A81FF0AEFD851D00202B
:10230000049005900690B1A107A81FF0A5FDA0EBD1
:1023100005094A46294604A81FF00CFFA9A107A8F1
:102320001FF09AFD451D0020019002900390294660
:1023300001A81FF0CFFDA748016804A81FF026FFE1
:1023400028B9A548016801A81FF020FF08B10120A5
:1023500000E0002030B93846FEF73EFE00209F49DD
:10236000087005E03846FEF72BFE01209B490870F7
:1023700092E00C229AA107A81FF0EFFD18B9384689
:10238000FFF7EBFC88E0092299A107A81FF0E5FD03
:1023900028B10A2299A107A81FF0DFFD18B9384615
:1023A000FEF71AFE78E098A107A81FF055FD18B1B6
:1023B0003846FEF705FE6FE094A107A81FF04CFD1C
:1023C000002859D093A107A81FF046FD002853D03C
:1023D00093A107A81FF040FD00284DD09348007836
:1023E000002845D1069089A107A81FF035FD451D9D
:1023F00088A107A81FF030FDA0EB05094A46294631
:1024000006A81FF097FE06A81FF019FD884908705E
:1024100080A107A81FF020FD00F1080580A107A8F2
:102420001FF01AFDA0EB05094A46294606A81FF031
:1024300081FE06A81FF003FD7E49087078A107A859
:102440001FF00AFD00F108057BA107A81FF004FD9D
:10245000A0EB05094A46294606A81FF06BFE06A810
:102460001FF0EDFC7549087001207049087000BF2D
:102470003846FEF7A5FD0FE071A0FEF750FD0446BB
:1024800007A80BF068FF3846D4E9001215F0A7FA48
:1024900014B12046FEF766FD03E0002007A9885529
:1024A000761C40F2DC508642F7DB384614F0CAFF57
:1024B00000BF98E670B58AB00646002201210220CE
:1024C00015F044FA041E01DA0AB070BD02208DF83E
:1024D000150050201BF0F9FDADF816000020069005
:1024E000102205A9204614F055FF002800DAEBE77A
:1024F0000521204615F020F81020099008E009AACF
:1025000001A9204614F08FFE05462846FFF75AFE23
:10251000F5E708B504204FF47A7300224B49009088
:102520004BA01CF094FE08BD474554202F53544D3A
:102530003332463478375F66696C65732F53542E97
:1025400067696600474554202F53544D3332463453
:1025500078375F66696C65732F73746D33322E6ADA
:1025600070670000474554202F53544D3332463492
:1025700078375F66696C65732F6C6F676F2E6A7052
:1025800067000000474554202F53544D33324634E2
:1025900078375441534B532E68746D6C0000000023
:1025A000474554202F53544D3332463478372E68E4
:1025B000746D6C00474554202F200000756E616DCE
:1025C000653D0000267073773D000000267073772C
:1025D000000000008000002084000020880000200F
:1025E000474554202F73657474696E6700000000BE
:1025F000474554202F686F6D650000004745542003
:102600002F6C6F67696E000070483D00686F7572CF
:102610003D000000266D696E7574653D0000000088
:10262000267365636F6E643D000000007C0000202F
:102630009C0000209D0000202F3000009E00002004
:102640002F3430342E68746D6C000000B5240008FF
:1026500048545450534552564552000070477047F5
:1026600010B50121084611F053F810BD10B510F057
:102670000DFAFFF7F5FFFFF7F2FFFFF7EFFF10BDD1
:102680000EB54FF49670019041F26800ADF800006D
:102690000020ADF808001020ADF80200694682481D
:1026A00011F055FB0021804811F0B0FB01217E485C
:1026B00012F016F8012211467B4811F0E9FF4FF4A1
:1026C0007A7001902A20ADF800000020ADF80800D3
:1026D000ADF802006946754811F039FB00217348D6
:1026E00011F094FB0121714811F0FAFF012211460B
:1026F0006E4811F0CDFF00216B4811F0B1FB0021B5
:102700006A4811F0ADFB00214FF0804011F0A8FBAA
:102710000EBD10B50121022011F02DF80121042079
:1027200011F029F810BD10B5FFF7F3FFFFF7A8FF70
:1027300010BD1CB51D208DF8040000208DF805008B
:102740008DF8060001208DF8070001A80FF02DFD7F
:102750001E208DF8040002208DF805008DF806007B
:1027600001208DF8070001A80FF01FFD32208DF821
:10277000000007208DF8010000208DF802000120E4
:102780008DF8030068460FF010FD1CBD10B504461F
:10279000474804800021454811F022FB01214348AD
:1027A00011F05EFB00BF424800880028FBD10021E9
:1027B0003E4811F055FB10BD38B504463C48048036
:1027C0001E208DF8000000208DF801008DF8020019
:1027D00001208DF8030068460FF0E7FC0121334823
:1027E00011F07EFF0021314811F0FAFA01212F4843
:1027F00011F036FB00BF2E4800880028FBD10021D5
:102800002A4811F02DFB1E208DF8000002208DF8C3
:1028100001008DF8020001208DF8030068460FF0DA
:10282000C4FC38BD2248008820B121480088401EE1
:102830001F49088070471F48008820B11D48008844
:10284000401E1C49088070471CB50121042010F06F
:10285000A3FF00208DF804008DF807008020009071
:102860006946154810F012FD1CBD10B50446012143
:102870000D4811F035FF21460B4811F0B1FA012146
:10288000094811F0EDFA10BD10B50021064811F00D
:10289000E7FA10BD4FF0E020006920F003004FF090
:1028A000E02108617047000000040040000800407B
:1028B000940000204400002000080240014600204F
:1028C0000A6890B2704701460020086870470146C8
:1028D00000200A6890B20A2800DD0020704700B589
:1028E000F848FFF7F4FFF8490870F6485C38FFF73E
:1028F000EEFFF6490870F3485A38FFF7E8FFF4494D
:102900000870F0485638FFF7E2FFF2490870ED48CA
:102910005838FFF7DCFFF0490870EA480E38FFF737
:10292000CDFFEE490870E7480C38FFF7C7FFEC49C8
:102930000870E4485438FFF7C1FFEA490880E148CD
:102940005238FFF7BBFFE8490880DE481038FFF730
:10295000B5FFE6490880DB48001DFFF7AFFFE449FB
:102960000870D848801DFFF7A9FFE2490870D548D4
:102970000830FFF7A3FFE0490870D2485038FFF74E
:10298000A2FFDE49086008460068401C28B9B1EE85
:10299000000ADB4880ED000A05E0D84890ED000A07
:1029A000D74880ED000AC7484038FFF78CFFD3496D
:1029B000086008460068401C28B9B6EE000AD148F5
:1029C00080ED000A05E0CD4890ED000ACD4880ED8D
:1029D000000ABC483038FFF776FFC849086008464F
:1029E0000068401C28B99FEDC80AC84880ED000A5D
:1029F00005E0C24890ED000AC44880ED000AB148E5
:102A00002038FFF760FFBD49086008460068401C99
:102A100028B9B6EE000ABE4880ED000A05E0B748C6
:102A200090ED000ABA4880ED000AA6481030FFF782
:102A30004AFFB249086008460068401C28B9B3EE56
:102A4000090AB44880ED000A05E0AC4890ED000AA0
:102A5000B04880ED000A9FEDB00BB14880ED000B4F
:102A600098483030FFF72FFFA449086008460068F7
:102A7000401C28B99FEDAB0AAB4880ED000A05E089
:102A80009E4890ED000AA84880ED000A8D48603805
:102A9000FFF714FFA54908808A485E38FFF70EFF4C
:102AA000A349088008460088A24908808B4800781E
:102AB00040B2A14908708A48007840B29F49087026
:102AC0009A4800889E490880994800889D49088056
:102AD000864800889C4908808C4890ED000A9B48F5
:102AE00080ED000A8A4890ED000A994880ED000ABE
:102AF00000BD10B512F00AF9F32012F020FB0221FC
:102B0000402012F04FF9082801D0012010BD87485D
:102B100001886C48603812F017FA082801D00120AB
:102B2000F4E78348018867485E3812F00DFA0828F8
:102B300001D00120EAE76548017862485C3812F06C
:102B400003FA082801D00120E0E7614801785D48D8
:102B50005A3812F0F9F9082801D00120D6E75E486A
:102B600001785848583812F0EFF9082801D00120B0
:102B7000CCE7584801785348563812F0E5F9082850
:102B800001D00120C2E7574801884E48543812F05E
:102B9000DBF9082801D00120B8E7534801884948EB
:102BA000523812F0D1F9082801D00120AEE754487C
:102BB00090ED000A514880ED000A01684148503804
:102BC00012F099F9082801D001209FE74D4890EDB7
:102BD000000A4A4880ED000A01683A48403812F07D
:102BE0008AF9082801D0012090E7484890ED000AB2
:102BF000424880ED000A01683248303812F07BF913
:102C0000082801D0012081E7414890ED000A3B48A7
:102C100080ED000A01682B48203812F06CF9082872
:102C200001D0012072E73B4890ED000A334880ED67
:102C3000000A01682348103012F05DF9082801D01D
:102C4000012063E7364890ED000B51EC100B20F0AB
:102C50008FFF2A490860084601681A48203012F0A0
:102C60004AF9082801D0012050E72F4890ED000ACA
:102C7000224880ED000A01681248303012F03BF91A
:102C8000082801D0012041E7184801880D48103874
:102C900012F05AF9082801D0012037E70F480178CF
:102CA00008480E3812F050F9082801D001202DE70D
:102CB0000B48017803480C3812F046F9082849D02F
:102CC000012023E760000808AE000020AF000020CC
:102CD000B0000020B2000020B1000020B3000020AE
:102CE000B4000020BA000020BC000020BE0000207C
:102CF0009C0000209D0000209E00002098000020E5
:102D0000C0000020C80000206666C640CC0000203D
:102D1000D0000020C4000020D15790662C9ABE3FFE
:102D200038000020033E3F3DA8000020B6000020F0
:102D3000B800002002000020D4000020D5000020B0
:102D4000D6000020D8000020E4000020F000002081
:102D5000F400002015480178154812F0F5F808280D
:102D600001D00120D2E6134801781148001D12F06D
:102D7000EBF8082801D00120C8E60F4801780C487C
:102D8000801D12F0E1F8082801D00120BEE60B48B2
:102D900001780748083012F0D7F8082801D0012040
:102DA000B4E611F0C0FF0020B0E60000AE00002045
:102DB000600008089C0000209D0000209E0000206C
:102DC0002DE9F05F2DED028B82468B46B0EE408AF6
:102DD000F0EE608A16461F46DDF83080B8F1000F2D
:102DE0000AD0B8F1020F03D0B8F1090F06D101E003
:102DF000042404E0052402E0012400E000BF00BF39
:102E0000F019401C00EB040948461EF09BFE0546E5
:102E1000B8F1000F0DD0B8F1020F03D0B8F1090FCF
:102E200015D10DE053EC182BF1A128461EF0E0FE61
:102E30000EE053EC182BF1A128461EF0D9FE07E056
:102E400053EC182BEFA128461EF0D2FE00E000BF85
:102E500000BF2A46594650460CF099F828461EF005
:102E6000A0FEBDEC028BBDE8F09F10B50246012329
:102E700041B1002004E003FB02F4A3B2441C20B2E1
:102E80008842F8DB184610BD2DE9FF5F91461C46CD
:102E9000DDF83880B8F1090F11D2DFE808F00E1024
:102EA00010050C0B0809060000BF042508E000BF50
:102EB000062505E000BF032502E0012500E000BF74
:102EC00000BF04EB050A50461EF03CFE06460022F9
:102ED0006119491E7254B8F1090F5DD2DFE808F09C
:102EE0005B5C5C051252283D1B006C216019801E42
:102EF00031546D216019C01E315420216019001F0A
:102F000031544AE04C216019801E3154202160194F
:102F1000C01E315441E056216019801E31546D218C
:102F20006019C01E315420216019001F315434E053
:102F30006C216019801E31542F216019C01E31543C
:102F400067216019001F31546D216019401F3154F1
:102F500020216019801F31541FE068216019801EF4
:102F600031542F216019C01E315467216019001F90
:102F700031546D216019401F315420216019801F88
:102F800031540AE06D216019801E315420216019EE
:102F9000C01E315401E000E000BF00BF002713E075
:102FA000E01B81B20A20FFF760FF99FBF0F100FB04
:102FB000119BE01B401E81B20A20FFF756FF9BFBCE
:102FC000F0F03030F0557F1CA742E9DB3246DDE9F6
:102FD00000010BF0DCFF30461EF0E3FDBDE8FF9F73
:102FE00010B52DED028B84B08848008822287DD250
:102FF000DFE800F07C11FDFCFBFA7CF9F8F7F6F550
:10300000F4F3F2F1F0EFEEEDECEBEAE9E8E7E6E5F8
:10301000E4E3E2E1E0DF00214FF6FF700BF08CFD0E
:103020007B480BF0A6FD7B48007800907A48037837
:103030007A4802787AA102A81EF0DAFD02AA82215B
:1030400014200BF0A4FF7948007830B1012834D067
:10305000022859D003287DD16AE04FF6686100202C
:103060000BF06AFD72480BF084FD7248006821F095
:103070007BFA41EC180B002001231A46B0EE480AF7
:10308000F0EE680A642100908220FFF799FE604804
:103090000BF06FFD6748006821F066FA41EC180BF1
:1030A000002001231A46B0EE480AF0EE680AAA2171
:1030B00000905020FFF784FE51E04FF66861002039
:1030C0000BF03AFD5A480BF054FD5B4890ED000BB5
:1030D00051EC100B20F08AFF84B20020032322461B
:1030E000642100908220FFF7CFFE00E0FDE2484817
:1030F0000BF03FFD082003230090504802888721F1
:103100005020FFF7C1FE2AE04FF6686100200BF067
:1031100013FD47480BF02DFD00200090484890F922
:10312000000082B2022364218220FFF7ADFE16E088
:1031300045F2AA2100200BF0FFFC3D480BF019FDE1
:10314000002000903F4890F9000082B202236421E1
:10315000822000E002E0FFF797FE00E000BF00BF22
:1031600040F2FC4100200BF0E7FC31480BF001FD80
:10317000002001231A460090334890ED000B4FF4D5
:10318000A5718220FFF71CFE21480BF0F2FC2F48AE
:10319000006821F0E9F941EC180B002001231A46E0
:1031A000B0EE480AF0EE680A4FF4C8710090502063
:1031B0004EE099E228E2EFE1EDE1B4E1B2E17EE137
:1031C0007CE156E130E182E2E7E0E5E088E286E298
:1031D00084E282E280E27EE27BE27BE2CAE0B7E068
:1031E00081E28FE08DE07DE272E253E233E078E24B
:1031F00025312E31662070480000000025312E3127
:103200006600000025312E31666F43001801002052
:10321000F80100209E0000209D0000209C0000205E
:103220002532643A2532643A25326400B200002027
:10323000F0010020F400002018000020E40000202D
:10324000D4000020D500002008000020F00000205D
:10325000FFF7B6FD4AE24FF6686100200BF06CFC08
:10326000F8480BF086FC03200090F748D0ED000AE8
:10327000F64890ED000AB8EE400A20EE800ABCEE57
:10328000C00A10EE100A82B2032355217820FFF7FE
:10329000FBFDEF480BF06DFC032003464FF4C872B2
:1032A0009B2100904620FFF7EFFD40F2FC410020FB
:1032B0000BF042FCE3480BF05CFC03200090E2487A
:1032C000D0ED000AE34890ED000AB8EE400A20EE87
:1032D000800ABCEEC00A10EE100A82B2032340F24C
:1032E0003B117820FFF7D0FDD9480BF042FC0320BA
:1032F0000346C82240F2811100904620FFF7C4FD2A
:10330000F4E100BF45F2AA214FF6FF700BF014FC68
:10331000CC480BF02EFC042002230090CE480288FB
:1033200069216420FFF7B0FD45F2AA214FF6FF7036
:103330000BF002FCC3480BF01CFC0520022300909C
:10334000C648028840F23B116420FFF79DFDCDE1A5
:1033500047F2C5514FF6FF700BF0EEFBB9480BF08A
:1033600008FC002002230F22C32100909620FFF7C3
:103370008BFDBBE14EF2E3014FF6FF700BF0DCFB7F
:10338000B0480BF0F6FB002002231422C32100906A
:103390009620FFF779FDA9E100BF4FF66861002094
:1033A0000BF0CAFBA7480BF0E4FBAD48006821F026
:1033B000DBF841EC180B002001231A46B0EE480A56
:1033C000F0EE680A642100900846FFF7F9FCA04877
:1033D0000BF0CFFBA3A2A5216E200BF0D8FD40F28D
:1033E000FC4100200BF0A8FB96480BF0C2FB9F4865
:1033F000006821F0B9F841EC180B002001231A46AF
:10340000B0EE480AF0EE680A4FF4A571009064200F
:10341000FFF7D6FC8E480BF0ACFB95A240F28B1167
:103420006E200BF0B4FD61E140F2FC4100200BF096
:1034300083FB84480BF09DFB8E48006821F094F8D4
:1034400041EC180B002001231A46B0EE480AF0EEBA
:10345000680A4FF4A57100906420FFF7B1FC7C4826
:103460000BF087FB82A240F28B116E200BF08FFDD8
:103470003CE14FF6686100200BF05EFB71480BF0F9
:1034800078FB7D48006821F06FF841EC180B0020B4
:1034900001231A46B0EE480AF0EE680A4FF4A5710F
:1034A00000906420FFF78CFC69480BF062FB73A26C
:1034B00040F28B116E200BF06AFD17E100BF4FF652
:1034C000686100200BF038FB5E480BF052FB0820CF
:1034D000032300906B48028864210846FFF7D4FC60
:1034E00040F2FC4100200BF027FB56480BF041FB5B
:1034F0005E48006821F038F841EC180B00200123E9
:103500001A46B0EE480AF0EE680A4FF4A571009032
:103510006420FFF755FC56A240F28B1164200BF09B
:1035200036FDE3E000BF4FF6686100200BF004FBBE
:1035300044480BF01EFB00200090534890F9000017
:1035400082B2022364210846FFF79EFC40F2FC4150
:1035500000200BF0F1FA3B480BF00BFB43480068EE
:1035600021F002F841EC180B002001231A46B0EEBE
:10357000480AF0EE680A4FF4A57100906420FFF746
:103580001FFC33480BF0F5FA39A240F28B116E2084
:103590000BF0FDFCAAE000BF45F2AA2100200BF0D1
:1035A000CBFA28480BF0E5FA00200090374890F954
:1035B000000082B2022364210846FFF765FC40F256
:1035C000FC4100200BF0B8FA1E480BF0D2FA274855
:1035D000006820F0C9FF41EC180B002001231A46B7
:1035E000B0EE480AF0EE680A4FF4A571009064202E
:1035F000FFF7E6FB16480BF0BCFA1DA240F28B1158
:103600006E200BF0C4FC71E045F2AA214FF6FF706A
:103610000BF092FA0B480BF0ACFA1D48006820F052
:10362000A3FF41EC180B092001230222B0EE480A47
:10363000F0EE680A4FF4A57100906420FFF7C0FB1C
:1036400054E00000F001002028000020300000209D
:10365000F80100202C000020D6000020D800002017
:10366000F40000206D672F6C00000000F0000020C7
:1036700070480000E8000020EC0000206D672F6813
:1036800000000000E4000020D4000020D50000204D
:10369000E000002045F2AA214FF6FF700BF04CFA33
:1036A00015480BF066FA1548006820F05DFF41EC04
:1036B000180B092001230222B0EE480AF0EE680A36
:1036C0004FF4A57100906420FFF77AFB0EE000BF75
:1036D00000BF00BF00BF00BF00BF00BF00BF00BFF2
:1036E00000BF00BF00BF00BF00E000BF00BF04B0CC
:1036F000BDEC028B10BD0000F0010020DC000020BA
:1037000000B58DB00121084610F002F80121080231
:1037100010F042F84120019003208DF808000020AD
:103720008DF80B0001A924480FF0B0FD0020039094
:1037300004900590069003A80EF0DCFD0EF0A0FDAD
:10374000002007908DF820008DF8210009900A9044
:103750000B9001208DF8300007A918480EF09BFD52
:10376000012116480EF0DDFD0DB000BD10B5044678
:1037700004230122214611480EF013FE0F480EF0DB
:103780006CFE00BF02210D480EF088FF0028F9D022
:103790000A480EF09EFE40F6E441484340F6FF71B1
:1037A00090FBF1F000EE100AB8EEC00A044880ED7C
:1037B000000A90ED000A10BD000002400020014008
:1037C000A40000201CB5012108460FF0A1FF302005
:1037D000009001208DF8040000208DF806000320E1
:1037E0008DF8050000208DF80700694606480FF0A7
:1037F0004DFD1CBD18B1012803D10A8302E04A83A4
:1038000000E000BF00BF704700000240F0EE400A39
:103810009FED090A30EE800A084890ED001A20EE6C
:10382000011A074890ED000ADFED031A70EE211A25
:1038300081EE210A7047000033938843A8000020DE
:10384000C400002010B5012175480FF09DFD4FF414
:103850001670FCF7A9FD012171480FF093FD64205B
:10386000FCF7A2FD01216E480FF072FD28B94FF45C
:10387000FA70FCF799FD012010BD4FF4FA70FCF7C7
:1038800093FD0020F8E710B5012165480FF07CFD9D
:103890000220FCF789FD012161480FF073FD0A2029
:1038A000FCF782FD01215E480FF052FD20B93A205D
:1038B000FCF77AFD002010BD3A20FCF775FD0120D1
:1038C000F9E770B50025002406E0FFF7DCFFA04013
:1038D0002843C5B2601CC4B2082CF6DB284670BD74
:1038E0002DE9F0410446012504EA0507002623E0FE
:1038F00077B101214A480FF047FD0320FCF754FD42
:10390000012147480FF03EFD5A20FCF74DFD0DE028
:10391000012143480FF038FD5A20FCF745FD0121F5
:103920003F480FF02FFD0320FCF73EFD6806050E13
:1039300004EA0507701CC6B2082ED9DBBDE8F08189
:103940002DE9F0473320FFF7CBFFFFF7BAFF04461E
:10395000FFF7B7FF00260546FFF7B3FF0002054358
:1039600046EAE076FFF7ADFF0004054346EAE0765D
:10397000FFF7A7FF81464FEA0960310241EA156C63
:1039800040EA05214CEAE07841EA0407384641461E
:10399000BDE8F08710B504462046FFF7A1FF442C90
:1039A00006D100BF01211E480FF0D2FC0028F9D03B
:1039B00010BD10B504462046FFF792FF10BD2DE95B
:1039C000F0412DED028B01259FED160AB0EE408AE5
:1039D000FFF777FF0646FFF774FF074646EA07281A
:1039E0006C1F14E008EA050058B100EE104AF8EE2A
:1039F000C00AB0EE000A1FF05BFD30EE080AB0EE20
:103A0000408A4FF6FF7000EA4505601C44B2072C5F
:103A1000E8DBB0EE480ABDEC028BBDE8F0810000A7
:103A2000000402400000000010B5FA48006809F0E8
:103A30009CFC01F050F810BD10B5F648006809F084
:103A400094FC04F012FF10BD10B5F248006809F0B4
:103A50008CFC00F0F2FE10BD10B5EE48006809F0D5
:103A600084FC01F0DEFA10BD10B5EA48006809F0E8
:103A70007CFC03F055F810BD10B5E648006809F06D
:103A800074FCE548007808B101F044F901F087F9C9
:103A900010BD10B5DF48006809F067FC04F046FE71
:103AA00010BD10B5FFF725F810BD10B50020DA499C
:103AB0000870DA490860DA490860D648006809F0F9
:103AC00054FC01F008F810BD10B50020D249087070
:103AD000D2490860D2490860CE48006809F045FC28
:103AE00000F0ABFE10BD10B5CB48007830B1012816
:103AF00008D002280AD0032814D10FE00220C649BA
:103B0000087010E00320C44908700CE0C148006848
:103B100009F02BFC0020C049087004E00120BE49D8
:103B2000087000E000BF00BF01F039F910BD10B50A
:103B3000B948007830B1012808D002280ED00328F7
:103B400014D10FE00120B449087010E0B1480068BA
:103B500009F00BFC0020B049087008E00320AE49D2
:103B6000087004E00220AC49087000E000BF00BF0C
:103B700001F015F910BD10B5A648006809F0F5FB75
:103B800000F0A9FF10BD10B5A248006809F0EDFBD8
:103B900000F053FE10BD10B59E48006809F0E5FB2B
:103BA00001F084FB10BD10B59A48006809F0DDFBF8
:103BB00001F074FE10BD10B59648006809F0D5FB01
:103BC0009848007830B1012807D0022808D003288F
:103BD0000CD108E002F06FFC09E003F068FB06E09E
:103BE00003F001FE03E004F078F800E000BF00BF3E
:103BF00010BD10B58748006809F0B7FB01F011FA55
:103C000010BD10B58348006809F0AFFB00F015FE49
:103C100010BD85480088401C8349088008460088FC
:103C2000322801DD3220088070477F480088401E1E
:103C30007D4908800846008808B900200880704740
:103C40007948008879490880704710B57148006844
:103C500009F08BFB01F04AFC10BD10B56D480068FF
:103C600009F083FB01F0DDF910BD10B5694800686B
:103C700009F07BFB00F0E1FD10BD6D480088401CA1
:103C80006B49088008460088182801DD1820088044
:103C9000704767480088401E6549088008460088CC
:103CA000062800D108807047614800886149088073
:103CB000704710B55748006809F057FB01F0F6FA55
:103CC00010BD10B55348006809F04FFB01F0A9F989
:103CD00010BD10B54F48006809F047FB00F0ADFD7E
:103CE00010BD0020544908707047012052490870E7
:103CF000704710B50220504908704648006809F026
:103D000034FB01F090FF10BD00204C490870704753
:103D100001204A49087070470220484908707047DE
:103D200010B50020464908703A48006809F01DFBAC
:103D300001F0EAFF10BD01204149087070470220E0
:103D40003F490870704710B53248006809F00DFB14
:103D500001F0A4FD10BD10B52E48006809F005FB68
:103D600001F09CFD10BD10B52A48006809F0FDFA6D
:103D700001F094FD10BD10B52648006809F0F5FA71
:103D800002F0DEFF10BD10B52248006809F0EDFA20
:103D900002F0D6FF10BD10B51E48006809F0E5FA24
:103DA000002028490870B1EE000A274880ED000A7B
:103DB0009FED260A264880ED000A9FED240A25483B
:103DC00080ED000A9FED210A234880ED000A9FED57
:103DD0001F0A224880ED000A9FED1C0A204880ED52
:103DE000000A9FED1A0A1F4880ED000A02F0A8FFA2
:103DF00010BD10B50748006809F0B7FA03F032F9B2
:103E000010BD10B50348006809F0AFFA03F02AF9B5
:103E100010BD000014010020AD0000202C00002087
:103E200030000020B2000020D6000020B6000020A4
:103E3000D8000020B8000020AF000020B000002013
:103E4000B1000020F8000020E80000200000000081
:103E5000FC000020000100200401002008010020D7
:103E60000C0100201001002010B5F748006809F08F
:103E70007CFA01F013FD10BD10B5F348006809F09D
:103E800074FA01F00BFD10BD10B5EF48006809F0A1
:103E90006CFA01F0C6F810BD10B5EB48006809F0E7
:103EA00064FA00F0CAFC10BDE84890ED000ADFEDAE
:103EB000E80A30EE200A80ED000A90ED000ADFEDFE
:103EC000E50AB4EEE00AF1EE10FA03DD9FEDE10A37
:103ED00080ED000A7047DD4890ED000ADFEDDC0A56
:103EE00030EE600A80ED000A90ED000AF1EE0A0A59
:103EF000B4EEE00AF1EE10FA03D2B1EE0A0A80ED58
:103F0000000A7047D14890ED000AD34880ED000ABE
:103F1000704710B5CC48006809F027FA02F0ACFCF5
:103F200010BD10B5C848006809F01FFA01F079F813
:103F300010BD10B5C448006809F017FA00F07DFC08
:103F400010BDC64890ED000ADFEDC10A30EE200A30
:103F500080ED000A90ED000ADFEDC10AB4EEE00A40
:103F6000F1EE10FA03DD9FEDBE0A80ED000A704706
:103F7000BA4890ED000ADFEDB60A30EE600A80ED37
:103F8000000A90ED000AF6EE000AB4EEE00AF1EE47
:103F900010FA03D2B6EE000A80ED000A7047AF486F
:103FA00090ED000AAF4880ED000A704710B5A648B2
:103FB000006809F0DAF902F07EFA10BD10B5A248E7
:103FC000006809F0D2F900F086FD10BD10B59E48DA
:103FD000006809F0CAF900F030FC10BD10B59A482D
:103FE000006809F0C2F903F03DF89748006809F04D
:103FF000BCF902F077F810BD10B59348006809F0DD
:10400000B4F902F09DFE9048006809F0AEF901F0A5
:1040100047FF10BD10B58C48006809F0A6F904F000
:1040200001F910BD10B58848006809F09EF904F048
:104030000FFA10BD10B58448006809F096F9012008
:1040400089490870894890ED000AB5EEC00AF1EE82
:1040500010FA07D0864890ED000AB5EEC00AF1EEDE
:1040600010FA05D104F073FC00208249087028E0A2
:10407000814890ED000A814880ED000A7C48006884
:1040800020F072FA7E4A03C2794890ED000A774820
:10409000D0ED000A30EE600A7748D0ED000A79488A
:1040A00090ED001A70EEC10A80EE201A764880ED7D
:1040B000001A764890ED000A754880ED000A02F07B
:1040C0002FFD10BD10B56048006809F04EF90120C1
:1040D00065490870654890ED000AB5EEC00AF1EE3A
:1040E00010FA07D0624890ED000AB5EEC00AF1EE72
:1040F00010FA05D104F02BFC01205E49087028E07D
:104100005D4890ED000A5D4880ED000A584800685F
:1041100020F02AFA5A4A03C2554890ED000A534843
:10412000D0ED000A30EE600A5348D0ED000A554841
:1041300090ED001A70EEC10A80EE201A524880ED10
:10414000001A524890ED000A514880ED000A00F034
:1041500074FB10BD10B50020434908704D4890ED28
:10416000000ADFED3B0A30EE200A80ED000A90EDF8
:10417000000ADFED490AB4EEE00AF1EE10FA0ADDBA
:104180003148006809F0F1F801F024FE9FED420A81
:10419000404880ED000A10BD10B50020324908707B
:1041A0003C4890ED000ADFED2A0A30EE600A80ED0F
:1041B000000A90ED000AF0EE080AB4EEE00AF1EE13
:1041C00010FA0AD22048006809F0CFF801F002FE88
:1041D000B0EE080A2F4880ED000A10BD10B52D483A
:1041E00090ED000AF1EE040AB4EEE00AF1EE10FAE6
:1041F00014D290ED000A234880ED000A274890ED84
:10420000000B51EC100B1FF0B3FC18490860244858
:1042100090ED000A234880ED000A14E01D4890ED5F
:10422000000A154880ED000A1C4890ED000B51EC87
:10423000100B1FF09DFC0E490860194890ED000A14
:10424000124880ED000A10BD14010020F00000208B
:10425000CDCCCC3D3333F340CC000020F400002023
:104260009A99993FD0000020F80000200401002016
:1042700008010020AC00002000010020C000002048
:1042800038000020FC000020A800002010010020C1
:10429000C4000020E80000209A99F9401000002096
:1042A000400000200C01002010B5F848006809F01B
:1042B0005CF802F035FC10BD10B5F448006809F058
:1042C00054F800F0BAFA10BDF14890ED000A5FED25
:1042D000200A30EE200A80ED000A90ED000A5FED22
:1042E000200AB4EEE00AF1EE10FA03DD1FED240A15
:1042F00080ED000A704710B5E54890ED000A5FEDCB
:104300002C0A30EE600A80ED000A90ED000AE148C8
:10431000D0ED000AB4EE600AF1EE10FA06D1DB48E7
:10432000006809F022F801F044FF0DE0D84890ED54
:10433000000AF6EE000AB4EEE00AF1EE10FA03D23B
:10434000B6EE000A80ED000A10BDD14890ED000ADB
:10435000D14880ED000A704710B5CC48006809F0DC
:1043600004F800F05EFE10BD10B5C848006808F003
:10437000FCFF00F062FA10BDC84800880A30C74947
:1043800008800846008840F2DE31884202DD084697
:10439000C24908807047C14800880A38BF49088070
:1043A000084600880A2801DA0A2008807047BB48BE
:1043B0000088BB490880704710B5B448006808F011
:1043C000D4FF03F0EDF810BD10B5B048006808F058
:1043D000CCFF00F026FE10BD10B5AC48006808F018
:1043E000C4FF00F02AFA10BDAE4890ED000A5FED60
:1043F000680A30EE200A80ED000A90ED000A5FEDB9
:104400005A0AB4EEE00AF1EE10FA03DD1FED5E0A7F
:1044100080ED000A7047A34890ED000A5FED740A32
:1044200030EE600A80ED000A90ED000ADFED9E0A92
:10443000B4EEE00AF1EE10FA03D29FED9B0A80ED94
:10444000000A7047974890ED000A984880ED000AEE
:10445000704710B58D48006808F087FF02F027FF0D
:1044600010BD10B58948006808F07FFF00F0D9FD45
:1044700010BD10B58548006808F077FF00F0DDF941
:1044800010BD8B480078401C40B28949087008462E
:1044900090F90000142801DD14200870704784484A
:1044A0000078401E40B282490870084690F900002A
:1044B000002801DA0020087070477D4800787D49A7
:1044C0000870704710B57148006808F04EFF03F09F
:1044D000E0FA10BD10B56D48006808F046FF00F026
:1044E000A0FD10BD10B56948006808F03EFF00F05F
:1044F000A4F910BD6B4890ED000A5FEDAB0A30EEF9
:10450000200A80ED000A90ED000A5FED9D0AB4EEEE
:10451000E00AF1EE10FA03DD1FEDA10A80ED000ABA
:104520007047604890ED000A5FEDB70A30EE600A10
:1045300080ED000A90ED000ADFED5B0AB4EEE00AC0
:10454000F1EE10FA03D29FED580A80ED000A704791
:10455000544890ED000A554880ED000A704710B5A8
:104560004A48006808F001FF03F03DF910BD10B59E
:104570004648006808F0F9FE00F053FD10BD10B584
:104580004248006808F0F1FE00F057F910BD4A48B3
:104590000078401C40B248490870084690F9000075
:1045A0001E2801DD1E200870704743480078401E19
:1045B00040B241490870084690F90000002801DA2D
:1045C0000020087070473C4800783C4908707047EC
:1045D00010B52E48006808F0C8FE03F0DDFC10BDE1
:1045E00010B52A48006808F0C0FE00F01AFD10BDA2
:1045F00010B52648006808F0B8FE00F01EF910BD9E
:10460000284890ED000A5FEDEE0A30EE200A80EDBA
:10461000000A90ED000A5FEDE00AB4EEE00AF1EE68
:1046200010FA03DD1FEDE40A80ED000A70471D4813
:1046300090ED000A5FEDFA0A30EE600A80ED000AA4
:1046400090ED000ADFED180AB4EEE00AF1EE10FA80
:1046500003D29FED150A80ED000A7047114890EDD6
:10466000000A124880ED000A704710B5074800683C
:1046700008F07BFE03F031FB10BD10B50348006865
:1046800008F073FE02F04CFA10BD00001401002087
:10469000EC000020D0000020C8000020E400002032
:1046A000BE000020F00000206666C640CC0000205E
:1046B000D4000020B3000020D5000020B40000206A
:1046C00010B54648006808F050FE00F0B6F810BD7E
:1046D00070477047704710B54048006808F045FEC5
:1046E00002F01EFA10BD10B53C48006808F03DFE0F
:1046F00000F0A3F810BD70477047704710B53748F9
:10470000006808F032FE00F0E6F910BD10B533483D
:10471000006808F02AFE00F090F810BD0020304933
:104720000870704701202E490870704702202C49FC
:104730000870704703202A490870704710B5274851
:10474000006808F012FE00F078F810BD012025493D
:1047500008707047002023490870704710B51F4843
:10476000006808F002FE2048007810B902F0D8F97D
:1047700005E01D480078012801D100F05EF810BD69
:1047800010B51648006808F0F0FD002017490870C1
:10479000B1EE000A164880ED000A9FED160A164891
:1047A00080ED000A9FED130A144880ED000A9FED8A
:1047B000110A134880ED000A9FED0E0A114880EDA2
:1047C000000A9FED0C0A104880ED000A9FED090ACF
:1047D0000E4880ED000A02F0B3FA10BD140100206B
:1047E000B2000020AE000020AC000020F800002045
:1047F000E800002000000000FC0000200001002074
:1048000004010020080100200C01002010010020FC
:1048100038B5FD484FF6FF732022D22100900120C9
:1048200009F0A9FB0446F94808F0D7F9F74B2246EE
:10483000F021FA2007F085FE38BD08B5FFF7E8FF44
:1048400000200AF01AFA4FF6FF702023D222F0213E
:104850000090FA200AF08AFEED480AF08AF9EDA0ED
:104860002023D222F0210090FA200BF0D7F8052265
:104870001421EB480AF0D7FD00214FF6FF700AF033
:104880005BF9E3480AF075F9E6A24FF4967114203B
:104890000AF07DFBE7A21421FA200AF078FB40F22F
:1048A000FC40A023D2223C210090FA200AF05EFEB8
:1048B000E348007830B1012820D002283AD00328FC
:1048C00072D154E04FF66860A023D2223C210090C0
:1048D00014200AF04BFE4FF6686100200AF02CF914
:1048E000CB480AF046F9D7A21E2150200AF04FFB10
:1048F000D7A2AF21A0200AF04AFB56E04FF668602D
:10490000A023D2223C21009014200AF02FFE4FF663
:10491000686100200AF010F9BD480AF02AF9CEA219
:104920001E2150200AF033FBCDA2AF21A0200AF0B7
:104930002EFB3AE04FF66860A023D2223C21009083
:1049400014200AF013FE4FF6686100200AF0F4F814
:10495000AF480AF00EF9C3A21E2150200AF017FB3F
:104960000023C2A2822150200AF033FB1DE045F251
:10497000AA20A023D2223C21009014200AF0F6FDA8
:1049800045F2AA2100200AF0D7F8A1480AF0F1F870
:10499000B4A21E2150200AF0FAFAB7A282215020B8
:1049A0000AF0F5FA01E0FFE700BF00BF40F2FC416A
:1049B00000200AF0C1F896480AF0DBF8B1A24FF4E3
:1049C000827150200AF0E3FAB0A24FF4C871A0201F
:1049D0000AF0DDFA8D480121C26990470120AC49F7
:1049E00008808A48AB49086008BD10B5FFF725FF6D
:1049F00010BD2DE9F84FA84803231E228221009004
:104A0000012009F0B8FA0446A4484FF6FF731E22AD
:104A1000A0210090022009F0AEFA0546A04800232C
:104A20005022D2210090032009F0A5FA06469D48A5
:104A300000235022D2210090042009F09CFA07465E
:104A4000994800235022D2210090052009F093FAC2
:104A50008046964800235022D2210090062009F07B
:104A60008AFA8146924803231E2282210090072061
:104A700009F081FA82468F4808F0AFF88D4B224644
:104A8000F0214FF4A57007F05CFD8A4B2A46F02117
:104A9000142007F056FD874B32463C21142007F0C6
:104AA00050FD844B3A463C21FA2007F04AFD814BE9
:104AB00042469621142007F044FD7E4B4A4696213B
:104AC000FA2007F03EFD7B4B5246F021BE2007F056
:104AD00038FDBDE8F88F08B5FFF78BFF00200AF01E
:104AE000CCF8052214214E480AF09DFC00214FF617
:104AF000FF700AF021F846480AF03BF845A24FF44F
:104B0000B97114200AF043FAD22350223C21142018
:104B10000AF086FBD22350223C21FA200AF080FBC7
:104B2000D2235022962114200AF07AFBD22350225D
:104B30009621FA200AF074FB4FF6FF701E23A02284
:104B4000F021009014200AF011FD82231E22F02192
:104B5000BE200AF065FB82231E22F0214FF4A570CF
:104B60000AF05EFB00214FF6FF7009F0E5FF2848D0
:104B700009F0FFFF50A05023D2223C2100901420C6
:104B80000AF04CFF4FA05023D2223C210090FA2083
:104B90000AF044FF4EA05023D22296210090142008
:104BA0000AF03CFF4DA05023D22296210090FA201B
:104BB0000AF034FF4DA01E238222F0210090BE2077
:104BC0000AF02CFF4CA01E238222F02100904FF40B
:104BD000A5700AF023FF4FF6FF71002009F0ACFF2B
:104BE00048A01E23A022F021009014200AF016FFF6
:104BF00030480121C26990470220254908802D488C
:104C00002449086008BD0000293A0008101500205A
:104C1000F801002053455454494E4753000000000A
:104C2000802E040843484155205048554F43205694
:104C30005500000042414348204B484F41000000CE
:104C4000B200002043484C4F52494E45000000003E
:104C50006D672F6C000000005245444F5800000063
:104C60006D560000444F5345000000006D6C2F6DE1
:104C700033686F75720000006D6C2F6D336461795D
:104C80000000000050482D2D00000000704800007A
:104C90001801002014010020393A0008493A0008A0
:104CA000593A0008693A0008793A0008933A00082E
:104CB000A33A0008B4150020504152414D455445D7
:104CC0005253000043414C4942524154494F4E0017
:104CD000444F53494E47205445535400545950456E
:104CE000204F462050524F42450000005341564548
:104CF00020444154410000004C414E475541474536
:104D0000530000004241434B20544F205354415222
:104D100054000000F8B5FE484FF6FF731E22D22162
:104D20000090012009F027F90446FA484FF6FF7376
:104D30001E22D2210090022009F01DF90546F648F6
:104D400040F2FC433C22D2210090032009F013F9E9
:104D50000646F2484FF668633C22D22100900420B8
:104D600009F009F90746EE4807F037FFEC4B2246F9
:104D7000F021FA2007F0E5FBE94B2A46F021142048
:104D800007F0DFFBE64B3246AA21142007F0D9FBDF
:104D9000E34B3A46AA21FA2007F0D3FBF8BD08B549
:104DA000E048007808B9FFF7B5FF002009F065FF7B
:104DB00005221421DC480AF036FB00214FF6FF7073
:104DC00009F0BAFED94809F0D4FEAFF2FC024FF464
:104DD000A57114200AF0DBF84FF668606423D22234
:104DE0003C21009014200AF0C1FB40F2FC406423F7
:104DF000D2223C210090FA200AF0B8FB4FF66861FD
:104E0000002009F099FEC94809F0B3FEC8A21E218E
:104E100046200AF0BCF840F2FC41002009F08CFE6C
:104E2000C24809F0A6FEAFF29C124FF482714620F0
:104E30000AF0ADF84FF6FF701E23D222F021009049
:104E400014200AF093FB4FF6FF701E23D222F021AC
:104E50000090FA200AF08AFB4FF6686009F07DFEA8
:104E6000D2233C22AA2114200AF0DAF940F2FC40B5
:104E700009F073FED2233C22AA21FA200AF0D0F9CD
:104E8000AA4809F076FE00214FF6FF7009F054FEA3
:104E9000A448007830B1012817D0022838D0032860
:104EA00048D124E0AFF29C103C23D222AA210090EA
:104EB00014200AF0B3FDAFF2AC103C23D222AA2199
:104EC0000090FA200AF0AAFD35E0AFF2C0103C23B2
:104ED000D222AA21009014200AF0A0FD96A03C2323
:104EE000D222AA210090FA200AF098FD23E092A095
:104EF0003C23D222AA21009014200AF08FFD8EA01C
:104F00003C23D222AA210090FA200AF087FD12E069
:104F100089A03C23D222AA21009014200AF07EFD11
:104F2000AFF218203C23D222AA210090FA200AF0E6
:104F300075FD00E000BF00BF4FF6FF71002009F0D3
:104F4000FBFD7FA01E23D222F0210090FA200AF060
:104F500065FDAFF250201E23D222F02100901420D4
:104F60000AF05CFD6E480121C26990470320764932
:104F700008806B487549086008BD2DE9F8437448FE
:104F80004FF6FF731E22D2210090012008F0F3FF9C
:104F9000044670484FF6FF731E22D2210090022073
:104FA00008F0E9FF05466C4800235022D22100900A
:104FB000032008F0E0FF0646684800235022D22173
:104FC0000090042008F0D7FF0746654801235022CF
:104FD000D2210090052008F0CEFF8046614807F0FE
:104FE000FCFD604B2246F021FA2007F0AAFA5D4B47
:104FF0002A46F021142007F0A4FA5A4B32463C21ED
:10500000142007F09EFA574B3A463C21FA2007F04D
:1050100098FA544B42469621FA2007F092FABDE8DE
:10502000F88308B5FFF7A9FF002009F026FE052246
:1050300014213D480AF0F7F900214FF6FF7009F0FE
:105040007BFD3A4809F095FDAFF294324FF4AA7116
:10505000142009F09CFFD22350223C2114200AF096
:10506000DFF8D22350223C21FA200AF0D9F84FF67B
:1050700068605023D2229621009014200AF076FA1C
:1050800040F2FC405023D22296210090FA200AF0F0
:105090006DFA00214FF6FF7009F04EFD4FF6686182
:1050A000002009F049FD30A05023D2229621009023
:1050B00014200AF0B3FC40F2FC41002009F03CFD52
:1050C000AFF238405023D22296210090FA200AF005
:1050D000A5FC4FF6FF701E23D222F0210090142071
:1050E0000AF044FA4FF6FF701E23D222F0210090FE
:1050F000FA200AF03BFA0D4809F03BFD00214FF67B
:10510000FF7009F019FD1CA05023D2223C2137E08A
:10511000AB3A0008C93A0008E73A00082F3B0008FC
:1051200058160020AD000020802E0408F801002051
:10513000444953494E462E0053544F50000000003E
:105140004241434B000000001801002014010020E0
:10515000773B0008873B0008973B0008A73B000807
:10516000B73B0008FC160020444953494E464543CE
:1051700054494F4E00000000504F4F4C00000000BB
:10518000009014200AF04AFCFEA05023D2223C21B9
:105190000090FA200AF042FC4FF6FF71002009F05F
:1051A000CBFCAFF264001E23D222F0210090FA2043
:1051B0000AF034FCAFF2B4401E23D222F02100905A
:1051C00014200AF02BFC4FF6FF71002009F0B4FC0C
:1051D000EE480121C26990470720ED490880EB485D
:1051E000EC49086008BD2DE9F843EB484FF6FF7322
:1051F0001E22D2210090012008F0BDFE0446E7489F
:105200004FF6FF731E22D2210090022008F0B3FE59
:105210000546E34803233C2264210090184608F029
:10522000AAFE0646DF4803233C22642100900420A6
:1052300008F0A1FE0746DC4803233C22D22100905F
:10524000052008F098FE8046D84801236422D22128
:105250000090062008F08FFE8146D54807F0BDFC7F
:10526000D34B2246F021FA2007F06BF9D04B2A46A7
:10527000F021142007F065F9CD4B3246AA21142005
:1052800007F05FF9CA4B3A46AA21822007F059F984
:10529000C74B4246AA21FA2007F053F9C44B4A46AD
:1052A0003C21FA2007F04DF9BDE8F88308B5FFF777
:1052B0009AFF002009F0E1FC05221421BD480AF004
:1052C000B2F800214FF6FF7009F036FCBA4809F039
:1052D00050FCBAA24FF48C71142009F058FE45F22C
:1052E000AA206423D2223C21009014200AF03EF927
:1052F00045F2AA206423D2223C210090FA200AF031
:1053000035F945F2AA2009F02EFCAB4809F031FC32
:10531000AEA21E21462009F03AFE002014233C22B2
:105320008C2100905F200AF021F945F2AA2009F0B3
:105330001AFCA14809F01DFCA7A2FF21462009F094
:1053400026FE4FF6FF701E23D222F021009014207B
:105350000AF00CF94FF6FF701E23D222F0210090C4
:10536000FA200AF003F94FF6FF7009F0F6FB642308
:105370003C22AA21142009F053FF64233C22AA21D5
:10538000822009F04DFFD2233C22AA21FA2009F005
:1053900047FF964809F0EDFB00214FF6FF7009F03A
:1053A000CBFB93A03C236422AA21009014200AF096
:1053B00035FB90A03C236422AA21009082200AF0B1
:1053C0002DFB7D4809F0D5FB8BA03C23D222AA21DE
:1053D0000090FA200AF022FB4FF6FF71002009F03E
:1053E000ABFBAFF2A4201E23D222F0210090FA20C2
:1053F0000AF014FBAFF2F4601E23D222F0210090D9
:1054000014200AF00BFB4FF6FF71002009F094FB0B
:1054100067480121C269904708205D4908806448B7
:105420005C49086008BD2DE9F84374484FF6FF73E6
:105430001E22D2210090012008F09DFD04467048F4
:105440004FF6FF731E22D2210090022008F093FD38
:1054500005466C4803233C2264210090184608F05E
:105460008AFD0646684803233C22642100900420FC
:1054700008F081FD0746654803233C22D2210090B5
:10548000052008F078FD8046614801236422D2217E
:105490000090062008F06FFD81465E4807F09DFBF6
:1054A0005C4B2246F021FA2007F04BF8594B2A4674
:1054B000F021142007F045F8564B3246AA2114205B
:1054C00007F03FF8534B3A46AA21822007F039F8FB
:1054D000504B4246AA21FA2007F033F84D4B4A467A
:1054E0003C21142007F02DF8BDE8F88308B5FFF73C
:1054F0009AFF002009F0C1FB052214212D4809F074
:1055000092FF00214FF6FF7009F016FB2A4809F0C0
:1055100030FB2AA24FF48C71142009F038FD45F2BB
:10552000AA206423D2223C21009014200AF01EF805
:1055300045F2AA206423D2223C210090FA200AF0EE
:1055400015F8002014233C228C21009040F24510D5
:105550000AF00CF845F2AA214FF6FF7009F0ECFAB8
:10556000154809F006FB19A21E21462009F00FFD7F
:1055700045F2AA214FF6FF7009F0DEFA0E4809F055
:10558000F8FA49E05741544552000000FC1600204B
:105590001801002014010020F33B0008033C000820
:1055A000133C00082B3C0008413C00084B3C000821
:1055B000A0170020802E0408F8010020504F4F4C07
:1055C00020504152414D455445525300504F4F4C8D
:1055D00020564F4C554D450046494C545241544974
:1055E0004F4E20504552494F44000000F00100202A
:1055F0002B0000002D0000004F4B00005B3C00081A
:105600006B3C00087B3C0008933C0008A93C000868
:10561000B33C000844180020AFF24402FF214620AA
:1056200009F0B5FC4FF6FF701E23D222F021009046
:10563000142009F09BFF4FF6FF701E23D222F021A9
:105640000090FA2009F092FF4FF6FF7009F085FAFA
:1056500064233C22AA21142009F0E2FD64233C22A9
:10566000AA21822009F0DCFDD2233C22AA21FA20C3
:1056700009F0D6FDFE4809F07CFA00214FF6FF70D4
:1056800009F05AFAAFF298003C236422AA21009054
:1056900014200AF0C3F9AFF2A4003C236422AA212B
:1056A000009082200AF0BAF9F24809F062FAAFF2EB
:1056B000B8003C23D222AA210090FA200AF0AEF9C9
:1056C0004FF6FF71002009F037FAAFF28C501E231D
:1056D000D222F0210090FA200AF0A0F9AFF6DC10F7
:1056E0001E23D222F021009014200AF097F94FF6E1
:1056F000FF71002009F020FADF480121C2699047BC
:105700000920DE490880DC48DD49086008BD2DE934
:10571000F04F87B0012004F093F90446022004F012
:105720008FF90546032004F08BF90646D5484FF65D
:10573000FF731E22D2210090042008F01CFC0746B3
:10574000D1484FF6FF731E22D2210090052008F0A9
:1057500012FC8046CD4AAFF21C612046E36A9847AE
:105760008146CB4AAFF22C612046E36A98478246D5
:10577000C84AAFF238612046E36A98478346C64A72
:10578000AFF248612846EB6A98470690C34AAFF2E9
:1057900054612846EB6A98470590C14AAFF26461AC
:1057A0002846EB6A98470490BE4AAFF270613046D3
:1057B000F36A98470390BC4AAFF280613046F36ABF
:1057C00098470290B94AAFF28C613046F36A984725
:1057D0000190B74807F001FAB54B3A46F021FA209C
:1057E00006F0AFFEB24B4246F021142006F0A9FEAF
:1057F000AF4B4A4655214FF4877006F0A2FEAC4BE2
:1058000052465521880006F09CFEA94B5A46552168
:105810004FF4CD7006F095FEA54B8C214FF48770A8
:10582000069A06F08EFEA24B8C214FF4AA70059AC0
:1058300006F087FE9E4B8C214FF4CD70049A06F043
:1058400080FE9B4BCD214FF48770039A06F079FEC2
:10585000974BCD214FF4AA70029A06F072FE944B3A
:10586000CD214800019A06F06CFE0121201D914ACD
:10587000127850F8220040680176281D8E4A12786E
:1058800050F8220040680176301D8C4A127850F89A
:1058900022004068017607B0BDE8F08F08B5FFF739
:1058A00036FF002009F0E9F905221421844809F0A7
:1058B000BAFD00214FF6FF7009F03EF96D4809F07E
:1058C00058F980A24FF48771142009F060FB8248D8
:1058D00009F04FF9AFF260721E21412009F057FB29
:1058E0007EA21E21782009F052FBAFF268321E2101
:1058F000872009F04CFB7BA21E21962009F047FB74
:10590000AFF280321E21B92009F041FB78A21E219E
:10591000C82009F03CFB794809F02BF978A2FF2157
:10592000372009F034FB78A24FF4A071372009F03A
:105930002EFB77A2FF21782009F029FB76A24FF4F5
:10594000A071782009F023FB75A240F28B1178201A
:1059500009F01DFB74A240F20911B92009F017FBF0
:1059600073A240F24F11B92009F011FB72A240F26C
:105970008111B92009F00BFB4FF4784009F0EDF8E4
:1059800070A24FF4C371372009F001FB6FA240F2FF
:105990008111462009F0FBFA4FF6FF701E23D22238
:1059A000F0210090142009F0E1FD4FF6FF701E2356
:1059B000D222F0210090FA2009F0D8FD4FF6FF71B5
:1059C000002009F0B9F8AFF688001E23D222F0219A
:1059D0000090FA200AF022F8AFF6D8401E23D22217
:1059E000F021009014200AF019F84FF6FF71002002
:1059F00009F0A2F82E480121C26990470A201F49E8
:105A000008802B481E49086008BD38B5524847F247
:105A1000C5531E223C210090012008F0ACFA044638
:105A20004E4807F0DAF84D4B2246AA214FF4967003
:105A300006F087FD38BD08B5FFF7E7FF47F2C55010
:105A4000AC234FF48C7232210090642009F08EFD5B
:105A500047F2C5514FF6FF7009F06EF81E4809F085
:105A600088F83FA278213C2009F091FA40A285E015
:105A7000F0010020F8010020441800201801002047
:105A800014010020C33C0008D33C0008E33C00089C
:105A9000EB3C0008F33C0008093D0008113D0008FC
:105AA000193D0008213D0008373D00083F3D000832
:105AB000E8180020AF000020B0000020B100002056
:105AC000802E0408574154455220504152414D45C3
:105AD0005445525300000000180200204156455220
