:020000040800F2
:1000000080110120E51C0208D50B0008D70B000861
:10001000DB0B0008DF0B0008E30B0008000000000A
:10002000000000000000000000000000A90200081D
:10003000E70B000800000000FD020008F51A0208A6
:10004000FF1C0208FF1C0208FF1C0208FF1C02081C
:10005000FF1C0208FF1C0208FF1C0208FF1C02080C
:10006000FF1C0208FF1C0208FF1C0208FF1C0208FC
:10007000FF1C0208FF1C0208FF1C0208FF1C0208EC
:10008000FF1C0208FF1C0208FF1C0208FF1C0208DC
:10009000FF1C0208FF1C0208FF1C0208FF1C0208CC
:1000A000FF1C0208FF1C0208FF1C0208FF1C0208BC
:1000B0002B0C00082D0C00082F0C0008FF1C020858
:1000C000FF1C0208FF1C0208FF1C0208FF1C02089C
:1000D000FF1C0208FF1C0208FF1C0208FF1C02088C
:1000E000FF1C0208FF1C0208FF1C0208FF1C02087C
:1000F000FF1C0208FF1C0208FF1C0208FF1C02086C
:10010000FF1C0208FF1C0208310C0008FF1C02083B
:10011000FF1C0208FF1C0208FF1C0208FF1C02084B
:10012000FF1C0208FF1C0208FF1C0208FF1C02083B
:10013000FF1C0208E90B0008FF1C0208FF1C020854
:10014000FF1C0208FF1C0208FF1C0208FF1C02081B
:10015000FF1C0208FF1C0208FF1C0208FF1C02080B
:10016000FF1C0208FF1C0208FF1C0208FF1C0208FB
:10017000FF1C0208FF1C0208FF1C0208FF1C0208EB
:10018000FF1C0208FF1C020800F002F800F07CF8D7
:100190000AA090E8000C82448344AAF10107DA45E2
:1001A00001D100F071F8AFF2090EBAE80F0013F0B8
:1001B000010F18BFFB1A43F001031847F054050064
:1001C000105505000A444FF0000C10F8013B13F0E5
:1001D000070408BF10F8014B1D1108BF10F8015BA0
:1001E000641E05D010F8016B641E01F8016BF9D193
:1001F00013F0080F1EBF10F8014BAD1C0C1B09D1EA
:100200006D1E58BF01F801CBFAD505E014F8016B5B
:1002100001F8016B6D1EF9D59142D6D370470000ED
:100220000023002400250026103A28BF78C1FBD8FF
:10023000520728BF30C148BF0B607047662924F0C1
:100240003A83642921F02886752921F025866329BF
:1002500022F0BF83002070471FB524F022FB9DE8E9
:10026000030022F0E7F822F037FC04000020002110
:1002700023F058FD401C60600020002123F03CFD6D
:10028000E0601FBD10B510BD22F090FD1146FFF7D4
:10029000E3FF00F0FCFA22F0BCFD03B4FFF7F2FF2D
:1002A00003BC22F0E9FD00002A4B19680868B0E899
:1002B000F04F80F30988BFF36F8F4FF0000080F399
:1002C000118870470000000006480068006880F34D
:1002D000088862B661B6BFF34F8FBFF36F8F00DF40
:1002E00000BF00BF08ED00E0DFF80C00016841F43A
:1002F00070010160704700BF88ED00E0EFF30980F6
:10030000BFF36F8F134B1A681EF0100F08BF20ED5C
:10031000108A20E9F04F106008B44FF0500080F3CD
:100320001188BFF34F8FBFF36F8F20F0D4FA4FF0D7
:10033000000080F3118808BC19680868B0E8F04F25
:100340001EF0100F08BFB0EC108A80F30988BFF3CD
:100350006F8F7047E0030020EFF3058070470000C7
:100360000EB50121082013F0F6FA5020019000206C
:10037000ADF80000ADF80800ADF802006946F84895
:1003800013F0D5FD0021F64813F030FE0121F448AA
:1003900014F096FA01221146F14814F069FA00218E
:1003A000EF4813F04DFE0EBD10B50446ED48048035
:1003B000FFF7D6FF0021EA4813F002FE0121E848CA
:1003C00013F03EFE00BFE74800880028FBD1002163
:1003D000E34813F035FE10BD2DED088B00240025F9
:1003E00000BF002003F0C6F9DFEDDF0A80EE201A1F
:1003F00011EE106A304624F0E3F941EC190B9FED41
:10040000DB0B53EC102B24F0F1F841EC180B9FEDB3
:10041000D90B53EC102B23F081FDD84A52F824203D
:1004200003C2062003F0A6F9DFEDCF0A80EE201A02
:1004300011EE106A304624F0C3F941EC1B0B9FED1E
:10044000D00B53EC102B24F0D1F841EC1A0B9FED9C
:10045000CE0B53EC102B23F061FD41EC190B9FEDFB
:10046000CC0B53EC102B23F081FF41EC180B23F045
:10047000E9FEC9490880052C02DA601CC4B290E08C
:100480000024002515E0BD4850F8250090ED001B24
:10049000B0EE410AF0EE610A53EC102BBF4890ED2C
:1004A000001B51EC110B23F085FCBC4A03C2681CF5
:1004B000C5B2052DE7DB03F0E7F9CC2003F09BFA8A
:1004C000442003F089FA6420FFF76EFF03F0DCF9A3
:1004D000CC2003F090FABE2003F07EFA03F091FAEC
:1004E00010EE106A304624F06BF9AD4A03C29FED5E
:1004F000AD0B53EC102BA94890ED000B51EC100BF9
:1005000023F00CFDA94A03C29FEDA90BA34880ED7F
:10051000000BA34890ED000B03F07CF9B0EE409A7D
:10052000F0EE609AA44890ED000B53EC102B9F481E
:1005300090ED000B51EC100B24F058F841EC1A0B25
:1005400053EC192B23F0EAFC41EC180B9B4890ED7F
:10055000000B53EC102B51EC180B24F03BF8984A8D
:1005600003C28D48028897A1974821F031FC0020F2
:100570009549C870924890ED000B53EC102B93A155
:10058000944821F025FC00209249C870844890EDE1
:10059000000B51EC100B23F0DBFB8F4908608F49F7
:1005A00008608F48007810B901208E4908606420E7
:1005B00020F080F815E700BF8B480078401C8A497E
:1005C0000870084600783B2810DD88480078401CF9
:1005D0008649087000208449087081480078002806
:1005E00004DD7F480078401E7D4908707F48007810
:1005F0003B2807DD7E480078401C7D4908700020BC
:100600007A4908707A480078172806DD0020784972
:10061000087076490870744908704FF47A7020F0B9
:1006200049F8C9E700BF73480088032878D17248A9
:100630000078002877D0012852D0022830D0032833
:100640007CD16E480068B0F57A6F09D210226C49EF
:10065000012003F0D3F869480068401C674908602E
:1006600068480068B0F5FA6F09D220226449012079
:1006700003F0C4F863480068401C62490860012028
:1006800020F018F810225E49002003F0B7F820226D
:100690005B49002003F0B2F8032020F00BF84EE095
:1006A00056480068B0F57A6F09D2102254490120EB
:1006B00003F0A4F851480068401C5049086001202C
:1006C0001FF0F8FF10224E49002003F097F8032096
:1006D0001FF0F0FF20224A49002003F08FF82EE09F
:1006E00010224749002003F089F846480068B0F519
:1006F000FA6F09D220224249012003F07FF84148D5
:100700000068401C3F49086001201FF0D3FF2022F1
:100710003B49002003F072F803201FF0CBFF0EE0EE
:100720000FE000E00AE010223549002003F066F8EF
:1007300020223349002003F061F800E000BF00BF31
:1007400077E02848006850B120222D49012003F0AD
:1007500055F824480068401E2249086058E053E0DC
:10076000000C00404800002000007A442DB29DEFAC
:10077000A7C6F93FDF7A2949920416C07404002005
:100780009C33A2B437F8B23F3C448A9EE7890240CA
:100790000000000000408F4018000020580000209A
:1007A0004000002000000000000014401000002065
:1007B000000000000000000038000020D8000020E9
:1007C00008000020253364009900002025312E31D7
:1007D000660000009D0000200801002004010020A8
:1007E0000200002030000020B6000020B5000020EC
:1007F000B400002064010020C90000202C0000206B
:10080000000002402800002058480078584908702D
:1008100001201FF04FFF10225649002002F0EEFF8A
:1008200020225449002002F0E9FF03201FF042FF7C
:1008300000BFF8E600BF0FF07AFC0DF0DBFB0DF017
:10084000B4FC02F02BFCF6E71CB5002011F042F9D5
:10085000012011F03FF9022011F03CF9032011F0C2
:1008600039F90121022013F043F8012000908DF89E
:10087000040000208DF8060003208DF805000120FB
:100880008DF8070069463C4812F0F0FD1CBD1CB510
:100890004FF4E13139480DF0A1FDFFF7D5FF0EF01F
:1008A000C5F9002008F0DFFB0FF093FA02F08EFF8D
:1008B00002F02AFF11F066F802F02DF804F0ADF80E
:1008C00000F0CAFA00F0C2F94FF4407011F058FD80
:1008D00001F007FE01F015FFFFF742FD00200121A6
:1008E00003460A02CDE9001025A1AFF2B7001FF0C0
:1008F000BCFC0020012103468022CDE9001022A18A
:10090000AFF2DF201FF0B1FC00200121034680225E
:10091000CDE9001020A1AFF261301FF0A6FC00204D
:10092000012103468022CDE900101DA1AFF25750EE
:100930001FF09BFC20F099F900BFFEE700BF50209C
:1009400080F31188BFF34F8FBFF36F8F00BF21F08B
:10095000BAF90446214616A00DF0EDFD00BFFEE7F2
:10096000704710B50DF03EFC10BD0000D200002015
:10097000020000200000024000040240001001407C
:100980004C43445461736B004163747561746F72BE
:100990005461736B00000000436C6F636B000000D8
:1009A000526561645F70485F5265646F7800000053
:1009B000667265654865617073697A65203D2025BA
:1009C000640A00000CB50020019000907648006891
:1009D00040F480307449086000BF7348006800F438
:1009E000003000900198401C0190009818B90198BF
:1009F000B0F5A06FF1D16C48006800F4003010B180
:100A00000120009001E0002000900098012846D1CC
:100A100065484030006840F08050634940310860CC
:100A20006248006840F48040604908605E480830D1
:100A300000685D49083108600846006840F40040DD
:100A400008600846006840F4A05008605848091F34
:100A50000860081F006840F08070091F086000BF30
:100A60005148006800F000700028F9D040F20520DD
:100A7000504908604C480830006820F003004A499B
:100A8000083108600846006840F00200086000BFB6
:100A900045480830006800F00C000828F8D10CBD6B
:100AA00010B54548006840F47000434908603E486E
:100AB000006840F001003C49086000203A490831D4
:100AC0000860394800683D490840374908603C489B
:100AD000091D0860081F006820F48020091F0860B5
:100AE000002031490C310860FFF76CFF4FF00060C7
:100AF00031498039086010BD70B500200022022302
:100B000000240221284D08352D6805F00C0020B185
:100B1000042806D0082834D107E02A4D2A4E356033
:100B200033E02A4D284E35602FE01F4D2D1D2D68D6
:100B3000C5F380541C4D2D1D2D6805F03F0154B1A7
:100B4000224DB5FBF1F5184E361D3668C6F38816F2
:100B500005FB06F209E01B4DB5FBF1F5124E361D03
:100B60003668C6F3881605FB06F20F4D2D1D2D685D
:100B7000C5F301456D1C6B00B2FBF3F5124E3560F9
:100B800003E0104D104E356000BF00BF064D083524
:100B90002D68C5F303150E4E705D0B4D2D68C540D5
:100BA000094E356070BD0000003802400070004002
:100BB00019544007003C024088ED00E0FFFFF6FEBC
:100BC000103000240024F4006000002040787D01F3
:100BD00064000020704700BFFEE700BFFEE700BFD3
:100BE000FEE700BFFEE7704708B5002000904020F8
:100BF00015F049F9012804D16946114800681FF031
:100C000076F8402015F063F94FF4803015F05FF965
:100C1000009848B1009838B14FF0805009490860F9
:100C2000BFF34F8FBFF36F8F08BD7047704770479A
:100C300010B50121044813F043FE01F0E4FD10BD9E
:100C4000D403002004ED00E0000C004000B58DB09E
:100C50000021084617F0D6FD1D481DF02DFA0C9016
:100C60006FF0FF001DF028FA0B90194815381DF0A1
:100C700023FA0A9016208DF8240001208DF8250013
:100C8000A8208DF82600C0208DF827009DF82400AC
:100C90009DF82510CDE900109DF826309DF82720FD
:100CA0000CA104A821F094F80E480F4900220AABC9
:100CB000CDE9002102900BAA0CA90C4819F05BF9B0
:100CC0000A4819F098F9094819F0E5F90DB000BD86
:100CD0001601A8C0202025642E25642E25642E250B
:100CE00064000000B5860108E9F1010888040020CD
:100CF00000B5AFB001214FF0606012F0F9FD14F0C3
:100D000023FB15F0AFF800BF15F0B3F80128FBD0B6
:100D1000684614F024FB01200090002007904FF457
:100D200000700A9000200B900E9011901390149078
:100D3000159020904FF0007021900011239000201A
:100D40002590269004202890C005299040122A90D2
:100D500080012B9040122C9040002E90012168467B
:100D600014F0B7FB434908600121434815F098F897
:100D70002FB000BD08B54FF4A06011F001FB3D207D
:100D80008DF8000002208DF8010000208DF802008F
:100D900001208DF80300684611F0F7FA08BD1CB574
:100DA0000121472012F0A4FD0121880312F0E4FD87
:100DB000012012F00AFF8E20009003208DF805001C
:100DC00002208DF8040000208DF806008DF8070041
:100DD00069462A4812F04AFB0B220121274812F0EB
:100DE000D0FB0B220221254812F0CBFB0B22032162
:100DF000224812F0C6FB0B220721204812F0C1FB4B
:100E00004FF46050009069461D4812F02FFB0B22F2
:100E100011461B4812F0B5FB0B220C21184812F0AA
:100E2000B0FB0B220D21164812F0ABFB32200090D4
:100E30006946144812F01AFB0B220121114812F0E6
:100E4000A0FB0B2204210F4812F09BFB0B22052173
:100E50000C4812F096FB1CBD10B5FFF7A0FFFFF782
:100E600089FFFFF745FF0348006808B900BFFEE7A8
:100E700010BD00007400002040000100000002408E
:100E80000004024000080240002114E001EB410090
:100E90003D4A02EBC000007D60B9012001EB410238
:100EA000394B03EBC202107501EB41001A4602EB0D
:100EB000C0007047491C0A29E8DB0020F9E710B59B
:100EC000014600200FE000EB40022F4B03EBC20273
:100ED0008A4207D1002200EB40032B4C04EBC303F2
:100EE0001A7502E0401C0A28EDDB00BF10BD70B58A
:100EF0000646FFF7C9FF05460DB9002070BD234C1B
:100F000011E03046616821F031FA58B9A0682860D4
:100F1000E0686860E068A8600020E860207C2874D1
:100F20002846EBE72468002CEBD12846FFF7C7FFE3
:100F30000020E3E710B504462046FFF7C0FF10BDD0
:100F40002DE9F04104460F461646D4E901108842C7
:100F500003D14FF0FF30BDE8F081D4E90101451A1B
:100F6000B54200DD3546A268206881182A46384619
:100F700021F03AF9A0682844A0602846EBE7014632
:100F8000D1E90102801A7047C00400206CF1020808
:100F900070B504467E4821F0B1F805462A467C49E2
:100FA000204616F00CFE70BD70B5044640F6AC51FC
:100FB000784821F066F978A1764821F009F978A1FE
:100FC000744821F005F978A1724821F001F97DA15A
:100FD000704821F0FDF887A16E4821F0F9F890A142
:100FE0006C4821F0F5F895A16A4821F0F1F89EA12E
:100FF000684821F0EDF89FA1664821F0E9F89EA12C
:10100000644821F0E5F8A2A1624821F0E1F8A8A126
:10101000604821F0DDF8AEA15E4821F0D9F8ADA11D
:101020005C4821F0D5F8ADA15A4821F0D1F8BBA118
:10103000584821F0CDF8BEA1564821F0C9F8C0A10A
:10104000544821F0C5F8C3A1524821F0C1F8C4A109
:10105000504821F0BDF89EA14E4821F0B9F8C3A137
:101060004C4821F0B5F8C2A14A4821F0B1F8C6A118
:10107000484821F0ADF8C8A1464821F0A9F8CCA114
:10108000444821F0A5F8D1A1424821F0A1F890A14F
:10109000404821F09DF8D5A13E4821F099F8D9A10A
:1010A0003C4821F095F88AA13A4821F091F8D9A15D
:1010B000384821F08DF8DBA1364821F089F8DFA10E
:1010C000344821F085F8E2A1324821F081F8E3A10B
:1010D000304821F07DF87EA12E4821F079F8E3A177
:1010E0002C4821F075F8E3A12A4821F071F8E6A117
:1010F000284821F06DF8E8A1264821F069F8EDA113
:10110000244821F065F8D2A1224821F061F870A1AD
:10111000204821F05DF8EBA11E4821F059F8ECA120
:101120001C4821F055F8EDA11A4821F051F88CA186
:10113000184821F04DF887A1164821F049F864A11C
:10114000144821F045F8EBA1124821F041F8EDA137
:10115000104821F03DF8F0A10E4821F039F8F2A135
:101160000C4821F035F8F5A10A4821F031F8FAA130
:10117000084821F02DF8B1A1064821F029F854A122
:10118000044821F025F8FBA1024821F021F8F9E1FB
:101190006DF70208B00700203C68746D6C3E0000DB
:1011A000203C686561643E00203C7469746C653E57
:1011B000576562207365727665723C2F7469746C32
:1011C000653E0000203C6D657461206E616D653D7B
:1011D000226465736372697074696F6E2220636F35
:1011E0006E74656E743D22576562736572766572C2
:1011F000222F3E00203C6D657461206E616D653D5F
:10120000226B6579776F72642220636F6E74656EEE
:10121000743D227562756E7475222F3E00000000C9
:10122000203C6D65746120636861727365743D2252
:101230007574662D38222F3E00000000203C6D653D
:10124000746120687474702D65717569763D2272C1
:101250006566726573682220636F6E74656E743D97
:101260002233223E00000000203C7374796C653EFE
:10127000000000002A207B00626F782D73697A6974
:101280006E673A20626F726465722D626F783B0000
:101290002D6D6F7A2D626F782D73697A696E673A5A
:1012A00020626F726465722D626F783B00000000EF
:1012B0002D7765626B69742D626F782D73697A6919
:1012C0006E673A20626F726465722D626F783B00C0
:1012D0007D000000626F6479207B0000666F6E7491
:1012E0002D66616D696C793A202248656C7665746B
:1012F00069616361204E657565222C2048656C76B6
:101300006574696163612C20417269616C2C207382
:10131000616E732D73657269663B0000666F6E7453
:101320002D7765696768743A2033303070783B00F8
:10133000636F6C6F723A20233333333B000000003D
:101340006C696E652D6865696768743A20312E3264
:1013500035343B006D617267696E3A20303B0000A6
:1013600070616464696E673A20303B0061207B00E5
:10137000746578742D6465636F726174696F6E3A19
:10138000206E6F6E653B0000636F6C6F723A2023B6
:101390003362386262613B007472616E73666F72B1
:1013A0006D3A20616C6C20302E35733B00000000DC
:1013B0002D6D6F7A2D7472616E73666F726D3A2047
:1013C000616C6C20302E35733B0000002D77656218
:1013D0006B69742D7472616E73666F726D3A206101
:1013E0006C6C20302E35733B00000000613A686F52
:1013F0007665722C20613A76697369746564207B26
:1014000000000000636F6C6F723A2023323635376C
:1014100037383B0023636F6E7461696E6572207BA1
:101420000000000070616464696E672D6C6566740D
:101430003A2031353070783B00000000706F7369DE
:1014400074696F6E3A2072656C61746976653B00F1
:101450006C6566743A20303B000000007769647464
:10146000683A20313030253B00000000236D656E66
:1014700075207B00706F736974696F6E3A206669BE
:101480007865643B000000006865696768743A200D
:10149000313030253B0000006261636B67726F750D
:1014A0006E642D636F6C6F723A202331393138319D
:1014B000383B000077696474683A203135307078C1
:1014C0003B000000236D656E75207B7D00000000F1
:1014D000236D656E7520756C7B0000006C697374FC
:1014E0002D7374796C652D747970653A206E6F6E0A
:1014F000653B0000236D656E7520756C206C69205E
:101500007B0000006C696E652D6865696768743AD8
:1015100020322E39656D3B006865696768743A2032
:10152000322E39656D3B20007472616E7369746987
:101530006F6E3A20616C6C2031733B002D6D6F7AB9
:101540002D7472616E736974696F6E3A20616C6C90
:101550002031733B000000002D7765626B69742DAC
:101560007472616E736974696F6E3A20616C6C207D
:1015700031733B00236D656E7520756C206C69209E
:1015800061207B0094A1984820F022FE97A1964804
:1015900020F01EFE99A1944820F01AFE9BA19248CB
:1015A00020F016FEAFF2D8218F4820F011FE9FA147
:1015B0008D4820F00DFEA2A18B4820F009FEAFF26D
:1015C000F021894820F004FEA4A1874820F000FE05
:1015D000A7A1854820F0FCFDA9A1834820F0F8FDD3
:1015E000ACA1814820F0F4FDAFF2C0117E4820F09C
:1015F000EFFDAFF25C117C4820F0EAFDAFF2303134
:10160000794820F0E5FDA5A1774820F0E1FD72A121
:10161000754820F0DDFDAFF24831734820F0D8FD69
:10162000A6A1714820F0D4FDA7A16F4820F0D0FDFD
:10163000AFF264316C4820F0CBFDA8A16A4820F0DD
:10164000C7FDADA1684820F0C3FDAFF27C3166480C
:1016500020F0BEFDAEA1644820F0BAFDAFA1624803
:1016600020F0B6FDB5A1604820F0B2FDB8A15E48FB
:1016700020F0AEFDBAA15C4820F0AAFDAFF2B03177
:10168000594820F0A5FDBBA1574820F0A1FDBEA1FF
:10169000554820F09DFDC1A1534820F099FDC6A1F9
:1016A000514820F095FDAFF2D8314F4820F090FD21
:1016B000C8A14D4820F08CFDC8A14B4820F088FD02
:1016C000CBA1494820F084FDAFF2FC31464820F020
:1016D0007FFDCCA1444820F07BFDCDA1424820F005
:1016E00077FDCFA1404820F073FDD0A13E4820F007
:1016F0006FFDAFF224413C4820F06AFDCFA13A488B
:1017000020F066FDD3A1384820F062FDD5A136480F
:1017100020F05EFDAFF24841334820F059FDD6A1DC
:10172000314820F055FDBAA12F4820F051FDAFF20D
:1017300060412D4820F04CFDD3A12B4820F048FDFE
:10174000D4A1294820F044FDD6A1274820F040FD2F
:10175000DCA1254820F03CFDDEA1234820F038FD27
:10176000AFF29441204820F033FDDF491E4820F0BD
:101770002FFDDE491C4820F02BFDDDA11A4820F08A
:1017800027FDDEA1184820F023FDDFA1164820F038
:101790001FFDDFA1144820F01BFDE3A1124820F03B
:1017A00017FDE6A1104820F013FDE6A10E4820F039
:1017B0000FFDEEA10C4820F00BFDF7A10A4820F028
:1017C00007FDFDA1084820F003FDFDA1064820F01B
:1017D000FFFCFDA102E20000646973706C61793A5C
:1017E00020626C6F636B3B00B0070020636F6C6F0F
:1017F000723A20236666663B0000000070616464F4
:10180000696E673A20302031656D3B00626F72640B
:1018100065722D626F74746F6D3A20317078207329
:101820006F6C696420233333333B0000236D656E96
:101830007520756C206C693A686F766572207B0044
:101840006261636B67726F756E642D636F6C6F722C
:101850003A20233435343534353B0000236D656E32
:1018600075202E7375622D6D656E75207B000000EE
:10187000646973706C61793A206E6F6E653B00002D
:10188000706F736974696F6E3A206162736F6C7503
:1018900074653B00746F703A20303B00236D656EB9
:1018A0007520756C206C693A686F766572202E73AE
:1018B00075622D6D656E757B0000000023636F6E91
:1018C00074656E74207B000070616464696E673AB1
:1018D0002031656D2038656D3B000000236865612F
:1018E0006465722C202E63616C6C2D746F2D6163A6
:1018F00074696F6E207B0000746578742D616C696B
:10190000676E3A202063656E7465723B00000000CC
:1019100023686561646572207B7D000023686561D2
:1019200064657220236C6F676F207B666F6E742D09
:1019300073697A653A343070783B7D00236865615D
:101940006465722023736C6F67616E207B000000FA
:10195000636F6C6F723A203839393761303B000061
:10196000666F6E742D73697A653A20302E38656D16
:101970003B0000002E63616C6C2D746F2D616374ED
:10198000696F6E207B00000070616464696E673A65
:1019900020312E35656D203230253B006261636B4E
:1019A00067726F756E642D636F6C6F723A20236679
:1019B00030666666663B0000626F726465723A204C
:1019C00031707820736F6C696420236538653865E1
:1019D000383B00002E726F77207B00006F766572B7
:1019E000666C6F773A2068696464656E3B0000003E
:1019F0006D617267696E3A20312E35656D206175B3
:101A0000746F3B002E726F77202E636F6C207B000B
:101A1000666C6F61743A206C6566743B0000000070
:101A200077696474683A203430253B006D617267D1
:101A3000696E3A2032656D3B000000002E726F77B0
:101A4000202E636F6C3A6C6173742D6368696C64EB
:101A5000207B0000666C6F61743A2072696768745D
:101A60003B0000006D617267696E2D726967687472
:101A70003A20303B000000002E726F77202E636FFB
:101A80006C20696D67207B0023666F6F7465722020
:101A90007B000000666F6E742D73697A653A20389A
:101AA00035253B00626F726465722D746F703A2049
:101AB00031707820736F6C696420236536653665F4
:101AC000363B0000636F6C6F723A20233833383333
:101AD00038333B0070616464696E673A2031656D2C
:101AE0002033656D3B000000245505087C55050832
:101AF0003C2F7374796C653E00000000203C2F6819
:101B00006561643E00000000203C626F64793E0025
:101B1000203C6469762069643D22636F6E7461695C
:101B20006E6572223E000000203C64697620696484
:101B30003D226D656E75223E00000000203C756CF4
:101B40003E000000203C6C693E3C61206872656686
:101B50003D222F686F6D65223E486F6D657061672D
:101B6000653C2F613E3C2F6C693E0000203C6C6957
:101B70003E3C6120687265663D222F73657474690E
:101B80006E67223E53657474696E67733C2F613EC5
:101B90003C2F6C693E000000203C6C693E3C61209B
:101BA000687265663D2223223E41626F75743C2F48
:101BB000613E3C2F6C693E00203C2F756C3E00005E
:101BC000203C2F6469763E00203C6469762069647D
:101BD0003D22636F6E74656E74223E007F4820F074
:101BE000F7FA7FA17D4820F0F3FA82A17B4820F02C
:101BF000EFFA8DA1794820F0EBFA90A1774820F018
:101C0000E7FAAFF24401754820F0E2FA95A1734873
:101C100020F0DEFA98A1714820F0DAFA9EA16F4810
:101C200020F0D6FAA6A16D4820F0D2FAACA16B48FC
:101C300020F0CEFAB1A1694820F0CAFAB7A16748EE
:101C400020F0C6FABD49654820F0C2FABCA163483D
:101C500020F0BEFAC4A1614820F0BAFAC4A15F48DE
:101C600020F0B6FACE495D4820F0B2FACDA15B482B
:101C700020F0AEFACF49594820F0AAFAAFF2C001DD
:101C8000564820F0A5FACCA1544820F0A1FAAB495F
:101C9000524820F09DFAD0A1504820F099FAB2A104
:101CA0004E4820F095FAD7A14C4820F091FAE1492E
:101CB0004A4820F08DFABBA1484820F089FADE4955
:101CC000464820F085FAAFF20811444820F080FA27
:101CD000DAA1424820F07CFADCA1404820F078FAF2
:101CE000DFA13E4820F074FAAFF22C113B4820F0FF
:101CF0006FFAAFF23411394820F06AFAAFF24011AE
:101D0000364820F065FADFA1344820F061FAE0A1FE
:101D1000324820F05DFA314820F0F0F905462A46B5
:101D20002E49204615F04BFF70BD70B50446DB48C8
:101D300020F0E4F905462A46D849204615F03FFF31
:101D400070BD70B50446D64820F0D8F905462A463D
:101D5000D349204615F033FF70BD3EB504464FF41D
:101D60000071D04820F08DFACF480068401CCE4961
:101D700008600846CDA10268684620F029F8694647
:101D8000C84820F025FACAA1C64820F021FAD5A1FA
:101D9000C44820F01DFAC34820F0B0F9C1494518E5
:101DA00028461FF0D3FADDA1BE4820F011FAE9A1C0
:101DB000BC4820F00DFAF64820F0A0F905462A4666
:101DC000F349204615F0FBFEB64820F097F905468A
:101DD0002A46B449204615F0F2FE3EBDB007002069
:101DE000203C6469762069643D226865616465729F
:101DF000223E0000203C6469762069643D226C6FBD
:101E0000676F223E486F6D65706167652057656238
:101E100053657276657220666F722073797374658C
:101E20006D3C2F6469763E00203C646976206964CD
:101E30003D22736C6F67616E223E0000203C703E55
:101E400057656220636F6E74726F6C2064656D6F8E
:101E500020666F722053544D3332463478783C2FCD
:101E6000703E0000203C2F6469763E3C216865612D
:101E70006465723E00000000203C64697620636C5B
:101E80006173733D2263616C6C2D746F2D6163749B
:101E9000696F6E223E000000203C68333E4C434494
:101EA00020776174657220636F6E74726F6C207638
:101EB000696120776562736974653C2F68333E0001
:101EC000203C703E704820616E64205265646F78DB
:101ED00020636F6E74726F6C3C2F703E00000000C8
:101EE000203C2F6469763E3C2163616C6C2D746FDD
:101EF0002D616374696F6E3E00000000203C6469D0
:101F00007620636C6173733D22726F77222069645F
:101F10003D22696E74726F223E000000203C6469AD
:101F2000762069643D22626F78312220636C617390
:101F3000733D22636F6C223E00000000EC530508E5
:101F40003C6833207374796C653D22746578742D18
:101F5000616C69676E3A63656E7465723B223E70B0
:101F6000483C2F68333E00003C2F6469763E0000F9
:101F70003C68312069643D227048223E70483A2016
:101F80003C7370616E207374796C653D22636F6C75
:101F90006F723A23303039454532223E000000004E
:101FA0009D0000203C2F7370616E3E3C2F68313ED7
:101FB0000000000044540508203C646976206964F0
:101FC0003D22626F78322220636C6173733D22631D
:101FD0006F6C223E000000003C6833207374796C03
:101FE000653D22746578742D616C69676E3A63652E
:101FF0006E7465723B223E5265646F783C2F683385
:102000003E0000003C68312069643D227048223E59
:102010005265646F783A203C7370616E20737479F6
:102020006C653D22636F6C6F723A233030394545E1
:1020300032223E0099000020B4540508203C2F6451
:1020400069763E3C21726F773E000000203C646957
:10205000762069643D22666F6F746572223E0000CF
:10206000203C703E436F707972696768743A204310
:10207000686175205068756F632056753C2F703EFF
:1020800000000000203C2F626F64793E00000000D9
:10209000203C2F68746D6C3E00000000770103083F
:1020A0002FFE0208B0050020780000202564000003
:1020B0003C7072653E3C62723E4E616D6520202030
:1020C000202020202020205374617465202050722D
:1020D000696F726974792020537461636B202020CA
:1020E0004E756D003C62723E2D2D2D2D2D2D2D2D0A
:1020F0002D2D2D2D2D2D2D2D2D2D2D2D2D2D2D2D10
:102100002D2D2D2D2D2D2D2D2D2D2D2D2D2D2D2DFF
:102110002D2D2D2D2D3C62723E0000003C62723E42
:102120003C62723E2D2D2D2D2D2D2D2D2D2D2D2D45
:102130002D2D2D2D2D2D2D2D2D2D2D2D2D2D2D2DCF
:102140002D2D2D2D2D2D2D2D2D2D2D2D2D2D2D2DBF
:102150002D0000003C62723E42203A20426C6F63C8
:102160006B65642C2052203A2052656164792C20E2
:1021700044203A2044656C657465642C2053203AF1
:102180002053757370656E6465643C62723E000036
:1021900080F102082DE9F047ADF5BF6D074640F22A
:1021A000DC5A0026524607A9384615F0EAFB80465D
:1021B000B8F1000F03DA0DF5BF6DBDE8F0871B2203
:1021C000CDA107A81FF0B9FF88B9CCA0FEF78FFEFC
:1021D000044607A80CF0AFF93846D4E9001215F010
:1021E000EEFC002C02D02046FEF7A4FE3CE11E22AD
:1021F000C8A107A81FF0A1FF88B9C7A0FEF777FE06
:10220000044607A80CF097F93846D4E9001215F0F7
:10221000D6FC002CEAD02046FEF78CFE24E11D22DD
:10222000C4A107A81FF089FF88B9C3A0FEF75FFE0D
:10223000044607A80CF07FF93846D4E9001215F0DF
:10224000BEFC002CD2D02046FEF774FE0CE1182212
:10225000C0A107A81FF071FF30B907A80CF06BF9F7
:102260003846FFF77AFDFFE01322C1A107A81FF04F
:1022700064FF88B9BFA0FEF73AFE044607A80CF039
:102280005AF93846D4E9001215F099FC002CADD06B
:102290002046FEF74FFEE7E00622BAA107A81FF08E
:1022A0004CFF18B93846FFF74CFDDDE0B7A107A891
:1022B0001FF0C2FE002844D0B6A107A81FF0BCFE44
:1022C00000283ED0B1A107A81FF0B6FE851D002052
:1022D000049005900690B1A107A81FF0ADFEA0EBF9
:1022E00005094A46294604A820F014F8A9A107A820
:1022F0001FF0A2FE451D0020019002900390294688
:1023000001A81FF0D7FEA748016804A820F02EF806
:1023100028B9A548016801A820F028F808B10120D3
:1023200000E0002030B93846FEF73EFE00209F490D
:10233000087005E03846FEF72BFE01209B49087027
:1023400092E00C229AA107A81FF0F7FE18B93846B0
:10235000FFF7EBFC88E0092299A107A81FF0EDFE2A
:1023600028B10A2299A107A81FF0E7FE18B938463C
:10237000FEF71AFE78E098A107A81FF05DFE18B1DD
:102380003846FEF705FE6FE094A107A81FF054FE43
:10239000002859D093A107A81FF04EFE002853D063
:1023A00093A107A81FF048FE00284DD0934800785D
:1023B000002845D1069089A107A81FF03DFE451DC4
:1023C00088A107A81FF038FEA0EB05094A46294658
:1023D00006A81FF09FFF06A81FF021FE884908707D
:1023E00080A107A81FF028FE00F1080580A107A81A
:1023F0001FF022FEA0EB05094A46294606A81FF059
:1024000089FF06A81FF00BFE7E49087078A107A877
:102410001FF012FE00F108057BA107A81FF00CFEBB
:10242000A0EB05094A46294606A81FF073FF06A837
:102430001FF0F5FD7549087001207049087000BF54
:102440003846FEF7A5FD0FE071A0FEF750FD0446EB
:1024500007A80CF070F83846D4E9001215F0AFFB6D
:1024600014B12046FEF766FD03E0002007A9885559
:10247000761C40F2DC508642F7DB384615F0D2F885
:1024800000BF98E670B58AB00646002201210220FE
:1024900015F04CFB041E01DA0AB070BD02208DF865
:1024A000150050201BF001FFADF81600002006902B
:1024B000102205A9204615F05DF8002800DAEBE7A8
:1024C0000521204615F028F91020099008E009AAF6
:1024D00001A9204614F097FF05462846FFF75AFE4B
:1024E000F5E708B504204FF47A7300224B490090B9
:1024F0004BA01CF09CFF08BD474554202F53544D62
:102500003332463478375F66696C65732F53542EC7
:1025100067696600474554202F53544D3332463483
:1025200078375F66696C65732F73746D33322E6A0A
:1025300070670000474554202F53544D33324634C2
:1025400078375F66696C65732F6C6F676F2E6A7082
:1025500067000000474554202F53544D3332463412
:1025600078375441534B532E68746D6C0000000053
:10257000474554202F53544D3332463478372E6814
:10258000746D6C00474554202F200000756E616DFE
:10259000653D0000267073773D000000267073775C
:1025A000000000009000002094000020980000200F
:1025B000474554202F73657474696E6700000000EE
:1025C000474554202F686F6D650000004745542033
:1025D0002F6C6F67696E000070483D00686F757200
:1025E0003D000000266D696E7574653D00000000B9
:1025F000267365636F6E643D000000008C00002050
:10260000B4000020B50000202F300000B6000020EC
:102610002F3430342E68746D6C000000852400085F
:102620004854545053455256455200007047704725
:1026300010B50121084611F05BF910BD10B510F07E
:1026400015FBFFF7F5FFFFF7F2FFFFF7EFFF10BDF8
:102650000EB54FF49670019041F26800ADF800009D
:102660000020ADF808001020ADF80200694682484D
:1026700011F05DFC0021804811F0B8FC01217E487A
:1026800012F01EF9012211467B4812F0F1F84FF4C6
:102690007A7001902A20ADF800000020ADF8080003
:1026A000ADF802006946754811F041FC00217348FD
:1026B00011F09CFC0121714812F002F9012211462F
:1026C0006E4812F0D5F800216B4811F0B9FC0021DA
:1026D0006A4811F0B5FC00214FF0804011F0B0FCC9
:1026E0000EBD10B50121022011F035F901210420A1
:1026F00011F031F910BD10B5FFF7F3FFFFF7A8FF98
:1027000010BD1CB51D208DF8040000208DF80500BB
:102710008DF8060001208DF8070001A80FF035FEA6
:102720001E208DF8040002208DF805008DF80600AB
:1027300001208DF8070001A80FF027FE32208DF848
:10274000000007208DF8010000208DF80200012014
:102750008DF8030068460FF018FE1CBD10B5044646
:10276000474804800021454811F02AFC01214348D4
:1027700011F066FC00BF424800880028FBD1002110
:102780003E4811F05DFC10BD38B504463C4804805D
:102790001E208DF8000000208DF801008DF8020049
:1027A00001208DF8030068460FF0EFFD012133484A
:1027B00012F086F80021314811F002FC01212F4867
:1027C00011F03EFC00BF2E4800880028FBD10021FC
:1027D0002A4811F035FC1E208DF8000002208DF8EB
:1027E00001008DF8020001208DF8030068460FF00B
:1027F000CCFD38BD2248008820B121480088401E09
:102800001F49088070471F48008820B11D48008874
:10281000401E1C49088070471CB50121042011F09E
:10282000ABF800208DF804008DF8070080200090A0
:102830006946154810F01AFE1CBD10B5044601216A
:102840000D4812F03DF821460B4811F0B9FB01216B
:10285000094811F0F5FB10BD10B50021064811F034
:10286000EFFB10BD4FF0E020006920F003004FF0B7
:10287000E0210861704700000004004000080040AB
:10288000A40000204800002000080240014600206B
:102890000A68D0B27047014600200A6890B27047BB
:1028A0000146002008687047F0B505460E4600BF97
:1028B00000222A6813461A4600231446326813433E
:1028C00018462146F0BD014600200A68D0B20A2809
:1028D00000DD0020704710B52DED028B0446B0EEF0
:1028E000408AF0EE608AF94880ED008B016820464E
:1028F00012F0F1FB082803D00120BDEC028B10BDC3
:10290000F2484168201D12F0E6FB082801D00120A2
:10291000F3E70120F1E700B5ED48FFF7B7FFED4918
:10292000087008460078FF2801D105200870E848A3
:10293000401CFFF7ABFFE849087008460078FF2805
:1029400001D10A200870E248801CFFF79FFFE3498D
:10295000087008460078FF2801D105200870DC487F
:10296000C01CFFF793FFDE49087008460078FF2877
:1029700001D105200870D648001DFFF7A4FFD949F2
:102980000870D348401DFFF79EFFD7490870D04814
:10299000801DFFF798FFD5490870CD48C01DFFF78F
:1029A00092FFD3490870CA480830FFF78CFFD1491D
:1029B0000870C7480930FFF769FFCF49087008461B
:1029C0000078182801DD00200870C1480A30FFF7A0
:1029D0005DFFCA490870084600783B2801DD0020E9
:1029E0000870BB480B30FFF751FFC5490870084617
:1029F00000783B2801DD00200870B5491031081F20
:102A0000FFF752FFB14A03C2B04903C94FF0FF3389
:102A100058405940084305D19FEDBA0BBB4880EDA3
:102A2000000B05E0A94890ED000BB84880ED000BC5
:102A3000A7491831081FFFF737FFA44A03C2A3486C
:102A4000D0E900104FF0FF3359405840014305D101
:102A50009FEDAF0BB04880ED000B05E09B4890ED7B
:102A6000000BAD4880ED000B99492031081FFFF79E
:102A70001BFF964A03C29548D0E900104FF0FF3281
:102A800051405040014305D19FEDA40BA54880ED76
:102A9000000B05E08D4890ED000BA24880ED000B87
:102AA0008B492831081FFFF7FFFE884A03C2874879
:102AB000D0E900104FF0FF3359405840014305D191
:102AC0009FED930B984880ED000B05E07F4890ED5B
:102AD000000B954880ED000B7D482C30FFF7DBFEA6
:102AE00092490880084600884FF6FF71884202D15B
:102AF00000208E49088076493831081FFFF7D4FE40
:102B0000724A03C27148D0E900104FF0FF325140C1
:102B10005040014305D19FED860B874880ED000BA7
:102B200005E06A4890ED000B834880ED000B684992
:102B30004031081FFFF7B8FE644A03C26348D0E97A
:102B400000104FF0FF3251405040014305D19FED3E
:102B50007B0B7C4880ED000B05E05C4890ED000BA2
:102B6000784880ED000B5A494831081FFFF79CFE5A
:102B7000564A03C25548D0E900104FF0FF33594080
:102B80005840014305D19FED700B714880ED000B5B
:102B900005E04E4890ED000B6D4880ED000B4E486F
:102BA00000786C4908704D4800786B4908704C48B3
:102BB00000786A49087047480078694908704648B3
:102BC0000078684908705948008867490880554866
:102BD00090ED000B654880ED000B534890ED000B25
:102BE000634880ED000B00BD10B512F07FF9F320B3
:102BF00012F095FB0221402012F0C4F9082801D000
:102C0000012010BD33480178314812F0B6FA082887
:102C100001D00120F5E7304801782D48401C12F022
:102C2000ACFA082801D00120EBE72C4801782848AD
:102C3000801C12F0A2FA082801D00120E1E7284800
:102C400001782348C01C12F098FA082801D001200E
:102C5000D7E7244801781E48001D12F08EFA082894
:102C600001D00120CDE7204801781948401D12F01D
:102C700084FA082801D00120C3E71C4801781448D1
:102C8000801D12F07AFA082801D00120B9E718480F
:102C900001780F48C01D12F070FA082801D00120F9
:102CA000AFE7144801780A48083012F066FA08289D
:102CB00001D00120A5E7104801780548093012F03D
:102CC0005CFA082856D001209BE70000A8000020ED
:102CD00000000808D1000020D2000020CF00002012
:102CE000D0000020CB000020CC000020CD00002030
:102CF000CE000020CA000020B4000020B500002053
:102D0000B60000200000000000001040D8000020A5
:102D1000000000000000E03FE8000020CDCCCCCC5B
:102D2000CCCC1840F0000020F8000020D400002097
:102D30000000000000003940E0000020D1579066FC
:102D40002C9ABE3F380000200FB9196EC0E7A73F8C
:102D5000C00000200200002000010020010100202E
:102D600002010020030100200C01002020010020AE
:102D70002801002036480178364812F0FEF908286C
:102D800001D001203DE7344801783248401C12F060
:102D9000F4F9082801D0012033E7304890ED000B0A
:102DA0002C48801CFFF797FD082801D0012028E758
:102DB0002B4890ED000B27480A30FFF78CFD0828C0
:102DC00001D001201DE7274890ED000B214812306B
:102DD000FFF781FD082801D0012012E7224890ED7D
:102DE000000B1C481A30FFF776FD082801D001209F
:102DF00007E71E4801881748223012F095F9082885
:102E000001D00120FDE61A4890ED000B11482A3050
:102E1000FFF761FD082801D00120F2E6154890ED8A
:102E2000000B0C483230FFF756FD082801D0012076
:102E3000E7E6114890ED000B06483A30FFF74BFDEE
:102E4000082801D00120DCE612F05DF80020D8E669
:102E5000B50000200A000808B6000020D8000020B5
:102E6000E8000020F0000020F8000020D40000203E
:102E7000E000002038000020C00000202DE9F05FB5
:102E80002DED028B82468B46B0EE408AF0EE608AD2
:102E900016461F46DDF83080B8F1000F0AD0B8F1B1
:102EA000020F03D0B8F1090F06D101E0042404E0B9
:102EB000052402E0012400E000BF00BFF019401C1F
:102EC00000EB040948461EF02DFF0546B8F1000F3F
:102ED0000DD0B8F1020F03D0B8F1090F15D10DE0F4
:102EE00053EC182BF1A128461EF072FF0EE053ECB4
:102EF000182BF1A128461EF06BFF07E053EC182BAE
:102F0000EFA128461EF064FF00E000BF00BF2A4684
:102F1000594650460CF02BF928461EF032FFBDEC06
:102F2000028BBDE8F09F10B50246012341B100209D
:102F300004E003FB02F4A3B2441C20B28842F8DB95
:102F4000184610BD2DE9FF5F91461C46DDF838801C
:102F5000B8F1090F11D2DFE808F00E1010050C0BC4
:102F60000809060000BF042508E000BF062505E0AB
:102F700000BF032502E0012500E000BF00BF04EB15
:102F8000050A50461EF0CEFE064600226119491E73
:102F90007254B8F1090F5DD2DFE808F05B5C5C05A4
:102FA0001252283D1B006C216019801E31546D2186
:102FB0006019C01E315420216019001F31544AE0AD
:102FC0004C216019801E315420216019C01E3154DB
:102FD00041E056216019801E31546D216019C01ED8
:102FE000315420216019001F315434E06C216019E4
:102FF000801E31542F216019C01E31546721601981
:10300000001F31546D216019401F31542021601977
:10301000801F31541FE068216019801E31542F2118
:103020006019C01E315467216019001F31546D2191
:103030006019401F315420216019801F31540AE06B
:103040006D216019801E315420216019C01E315439
:1030500001E000E000BF00BF002713E0E01B81B2E9
:103060000A20FFF760FF99FBF0F100FB119BE01BCA
:10307000401E81B20A20FFF756FF9BFBF0F0303074
:10308000F0557F1CA742E9DB3246DDE900010CF078
:103090006EF830461EF075FEBDE8FF9F00B52DEDC1
:1030A000028B83B088480088222874D2DFE800F0C1
:1030B0007311FDBEFCFB73FAF9F8F7F6F5F4F3F2C1
:1030C000F1F0EFEEEDECEBEAE9E8E7E6E5E4E3E268
:1030D000E1E000214FF6FF700BF01EFE7B480BF085
:1030E00038FE7B48007800907A4803787A48027866
:1030F0007AA101A81EF06CFE01AA822114200CF016
:1031000036F87948007830B1012826D0022843D01B
:10311000032865D152E04FF6686100200BF0FCFDFA
:1031200072480BF016FE002001231A4600907048EA
:1031300090ED000B64218220FFF7A0FE63480BF0A6
:1031400008FE002001231A460090694890ED000B0C
:10315000AA215020FFF792FE43E04FF6686100205D
:103160000BF0DAFD61480BF0F4FD00200323009022
:103170006048028864218220FFF7E4FE53480BF088
:10318000E8FD0820032300905B4802888721502037
:10319000FFF7D8FE25E088E24FF6686100200BF0CB
:1031A000BBFD52480BF0D5FD002002230090534890
:1031B000027864218220FFF7C5FE12E045F2AA21C1
:1031C00000200BF0A9FD49480BF0C3FD00200223AD
:1031D00000904B48027864218220FFF7B3FE00E0A4
:1031E00000BF00BF40F2FC4100200BF095FD3F48BE
:1031F0000BF0AFFD002001231A460090414890EDEE
:10320000000B4FF4A5718220FFF738FE2F480BF01A
:10321000A0FD002001231A4600903B4890ED000BD2
:103220004FF4C8715020FFF729FE3FE24FF6686166
:1032300000200BF071FD2D480BF08BFD032000905A
:103240003248D0ED000A324890ED000AB8EE400A4C
:1032500020EE800ABCEEC00A10EE100A82B20323F0
:1032600055217820FFF76EFE18480BF072FD51E0F3
:103270001AE2D2E1A2E1A0E170E16EE141E13FE1B9
:1032800020E101E103E2C6E0C4E009E207E205E271
:1032900003E201E2FFE1FCE1FCE1A9E096E002E2E9
:1032A0006EE06CE0FEE1F3E1D4E1FAE125312E318C
:1032B000662070480000000025312E3166000000B5
:1032C00025312E31666F4300640100204402002046
:1032D000B6000020B5000020B40000202532643A7A
:1032E0002532643A25326400CE0000203C020020E2
:1032F00028010020180000200C01002000010020FF
:1033000001010020080000202001002024000020EE
:103310002C000020032003464FF4C8729B2100902C
:103320004620FFF70FFE40F2FC4100200BF0F4FCBA
:10333000E1480BF00EFD03200090E048D0ED000ABC
:10334000DF4890ED000AB8EE400A20EE800ABCEE9D
:10335000C00A10EE100A82B2032340F23B1178201B
:10336000FFF7F0FDD7480BF0F4FC03200346C8221A
:1033700040F2811100904620FFF7E4FD96E100BF86
:1033800045F2AA214FF6FF700BF0C6FCCA480BF0BD
:10339000E0FC042002230090CB48027869216420DD
:1033A000FFF7D0FD45F2AA214FF6FF700BF0B4FCF9
:1033B000C1480BF0CEFC052002230090C3480278E0
:1033C00040F23B116420FFF7BDFD6FE147F2C551AC
:1033D0004FF6FF700BF0A0FCB7480BF0BAFC0020D2
:1033E00002230F22C32100909620FFF7ABFD5DE181
:1033F0004EF2E3014FF6FF700BF08EFCAE480BF07F
:10340000A8FC002002231422C32100909620FFF77D
:1034100099FD4BE100BF4FF6686100200BF07CFC8A
:10342000A5480BF096FC002001231A460090A848FE
:1034300090ED000B64210846FFF720FDA1480BF03A
:1034400088FCA4A2A5216E200BF091FE40F2FC4165
:1034500000200BF061FC98480BF07BFC002001235E
:103460001A4600909D4890ED000B4FF4A571642022
:10347000FFF704FD93480BF06CFC99A240F28B110E
:103480006E200BF074FE11E140F2FC4100200BF0C5
:1034900043FC89480BF05DFC002001231A46009094
:1034A000904890ED000B4FF4A5716420FFF7E6FC07
:1034B00084480BF04EFC8AA240F28B116E200BF078
:1034C00056FEF3E04FF6686100200BF025FC7A48C9
:1034D0000BF03FFC002001231A460090824890ED3B
:1034E000000B4FF4A5716420FFF7C8FC75480BF082
:1034F00030FC7EA240F28B116E200BF038FED5E03E
:1035000000BF4FF6686100200BF006FC6A480BF024
:1035100020FC082003230090764802886421084696
:10352000FFF710FD40F2FC4100200BF0F5FB624874
:103530000BF00FFC002001231A460090674890ED25
:10354000000B4FF4A5716420FFF798FC64A240F2D1
:103550008B1164200BF00BFEA8E000BF4FF66861F2
:1035600000200BF0D9FB54480BF0F3FB00200223A2
:1035700000906148027864210846FFF7E3FC40F2BE
:10358000FC4100200BF0C8FB4B480BF0E2FB002095
:1035900001231A460090514890ED000B4FF4A5719D
:1035A0006420FFF76BFC47480BF0D3FB4CA240F2C2
:1035B0008B116E200BF0DBFD78E000BF45F2AA21F5
:1035C00000200BF0A9FB3C480BF0C3FB00200223BA
:1035D00000904A48027864210846FFF7B3FC40F2A5
:1035E000FC4100200BF098FB33480BF0B2FB0020AD
:1035F00001231A460090394890ED000B4FF4A57155
:103600006420FFF73BFC2F480BF0A3FB34A240F2F1
:103610008B116E200BF0ABFD48E045F2AA214FF66E
:10362000FF700BF079FB24480BF093FB34480068E3
:1036300021F0C6F841EC180B092001230222B0EE5C
:10364000480AF0EE680A4FF4A57100906420FFF775
:1036500015FC2BE045F2AA214FF6FF700BF05CFB46
:1036600015480BF076FB2748006821F0A9F841ECDB
:10367000180B092001230222B0EE480AF0EE680A76
:103680004FF4A57100906420FFF7F8FB0EE000BF37
:1036900000BF00BF00BF00BF00BF00BF00BF00BF32
:1036A00000BF00BF00BF00BF00E000BF00BF03B00D
:1036B000BDEC028B00BD00003C0200202400002075
:1036C0002800002044020020020100200301002005
:1036D000280100206D672F6C0000000020010020F1
:1036E0007048000010010020180100206D672F684D
:1036F000000000000C01002000010020010100205A
:10370000080100200401002000B58DB00121084609
:1037100010F0EEF80121080210F02EF9412001907E
:1037200003208DF8080000208DF80B0001A9244823
:103730000FF09CFE0020039004900590069003A8D3
:103740000EF0C8FE0EF08CFE002007908DF82000D1
:103750008DF8210009900A900B9001208DF830001F
:1037600007A918480EF087FE012116480EF0C9FE81
:103770000DB000BD10B504460423012221461148B6
:103780000EF0FFFE0F480EF058FF00BF02210D485B
:103790000FF074F80028F9D00A480EF08AFF40F6BE
:1037A000E441484340F6FF7190FBF1F000EE100A4F
:1037B000B8EEC00A044880ED000A90ED000A10BD82
:1037C0000000024000200140BC0000201CB5012187
:1037D000084610F08DF83020009001208DF804008C
:1037E00000208DF8060003208DF8050000208DF8DC
:1037F0000700694606480FF039FE1CBD18B10128C4
:1038000003D10A8302E04A8300E000BF00BF704793
:103810000000024010B52DED088BB0EE408AF0EEAE
:10382000608A9FED150B53EC102B154890ED000BA3
:1038300051EC100B20F0BEFA41EC190B9FED0E0B72
:1038400053EC102B51EC180B20F0B4FA41EC1B0B8D
:103850000C4890ED000B53EC102B51EC1B0B20F09F
:1038600085FD41EC1A0B53EC192B20F057FB41EC72
:10387000100BBDEC088B10BD666666666612714063
:10388000E0000020C000002010B5012175480FF0B5
:103890006BFE4FF41670FCF787FD012171480FF0A5
:1038A00061FE6420FCF780FD01216E480FF040FEB0
:1038B00028B94FF4FA70FCF777FD012010BD4FF4E2
:1038C000FA70FCF771FD0020F8E710B5012165489A
:1038D0000FF04AFE0220FCF767FD012161480FF05E
:1038E00041FE0A20FCF760FD01215E480FF020FE3A
:1038F00020B93A20FCF758FD002010BD3A20FCF713
:1039000053FD0120F9E770B50025002406E0FFF71C
:10391000DCFFA0402843C5B2601CC4B2082CF6DB13
:10392000284670BD2DE9F0410446012504EA05074B
:10393000002623E077B101214A480FF015FE03204D
:10394000FCF732FD012147480FF00CFE5A20FCF72E
:103950002BFD0DE0012143480FF006FE5A20FCF735
:1039600023FD01213F480FF0FDFD0320FCF71CFD66
:103970006806050E04EA0507701CC6B2082ED9DBDE
:10398000BDE8F0812DE9F0473320FFF7CBFFFFF7CB
:10399000BAFF0446FFF7B7FF00260546FFF7B3FF5F
:1039A0000002054346EAE076FFF7ADFF0004054359
:1039B00046EAE076FFF7A7FF81464FEA0960310249
:1039C00041EA156C40EA05214CEAE07841EA040737
:1039D00038464146BDE8F08710B504462046FFF75B
:1039E000A1FF442C06D100BF01211E480FF0A0FD0D
:1039F0000028F9D010BD10B504462046FFF792FF0D
:103A000010BD2DE9F0412DED028B01259FED160A29
:103A1000B0EE408AFFF777FF0646FFF774FF0746D0
:103A200046EA07286C1F14E008EA050058B100EECA
:103A3000104AF8EEC00AB0EE000A1FF029FE30EE80
:103A4000080AB0EE408A4FF6FF7000EA4505601C98
:103A500044B2072CE8DBB0EE480ABDEC028BBDE8AF
:103A6000F0810000000402400000000010B5FB4897
:103A7000006809F06AFD01F01EF910BD10B5F748A5
:103A8000006809F062FD04F0E0FF10BD10B5F348D6
:103A9000006809F05AFD00F0C0FF10BD10B5EF48F6
:103AA000006809F052FD01F0ACFB10BD10B5EB4809
:103AB000006809F04AFD03F023F910BD10B5E7488E
:103AC000006809F042FDE648007808B101F012FAFA
:103AD00001F055FA10BD10B5E048006809F035FD59
:103AE00004F014FF10BD10B5FFF77EF810BD10B53F
:103AF0000020DB490870DB490860DB490860D748D3
:103B0000006809F022FD01F0D6F810BD10B50020C4
:103B1000D3490870D3490860D3490860CF4800688A
:103B200009F013FD00F079FF10BD10B5CC48007806
:103B300030B1012808D002280AD0032814D10FE0A0
:103B40000220C749087010E00320C54908700CE046
:103B5000C248006809F0F9FC0020C149087004E07F
:103B60000120BF49087000E000BF00BF01F007FA64
:103B700010BD10B5BA48007830B1012808D002282D
:103B80000ED0032814D10FE00120B549087010E0D1
:103B9000B248006809F0D9FC0020B149087008E07B
:103BA0000320AF49087004E00220AD49087000E02E
:103BB00000BF00BF01F0E3F910BD10B5A7480068D1
:103BC00009F0C3FC01F077F810BD10B5A3480068F8
:103BD00009F0BBFC00F021FF10BD10B59F48006844
:103BE00009F0B3FC01F052FC10BD10B59B48006811
:103BF00009F0ABFC01F042FF10BD10B5974800681A
:103C000009F0A3FC9948007830B1012807D00228B8
:103C100008D003280CD108E002F03DFD09E003F0D4
:103C200036FC06E003F0CFFE03E004F046F900E0C6
:103C300000BF00BF10BD10B58848006809F085FCC2
:103C400001F0DFFA10BD10B58448006809F07DFC72
:103C500000F0E3FE10BD86480078401C84490870DF
:103C600008460078322801DD32200870704780480D
:103C70000078401E7E4908700846007808B9002088
:103C8000087070477A4800787A490870704710B514
:103C90007248006809F059FC764800787449087049
:103CA00001F014FD10BD10B56C48006809F04DFC22
:103CB00001F0A7FA10BD10B56848006809F045FC8E
:103CC00000F0ABFE10BD6C480078401C6A490870DB
:103CD00008460078182801DD1820087070476648EB
:103CE0000078401E6449087008460078062800D114
:103CF000087070476048007860490870704710B5D8
:103D00005648006809F021FC5C4800785A49087060
:103D100001F0BCFB10BD10B55048006809F015FC5F
:103D200001F06FFA10BD10B54C48006809F00DFCA9
:103D300000F073FE10BD002051490870704701204B
:103D40004F490870704710B502204D49087043482C
:103D5000006809F0FAFB02F056F810BD002049494E
:103D60000870704701204749087070470220454994
:103D70000870704710B50020434908703748006844
:103D800009F0E3FB02F0B0F810BD01203E490870D5
:103D9000704702203C490870704710B52F480068F2
:103DA00009F0D3FB01F06AFE10BD10B52B48006886
:103DB00009F0CBFB01F062FE10BD10B5274800688A
:103DC00009F0C3FB01F05AFE10BD10B5234800688E
:103DD00009F0BBFB03F0A4F810BD10B51F48006844
:103DE00009F0B3FB03F09CF810BD10B51B48006848
:103DF00009F0ABFB9FED250B264880ED000B9FEDF6
:103E0000260B274880ED000B9FED230B254880ED06
:103E1000000B9FED210B244880ED000B9FED1E0B46
:103E2000224880ED000B9FED1C0B214880ED000B1C
:103E30009FED190B1F4880ED000B03F071F810BDCA
:103E400010B50648006809F080FB1B4890ED000B98
:103E50001A4880ED000B03F0F5F910BD6001002059
:103E6000C9000020280000202C000020CE000020E7
:103E700002010020D100002003010020D200002018
:103E8000CB000020CC000020CD000020000000006E
:103E900000001040100100200000000000000000A1
:103EA000300100203801002040010020480100209E
:103EB0005001002058010020F800002018010020C7
:103EC00010B5FA48006809F040FB03F0BBF910BDDB
:103ED00010B5F648006809F038FB01F0CFFD10BDC1
:103EE00010B5F248006809F030FB01F0C7FD10BDC5
:103EF00010B5EE48006809F028FB01F082F910BD0A
:103F000010B5EA48006809F020FB00F086FD10BDFE
:103F100010B59FEDE70B53EC102BE74890ED000B2D
:103F200051EC100B1FF046FFE34A03C29FEDE30B79
:103F300053EC102BE04890ED000B51EC100B20F0EF
:103F400013FB04D29FEDDD0BDB4880ED000B10BDB1
:103F500010B59FEDD70B53EC102BD74890ED000B0D
:103F600051EC100B20F042FBD34A03C29FEDD50B5E
:103F700053EC102BD04890ED000B51EC100B20F0BF
:103F8000B9F904D29FEDCF0BCB4880ED000B10BDEB
:103F9000C94890ED000BCD4880ED000B704710B57F
:103FA000C248006809F0D1FA02F056FD10BD10B504
:103FB000BE48006809F0C9FA01F023F910BD10B538
:103FC000BA48006809F0C1FA00F027FD10BD10B52D
:103FD0009FEDB70B53EC102BBD4890ED000B51EC4F
:103FE000100B1FF0E7FEBA4A03C29FEDBA0B53EC69
:103FF000102BB74890ED000B51EC100B20F0B4FAE9
:1040000004D29FEDB40BB24880ED000B10BD10B58B
:104010009FEDA70B53EC102BAD4890ED000B51EC2E
:10402000100B20F0E3FAAA4A03C29FEDAC0B53EC4D
:10403000102BA74890ED000B51EC100B20F05AF913
:1040400004D29FEDA60BA24880ED000B10BDA04846
:1040500090ED000BA34880ED000B704710B593481E
:10406000006809F072FA02F016FB10BD10B58F4817
:10407000006809F06AFA00F01EFE10BD10B58B480A
:10408000006809F062FA00F0C8FC10BD10B587485E
:10409000006809F05AFA03F0D5F88448006809F07E
:1040A00054FA02F00FF910BD10B58048006809F00D
:1040B0004CFA02F035FF7D48006809F046FA01F03D
:1040C000DFFF10BD10B57948006809F03EFA04F032
:1040D00099F910BD10B57548006809F036FA04F07A
:1040E000A7FA10BD10B52DED048B7048006809F0DB
:1040F0002CFA1FED970B53EC102B7B4890ED000B27
:1041000051EC100B20F062F80BD01FED9D0B53EC1F
:10411000102B764890ED000B51EC100B20F056F868
:1041200005D104F004FD00207149087035E07148A4
:1041300090ED000B704880ED000B6C4890ED000B8B
:104140006E4880ED000B6E4890ED000B53EC102B89
:10415000684890ED000B51EC100B20F047FA41EC51
:10416000190B614890ED000B53EC102B5F4890ED5C
:10417000000B51EC100B20F039FA41EC180B53EC0A
:10418000192B1FF0CBFE5F4A03C25F4890ED000B76
:104190005E4880ED000B02F0B3FDBDEC048B10BD5A
:1041A00010B52DED048B4148006809F0CEF91FEDE4
:1041B000C60B53EC102B4C4890ED000B51EC100B40
:1041C00020F004F80BD01FEDCC0B53EC102B47481C
:1041D00090ED000B51EC100B1FF0F8FF05D104F02F
:1041E000A6FC01204249087035E0424890ED000BE2
:1041F000414880ED000B3D4890ED000B3F4880EDBD
:10420000000B3F4890ED000B53EC102B394890ED1C
:10421000000B51EC100B20F0E9F941EC190B32487E
:1042200090ED000B53EC102B304890ED000B51EC4F
:10423000100B20F0DBF941EC180B53EC192B1FF09D
:104240006DFE304A03C2304890ED000B2F4880EDE0
:10425000000B00F0E2FBBDEC048B10BD10B59FED30
:104260002C0B53EC102B2C4890ED000B51EC100B49
:1042700020F07AF90BD20D48006809F066F99FED3D
:10428000240B254880ED000B01F094FE0CE09FED1F
:10429000080B53EC102B204890ED000B51EC100B49
:1042A0001FF088FD1C4A03C210BD00006001002001
:1042B0009A9999999999B93F200100206666666696
:1042C00066661E400000000000001A40F00000205A
:1042D00028010020333333333333F33F0000000031
:1042E0000000E03FF80000204001002048010020CD
:1042F000C800002038010020D8000020380000202D
:1043000030010020C000002058010020E000002003
:104310003333333333331F401001002010B59FED8A
:10432000F90B53EC102BF94890ED000B51EC100BEE
:104330001FF0E0FF0BD2F648006809F006F99FED88
:10434000F10BF24880ED000B01F034FE0CE01FEDA4
:10435000280B53EC102BED4890ED000B51EC100B9B
:1043600020F044F9E94A03C210BD10B59FEDE90BF6
:1043700053EC102BE54890ED000B51EC100B1FF0A7
:10438000B9FF12D2E14890ED000BE44880ED000B3C
:10439000E34890ED000BE34880ED000BE24890ED20
:1043A000000BE24880ED000B11E0D84890ED000BC7
:1043B000DF4880ED000BDA4890ED000BDD4880ED22
:1043C000000BD94890ED000BDB4880ED000B10BDD1
:1043D00010B5CF48006809F0B8F802F091FC10BDA4
:1043E00010B5CB48006809F0B0F800F016FB10BD1E
:1043F00010B51FED510B53EC102BD04890ED000B76
:1044000051EC100B1FF0D6FCCC4A03C21FED4F0B32
:1044100053EC102BC94890ED000B51EC100B20F021
:10442000A3F804D21FED550BC44880ED000B10BD5E
:1044300010B5C34890ED000B53EC102BBF4890ED26
:10444000000B51EC100B1FF055FF0CD2B048006868
:1044500009F07BF8BA4890ED000BB84880ED000BEE
:1044600001F097FF0CE01FED6E0B53EC102BB348DF
:1044700090ED000B51EC100B20F0B8F8AF4A03C2DE
:1044800010BDAE4890ED000BAE4880ED000B7047BC
:1044900010B59F48006809F058F800F0B2FE10BD52
:1044A00010B59B48006809F050F800F0B6FA10BD4E
:1044B000A54800880A30A44908800846008840F2D0
:1044C000DE31884202DD08469F49088070479E48D9
:1044D00000880A389C490880084600880A2801DAC2
:1044E0000A200880704798480088984908807047DB
:1044F00010B58748006809F028F803F041F910BDAD
:1045000010B58348006809F020F800F07AFE10BD6D
:1045100010B57F48006809F018F800F07EFA10BD69
:1045200010B51FED9D0B53EC102B894890ED000B3F
:1045300051EC100B1FF03EFC854A03C21FED8C0BA3
:1045400053EC102B824890ED000B51EC100B20F037
:104550000BF804D21FED920B7D4880ED000B10BDCF
:1045600010B51FEDAD0B53EC102B794890ED000BFF
:1045700051EC100B20F03AF8754A03C29FED750B11
:1045800053EC102B724890ED000B51EC100B1FF008
:10459000B1FE04D29FED6F0B6D4880ED000B10BD96
:1045A0006B4890ED000B6D4880ED000B704710B527
:1045B0005748006808F0C9FF02F069FF10BD10B548
:1045C0005348006808F0C1FF00F01BFE10BD10B595
:1045D0004F48006808F0B9FF00F01FFA10BD6048AE
:1045E0000078401C5E49087008460078142801DDF8
:1045F0001420087070475A480078002804DD584895
:104600000078401E56490870704755480078554953
:104610000870704710B53E48006808F096FF03F038
:1046200028FB10BD10B53A48006808F08EFF00F076
:10463000E8FD10BD10B53648006808F086FF00F0B0
:10464000ECF910BD10B51FEDE60B53EC102B4048F4
:1046500090ED000B51EC100B1FF0ACFB3C4A03C279
:104660001FEDD50B53EC102B394890ED000B51EC9E
:10467000100B1FF079FF04D21FEDDB0B344880EDE7
:10468000000B10BD10B51FEDF60B53EC102B30488E
:1046900090ED000B51EC100B1FF0A8FF2C4A03C249
:1046A0009FED2C0B53EC102B294890ED000B51EC97
:1046B000100B1FF01FFE04D29FED260B244880ED47
:1046C000000B10BD224890ED000B244880ED000B3C
:1046D000704710B50E48006808F037FF03F073F913
:1046E00010BD10B50A48006808F02FFF00F089FDE2
:1046F00010BD10B50648006808F027FF00F08DF9DE
:1047000010BD000000000000000008401001002063
:104710006001002000000000000014403001002073
:104720001000002040010020400000205001002027
:104730003801002048010020580100201801002005
:10474000F8000020E80000200C010020D400002028
:1047500020010020CDCCCCCCCCCC1840F0000020E7
:1047600000010020CF0000208A480078401C8949C1
:104770000870084600781E2801DD1E20087070476A
:1047800084480078002804DD82480078401E814972
:10479000087070477F4800787F490870704710B5EF
:1047A0007E48006808F0D1FE03F0E6FC10BD10B5AD
:1047B0007A48006808F0C9FE00F023FD10BD10B56E
:1047C0007648006808F0C1FE00F027F910BD10B56A
:1047D0009FED730B53EC102B734890ED000B51ECD5
:1047E000100B1FF0E7FA704A03C29FED700B53ECF9
:1047F000102B6D4890ED000B51EC100B1FF0B4FE28
:1048000004D29FED6A0B684880ED000B10BD10B517
:104810009FED630B53EC102B634890ED000B51ECB4
:10482000100B1FF0E3FE604A03C21FED360B53EC82
:10483000102B5D4890ED000B51EC100B1FF05AFD52
:1048400004D21FED3C0B584880ED000B10BD5648BC
:1048500090ED000B574880ED000B704710B54F48A6
:10486000006808F072FE03F028FB10BD10B54B483D
:10487000006808F06AFE02F043FA10BD10B5474820
:10488000006808F062FE00F0C8F810BD704770477D
:10489000704710B54148006808F057FE02F030FA42
:1048A00010BD10B53D48006808F04FFE00F0B5F8A7
:1048B00010BD70477047704710B53848006808F061
:1048C00044FE00F0F8F910BD10B53448006808F057
:1048D0003CFE00F0A2F810BD002037490870704778
:1048E000012035490870704702203349087070472D
:1048F000032031490870704710B52848006808F057
:1049000024FE00F08AF810BD01202C490870704781
:1049100000202A490870704710B52048006808F048
:1049200014FE2748007810B902F0EAF905E024489F
:104930000078012801D100F070F810BD10B51748BB
:10494000006808F002FE9FED1F0B204880ED000B71
:104950009FED1F0B204880ED000B9FED1D0B1F48A6
:1049600080ED000B9FED1A0B1D4880ED000B9FEDB5
:10497000180B1C4880ED000B9FED150B1A4880EDBD
:10498000000B9FED130B194880ED000B02F0C8FAE5
:1049900010BD000001010020D000002060010020B7
:1049A0009A9999999999B93F20010020333333336B
:1049B00033331F40F0000020CE000020CA0000204A
:1049C000C80000200000000000001040100100207E
:1049D000000000000000000030010020380100202D
:1049E0004001002048010020500100205801002013
:1049F00038B5FD484FF6FF731E22D22100900120EA
:104A000009F0A9FB0446F94808F0D7F9F74B22460C
:104A1000F021FA2007F085FE38BD08B5FFF7E8FF62
:104A200000200AF01AFA4FF6FF702023D222F0215C
:104A30000090FA200AF08AFEED480AF08AF9EDA00B
:104A40001E23D222F0210090FA200BF0D7F8052285
:104A50001421EB480AF0D7FD00214FF6FF700AF051
:104A60005BF9E3480AF075F9E6A24FF49671142059
:104A70000AF07DFBE7A21421FA200AF078FB40F24D
:104A8000FC40A023D2223C210090FA200AF05EFED6
:104A9000E348007830B1012820D002283AD003281A
:104AA00072D154E04FF66860A023D2223C210090DE
:104AB00014200AF04BFE4FF6686100200AF02CF932
:104AC000CB480AF046F9D7A21E2150200AF04FFB2E
:104AD000D7A2AF21A0200AF04AFB56E04FF668604B
:104AE000A023D2223C21009014200AF02FFE4FF682
:104AF000686100200AF010F9BD480AF02AF9CEA238
:104B00001E2150200AF033FBCDA2AF21A0200AF0D5
:104B10002EFB3AE04FF66860A023D2223C210090A1
:104B200014200AF013FE4FF6686100200AF0F4F832
:104B3000AF480AF00EF9C3A21E2150200AF017FB5D
:104B40000023C2A2822150200AF033FB1DE045F26F
:104B5000AA20A023D2223C21009014200AF0F6FDC6
:104B600045F2AA2100200AF0D7F8A1480AF0F1F88E
:104B7000B4A21E2150200AF0FAFAB7A282215020D6
:104B80000AF0F5FA01E0FFE700BF00BF40F2FC4188
:104B900000200AF0C1F896480AF0DBF8B1A24FF401
:104BA000827150200AF0E3FAB0A24FF4C871A0203D
:104BB0000AF0DDFA8D480121C26990470120AC4915
:104BC00008808A48AB49086008BD10B5FFF725FF8B
:104BD00010BD2DE9F84FA84803231E228221009022
:104BE000012009F0B8FA0446A4484FF6FF731E22CC
:104BF000A0210090022009F0AEFA0546A04800234B
:104C00005022D2210090032009F0A5FA06469D48C3
:104C100000235022D2210090042009F09CFA07467C
:104C2000994800235022D2210090052009F093FAE0
:104C30008046964800235022D2210090062009F099
:104C40008AFA8146924803231E228221009007207F
:104C500009F081FA82468F4808F0AFF88D4B224662
:104C6000F0214FF4A57007F05CFD8A4B2A46F02135
:104C7000142007F056FD874B32463C21142007F0E4
:104C800050FD844B3A463C21FA2007F04AFD814B07
:104C900042469621142007F044FD7E4B4A46962159
:104CA000FA2007F03EFD7B4B5246F021BE2007F074
:104CB00038FDBDE8F88F08B5FFF78BFF00200AF03C
:104CC000CCF8052214214E480AF09DFC00214FF635
:104CD000FF700AF021F846480AF03BF845A24FF46D
:104CE000B97114200AF043FAD22350223C21142037
:104CF0000AF086FBD22350223C21FA200AF080FBE6
:104D0000D2235022962114200AF07AFBD22350227B
:104D10009621FA200AF074FB4FF6FF701E23A022A2
:104D2000F021009014200AF011FD82231E22F021B0
:104D3000BE200AF065FB82231E22F0214FF4A570ED
:104D40000AF05EFB00214FF6FF7009F0E5FF2848EE
:104D500009F0FFFF50A05023D2223C2100901420E4
:104D60000AF04CFF4FA05023D2223C210090FA20A1
:104D70000AF044FF4EA05023D22296210090142026
:104D80000AF03CFF4DA05023D22296210090FA2039
:104D90000AF034FF4DA01E238222F0210090BE2095
:104DA0000AF02CFF4CA01E238222F02100904FF429
:104DB000A5700AF023FF4FF6FF71002009F0ACFF49
:104DC00048A01E23A022F021009014200AF016FF14
:104DD00030480121C26990470220254908802D48AA
:104DE0002449086008BD00006D3A00085C150020E9
:104DF0004402002053455454494E475300000000DC
:104E0000D830040843484155205048554F43205658
:104E10005500000042414348204B484F41000000EC
:104E2000CE00002043484C4F52494E450000000040
:104E30006D672F6C000000005245444F5800000081
:104E40006D560000444F5345000000006D6C2F6DFF
:104E500033686F75720000006D6C2F6D336461797B
:104E60000000000050482D2D000000007048000098
:104E700064010020600100207D3A00088D3A00089E
:104E80009D3A0008AD3A0008BD3A0008D73A00083C
:104E9000E73A000800160020504152414D45544564
:104EA0005253000043414C4942524154494F4E0035
:104EB000444F53494E47205445535400545950458C
:104EC000204F462050524F42450000005341564566
:104ED00020444154410000004C414E475541474554
:104EE000530000004241434B20544F205354415241
:104EF00054000000F8B5FE484FF6FF731E22D22181
:104F00000090012009F027F90446FA484FF6FF7394
:104F10001E22D2210090022009F01DF90546F64814
:104F200040F2FC433C22D2210090032009F013F907
:104F30000646F2484FF668633C22D22100900420D6
:104F400009F009F90746EE4807F037FFEC4B224617
:104F5000F021FA2007F0E5FBE94B2A46F021142066
:104F600007F0DFFBE64B3246AA21142007F0D9FBFD
:104F7000E34B3A46AA21FA2007F0D3FBF8BD08B567
:104F8000E048007808B9FFF7B5FF002009F065FF99
:104F900005221421DC480AF036FB00214FF6FF7091
:104FA00009F0BAFED94809F0D4FEAFF2FC024FF482
:104FB000A57114200AF0DBF84FF668606423D22252
:104FC0003C21009014200AF0C1FB40F2FC40642315
:104FD000D2223C210090FA200AF0B8FB4FF668611B
:104FE000002009F099FEC94809F0B3FEC8A21E21AD
:104FF00046200AF0BCF840F2FC41002009F08CFE8B
:10500000C24809F0A6FEAFF29C124FF4827146200E
:105010000AF0ADF84FF6FF701E23D222F021009067
:1050200014200AF093FB4FF6FF701E23D222F021CA
:105030000090FA200AF08AFB4FF6686009F07DFEC6
:10504000D2233C22AA2114200AF0DAF940F2FC40D3
:1050500009F073FED2233C22AA21FA200AF0D0F9EB
:10506000AA4809F076FE00214FF6FF7009F054FEC1
:10507000A448007830B1012817D0022838D003287E
:1050800048D124E0AFF29C103C23D222AA21009008
:1050900014200AF0B3FDAFF2AC103C23D222AA21B7
:1050A0000090FA200AF0AAFD35E0AFF2C0103C23D0
:1050B000D222AA21009014200AF0A0FD96A03C2341
:1050C000D222AA210090FA200AF098FD23E092A0B3
:1050D0003C23D222AA21009014200AF08FFD8EA03A
:1050E0003C23D222AA210090FA200AF087FD12E088
:1050F00089A03C23D222AA21009014200AF07EFD30
:10510000AFF218203C23D222AA210090FA200AF004
:1051100075FD00E000BF00BF4FF6FF71002009F0F1
:10512000FBFD7FA01E23D222F0210090FA200AF07E
:1051300065FDAFF250201E23D222F02100901420F2
:105140000AF05CFD6E480121C26990470320764950
:1051500008806B487549086008BD2DE9F84374481C
:105160004FF6FF731E22D2210090012008F0F3FFBA
:10517000044670484FF6FF731E22D2210090022091
:1051800008F0E9FF05466C4800235022D221009028
:10519000032008F0E0FF0646684800235022D22191
:1051A0000090042008F0D7FF0746654801235022ED
:1051B000D2210090052008F0CEFF8046614807F01C
:1051C000FCFD604B2246F021FA2007F0AAFA5D4B65
:1051D0002A46F021142007F0A4FA5A4B32463C210B
:1051E000142007F09EFA574B3A463C21FA2007F06C
:1051F00098FA544B42469621FA2007F092FABDE8FD
:10520000F88308B5FFF7A9FF002009F026FE052264
:1052100014213D480AF0F7F900214FF6FF7009F01C
:105220007BFD3A4809F095FDAFF294324FF4AA7134
:10523000142009F09CFFD22350223C2114200AF0B4
:10524000DFF8D22350223C21FA200AF0D9F84FF699
:1052500068605023D2229621009014200AF076FA3A
:1052600040F2FC405023D22296210090FA200AF00E
:105270006DFA00214FF6FF7009F04EFD4FF66861A0
:10528000002009F049FD30A05023D2229621009041
:1052900014200AF0B3FC40F2FC41002009F03CFD70
:1052A000AFF238405023D22296210090FA200AF023
:1052B000A5FC4FF6FF701E23D222F021009014208F
:1052C0000AF044FA4FF6FF701E23D222F02100901C
:1052D000FA200AF03BFA0D4809F03BFD00214FF699
:1052E000FF7009F019FD1CA05023D2223C2137E0A9
:1052F000EF3A00080D3B00082B3B0008733B000809
:10530000A4160020C9000020D83004084402002060
:10531000444953494E462E0053544F50000000005C
:105320004241434B00000000640100206001002066
:10533000BB3B0008CB3B0008DB3B0008EB3B000815
:10534000FB3B000848170020444953494E4645435B
:1053500054494F4E00000000504F4F4C00000000D9
:10536000009014200AF04AFCFEA05023D2223C21D7
:105370000090FA200AF042FC4FF6FF71002009F07D
:10538000CBFCAFF264001E23D222F0210090FA2061
:105390000AF034FCAFF2B4401E23D222F021009078
:1053A00014200AF02BFC4FF6FF71002009F0B4FC2A
:1053B000EE480121C26990470720ED490880EB487B
:1053C000EC49086008BD2DE9F843EB484FF6FF7340
:1053D0001E22D2210090012008F0BDFE0446E748BD
:1053E0004FF6FF731E22D2210090022008F0B3FE78
:1053F0000546E34803233C2264210090184608F048
:10540000AAFE0646DF4803233C22642100900420C4
:1054100008F0A1FE0746DC4803233C22D22100907D
:10542000052008F098FE8046D84801236422D22146
:105430000090062008F08FFE8146D54807F0BDFC9D
:10544000D34B2246F021FA2007F06BF9D04B2A46C5
:10545000F021142007F065F9CD4B3246AA21142023
:1054600007F05FF9CA4B3A46AA21822007F059F9A2
:10547000C74B4246AA21FA2007F053F9C44B4A46CB
:105480003C21FA2007F04DF9BDE8F88308B5FFF795
:105490009AFF002009F0E1FC05221421BD480AF022
:1054A000B2F800214FF6FF7009F036FCBA4809F057
:1054B00050FCBAA24FF48C71142009F058FE45F24A
:1054C000AA206423D2223C21009014200AF03EF945
:1054D00045F2AA206423D2223C210090FA200AF04F
:1054E00035F945F2AA2009F02EFCAB4809F031FC51
:1054F000AEA21E21462009F03AFE002014233C22D1
:105500008C2100905F200AF021F945F2AA2009F0D1
:105510001AFCA14809F01DFCA7A2FF21462009F0B2
:1055200026FE4FF6FF701E23D222F0210090142099
:105530000AF00CF94FF6FF701E23D222F0210090E2
:10554000FA200AF003F94FF6FF7009F0F6FB642326
:105550003C22AA21142009F053FF64233C22AA21F3
:10556000822009F04DFFD2233C22AA21FA2009F023
:1055700047FF964809F0EDFB00214FF6FF7009F058
:10558000CBFB93A03C236422AA21009014200AF0B4
:1055900035FB90A03C236422AA21009082200AF0CF
:1055A0002DFB7D4809F0D5FB8BA03C23D222AA21FC
:1055B0000090FA200AF022FB4FF6FF71002009F05C
:1055C000ABFBAFF2A4201E23D222F0210090FA20E0
:1055D0000AF014FBAFF2F4601E23D222F0210090F7
:1055E00014200AF00BFB4FF6FF71002009F094FB2A
:1055F00067480121C269904708205D4908806448D6
:105600005C49086008BD2DE9F84374484FF6FF7304
:105610001E22D2210090012008F09DFD0446704812
:105620004FF6FF731E22D2210090022008F093FD56
:1056300005466C4803233C2264210090184608F07C
:105640008AFD0646684803233C226421009004201A
:1056500008F081FD0746654803233C22D2210090D3
:10566000052008F078FD8046614801236422D2219C
:105670000090062008F06FFD81465E4807F09DFB14
:105680005C4B2246F021FA2007F04BF8594B2A4692
:10569000F021142007F045F8564B3246AA21142079
:1056A00007F03FF8534B3A46AA21822007F039F819
:1056B000504B4246AA21FA2007F033F84D4B4A4698
:1056C0003C21142007F02DF8BDE8F88308B5FFF75A
:1056D0009AFF002009F0C1FB052214212D4809F092
:1056E00092FF00214FF6FF7009F016FB2A4809F0DF
:1056F00030FB2AA24FF48C71142009F038FD45F2DA
:10570000AA206423D2223C21009014200AF01EF823
:1057100045F2AA206423D2223C210090FA200AF00C
:1057200015F8002014233C228C21009040F24510F3
:105730000AF00CF845F2AA214FF6FF7009F0ECFAD6
:10574000154809F006FB19A21E21462009F00FFD9D
:1057500045F2AA214FF6FF7009F0DEFA0E4809F073
:10576000F8FA49E05741544552000000481700201C
:105770006401002060010020373C0008473C00081D
:10578000573C00086F3C0008853C00088F3C00082F
:10579000EC170020D830040844020020504F4F4C32
:1057A00020504152414D455445525300504F4F4CAB
:1057B00020564F4C554D450046494C545241544992
:1057C0004F4E20504552494F440000003C020020FB
:1057D0002B0000002D0000004F4B0000A73C0008EC
:1057E000B73C0008C73C0008DF3C0008F53C000857
:1057F000FF3C000890180020AFF24402FF21462031
:1058000009F0B5FC4FF6FF701E23D222F021009064
:10581000142009F09BFF4FF6FF701E23D222F021C7
:105820000090FA2009F092FF4FF6FF7009F085FA18
:1058300064233C22AA21142009F0E2FD64233C22C7
:10584000AA21822009F0DCFDD2233C22AA21FA20E1
:1058500009F0D6FDFE4809F07CFA00214FF6FF70F2
:1058600009F05AFAAFF298003C236422AA21009072
:1058700014200AF0C3F9AFF2A4003C236422AA2149
:10588000009082200AF0BAF9F24809F062FAAFF209
:10589000B8003C23D222AA210090FA200AF0AEF9E7
:1058A0004FF6FF71002009F037FAAFF28C501E233B
:1058B000D222F0210090FA200AF0A0F9AFF6DC1015
:1058C0001E23D222F021009014200AF097F94FF6FF
:1058D000FF71002009F020FADF480121C2699047DA
:1058E0000920DE490880DC48DD49086008BD2DE953
:1058F000F04F87B0012004F093F90446022004F031
:105900008FF90546032004F08BF90646D5484FF67B
:10591000FF731E22D2210090042008F01CFC0746D1
:10592000D1484FF6FF731E22D2210090052008F0C7
:1059300012FC8046CD4AAFF21C612046E36A9847CC
:105940008146CB4AAFF22C612046E36A98478246F3
:10595000C84AAFF238612046E36A98478346C64A90
:10596000AFF248612846EB6A98470690C34AAFF207
:1059700054612846EB6A98470590C14AAFF26461CA
:105980002846EB6A98470490BE4AAFF270613046F1
:10599000F36A98470390BC4AAFF280613046F36ADD
:1059A00098470290B94AAFF28C613046F36A984743
:1059B0000190B74807F001FAB54B3A46F021FA20BA
:1059C00006F0AFFEB24B4246F021142006F0A9FECD
:1059D000AF4B4A4655214FF4877006F0A2FEAC4B00
:1059E00052465521880006F09CFEA94B5A46552187
:1059F0004FF4CD7006F095FEA54B8C214FF48770C7
:105A0000069A06F08EFEA24B8C214FF4AA70059ADE
:105A100006F087FE9E4B8C214FF4CD70049A06F061
:105A200080FE9B4BCD214FF48770039A06F079FEE0
:105A3000974BCD214FF4AA70029A06F072FE944B58
:105A4000CD214800019A06F06CFE0121201D914AEB
:105A5000127850F8220040680176281D8E4A12788C
:105A600050F8220040680176301D8C4A127850F8B8
:105A700022004068017607B0BDE8F08F08B5FFF757
:105A800036FF002009F0E9F905221421844809F0C5
:105A9000BAFD00214FF6FF7009F03EF96D4809F09C
:105AA00058F980A24FF48771142009F060FB8248F6
:105AB00009F04FF9AFF260721E21412009F057FB47
:105AC0007EA21E21782009F052FBAFF268321E211F
:105AD000872009F04CFB7BA21E21962009F047FB92
