:020000040800F2
:100000006010012091090208590700085B070008E9
:100010005F0700086307000867070008000000008A
:10002000000000000000000000000000A90200081D
:100030006B07000800000000FD020008A10702088D
:10004000AB090208AB090208AB090208AB090208B8
:10005000AB090208AB090208AB090208AB090208A8
:10006000AB090208AB090208AB090208AB09020898
:10007000AB090208AB090208AB090208AB09020888
:10008000AB090208AB090208AB090208AB09020878
:10009000AB090208AB090208AB090208AB09020868
:1000A000AB090208AB090208AB090208AB09020858
:1000B000AF070008B1070008B3070008AB09020842
:1000C000AB090208AB090208AB090208AB09020838
:1000D000AB090208AB090208AB090208AB09020828
:1000E000AB090208AB090208AB090208AB09020818
:1000F000AB090208AB090208AB090208AB09020808
:10010000AB090208AB090208AB090208AB090208F7
:10011000AB090208AB090208AB090208AB090208E7
:10012000AB090208AB090208AB090208AB090208D7
:10013000AB0902086D070008AB090208AB09020809
:10014000AB090208AB090208AB090208AB090208B7
:10015000AB090208AB090208AB090208AB090208A7
:10016000AB090208AB090208AB090208AB09020897
:10017000AB090208AB090208AB090208AB09020887
:10018000AB090208AB09020800F002F800F07CF8A5
:100190000AA090E8000C82448344AAF10107DA45E2
:1001A00001D100F071F8AFF2090EBAE80F0013F0B8
:1001B000010F18BFFB1A43F001031847982F0500E1
:1001C000B82F05000A444FF0000C10F8013B13F063
:1001D000070408BF10F8014B1D1108BF10F8015BA0
:1001E000641E05D010F8016B641E01F8016BF9D193
:1001F00013F0080F1EBF10F8014BAD1C0C1B09D1EA
:100200006D1E58BF01F801CBFAD505E014F8016B5B
:1002100001F8016B6D1EF9D59142D6D370470000ED
:100220000023002400250026103A28BF78C1FBD8FF
:10023000520728BF30C148BF0B607047662922F0C3
:100240000886642920F07E84752920F07B84632948
:1002500021F00982002070471FB522F0F0FD9DE8D3
:10026000030020F03DFF21F081FA0400002000216E
:1002700022F062F8401C60600020002122F046F865
:10028000E0601FBD10B510BD21F0DAFB1146FFF78D
:10029000E3FF00F0E4F821F006FC03B4FFF7F2FFFF
:1002A00003BC21F033FC00002A4B19680868B0E851
:1002B000F04F80F30988BFF36F8F4FF0000080F399
:1002C000118870470000000006480068006880F34D
:1002D000088862B661B6BFF34F8FBFF36F8F00DF40
:1002E00000BF00BF08ED00E0DFF80C00016841F43A
:1002F00070010160704700BF88ED00E0EFF30980F6
:10030000BFF36F8F134B1A681EF0100F08BF20ED5C
:10031000108A20E9F04F106008B44FF0500080F3CD
:100320001188BFF34F8FBFF36F8F1FF02AF94FF083
:10033000000080F3118808BC19680868B0E8F04F25
:100340001EF0100F08BFB0EC108A80F30988BFF3CD
:100350006F8F70470C030020EFF30580704700009B
:1003600000BF6B480078401C694908700846007857
:100370003B2807DD67480078401C6649087000206C
:1003800063490870634800783B2807DD62480078BD
:10039000401C6149087000205E4908705E48007882
:1003A000172806DD00205C4908705A490870584932
:1003B00008704FF47A701EF0D3FFD2E700BF5748A1
:1003C000007830B101280FD0022818D003282CD192
:1003D00020E010225249012003F038FA202250492F
:1003E000012003F033FA21E010224D49012003F0EF
:1003F0002DFA20224A49002003F028FA16E01022A4
:100400004749002003F022FA20224549012003F049
:100410001DFA0BE010224249002003F017FA2022B7
:100420003F49002003F012FA00E000BFC7E700BF19
:100430000FF025FB0DF086FA0DF05FFB02F034FEA5
:10044000F6E710B5002010F0EDFF012010F0EAFFF4
:10045000022010F0E7FF032010F0E4FF10BD1CB5F0
:100460004FF4E1312F480DF061FCFFF7EAFF0EF089
:1004700085F8002008F09FFA0FF053F903F0CEF949
:1004800003F062F910F026FF02F0EDFA03F0BFFF6F
:1004900000F09AFA00F092F94FF4407011F018FC55
:1004A00001F0DBFE0020012103464FF4C062CDE9DC
:1004B00000101DA1AFF289001EF02DFD00200121CA
:1004C00003468022CDE9001019A1AFF20F101EF0F3
:1004D00022FD0020012103468022CDE9001018A151
:1004E000AFF283101EF017FD1FF015FA00BFFEE7F4
:1004F00000BF502080F31188BFF34F8FBFF36F8F81
:1005000000BF00BFFEE7704710B50DF013FB10BD34
:100510004200002041000020400000204C0000204C
:1005200000000240001001404C43445461736B00D2
:100530004163747561746F725461736B00000000E5
:10054000436C6F636B0000000CB5002001900090BD
:100550007648006840F480307449086000BF7348F2
:10056000006800F4003000900198401C0190009851
:1005700018B90198B0F5A06FF1D16C48006800F48B
:10058000003010B10120009001E0002000900098A0
:10059000012846D165484030006840F080506349EA
:1005A000403108606248006840F48040604908605B
:1005B0005E48083000685D490831086008460068F8
:1005C00040F4004008600846006840F4A05008600D
:1005D0005848091F0860081F006840F08070091F14
:1005E000086000BF5148006800F000700028F9D092
:1005F00040F20520504908604C480830006820F05F
:1006000003004A49083108600846006840F00200CB
:10061000086000BF45480830006800F00C0008285A
:10062000F8D10CBD10B54548006840F4700043494E
:1006300008603E48006840F001003C490860002026
:100640003A4908310860394800683D49084037494F
:1006500008603C48091D0860081F006820F48020DD
:10066000091F0860002031490C310860FFF76CFF5A
:100670004FF0006031498039086010BD70B500202E
:100680000022022300240221284D08352D6805F0A0
:100690000C0020B1042806D0082834D107E02A4DE8
:1006A0002A4E356033E02A4D284E35602FE01F4D2D
:1006B0002D1D2D68C5F380541C4D2D1D2D6805F092
:1006C0003F0154B1224DB5FBF1F5184E361D366889
:1006D000C6F3881605FB06F209E01B4DB5FBF1F5E4
:1006E000124E361D3668C6F3881605FB06F20F4D0E
:1006F0002D1D2D68C5F301456D1C6B00B2FBF3F594
:10070000124E356003E0104D104E356000BF00BF43
:10071000064D08352D68C5F303150E4E705D0B4D63
:100720002D68C540094E356070BD0000003802409C
:100730000070004019544007003C024088ED00E082
:10074000FFFFF6FE103000240024F400000000201B
:1007500040787D0104000020704700BFFEE700BF25
:10076000FEE700BFFEE700BFFEE7704708B50020C8
:100770000090402014F0DDF9012804D169460D48AD
:1007800000681EF00AF9402014F0F7F94FF48030A9
:1007900014F0F3F9009848B1009838B14FF0805048
:1007A00005490860BFF34F8FBFF36F8F08BD7047D7
:1007B000704770470003002004ED00E000B58DB0E5
:1007C0000021084616F074FE1D481CF0CBFA0C9070
:1007D0006FF0FF001CF0C6FA0B90194815381CF09A
:1007E000C1FA0A9016208DF8240001208DF825000A
:1007F000A8208DF82600C0208DF827009DF8240041
:100800009DF82510CDE900109DF826309DF8272091
:100810000CA104A820F032F90E480F4900220AABBF
:10082000CDE9002102900BAA0CA90C4818F0F9F9A7
:100830000A4818F036FA094818F083FA0DB000BDDE
:100840001601A8C0202025642E25642E25642E259F
:10085000640000006173010895DE01086C0300204C
:1008600000B5AFB001214FF0606012F0E9FC13F069
:10087000C1FB14F04DF900BF14F051F90128FBD071
:10088000684613F0C2FB01200090002007904FF44F
:1008900000700A9000200B900E901190139014900D
:1008A000159020904FF000702190001123900020AF
:1008B0002590269004202890C005299040122A9067
:1008C00080012B9040122C9040002E900121684610
:1008D00013F055FC434908600121434814F036F9F0
:1008E0002FB000BD08B54FF4A06011F0F1F93D2024
:1008F0008DF8000002208DF8010000208DF8020024
:1009000001208DF80300684611F0E7F908BD1CB519
:100910000121472012F094FC0121880312F0D4FC3D
:10092000012012F0FAFD8E20009003208DF80500C2
:1009300002208DF8040000208DF806008DF80700D5
:1009400069462A4812F03AFA0B220121274812F090
:10095000C0FA0B220221254812F0BBFA0B22032118
:10096000224812F0B6FA0B220721204812F0B1FA01
:100970004FF46050009069461D4812F01FFA0B2298
:1009800011461B4812F0A5FA0B220C21184812F050
:10099000A0FA0B220D21164812F09BFA322000908B
:1009A0006946144812F00AFA0B220121114812F08C
:1009B00090FA0B2204210F4812F08BFA0B2205212A
:1009C0000C4812F086FA1CBD10B5FFF7A0FFFFF728
:1009D00089FFFFF745FF0348006808B900BFFEE73D
:1009E00010BD000014000020400001000000024083
:1009F0000004024000080240002114E001EB410025
:100A00003D4A02EBC000007D60B9012001EB4102CC
:100A1000394B03EBC202107501EB41001A4602EBA1
:100A2000C0007047491C0A29E8DB0020F9E710B52F
:100A3000014600200FE000EB40022F4B03EBC20207
:100A40008A4207D1002200EB40032B4C04EBC30386
:100A50001A7502E0401C0A28EDDB00BF10BD70B51E
:100A60000646FFF7C9FF05460DB9002070BD234CAF
:100A700011E03046616820F0CFFA58B9A0682860CC
:100A8000E0686860E068A8600020E860207C287466
:100A90002846EBE72468002CEBD12846FFF7C7FF78
:100AA0000020E3E710B504462046FFF7C0FF10BD65
:100AB0002DE9F04104460F461646D4E9011088425C
:100AC00003D14FF0FF30BDE8F081D4E90101451AB0
:100AD000B54200DD3546A268206881182A463846AE
:100AE00020F0D8F9A0682844A0602846EBE701462A
:100AF000D1E90102801A7047A403002008D7020838
:100B000070B504467F4820F04FF905462A467D49D6
:100B1000204615F0AAFE70BD2DE9FF41064640F6BD
:100B2000AC51794820F003FA78A1774820F0A6F973
:100B300078A1754820F0A2F978A1734820F09EF9B9
:100B40007DA1714820F09AF987A16F4820F096F9AD
:100B500090A16D4820F092F995A16B4820F08EF994
:100B60009EA1694820F08AF99FA1674820F086F984
:100B70009EA1654820F082F9A2A1634820F07EF989
:100B8000A8A1614820F07AF9AEA15F4820F076F97B
:100B9000ADA15D4820F072F9ADA15B4820F06EF97F
:100BA000BBA1594820F06AF9BEA1574820F066F968
:100BB000C0A1554820F062F9C3A1534820F05EF966
:100BC000C4A1514820F05AF99EA14F4820F056F98F
:100BD000C3A14D4820F052F9C2A14B4820F04EF974
:100BE000C6A1494820F04AF9C8A1474820F046F973
:100BF000CCA1454820F042F9D1A1434820F03EF96C
:100C000090A1414820F03AF9D5A13F4820F036F9AB
:100C1000D9A13D4820F032F98AA13B4820F02EF9B5
:100C2000D9A1394820F02AF9DBA1374820F026F96C
:100C3000DFA1354820F022F9E2A1334820F01EF967
:100C4000E3A1314820F01AF97EA12F4820F016F9CF
:100C5000E3A12D4820F012F9E3A12B4820F00EF972
:100C6000E6A1294820F00AF9E8A1274820F006F972
:100C7000EDA1254820F002F9D2A1234820F0FEF88A
:100C800070A1214820F0FAF8EBA11F4820F0F6F8F7
:100C9000ECA11D4820F0F2F8EDA11B4820F0EEF881
:100CA0008CA1194820F0EAF887A1174820F0E6F84F
:100CB00064A1154820F0E2F8EBA1134820F0DEF81B
:100CC000EDA1114820F0DAF8F0A10F4820F0D6F895
:100CD000F2A10D4820F0D2F8F5A10B4820F0CEF893
:100CE000FAA1094820F0CAF8B1A1074820F0C6F8D7
:100CF00054A1054820F0C2F8FBA1034820F0BEF83B
:100D0000FAE1000009DD0208940600203C68746DD9
:100D10006C3E0000203C686561643E00203C7469C4
:100D2000746C653E576562207365727665723C2F00
:100D30007469746C653E0000203C6D657461206EC2
:100D4000616D653D226465736372697074696F6E6D
:100D50002220636F6E74656E743D22576562736501
:100D600072766572222F3E00203C6D657461206EA4
:100D7000616D653D226B6579776F72642220636FC8
:100D80006E74656E743D227562756E7475222F3EA9
:100D900000000000203C6D6574612063686172731F
:100DA00065743D227574662D38222F3E00000000C8
:100DB000203C6D65746120687474702D657175696F
:100DC000763D22726566726573682220636F6E7469
:100DD000656E743D2231223E00000000203C737499
:100DE000796C653E000000002A207B00626F782D40
:100DF00073697A696E673A20626F726465722D62F8
:100E00006F783B002D6D6F7A2D626F782D73697A44
:100E1000696E673A20626F726465722D626F783B0B
:100E2000000000002D7765626B69742D626F782D6C
:100E300073697A696E673A20626F726465722D62B7
:100E40006F783B007D000000626F6479207B0000BA
:100E5000666F6E742D66616D696C793A2022486503
:100E60006C76657469616361204E657565222C201E
:100E700048656C766574696163612C2041726961B3
:100E80006C2C2073616E732D73657269663B000074
:100E9000666F6E742D7765696768743A20333030F9
:100EA00070783B00636F6C6F723A20233333333BAF
:100EB000000000006C696E652D6865696768743AAA
:100EC00020312E3235343B006D617267696E3A20F5
:100ED000303B000070616464696E673A20303B000B
:100EE00061207B00746578742D6465636F72617432
:100EF000696F6E3A206E6F6E653B0000636F6C6FBA
:100F0000723A20233362386262613B007472616E10
:100F100073666F726D3A20616C6C20302E35733BB6
:100F2000000000002D6D6F7A2D7472616E73666F14
:100F3000726D3A20616C6C20302E35733B000000DE
:100F40002D7765626B69742D7472616E73666F7252
:100F50006D3A20616C6C20302E35733B0000000030
:100F6000613A686F7665722C20613A7669736974AC
:100F70006564207B00000000636F6C6F723A202371
:100F80003236353737383B0023636F6E7461696ED4
:100F90006572207B0000000070616464696E672DDB
:100FA0006C6566743A2031353070783B0000000083
:100FB000706F736974696F6E3A2072656C617469E1
:100FC00076653B006C6566743A20303B000000009B
:100FD00077696474683A20313030253B00000000A6
:100FE000236D656E75207B00706F736974696F6E19
:100FF0003A2066697865643B0000000068656967AF
:1010000068743A20313030253B0000006261636B28
:1010100067726F756E642D636F6C6F723A20233147
:1010200039313831383B000077696474683A2031CF
:10103000353070783B000000236D656E75207B7D38
:1010400000000000236D656E7520756C7B0000004C
:101050006C6973742D7374796C652D747970653A4D
:10106000206E6F6E653B0000236D656E7520756C9C
:10107000206C69207B0000006C696E652D686569D5
:101080006768743A20322E39656D3B006865696780
:1010900068743A20322E39656D3B20007472616E9F
:1010A000736974696F6E3A20616C6C2031733B0018
:1010B0002D6D6F7A2D7472616E736974696F6E3AFB
:1010C00020616C6C2031733B000000002D7765625D
:1010D0006B69742D7472616E736974696F6E3A20F6
:1010E000616C6C2031733B00236D656E7520756CEF
:1010F000206C692061207B0094A198481FF0BEFEFF
:1011000097A196481FF0BAFE99A194481FF0B6FE29
:101110009BA192481FF0B2FEAFF2D8218F481FF07A
:10112000ADFE9FA18D481FF0A9FEA2A18B481FF024
:10113000A5FEAFF2F02189481FF0A0FEA4A18748C8
:101140001FF09CFEA7A185481FF098FEA9A1834827
:101150001FF094FEACA181481FF090FEAFF2C011C9
:101160007E481FF08BFEAFF25C117C481FF086FEBC
:10117000AFF2303179481FF081FEA5A177481FF00A
:101180007DFE72A175481FF079FEAFF248317348B9
:101190001FF074FEA6A171481FF070FEA7A16F4852
:1011A0001FF06CFEAFF264316C481FF067FEA8A11F
:1011B0006A481FF063FEADA168481FF05FFEAFF202
:1011C0007C3166481FF05AFEAEA164481FF056FEFF
:1011D000AFA162481FF052FEB5A160481FF04EFE5D
:1011E000B8A15E481FF04AFEBAA15C481FF046FE57
:1011F000AFF2B03159481FF041FEBBA157481FF074
:101200003DFEBEA155481FF039FEC1A153481FF055
:1012100035FEC6A151481FF031FEAFF2D8314F481C
:101220001FF02CFEC8A14D481FF028FEC8A14B4856
:101230001FF024FECBA149481FF020FEAFF2FC3185
:1012400046481FF01BFECCA144481FF017FECDA15D
:1012500042481FF013FECFA140481FF00FFED0A15F
:101260003E481FF00BFEAFF224413C481FF006FE43
:10127000CFA13A481FF002FED3A138481FF0FEFD6F
:10128000D5A136481FF0FAFDAFF2484133481FF0B0
:10129000F5FDD6A131481FF0F1FDBAA12F481FF08E
:1012A000EDFDAFF260412D481FF0E8FDD3A12B48C2
:1012B0001FF0E4FDD4A129481FF0E0FDD6A1274886
:1012C0001FF0DCFDDCA125481FF0D8FDDEA123487E
:1012D0001FF0D4FDAFF2944120481FF0CFFDDF494D
:1012E0001E481FF0CBFDDE491C481FF0C7FDDDA1E5
:1012F0001A481FF0C3FDDEA118481FF0BFFDDFA193
:1013000016481FF0BBFDDFA114481FF0B7FDE3A195
:1013100012481FF0B3FDE6A110481FF0AFFDE6A193
:101320000E481FF0ABFDEFA10C481FF0A7FDF8A180
:101330000A481FF0A3FDFEA108481FF09FFDFEA173
:1013400006481FF09BFDFEA104E200006469737073
:101350006C61793A20626C6F636B3B0094060020ED
:10136000636F6C6F723A20236666663B0000000074
:1013700070616464696E673A20302031656D3B00AE
:10138000626F726465722D626F74746F6D3A203192
:10139000707820736F6C696420233333333B000013
:1013A000236D656E7520756C206C693A686F766583
:1013B00072207B006261636B67726F756E642D6370
:1013C0006F6C6F723A20233435343534353B00006E
:1013D000236D656E75202E7375622D6D656E75209B
:1013E0007B000000646973706C61793A206E6F6EE7
:1013F000653B0000706F736974696F6E3A206162BB
:10140000736F6C7574653B00746F703A20303B00ED
:10141000236D656E7520756C206C693A686F766512
:1014200072202E7375622D6D656E757B0000000055
:1014300023636F6E74656E74207B0000706164645A
:10144000696E673A2031656D2038656D3B0000009C
:10145000236865616465722C202E63616C6C2D7449
:101460006F2D616374696F6E207B00007465787402
:101470002D616C69676E3A202063656E7465723BFE
:101480000000000023686561646572207B7D0000B8
:101490002368656164657220236C6F676F207B66CB
:1014A0006F6E742D73697A653A343070783B7D00C5
:1014B000236865616465722023736C6F67616E20B9
:1014C0007B000000636F6C6F723A203839393761E6
:1014D000303B0000666F6E742D73697A653A203078
:1014E0002E38656D3B0000002E63616C6C2D746FAF
:1014F0002D616374696F6E207B000000706164640D
:10150000696E673A20312E35656D203230253B00FB
:101510006261636B67726F756E642D636F6C6F725F
:101520003A20236630666666663B0000626F72642E
:1015300065723A2031707820736F6C69642023657E
:1015400038653865383B00002E726F77207B0000CD
:101550006F766572666C6F773A2068696464656E51
:101560003B0000006D617267696E3A20312E35656F
:101570006D206175746F3B002E726F77202E636F44
:101580006C207B00666C6F61743A206C6566743BFE
:101590000000000077696474683A203430253B000D
:1015A0006D617267696E3A2032656D3B0000000024
:1015B0002E726F77202E636F6C3A6C6173742D639B
:1015C00068696C64207B0000666C6F61743A2072FD
:1015D000696768743B0000006D617267696E2D7207
:1015E000696768743A20303B000000002E726F7704
:1015F000202E636F6C20696D67207B0023666F6F00
:10160000746572207B000000666F6E742D73697ABA
:10161000653A203835253B00626F726465722D741F
:101620006F703A2031707820736F6C696420236585
:1016300036653665363B0000636F6C6F723A202367
:101640003833383338333B0070616464696E673A0D
:101650002031656D2033656D3B0000005C2E050870
:10166000B42E05083C2F7374796C653E00000000B1
:10167000203C2F686561643E00000000203C626FE2
:1016800064793E00203C6469762069643D22636F82
:101690006E7461696E6572223E000000203C6469D0
:1016A000762069643D226D656E75223E0000000063
:1016B000203C756C3E000000203C6C693E3C612083
:1016C000687265663D222F636F6E74726F6C223E86
:1016D000486F6D65706167653C2F613E3C2F6C699A
:1016E0003E000000203C6C693E3C612068726566EB
:1016F0003D222F73657474696E67223E536574745E
:10170000696E67733C2F613E3C2F6C693E000000A0
:10171000203C6C693E3C6120687265663D22232254
:101720003E41626F75743C2F613E3C2F6C693E00F8
:10173000203C2F756C3E0000203C2F6469763E00F3
:10174000203C6469762069643D22636F6E74656E27
:1017500074223E008E481FF091FB8EA18C481FF032
:101760008DFB91A18A481FF089FB9DA188481FF03D
:1017700085FBA0A186481FF081FBAFF2440184489D
:101780001FF07CFBA5A182481FF078FBA8A1804830
:101790001FF074FBAEA17E481FF070FBB6A17C4821
:1017A0001FF06CFBBBA17A481FF068FBC0A1784812
:1017B0001FF064FBC6A176481FF060FBCC4974485B
:1017C0001FF05CFBCBA172481FF058FBD5A17048FD
:1017D0001FF054FBE24800783030C0B2039003A9F8
:1017E0006B481FF04BFBDFA169481FF047FBDFA1EF
:1017F00067481FF043FBEC4800783030C0B20290DD
:1018000002A963481FF03AFBD6A161481FF036FBDE
:10181000E6A15F481FF032FBE6A15D481FF02EFBFA
:10182000F1A421465A481FF029FBF0A158481FF0A7
:1018300025FBF24956481FF021FBF1A154481FF047
:101840001DFBAFF20C1152481FF018FBEFA15048DE
:101850001FF014FBA6494E481FF010FBF3A14C48A3
:101860001FF00CFBAFA14A481FF008FBFBA000686B
:101870000190FB4800783030C0B28DF8060001A915
:1018800043481FF0FBFAB7A141481FF0F7FAB7A190
:101890003F481FF0F3FAF1A000680090F14800788B
:1018A0003030C0B28DF80200694639481FF0E6FAC0
:1018B000ACA137481FF0E2FABCA135481FF0DEFAB0
:1018C000E9A5EAA132481FF0D9FA294630481FF0AD
:1018D000D5FAC6A12E481FF0D1FAF1492C481FF0C5
:1018E000CDFAAFF2AC112A481FF0C8FAEDA1284892
:1018F0001FF0C4FAEFA126481FF0C0FAF2A1244855
:101900001FF0BCFAAFF2D01121481FF0B7FAAFF2C6
:10191000D8111F481FF0B2FAAFF2E4111C481FF0B3
:10192000ADFAF3A11A481FF0A9FAF4A118481FF064
:10193000A5FA17481FF038FA07463A4614493046C8
:1019400014F093FFBDE8FF8170B50446EE481FF028
:101950002BFA05462A46EC49204614F086FF70BD56
:101960003EB504464FF40071E8481FF0E0FAE8483D
:101970000068401CE64908600846E6A1026868461F
:101980001FF07CF86946E1481FF078FAC4E10000D6
:1019900094060020203C6469762069643D226865D5
:1019A00061646572223E0000203C646976206964AF
:1019B0003D226C6F676F223E576562536572766594
:1019C0007220666F72204C434420776174657220E8
:1019D000636F6E74726F6C3C2F6469763E0000001A
:1019E000203C6469762069643D22736C6F67616E88
:1019F000223E0000203C703E57656220636F6E748B
:101A0000726F6C2064656D6F20666F722053544D49
:101A10003332463478783C2F703E0000203C2F64EF
:101A200069763E3C216865616465723E0000000095
:101A3000203C64697620636C6173733D2263616C42
:101A40006C2D746F2D616374696F6E223E0000000F
:101A5000203C68333E4C43442077617465722063B8
:101A60006F6E74726F6C207669612077656273693E
:101A700074653C2F68333E00203C703E7048206106
:101A80006E642043484C20636F6E74726F6C3C2F01
:101A9000703E0000203C2F6469763E3C2163616CFF
:101AA0006C2D746F2D616374696F6E3E00000000D1
:101AB000203C64697620636C6173733D22726F779A
:101AC000222069643D22696E74726F223E0000001C
:101AD000203C6469762069643D22626F783122205F
:101AE000636C6173733D22636F6C223E00000000E3
:101AF000202A05083C6833207374796C653D227494
:101B00006578742D616C69676E3A63656E74657291
:101B10003B223E70482073657474696E67733C2F76
:101B200068333E003C70207374796C653D22666CAE
:101B30006F61743A6C6566743B666F6E742D776581
:101B4000696768743A20626F6C643B223E4D696E2F
:101B5000696D756D2076616C75653A200000000036
:101B60001C0000203C2F703E000000003C702073E1
:101B700074796C653D22666C6F61743A726967684E
:101B8000743B666F6E742D7765696768743A20627E
:101B90006F6C643B223E4D6178696D756D20766196
:101BA0006C75653A20000000200000203C2F64691D
:101BB000763E00003C68312069643D227048223E38
:101BC00070482076616C75653A203C7370616E20B8
:101BD0007374796C653D22636F6C6F723A23303099
:101BE00039454532223E0000372E30003C2F7370BD
:101BF000616E3E3C2F68313E00000000642C0508F9
:101C00007D3B3C2F7363726970743E00203C6469B5
:101C1000762069643D22626F78322220636C6173A2
:101C2000733D22636F6C223E000000003C6833204D
:101C30007374796C653D22746578742D616C696785
:101C40006E3A63656E7465723B223E434C20736549
:101C50007474696E67733C2F68333E00302E000049
:101C60002400002028000020322E35003C6831205E
:101C700069643D227048223E43484C4F52494E45CC
:101C80003A203C7370616E207374796C653D2263F9
:101C90006F6C6F723A23303039454532223E000076
:101CA000D42C0508203C2F6469763E3C21726F7766
:101CB0003E000000203C6469762069643D22666F26
:101CC0006F746572223E0000203C703E436F707955
:101CD00072696768742026636F70793B204C6520B9
:101CE0004E686174205468616E683C2F703E00003D
:101CF000203C2F626F64793E00000000203C2F687A
:101D0000746D6C3E00000000CBE3020894040020D8
:101D10001800002025640000CFA1DC481FF0AEF8B9
:101D2000DBA1DA481FF0AAF8D8481FF03DF8D749E0
:101D3000451828461EF060F9E3A1D4481FF09EF82C
:101D4000EFA1D2481FF09AF8FC481FF02DF8054685
:101D50002A46FA49204614F088FDCC481FF024F8A2
:101D600005462A46C949204614F07FFD3EBD2DE9AF
:101D7000F047ADF5BF6D074640F2DC5800264246FD
:101D800007A9384614F053FC8146B9F1000F03DA75
:101D90000DF5BF6DBDE8F0871B22E9A107A81FF074
:101DA00022F888B9E7A0FEF75AFE044607A80CF00F
:101DB0006AF83846D4E9001214F057FD002C02D01E
:101DC0002046FEF76FFE19E11E22E4A107A81FF0CE
:101DD0000AF888B9E2A0FEF742FE044607A80CF014
:101DE00052F83846D4E9001214F03FFD002CEAD036
:101DF0002046FEF757FE01E11D22E0A107A81EF0D4
:101E0000F2FF88B9DEA0FEF72AFE044607A80CF010
:101E10003AF83846D4E9001214F027FD002CD2D04D
:101E20002046FEF73FFEE9E01822DCA107A81EF0DD
:101E3000DAFF30B907A80CF026F83846FFF790FD16
:101E4000DCE01322DCA107A81EF0CDFF88B9DBA0DF
:101E5000FEF705FE044607A80CF015F83846D4E94D
:101E6000001214F002FD002CADD02046FEF71AFE41
:101E7000C4E00622D5A107A81EF0B5FF18B9384660
:101E8000FFF762FDBAE0D3A107A81EF02BFF0028E0
:101E900044D0D2A107A81EF025FF00283ED0CDA136
:101EA00007A81EF01FFF851D0020049005900690D6
:101EB000CCA107A81EF016FFA0EB050A5246294642
:101EC00004A81FF07DF8C5A107A81EF00BFF451D53
:101ED0000020019002900390294601A81EF040FFC7
:101EE000C248016804A81FF097F828B9C0480168E3
:101EF00001A81FF091F808B1012000E0002030B9DE
:101F00003846FEF709FE0020BA49087005E0384659
:101F1000FEF7F6FD0120B74908706FE0B6A107A8EB
:101F20001EF0E0FE002859D0B5A107A81EF0DAFE89
:101F3000002853D0B5A107A81EF0D4FE00284DD02C
:101F4000B5480078002845D10690ABA107A81EF03F
:101F5000C9FE451DAAA107A81EF0C4FEA0EB050AF4
:101F60005246294606A81FF02BF806A81EF0ADFE23
:101F7000AA490870A2A107A81EF0B4FE00F1080546
:101F8000A2A107A81EF0AEFEA0EB050A5246294604
:101F900006A81FF015F806A81EF097FEA0490870C5
:101FA0009AA107A81EF09EFE00F108059DA107A8B2
:101FB0001EF098FEA0EB050A5246294606A81EF020
:101FC000FFFF06A81EF081FE974908700120924984
:101FD000087000BF3846FEF793FD0FE093A0FEF7B0
:101FE0003EFD044607A80BF04EFF3846D4E9001228
:101FF00014F03BFC14B12046FEF754FD03E0002032
:1020000007A98855761C40F2DC508642F7DB38463B
:1020100014F05EF900BFBBE670B58AB00646002238
:102020000121022014F0D8FB041E01DA0AB070BDB1
:1020300002208DF8150050201AF08DFFADF8160023
:1020400000200690102205A9204614F0E9F8002887
:1020500000DAEBE7F0E000003C7072653E3C627233
:102060003E4E616D6520202020202020202020531E
:102070007461746520205072696F726974792020D0
:10208000537461636B2020204E756D009404002012
:102090003C62723E2D2D2D2D2D2D2D2D2D2D2D2DD6
:1020A0002D2D2D2D2D2D2D2D2D2D2D2D2D2D2D2D60
:1020B0002D2D2D2D2D2D2D2D2D2D2D2D2D2D2D2D50
:1020C0002D3C62723E0000003C62723E3C62723EF9
:1020D0002D2D2D2D2D2D2D2D2D2D2D2D2D2D2D2D30
:1020E0002D2D2D2D2D2D2D2D2D2D2D2D2D2D2D2D20
:1020F0002D2D2D2D2D2D2D2D2D2D2D2D2D00000097
:102100003C62723E42203A20426C6F636B65642CE5
:102110002052203A2052656164792C2044203A20D4
:1021200044656C657465642C2053203A20537573A4
:1021300070656E6465643C62723E00001CD70208E4
:10214000474554202F53544D3332463478375F6619
:10215000696C65732F53542E676966004745542098
:102160002F53544D3332463478375F66696C65734C
:102170002F73746D33322E6A706700004745542008
:102180002F53544D3332463478375F66696C65732C
:102190002F6C6F676F2E6A706700000047455420F0
:1021A0002F53544D3332463478375441534B532ECA
:1021B00068746D6C00000000474554202F53544D47
:1021C0003332463478372E68746D6C00474554209E
:1021D0002F200000756E616D653D000026707377DD
:1021E0003D000000267073770000000030000020E2
:1021F0003400002038000020686F75723D00000038
:10220000266D696E7574653D000000002673656378
:102210006F6E643D000000002C0000204000002094
:10222000410000202F300000420000202F343034C5
:102230002E68746D6C0000000521204614F0C2F871
:102240001020099008E009AA01A9204613F031FFE7
:1022500005462846FFF78BFDF5E708B504204FF447
:102260007A730022FE490090FEA01BF036FF08BDE5
:1022700070B5044640F6AC51FD481EF058FEFD49CD
:10228000FB481EF0FBFDFB490831F9481EF0F6FD46
:10229000F8491031F6481EF0F1FDF6492C31F448AA
:1022A0001EF0ECFDF3495C31F1481EF0E7FDF14909
:1022B0008831EF481EF0E2FDEE49D031EC481EF0C7
:1022C000DDFDEC49DC31EA481EF0D8FDE949E0319A
:1022D000E7481EF0D3FDE749F831E5481EF0CEFD92
:1022E000E549E3481EF0CAFDE4A1E1481EF0C6FD41
:1022F000E1492431DE481EF0C1FDDF492C31DC48C4
:102300001EF0BCFDDC496C31D9481EF0B7FDDA493E
:102310008031D7481EF0B2FDD7499031D4481EF025
:10232000ADFDD549A431D2481EF0A8FDD249B03147
:10233000CF481EF0A3FDD1A1CD481EF09FFDCE4990
:10234000BC31CB481EF09AFDCB49C031C8481EF0C5
:1023500095FDC949D831C6481EF090FDC649E831FF
:10236000C3481EF08BFDC649C1481EF087FDC44915
:102370001C31BF481EF082FDC0A1BD481EF07EFD8D
:10238000BF493C31BA481EF079FDBD495431B848C7
:102390001EF074FDB9A1B6481EF070FDB849643155
:1023A000B3481EF06BFDB6497431B1481EF066FDAE
:1023B000B3498C31AE481EF061FDB149A031AC4843
:1023C0001EF05CFDAE49AC31A9481EF057FDABA133
:1023D000A7481EF053FDAA49BC31A5481EF04EFD8A
:1023E000A749C431A2481EF049FDA549D831A048EB
:1023F0001EF044FDA249E8319D481EF03FFDA14971
:102400009B481EF03BFD9F49643999481EF036FDFC
:102410009AA197481EF032FD9A49103194481EF057
:102420002DFD98491C3192481EF028FD9549283110
:102430008F481EF023FD924950398D481EF01EFD35
:102440008F495C398A481EF019FD8CA188481EF01E
:1024500015FD8C49403186481EF010FD89495031E8
:1024600083481EF00BFD8749643181481EF006FD4C
:10247000844974317E481EF001FD824988317C48D0
:102480001EF0FCFC7F49A43179481EF0F7FC7D4921
:10249000783977481EF0F2FC78A175481EF0EEFC02
:1024A0007849C03172481EF0E9FC774970481EF047
:1024B000E5FC754914316E481EF0E0FC7249243188
:1024C0006B481EF0DBFC7049343169481EF0D6FCC5
:1024D0006AA167481EF0D2FC6B49543164481EF073
:1024E000CDFC6949683162481EF0C8FC63A16048B0
:1024F0001EF0C4FC644984315D481EF0BFFC624993
:1025000098315B481EF0BAFC5F49A83158481EF06C
:10251000B5FC5D49BC3156481EF0B0FC58497C31D1
:1025200053481EF0ABFC57491C3951481EF0A6FC1D
:1025300052A14F481EF0A2FC5349C4314C481EF032
:102540009DFC51494A481EF099FC4CA148481EF098
:1025500095FC4D49E43146481EF090FC4A49F03163
:1025600043481EF08BFC45A141481EF087FC4749BB
:102570003F481EF083FC45491C313D481EF07EFC5F
:102580003EA13B481EF07AFC4049343138481EF0E9
:1025900075FC3E49403136481EF070FC3B496031C5
:1025A00033481EF06BFC3949743131481EF066FC2B
:1025B000364984312E481EF061FC30A12C481EF0B3
:1025C0005DFC324998312A481EF058FC2F49AC3145
:1025D00027481EF053FC2D49C03125481EF04EFC03
:1025E0002A49DC3122481EF049FC24A120481EF073
:1025F00045FC2649F8311E481EF040FC24491C4881
:102600001EF03CFC2249143119481EF037FC1BA176
:1026100017481EF033FC1E49283115481EF02EFCC9
:102620001B49343112481EF029FC19494431104825
:102630001EF024FC164950310D481EF01FFC0FA15E
:102640000B481EF01BFC1249603109481EF016FCB5
:102650000F49783106481EF011FC0D49883119E008
:102660001920000848545450534552564552000012
:10267000940600200C0D0008240E00087D000000C8
:10268000240F0008281000084C13000850140008FC
:102690005015000898481EF0F1FBAFF22001964853
:1026A0001EF0ECFB954994481EF0E8FB934968390D
:1026B00091481EF0E3FBAFF23C018F481EF0DEFBB9
:1026C000AFF210518C481EF0D9FB8C4910318A486A
:1026D0001EF0D4FB89491C3187481EF0CFFB874987
:1026E0002C3185481EF0CAFB84494C3182481EF0CB
:1026F000C5FB82495C3180481EF0C0FBAFF284010B
:102700007D481EF0BBFB7E497B481EF0B7FB7D4930
:1027100079481EF0B3FB7CA177481EF0AFFB7749E8
:10272000783175481EF0AAFB7449843172481EF056
:10273000A5FB7249903170481EF0A0FB6F4998319B
:102740006D481EF09BFB6D49B0316B481EF096FB47
:102750006A49C43168481EF091FB6849CC3166482B
:102760001EF08CFB6549F83163481EF087FB744905
:1027700061481EF083FB724920315F481EF07EFBEA
:1027800070A15D481EF07AFB6D4930315A481EF049
:1027900075FBAFF6006158481EF070FBAFF6F851BC
:1027A00055481EF06BFBAFF6C85153481EF066FB50
:1027B000AFF6C05150481EF061FB614928314E48C8
:1027C0001EF05CFBAFF6AC514B481EF057FBAFF66A
:1027D000A05149481EF052FBAFF68C5146481EF0FE
:1027E0004DFBAFF66C5144481EF048FBAFF65C5110
:1027F00041481EF043FBAFF648513F481EF03EFBF8
:10280000AFF634513C481EF039FB52493A481EF0AD
:1028100035FB51A138481EF031FB594936481EF0AE
:102820002DFB584934481EF029FB57A132481EF0B1
:1028300025FB5FA130481EF021FB5F492E481EF0AA
:102840001DFB3F4928312C481EF018FBAFF64441D0
:1028500029481EF013FB594927481EF00FFB58A1C9
:1028600025481EF00BFB604923481EF007FB5F491B
:1028700021481EF003FB44A11F481EF0FFFA4CA1A3
:102880001D481EF0FBFA5A491B481EF0F7FA2C4966
:10289000283119481EF0F2FAAFF6F83116481EF04A
:1028A000EDFAAFF6F03114481EF0E8FA51A11248E3
:1028B0001EF0E4FA224928310F481EF0DFFA57A132
:1028C0000D481EF0DBFA5AA10B481EF0D7FAAFF6FE
:1028D000E03109481EF0D2FAAFF6E03106481EF0AA
:1028E000CDFA05481EF060FA05462A460249204600
:1028F00013F0BBFF70BD000094060020EC1500082B
:1029000010300508582F0508696E7075745B74796E
:1029100070653D7375626D69745D3A686F76657256
:10292000207B6261636B67726F756E642D636F6C81
:102930006F723A20233435613034393B7D0000001A
:1029400010170008203C2F6469763E3C216D656EAF
:10295000753E0000442D05083C666F726D20616372
:1029600074696F6E3D222F706876616C75652220E8
:102970006D6574686F643D22474554223E00000037
:10298000782A0508202B0508203C696E7075742094
:10299000747970653D227375626D69742220766169
:1029A0006C75653D225375626D6974223E000000AE
:1029B0003C2F666F726D3E00142C0508D02D050863
:1029C0003C666F726D20616374696F6E3D222F6388
:1029D0006C76616C756522206D6574686F643D224C
:1029E000474554223E000000CC2A0508742B0508F8
:1029F000C82B0508203C703E436F70797269676888
:102A0000742026636F70793B20436861752050689D
:102A1000756F632056753C2F703E0000203C2F647C
:102A200069763E3C21636F6E74656E743E000000F3
:102A3000203C2F6469763E3C21636F6E7461696E41
:102A400065723E00014600200A6890B27047014658
:102A5000002008687047014600200A6890B20A28E2
:102A600000DD0020704700B5E548FFF7F4FFE549B9
:102A70000870E3485C38FFF7EEFFE3490870E04870
:102A80005A38FFF7E8FFE1490870DD485638FFF78C
:102A9000E2FFDF490870DA485838FFF7DCFFDD490C
:102AA0000870D7481030FFF7CDFFDB490870D448D5
:102AB0000B30FFF7C7FFD9490870D1485438FFF7EA
:102AC000C1FFD7490880CE485238FFF7BBFFD54930
:102AD0000880CB481038FFF7B5FFD3490880C848B5
:102AE000001DFFF7AFFFD1490870C548801DFFF7F3
:102AF000A9FFCF490870C2480830FFF7A3FFCD49AE
:102B00000870BF485038FFF7A2FFCB49086008465D
:102B10000068401C28B99FEDC90AC94880ED000A29
:102B200005E0C54890ED000AC54880ED000AB448AC
:102B30004038FFF78CFFC049086008460068401C19
:102B400028B9B6EE000ABF4880ED000A05E0BA4891
:102B500090ED000ABB4880ED000AA9483038FFF725
:102B600076FFB549086008460068401C28B99FED0B
:102B7000B30AB54880ED000A05E0AF4890ED000AC1
:102B8000B14880ED000A9E482038FFF760FFAA494F
:102B9000086008460068401C28B9B6EE000AAB4839
:102BA00080ED000A05E0A44890ED000AA74880EDFA
:102BB000000A93486038FFF745FFA5490880904810
:102BC0005E38FFF73FFFA34908809348007840B282
:102BD000A14908709148007840B2A04908709C480B
:102BE00000889F4908809B4800889E4908808C483F
:102BF00000889D4908808B4800889C4908808A4845
:102C000000889B4908808E4890ED000A994880ED25
:102C1000000A8C4890ED000A974880ED000A8A4827
:102C200090ED000A954880ED000A884890ED000A72
:102C3000934880ED000A00BD10B510F0ADFFF32001
:102C400011F0C3F90221402010F0F2FF082801D052
:102C5000012010BD7E4801886948603811F0BAF83B
:102C6000082801D00120F4E77A48018864485E38DA
:102C700011F0B0F8082801D00120EAE76248017895
:102C80005F485C3811F0A6F8082801D00120E0E781
:102C90005E4801785A485A3811F09CF8082801D04B
:102CA0000120D6E75B4801785548583811F092F872
:102CB000082801D00120CCE7554801785048563803
:102CC00011F088F8082801D00120C2E75448018893
:102CD0004B48543811F07EF8082801D00120B8E79D
:102CE000504801884648523811F074F8082801D03D
:102CF0000120AEE7524890ED000A4F4880ED000AEF
:102D000001683F48503811F03CF8082801D00120F4
:102D10009FE74C4890ED000A474880ED000A0168A3
:102D20003748403811F02DF8082801D0012090E7ED
:102D3000454890ED000A404880ED000A016830489F
:102D4000303811F01EF8082801D0012081E73F48F3
:102D500090ED000A384880ED000A016828482038C4
:102D600011F00FF8082801D0012072E72E480188E1
:102D70002348103811F02EF8082801D0012068E708
:102D8000254801781E48103011F024F8082801D099
:102D900001205EE72148017819480B3011F01AF83C
:102DA000082801D0012054E716480178144811F092
:102DB00011F8082801D001204BE71C480178104881
:102DC000001D11F007F8082801D0012041E718483C
:102DD00001780B48801D10F0FDFF082801D001206C
:102DE00037E7144801780648083010F0F3FF082848
:102DF00001D001202DE710F0DCFE002029E70000C3
:102E0000600008084D0000204E0000204F00002008
:102E100051000020500000205200002053000020EC
:102E2000580000205A0000205C00002040000020D4
:102E300041000020420000203C0000206666C640A1
:102E40006000002064000020680000206C0000206A
:102E50005400002056000020700000207100002067
:102E6000720000207400002076000020780000200E
:102E70007A0000207C0000208000002084000020D8
:102E80008800002010B50246012341B1002004E073
:102E900003FB02F4A3B2441C20B28842F8DB1846BC
:102EA00010BD2DE9FF5F91461C46DDF83880B8F172
:102EB0000A0F12D2DFE808F00F111105060D0A0BF8
:102EC000080700BF00BF00BF042507E000BF0625BC
:102ED00004E0032502E0012500E000BF00BF04EB91
:102EE000050A50461DF074FD064600226119491E70
:102EF0007254B8F10A0F6FD2DFE808F06C6E6E05FD
:102F00001263394E2C1F6C216019801E31546D21C3
:102F10006019C01E315420216019001F31545CE03B
:102F200033216019801E31546D216019C01E315447
:102F300020216019001F31544FE043216019801E89
:102F400031546F216019C01E315420216019001FB7
:102F5000315442E056216019801E31546D216019B0
:102F6000C01E315420216019001F315435E06C21FE
:102F70006019801E31542F216019C01E3154672101
:102F80006019001F31546D216019401F31542021F8
:102F90006019801F315420E068216019801E31546F
:102FA0002F216019C01E315467216019001F315450
:102FB0006D216019401F315420216019801F315448
:102FC0000BE068216019801E315420216019C01E59
:102FD000315402E001E0FFE700BF00BF002713E02B
:102FE000E01B81B20A20FFF74DFF99FBF0F100FBD7
:102FF000119BE01B401E81B20A20FFF743FF9BFBA1
:10300000F0F03030F0557F1CA742E9DB3246DDE9B5
:1030100000010BF054FD30461DF009FDBDE8FF9F97
:103020002DE9F05F2DED028B82468B46B0EE408A93
:10303000F0EE608A16461F46DDF83080B8F1000FCA
:1030400004D0B8F1020F03D1042502E0012500E00D
:1030500000BF00BFF019401C00EB050948461DF0F9
:10306000B7FC0446B8F1000F09D0B8F1020F0DD13A
:1030700053EC182BF7A120461DF000FD07E053ECA0
:10308000182BF7A120461DF0F9FC00E000BF00BF9F
:103090002246594650460BF012FD20461DF0C7FC53
:1030A000BDEC028BBDE8F09F00B52DED028B83B027
:1030B000ED48008821287DD2DFE800F07C11FDFE7C
:1030C000FBFA7CF9F8F7F6F5F4F3F2F1F0EFEEED38
:1030D000ECEBEAE9E8E7E6E5E4E3E2E1E000002121
:1030E0004FF6FF700BF0C0FAE0480BF0DAFAE04858
:1030F00000780090DF480378DF480278DFA101A85C
:103100001DF0BCFC01AA822114200BF0D8FCDE4883
:10311000007830B1012834D0022852D0032879D168
:1031200063E04FF6686100200BF09EFAD7480BF081
:10313000B8FAD74800681FF011FE41EC180B0020C8
:1031400001231A46B0EE480AF0EE680A64210090A6
:103150008220FFF765FFC5480BF0A3FACC48006852
:103160001FF0FCFD41EC180B002001231A46B0EEC5
:10317000480AF0EE680AAA2100905020FFF750FF9D
:1031800049E04FF6686100200BF06EFABF480BF083
:1031900088FA002003230090BE4802886421822020
:1031A000FFF77FFEB1480BF07CFA08200323009064
:1031B000B84800E0A9E2028887215020FFF771FE9D
:1031C00029E04FF6686100200BF04EFAAF480BF093
:1031D00068FA00200090B04890F9000082B2022303
:1031E00064218220FFF75DFE15E045F2AA21002050
:1031F0000BF03AFAA5480BF054FA00200090A748CB
:1032000090F9000082B2022364218220FFF749FE78
:1032100001E0FFE700BF00BF40F2FC4100200BF0DF
:1032200023FA9A480BF03DFA9D4800681FF096FD7E
:1032300041EC180B002001231A46B0EE480AF0EECC
:10324000680A4FF4A57100908220FFF7E9FE8748D5
:103250000BF027FA924800681FF080FD41EC180B34
:10326000002001231A46B0EE480AF0EE680A4FF437
:10327000C87100905020FFF7D3FE47E210E2D6E17C
:10328000D4E19AE198E163E161E13BE114E12FE2ED
:1032900098E096E035E233E231E22FE22DE22BE2D4
:1032A00028E228E27BE068E02EE240E03EE02AE20D
:1032B0001FE209E200E025E24FF6686100200BF012
:1032C000D3F972480BF0EDF90320034696225521FD
:1032D00000907820FFF7E5FD64480BF0E2F9032049
:1032E00003464FF4C8729B2100904620FFF7D9FD9A
:1032F00040F2FC4100200BF0B7F964480BF0D1F923
:1033000003200346962240F23B1100907820FFF7FD
:10331000C8FD56480BF0C5F903200346C82240F209
:10332000811100904620FFF7BCFDEFE100BF45F2A0
:10333000AA214FF6FF700BF097F954480BF0B1F942
:103340000420022300905748028869216420FFF777
:10335000A8FD45F2AA214FF6FF700BF085F94B4806
:103360000BF09FF90520022300904F48028840F29D
:103370003B116420FFF795FDC8E147F2C5514FF6B8
:10338000FF700BF071F941480BF08BF9002002231C
:103390000F22C32100909620FFF783FDB6E14EF285
:1033A000E3014FF6FF700BF05FF938480BF079F945
:1033B000002002231422C32100909620FFF771FD04
:1033C000A4E100BF4FF6686100200BF04DF92F48D3
:1033D0000BF067F92E4800681FF0C0FC41EC180B99
:1033E000002001231A46B0EE480AF0EE680A642174
:1033F00000900846FFF714FE1C480BF052F92BA270
:10340000A5216E200BF05BFB40F2FC4100200BF08D
:103410002BF91E480BF045F9214800681FF09EFC6F
:1034200041EC180B002001231A46B0EE480AF0EEDA
:10343000680A4FF4A57100906420FFF7F1FD0B4876
:103440000BF02FF91BA240F28B116E200BF037FB13
:103450005CE1000025312E3166207048000000003C
:1034600025312E3166000000900000207001002000
:103470004200002041000020400000202532643A34
:103480002532643A25326400510000206801002092
:10349000880000207A0000207000002071000020C9
:1034A0008400002072000020740000206D672F6CE3
:1034B000000000007048000040F2FC4100200BF0CA
:1034C000D3F895480BF0EDF8944800681FF046FCDF
:1034D00041EC180B002001231A46B0EE480AF0EE2A
:1034E000680A4FF4A57100906420FFF799FD8C489D
:1034F0000BF0D7F8AFF2440240F28B116E200BF0C4
:10350000DEFA03E14FF6686100200BF0ADF8824867
:103510000BF0C7F8834800681FF020FC41EC180B43
:10352000002001231A46B0EE480AF0EE680A4FF474
:10353000A57100906420FFF773FD79480BF0B1F896
:1035400079A240F28B116E200BF0B9FADEE000BFD9
:103550004FF6686100200BF087F86F480BF0A1F878
:103560000820032300907248028864210846FFF770
:1035700098FC40F2FC4100200BF076F866480BF016
:1035800090F86C4800681FF0E9FB41EC180B002034
:1035900001231A46B0EE480AF0EE680A4FF4A5710E
:1035A00000906420FFF73CFDAFF2F80240F28B116F
:1035B00064200BF084FAA9E000BF4FF66861002098
:1035C0000BF052F854480BF06CF8002000905A4869
:1035D00090F9000082B2022364210846FFF761FCE3
:1035E00040F2FC4100200BF03FF84B480BF059F83B
:1035F000504800681FF0B2FB41EC180B002001237B
:103600001A46B0EE480AF0EE680A4FF4A571009031
:103610006420FFF705FD42480BF043F8AFF26C124F
:1036200040F28B116E200BF04AFA6FE000BF45F2BA
:10363000AA2100200BF018F837480BF032F80020D0
:1036400000903E4890F9000082B2022364210846AF
:10365000FFF727FC40F2FC4100200BF005F82E4854
:103660000BF01FF8334800681FF078FB41EC180B93
:10367000002001231A46B0EE480AF0EE680A4FF423
:10368000A57100906420FFF7CBFC25480BF009F8EA
:10369000AFF2E01240F28B116E200BF010FA35E021
:1036A00045F2AA214FF6FF700AF0DEFF1A480AF031
:1036B000F8FF092002230090214802884FF4A571E9
:1036C0006420FFF7EEFB21E045F2AA214FF6FF70E0
:1036D0000AF0CAFF10480AF0E4FF09200223009014
:1036E000184802884FF4A5716420FFF7DAFB0DE05B
:1036F00000BF00BF00BF00BF00BF00BF00BF00BFD2
:1037000000BF00BF00BF00BF00E000BF00BF03B0AC
:10371000BDEC028B00BD0000680100207C00002091
:1037200070010020800000206D672F6800000000FD
:103730007A0000208400002070000020710000202A
:10374000780000207600002000B58DB00121032014
:103750000FF076FD012108020FF0B6FD0320019065
:103760008DF8080000208DF80B0001A927480FF004
:1037700025FB4120019003208DF8080000208DF8E2
:103780000B0001A922480FF019FB002003900490C0
:103790000590069003A80EF045FB0EF009FB0020F3
:1037A00007908DF820008DF8210009900A900B9069
:1037B00001208DF8300007A916480EF004FB012106
:1037C00014480EF046FB0DB000BD10B504460423AE
:1037D000012221460F480EF07CFB0E480EF0D5FB6F
:1037E00000BF02210B480EF0F1FC0028F9D0094877
:1037F0000EF007FC40F6E441484340F6FF7190FBB1
:10380000F1F0054908600846006810BD0004024058
:103810000000024000200140480000201CB50121AA
:1038200008460FF00DFD3020009001208DF80400B7
:1038300000208DF8060003208DF8050000208DF88B
:103840000700694606480FF0B9FA1CBD18B10128F7
:1038500003D10A8302E04A8300E000BF00BF704743
:103860000000024010B5FB48006809F016FB00F0AC
:103870001CFF10BD10B5F748006809F00EFB04F0FE
:103880002BFE10BD10B5F348006809F006FB00F0F0
:10389000BEFD10BD10B5EF48006809F0FEFA01F05A
:1038A000AAF910BD10B5EB48006809F0F6FA02F06D
:1038B0008FFF10BD10B5E748006809F0EEFAE64842
:1038C000007808B101F010F801F053F810BD10B500
:1038D000E048006809F0E1FA04F05FFD10BD10B5A2
:1038E000FFF7AAF910BD10B5DA48006809F0D5FA5B
:1038F00000F0DBFE10BD10B5D648006809F0CDFA27
:1039000000F085FD10BD10B5D348007830B1012816
:1039100008D002280AD0032814D10FE00220CE4993
:10392000087010E00320CC4908700CE0C94800681A
:1039300009F0B3FA0020C849087004E00120C64924
:10394000087000E000BF00BF01F013F810BD10B513
:10395000C148007830B1012808D002280ED00328D1
:1039600014D10FE00120BC49087010E0B94800688C
:1039700009F093FA0020B849087008E00320B6491E
:10398000087004E00220B449087000E000BF00BFE6
:1039900000F0EFFF10BD10B5AE48006809F07DFAE9
:1039A00000F083FE10BD10B5AA48006809F075FA52
:1039B00000F02DFD10BD10B5A648006809F06DFAA5
:1039C00001F05EFA10BD10B5A248006809F065FA72
:1039D00001F04EFD10BD10B59E48006809F05DFA7B
:1039E0009E48007830B1012807D0022808D003286B
:1039F0000CD108E002F07EFC09E003F08EFA06E04C
:103A000003F02FFD03E003F0DCFF00E000BF00BF88
:103A100010BD10B58F48006809F03FFA01F0EBF8CF
:103A200010BD10B58B48006809F037FA00F0EFFCC4
:103A300010BD8B480088401C8949088008460088D2
:103A4000322801DD32200880704785480088401EFA
:103A5000834908800846008808B90020088070471C
:103A60007F4800887F490880704710B57948006812
:103A700009F013FA01F024FB10BD10B57548006879
:103A800009F00BFA01F0B7F810BD10B571480068E5
:103A900009F003FA00F0BBFC10BD73480088401C1D
:103AA0007149088008460088182801DD1820088020
:103AB00070476D480088401E6B49088008460088A2
:103AC000062800D108807047674800886749088049
:103AD000704710B55F48006809F0DFF901F0D0F9D0
:103AE00010BD10B55B48006809F0D7F901F083F804
:103AF00010BD10B55748006809F0CFF900F087FCF9
:103B000010BD00205A4908707047012058490870BC
:103B1000704710B50220564908704E48006809F0F9
:103B2000BCF901F06AFE10BD0020524908707047D0
:103B3000012050490870704702204E4908707047B4
:103B400010B500204C4908704248006809F0A5F9FA
:103B500001F0C4FE10BD01204749087070470220E3
:103B600045490870704710B53A48006809F095F962
:103B700001F07EFC10BD10B53648006809F08DF9E3
:103B800001F076FC10BD10B53248006809F085F9E7
:103B900001F06EFC10BD10B52E48006809F07DF9EB
:103BA00002F026FF10BD10B52A48006809F075F92B
:103BB00002F01EFF10BD10B52648006809F06DF92F
:103BC00002F016FF10BD10B52248006809F065F933
:103BD00003F07EF810BD10B51E48006809F05DF9CD
:103BE00003F076F810BD10B51A48006809F055F9D1
:103BF00001F03EFC10BD10B51648006809F04DF903
:103C000001F036FC10BD10B51248006809F045F906
:103C100000F0F1FF10BD10B50E48006809F03DF945
:103C200000F0F5FB10BD154890ED000ADFED140A19
:103C300030EE200A80ED000A90ED000ADFED110A57
:103C4000B4EEE00AF1EE10FA03DD9FED0E0A80ED0E
:103C5000000A70478C0000204C000020510000201A
:103C60007200002054000020740000205600002044
:103C70004E0000204F000020500000208400002053
:103C8000CDCCCC3D3333F340F84890ED000A5FEDE6
:103C9000040A30EE600A80ED000A90ED000AF1EEB1
:103CA0000A0AB4EEE00AF1EE10FA03D2B1EE0A0A03
:103CB00080ED000A7047ED4890ED000AEC4880ED79
:103CC000000A704710B5EB48006809F0E6F802F00A
:103CD0002EFC10BD10B5E748006809F0DEF800F0D2
:103CE0008AFF10BD10B5E348006809F0D6F800F06F
:103CF0008EFB10BDE04890ED000A5FED1F0A30EE2C
:103D0000200A80ED000A90ED000ADFEDDC0AB4EE37
:103D1000E00AF1EE10FA03DD9FEDD80A80ED000A0B
:103D20007047D54890ED000A5FED2B0A30EE600A2F
:103D300080ED000A90ED000AF6EE000AB4EEE00A0B
:103D4000F1EE10FA03D2B6EE000A80ED000A7047D9
:103D5000C94890ED000ACA4880ED000A704710B5C6
:103D6000C448006809F099F802F0C4FA10BD10B513
:103D7000C048006809F091F800F097FC10BD10B53C
:103D8000BC48006809F089F800F041FB10BD10B58F
:103D9000B848006809F081F802F09AFFB548006859
:103DA00009F07BF801F0EEFF10BD10B5B1480068D6
:103DB00009F073F802F01CFEAE48006809F06DF8D7
:103DC00001F07EFF10BD10B5AA48006809F065F843
:103DD00004F058F810BD10B5A648006809F05DF869
:103DE00004F066F910BD10B5A248006809F055F856
:103DF00002F0EEFC10BD10B59E48006809F04DF8C9
:103E000000F005FB10BD10B59E4890ED000A5FED77
:103E1000640A30EE200A80ED000A90ED000ADFED22
:103E20009A0AB4EEE00AF1EE10FA0ADD9148006851
:103E300009F033F801F0B8FD9FED930A914880ED49
:103E4000000A10BD10B58F4890ED000A5FED740AAE
:103E500030EE600A80ED000A90ED000ADFED8B0A7B
:103E6000B4EEE00AF1EE10FA0AD28248006809F0D6
:103E700014F801F099FD9FED850A824880ED000A53
:103E800010BD804890ED000A814880ED000A70471F
:103E900010B57848006809F000F802F099FC10BDF0
:103EA00010B57448006808F0F8FF00F0B0FA10BDD3
:103EB000784890ED000A5FED8E0A30EE200A80ED22
:103EC000000A90ED000ADFED6D0AB4EEE00AF1EEB3
:103ED00010FA03DD9FED690A80ED000A704710B506
:103EE0006C4890ED000A5FED9A0A30EE600A80EDB2
:103EF000000A90ED000A6248D0ED000AB4EE600AB4
:103F0000F1EE10FA06D15B48006808F0C6FF01F038
:103F1000A0FF0DE05F4890ED000AF6EE000AB4EE57
:103F2000E00AF1EE10FA03D2B6EE000A80ED000AC4
:103F300010BD584890ED000A574880ED000A7047C0
:103F400010B54C48006808F0A8FF00F054FE10BD02
:103F500010B54848006808F0A0FF00F058FA10BDFE
:103F60004E4800880A304D4908800846008840F2D3
:103F7000DE31884202DD08464849088070474748DC
:103F800000880A3845490880084600880A2801DA6E
:103F90000A200880704741480088414908807047DE
:103FA00010B53448006808F078FF03F037F910BD09
:103FB00010B53048006808F070FF00F01CFE10BD1E
:103FC00010B52C48006808F068FF00F020FA10BD1A
:103FD000264890ED000A5FEDD60A30EE200A80ED0B
:103FE000000A90ED000ADFED280AB4EEE00AF1EED7
:103FF00010FA03DD9FED240A80ED000A70471B488C
:1040000090ED000A5FEDE20A30EE600A80ED000AF2
:1040100090ED000ADFED1D0AB4EEE00AF1EE10FAB1
:1040200003D29FED1A0A80ED000A70470F4890ED09
:10403000000A0F4880ED000A704710B50D4800686F
:1040400008F02BFF02F069FF10BD10B509480068A9
:1040500008F023FF00F0CFFD10BD10B50548006843
:1040600008F01BFF00F0D3F910BD00008400002011
:10407000680000208C000020880000209A99993F59
:104080006C0000207C0000209A99F9406666C640CA
:104090006000002080000020640000207A000020E2
:1040A0005C000020C1480078401C40B2BF49087045
:1040B000084690F90000142801DD142008707047AC
:1040C000BA480078401E40B2B8490870084690F9D6
:1040D0000000002801DA002008707047B34800781B
:1040E000B3490870704710B5B248006808F0D5FEB3
:1040F00003F00CFB10BD10B5AE48006808F0CDFE13
:1041000000F079FD10BD10B5AA48006808F0C5FEA2
:1041100000F07DF910BDA84890ED000ADFEDA70A78
:1041200030EE200A80ED000A90ED000A5FED2A0AC9
:10413000B4EEE00AF1EE10FA03DD1FED2D0A80ED7A
:10414000000A70479C4890ED000ADFED9C0A30EEB3
:10415000600A80ED000A90ED000A5FED340AB4EECB
:10416000E00AF1EE10FA03D21FED380A80ED000AE2
:104170007047914890ED000A914880ED000A704721
:1041800010B58C48006808F088FE03F06AF910BD8D
:1041900010B58848006808F080FE00F02CFD10BDC6
:1041A00010B58448006808F078FE00F030F910BDC2
:1041B00084480078401C40B282490870084690F953
:1041C00000001E2801DD1E20087070477D48007821
:1041D000401E40B27B490870084690F90000002854
:1041E00001DA002008707047764800787649087038
:1041F000704710B56F48006808F04FFE03F008FDE7
:1042000010BD10B56B48006808F047FE00F0F3FCE5
:1042100010BD10B56748006808F03FFE00F0F7F8E1
:1042200010BD654890ED000ADFED640A30EE200A0B
:1042300080ED000A90ED000A5FED6D0AB4EEE00A31
:10424000F1EE10FA03DD1FED700A80ED000A7047F1
:10425000594890ED000ADFED590A30EE600A80ED12
:10426000000A90ED000A5FED770AB4EEE00AF1EE85
:1042700010FA03D21FED7B0A80ED000A70474E480A
:1042800090ED000A4E4880ED000A704710B549488D
:10429000006808F002FE03F094FB10BD10B545481D
:1042A000006808F0FAFD02F093FA10BD10B541481D
:1042B000006808F0F2FD00F0AAF810BD434800883D
:1042C000401C4249088008460088282801DA282036
:1042D000088070473D480088401E3C4908800846D9
:1042E000008808B90020088070473848008838499D
:1042F0000880704710B52F48006808F0CEFD02F026
:1043000067FA10BD10B52B48006808F0C6FD00F034
:104310007EF810BD2F480088401C2E4908800846B2
:104320000088282801DD2820088070472948008857
:10433000401E284908800846008808B900200880E7
:1043400070472448008824490880704710B51948F0
:10435000006808F0A2FD00F0A8F910BD10B51548DE
:10436000006808F09AFD00F052F810BD00201B49CB
:1043700008707047012019490870704702201749DA
:1043800008707047032015490870704710B5094838
:10439000006808F082FD00F03AF810BD01201049D5
:1043A0000870704700200E490870704770000020A8
:1043B000520000208C00002084000020CDCCCC3D99
:1043C00068000020710000205300002078000020C9
:1043D0005A000020760000205800002051000020E4
:1043E0004D00002038B5FD484FF6FF732022D22142
:1043F0000090012009F057FB0446F94808F085F9C0
:10440000F74B2246F021FA2007F033FE38BD08B5FD
:10441000FFF7E8FF00200AF0C8F94FF6FF702023ED
:10442000D222F0210090FA200AF038FEED480AF07E
:1044300038F9EDA02023D222F0210090FA200BF0D1
:1044400085F805221421EB480AF085FD00214FF67E
:10445000FF700AF009F9E3480AF023F9E6A24FF4E5
:10446000967114200AF02BFBE7A21421FA200AF01F
:1044700026FB40F2FC40A023D2223C210090FA20EF
:104480000AF00CFEE348007830B1012820D0022861
:104490003AD0032872D154E04FF66860A023D222AC
:1044A0003C21009014200AF0F9FD4FF668610020CD
:1044B0000AF0DAF8CB480AF0F4F8D7A21E2150200F
:1044C0000AF0FDFAD7A2AF21A0200AF0F8FA56E0D0
:1044D0004FF66860A023D2223C21009014200AF0FD
:1044E000DDFD4FF6686100200AF0BEF8BD480AF015
:1044F000D8F8CEA21E2150200AF0E1FACDA2AF21B9
:10450000A0200AF0DCFA3AE04FF66860A023D2223D
:104510003C21009014200AF0C1FD4FF66861002094
:104520000AF0A2F8AF480AF0BCF8C3A21E2150203E
:104530000AF0C5FA0023C2A2822150200AF0E1FA53
:104540001DE045F2AA20A023D2223C210090142095
:104550000AF0A4FD45F2AA2100200AF085F8A1483E
:104560000AF09FF8B4A21E2150200AF0A8FAB7A2C0
:10457000822150200AF0A3FA01E0FFE700BF00BF4C
:1045800040F2FC4100200AF06FF896480AF089F8E2
:10459000B1A24FF4827150200AF091FAB0A24FF408
:1045A000C871A0200AF08BFA8D480121C26990479A
:1045B0000120AC4908808A48AB49086008BD10B5A5
:1045C000FFF725FF10BD2DE9F84FA84803231E2251
:1045D00082210090012009F066FA0446A4484FF6B3
:1045E000FF731E22A0210090022009F05CFA05460C
:1045F000A04800235022D2210090032009F053FA52
:1046000006469D4800235022D2210090042009F044
:104610004AFA0746994800235022D22100900520EB
:1046200009F041FA8046964800235022D22100909A
:10463000062009F038FA8146924803231E2282217F
:104640000090072009F02FFA82468F4808F05DF8A5
:104650008D4B2246F0214FF4A57007F00AFD8A4BDE
:104660002A46F021142007F004FD874B32463C21F6
:10467000142007F0FEFC844B3A463C21FA2007F058
:10468000F8FC814B42469621142007F0F2FC7E4B49
:104690004A469621FA2007F0ECFC7B4B5246F0216B
:1046A000BE2007F0E6FCBDE8F88F08B5FFF78BFFEA
:1046B00000200AF07AF8052214214E480AF04BFC3B
:1046C00000214FF6FF7009F0CFFF464809F0E9FFDF
:1046D00045A24FF4B97114200AF0F1F9D223502207
:1046E0003C2114200AF034FBD22350223C21FA2032
:1046F0000AF02EFBD2235022962114200AF028FB28
:10470000D22350229621FA200AF022FB4FF6FF70A6
:104710001E23A022F021009014200AF0BFFC822367
:104720001E22F021BE200AF013FB82231E22F0215C
:104730004FF4A5700AF00CFB00214FF6FF7009F052
:1047400093FF284809F0ADFF50A05023D2223C210E
:10475000009014200AF0FAFE4FA05023D2223C21F0
:104760000090FA200AF0F2FE4EA05023D2229621A9
:10477000009014200AF0EAFE4DA05023D222962188
:104780000090FA200AF0E2FE4DA01E238222F021C2
:104790000090BE200AF0DAFE4CA01E238222F021F7
:1047A00000904FF4A5700AF0D1FE4FF6FF71002083
:1047B00009F05AFF48A01E23A022F02100901420E7
:1047C0000AF0C4FE30480121C26990470220254901
:1047D00008802D482449086008BD0000653800089D
:1047E000401400207001002053455454494E475353
:1047F000000000004C08040843484155205048552B
:104800004F4320565500000042414348204B484F3B
:10481000410000005100002043484C4F52494E4592
:10482000000000006D672F6C000000005245444FEF
:10483000580000006D560000444F53450000000032
:104840006D6C2F6D33686F75720000006D6C2F6D8D
:10485000336461790000000050482D2D00000000F5
:1048600070480000900000208C000020753800087F
:104870008538000895380008A5380008B5380008C4
:10488000CF380008DF380008E414002050415241BE
:104890004D4554455253000043414C494252415406
:1048A000494F4E00444F53494E47205445535400FE
:1048B00054595045204F462050524F424500000069
:1048C0005341564520444154410000004C414E475D
:1048D00055414745530000004241434B20544F206F
:1048E0005354415254000000F8B5FE484FF6FF7390
:1048F0001E22D2210090012009F0D5F80446FA4882
:104900004FF6FF731E22D2210090022009F0CBF84F
:104910000546F64840F2FC433C22D2210090032099
:1049200009F0C1F80646F2484FF668633C22D221EE
:104930000090042009F0B7F80746EE4807F0E5FEBE
:10494000EC4B2246F021FA2007F093FBE94B2A4674
:10495000F021142007F08DFBE64B3246AA211420EB
:1049600007F087FBE34B3A46AA21FA2007F081FBC8
:10497000F8BD08B5E048007808B9FFF7B5FF00209A
:1049800009F013FF05221421DC480AF0E4FA0021A3
:104990004FF6FF7009F068FED94809F082FEAFF2C9
:1049A000FC024FF4A57114200AF089F84FF66860F4
:1049B0006423D2223C21009014200AF06FFB40F2C5
:1049C000FC406423D2223C210090FA200AF066FBCE
:1049D0004FF66861002009F047FEC94809F061FE02
:1049E000C8A21E2146200AF06AF840F2FC410020CD
:1049F00009F03AFEC24809F054FEAFF29C124FF49F
:104A0000827146200AF05BF84FF6FF701E23D22217
:104A1000F021009014200AF041FB4FF6FF701E2396
:104A2000D222F0210090FA200AF038FB4FF668609D
:104A300009F02BFED2233C22AA2114200AF088F987
:104A400040F2FC4009F021FED2233C22AA21FA20A8
:104A50000AF07EF9AA4809F024FE00214FF6FF7003
:104A600009F002FEA448007830B1012817D00228CE
:104A700038D0032848D124E0AFF29C103C23D22246
:104A8000AA21009014200AF061FDAFF2AC103C2383
:104A9000D222AA210090FA200AF058FD35E0AFF2A8
:104AA000C0103C23D222AA21009014200AF04EFD0F
:104AB00096A03C23D222AA210090FA200AF046FDBB
:104AC00023E092A03C23D222AA21009014200AF0D5
:104AD0003DFD8EA03C23D222AA210090FA200AF0AC
:104AE00035FD12E089A03C23D222AA210090142097
:104AF0000AF02CFDAFF218203C23D222AA2100900C
:104B0000FA200AF023FD00E000BF00BF4FF6FF715E
:104B1000002009F0A9FD7FA01E23D222F0210090E1
:104B2000FA200AF013FDAFF250201E23D222F0210A
:104B3000009014200AF00AFD6E480121C2699047D6
:104B40000320764908806B487549086008BD2DE947
:104B5000F84374484FF6FF731E22D22100900120C3
:104B600008F0A1FF044670484FF6FF731E22D221C1
:104B70000090022008F097FF05466C480023502261
:104B8000D2210090032008F08EFF064668480023DB
:104B90005022D2210090042008F085FF0746654886
:104BA00001235022D2210090052008F07CFF80468E
:104BB000614807F0AAFD604B2246F021FA2007F079
:104BC00058FA5D4B2A46F021142007F052FA5A4B4E
:104BD00032463C21142007F04CFA574B3A463C2110
:104BE000FA2007F046FA544B42469621FA2007F085
:104BF00040FABDE8F88308B5FFF7A9FF002009F0E7
:104C0000D4FD052214213D480AF0A5F900214FF6F4
:104C1000FF7009F029FD3A4809F043FDAFF29432E4
:104C20004FF4AA71142009F04AFFD22350223C21EC
:104C300014200AF08DF8D22350223C21FA200AF0E9
:104C400087F84FF668605023D222962100901420F6
:104C50000AF024FA40F2FC405023D2229621009020
:104C6000FA200AF01BFA00214FF6FF7009F0FCFC55
:104C70004FF66861002009F0F7FC30A05023D222E3
:104C80009621009014200AF061FC40F2FC410020C3
:104C900009F0EAFCAFF238405023D222962100906E
:104CA000FA200AF053FC4FF6FF701E23D222F021A7
:104CB000009014200AF0F2F94FF6FF701E23D22262
:104CC000F0210090FA200AF0E9F90D4809F0E9FC1A
:104CD00000214FF6FF7009F0C7FC1CA05023D22220
:104CE0003C2137E0E7380008F738000807390008AA
:104CF0004F390008881500204C0000204C0804089B
:104D000070010020444953494E462E0053544F50E1
:104D1000000000004241434B0000000090000020D2
:104D20008C00002097390008A7390008B73900081F
:104D3000C7390008D73900082C16002044495349C8
:104D40004E46454354494F4E00000000504F4F4CD3
:104D500000000000009014200AF0F8FBFEA0502391
:104D6000D2223C210090FA200AF0F0FB4FF6FF71AE
:104D7000002009F079FCAFF264001E23D222F0215A
:104D80000090FA200AF0E2FBAFF2B4401E23D222D8
:104D9000F021009014200AF0D9FB4FF6FF7100209B
:104DA00009F062FCEE480121C26990470720ED49F5
:104DB0000880EB48EC49086008BD2DE9F843EB4852
:104DC0004FF6FF731E22D2210090012008F06BFEE7
:104DD0000446E7484FF6FF731E22D22100900220BE
:104DE00008F061FE0546E34803233C22642100905D
:104DF000184608F058FE0646DF4803233C2264218B
:104E00000090042008F04FFE0746DC4803233C22B4
:104E1000D2210090052008F046FE8046D8480123A4
:104E20006422D2210090062008F03DFE8146D5483C
:104E300007F06BFCD34B2246F021FA2007F019F95A
:104E4000D04B2A46F021142007F013F9CD4B3246FF
:104E5000AA21142007F00DF9CA4B3A46AA21822054
:104E600007F007F9C74B4246AA21FA2007F001F9DB
:104E7000C44B4A463C21FA2007F0FBF8BDE8F88312
:104E800008B5FFF79AFF002009F08FFC05221421D6
:104E9000BD480AF060F800214FF6FF7009F0E4FB0E
:104EA000BA4809F0FEFBBAA24FF48C71142009F045
:104EB00006FE45F2AA206423D2223C210090142051
:104EC0000AF0ECF845F2AA206423D2223C2100909B
:104ED000FA200AF0E3F845F2AA2009F0DCFBAB481F
:104EE00009F0DFFBAEA21E21462009F0E8FD0020FC
:104EF00014233C228C2100905F200AF0CFF845F269
:104F0000AA2009F0C8FBA14809F0CBFBA7A2FF210A
:104F1000462009F0D4FD4FF6FF701E23D222F02167
:104F2000009014200AF0BAF84FF6FF701E23D22228
:104F3000F0210090FA200AF0B1F84FF6FF7009F066
:104F4000A4FB64233C22AA21142009F001FF64235E
:104F50003C22AA21822009F0FBFED2233C22AA2176
:104F6000FA2009F0F5FE964809F09BFB00214FF668
:104F7000FF7009F079FB93A03C236422AA210090E2
:104F800014200AF0E3FA90A03C236422AA210090A6
:104F900082200AF0DBFA7D4809F083FB8BA03C23DA
:104FA000D222AA210090FA200AF0D0FA4FF6FF711F
:104FB000002009F059FBAFF2A4201E23D222F021D9
:104FC0000090FA200AF0C2FAAFF2F4601E23D22257
:104FD000F021009014200AF0B9FA4FF6FF7100207A
:104FE00009F042FB67480121C269904708205D49EA
:104FF000088064485C49086008BD2DE9F84374489E
:105000004FF6FF731E22D2210090012008F04BFDC5
:10501000044670484FF6FF731E22D22100900220F2
:1050200008F041FD05466C4803233C2264210090B2
:10503000184608F038FD0646684803233C226421E0
:105040000090042008F02FFD0746654803233C220A
:10505000D2210090052008F026FD804661480123FA
:105060006422D2210090062008F01DFD81465E4892
:1050700007F04BFB5C4B2246F021FA2006F0F9FFCB
:10508000594B2A46F021142006F0F3FF564B3246C6
:10509000AA21142006F0EDFF534B3A46AA218220A4
:1050A00006F0E7FF504B4246AA21FA2006F0E1FF46
:1050B0004D4B4A463C21142006F0DBFFBDE8F88347
:1050C00008B5FFF79AFF002009F06FFB05221421B5
:1050D0002D4809F040FF00214FF6FF7009F0C4FA97
:1050E0002A4809F0DEFA2AA24FF48C71142009F044
:1050F000E6FC45F2AA206423D2223C210090142031
:1051000009F0CCFF45F2AA206423D2223C21009072
:10511000FA2009F0C3FF002014233C228C210090C8
:1051200040F2451009F0BAFF45F2AA214FF6FF7090
:1051300009F09AFA154809F0B4FA19A21E2146207E
:1051400009F0BDFC45F2AA214FF6FF7009F08CFA78
:105150000E4809F0A6FA49E05741544552000000B4
:105160002C160020900000208C000020133A00082C
:10517000233A0008333A00084B3A0008613A000825
:105180006B3A0008D01600204C080408700100207B
:10519000504F4F4C20504152414D455445525300C1
:1051A000504F4F4C20564F4C554D450046494C549E
:1051B000524154494F4E20504552494F440000003F
:1051C000680100202B0000002D0000004F4B000064
:1051D0007B3A00088B3A00089B3A0008B33A000873
:1051E000C93A0008D33A000874170020AFF244020D
:1051F000FF21462009F063FC4FF6FF701E23D222E8
:10520000F0210090142009F049FF4FF6FF701E2393
:10521000D222F0210090FA2009F040FF4FF6FF70F3
:1052200009F033FA64233C22AA21142009F090FDEE
:1052300064233C22AA21822009F08AFDD2233C2249
:10524000AA21FA2009F084FDFE4809F02AFA00217B
:105250004FF6FF7009F008FAAFF298003C23642281
:10526000AA21009014200AF071F9AFF2A4003C23A7
:105270006422AA21009082200AF068F9F24809F01D
:1052800010FAAFF2B8003C23D222AA210090FA20F3
:105290000AF05CF94FF6FF71002009F0E5F9AFF272
:1052A0008C501E23D222F0210090FA200AF04EF9F1
:1052B000AFF6DC101E23D222F021009014200AF059
:1052C00045F94FF6FF71002009F0CEF9DF480121C2
:1052D000C26990470920DE490880DC48DD49086042
:1052E00008BD2DE9F04F87B0012004F041F90446D4
:1052F000022004F03DF90546032004F039F9064682
:10530000D5484FF6FF731E22D2210090042008F0EA
:10531000CAFB0746D1484FF6FF731E22D2210090E8
:10532000052008F0C0FB8046CD4AAFF21C61204644
:10533000E36A98478146CB4AAFF22C612046E36A84
:1053400098478246C84AAFF238612046E36A9847D8
:105350008346C64AAFF248612846EB6A98470690F2
:10536000C34AAFF254612846EB6A98470590C14A98
:10537000AFF264612846EB6A98470490BE4AAFF2E8
:1053800070613046F36A98470390BC4AAFF280617F
:105390003046F36A98470290B94AAFF28C613046C2
:1053A000F36A98470190B74807F0AFF9B54B3A4612
:1053B000F021FA2006F05DFEB24B4246F0211420A7
:1053C00006F057FEAF4B4A4655214FF4877006F062
:1053D00050FEAC4B52465521880006F04AFEA94BC0
:1053E0005A4655214FF4CD7006F043FEA54B8C2153
:1053F0004FF48770069A06F03CFEA24B8C214FF4C6
:10540000AA70059A06F035FE9E4B8C214FF4CD70A4
:10541000049A06F02EFE9B4BCD214FF48770039A21
:1054200006F027FE974BCD214FF4AA70029A06F0A2
:1054300020FE944BCD214800019A06F01AFE01216E
:10544000201D914A127850F8220040680176281DEC
:105450008E4A127850F8220040680176301D8C4A3E
:10546000127850F822004068017607B0BDE8F08F4E
:1054700008B5FFF736FF002009F097F9052214213F
:10548000844809F068FD00214FF6FF7009F0ECF840
:105490006D4809F006F980A24FF48771142009F0D5
:1054A0000EFB824809F0FDF8AFF260721E21412028
:1054B00009F005FB7EA21E21782009F000FBAFF267
:1054C00068321E21872009F0FAFA7BA21E2196205D
:1054D00009F0F5FAAFF280321E21B92009F0EFFA97
:1054E00078A21E21C82009F0EAFA794809F0D9F813
:1054F00078A2FF21372009F0E2FA78A24FF4A071D8
:10550000372009F0DCFA77A2FF21782009F0D7FADA
:1055100076A24FF4A071782009F0D1FA75A240F27A
:105520008B11782009F0CBFA74A240F20911B9204E
:1055300009F0C5FA73A240F24F11B92009F0BFFA81
:1055400072A240F28111B92009F0B9FA4FF4784003
:1055500009F09BF870A24FF4C371372009F0AFFA3D
:105560006FA240F28111462009F0A9FA4FF6FF70B0
:105570001E23D222F0210090142009F08FFD4FF657
:10558000FF701E23D222F0210090FA2009F086FD40
:105590004FF6FF71002009F067F8AFF688001E2370
:1055A000D222F0210090FA2009F0D0FFAFF6D840C7
:1055B0001E23D222F0210090142009F0C7FF4FF6DD
:1055C000FF71002009F050F82E480121C269904770
:1055D0000A201F4908802B481E49086008BD38B5BD
:1055E000524847F2C5531E223C210090012008F08A
:1055F0005AFA04464E4807F088F84D4B2246AA2135
:105600004FF4967006F035FD38BD08B5FFF7E7FF9B
:1056100047F2C550AC234FF48C72322100906420C5
:1056200009F03CFD47F2C5514FF6FF7009F01CF838
:105630001E4809F036F83FA278213C2009F03FFAD5
:1056400040A285E06801002070010020741700204E
:10565000900000208C000020E33A0008F33A000894
:10566000033B00080B3B0008133B0008293B0008E4
:10567000313B0008393B0008413B0008573B00081C
:105680005F3B0008181800204E0000204F0000204B
:10569000500000204C080408574154455220504106
:1056A00052414D45544552530000000090010020E6
:1056B000415645524147450054454D50455241548D
:1056C00055524500484152444E4553530000000096
:1056D00080010020696E646F6F7200006F757464E2
:1056E0006F6F72003C2032306F43000032302D3338
:1056F000306F43003E2033306F430000736F667499
:105700000000000068617264000000007665727934
:10571000206861726400000065787472656D6500D0
:10572000636F6E646974696F6E000000673B000808
:10573000BC1800204D6178696D616C2073616665ED
:105740007479000064697366656374696F6E000044
:105750007821502009F0B3F9F9A27821642009F0EA
:10576000AEF9F94808F09DFFF8A2E621962009F06D
:10577000A6F9F8A2E621A02009F0A1F94FF6FF70E2
:1057800008F083FF3C231E22AA214FF4967009F0F3
:10579000DFFA47F2C5514FF6FF7008F065FFEF489A
:1057A00008F07FFFAFF2DC501E233C22AA210090BC
:1057B0004FF4967009F0CAFEE9480121C26990478A
:1057C000E748E84908600B20E749088008BD38B57C
:1057D000E64847F2C5531E223C210090012008F004
:1057E00062F90446E24806F090FFE14B2246AA2106
:1057F0004FF4967006F03DFC38BD08B5FFF7E7FFA3
:105800004EF2E300AC234FF48C72322100906420FE
:1058100009F044FC4EF2E3014FF6FF7008F024FF5C
:10582000CE4808F03EFFD3A278213C2009F047F98A
:10583000D5A27821502009F042F9C1A27821642034
:1058400009F03DF9C04808F02CFFC0A2E6219620DF
:1058500009F035F9BFA2E621A02009F030F94FF692
:10586000FF7008F012FF3C231E22AA214FF496700D
:1058700009F06EFA4EF2E3014FF6FF7008F0F4FE05
:10588000B64808F00EFFAFF2BC601E233C22AA21EE
:1058900000904FF4967009F059FEB5480121C26995
:1058A0009047B348AF4908600C20AF49088008BD55
:1058B00038B5AE4847F2C5531E223C210090012066
:1058C00008F0F1F80446B44806F01FFFB24B224638
:1058D000AA214FF4967006F0CCFB38BD08B5FFF74F
:1058E000E7FF47F2C550AC234FF48C723221009091
:1058F000642009F0D3FB47F2C5514FF6FF7008F062
:10590000B3FE964808F0CDFEA4A278213C2009F011
:10591000D6F8A6A278215A2009F0D1F8ABA27821B6
:105920006E2009F0CCF8B0A27821822009F0C7F8E7
:105930004FF6FF7008F0A9FE3C231E22AA214FF467
:10594000967009F005FA47F2C5514FF6FF7008F05E
:105950008BFEAFF288701E233C22AA2100904FF4E8
:10596000967009F0F3FD8C480121C26990478A487E
:105970007C4908600E207C49088008BD38B5A248E3
:105980004EF2E3031E223C210090012008F08BF828
:1059900004469E4806F0B9FE9C4B2246AA214FF4CD
:1059A000967006F066FB38BD08B5FFF7E7FF4EF2CC
:1059B000E300AC234FF48C7232210090642009F094
:1059C0006DFB4EF2E3014FF6FF7008F04DFE6348A9
:1059D00008F067FE8EA278213C2009F070F891A2B1
:1059E00078215A2009F06BF895A27821084609F031
:1059F00066F89BA278218C2009F061F84FF6FF70C1
:105A000008F043FE3C231E22AA214FF4967009F0B1
:105A10009FF94EF2E3014FF6FF7008F025FEAFF656
:105A200054001E233C22AA2100904FF4967009F0E6
:105A30008DFD76480121C269904774484949086044
:105A40000D204949088008BD38B58A484EF2E30365
:105A50001E223C210090012008F025F804468648CB
:105A600006F053FE844B2246AA214FF4967006F0AE
:105A700000FB38BD08B5FFF7E7FF4EF2E300AC23AB
:105A80004FF48C7232210090642009F007FB4EF233
:105A9000E3014FF6FF7008F0E7FD304808F001FE23
:105AA0005BA278213C2009F00AF85EA278215A20F6
:105AB00009F005F871A27821084609F000F877A2EC
:105AC00078218C2008F0FBFF4FF6FF7008F0DDFD19
:105AD0003C231E22AA214FF4967009F039F94EF2A8
