:020000040800F2
:1000000078AF0020B1550108590700085B070008C8
:100010005F0700086307000867070008000000008A
:100020000000000000000000000000009D02000829
:100030006B07000800000000F1020008C15301082E
:10004000CB550108CB550108CB550108CB5501080C
:10005000CB550108CB550108CB550108CB550108FC
:10006000CB550108CB550108CB550108CB550108EC
:10007000CB550108CB550108CB550108CB550108DC
:10008000CB550108CB550108CB550108CB550108CC
:10009000CB550108CB550108CB550108CB550108BC
:1000A000CB550108CB550108CB550108CB550108AC
:1000B000AF070008B1070008B3070008CB550108D7
:1000C000CB550108CB550108CB550108CB5501088C
:1000D000CB550108CB550108CB550108CB5501087C
:1000E000CB550108CB550108CB550108CB5501086C
:1000F000CB550108CB550108CB550108CB5501085C
:10010000CB550108CB550108CB550108CB5501084B
:10011000CB550108CB550108CB550108CB5501083B
:10012000CB550108CB550108CB550108CB5501082B
:10013000CB5501086D070008CB550108CB550108C8
:10014000CB550108CB550108CB550108CB5501080B
:10015000CB550108CB550108CB550108CB550108FB
:10016000CB550108CB550108CB550108CB550108EB
:10017000CB550108CB550108CB550108CB550108DB
:10018000CB550108CB55010800F002F800F076F8D5
:100190000AA090E8000C82448344AAF10107DA45E2
:1001A00001D100F06BF8AFF2090EBAE80F0013F0BE
:1001B000010F18BFFB1A43F00103184750810300D9
:1001C000708103000A444FF0000C10F8013B13F05B
:1001D000070408BF10F8014B1D1108BF10F8015BA0
:1001E000641E05D010F8016B641E01F8016BF9D193
:1001F00013F0080F1EBF10F8014BAD1C0C1B09D1EA
:100200006D1E58BF01F801CBFAD505E014F8016B5B
:1002100001F8016B6D1EF9D59142D6D370470000ED
:100220000023002400250026103A28BF78C1FBD8FF
:10023000520728BF30C148BF0B607047662917F0CE
:10024000A182642915F08E82752915F08B826329AD
:1002500015F07587002070471FB517F04DFA9DE81F
:10026000030015F0A7FC15F0ADFF040000200021ED
:1002700016F030FDE0601FBD10B510BD16F0C0F8DF
:100280001146FFF7E9FF00F0FFF816F0DEF803B4BF
:10029000FFF7F2FF03BC16F00FF900002A4B1968B4
:1002A0000868B0E8F04F80F30988BFF36F8F4FF014
:1002B000000080F3118870470000000006480068C5
:1002C000006880F3088862B661B6BFF34F8FBFF352
:1002D0006F8F00DF00BF00BF08ED00E0DFF80C000B
:1002E000016841F470010160704700BF88ED00E0D3
:1002F000EFF30980BFF36F8F134B1A681EF0100FD6
:1003000008BF20ED108A20E9F04F106008B44FF0CC
:10031000500080F31188BFF34F8FBFF36F8F13F03E
:1003200040FF4FF0000080F3118808BC196808688E
:10033000B0E8F04F1EF0100F08BFB0EC108A80F349
:100340000988BFF36F8F70472C020020EFF3058000
:100350007047000000BF0DF036FD0BF0FAFC0BF00B
:10036000DAFD00F06DFAF6E710B5614800F060FACA
:10037000604908705E48801C00F05AFA5E490870B7
:100380005B48801D00F054FA5C4908705848001D15
:1003900000F04EFA5A49087055484E3000F043FAC2
:1003A000584908705248543000F03DFA56490870D8
:1003B0004F48083000F037FA544908804C480A305A
:1003C00000F031FA5249088049484C3000F02BFACD
:1003D000504908804648523000F025FA044616F08D
:1003E00011FF4D4A03C24248563000F01CFA044641
:1003F00016F008FF494A03C23D480C3000F013FADA
:10040000044616F0FFFE464A03C239481C3000F08D
:100410000AFA044616F0F6FE424A03C234482C306B
:1004200000F001FA044616F0EDFE3F4A03C23048E0
:100430003C3000F0F8F9044616F0E4FE3B4A03C2F3
:100440002B485C3000F0EFF9044616F0DBFE384A2A
:1004500003C22748001F00F0E6F936490880244807
:10046000801E00F0E0F93449088010BD10B500206E
:100470000FF0A6F901200FF0A3F902200FF0A0F968
:1004800003200FF09DF910BD1CB54FF4E1312B484E
:100490000BF098FEFFF7EAFF0CF0BCFA0DF0E5FA5E
:1004A0000FF0DBF8FFF760FF01F045FA00200121B3
:1004B00003464FF42062CDE9001021A1AFF26B108A
:1004C00013F039FB14F037F800BFFEE700BF5020EF
:1004D00080F31188BFF34F8FBFF36F8F00BF00BF52
:1004E000FEE7704710B50BF087FD06F0FAF810BD77
:1004F000040008081B0000201C0000201E00002033
:100500001D0000201F0000202000002026000020E9
:10051000280000202A0000203000002038000020A1
:10052000400000204800002050000020580000201B
:100530006000002022000020240000200010014064
:100540004D795461736B00000CB500200190009050
:100550007648006840F480307449086000BF7348F2
:10056000006800F4003000900198401C0190009851
:1005700018B90198B0F5A06FF1D16C48006800F48B
:10058000003010B10120009001E0002000900098A0
:10059000012846D165484030006840F080506349EA
:1005A000403108606248006840F48040604908605B
:1005B0005E48083000685D490831086008460068F8
:1005C00040F4004008600846006840F4A05008600D
:1005D0005848091F0860081F006840F08070091F14
:1005E000086000BF5148006800F000700028F9D092
:1005F00040F20520504908604C480830006820F05F
:1006000003004A49083108600846006840F00200CB
:10061000086000BF45480830006800F00C0008285A
:10062000F8D10CBD10B54548006840F4700043494E
:1006300008603E48006840F001003C490860002026
:100640003A4908310860394800683D49084037494F
:1006500008603C48091D0860081F006820F48020DD
:10066000091F0860002031490C310860FFF76CFF5A
:100670004FF0006031498039086010BD70B500202E
:100680000022022300240221284D08352D6805F0A0
:100690000C0020B1042806D0082834D107E02A4DE8
:1006A0002A4E356033E02A4D284E35602FE01F4D2D
:1006B0002D1D2D68C5F380541C4D2D1D2D6805F092
:1006C0003F0154B1224DB5FBF1F5184E361D366889
:1006D000C6F3881605FB06F209E01B4DB5FBF1F5E4
:1006E000124E361D3668C6F3881605FB06F20F4D0E
:1006F0002D1D2D68C5F301456D1C6B00B2FBF3F594
:10070000124E356003E0104D104E356000BF00BF43
:10071000064D08352D68C5F303150E4E705D0B4D63
:100720002D68C540094E356070BD0000003802409C
:100730000070004019544007003C024088ED00E082
:10074000FFFFF6FE103000240024F400000000201B
:1007500040787D0104000020704700BFFEE700BF25
:10076000FEE700BFFEE700BFFEE7704708B50020C8
:100770000090402012F079F9012804D169460D4813
:10078000006812F01AFF402012F093F94FF4803005
:1007900012F08FF9009848B1009838B14FF08050AE
:1007A00005490860BFF34F8FBFF36F8F08BD7047D7
:1007B000704770472402002004ED00E070B5044645
:1007C0000D4611F085F9F32011F09BFB29462046D8
:1007D00011F09CFA082801D0012070BD11F085F9B4
:1007E0000020FAE770B52DED028B0446B0EE408A8A
:1007F000F0EE608A11F06CF9F32011F082FB51ECFD
:10080000180B16F083FF05462A460B46204611F0CA
:1008100029FA082803D00120BDEC028B70BD11F02D
:1008200064F90020F8E7014600200A6890B270479A
:10083000014600200A6890B20A2800DD00207047B7
:1008400010B5F748008823287ED2DFE800F07D123B
:100850004C4D4E4F508A8B8CAAABBAFEFDFCFBFA76
:10086000F9F8F7C9CAF6F5F4F3F2F1F0EFEEEDECB2
:10087000EB0000214FF6FF700CF042F9E9480CF054
:100880005CF9E9A2822114200CF065FB4FF6686147
:1008900000200CF035F9E7480CF04FF9E6A264218E
:1008A00082200CF058FBDF480CF047F9E2A2AA21A5
:1008B00050200CF050FB40F2FC4100200CF020F9DD
:1008C000DC480CF03AF9DCA24FF4A57182200CF060
:1008D00042FBD4480CF031F9D7A24FF4C871502034
:1008E0000CF039FBE7E1E6E100BF00BF00BF4FF6C7
:1008F000686100200CF004F9CE480CF01EF9CFA27C
:10090000642178200CF027FBC6480CF016F9CCA225
:10091000AA2146200CF01FFBCBA29B217F200CF0CC
:100920001AFB40F2FC4100200CF0EAF8C1480CF040
:1009300004F9C2A24FF4A57178200CF00CFBB94861
:100940000CF0FBF8C1A200E0B4E14FF4C8714620FE
:100950000CF001FBBCA240F281117F200CF0FBFAED
:10096000A9E1A8E100BF45F2AA214FF6FF700CF003
:10097000C7F8B0480CF0E1F8B6A2642108460CF0C4
:10098000EAFA45F2AA214FF6FF700CF0B9F8A9482F
:100990000CF0D3F8B1A24FF4A57164200CF0DBFA8F
:1009A00089E188E147F2C5514FF6FF700CF0A8F8D5
:1009B000A0480CF0C2F8ABA2C32196200CF0CBFAF1
:1009C00079E14EF2E3014FF6FF700CF099F8994887
:1009D0000CF0B3F8A3A2C32196200CF0BCFA6AE194
:1009E00000BF4FF6686100200CF08AF891480CF0C7
:1009F000A4F89DA2642108460CF0ADFA89480CF0D9
:100A00009CF89AA2A5216E200CF0A5FA40F2FC41B8
:100A100000200CF075F887480CF08FF895A24FF481
:100A2000A57113E03DE1E1E0C7E0A1E09FE079E0DE
:100A300077E049E047E02EE015E031E139E137E1C8
:100A400035E133E131E12FE12CE12CE164200CF0C0
:100A500082FA74480CF071F887A240F28B116E2074
:100A60000CF079FA27E140F2FC4100200CF048F844
:100A700070480CF062F87FA24FF4A57164200CF06E
:100A80006AFA68480CF059F87BA240F28B116E208C
:100A90000CF061FA0FE14FF6686100200CF030F8BD
:100AA00064480CF04AF873A24FF4A57164200CF06E
:100AB00052FA5C480CF041F870A240F28B116E20A3
:100AC0000CF049FAF7E000BF4FF6686100200CF027
:100AD00017F858480CF031F86AA2642108460CF067
:100AE0003AFA50480CF029F867A2A5216E200CF0C4
:100AF00032FA40F2FC4100200CF002F84D480CF0B4
:100B00001CF85CA24FF4A57164200CF024FA45484F
:100B10000CF013F858A240F28B116E200CF01BFA67
:100B2000C9E000BF4FF6686100200BF0E9FF4148C3
:100B30000CF003F855A2782164200CF00CFA40F276
:100B4000FC4100200BF0DCFF3A480BF0F6FF50A20E
:100B50004FF4A57164200CF0FEF932480BF0EDFF64
:100B600045A240F28B116E200CF0F5F9A3E000BF16
:100B700045F2AA2100200BF0C3FF2E480BF0DDFF49
:100B800042A2782164200CF0E6F940F2FC410020FA
:100B90000BF0B6FF27480BF0D0FF3DA24FF4A57134
:100BA00064200CF0D8F91F480BF0C7FF32A240F2C6
:100BB0008B116E200CF0CFF97DE045F2AA214FF6A3
:100BC000FF700BF09DFF1B480BF0B7FF31A24FF4F5
:100BD000A57164200CF0BFF912480BF0AEFF2EA2F5
:100BE00040F28B116E200CF0B6F964E045F2AA21B8
:100BF0004FF6FF700BF084FF0E480BF09EFF27A20C
:100C00004FF4A57164200CF0A6F906480BF095FF8F
:100C100021A240F28B116E200CF09DF94BE00000F8
:100C2000700000205001002030303A30303A30312E
:100C30000000000048010020302E35003135300022
:100C40003430306D6C0000006D6C00003230306D5F
:100C50006C0000003135206D330000003036206814
:100C60000000000031350000302C32006D672F6C21
:100C700000000000372C3000704800006D672F68BE
:100C800000000000363530006D56000035000000D1
:100C9000362C3800323800006F430000333000003B
:100CA00000BF00BF00BF00BF00BF00BF00BF00BF4C
:100CB00000BF00E000BF00BF10BD2DE9F0470646B1
:100CC0000F4691461C46DDF82080B8F1020F07D18F
:100CD00000BF204614F08CFC054614F0B8FC00BFA1
:100CE00000BFAFF28002394630460CF034F9BDE85F
:100CF000F087000010B5FA4800680AF077FA00F0B3
:100D00000AFF10BD704710B5F54800680AF06EFA8A
:100D100000F011FE10BD10B5F14800680AF066FA47
:100D200001F01CFD10BD10B5ED4800680AF05EFA38
:100D300003F06EFC10BD10B5EA48007830B1012810
:100D40000BD0022810D003281CD114E0E44800681E
:100D50000AF04CFA00F0C0FF14E0E14800680AF025
:100D600045FA01F0B4FB0DE0DD4800680AF03EFAF8
:100D700001F054F906E0DA4800680AF037FA01F0A9
:100D800052FA00BF00BF10BD10B5D54800680AF088
:100D90002DFA05F02BFC10BD10B5D14800680AF003
:100DA00025FA00F0B8FE0020CE49087010BD10B53D
:100DB000CB4800680AF01AFA00F0BDFD0020C949CE
:100DC000087010BD10B5C64800680AF00FFA01F0AF
:100DD00025F910BD10B5C24800680AF007FA01F005
:100DE00076FB10BD10B5BE4800680AF0FFF900F0B0
:100DF00092FE0220BB49087010BD10B5B8480068CB
:100E00000AF0F4F900F097FD0020B649087010BD13
:100E100010B5B34800680AF0E9F900F05DFF10BDB5
:100E200010B5AF4800680AF0E1F901F0FCF910BD17
:100E300010B5AB4800680AF0D9F900F06CFE032049
:100E4000A849087010BD10B5A54800680AF0CEF991
:100E500000F071FD0020A349087010BD10B5A04836
:100E600000680AF0C3F901F032FB10BD10B59C48D0
:100E700000680AF0BBF901F0D1F810BD10B5984830
:100E800000680AF0B3F900F046FE012095490870A9
:100E900010BD10B5924800680AF0A8F900F04BFDAB
:100EA00000209049087010BD10B58D4800680AF008
:100EB0009DF901F0B3F810BD10B5894800680AF03B
:100EC00095F900F009FF10BD10B5854800680AF0DB
:100ED0008DF900F020FE10BD10B5814800680AF0C1
:100EE00085F900F028FD10BD10B57D4800680AF0B6
:100EF0007DF901F054FD10BD10B5794800680AF085
:100F000075F902F0CDF810BD10B5754800680AF00B
:100F10006DF903F02DF810BD10B5714800680AF0A6
:100F200065F901F01BFC10BD10B56D4800680AF0B2
:100F30005DF900F000FD10BD6B480088401C6A4957
:100F40000880704768480088401E674908807047DD
:100F500010B5654801886548FFF730FC10BD10B535
:100F60005F4800680AF042F901F0B3FE10BD10B509
:100F70005B4800680AF03AF901F0F0FB10BD10B5CB
:100F8000574800680AF032F900F0D5FC10BD584807
:100F90000088401C56490880704755480088401E0C
:100FA00053490880704710B5514801884F48801C4C
:100FB000FFF704FC10BD10B5494800680AF016F9A7
:100FC00001F0EDFC10BD10B5454800680AF00EF9BF
:100FD000484801784548001DFFF7F0FB4648017876
:100FE0004248801DFFF7EAFB444801783F4808303B
:100FF000FFF7E4FB01F0B2FB10BD10B53848006804
:101000000AF0F4F83B4801783848001DFFF7D6FB9A
:10101000394801783548801DFFF7D0FB3748017803
:1010200032480830FFF7CAFB00F085FC10BD10B550
:1010300033A00BF074F900202E49087010BD10B5D4
:1010400037A00BF06CF901202A49087010BD10B5CB
:101050003BA00BF064F902202649087010BD10B5C2
:1010600042A00BF05CF900202349087010BD10B5B8
:1010700047A00BF054F901201F49087010BD10B5AE
:101080004CA00BF04CF902201B49087010BD10B5A4
:1010900051A00BF044F900201849087010BD10B59C
:1010A00055A00BF03CF901201449087010BD10B593
:1010B00059A00BF034F902201049087010BD10B58A
:1010C000074800680AF092F801F0EAFF10BD10B579
:1010D000034800680AF08AF801F0E2FF10BD000042
:1010E0006C0000201A0000202200002000000808E8
:1010F000240000201B0000201C0000201D000020F8
:10110000506172616D657465727357617465725375
:10111000637265656E5F496E646F6F720D0A0000E1
:10112000506172616D657465727357617465725355
:10113000637265656E5F4F7574646F6F720D0A0040
:10114000506172616D657465727357617465725335
:10115000637265656E5F45787472656D65436F6E29
:10116000646974696F6E0D0A00000000506172615D
:101170006D657465727357617465725363726565EA
:101180006E5F4C65737332306F430D0A00000000D0
:10119000506172616D6574657273576174657253E5
:1011A000637265656E5F32306F435F33306F430D3E
:1011B0000A000000506172616D6574657273576159
:1011C00074657253637265656E5F4D6F726533301F
:1011D0006F430D0A00000000506172616D65746517
:1011E0007273576174657253637265656E5F536F96
:1011F00066740D0A00000000506172616D657465CF
:101200007273576174657253637265656E5F48618E
:1012100072640D0A00000000506172616D657465B2
:101220007273576174657253637265656E5F56655C
:101230007279486172640D0A0000000010B5F6482A
:10124000006809F0D3FF01F02BFF10BD10B5F24884
:10125000006809F0CBFF03F04DFB10BD10B5EE4860
:10126000006809F0C3FF03F045FB10BD10B5EA4864
:10127000006809F0BBFF03F03DFB10BD10B5E64868
:10128000006809F0B3FF03F0C7FC10BD10B5E248D9
:10129000006809F0ABFF01F003FF10BD10B5DE4898
:1012A000006809F0A3FF01F0FBFE10BD10B5DA489D
:1012B000006809F09BFF01F0F3FE10BD10B5D648A1
:1012C000006809F093FF01F049FA10BD10B5D2484B
:1012D000006809F08BFF00F02EFB10BD10B59FEDEC
:1012E000CF0B53EC102BCF4890ED000B51EC100BB3
:1012F00015F038FDCB4A03C210BD10B59FEDC70BEA
:1013000053EC102BC74890ED000B51EC100B16F06E
:1013100009F9C44A03C210BD10B5C24890ED000BD4
:10132000C148FFF75FFA10BD10B5BB48006809F06F
:101330005DFF03F036F810BD10B5B748006809F03E
:1013400055FF01F00BFA10BD10B5B348006809F065
:101350004DFF00F0F0FA10BD10B59FEDB00B53EC4F
:10136000102BB24890ED000B51EC100B15F0FAFC6D
:10137000AE4A03C210BD10B59FEDA80B53EC102B65
:10138000AA4890ED000B51EC100B16F0CBF8A74AD1
:1013900003C210BD10B5A54890ED000BA248103057
:1013A000FFF720FA10BD10B59B48006809F01EFF3A
:1013B00002F0DEFD10BD10B59748006809F016FF79
:1013C00000F0A9FB10BD10B59348006809F00EFFAE
:1013D00000F0B1FA10BD10B58F48006809F006FFA3
:1013E00003F01AFC8C48006809F000FF02F0B9FA1B
:1013F00010BD10B58848006809F0F8FE03F07AFACD
:101400008548006809F0F2FE02F04AFA10BD10B5F6
:101410008148006809F0EAFE04F016FE10BD10B520
:101420007D48006809F0E2FE04F039FF10BD10B5F8
:101430007948006809F0DAFE03F0EAF810BD10B54B
:101440007548006809F0D2FE00F075FA10BD10B5BD
:101450009FED720B53EC102B754890ED000B51EC87
:10146000100B15F07FFC724A03C210BD10B59FED42
:101470006B0B53EC102B6E4890ED000B51EC100BE6
:1014800016F050F86A4A03C210BD10B5684890EDD6
:10149000000B65482038FFF7A5F910BD10B55E4870
:1014A000006809F0A3FE03F0B3F810BD10B55A4868
:1014B000006809F09BFE00F03EFA10BD10B59FEDEC
:1014C000570B53EC102B5B4890ED000B51EC100BBD
:1014D00015F048FC574A03C210BD10B59FED4F0BE5
:1014E00053EC102B534890ED000B51EC100B16F001
:1014F00019F8504A03C210BD10B54E4890ED000BCC
:1015000049481038FFF76EF910BD10B54248006821
:1015100009F06CFE01F022F910BD10B53E480068DC
:1015200009F064FE00F007FA10BD43480088401C33
:1015300041490880704740480088401E3E49088065
:10154000704710B53C48018837482030FFF736F91E
:1015500010BD10B53048006809F048FE03F04DFE9C
:1015600010BD10B52C48006809F040FE01F0F6F8F7
:1015700010BD10B52848006809F038FE00F0DBF90E
:1015800010BD10B59FED250B53EC102B2B4890EDA3
:10159000000B51EC100B15F0E5FB284A03C210BDFF
:1015A00010B59FED1E0B53EC102B244890ED000B53
:1015B00051EC100B15F0B6FF204A03C210BD10B558
:1015C0001E4890ED000B18483030FFF70BF910BDA6
:1015D00010B51148006809F009FE03F057FC10BD72
:1015E00010B50D48006809F001FE01F0B7F810BD14
:1015F00010B50948006809F0F9FD00F09CF910BD2C
:101600000F480078401C0E49087070470C4800785D
:10161000401E0B49087070476C0000209A999999F8
:101620009999B93F50000020300008085800002068
:1016300040000020480000202A0000206000002018
:101640001F00002010B5A8480178A848FFF7B6F899
:1016500010BD10B5A648006809F0C8FD04F0AAF84E
:1016600010BD10B5A248006809F0C0FD01F076F881
:1016700010BD10B59E48006809F0B8FD00F05BF998
:1016800010BD10B51FED1B0B53EC102B994890EDBE
:10169000000B51EC100B15F065FB964A03C210BD10
:1016A00010B51FED220B53EC102B924890ED000B60
:1016B00051EC100B15F036FF8E4A03C210BD10B569
:1016C0008C4890ED000B8948001DFFF78BF810BD8A
:1016D00010B58748006809F089FD03F0C3FE10BD0E
:1016E00010B58348006809F081FD01F037F810BD9E
:1016F00010B57F48006809F079FD00F01CF910BDB5
:1017000010B52DED048B7C48007815F07BFD41EC85
:10171000190B1FED3E0B53EC102B15F023FB41EC86
:10172000180B15F02BFD74490870BDEC048B10BD2F
:1017300010B52DED048B7048007815F063FD41EC79
:10174000190B1FED4A0B53EC102B15F0EBFE41EC7F
:10175000180B15F013FD68490870BDEC048B10BD23
:1017600010B5654801786148801DFFF727F810BD66
:1017700010B55F48006809F039FD04F0DEFA10BDCD
:1017800010B55B48006809F031FD00F0E7FF10BDBF
:1017900010B55748006809F029FD00F0CCF810BDDD
:1017A00010B51FED620B53EC102B544890ED000B5D
:1017B00051EC100B15F0D6FA504A03C210BD10B50B
:1017C0001FED6A0B53EC102B4C4890ED000B51ECC5
:1017D000100B15F0A7FE494A03C210BD10B54748CB
:1017E00090ED000B41480830FEF7FCFF10BD10B52E
:1017F0003F48006809F0FAFC04F064F910BD10B528
:101800003B48006809F0F2FC02F002FF10BD10B581
:101810003748006809F0EAFC00F08DF810BD384840
:101820000088401C36490880704735480088401EB3
:1018300033490880704710B5314801882B48443837
:10184000FEF7BCFF10BD10B52948006809F0CEFCBA
:1018500002F0DEFE10BD10B52548006809F0C6FC98
:1018600000F069F810BD27480088401C2549088011
:10187000704724480088401E22490880704710B5F0
:101880002048018819484638FEF798FF10BD10B56A
:101890001748006809F0AAFC1B480178134848382B
:1018A000FEF78CFF00F037F910BD10B51048006846
:1018B00009F09CFC144801780C484838FEF77EFF7C
:1018C00000F039F810BD00200F4908707047012062
:1018D0000D490870704702200B49087070470320BB
:1018E00009490870704700001F00002052000808D6
:1018F0006C00002030000020200000203800002074
:1019000028000020260000201E00002038B5FE48D8
:101910004FF6FF732022D221009001200AF0CEFA68
:101920000446FA4809F098F8F84B2246F021FA20CC
:1019300008F01FFD38BD08B5F5A00AF0F0FCFFF770
:10194000E5FF00200BF07DF94FF6FF702023D22237
:10195000F0210090FA200BF04AFDF3480BF0EDF86F
:10196000F2A02023D222F0210090FA200BF093FF66
:101970004FF6FF701C235A220C21009014200BF00C
:1019800036FDED480BF0D9F84FF6FF7100200BF053
:10199000B7F8EAA214210E200BF0DDFA00214FF671
:1019A000FF700BF0ADF8E0480BF0C7F8E5A24FF47C
:1019B000917114200BF0CFFAE6A21421FA200BF05B
:1019C000CAFA4FF66860A023D2223C21009014206E
:1019D0000BF00DFD40F2FC40A023D2223C210090F0
:1019E000FA200BF004FD4FF6686100200BF088F838
:1019F000CD480BF0A2F8DAA21E2150200BF0ABFA72
:101A0000DAA2AF21A0200BF0A6FA40F2FC410020A0
:101A10000BF076F8C4480BF090F8D6A24FF4827120
:101A200050200BF098FAD5A24FF4C871A0200BF00B
:101A300092FAB6480121C26990470120D049088036
:101A4000B248D049086008BD10B5FFF774FF10BD5B
:101A50002DE9F843CC484FF6FF731E22D2210090A7
:101A600001200AF02BFA0446C8484FF6FF731E22E5
:101A7000D221009002200AF021FA0546C448002332
:101A80005022D221009003200AF018FA0646C148DD
:101A900000235022D221009004200AF00FFA0746BA
:101AA000BD4800235022D221009005200AF006FAFA
:101AB0008046BA4800235022D221009006200AF026
:101AC000FDF98146B64808F0C7FFB54B2246F02124
:101AD000FA2008F04EFCB24B2A46F021142008F000
:101AE00048FCAF4B32463C21142008F042FCAC4B82
:101AF0003A463C21FA2008F03CFCA94B424696218C
:101B0000142008F036FCA64B4A469621FA2008F02D
:101B100030FCBDE8F88308B5A2A00AF000FCFFF78E
:101B200097FF00200BF08DF84FF6FF701C235A2210
:101B30000C21009014200BF05AFC7F480AF0FDFFA6
:101B40004FF6FF7100200AF0DBFF7CA214210E206B
:101B50000BF001FA00214FF6FF700AF0D1FF724836
:101B60000AF0EBFF71A24FF4BE7114200BF0F3F9F1
:101B7000D22350223C2114200BF036FBD2235022DA
:101B80003C21FA200BF030FBD22350229621142066
:101B90000BF02AFBD22350229621FA200BF024FBD3
:101BA0004FF6FF701E23D222F021009014200BF07C
:101BB0001EFCD2231E22F021FA200BF015FB00217F
:101BC0004FF6FF700AF09CFF57480AF0B6FF7BA063
:101BD0005023D2223C21009014200BF05CFE7AA00E
:101BE0005023D2223C210090FA200BF054FE79A021
:101BF0005023D2229621009014200BF04CFE78A0A6
:101C00005023D22296210090FA200BF044FE78A0B7
:101C10001E23D222F0210090FA200BF03CFE4FF65A
:101C2000FF7100200AF06CFF74A01E23D222F02165
:101C3000009014200BF02FFE59480121C2699047F3
:101C400002204F49088056484E49086008BDF8B543
:101C50006E484FF6FF731E22D221009001200AF039
:101C60002DF904466A484FF6FF731E22D2210090D8
:101C700002200AF023F90546664840F2FC433C2264
:101C8000D221009003200AF019F9064662484FF667
:101C900068633C22D221009004200AF00FF9074625
:101CA0005E4808F0D9FE5D4B2246F021FA2008F08C
:101CB00060FB5A4B2A46F021142008F05AFB574B80
:101CC0003246AA21142008F054FB544B3A46AA216C
:101CD000FA2008F04EFBF8BD08B551A00AF01FFB32
:101CE000FFF7B5FF00200AF0ACFF4FF6FF701C2392
:101CF0005A220C21009014200BF079FB0E480AF0B8
:101D00001CFF4FF6FF719DE0F50C00088C020020CF
:101D10004372656174655F53746172745363726575
:101D2000656E0D0A00000000500100205345545418
:101D3000494E475300000000480100205449544CCC
:101D40004500000043484155205048554F43205618
:101D50005500000042414348204B484F41000000DD
:101D600043484C4F52494E45000000006D672F6CB0
:101D70000000000050482D2D0000000070480000B9
:101D8000700000206C000020050D0008070D000801
:101D9000170D0008270D0008370D0008890D0008F1
:101DA000300300204372656174655F536574746924
:101DB0006E677353637265656E0D0A005041524140
:101DC0004D4554455253000043414C494252415401
:101DD000494F4E00444F53494E47205445535400F9
:101DE00054595045204F462050524F424500000064
:101DF0004C414E4755414745530000004241434B3B
:101E000020544F205354415254000000990D0008B3
:101E1000AF0D0008C50D0008D50D0008D403002043
:101E20004372656174655F446F73696E675465736F
:101E30007453746172745374617274536372656520
:101E40006E0D0A0000200AF05BFEAFF210121421A2
:101E50000E200BF080F800214FF6FF700AF050FEC4
:101E6000FE480AF06AFEAFF294024FF4AA71142001
:101E70000BF071F84FF668606423D2223C21009089
:101E800014200BF0B4FA40F2FC406423D2223C212F
:101E90000090FA200BF0ABFA4FF6686100200AF0D0
:101EA0002FFEEE480AF049FEEDA21E2146200BF05F
:101EB00052F840F2FC4100200AF022FEE7480AF006
:101EC0003CFEAFF248124FF4827146200BF043F80B
:101ED0004FF6FF701E23D222F021009014200BF049
:101EE00086FA4FF6FF701E23D222F0210090FA20CE
:101EF0000BF07DFA4FF668600AF013FED2233C2205
:101F0000AA2114200BF070F940F2FC400AF009FEFF
:101F1000D2233C22AA21FA200BF066F9CF480AF01E
:101F20000CFE00214FF6FF700AF0EAFDAFF22C1014
:101F30003C23D222AA21009014200BF0ACFCAFF27B
:101F40003C103C23D222AA210090FA200BF0A3FCE3
:101F50004FF6FF7100200AF0D3FDC3A01E23D2224A
:101F6000F0210090FA200BF096FCAFF270101E23C7
:101F7000D222F021009014200BF08DFCBC480121EE
:101F8000C26990470320BB490880B948BA49086034
:101F900008BDF8B5B9484FF6FF731E22D221009054
:101FA000012009F08BFF0446B5484FF6FF731E224F
:101FB000D2210090022009F081FF0546B14840F28D
:101FC000FC433C22D2210090032009F077FF064613
:101FD000AD484FF668633C22D2210090042009F0FE
:101FE0006DFF0746A94808F037FDA84B2246F021AF
:101FF000FA2008F0BEF9A54B2A46F021142008F07B
:10200000B8F9A24B3246AA21142008F0B2F99F4B2E
:102010003A46AA21FA2008F0ACF9F8BD08B59CA010
:102020000AF07DF9FFF7B5FF00200AF00AFE4FF62F
:10203000FF701C235A220C21009014200BF0D7F9BA
:102040009C480AF07AFD4FF6FF7100200AF058FD17
:10205000AFF2183214210E200AF07DFF00214FF656
:10206000FF700AF04DFD7D480AF067FDAFF29C223B
:102070004FF4AA7114200AF06EFF4FF668606423D3
:10208000D2223C21009014200BF0B1F940F2FC4028
:102090006423D2223C210090FA200BF0A8F94FF6DD
:1020A000686100200AF02CFD6C480AF046FD6CA225
:1020B0001E2146200AF04FFF40F2FC4100200AF0AA
:1020C0001FFD7C480AF039FD64480AF036FDAFF286
:1020D00054324FF4827146200AF03DFF4FF6FF70F4
:1020E0001E23D222F021009014200BF080F94FF62D
:1020F000FF701E23D222F0210090FA200BF077F916
:102100004FF668600AF00DFDD2233C22AA2114206C
:102110000BF06AF840F2FC400AF003FDD2233C22A7
:10212000AA21FA200BF060F84C480AF006FD0021C5
:102130004FF6FF700AF0E4FC5FA03C23D222AA21F4
:10214000009014200BF0A7FBAFF248303C23D222C2
:10215000AA210090FA200BF09EFB4FF6FF710020A1
:102160000AF0CEFC40A01E23D222F0210090FA20DB
:102170000BF091FBAFF27C301E23D222F0210090B5
:1021800014200BF088FB41480121C26990470420CC
:10219000384908803D483849086008BDF8B54848C6
:1021A0004FF6FF731E22D2210090012009F086FE17
:1021B000044644484FF6FF731E22D22100900220AD
:1021C00009F07CFE0546404840F2FC433C22D22107
:1021D0000090032009F072FE06463C484FF6686303
:1021E0003C22D2210090042009F068FE07463848BE
:1021F00008F032FC364B2246F021FA2008F0B9F8FC
:10220000334B2A46F021142008F0B3F8304B324605
:10221000AA21142008F0ADF82D4B3A46AA21FA2045
:1022200008F0A7F8F8BD08B52AA00AF078F8FFF77B
:10223000B5FF00200AF005FD4FF6FF701C235A225F
:102240000C21009014200BF0D2F81A480AF075FC0B
:102250004FF6FF7100200AF053FC4DE050010020C2
:10226000444953494E462E004241434B0000000072
:10227000D4030020700000206C000020E50D000851
:10228000FB0D0008110E0008210E00087804002044
:102290004372656174655F446F73696E67546573FB
:1022A0007453746F70537461727453637265656EA6
:1022B0000D0A00004801002053544F500000000058
:1022C000310E0008470E00085D0E00086D0E000874
:1022D0001C0500204372656174655F446F73696E0D
:1022E000675465737453746F7053746F7053637273
:1022F00065656E0D0A000000AFF2C05214210E2079
:102300000AF029FE00214FF6FF700AF0F9FBFA48A7
:102310000AF013FCAFF244524FF4AA7114200AF0F1
:102320001AFE4FF668606423D2223C2100901420EC
:102330000BF05DF840F2FC406423D2223C21009077
:10234000FA200BF054F84FF6686100200AF0D8FB31
:10235000E9480AF0F2FBAFF2F8021E2146200AF02B
:10236000FAFD40F2FC4100200AF0CAFBE2480AF004
:10237000E4FBAFF2F8524FF4827146200AF0EBFD15
:102380004FF6FF701E23D222F021009014200BF094
:102390002EF84FF6FF701E23D222F0210090FA2073
:1023A0000BF025F84FF668600AF0BBFBD2233C2205
:1023B000AA2114200AF018FF40F2FC400AF0B1FBF9
:1023C000D2233C22AA21FA200AF00EFFCA480AF0C2
:1023D000B4FB00214FF6FF700AF092FBAFF2281019
:1023E0003C23D222AA21009014200BF054FAAFF221
:1023F00038103C23D222AA210090FA200BF04BFA8D
:102400004FF6FF7100200AF07BFBAFF2A4101E23F1
:10241000D222F0210090FA200BF03DFAAFF22460B6
:102420001E23D222F021009014200BF034FAB3487E
:102430000121C26990470520B1490880AF48B149E0
:10244000086008BDF8B5B0484FF6FF731E22D221D0
:102450000090012009F032FD0446AC484FF6FF73AE
:102460001E22D2210090022009F028FD0546A8482E
:1024700040F2FC433C22D2210090032009F01EFDD3
:102480000646A4484FF668633C22D22100900420FF
:1024900009F014FD0746A04808F0DEFA9E4B2246DC
:1024A000F021FA2007F065FF9B4B2A46F02114200B
:1024B00007F05FFF984B3246AA21142007F059FF1E
:1024C000954B3A46AA21FA2007F053FFF8BD08B50C
:1024D00092A009F024FFFFF7B5FF00200AF0B1FB3E
:1024E0004FF6FF701C235A220C21009014200AF092
:1024F0007EFF93480AF021FB4FF6FF7100200AF09F
:10250000FFFAAFF2C87214210E200AF024FD002158
:102510004FF6FF700AF0F4FA77480AF00EFBAFF2BC
:102520004C724FF4AA7114200AF015FD4FF6686042
:102530006423D2223C21009014200AF058FF40F27C
:10254000FC406423D2223C210090FA200AF04FFF85
:102550004FF6686100200AF0D3FA67480AF0EDFAF6
:10256000AFF204321E2146200AF0F5FC40F2FC4195
:1025700000200AF0C5FA60480AF0DFFAAFF604025C
:102580004FF4827146200AF0E6FC4FF6FF701E23DE
:10259000D222F021009014200AF029FF4FF6FF709C
:1025A0001E23D222F0210090FA200AF020FF4FF6DD
:1025B00068600AF0B6FAD2233C22AA2114200AF05D
:1025C00013FE40F2FC400AF0ACFAD2233C22AA21CE
:1025D000FA200AF009FE48480AF0AFFA00214FF647
:1025E000FF700AF08DFAAFF2E4703C23D222AA21E8
:1025F000009014200BF04FF9AFF244303C23D2226C
:10260000AA210090FA200BF046F94FF6FF71002046
:102610000AF076FAAFF2B0301E23D222F0210090F9
:10262000FA200BF038F9AFF62C001E23D222F0214D
:10263000009014200BF02FF937480121C269904710
:1026400006202F49088034482E49086008BD2DE92E
:10265000F8433C484FF6FF731E22D2210090012020
:1026600009F02CFC044638484FF6FF731E22D22195
:102670000090022009F022FC054634480023502235
:10268000D2210090032009F019FC064630480023AF
:102690005022D2210090042009F010FC07462D485A
:1026A00001235022D2210090052009F007FC80462A
:1026B000294808F0D1F9284B2246F021FA2007F0EA
:1026C00058FE254B2A46F021142007F052FE224BDB
:1026D00032463C21142007F04CFE1F4B3A463C2169
:1026E000FA2007F046FE1C4B42469621FA2007F0DE
:1026F00040FEBDE8F8830000500100201C050020CA
:10270000700000206C0000207D0E0008930E000871
:10271000A90E0008B90E0008C005002043726561CB
:1027200074655F446F73696E675465737453746145
:10273000727453746F7053637265656E0D0A000096
:1027400048010020C90E0008D90E0008E90E000853
:10275000F90E0008090F00086406002008B5F9A06A
:1027600009F0DDFDFFF773FF00200AF06AFA4FF66B
:10277000FF701C235A220C21009014200AF037FE0F
:10278000F7480AF0DAF94FF6FF7100200AF0B8F9BD
:10279000AFF6582214210E200AF0DDFB00214FF67F
:1027A000FF700AF0ADF9EF480AF0C7F9AFF6F4127E
:1027B00040F2631114200AF0CEFBD22350223C21B8
:1027C00014200AF011FDD22350223C21FA200AF0F5
:1027D0000BFD4FF668605023D22296210090142002
:1027E0000AF005FE40F2FC405023D22296210090D0
:1027F000FA200AF0FCFD00214FF6FF700AF080F984
:102800004FF6686100200AF07BF9D7A05023D2224E
:102810009621009014200BF03EF840F2FC4100207D
:102820000AF06EF9AFF6AC205023D2229621009028
:10283000FA200BF030F84FF6FF701E23D222F02161
:10284000009014200AF0D3FD4FF6FF701E23D22211
:10285000F0210090FA200AF0CAFDC2480AF06DF992
:1028600000214FF6FF700AF04BF9C3A05023D2228B
:102870003C21009014200BF00EF8C1A05023D2226E
:102880003C210090FA200BF006F84FF6FF71002073
:102890000AF036F9AFF230601E23D222F021009008
:1028A000FA200AF0F8FFAFF6AC201E23D222F02166
:1028B000009014200AF0EFFF4FF6FF7100200AF09D
:1028C0001FF9B1480121C26990470720AF4908802C
:1028D000AD48AF49086008BD2DE9F843AD484FF653
:1028E000FF731E22D2210090012009F0E7FA04466E
:1028F000A9484FF6FF731E22D2210090022009F052
:10290000DDFA0546A54803233C22642100901846C1
:1029100009F0D4FA0646A24803233C226421009021
:10292000042009F0CBFA07469E4803233C22D2211B
:102930000090052009F0C2FA80469B4801236422DA
:10294000D2210090062009F0B9FA8146974808F094
:1029500083F8964B2246F021FA2007F00AFD934BAC
:102960002A46F021142007F004FD904B3246AA219C
:10297000142007F0FEFC8D4B3A46AA21822007F076
:10298000F8FC8A4B4246AA21FA2007F0F2FC874B5A
:102990004A463C21FA2007F0ECFCBDE8F88308B574
:1029A00083A009F0BCFCFFF797FF00200AF049F96B
:1029B0004FF6FF701C235A220C21009014200AF0BD
:1029C00016FD67480AF0B9F84FF6FF7100200AF0CB
:1029D00097F8AFF6984214210E200AF0BCFA0021B5
:1029E0004FF6FF700AF08CF85E480AF0A6F878A25D
:1029F0004FF4917114200AF0AEFA45F2AA20642334
:102A0000D2223C21009014200AF0F1FC45F2AA20C9
:102A10006423D2223C210090FA200AF0E8FC45F21F
:102A2000AA200AF084F84F480AF087F86CA21E2109
:102A300046200AF090FA002014233C228C210090BA
:102A40005F200AF0D4FC45F2AA200AF070F845484D
:102A50000AF073F865A2FF2146200AF07CFA4FF6CF
:102A6000FF701E23D222F021009014200AF0BFFC38
:102A70004FF6FF701E23D222F0210090FA200AF0B8
:102A8000B6FC4FF6FF700AF04CF864233C22AA21F2
:102A900014200AF0A9FB64233C22AA2182200AF018
:102AA000A3FBD2233C22AA21FA200AF09DFB2C484A
:102AB0000AF043F800214FF6FF700AF021F850A009
:102AC0003C236422AA21009014200AF0E4FE4DA0C9
:102AD0003C236422AA21009082200AF0DCFE2148D7
:102AE0000AF02BF848A03C23D222AA210090FA2019
:102AF0000AF0D1FE4FF6FF7100200AF001F8AFF6A0
:102B000098001E23D222F0210090FA200AF0C3FE82
:102B1000AFF618501E23D222F021009014200AF0A4
:102B2000BAFE4FF6FF71002009F0EAFF1F480121AD
:102B3000C26990470820154908801C48144908605C
:102B400008BD00004372656174655F506172616D1C
:102B5000657465727353637265656E0D0A000000DB
:102B60004801002050010020444953494E46454346
:102B700054494F4E00000000504F4F4C00000000E1
:102B800057415445520000006406002070000020A8
:102B90006C000020190F0008290F0008390F0008E9
:102BA000450F0008510F00085F0F000808070020BC
:102BB0004372656174655F506172616D65746572C1
:102BC00073566F6C756D6553637265656E0D0A00A3
:102BD000504F4F4C20504152414D455445525300A7
:102BE000504F4F4C20564F4C554D450046494C5484
:102BF000524154494F4E20504552494F4400000025
:102C00002B0000002D0000004F4B00002DE9F84381
:102C1000FD484FF6FF731E22D2210090012009F0DB
:102C20004DF90446F9484FF6FF731E22D221009059
:102C3000022009F043F90546F54803233C226421AC
:102C40000090184609F03AF90646F24803233C2260
:102C500064210090042009F031F90746EE4803236F
:102C60003C22D2210090052009F028F98046EB484B
:102C700001236422D2210090062009F01FF9814629
:102C8000E74807F0E9FEE64B2246F021FA2007F07C
:102C900070FBE34B2A46F021142007F06AFBE04B5F
:102CA0003246AA21142007F064FBDD4B3A46AA21E4
:102CB000822007F05EFBDA4B4246AA21FA2007F099
:102CC00058FBD74B4A463C21142007F052FBBDE885
:102CD000F88308B5D3A009F022FBFFF797FF002087
:102CE00009F0AFFF4FF6FF701C235A220C21009011
:102CF00014200AF07CFBD64809F01FFF4FF6FF7145
:102D0000002009F0FDFEAFF6CC7214210E200AF06F
:102D100022F900214FF6FF7009F0F2FECD4809F0CC
:102D20000CFFAFF254124FF4917114200AF013F912
:102D300045F2AA206423D2223C21009014200AF0FC
:102D400056FB45F2AA206423D2223C210090FA20AF
:102D50000AF04DFB002014233C228C21009040F20D
:102D600045100AF044FB45F2AA214FF6FF7009F026
:102D7000C7FEB84809F0E1FEAFF29C121E214620C2
:102D80000AF0E9F845F2AA214FF6FF7009F0B8FE03
:102D9000B04809F0D2FEAFF2AC12FF2146200AF093
:102DA000DAF84FF6FF701E23D222F0210090142093
:102DB0000AF01DFB4FF6FF701E23D222F021009077
:102DC000FA200AF014FB4FF6FF7009F0AAFE642304
:102DD0003C22AA2114200AF007FA64233C22AA21EB
:102DE00082200AF001FAD2233C22AA21FA200AF01A
:102DF000FBF9974809F0A1FE00214FF6FF7009F09A
:102E00007FFEAFF204203C236422AA21009014200C
:102E10000AF041FDAFF214203C236422AA21009065
:102E200082200AF038FD8B4809F087FEAFF2282097
:102E30003C23D222AA210090FA200AF02CFD4FF662
:102E4000FF71002009F05CFEAFF6E4301E23D222B1
:102E5000F0210090FA200AF01EFD7F481E23D222A6
:102E6000F021009014200AF016FD4FF6FF710020AB
:102E700009F046FE6A480121C26990470920774956
:102E8000088067487649086008BD2DE9F04F87B093
:102E9000012004F029FC0446022004F025FC05462C
:102EA000032004F021FC06466E484FF6FF731E22F5
:102EB000D2210090042009F001F807466A484FF635
:102EC000FF731E22D2210090052008F0F7FF8046F4
:102ED000664A5EA12046E36A98478146644A5BA140
:102EE0002046E36A98478246624A58A12046E36A30
:102EF00098478346604A55A12846EB6A9847069052
:102F00005E4A52A12846EB6A984705905C4A4FA159
:102F10002846EB6A984704905A4A4CA13046F36A17
:102F200098470390584A49A13046F36A984702905F
:102F3000564A46A13046F36A98470190544807F034
:102F40008BFD534B3A46F021FA2007F012FA504B12
:102F50004246F021142007F00CFA4D4B4A46552109
:102F60004FF4877007F005FA494B52465521880007
:102F700007F0FFF9464B5A4655214FF4CD7007F044
:102F8000F8F9434B8C214FF48770069A07F0F1F95A
:102F90003F4B8C214FF4AA70059A07F0EAF93C4B9D
:102FA0008C214FF4CD70049A07F0E3F9384BCD2112
:102FB0004FF48770039A07F0DCF9354BCD214FF4BD
:102FC000AA70029A07F0D5F9314BCD214800019A39
:102FD00007F0CFF90121201D2E4A127850F8220067
:102FE00040680176281D2C4A127850F8220040686B
:102FF0000176301D294A127850F822004068017687
:1030000007B0BDE8F08F00006F0F00087F0F0008C9
:103010008F0F00089B0F0008A70F0008B70F0008CC
:10302000AC0700204372656174655F506172616D29
:103030006574657273466974726174696F6E506508
:1030400072696F6453637265656E0D0A000000005B
:103050004801002050010020FC1D000870000020E5
:103060006C000020C70F0008FB0F00082F1000089D
:103070003F1000084F1000085F1000086F10000894
:103080007F1000088F1000089F100008AF10000884
:10309000500800201B0000201C0000201D00002004
:1030A00008B5FEA009F03BF9FFF7EFFE002009F09C
:1030B000C8FD4FF6FF701C235A220C2100901420EB
:1030C0000AF095F9FD4809F038FD4FF6FF71002030
:1030D00009F016FDFA4A14210E2009F03CFF0021E8
:1030E0004FF6FF7009F00CFDF64809F026FDF6A238
:1030F0004FF48C71142009F02EFFF84809F01DFDE3
:10310000AFF28C521E21372009F025FFF4A21E21B8
:10311000782009F020FFAFF298521E21872009F095
:103120001AFFF1A21E21962009F015FFAFF2B0524E
:103130001E21B92009F00FFFEEA21E21C82009F0C0
:103140000AFFEF4809F0F9FCEEA2FF21372009F051
:1031500002FFEEA24FF4A071372009F0FCFEEDA2B1
:10316000FF21782009F0F7FEECA24FF4A07178203F
:1031700009F0F1FEEBA240F28B11782009F0EBFE92
:10318000EAA240F20911B92009F0E5FEE9A240F2F5
:103190004F11B92009F0DFFEE8A240F28111B920F9
:1031A00009F0D9FE4FF4784009F0BBFCE6A24FF4D9
:1031B000C371372009F0CFFEE5A240F2811146200D
:1031C00009F0C9FE4FF6FF701E23D222F0210090B5
:1031D00014200AF00CF94FF6FF701E23D222F021C2
:1031E0000090FA200AF003F94FF6FF71002009F071
:1031F00087FCAFF68C701E23D222F0210090FA20BB
:103200000AF049FBAE48C0301E23D222F0210090C4
:1032100014200AF040FB4FF6FF71002009F070FC0B
:10322000CE480121C26990470A20CD490880CB4889
:10323000CC49086008BD38B5CB4847F2C5531E22BB
:103240003C210090012008F039FE0446C74807F0F1
:1032500003FCC64B2246AA214FF4967007F089F86A
:1032600038BD08B5C2A009F05AF8FFF7E4FF47F2ED
:10327000C550AC234FF48C723221009064200AF0C8
:10328000B6F847F2C5514FF6FF7009F039FC934884
:1032900009F053FCBFA278213C2009F05CFEC1A2DA
:1032A0007821502009F057FEC1A27821642009F04E
:1032B00052FE934809F041FCBFA2E621962009F096
:1032C0004AFEBFA2E621A02009F045FE4FF6FF709E
:1032D00009F027FC3C231E22AA214FF4967009F026
:1032E00083FF47F2C5514FF6FF7009F009FC7B4898
:1032F00009F023FCAFF2F0601E233C22AA210090CB
:103300004FF496700AF0C7FA98480121C2699047B5
:1033100096489449086008BD38B5AB4847F2C55394
:103320001E223C210090012008F0C8FD0446A74859
:1033300007F092FBA54B2246AA214FF4967007F0A6
:1033400018F838BD08B5A2A008F0E9FFFFF7E4FFC0
:103350004EF2E300AC234FF48C72322100906420D3
:103360000AF045F84EF2E3014FF6FF7009F0C8FB92
:103370005A4809F0E2FBA0A278213C2009F0EBFDBD
:10338000A2A27821502009F0E6FD89A278216420CC
:1033900009F0E1FD5A4809F0D0FB87A2E62196200A
:1033A00009F0D9FD86A2E621A02009F0D4FD4FF650
:1033B000FF7009F0B6FB3C231E22AA214FF4967041
:1033C00009F012FF4EF2E3014FF6FF7009F098FB8F
:1033D000424809F0B2FBAFF2D0701E233C22AA2172
:1033E00000904FF496700AF056FA78480121C269AD
:1033F000904776485B49086008BD38B5724847F287
:10340000C5531E223C210090012008F057FD0446C0
:10341000824807F021FB814B2246AA214FF4967087
:1034200006F0A7FF38BD08B57DA008F078FFFFF7CC
:10343000E4FF47F2C550AC234FF48C723221009068
:10344000642009F0D4FF47F2C5514FF6FF7009F030
:1034500057FB224809F071FB7AA278213C2009F041
:103460007AFD7CA278215A2009F075FD81A278218D
:103470006E2009F070FD86A27821822009F06BFD94
:103480004FF6FF7009F04DFB3C231E22AA214FF49A
:10349000967009F0A9FE47F2C55109E143726561D2
:1034A00074655F506172616D6574657273576174A4
:1034B000657253637265656E0D0A00004801002055
:1034C0003C1D0008500100205741544552205041F6
:1034D00052414D45544552530000000070010020F8
:1034E000415645524147450054454D50455241547F
:1034F00055524500484152444E4553530000000088
:1035000060010020696E646F6F7200006F757464F3
:103510006F6F72003C2032306F43000032302D3329
:10352000306F43003E2033306F430000736F66748A
:103530000000000068617264000000007665727926
:10354000206861726400000065787472656D6500C2
:10355000636F6E646974696F6E000000500800202C
:10356000700000206C000020BF100008F40800204C
:1035700053686F775F5761726E696E674D617869E6
:103580006D616C53616665747953637265656E0D28
:103590000A0000004D6178696D616C207361666599
:1035A0007479000064697366656374696F6E000006
:1035B000646F736167653A006D6C2F6D33000000B6
:1035C000686F757200000000CF1000089809002095
:1035D00053686F775F5761726E696E674578747272
:1035E000656D65436F6E646974696F6E5363726570
:1035F000656E0D0A0000000045787472656D6520E7
:10360000636F6E646974696F6E0000006D61786944
:103610006D616C2073616665747900003C0A00205E
:1036200053686F775F5761726E696E675761746533
:1036300072486172646E65737353637265656E0D73
:103640000A000000576174657220686172646E65DB
:1036500073730000536F667420746F206D6F646520
:10366000726174656C792068617264203C39206FE6
:103670006448000049662070482076616C756520BA
:10368000646F6573206E6F74206368616E67650098
:1036900042616368204B686F612073746F707320A0
:1036A000616674657220313020646F7365732E001B
:1036B0004FF6FF7009F024FAAFF6B4201E233C2227
:1036C000AA2100904FF496700AF0E5F8FD48012118
:1036D000C2699047FB48FC49086008BD38B5FB4803
:1036E0004EF2E3031E223C210090012008F0E6FB8D
:1036F0000446F74807F0B0F9F54B2246AA214FF4EB
:10370000967006F036FE38BD08B5F2A008F007FE48
:10371000FFF7E4FF4EF2E300AC234FF48C7232214A
:103720000090642009F063FE4EF2E3014FF6FF7053
:1037300009F0E6F9F24809F000FAF2A278213C20FB
:1037400009F009FCF4A278215A2009F004FCF9A23E
:103750007821084609F0FFFBFEA278218C2009F0B1
:10376000FAFB4FF6FF7009F0DCF93C231E22AA2178
:103770004FF4967009F038FD4EF2E3014FF6FF70FA
:1037800009F0BEF9AFF680301E233C22AA2100903A
:103790004FF496700AF07FF8CD480121C269904736
:1037A000CB48C949086008BD38B5EF484EF2E3037D
:1037B0001E223C210090012008F080FB0446EB48CB
:1037C00007F04AF9E94B2246AA214FF4967006F019
:1037D000D0FD38BD08B5E6A008F0A1FDFFF7E4FF75
:1037E0004EF2E300AC234FF48C723221009064203F
:1037F00009F0FDFD4EF2E3014FF6FF7009F080F98C
:10380000BF4809F09AF9BFA278213C2009F0A3FB38
:10381000C1A278215A2009F09EFBDFA27821084638
:1038200009F099FBE4A278218C2009F094FB4FF673
:10383000FF7009F076F93C231E22AA214FF49670FE
:1038400009F0D2FC4EF2E3014FF6FF7009F058F98F
:10385000AFF64C401E233C22AA2100904FF49670F4
:103860000AF019F8C1480121C2699047BF4896493A
:10387000086008BD38B5D74847F2C5531E223C2121
:103880000090012008F01AFB0446D34807F0E4F842
:10389000D14B2246AA214FF4967006F06AFD38BD3E
:1038A00008B5CEA008F03BFDFFF7E4FF47F2C55096
:1038B000AC234FF48C7232210090642009F097FD04
:1038C00047F2C5514FF6FF7009F01AF98C4809F01C
:1038D00034F98CA278213C2009F03DFBC9A2782163
:1038E0005A2009F038FBCEA278216E2009F033FB74
:1038F0004FF6FF7009F015F93C231E22AA214FF460
:10390000967009F071FC47F2C5514FF6FF7009F04F
:10391000F7F8AFF60C501E233C22AA2100904FF47A
:10392000967009F0B8FFAC480121C2699047AA48D7
:103930006549086008BD38B5BF4847F2C5531E2227
:103940003C210090012008F0B9FA0446BB4807F07A
:1039500083F8BA4B2246AA214FF4967006F009FD6F
:1039600038BD08B5B6A008F0DAFCFFF7E4FF47F26F
:10397000C550AC234FF48C7232210090642009F0C2
:1039800036FD47F2C5514FF6FF7009F0B9F85C48B3
:1039900009F0D3F85BA278213C2009F0DCFAB5A24B
:1039A00078215A2009F0D7FABAA278216E2009F0BE
:1039B000D2FABFA27821822009F0CDFA4FF6FF702B
:1039C00009F0AFF83C231E22AA214FF4967009F0AB
:1039D0000BFC47F2C5514FF6FF7009F091F8AFF6B6
:1039E000D8501E233C22AA2100904FF4967009F073
:1039F00052FF92480121C2699047904832490860BD
:103A000008BD38B5AF484EF2E3031E223C210090BA
:103A1000012008F053FA0446AB4807F01DF8AA4B02
:103A20002246AA214FF4967006F0A3FC38BD08B5D3
:103A3000A6A008F074FCFFF7E4FF4EF2E300AC230D
:103A40004FF48C7232210090642009F0D0FC4EF2C9
:103A5000E3014FF6FF7009F053F8294809F06DF8BB
:103A600028A278213C2009F076FA82A278215A20F7
:103A700009F071FA87A278216E2009F06CFA8CA205
:103A80007821822009F067FA4FF6FF7009F049F8B3
:103A90003C231E22AA214FF4967009F0A5FB4EF29A
:103AA000E3014FF6FF7009F02BF8AFF6A4601E2378
:103AB0003C22AA2100904FF4967009F0ECFE824857
:103AC00001211FE13C0A00206C0000204D1200087B
:103AD000E00A002053686F775F5761726E696E6706
:103AE00050726F626543616C6962726174696F6E76
:103AF00036325F373853637265656E0D0A00000019
:103B00007001002050524F42452043414C494252DF
:103B10004154494F4E00000050726F62652063614E
:103B20006E6E6F742062652063616C69627261748D
:103B300065210000596F75206172652063616C69B1
:103B400062726174696E67206F7574736964652051
:103B50007468650072616E6765206F6620362E326C
:103B6000202D20372E3821005D120008840B002004
:103B700053686F775F5761726E696E6750726F62DC
:103B80006543616C6962726174696F6E53637265DB
:103B9000656E0D0A00000000576520617265207295
:103BA00065636F6D6D656E646564207265706C61D0
:103BB00063696E67000000007468652070726F6250
:103BC0006520776974682061206E6577206F6E6567
:103BD0002E0000006D120008280C002053686F773B
:103BE0005F5761726E696E6750726F626543616C98
:103BF0006962726174696F6E373053637265656EA6
:103C00000D0A000043616C6962726174696F6E2015
:103C10007265636F6D6D656E646564206279000026
:103C20007573696E672062756666657220704820DC
:103C3000372C302E000000007D120008CC0C002034
:103C400053686F775F5761726E696E6750726F620B
:103C50006543616C6962726174696F6E52657175FA
:103C60006972656456616C756553637265656E0D46
:103C70000A0000005468652063686C6F72696E65A5
:103C800020636F6E74656E7420696E20706F6F6C48
:103C9000000000007761746572206D757374206296
:103CA000652067726561746572207468616E0000DA
:103CB0002272657175697265642076616C75652222
:103CC0002E0000008D120008700D002053686F77E1
:103CD0005F5761726E696E6750726F626543616CA7
:103CE0006962726174696F6E52657175697265643B
:103CF00056616C756552656453637265656E0D0A35
:103D000000000000C2699047FD48FE49086008BDF8
:103D100038B5FD484EF2E3031E223C2100900120FD
:103D200008F0CCF80446F94806F096FEF74B224618
:103D3000AA214FF4967006F01CFB38BD08B5F4A01C
:103D400008F0EDFAFFF7E4FF4EF2E300AC234FF486
:103D50008C7232210090642009F049FB4EF2E3019D
:103D60004FF6FF7008F0CCFEF84808F0E6FEAFF220
:103D70006C2278213C2009F0EEF8F5A278215A2037
:103D800009F0E9F8F9A278216E2009F0E4F8FEA222
:103D90007821822009F0DFF8FDA27821962009F031
:103DA000DAF84FF6FF7008F0BCFE3C231E22AA2171
:103DB0004FF4967009F018FA4EF2E3014FF6FF70D7
:103DC00008F09EFEF9A01E233C22AA2100904FF489
:103DD000967009F060FDCD480121C2699047CB483B
:103DE000C849086008BD38B5F1484EF2E3031E2209
:103DF000C8210090012008F061F80446ED4806F063
:103E00002BFEEC4B2246AA21A02006F0B2FA38BDC8
:103E100008B5E9A008F083FAFFF7E5FF4EF2E300EA
:103E2000AC234FF48C7232210090642009F0DFFA49
:103E30004EF2E3014FF6FF7008F062FEC34808F04F
:103E40007CFEE6A278213C2009F085F8EBA27821DF
:103E50005A2009F080F8F1A278216E2009F07BF851
:103E6000F5A27821822009F076F84FF6FF7008F06D
:103E700058FEC8231E22AA21A02009F0B5F94EF24F
:103E8000E3014FF6FF7008F03BFEEEA01E23C822B0
:103E9000AA210090A02009F0FEFCC6480121C269B9
:103EA0009047C4489749086008BD2DE9F843EA489F
:103EB0004FF6FF731E22D2210090012007F0FEFF73
:103EC0000446E6484FF6FF731E22D22100900220DE
:103ED00007F0F4FF0546E24805233C2264210090E8
:103EE000032007F0EBFF0646DE4805233C22642151
:103EF0000090042007F0E2FF0746DB4805233C2240
:103F0000D2210090184607F0D9FF8046D7480123F8
:103F10006422D2210090062007F0D0FF8146D448C9
:103F200006F09AFDD24B2246F021FA2006F021FA43
:103F3000CF4B2A46F021142006F01BFACC4B324618
:103F4000AA21142006F015FAC94B3A46AA2182206C
:103F500006F00FFAC64B4246AA21FA2006F009FAEB
:103F6000C34B4A463C21142006F003FABDE8F8830F
:103F700008B5C0A008F0D3F9FFF797FF002008F0BC
:103F800060FE4FF6FF701C235A220C210090142073
:103F900009F02DFAC14808F0D0FD4FF6FF7100205E
:103FA00008F0AEFDBE4A14210E2008F0D4FF002117
:103FB0004FF6FF7008F0A4FDBA4808F0BEFDBAA2A3
:103FC0004FF49171142008F0C6FF4FF66860642327
:103FD000D2223C210090142009F009FA40F2FC4062
:103FE0006423D2223C210090FA2009F000FA4FF617
:103FF000686008F09CFD002008F093FDAEA21E2131
:10400000462008F0A8FF40F2FC4008F090FDABA26B
:104010004FF48271462008F09EFF002014233C22BA
:104020008C21009040F2451009F0E1F94FF6FF7045
:104030001E23D222F0210090142009F0D8F94FF667
:10404000FF701E23D222F0210090FA2009F0CFF950
:1040500040F2FC4008F065FD64233C22AA211420B4
:1040600009F0C2F864233C22AA21822009F0BCF89E
:10407000D2233C22AA21FA2009F0B6F8874808F09A
:104080005CFD00214FF6FF7008F03AFD8CA03C2348
:104090006422AA210090142009F0FDFB89A03C2392
:1040A0006422AA210090822009F0F5FB7D4808F0E7
:1040B00044FD3EA03C23D222AA210090FA2009F020
:1040C000EAFB4FF6FF71002008F01AFD7E481E2320
:1040D000D222F0210090FA2009F0DDFB7048C030B8
:1040E0001E23D222F0210090142009F0D4FB4FF6B9
:1040F000FF71002008F004FD5D480121C269E5E080
:10410000700D00206C0000209D120008140E00208D
:1041100053686F775F5761726E696E6750726F6236
:104120006543616C6962726174696F6E5265717525
:104130006972656456616C7565496D706F737369FA
:10414000626C6553637265656E0D0A007001002034
:1041500043616C6962726174696F6E206973206972
:104160006D706F737369626C6521000050726F62CD
:10417000652073656E736974697669747920746FEC
:104180006F206C6F772E00004368616E67653A00A0
:10419000656C656374726F6C7974652F6D656D62A3
:1041A00072616E652F70726F62652E004F4B00005A
:1041B000AD120008B80E002053686F775F57617228
:1041C0006E696E67546F6F52617069644368616EA7
:1041D000676553637265656E0D0A0000546F6F204A
:1041E0007261706964206368616E6765206F662024
:1041F00070482076616C75652E000000424143488E
:10420000204B484F412073746F7020726567756C46
:104210006174696F6E73206F6600000070482066DD
:104220006F72203220686F75727320666F72207310
:104230006166657479000000726561736F6E732E3C
:104240000000000043414E43454C20524553545218
:10425000494354494F4E5300BD120008CD12000887
:10426000DD120008FB1200081913000829130008CA
:104270005C0F002053686F775F506172616D6574E9
:104280006572735265717569726556616C7565709A
:104290004853637265656E0D0A00000048010020F6
:1042A0003C1D0008500100205245515549524544DB
:1042B0002056414C55455300434C46007048000081
:1042C0002B0000002D0000006822000890471520F8
:1042D000FD490880FD48FE49086008BD2DE9F84306
:1042E000FC484FF6FF731E22D2210090012007F0F8
:1042F000E5FD0446F8484FF6FF731E22D2210090D8
:10430000022007F0DBFD0546F44804233C2264212B
:104310000090032007F0D2FD0646F14804233C221A
:1043200064210090184607F0C9FD0746ED480423B4
:104330003C22D2210090052007F0C0FD8046EA48CB
:1043400001236422D2210090062007F0B7FD8146A8
:10435000E64806F081FBE54B2246F021FA2006F004
:1043600008F8E24B2A46F021142006F002F8DF4B51
:104370003246AA21142005F0FCFFDC4B3A46AA2164
:10438000822005F0F6FFD94B4246AA21FA2005F01B
:10439000F0FFD64B4A463C21FA2005F0EAFFBDE883
:1043A000F88308B5D2A007F0BAFFFFF797FF002007
:1043B00008F047FC4FF6FF701C235A220C21009096
:1043C000142009F014F8D44808F0B7FB4FF6FF7139
:1043D000002008F095FBD14A14210E2008F0BBFD07
:1043E00000214FF6FF7008F08BFBCD4808F0A5FBCD
:1043F000AFF24C124FF49171142008F0ACFD4FF65F
:1044000068606423D2223C210090142008F0EFFF62
:1044100040F2FC406423D2223C210090FA2008F0B4
:10442000E6FF4FF6686008F082FB002008F079FB99
:10443000AFF27C121E21462008F08DFD00201423CF
:104440003C228C2100905F2008F0D1FF40F2FC401C
:1044500008F06DFBAFF29C124FF48271462008F019
:104460007AFD4FF6FF701E23D222F0210090142017
:1044700008F0BDFF4FF6FF701E23D222F0210090FE
:10448000FA2008F0B4FF4FF6686008F04AFB642396
:104490003C22AA21142008F0A7FE64233C22AA2172
:1044A000822008F0A1FED2233C22AA21FA2008F0A3
:1044B0009BFE994808F041FB00214FF6FF7008F081
:1044C0001FFBAFF204203C236422AA210090142099
:1044D00009F0E1F9AFF214203C236422AA210090F4
:1044E000822009F0D8F98E4808F027FBAFF244305B
:1044F0003C23D222AA210090FA2009F0CCF94FF6F1
:10450000FF71002008F0FCFA86481E23D222F02119
:104510000090FA2009F0BFF98048C0301E23D22253
:10452000F0210090142009F0B6F94FF6FF71002039
:1045300008F0E6FA6D480121C269904716206249E9
:1045400008806A486249086008BD2DE9F84376484A
:104550004FF6FF731E22D2210090012007F0AEFC1F
:10456000044672484FF6FF731E22D22100900220AB
:1045700007F0A4FC05466E4801235022D22100908A
:10458000032007F09BFC06466A4801235022D221F3
:104590000090042007F092FC074667480023502251
:1045A000D2210090052007F089FC80466348002353
:1045B0005022D2210090062007F080FC81466048FE
:1045C00006F04AFA5E4B2246F021FA2005F0D1FEB1
:1045D0005B4B2A46F021142005F0CBFE584B3246A7
:1045E0003C21142005F0C5FE554B3A463C21FA20EB
:1045F00005F0BFFE524B42469621142005F0B9FE4D
:104600004F4B4A469621FA2005F0B3FEBDE8F883E9
:1046100008B54CA007F083FEFFF797FF002008F0D5
:1046200010FB4FF6FF701C235A220C21009014201F
:1046300008F0DDFE384808F080FA4FF6FF710020E0
:1046400008F05EFA354A14210E2008F084FC00219F
:104650004FF6FF7008F054FA314808F06EFA2F4A0E
:104660008C3240F25911142008F075FC4FF6686046
:104670005023D2223C210090142008F0B8FE40F2D2
:10468000FC405023D2223C210090FA2008F0AFFEDB
:10469000D22350229621142008F0A6FDD2235022C6
:1046A0009621FA2008F0A0FD4FF6FF701E23D222BB
:1046B000F0210090142008F09AFE4FF6FF701E23A0
:1046C000D222F02100904BE0700000205C0F00200F
:1046D0006C00002039130008491300085913000822
:1046E0007713000895130008A71300080010002096
:1046F00053686F775F506172616D65746572735254
:1047000065717569726556616C7565434C46536396
:104710007265656E0D0A0000480100203C1D00080E
:104720005001002068220008B7130008C7130008D2
:10473000D7130008F31300080F1400081F14000813
:10474000A41000204372656174655F43616C696207
:10475000726174696F6E53637265656E0D0A000055
:10476000FA2008F044FEFC4808F0E7F94FF66861CB
:10477000002008F0C5F9F9A03223D2223C21009094
:10478000142009F088F8F8483223D22255210090ED
:10479000142009F080F840F2FC41002008F0B0F944
:1047A000F2A03223D2223C210090FA2009F073F8C3
:1047B000ED483223D22255210090FA2009F06BF8FF
:1047C00000214FF6FF7008F09BF9EB483223D2220C
:1047D00096210090142009F05EF8E8A03223D2223E
:1047E000AF210090142009F056F8E7A03223D2221E
:1047F00096210090FA2009F04EF8E0A03223D22250
:10480000AF210090FA2009F046F84FF6FF71002022
:1048100008F076F9DD481E23D222F0210090FA201C
:1048200009F039F8D04834301E23D222F02100900C
:10483000142009F030F8D6480121C26990471720AA
:10484000D4490880D248D449086008BD2DE9F8430E
:10485000D2484FF6FF731E22D2210090012007F0AC
:104860002DFB0446CE484FF6FF731E22D221009046
:10487000022007F023FB0546CA4805233C22642199
:104880000090032007F01AFB0646C74805233C2288
:1048900064210090042007F011FB0746C34805235C
:1048A0003C22D2210090184607F008FB8046C04801
:1048B00006F0D2F8BE4B2246F021FA2005F059FD51
:1048C000BB4B2A46F021142005F053FDB84B32466D
:1048D000AA21142005F04DFDB54B3A46AA218220AD
:1048E00005F047FDB24B4246AA21FA2005F041FDF2
:1048F000BDE8F88308B5AFA007F011FDFFF7A6FFEC
:10490000002008F09EF94FF6FF701C235A220C215C
:104910000090142008F06BFDAE4808F00EF94FF639
:10492000FF71002008F0ECF88F4A8C3A14210E2019
:1049300008F011FB00214FF6FF7008F0E1F88648FF
:1049400008F0FBF8A4A2E621142008F004FB40F2D2
:10495000FC406423D2223C210090FA2008F047FD5D
:1049600000214FF6FF7008F0CBF8A14808F0E5F8F9
:10497000A0A21E21462008F0EEFAAFF66C521E21CE
:104980005A2008F0E8FAAFF668521E216E2008F0AF
:10499000E2FA40F2FC4008F0CAF8002008F0C1F842
:1049A0006D4808F0CAF8AFF2EC624FF4827146200D
:1049B00008F0D1FA002014233C228C21009040F210
:1049C000451008F014FD4FF6FF701E23D222F0218F
:1049D0000090142008F00BFD4FF6FF701E23D2222A
:1049E000F0210090FA2008F002FD40F2FC4008F0AF
:1049F00098F864233C22AA21142008F0F5FB6423D4
:104A00003C22AA21822008F0EFFBD2233C22AA21DB
:104A1000FA2008F0E9FB6F4808F08FF800214FF604
:104A2000FF7008F06DF8AFF268703C236422AA2191
:104A30000090142008F02FFFAFF278703C2364221E
:104A4000AA210090822008F026FF434808F075F85C
:104A5000AFF6A8003C23D222AA210090FA2008F049
:104A60001AFF4FF6FF71002008F04AF847481E234E
:104A7000D222F0210090FA2008F00DFF3A4834309D
:104A80001E23D222F0210090142008F004FF4FF6DC
:104A9000FF71002008F034F845480121C2699047B1
:104AA00018203C49088042483B49086008BD2DE970
:104AB000F84353484FF6FF731E22D2210090012085
:104AC00007F0FCF904464F484FF6FF731E22D2212F
:104AD0000090022007F0F2F905464B4804233C22DF
:104AE00064210090032007F0E9F9064647480423B3
:104AF0003C2264210090184607F0E0F9074644483C
:104B000004233C22D2210090052007F0D7F98046EB
:104B1000404805F0A1FF3F4B2246F021FA2005F066
:104B200028FC3C4B2A46F021142005F022FC394B8E
:104B30003246AA21142005F01CFC364B3A46AA2125
:104B4000822005F016FC334B4246AA21FA2005F0DC
:104B500010FCBDE8F883000050010020434C4620C3
:104B600050524F4245000000C81D000870482050B8
:104B7000524F424500000000802B00085448455227
:104B80004D4F4D455445520041495200682200089E
:104B9000A4100020700000206C0000202F140008DA
:104BA0003F1400084F1400086D1400088B1400080F
:104BB0004811002053686F775F43616C69627261CE
:104BC00074696F6E704850726F6265536372656589
:104BD0006E0D0A004801002070482043414C4942B4
:104BE000524154494F4E2050524F42450000000060
:104BF0007001002043616C6962726174696F6E00BC
:104C00009D140008AD140008BD140008DB14000852
:104C1000F9140008EC11002008B5FEA007F07FFB96
:104C2000FFF745FF002008F00CF84FF6FF701C233B
:104C30005A220C210090142008F0D9FBFE4807F0FE
:104C40007CFF4FF6FF71002007F05AFFFB4A14214A
:104C50000E2008F080F900214FF6FF7007F050FF9A
:104C6000F74807F06AFFF7A2D721142008F073F97C
:104C70004FF668606423D2223C210090FA2008F0AD
:104C8000B6FB00214FF6FF7007F03AFFF34807F03C
:104C900054FFF3A21E21462008F05DF9F6A21E2162
:104CA0005A2008F058F9FBA21E216E2008F053F993
:104CB0004FF6686007F03BFF002007F032FFAFF6C9
:104CC00008224FF48271462008F045F90020142391
:104CD0003C228C21009040F2451008F088FB4FF6F2
:104CE000FF701E23D222F0210090142008F07FFBD9
:104CF0004FF6FF701E23D222F0210090FA2008F018
:104D000076FB4FF6686007F00CFF64233C22AA2173
:104D1000142008F069FA64233C22AA21822008F0BA
:104D200063FAD2233C22AA21FA2008F05DFAC24895
:104D300007F003FF00214FF6FF7007F0E1FEAFF62A
:104D400080203C236422AA210090142008F0A3FDB7
:104D5000AFF690203C236422AA210090822008F024
:104D60009AFDB74807F0E9FEAFF6C0303C23D222E7
:104D7000AA210090FA2008F08EFD4FF6FF71002066
:104D800007F0BEFEC9481E23D222F0210090FA206F
:104D900008F081FDA948C0301E23D222F0210090E6
:104DA000142008F078FD4FF6FF71002007F0A8FEF0
:104DB000BF480121C26990471920BE490880BC48FC
:104DC000BD49086008BD2DE9F843BC484FF6FF73A4
:104DD0001E22D2210090012007F070F80446B84846
:104DE0004FF6FF731E22D2210090022007F066F8D2
:104DF0000546B44804233C2264210090032007F0B8
:104E00005DF80646B04804233C2264210090184611
:104E100007F054F80746AD4804233C22D221009005
:104E2000052007F04BF88046A94801236422D221CF
:104E30000090062007F042F88146A64805F00CFED7
:104E4000A44B2246F021FA2005F093FAA14B2A4602
:104E5000F021142005F08DFA9E4B3246AA21142031
:104E600005F087FA9B4B3A46AA21822005F081FA89
:104E7000984B4246AA21FA2005F07BFA954B4A4608
:104E80003C21FA2005F075FABDE8F88308B592A038
:104E900007F045FAFFF797FF002007F0D2FE4FF624
:104EA000FF701C235A220C210090142008F09FFA56
:104EB000614807F042FE4FF6FF71002007F020FE28
:104EC0005E4A14210E2008F046F800214FF6FF70CC
:104ED00007F016FE5A4807F030FEAFF634424FF4A2
:104EE0009171142008F037F84FF668606423D222DD
:104EF0003C210090142008F07AFA40F2FC40642330
:104F0000D2223C210090FA2008F071FA4FF6686036
:104F100007F00DFE002007F004FE7CA21E214620B3
:104F200008F019F8002014233C228C2100905F2007
:104F300008F05DFA40F2FC4007F0F9FDAFF684425C
:104F40004FF48271462008F006F84FF6FF701E23DA
:104F5000D222F0210090142008F049FA4FF6FF7099
:104F60001E23D222F0210090FA2008F040FA4FF6DA
:104F7000686007F0D6FD64233C22AA21142008F0C3
:104F800033F964233C22AA21822008F02DF9D22390
:104F90003C22AA21FA2008F027F9274807F0CDFD86
:104FA00000214FF6FF7007F0ABFDAFF6EC403C235D
:104FB0006422AA210090142008F06DFCAFF6FC409A
:104FC0003C236422AA210090822008F064FC1C4843
:104FD00007F0B3FDAFF62C603C23D222AA2100904B
:104FE000FA2008F058FC4FF6FF71002007F088FD0A
:104FF0002E481E23D222F0210090FA2008F04BFC0C
:105000000E48C0301E23D222F0210090142008F058
:1050100042FC7FE053686F775F43616C6962726145
:1050200074696F6E434C4650726F6265536372656C
:10503000656E0D0A00000000480100203C1D0008BC
:1050400050010020434C462043414C4942524154B8
:10505000494F4E2050524F42450000007001002041
:105060005468652063686C6F72696E6520636F6E4B
:1050700074656E7420696E00706F6F6C2077617458
:105080006572206D75737420626520677265617446
:10509000657200007468616E2022726571756972B4
:1050A00065642076616C7565222E00006822000818
:1050B000EC110020700000206C0000200B1500088F
:1050C0001B1500082B1500083715000843150008AC
:1050D000531500089012002053686F775F5061727B
:1050E000616D65746572735265717569726556613B
:1050F0006C75655265646F7870485F526F6465784F
:1051000053637265656E0D0A000000005245444FFE
:10511000580000004FF6FF71002007F0F1FCFE4838
:105120000121C26990471A20FC490880FA48FC49CD
:10513000086008BD2DE9F843FA484FF6FF731E22B8
:10514000D2210090012006F0B9FE0446F6484FF641
:10515000FF731E22D2210090022006F0AFFE05460A
:10516000F24805233C2264210090032006F0A6FEAD
:105170000646EF4805233C2264210090042006F0F7
:105180009DFE0746EB4805233C22D221009018469D
:1051900006F094FE8046E84801236422D221009064
:1051A000062006F08BFE8146E44805F055FCE34BF3
:1051B0002246F021FA2005F0DCF8E04B2A46F021E7
:1051C000142005F0D6F8DD4B3246AA21142005F054
:1051D000D0F8DA4B3A46AA21822005F0CAF8D74B1C
:1051E0004246AA21FA2005F0C4F8D44B4A463C2195
:1051F000142005F0BEF8BDE8F88308B5D0A007F08C
:105200008EF8FFF797FF002007F01BFD4FF6FF70A9
:105210001C235A220C210090142008F0E8F8D448EE
:1052200007F08BFC4FF6FF71002007F069FCD14AB4
:1052300014210E2007F08FFE00214FF6FF7007F0BB
:105240005FFCCD4807F079FCAFF6A4724FF4917182
:10525000142007F080FE4FF668606423D2223C21C0
:105260000090142008F0C3F840F2FC406423D222DE
:105270003C210090FA2008F0BAF84FF6686007F079
:1052800056FC002007F04DFCAFF280121E21462094
:1052900007F061FE40F2FC4007F049FCAFF6E47213
:1052A0004FF48271462007F056FE002014233C2262
:1052B0008C21009040F2451008F099F84FF6FF70ED
:1052C0001E23D222F0210090142008F090F84FF60F
:1052D000FF701E23D222F0210090FA2008F087F8F8
:1052E00040F2FC4007F01DFC64233C22AA2114205C
:1052F00007F07AFF64233C22AA21822007F074FF82
:10530000D2233C22AA21FA2007F06EFF984807F02A
:1053100014FC00214FF6FF7007F0F2FB97A03C232E
:105320006422AA210090142008F0B5FA94A03C232E
:105330006422AA210090822008F0ADFA8E4807F07E
:10534000FCFB90A03C23D222AA210090FA2008F076
:10535000A2FA4FF6FF71002007F0D2FB8A481E2305
:10536000D222F0210090FA2008F095FA8148C0304E
:105370001E23D222F0210090142008F08CFA4FF660
:10538000FF71002007F0BCFB6C480121C269904707
:105390001B206249088069486149086008BD2DE901
:1053A000F8437A484FF6FF731E22D2210090012065
:1053B00006F084FD044676484FF6FF731E22D22184
:1053C0000090022006F07AFD0546724804233C2234
:1053D00064210090032006F071FD06466E48042308
:1053E0003C2264210090184606F068FD07466B4891
:1053F00004233C22D2210090052006F05FFD804668
:10540000674801236422D2210090062006F056FD51
:105410008146644805F020FB624B2246F021FA20C9
:1054200004F0A7FF5F4B2A46F021142004F0A1FFEF
:105430005C4B3246AA21142004F09BFF594B3A469C
:10544000AA21822004F095FF564B4246AA21FA2059
:1054500004F08FFF534B4A463C21FA2004F089FFA9
:10546000BDE8F88308B550A006F059FFFFF797FF95
:10547000002007F0E6FB4FF6FF701C235A220C2198
:105480000090142007F0B3FF394807F056FB4FF6A1
:10549000FF71002007F034FB364A14210E2007F07C
:1054A0005AFD00214FF6FF7007F02AFB324807F043
:1054B00044FB4A4A4FF49171142007F04CFD4FF61B
:1054C00068606423D2223C210090142007F08FFFF3
:1054D00040F2FC406423D2223C210090FA2007F0E5
:1054E00086FF4FF6686007F022FB002007F019FBEB
:1054F0003BA21E21462007F02EFD3BA2782146202C
:1055000007F029FD002014233C228C2100905F200D
:1055100007F06DFF6EE00000901200207000002088
:105520006C0000206315000873150008831500083F
:10553000A1150008BF150008D1150008341300207C
:1055400053686F775F506172616D657465727352F5
:1055500065717569726556616C75655265646F78C1
:1055600070485F704853637265656E0D0A000000F5
:10557000480100203C1D0008500100202B000000C5
:105580002D0000004F4B000068220008E1150008C4
:10559000F1150008011600080D1600084516000850
:1055A00053160008D813002053686F775F5061725C
:1055B000616D657465727352657175697265566166
:1055C0006C7565446F736570485F446F7365486FB1
:1055D000757253637265656E0D0A0000A84200087B
:1055E000444F5345000000006D6C2F6D33686F759C
:1055F0007200000040F2FC4007F099FAFEA24FF45E
:105600008271462007F0A7FC4FF6FF701E23D222BE
:10561000F0210090142007F0EAFE4FF6FF701E23E1
:10562000D222F0210090FA2007F0E1FE4FF66860E8
:1056300007F077FA64233C22AA21142007F0D4FD56
:1056400064233C22AA21822007F0CEFDD2233C22F3
:10565000AA21FA2007F0C8FDE84807F06EFA0021F9
:105660004FF6FF7007F04CFAAFF2F0003C236422D3
:10567000AA210090142008F00EF9AFF2FC003C23A0
:105680006422AA210090822008F005F9DC4807F086
:1056900054FAAFF210103C23D222AA210090FA2033
:1056A00008F0F9F84FF6FF71002007F029FAD54805
:1056B0001E23D222F0210090FA2008F0ECF8D24804
:1056C0001E23D222F0210090142008F0E4F84FF6B7
:1056D000FF71002007F014FACC480121C2699047FD
:1056E0001C20CB490880C948CA49086008BD2DE97B
:1056F000F843C9484FF6FF731E22D22100900120C3
:1057000006F0DCFB0446C5484FF6FF731E22D2218B
:105710000090022006F0D2FB0546C14805233C223A
:1057200064210090032006F0C9FB0646BD4805230E
:105730003C2264210090042006F0C0FB0746BA48D2
:1057400005233C22D2210090184606F0B7FB804684
:10575000B64801236422D2210090062006F0AEFB59
:105760008146B34805F078F9B14B2246F021FA2082
:1057700004F0FFFDAE4B2A46F021142004F0F9FDA1
:10578000AB4B3246AA21142004F0F3FDA84B3A4655
:10579000AA21822004F0EDFDA54B4246AA21FA2061
:1057A00004F0E7FDA24B4A463C21142004F0E1FD41
:1057B000BDE8F88308B59FA006F0B1FDFFF797FF9D
:1057C000002007F03EFA4FF6FF701C235A220C21EE
:1057D0000090142007F00BFE884807F0AEF94FF652
:1057E000FF71002007F08CF9874AC03A14210E207F
:1057F00007F0B1FB00214FF6FF7007F081F98048F8
:1058000007F09BF9994A4FF49171142007F0A3FB1C
:105810004FF668606423D2223C210090142007F0E8
:10582000E6FD40F2FC406423D2223C210090FA20A5
:1058300007F0DDFD4FF6686007F079F9002007F00A
:1058400070F9AFF264221E21462007F084FBAFF20C
:1058500068227821462007F07EFB40F2FC4007F0EA
:1058600066F965A24FF48271462007F074FB0020B0
:1058700014233C228C21009040F2451007F0B7FD24
:105880004FF6FF701E23D222F0210090142007F063
:10589000AEFD4FF6FF701E23D222F0210090FA20B9
:1058A00007F0A5FD40F2FC4007F03BF964233C22E1
:1058B000AA21142007F098FC64233C22AA2182200C
:1058C00007F092FCD2233C22AA21FA2007F08CFC9C
:1058D0004A4807F032F900214FF6FF7007F010F93F
:1058E000AFF268303C236422AA210090142007F014
:1058F000D2FFAFF274303C236422AA2100908220B0
:1059000007F0C9FF3E4807F018F9AFF288303C2392
:10591000D222AA210090FA2007F0BDFF4FF6FF71B6
:10592000002007F0EDF837481E23D222F021009026
:10593000FA2007F0B0FF34481E23D222F021009055
:10594000142007F0A8FF4FF6FF71002007F0D8F8E9
:1059500037480121C26990471D202D4908803448ED
:105960002C49086008BD2DE9F84341484FF6FF7304
:105970001E22D2210090012006F0A0FA04463D48E4
:105980004FF6FF731E22D2210090022006F096FAF5
:105990000546394808233C2264210090032006F084
:1059A0008DFA0646354808233C22642100900420E5
:1059B00006F084FA0746324808233C22D2210090A0
:1059C000052006F07BFA80462E4801236422D2216E
:1059D0000090062006F072FA81462B4805F03CF84C
:1059E000294B2246F021FA2004F0C3FC264B2A461C
:1059F000F02114204AE00000704800004801002017
:105A00005001002068220008FC1D0008D813002067
:105A1000700000206C000020631600087316000858
:105A200083160008A1160008BF160008D11600084A
:105A30007C14002053686F775F506172616D6574EC
:105A40006572735265717569726556616C756544EE
:105A50006F736570485F446F7365486F75725F70F0
:105A60004853637265656E0D0A000000A842000885
:105A7000E1160008F11600080117000831170008A8
:105A800061170008711700082015002004F071FC50
:105A9000FE4B3246AA21142004F06BFCFB4B3A4625
:105AA000AA21822004F065FCF84B4246AA21FA2084
:105AB00004F05FFCF54B4A463C21FA2004F059FC07
:105AC000BDE8F88308B5F2A006F029FCFFF74BFF0C
:105AD000002007F0B6F84FF6FF701C235A220C2165
